C51 COMPILER V9.51   CYSPC                                                                 10/24/2019 10:04:16 PAGE 1   


C51 COMPILER V9.51, COMPILATION OF MODULE CYSPC
OBJECT MODULE PLACED IN .\DP8051\DP8051_Keil_951\Debug\CySpc.obj
COMPILER INVOKED BY: C:\Program Files\Cypress\PSoC Creator\4.2\PSoC Creator\import\keil\pk51\9.51\C51\BIN\c51.exe Genera
                    -ted_Source\PSoC3\CySpc.c NOIV LARGE MODDP2 OMF2 VB(1) NOIP INCDIR(.,Generated_Source\PSoC3) FF(3) DB DF(DEBUG) WL(2) PR(
                    -.\DP8051\DP8051_Keil_951\Debug/CySpc.lst) CD OT(2,SIZE) OJ(.\DP8051\DP8051_Keil_951\Debug\CySpc.obj)

line level    source

   1          /***************************************************************************//**
   2          * \file CySpc.c
   3          * \version 5.70
   4          *
   5          * \brief Provides an API for the System Performance Component.
   6          * The SPC functions are not meant to be called directly by the user
   7          * application.
   8          *
   9          ********************************************************************************
  10          * \copyright
  11          * Copyright 2008-2018, Cypress Semiconductor Corporation.  All rights reserved.
  12          * You may use this file only in accordance with the license, terms, conditions,
  13          * disclaimers, and limitations in the end user license agreement accompanying
  14          * the software package with which this file was provided.
  15          *******************************************************************************/
  16          
  17          #include "CySpc.h"
  18          
  19          #define CY_SPC_KEY_ONE                      (0xB6u)
  20          #define CY_SPC_KEY_TWO(x)                   ((uint8) (((uint16) 0xD3u) + ((uint16) (x))))
  21          
  22          /* Command Codes */
  23          #define CY_SPC_CMD_LD_BYTE                  (0x00u)
  24          #define CY_SPC_CMD_LD_MULTI_BYTE            (0x01u)
  25          #define CY_SPC_CMD_LD_ROW                   (0x02u)
  26          #define CY_SPC_CMD_RD_BYTE                  (0x03u)
  27          #define CY_SPC_CMD_RD_MULTI_BYTE            (0x04u)
  28          #define CY_SPC_CMD_WR_ROW                   (0x05u)
  29          #define CY_SPC_CMD_WR_USER_NVL              (0x06u)
  30          #define CY_SPC_CMD_PRG_ROW                  (0x07u)
  31          #define CY_SPC_CMD_ER_SECTOR                (0x08u)
  32          #define CY_SPC_CMD_ER_ALL                   (0x09u)
  33          #define CY_SPC_CMD_RD_HIDDEN                (0x0Au)
  34          #define CY_SPC_CMD_PRG_PROTECT              (0x0Bu)
  35          #define CY_SPC_CMD_CHECKSUM                 (0x0Cu)
  36          #define CY_SPC_CMD_DWNLD_ALGORITHM          (0x0Du)
  37          #define CY_SPC_CMD_GET_TEMP                 (0x0Eu)
  38          #define CY_SPC_CMD_GET_ADC                  (0x0Fu)
  39          #define CY_SPC_CMD_RD_NVL_VOLATILE          (0x10u)
  40          #define CY_SPC_CMD_SETUP_TS                 (0x11u)
  41          #define CY_SPC_CMD_DISABLE_TS               (0x12u)
  42          #define CY_SPC_CMD_ER_ROW                   (0x13u)
  43          
  44          /* Enable bit in Active and Alternate Active mode templates */
  45          #define PM_SPC_PM_EN                        (0x08u)
  46          
  47          /* Gate calls to the SPC. */
  48          uint8 SpcLockState = CY_SPC_UNLOCKED;
  49          
  50          
  51          #if(CY_PSOC5)
              
                  /***************************************************************************
C51 COMPILER V9.51   CYSPC                                                                 10/24/2019 10:04:16 PAGE 2   

                  * The wait-state pipeline must be enabled prior to accessing the SPC
                  * register interface regardless of CPU frequency. The CySpcLock() saves
                  * current wait-state pipeline state and enables it. The CySpcUnlock()
                  * function, which must be called after SPC transaction, restores original
                  * state.
                  ***************************************************************************/
                  static uint32 spcWaitPipeBypass = 0u;
              
              #endif  /* (CY_PSOC5) */
  63          
  64          
  65          /*******************************************************************************
  66          * Function Name: CySpcStart
  67          ****************************************************************************//**
  68          *  Starts the SPC.
  69          *
  70          *******************************************************************************/
  71          void CySpcStart(void) 
  72          {
  73   1          /* Save current global interrupt enable and disable it */
  74   1          uint8 interruptState = CyEnterCriticalSection();
  75   1      
  76   1          CY_SPC_PM_ACT_REG  |= PM_SPC_PM_EN;
  77   1          CY_SPC_PM_STBY_REG |= PM_SPC_PM_EN;
  78   1      
  79   1          /* Restore global interrupt enable state */
  80   1          CyExitCriticalSection(interruptState);
  81   1      }
  82          
  83          
  84          /*******************************************************************************
  85          * Function Name: CySpcStop
  86          ****************************************************************************//**
  87          *  Stops the SPC.
  88          *
  89          *******************************************************************************/
  90          void CySpcStop(void) 
  91          {
  92   1          /* Save current global interrupt enable and disable it */
  93   1          uint8 interruptState = CyEnterCriticalSection();
  94   1      
  95   1          CY_SPC_PM_ACT_REG  &= ((uint8)(~PM_SPC_PM_EN));
  96   1          CY_SPC_PM_STBY_REG &= ((uint8)(~PM_SPC_PM_EN));
  97   1      
  98   1          /* Restore global interrupt enable state */
  99   1          CyExitCriticalSection(interruptState);
 100   1      }
 101          
 102          
 103          /*******************************************************************************
 104          * Function Name: CySpcReadData
 105          ****************************************************************************//**
 106          *  Reads data from the SPC.
 107          *
 108          *  \param uint8 buffer:
 109          *   Address to store data read.
 110          *
 111          *  \param uint8 size:
 112          *   Number of bytes to read from the SPC.
 113          *
 114          * \return
 115          *  uint8:
C51 COMPILER V9.51   CYSPC                                                                 10/24/2019 10:04:16 PAGE 3   

 116          *   The number of bytes read from the SPC.
 117          *
 118          *******************************************************************************/
 119          uint8 CySpcReadData(uint8 buffer[], uint8 size) 
 120          {
 121   1          uint8 i;
 122   1      
 123   1          for(i = 0u; i < size; i++)
 124   1          {
 125   2              while(!CY_SPC_DATA_READY)
 126   2              {
 127   3                  CyDelayUs(1u);
 128   3              }
 129   2              buffer[i] = CY_SPC_CPU_DATA_REG;
 130   2          }
 131   1      
 132   1          return(i);
 133   1      }
 134          
 135          
 136          /*******************************************************************************
 137          * Function Name: CySpcLoadMultiByte
 138          ****************************************************************************//**
 139          *  Loads 1 to 32 bytes of data into the row latch of a Flash/EEPROM array.
 140          *
 141          *  \param uint8 array:
 142          *   Id of the array.
 143          *
 144          *  \param uint16 address:
 145          *   Flash/eeprom addrress
 146          *
 147          *  \param uint8* buffer:
 148          *   Data to load to the row latch
 149          *
 150          *  \param uint16 number:
 151          *   Number bytes to load.
 152          *
 153          * \return
 154          *  CYRET_STARTED
 155          *  CYRET_CANCELED
 156          *  CYRET_LOCKED
 157          *  CYRET_BAD_PARAM
 158          *
 159          *******************************************************************************/
 160          cystatus CySpcLoadMultiByte(uint8 array, uint16 address, const uint8 buffer[], uint8 size)\
 161          
 162          {
 163   1          cystatus status = CYRET_STARTED;
 164   1          uint8 i;
 165   1      
 166   1          /***************************************************************************
 167   1          * Check if number is correct for array. Number must be less than
 168   1          * 32 for Flash or less than 16 for EEPROM.
 169   1          ***************************************************************************/
 170   1          if(((array < CY_SPC_LAST_FLASH_ARRAYID) && (size < 32u)) ||
 171   1             ((array > CY_SPC_LAST_FLASH_ARRAYID) && (size < 16u)))
 172   1          {
 173   2              if(CY_SPC_IDLE)
 174   2              {
 175   3                  CY_SPC_CPU_DATA_REG = CY_SPC_KEY_ONE;
 176   3                  CY_SPC_CPU_DATA_REG = CY_SPC_KEY_TWO(CY_SPC_CMD_LD_MULTI_BYTE);
 177   3                  CY_SPC_CPU_DATA_REG = CY_SPC_CMD_LD_MULTI_BYTE;
C51 COMPILER V9.51   CYSPC                                                                 10/24/2019 10:04:16 PAGE 4   

 178   3      
 179   3                  if(CY_SPC_BUSY)
 180   3                  {
 181   4                      CY_SPC_CPU_DATA_REG = array;
 182   4                      CY_SPC_CPU_DATA_REG = 1u & HI8(address);
 183   4                      CY_SPC_CPU_DATA_REG = LO8(address);
 184   4                      CY_SPC_CPU_DATA_REG = ((uint8)(size - 1u));
 185   4      
 186   4                      for(i = 0u; i < size; i++)
 187   4                      {
 188   5                          CY_SPC_CPU_DATA_REG = buffer[i];
 189   5                      }
 190   4                  }
 191   3                  else
 192   3                  {
 193   4                      status = CYRET_CANCELED;
 194   4                  }
 195   3              }
 196   2              else
 197   2              {
 198   3                  status = CYRET_LOCKED;
 199   3              }
 200   2          }
 201   1          else
 202   1          {
 203   2              status = CYRET_BAD_PARAM;
 204   2          }
 205   1      
 206   1          return(status);
 207   1      }
 208          
 209          
 210          /*******************************************************************************
 211          * Function Name: CySpcLoadRow
 212          ****************************************************************************//**
 213          *  Loads a row of data into the row latch of a Flash/EEPROM array.
 214          *
 215          *  The buffer pointer should point to the data that should be written to the
 216          *  flash row directly (no data in ECC/flash will be preserved). It is Flash API
 217          *  responsibility to prepare data: the preserved data are copied from flash into
 218          *  array with the modified data.
 219          *
 220          *  \param uint8 array:
 221          *   Id of the array.
 222          *
 223          *  \param uint8* buffer:
 224          *   Data to be loaded to the row latch
 225          *
 226          *  \param uint8 size:
 227          *   The number of data bytes that the SPC expects to be written. Depends on the
 228          *   type of the array and, if the array is Flash, whether ECC is being enabled
 229          *   or not. There are following values: flash row latch size with ECC enabled,
 230          *   flash row latch size with ECC disabled and EEPROM row latch size.
 231          *
 232          * \return
 233          *  CYRET_STARTED
 234          *  CYRET_CANCELED
 235          *  CYRET_LOCKED
 236          *
 237          *******************************************************************************/
 238          cystatus CySpcLoadRow(uint8 array, const uint8 buffer[], uint16 size)
 239          {
C51 COMPILER V9.51   CYSPC                                                                 10/24/2019 10:04:16 PAGE 5   

 240   1          cystatus status = CYRET_STARTED;
 241   1          uint16 i;
 242   1      
 243   1          /* Make sure the SPC is ready to accept command */
 244   1          if(CY_SPC_IDLE)
 245   1          {
 246   2              CY_SPC_CPU_DATA_REG = CY_SPC_KEY_ONE;
 247   2              CY_SPC_CPU_DATA_REG = CY_SPC_KEY_TWO(CY_SPC_CMD_LD_ROW);
 248   2              CY_SPC_CPU_DATA_REG = CY_SPC_CMD_LD_ROW;
 249   2      
 250   2              /* Make sure the command was accepted */
 251   2              if(CY_SPC_BUSY)
 252   2              {
 253   3                  CY_SPC_CPU_DATA_REG = array;
 254   3      
 255   3                  for(i = 0u; i < size; i++)
 256   3                  {
 257   4                      CY_SPC_CPU_DATA_REG = buffer[i];
 258   4                  }
 259   3              }
 260   2              else
 261   2              {
 262   3                  status = CYRET_CANCELED;
 263   3              }
 264   2          }
 265   1          else
 266   1          {
 267   2              status = CYRET_LOCKED;
 268   2          }
 269   1      
 270   1          return(status);
 271   1      }
 272          
 273          
 274          /*******************************************************************************
 275          * Function Name: CySpcLoadRowFull
 276          ****************************************************************************//**
 277          *  Loads a row of data into the row latch of a Flash/EEPROM array.
 278          *
 279          *  The only data that are going to be changed should be passed. The function
 280          *  will handle unmodified data preservation based on DWR settings and input
 281          *  parameters.
 282          *
 283          *  \param uint8 array:
 284          *   Id of the array.
 285          *
 286          *  \param uint16 row:
 287          *   Flash row number to be loaded.
 288          *
 289          *  \param uint8* buffer:
 290          *   Data to be loaded to the row latch
 291          *
 292          *  \param uint8 size:
 293          *   The number of data bytes that the SPC expects to be written. Depends on the
 294          *   type of the array and, if the array is Flash, whether ECC is being enabled
 295          *   or not. There are following values: flash row latch size with ECC enabled,
 296          *   flash row latch size with ECC disabled and EEPROM row latch size.
 297          *
 298          * \return
 299          *  CYRET_STARTED
 300          *  CYRET_CANCELED
 301          *  CYRET_LOCKED
C51 COMPILER V9.51   CYSPC                                                                 10/24/2019 10:04:16 PAGE 6   

 302          *
 303          *******************************************************************************/
 304          cystatus CySpcLoadRowFull(uint8 array, uint16 row, const uint8 buffer[], uint16 size)\
 305          
 306          {
 307   1          cystatus status = CYRET_STARTED;
 308   1          uint16 i;
 309   1      
 310   1          #if (CYDEV_ECC_ENABLE == 0)
 311   1              uint32 offset;
 312   1          #endif /* (CYDEV_ECC_ENABLE == 0) */
 313   1      
 314   1          /* Make sure the SPC is ready to accept command */
 315   1          if(CY_SPC_IDLE)
 316   1          {
 317   2              CY_SPC_CPU_DATA_REG = CY_SPC_KEY_ONE;
 318   2              CY_SPC_CPU_DATA_REG = CY_SPC_KEY_TWO(CY_SPC_CMD_LD_ROW);
 319   2              CY_SPC_CPU_DATA_REG = CY_SPC_CMD_LD_ROW;
 320   2      
 321   2              /* Make sure the command was accepted */
 322   2              if(CY_SPC_BUSY)
 323   2              {
 324   3                  CY_SPC_CPU_DATA_REG = array;
 325   3      
 326   3                  /*******************************************************************
 327   3                  * If "Enable Error Correcting Code (ECC)" and "Store Configuration
 328   3                  * Data in ECC" DWR options are disabled, ECC section is available
 329   3                  * for user data.
 330   3                  *******************************************************************/
 331   3                  #if ((CYDEV_ECC_ENABLE == 0u) && (CYDEV_CONFIGURATION_ECC == 0u))
              
                              /*******************************************************************
                              * If size parameter equals size of the ECC row and selected array
                              * identification corresponds to the flash array (but not to EEPROM
                              * array) then data are going to be written to the ECC section.
                              * In this case flash data must be preserved. The flash data copied
                              * from flash data section to the SPC data register.
                              *******************************************************************/
                              if ((size == CYDEV_ECC_ROW_SIZE) && (array <= CY_SPC_LAST_FLASH_ARRAYID))
                              {
                                  offset = CYDEV_FLS_BASE +
                                           ((uint32) array * CYDEV_FLS_SECTOR_SIZE) +
                                           ((uint32)   row * CYDEV_FLS_ROW_SIZE   );
              
                                  for (i = 0u; i < CYDEV_FLS_ROW_SIZE; i++)
                                  {
                                      CY_SPC_CPU_DATA_REG = CY_GET_XTND_REG8((void CYFAR *)(offset + i));
                                  }
                              }
              
                          #endif /* ((CYDEV_ECC_ENABLE == 0u) && (CYDEV_CONFIGURATION_ECC == 0u)) */
 353   3      
 354   3      
 355   3                  for(i = 0u; i < size; i++)
 356   3                  {
 357   4                      CY_SPC_CPU_DATA_REG = buffer[i];
 358   4                  }
 359   3      
 360   3      
 361   3                  /*******************************************************************
 362   3                  * If "Enable Error Correcting Code (ECC)" DWR option is disabled,
 363   3                  * ECC section can be used for storing device configuration data
C51 COMPILER V9.51   CYSPC                                                                 10/24/2019 10:04:16 PAGE 7   

 364   3                  * ("Store Configuration Data in ECC" DWR option is enabled) or for
 365   3                  * storing user data in the ECC section ("Store Configuration Data in
 366   3                  * ECC" DWR option is enabled). In both cases, the data in the ECC
 367   3                  * section must be preserved if flash data is written.
 368   3                  *******************************************************************/
 369   3                  #if (CYDEV_ECC_ENABLE == 0)
 370   3      
 371   3      
 372   3                      /*******************************************************************
 373   3                      * If size parameter equals size of the flash row and selected array
 374   3                      * identification corresponds to the flash array (but not to EEPROM
 375   3                      * array) then data are going to be written to the flash data
 376   3                      * section. In this case, ECC section data must be preserved.
 377   3                      * The ECC section data copied from ECC section to the SPC data
 378   3                      * register.
 379   3                      *******************************************************************/
 380   3                      if ((size == CYDEV_FLS_ROW_SIZE) && (array <= CY_SPC_LAST_FLASH_ARRAYID))
 381   3                      {
 382   4                          offset = CYDEV_ECC_BASE +
 383   4                                  ((uint32) array * CYDEV_ECC_SECTOR_SIZE) +
 384   4                                  ((uint32) row   * CYDEV_ECC_ROW_SIZE   );
 385   4      
 386   4                          for (i = 0u; i < CYDEV_ECC_ROW_SIZE; i++)
 387   4                          {
 388   5                              CY_SPC_CPU_DATA_REG = CY_GET_XTND_REG8((void CYFAR *)(offset + i));
 389   5                          }
 390   4                      }
 391   3      
 392   3                  #else
              
                              if(0u != row)
                              {
                                  /* To remove unreferenced local variable warning */
                              }
              
                          #endif /* (CYDEV_ECC_ENABLE == 0) */
 400   3              }
 401   2              else
 402   2              {
 403   3                  status = CYRET_CANCELED;
 404   3              }
 405   2          }
 406   1          else
 407   1          {
 408   2              status = CYRET_LOCKED;
 409   2          }
 410   1      
 411   1          return(status);
 412   1      }
 413          
 414          
 415          /*******************************************************************************
 416          * Function Name: CySpcWriteRow
 417          ****************************************************************************//**
 418          *  Erases then programs a row in Flash/EEPROM with data in row latch.
 419          *
 420          *  \param uint8 array:
 421          *   Id of the array.
 422          *
 423          *  \param uint16 address:
 424          *   flash/eeprom addrress
 425          *
C51 COMPILER V9.51   CYSPC                                                                 10/24/2019 10:04:16 PAGE 8   

 426          *  \param uint8 tempPolarity:
 427          *   temperature polarity.
 428          *   \param 1: the Temp Magnitude is interpreted as a positive value
 429          *   \param 0: the Temp Magnitude is interpreted as a negative value
 430          *
 431          *  \param uint8 tempMagnitude:
 432          *   temperature magnitude.
 433          *
 434          * \return
 435          *  CYRET_STARTED
 436          *  CYRET_CANCELED
 437          *  CYRET_LOCKED
 438          *
 439          *******************************************************************************/
 440          cystatus CySpcWriteRow(uint8 array, uint16 address, uint8 tempPolarity, uint8 tempMagnitude)\
 441          
 442          {
 443   1          cystatus status = CYRET_STARTED;
 444   1      
 445   1          /* Make sure the SPC is ready to accept command */
 446   1          if(CY_SPC_IDLE)
 447   1          {
 448   2              CY_SPC_CPU_DATA_REG = CY_SPC_KEY_ONE;
 449   2              CY_SPC_CPU_DATA_REG = CY_SPC_KEY_TWO(CY_SPC_CMD_WR_ROW);
 450   2              CY_SPC_CPU_DATA_REG = CY_SPC_CMD_WR_ROW;
 451   2      
 452   2              /* Make sure the command was accepted */
 453   2              if(CY_SPC_BUSY)
 454   2              {
 455   3                  CY_SPC_CPU_DATA_REG = array;
 456   3                  CY_SPC_CPU_DATA_REG = HI8(address);
 457   3                  CY_SPC_CPU_DATA_REG = LO8(address);
 458   3                  CY_SPC_CPU_DATA_REG = tempPolarity;
 459   3                  CY_SPC_CPU_DATA_REG = tempMagnitude;
 460   3              }
 461   2              else
 462   2              {
 463   3                  status = CYRET_CANCELED;
 464   3              }
 465   2          }
 466   1          else
 467   1          {
 468   2              status = CYRET_LOCKED;
 469   2          }
 470   1      
 471   1          return(status);
 472   1      }
 473          
 474          
 475          /*******************************************************************************
 476          * Function Name: CySpcEraseSector
 477          ****************************************************************************//**
 478          *  Erases all data in the addressed sector (block of 64 rows).
 479          *
 480          *  \param uint8 array:
 481          *   Id of the array.
 482          *
 483          *  \param uint8 sectorNumber:
 484          *   Zero based sector number within Flash/EEPROM array
 485          *
 486          * \return
 487          *  CYRET_STARTED
C51 COMPILER V9.51   CYSPC                                                                 10/24/2019 10:04:16 PAGE 9   

 488          *  CYRET_CANCELED
 489          *  CYRET_LOCKED
 490          *
 491          *******************************************************************************/
 492          cystatus CySpcEraseSector(uint8 array, uint8 sectorNumber)
 493          {
 494   1          cystatus status = CYRET_STARTED;
 495   1      
 496   1          /* Make sure the SPC is ready to accept command */
 497   1          if(CY_SPC_IDLE)
 498   1          {
 499   2              CY_SPC_CPU_DATA_REG = CY_SPC_KEY_ONE;
 500   2              CY_SPC_CPU_DATA_REG = CY_SPC_KEY_TWO(CY_SPC_CMD_ER_SECTOR);
 501   2              CY_SPC_CPU_DATA_REG = CY_SPC_CMD_ER_SECTOR;
 502   2      
 503   2              /* Make sure the command was accepted */
 504   2              if(CY_SPC_BUSY)
 505   2              {
 506   3                  CY_SPC_CPU_DATA_REG = array;
 507   3                  CY_SPC_CPU_DATA_REG = sectorNumber;
 508   3              }
 509   2              else
 510   2              {
 511   3                  status = CYRET_CANCELED;
 512   3              }
 513   2          }
 514   1          else
 515   1          {
 516   2              status = CYRET_LOCKED;
 517   2          }
 518   1      
 519   1          return(status);
 520   1      }
 521          
 522          
 523          /*******************************************************************************
 524          * Function Name: CySpcEraseRow
 525          ****************************************************************************//**
 526          *  Erases a row in Flash.
 527          *
 528          *  \param uint8 array:
 529          *   Id of the array.
 530          *
 531          *  \param uint16 address:
 532          *   Flash address
 533          *
 534          *  \param uint8 tempPolarity:
 535          *   temperature polarity.
 536          *   \param 1: the Temp Magnitude is interpreted as a positive value
 537          *   \param 0: the Temp Magnitude is interpreted as a negative value
 538          *
 539          *  \param uint8 tempMagnitude:
 540          *   temperature magnitude.
 541          *
 542          * \return
 543          *  CYRET_STARTED
 544          *  CYRET_CANCELED
 545          *  CYRET_LOCKED
 546          *
 547          *******************************************************************************/
 548          cystatus CySpcEraseRow(uint8 array, uint16 address, uint8 tempPolarity, uint8 tempMagnitude)\
 549          
C51 COMPILER V9.51   CYSPC                                                                 10/24/2019 10:04:16 PAGE 10  

 550          {
 551   1          cystatus status = CYRET_STARTED;
 552   1      
 553   1          /* Make sure the SPC is ready to accept command */
 554   1          if(CY_SPC_IDLE)
 555   1          {
 556   2              CY_SPC_CPU_DATA_REG = CY_SPC_KEY_ONE;
 557   2              CY_SPC_CPU_DATA_REG = CY_SPC_KEY_TWO(CY_SPC_CMD_ER_ROW);
 558   2              CY_SPC_CPU_DATA_REG = CY_SPC_CMD_ER_ROW;
 559   2      
 560   2              /* Make sure the command was accepted */
 561   2              if(CY_SPC_BUSY)
 562   2              {
 563   3                  CY_SPC_CPU_DATA_REG = array;
 564   3                  CY_SPC_CPU_DATA_REG = HI8(address);
 565   3                  CY_SPC_CPU_DATA_REG = LO8(address);
 566   3                  CY_SPC_CPU_DATA_REG = tempPolarity;
 567   3                  CY_SPC_CPU_DATA_REG = tempMagnitude;
 568   3              }
 569   2              else
 570   2              {
 571   3                  status = CYRET_CANCELED;
 572   3              }
 573   2          }
 574   1          else
 575   1          {
 576   2              status = CYRET_LOCKED;
 577   2          }
 578   1      
 579   1          return(status);
 580   1      }
 581          
 582          
 583          /*******************************************************************************
 584          * Function Name: CySpcGetTemp
 585          ****************************************************************************//**
 586          *  Returns the internal die temperature
 587          *
 588          *  \param uint8 numSamples:
 589          *   Number of samples. Valid values are 1-5, resulting in 2 - 32 samples
 590          *   respectively.
 591          *
 592          * \param uint16 timerPeriod:
 593          *   Number of ADC ACLK cycles. A valid 14 bit value is accepted, higher 2 bits
 594          *   of 16 bit values are ignored.
 595          *
 596          * \param uint8 clkDivSelect:
 597          *   ADC ACLK clock divide value. Valid values are 2 - 225.
 598          *
 599          * \return
 600          *  CYRET_STARTED
 601          *  CYRET_CANCELED
 602          *  CYRET_LOCKED
 603          *
 604          *******************************************************************************/
 605          cystatus CySpcGetTemp(uint8 numSamples)
 606          {
 607   1          cystatus status = CYRET_STARTED;
 608   1      
 609   1          /* Make sure the SPC is ready to accept command */
 610   1          if(CY_SPC_IDLE)
 611   1          {
C51 COMPILER V9.51   CYSPC                                                                 10/24/2019 10:04:16 PAGE 11  

 612   2              CY_SPC_CPU_DATA_REG = CY_SPC_KEY_ONE;
 613   2              CY_SPC_CPU_DATA_REG = CY_SPC_KEY_TWO(CY_SPC_CMD_GET_TEMP);
 614   2              CY_SPC_CPU_DATA_REG = CY_SPC_CMD_GET_TEMP;
 615   2      
 616   2              /* Make sure the command was accepted */
 617   2              if(CY_SPC_BUSY)
 618   2              {
 619   3                  CY_SPC_CPU_DATA_REG = numSamples;
 620   3              }
 621   2              else
 622   2              {
 623   3                  status = CYRET_CANCELED;
 624   3              }
 625   2          }
 626   1          else
 627   1          {
 628   2              status = CYRET_LOCKED;
 629   2          }
 630   1      
 631   1          return(status);
 632   1      }
 633          
 634          
 635          /*******************************************************************************
 636          * Function Name: CySpcLock
 637          ****************************************************************************//**
 638          *  Locks the SPC so it can not be used by someone else:
 639          *   - Saves wait-pipeline enable state and enable pipeline (PSoC5)
 640          *
 641          * \return
 642          *  CYRET_SUCCESS - if the resource was free.
 643          *  CYRET_LOCKED  - if the SPC is in use.
 644          *
 645          *******************************************************************************/
 646          cystatus CySpcLock(void)
 647          {
 648   1          cystatus status = CYRET_LOCKED;
 649   1          uint8 interruptState;
 650   1      
 651   1          /* Enter critical section */
 652   1          interruptState = CyEnterCriticalSection();
 653   1      
 654   1          if(CY_SPC_UNLOCKED == SpcLockState)
 655   1          {
 656   2              SpcLockState = CY_SPC_LOCKED;
 657   2              status = CYRET_SUCCESS;
 658   2      
 659   2              #if(CY_PSOC5)
              
                          if(0u != (CY_SPC_CPU_WAITPIPE_REG & CY_SPC_CPU_WAITPIPE_BYPASS))
                          {
                              /* Enable pipeline registers */
                              CY_SPC_CPU_WAITPIPE_REG &= ((uint32)(~CY_SPC_CPU_WAITPIPE_BYPASS));
              
                              /* At least 2 NOP instructions are recommended */
                              CY_NOP;
                              CY_NOP;
                              CY_NOP;
              
                              spcWaitPipeBypass = CY_SPC_CPU_WAITPIPE_BYPASS;
                          }
              
C51 COMPILER V9.51   CYSPC                                                                 10/24/2019 10:04:16 PAGE 12  

                      #endif  /* (CY_PSOC5) */
 675   2          }
 676   1      
 677   1          /* Exit critical section */
 678   1          CyExitCriticalSection(interruptState);
 679   1      
 680   1          return(status);
 681   1      }
 682          
 683          
 684          /*******************************************************************************
 685          * Function Name: CySpcUnlock
 686          ****************************************************************************//**
 687          *  Unlocks the SPC so it can be used by someone else:
 688          *   - Restores wait-pipeline enable state (PSoC5)
 689          *
 690          *******************************************************************************/
 691          void CySpcUnlock(void)
 692          {
 693   1          uint8 interruptState;
 694   1      
 695   1          /* Enter critical section */
 696   1          interruptState = CyEnterCriticalSection();
 697   1      
 698   1          /* Release the SPC object */
 699   1          SpcLockState = CY_SPC_UNLOCKED;
 700   1      
 701   1          #if(CY_PSOC5)
              
                      if(CY_SPC_CPU_WAITPIPE_BYPASS == spcWaitPipeBypass)
                      {
                          /* Force to bypass pipeline registers */
                          CY_SPC_CPU_WAITPIPE_REG |= CY_SPC_CPU_WAITPIPE_BYPASS;
              
                          /* At least 2 NOP instructions are recommended */
                          CY_NOP;
                          CY_NOP;
                          CY_NOP;
              
                          spcWaitPipeBypass = 0u;
                      }
              
                  #endif  /* (CY_PSOC5) */
 717   1      
 718   1          /* Exit critical section */
 719   1          CyExitCriticalSection(interruptState);
 720   1      }
 721          
 722          
 723          /*******************************************************************************
 724          * Function Name: CySpcGetAlgorithm
 725          ****************************************************************************//**
 726          *  Downloads SPC algorithm from SPC SROM into SRAM.
 727          *
 728          * \return
 729          *  CYRET_STARTED
 730          *  CYRET_LOCKED
 731          *
 732          *******************************************************************************/
 733          cystatus CySpcGetAlgorithm(void)
 734          {
 735   1          cystatus status = CYRET_STARTED;
C51 COMPILER V9.51   CYSPC                                                                 10/24/2019 10:04:16 PAGE 13  

 736   1      
 737   1          /* Make sure the SPC is ready to accept command */
 738   1          if(CY_SPC_IDLE)
 739   1          {
 740   2              CY_SPC_CPU_DATA_REG = CY_SPC_KEY_ONE;
 741   2              CY_SPC_CPU_DATA_REG = CY_SPC_KEY_TWO(CY_SPC_CMD_DWNLD_ALGORITHM);
 742   2              CY_SPC_CPU_DATA_REG = CY_SPC_CMD_DWNLD_ALGORITHM;
 743   2          }
 744   1          else
 745   1          {
 746   2              status = CYRET_LOCKED;
 747   2          }
 748   1      
 749   1          return(status);
 750   1      }
 751          
 752          /* [] END OF FILE */
 753          
C51 COMPILER V9.51   CYSPC                                                                 10/24/2019 10:04:16 PAGE 14  

ASSEMBLY LISTING OF GENERATED OBJECT CODE


             ; FUNCTION CySpcStart (BEGIN)
                                           ; SOURCE LINE # 71
                                           ; SOURCE LINE # 72
                                           ; SOURCE LINE # 74
0000 120000      E     LCALL   CyEnterCriticalSection
0003 900000      R     MOV     DPTR,#interruptState
0006 EF                MOV     A,R7
0007 F0                MOVX    @DPTR,A
                                           ; SOURCE LINE # 76
0008 9043A0            MOV     DPTR,#043A0H
000B E0                MOVX    A,@DPTR
000C FF                MOV     R7,A
000D EF                MOV     A,R7
000E 4408              ORL     A,#08H
0010 FF                MOV     R7,A
0011 EF                MOV     A,R7
0012 F0                MOVX    @DPTR,A
                                           ; SOURCE LINE # 77
0013 9043B0            MOV     DPTR,#043B0H
0016 E0                MOVX    A,@DPTR
0017 FF                MOV     R7,A
0018 EF                MOV     A,R7
0019 4408              ORL     A,#08H
001B FF                MOV     R7,A
001C EF                MOV     A,R7
001D F0                MOVX    @DPTR,A
                                           ; SOURCE LINE # 80
001E 900000      R     MOV     DPTR,#interruptState
0021 E0                MOVX    A,@DPTR
0022 FF                MOV     R7,A
0023 120000      E     LCALL   _CyExitCriticalSection
                                           ; SOURCE LINE # 81
0026 22                RET     
             ; FUNCTION CySpcStart (END)

             ; FUNCTION CySpcStop (BEGIN)
                                           ; SOURCE LINE # 90
                                           ; SOURCE LINE # 91
                                           ; SOURCE LINE # 93
0000 120000      E     LCALL   CyEnterCriticalSection
0003 900000      R     MOV     DPTR,#interruptState
0006 EF                MOV     A,R7
0007 F0                MOVX    @DPTR,A
                                           ; SOURCE LINE # 95
0008 9043A0            MOV     DPTR,#043A0H
000B E0                MOVX    A,@DPTR
000C FF                MOV     R7,A
000D EF                MOV     A,R7
000E 54F7              ANL     A,#0F7H
0010 FF                MOV     R7,A
0011 EF                MOV     A,R7
0012 F0                MOVX    @DPTR,A
                                           ; SOURCE LINE # 96
0013 9043B0            MOV     DPTR,#043B0H
0016 E0                MOVX    A,@DPTR
0017 FF                MOV     R7,A
0018 EF                MOV     A,R7
0019 54F7              ANL     A,#0F7H
001B FF                MOV     R7,A
C51 COMPILER V9.51   CYSPC                                                                 10/24/2019 10:04:16 PAGE 15  

001C EF                MOV     A,R7
001D F0                MOVX    @DPTR,A
                                           ; SOURCE LINE # 99
001E 900000      R     MOV     DPTR,#interruptState
0021 E0                MOVX    A,@DPTR
0022 FF                MOV     R7,A
0023 120000      E     LCALL   _CyExitCriticalSection
                                           ; SOURCE LINE # 100
0026 22                RET     
             ; FUNCTION CySpcStop (END)

             ; FUNCTION _CySpcReadData (BEGIN)
                                           ; SOURCE LINE # 119
0000 900000      R     MOV     DPTR,#buffer
0003 120000      E     LCALL   ?C?PSTXDATA
0006 900000      R     MOV     DPTR,#size
0009 ED                MOV     A,R5
000A F0                MOVX    @DPTR,A
                                           ; SOURCE LINE # 120
                                           ; SOURCE LINE # 123
000B 900000      R     MOV     DPTR,#i
000E E4                CLR     A
000F F0                MOVX    @DPTR,A
0010         ?C0003:
0010 900000      R     MOV     DPTR,#size
0013 E0                MOVX    A,@DPTR
0014 FF                MOV     R7,A
0015 900000      R     MOV     DPTR,#i
0018 E0                MOVX    A,@DPTR
0019 FE                MOV     R6,A
001A EE                MOV     A,R6
001B C3                CLR     C
001C 9F                SUBB    A,R7
001D 5040              JNC     ?C0004
                                           ; SOURCE LINE # 124
001F         ?C0006:
                                           ; SOURCE LINE # 125
001F 904722            MOV     DPTR,#04722H
0022 E0                MOVX    A,@DPTR
0023 FF                MOV     R7,A
0024 EF                MOV     A,R7
0025 5401              ANL     A,#01H
0027 FF                MOV     R7,A
0028 7E00              MOV     R6,#00H
002A EF                MOV     A,R7
002B 4E                ORL     A,R6
002C 6003              JZ      ?C0008
002E D3                SETB    C
002F 8001              SJMP    ?C0009
0031         ?C0008:
0031 C3                CLR     C
0032         ?C0009:
0032 4009              JC      ?C0007
                                           ; SOURCE LINE # 126
                                           ; SOURCE LINE # 127
0034 7F01              MOV     R7,#01H
0036 7E00              MOV     R6,#00H
0038 120000      E     LCALL   _CyDelayUs
                                           ; SOURCE LINE # 128
003B 80E2              SJMP    ?C0006
003D         ?C0007:
                                           ; SOURCE LINE # 129
C51 COMPILER V9.51   CYSPC                                                                 10/24/2019 10:04:16 PAGE 16  

003D 904720            MOV     DPTR,#04720H
0040 E0                MOVX    A,@DPTR
0041 FF                MOV     R7,A
0042 900000      R     MOV     DPTR,#buffer
0045 120000      E     LCALL   ?C?PLDXDATA
0048 900000      R     MOV     DPTR,#i
004B E0                MOVX    A,@DPTR
004C FE                MOV     R6,A
004D E9                MOV     A,R1
004E 2E                ADD     A,R6
004F F9                MOV     R1,A
0050 E4                CLR     A
0051 3A                ADDC    A,R2
0052 FA                MOV     R2,A
0053 EF                MOV     A,R7
0054 120000      E     LCALL   ?C?CSTPTR
                                           ; SOURCE LINE # 130
0057 900000      R     MOV     DPTR,#i
005A E0                MOVX    A,@DPTR
005B 04                INC     A
005C F0                MOVX    @DPTR,A
005D 80B1              SJMP    ?C0003
005F         ?C0004:
                                           ; SOURCE LINE # 132
005F 900000      R     MOV     DPTR,#i
0062 E0                MOVX    A,@DPTR
0063 FF                MOV     R7,A
                                           ; SOURCE LINE # 133
0064         ?C0010:
0064 22                RET     
             ; FUNCTION _CySpcReadData (END)

             ; FUNCTION _CySpcLoadMultiByte (BEGIN)
                                           ; SOURCE LINE # 160
0000 900000      R     MOV     DPTR,#array
0003 EF                MOV     A,R7
0004 F0                MOVX    @DPTR,A
0005 900000      R     MOV     DPTR,#address
0008 EC                MOV     A,R4
0009 F0                MOVX    @DPTR,A
000A A3                INC     DPTR
000B ED                MOV     A,R5
000C F0                MOVX    @DPTR,A
000D 900000      R     MOV     DPTR,#buffer
0010 120000      E     LCALL   ?C?PSTXDATA
                                           ; SOURCE LINE # 162
                                           ; SOURCE LINE # 163
0013 900000      R     MOV     DPTR,#status
0016 7407              MOV     A,#07H
0018 F0                MOVX    @DPTR,A
                                           ; SOURCE LINE # 170
0019 900000      R     MOV     DPTR,#array
001C E0                MOVX    A,@DPTR
001D FF                MOV     R7,A
001E EF                MOV     A,R7
001F C3                CLR     C
0020 943F              SUBB    A,#03FH
0022 500B              JNC     ?C0013
0024 900000      R     MOV     DPTR,#size
0027 E0                MOVX    A,@DPTR
0028 FF                MOV     R7,A
0029 EF                MOV     A,R7
C51 COMPILER V9.51   CYSPC                                                                 10/24/2019 10:04:16 PAGE 17  

002A C3                CLR     C
002B 9420              SUBB    A,#020H
002D 401C              JC      ?C0012
002F         ?C0013:
002F 900000      R     MOV     DPTR,#array
0032 E0                MOVX    A,@DPTR
0033 FF                MOV     R7,A
0034 EF                MOV     A,R7
0035 D3                SETB    C
0036 943F              SUBB    A,#03FH
0038 5003              JNC     $ + 5H
003A 020000      R     LJMP    ?C0011
003D 900000      R     MOV     DPTR,#size
0040 E0                MOVX    A,@DPTR
0041 FF                MOV     R7,A
0042 EF                MOV     A,R7
0043 C3                CLR     C
0044 9410              SUBB    A,#010H
0046 4003              JC      $ + 5H
0048 020000      R     LJMP    ?C0011
004B         ?C0012:
                                           ; SOURCE LINE # 172
                                           ; SOURCE LINE # 173
004B 904722            MOV     DPTR,#04722H
004E E0                MOVX    A,@DPTR
004F FF                MOV     R7,A
0050 EF                MOV     A,R7
0051 5402              ANL     A,#02H
0053 FF                MOV     R7,A
0054 7E00              MOV     R6,#00H
0056 EF                MOV     A,R7
0057 4E                ORL     A,R6
0058 7003              JNZ     $ + 5H
005A 020000      R     LJMP    ?C0014
                                           ; SOURCE LINE # 174
                                           ; SOURCE LINE # 175
005D 904720            MOV     DPTR,#04720H
0060 74B6              MOV     A,#0B6H
0062 F0                MOVX    @DPTR,A
                                           ; SOURCE LINE # 176
0063 904720            MOV     DPTR,#04720H
0066 74D4              MOV     A,#0D4H
0068 F0                MOVX    @DPTR,A
                                           ; SOURCE LINE # 177
0069 904720            MOV     DPTR,#04720H
006C 7401              MOV     A,#01H
006E F0                MOVX    @DPTR,A
                                           ; SOURCE LINE # 179
006F 904722            MOV     DPTR,#04722H
0072 E0                MOVX    A,@DPTR
0073 FF                MOV     R7,A
0074 EF                MOV     A,R7
0075 5402              ANL     A,#02H
0077 FF                MOV     R7,A
0078 7E00              MOV     R6,#00H
007A EF                MOV     A,R7
007B 4E                ORL     A,R6
007C 7073              JNZ     ?C0015
                                           ; SOURCE LINE # 180
                                           ; SOURCE LINE # 181
007E 900000      R     MOV     DPTR,#array
0081 E0                MOVX    A,@DPTR
C51 COMPILER V9.51   CYSPC                                                                 10/24/2019 10:04:16 PAGE 18  

0082 FF                MOV     R7,A
0083 904720            MOV     DPTR,#04720H
0086 EF                MOV     A,R7
0087 F0                MOVX    @DPTR,A
                                           ; SOURCE LINE # 182
0088 900000      R     MOV     DPTR,#address
008B E0                MOVX    A,@DPTR
008C FE                MOV     R6,A
008D A3                INC     DPTR
008E E0                MOVX    A,@DPTR
008F FF                MOV     R7,A
0090 EE                MOV     A,R6
0091 FF                MOV     R7,A
0092 7E00              MOV     R6,#00H
0094 EF                MOV     A,R7
0095 5401              ANL     A,#01H
0097 FF                MOV     R7,A
0098 904720            MOV     DPTR,#04720H
009B EF                MOV     A,R7
009C F0                MOVX    @DPTR,A
                                           ; SOURCE LINE # 183
009D 900000      R     MOV     DPTR,#address
00A0 E0                MOVX    A,@DPTR
00A1 FE                MOV     R6,A
00A2 A3                INC     DPTR
00A3 E0                MOVX    A,@DPTR
00A4 FF                MOV     R7,A
00A5 EF                MOV     A,R7
00A6 54FF              ANL     A,#0FFH
00A8 FF                MOV     R7,A
00A9 904720            MOV     DPTR,#04720H
00AC EF                MOV     A,R7
00AD F0                MOVX    @DPTR,A
                                           ; SOURCE LINE # 184
00AE 900000      R     MOV     DPTR,#size
00B1 E0                MOVX    A,@DPTR
00B2 FF                MOV     R7,A
00B3 EF                MOV     A,R7
00B4 14                DEC     A
00B5 FF                MOV     R7,A
00B6 904720            MOV     DPTR,#04720H
00B9 EF                MOV     A,R7
00BA F0                MOVX    @DPTR,A
                                           ; SOURCE LINE # 186
00BB 900000      R     MOV     DPTR,#i
00BE E4                CLR     A
00BF F0                MOVX    @DPTR,A
00C0         ?C0016:
00C0 900000      R     MOV     DPTR,#size
00C3 E0                MOVX    A,@DPTR
00C4 FF                MOV     R7,A
00C5 900000      R     MOV     DPTR,#i
00C8 E0                MOVX    A,@DPTR
00C9 FE                MOV     R6,A
00CA EE                MOV     A,R6
00CB C3                CLR     C
00CC 9F                SUBB    A,R7
00CD 5038              JNC     ?C0021
                                           ; SOURCE LINE # 187
                                           ; SOURCE LINE # 188
00CF 900000      R     MOV     DPTR,#buffer
00D2 120000      E     LCALL   ?C?PLDXDATA
C51 COMPILER V9.51   CYSPC                                                                 10/24/2019 10:04:16 PAGE 19  

00D5 900000      R     MOV     DPTR,#i
00D8 E0                MOVX    A,@DPTR
00D9 FF                MOV     R7,A
00DA E9                MOV     A,R1
00DB 2F                ADD     A,R7
00DC F9                MOV     R1,A
00DD E4                CLR     A
00DE 3A                ADDC    A,R2
00DF FA                MOV     R2,A
00E0 120000      E     LCALL   ?C?CLDPTR
00E3 FF                MOV     R7,A
00E4 904720            MOV     DPTR,#04720H
00E7 EF                MOV     A,R7
00E8 F0                MOVX    @DPTR,A
                                           ; SOURCE LINE # 189
00E9 900000      R     MOV     DPTR,#i
00EC E0                MOVX    A,@DPTR
00ED 04                INC     A
00EE F0                MOVX    @DPTR,A
00EF 80CF              SJMP    ?C0016
                                           ; SOURCE LINE # 190
00F1         ?C0015:
                                           ; SOURCE LINE # 192
                                           ; SOURCE LINE # 193
00F1 900000      R     MOV     DPTR,#status
00F4 7409              MOV     A,#09H
00F6 F0                MOVX    @DPTR,A
                                           ; SOURCE LINE # 194
                                           ; SOURCE LINE # 195
00F7 800E              SJMP    ?C0021
00F9         ?C0014:
                                           ; SOURCE LINE # 197
                                           ; SOURCE LINE # 198
00F9 900000      R     MOV     DPTR,#status
00FC 7404              MOV     A,#04H
00FE F0                MOVX    @DPTR,A
                                           ; SOURCE LINE # 199
                                           ; SOURCE LINE # 200
00FF 8006              SJMP    ?C0021
0101         ?C0011:
                                           ; SOURCE LINE # 202
                                           ; SOURCE LINE # 203
0101 900000      R     MOV     DPTR,#status
0104 7401              MOV     A,#01H
0106 F0                MOVX    @DPTR,A
                                           ; SOURCE LINE # 204
0107         ?C0021:
                                           ; SOURCE LINE # 206
0107 900000      R     MOV     DPTR,#status
010A E0                MOVX    A,@DPTR
010B FF                MOV     R7,A
                                           ; SOURCE LINE # 207
010C         ?C0022:
010C 22                RET     
             ; FUNCTION _CySpcLoadMultiByte (END)

             ; FUNCTION _CySpcLoadRow (BEGIN)
                                           ; SOURCE LINE # 238
0000 900000      R     MOV     DPTR,#array
0003 EF                MOV     A,R7
0004 F0                MOVX    @DPTR,A
0005 900000      R     MOV     DPTR,#buffer
C51 COMPILER V9.51   CYSPC                                                                 10/24/2019 10:04:16 PAGE 20  

0008 120000      E     LCALL   ?C?PSTXDATA
                                           ; SOURCE LINE # 239
                                           ; SOURCE LINE # 240
000B 900000      R     MOV     DPTR,#status
000E 7407              MOV     A,#07H
0010 F0                MOVX    @DPTR,A
                                           ; SOURCE LINE # 244
0011 904722            MOV     DPTR,#04722H
0014 E0                MOVX    A,@DPTR
0015 FF                MOV     R7,A
0016 EF                MOV     A,R7
0017 5402              ANL     A,#02H
0019 FF                MOV     R7,A
001A 7E00              MOV     R6,#00H
001C EF                MOV     A,R7
001D 4E                ORL     A,R6
001E 607B              JZ      ?C0023
                                           ; SOURCE LINE # 245
                                           ; SOURCE LINE # 246
0020 904720            MOV     DPTR,#04720H
0023 74B6              MOV     A,#0B6H
0025 F0                MOVX    @DPTR,A
                                           ; SOURCE LINE # 247
0026 904720            MOV     DPTR,#04720H
0029 74D5              MOV     A,#0D5H
002B F0                MOVX    @DPTR,A
                                           ; SOURCE LINE # 248
002C 904720            MOV     DPTR,#04720H
002F 7402              MOV     A,#02H
0031 F0                MOVX    @DPTR,A
                                           ; SOURCE LINE # 251
0032 904722            MOV     DPTR,#04722H
0035 E0                MOVX    A,@DPTR
0036 FF                MOV     R7,A
0037 EF                MOV     A,R7
0038 5402              ANL     A,#02H
003A FF                MOV     R7,A
003B 7E00              MOV     R6,#00H
003D EF                MOV     A,R7
003E 4E                ORL     A,R6
003F 7052              JNZ     ?C0024
                                           ; SOURCE LINE # 252
                                           ; SOURCE LINE # 253
0041 900000      R     MOV     DPTR,#array
0044 E0                MOVX    A,@DPTR
0045 FF                MOV     R7,A
0046 904720            MOV     DPTR,#04720H
0049 EF                MOV     A,R7
004A F0                MOVX    @DPTR,A
                                           ; SOURCE LINE # 255
004B 900000      R     MOV     DPTR,#i
004E E4                CLR     A
004F F0                MOVX    @DPTR,A
0050 A3                INC     DPTR
0051 E4                CLR     A
0052 F0                MOVX    @DPTR,A
0053         ?C0025:
0053 900000      R     MOV     DPTR,#size
0056 E0                MOVX    A,@DPTR
0057 FE                MOV     R6,A
0058 A3                INC     DPTR
0059 E0                MOVX    A,@DPTR
C51 COMPILER V9.51   CYSPC                                                                 10/24/2019 10:04:16 PAGE 21  

005A FF                MOV     R7,A
005B 900000      R     MOV     DPTR,#i
005E E0                MOVX    A,@DPTR
005F FC                MOV     R4,A
0060 A3                INC     DPTR
0061 E0                MOVX    A,@DPTR
0062 FD                MOV     R5,A
0063 C3                CLR     C
0064 ED                MOV     A,R5
0065 9F                SUBB    A,R7
0066 EC                MOV     A,R4
0067 9E                SUBB    A,R6
0068 5037              JNC     ?C0029
                                           ; SOURCE LINE # 256
                                           ; SOURCE LINE # 257
006A 900000      R     MOV     DPTR,#buffer
006D 120000      E     LCALL   ?C?PLDXDATA
0070 900000      R     MOV     DPTR,#i
0073 E0                MOVX    A,@DPTR
0074 FE                MOV     R6,A
0075 A3                INC     DPTR
0076 E0                MOVX    A,@DPTR
0077 FF                MOV     R7,A
0078 E9                MOV     A,R1
0079 2F                ADD     A,R7
007A F9                MOV     R1,A
007B EA                MOV     A,R2
007C 3E                ADDC    A,R6
007D FA                MOV     R2,A
007E 120000      E     LCALL   ?C?CLDPTR
0081 FF                MOV     R7,A
0082 904720            MOV     DPTR,#04720H
0085 EF                MOV     A,R7
0086 F0                MOVX    @DPTR,A
                                           ; SOURCE LINE # 258
0087 900000      R     MOV     DPTR,#i
008A E4                CLR     A
008B 75F001            MOV     B,#01H
008E 120000      E     LCALL   ?C?IILDX
0091 80C0              SJMP    ?C0025
                                           ; SOURCE LINE # 259
0093         ?C0024:
                                           ; SOURCE LINE # 261
                                           ; SOURCE LINE # 262
0093 900000      R     MOV     DPTR,#status
0096 7409              MOV     A,#09H
0098 F0                MOVX    @DPTR,A
                                           ; SOURCE LINE # 263
                                           ; SOURCE LINE # 264
0099 8006              SJMP    ?C0029
009B         ?C0023:
                                           ; SOURCE LINE # 266
                                           ; SOURCE LINE # 267
009B 900000      R     MOV     DPTR,#status
009E 7404              MOV     A,#04H
00A0 F0                MOVX    @DPTR,A
                                           ; SOURCE LINE # 268
00A1         ?C0029:
                                           ; SOURCE LINE # 270
00A1 900000      R     MOV     DPTR,#status
00A4 E0                MOVX    A,@DPTR
00A5 FF                MOV     R7,A
C51 COMPILER V9.51   CYSPC                                                                 10/24/2019 10:04:16 PAGE 22  

                                           ; SOURCE LINE # 271
00A6         ?C0030:
00A6 22                RET     
             ; FUNCTION _CySpcLoadRow (END)

             ; FUNCTION _CySpcLoadRowFull (BEGIN)
                                           ; SOURCE LINE # 304
0000 900000      R     MOV     DPTR,#array
0003 EF                MOV     A,R7
0004 F0                MOVX    @DPTR,A
0005 900000      R     MOV     DPTR,#row
0008 EC                MOV     A,R4
0009 F0                MOVX    @DPTR,A
000A A3                INC     DPTR
000B ED                MOV     A,R5
000C F0                MOVX    @DPTR,A
000D 900000      R     MOV     DPTR,#buffer
0010 120000      E     LCALL   ?C?PSTXDATA
                                           ; SOURCE LINE # 306
                                           ; SOURCE LINE # 307
0013 900000      R     MOV     DPTR,#status
0016 7407              MOV     A,#07H
0018 F0                MOVX    @DPTR,A
                                           ; SOURCE LINE # 315
0019 904722            MOV     DPTR,#04722H
001C E0                MOVX    A,@DPTR
001D FF                MOV     R7,A
001E EF                MOV     A,R7
001F 5402              ANL     A,#02H
0021 FF                MOV     R7,A
0022 7E00              MOV     R6,#00H
0024 EF                MOV     A,R7
0025 4E                ORL     A,R6
0026 7003              JNZ     $ + 5H
0028 020000      R     LJMP    ?C0031
                                           ; SOURCE LINE # 316
                                           ; SOURCE LINE # 317
002B 904720            MOV     DPTR,#04720H
002E 74B6              MOV     A,#0B6H
0030 F0                MOVX    @DPTR,A
                                           ; SOURCE LINE # 318
0031 904720            MOV     DPTR,#04720H
0034 74D5              MOV     A,#0D5H
0036 F0                MOVX    @DPTR,A
                                           ; SOURCE LINE # 319
0037 904720            MOV     DPTR,#04720H
003A 7402              MOV     A,#02H
003C F0                MOVX    @DPTR,A
                                           ; SOURCE LINE # 322
003D 904722            MOV     DPTR,#04722H
0040 E0                MOVX    A,@DPTR
0041 FF                MOV     R7,A
0042 EF                MOV     A,R7
0043 5402              ANL     A,#02H
0045 FF                MOV     R7,A
0046 7E00              MOV     R6,#00H
0048 EF                MOV     A,R7
0049 4E                ORL     A,R6
004A 6003              JZ      $ + 5H
004C 020000      R     LJMP    ?C0032
                                           ; SOURCE LINE # 323
                                           ; SOURCE LINE # 324
C51 COMPILER V9.51   CYSPC                                                                 10/24/2019 10:04:16 PAGE 23  

004F 900000      R     MOV     DPTR,#array
0052 E0                MOVX    A,@DPTR
0053 FF                MOV     R7,A
0054 904720            MOV     DPTR,#04720H
0057 EF                MOV     A,R7
0058 F0                MOVX    @DPTR,A
                                           ; SOURCE LINE # 355
0059 900000      R     MOV     DPTR,#i
005C E4                CLR     A
005D F0                MOVX    @DPTR,A
005E A3                INC     DPTR
005F E4                CLR     A
0060 F0                MOVX    @DPTR,A
0061         ?C0033:
0061 900000      R     MOV     DPTR,#size
0064 E0                MOVX    A,@DPTR
0065 FE                MOV     R6,A
0066 A3                INC     DPTR
0067 E0                MOVX    A,@DPTR
0068 FF                MOV     R7,A
0069 900000      R     MOV     DPTR,#i
006C E0                MOVX    A,@DPTR
006D FC                MOV     R4,A
006E A3                INC     DPTR
006F E0                MOVX    A,@DPTR
0070 FD                MOV     R5,A
0071 C3                CLR     C
0072 ED                MOV     A,R5
0073 9F                SUBB    A,R7
0074 EC                MOV     A,R4
0075 9E                SUBB    A,R6
0076 5029              JNC     ?C0034
                                           ; SOURCE LINE # 356
                                           ; SOURCE LINE # 357
0078 900000      R     MOV     DPTR,#buffer
007B 120000      E     LCALL   ?C?PLDXDATA
007E 900000      R     MOV     DPTR,#i
0081 E0                MOVX    A,@DPTR
0082 FE                MOV     R6,A
0083 A3                INC     DPTR
0084 E0                MOVX    A,@DPTR
0085 FF                MOV     R7,A
0086 E9                MOV     A,R1
0087 2F                ADD     A,R7
0088 F9                MOV     R1,A
0089 EA                MOV     A,R2
008A 3E                ADDC    A,R6
008B FA                MOV     R2,A
008C 120000      E     LCALL   ?C?CLDPTR
008F FF                MOV     R7,A
0090 904720            MOV     DPTR,#04720H
0093 EF                MOV     A,R7
0094 F0                MOVX    @DPTR,A
                                           ; SOURCE LINE # 358
0095 900000      R     MOV     DPTR,#i
0098 E4                CLR     A
0099 75F001            MOV     B,#01H
009C 120000      E     LCALL   ?C?IILDX
009F 80C0              SJMP    ?C0033
00A1         ?C0034:
                                           ; SOURCE LINE # 380
00A1 900000      R     MOV     DPTR,#size
C51 COMPILER V9.51   CYSPC                                                                 10/24/2019 10:04:16 PAGE 24  

00A4 E0                MOVX    A,@DPTR
00A5 FE                MOV     R6,A
00A6 A3                INC     DPTR
00A7 E0                MOVX    A,@DPTR
00A8 FF                MOV     R7,A
00A9 EF                MOV     A,R7
00AA 6400              XRL     A,#00H
00AC 7003              JNZ     ?C0069
00AE EE                MOV     A,R6
00AF 6401              XRL     A,#01H
00B1         ?C0069:
00B1 6003              JZ      $ + 5H
00B3 020000      R     LJMP    ?C0041
00B6 900000      R     MOV     DPTR,#array
00B9 E0                MOVX    A,@DPTR
00BA FF                MOV     R7,A
00BB EF                MOV     A,R7
00BC D3                SETB    C
00BD 943F              SUBB    A,#03FH
00BF 4003              JC      $ + 5H
00C1 020000      R     LJMP    ?C0041
                                           ; SOURCE LINE # 381
                                           ; SOURCE LINE # 384
00C4 900000      R     MOV     DPTR,#array
00C7 E0                MOVX    A,@DPTR
00C8 FF                MOV     R7,A
00C9 7E00              MOV     R6,#00H
00CB 7C20              MOV     R4,#020H
00CD 7D00              MOV     R5,#00H
00CF 120000      E     LCALL   ?C?LIMUL
00D2 EF                MOV     A,R7
00D3 2400              ADD     A,#00H
00D5 FF                MOV     R7,A
00D6 EE                MOV     A,R6
00D7 3400              ADDC    A,#00H
00D9 FE                MOV     R6,A
00DA ED                MOV     A,R5
00DB 3408              ADDC    A,#08H
00DD FD                MOV     R5,A
00DE EC                MOV     A,R4
00DF 3400              ADDC    A,#00H
00E1 FC                MOV     R4,A
00E2 C004              PUSH    AR4
00E4 C005              PUSH    AR5
00E6 C006              PUSH    AR6
00E8 C007              PUSH    AR7
00EA 900000      R     MOV     DPTR,#row
00ED E0                MOVX    A,@DPTR
00EE FE                MOV     R6,A
00EF A3                INC     DPTR
00F0 E0                MOVX    A,@DPTR
00F1 FF                MOV     R7,A
00F2 7C00              MOV     R4,#00H
00F4 7D20              MOV     R5,#020H
00F6 120000      E     LCALL   ?C?LIMUL
00F9 A804              MOV     R0,AR4
00FB A905              MOV     R1,AR5
00FD AA06              MOV     R2,AR6
00FF AB07              MOV     R3,AR7
0101 D007              POP     AR7
0103 D006              POP     AR6
0105 D005              POP     AR5
C51 COMPILER V9.51   CYSPC                                                                 10/24/2019 10:04:16 PAGE 25  

0107 D004              POP     AR4
0109 120000      E     LCALL   ?C?LADD
010C 900000      R     MOV     DPTR,#offset
010F 120000      E     LCALL   ?C?LSTXDATA
                                           ; SOURCE LINE # 386
0112 900000      R     MOV     DPTR,#i
0115 E4                CLR     A
0116 F0                MOVX    @DPTR,A
0117 A3                INC     DPTR
0118 E4                CLR     A
0119 F0                MOVX    @DPTR,A
011A         ?C0037:
011A 900000      R     MOV     DPTR,#i
011D E0                MOVX    A,@DPTR
011E FE                MOV     R6,A
011F A3                INC     DPTR
0120 E0                MOVX    A,@DPTR
0121 FF                MOV     R7,A
0122 C3                CLR     C
0123 EF                MOV     A,R7
0124 9420              SUBB    A,#020H
0126 EE                MOV     A,R6
0127 9400              SUBB    A,#00H
0129 503C              JNC     ?C0041
                                           ; SOURCE LINE # 387
                                           ; SOURCE LINE # 388
012B 900000      R     MOV     DPTR,#i
012E E0                MOVX    A,@DPTR
012F FE                MOV     R6,A
0130 A3                INC     DPTR
0131 E0                MOVX    A,@DPTR
0132 FF                MOV     R7,A
0133 E4                CLR     A
0134 FC                MOV     R4,A
0135 FD                MOV     R5,A
0136 900000      R     MOV     DPTR,#offset
0139 120000      E     LCALL   ?C?LLDXDATA0
013C 120000      E     LCALL   ?C?LADD
013F A907              MOV     R1,AR7
0141 AA06              MOV     R2,AR6
0143 AB05              MOV     R3,AR5
0145 120000      E     LCALL   _cyread8
0148 904720            MOV     DPTR,#04720H
014B EF                MOV     A,R7
014C F0                MOVX    @DPTR,A
                                           ; SOURCE LINE # 389
014D 900000      R     MOV     DPTR,#i
0150 E4                CLR     A
0151 75F001            MOV     B,#01H
0154 120000      E     LCALL   ?C?IILDX
0157 80C1              SJMP    ?C0037
                                           ; SOURCE LINE # 390
                                           ; SOURCE LINE # 400
0159         ?C0032:
                                           ; SOURCE LINE # 402
                                           ; SOURCE LINE # 403
0159 900000      R     MOV     DPTR,#status
015C 7409              MOV     A,#09H
015E F0                MOVX    @DPTR,A
                                           ; SOURCE LINE # 404
                                           ; SOURCE LINE # 405
015F 8006              SJMP    ?C0041
C51 COMPILER V9.51   CYSPC                                                                 10/24/2019 10:04:16 PAGE 26  

0161         ?C0031:
                                           ; SOURCE LINE # 407
                                           ; SOURCE LINE # 408
0161 900000      R     MOV     DPTR,#status
0164 7404              MOV     A,#04H
0166 F0                MOVX    @DPTR,A
                                           ; SOURCE LINE # 409
0167         ?C0041:
                                           ; SOURCE LINE # 411
0167 900000      R     MOV     DPTR,#status
016A E0                MOVX    A,@DPTR
016B FF                MOV     R7,A
                                           ; SOURCE LINE # 412
016C         ?C0042:
016C 22                RET     
             ; FUNCTION _CySpcLoadRowFull (END)

             ; FUNCTION _CySpcWriteRow (BEGIN)
                                           ; SOURCE LINE # 440
0000 900000      R     MOV     DPTR,#array
0003 EF                MOV     A,R7
0004 F0                MOVX    @DPTR,A
0005 900000      R     MOV     DPTR,#address
0008 EC                MOV     A,R4
0009 F0                MOVX    @DPTR,A
000A A3                INC     DPTR
000B ED                MOV     A,R5
000C F0                MOVX    @DPTR,A
000D 900000      R     MOV     DPTR,#tempPolarity
0010 EB                MOV     A,R3
0011 F0                MOVX    @DPTR,A
                                           ; SOURCE LINE # 442
                                           ; SOURCE LINE # 443
0012 900000      R     MOV     DPTR,#status
0015 7407              MOV     A,#07H
0017 F0                MOVX    @DPTR,A
                                           ; SOURCE LINE # 446
0018 904722            MOV     DPTR,#04722H
001B E0                MOVX    A,@DPTR
001C FF                MOV     R7,A
001D EF                MOV     A,R7
001E 5402              ANL     A,#02H
0020 FF                MOV     R7,A
0021 7E00              MOV     R6,#00H
0023 EF                MOV     A,R7
0024 4E                ORL     A,R6
0025 606B              JZ      ?C0043
                                           ; SOURCE LINE # 447
                                           ; SOURCE LINE # 448
0027 904720            MOV     DPTR,#04720H
002A 74B6              MOV     A,#0B6H
002C F0                MOVX    @DPTR,A
                                           ; SOURCE LINE # 449
002D 904720            MOV     DPTR,#04720H
0030 74D8              MOV     A,#0D8H
0032 F0                MOVX    @DPTR,A
                                           ; SOURCE LINE # 450
0033 904720            MOV     DPTR,#04720H
0036 7405              MOV     A,#05H
0038 F0                MOVX    @DPTR,A
                                           ; SOURCE LINE # 453
0039 904722            MOV     DPTR,#04722H
C51 COMPILER V9.51   CYSPC                                                                 10/24/2019 10:04:16 PAGE 27  

003C E0                MOVX    A,@DPTR
003D FF                MOV     R7,A
003E EF                MOV     A,R7
003F 5402              ANL     A,#02H
0041 FF                MOV     R7,A
0042 7E00              MOV     R6,#00H
0044 EF                MOV     A,R7
0045 4E                ORL     A,R6
0046 7042              JNZ     ?C0044
                                           ; SOURCE LINE # 454
                                           ; SOURCE LINE # 455
0048 900000      R     MOV     DPTR,#array
004B E0                MOVX    A,@DPTR
004C FF                MOV     R7,A
004D 904720            MOV     DPTR,#04720H
0050 EF                MOV     A,R7
0051 F0                MOVX    @DPTR,A
                                           ; SOURCE LINE # 456
0052 900000      R     MOV     DPTR,#address
0055 E0                MOVX    A,@DPTR
0056 FE                MOV     R6,A
0057 A3                INC     DPTR
0058 E0                MOVX    A,@DPTR
0059 FF                MOV     R7,A
005A EE                MOV     A,R6
005B FF                MOV     R7,A
005C 7E00              MOV     R6,#00H
005E 904720            MOV     DPTR,#04720H
0061 EF                MOV     A,R7
0062 F0                MOVX    @DPTR,A
                                           ; SOURCE LINE # 457
0063 900000      R     MOV     DPTR,#address
0066 E0                MOVX    A,@DPTR
0067 FE                MOV     R6,A
0068 A3                INC     DPTR
0069 E0                MOVX    A,@DPTR
006A FF                MOV     R7,A
006B EF                MOV     A,R7
006C 54FF              ANL     A,#0FFH
006E FF                MOV     R7,A
006F 904720            MOV     DPTR,#04720H
0072 EF                MOV     A,R7
0073 F0                MOVX    @DPTR,A
                                           ; SOURCE LINE # 458
0074 900000      R     MOV     DPTR,#tempPolarity
0077 E0                MOVX    A,@DPTR
0078 FF                MOV     R7,A
0079 904720            MOV     DPTR,#04720H
007C EF                MOV     A,R7
007D F0                MOVX    @DPTR,A
                                           ; SOURCE LINE # 459
007E 900000      R     MOV     DPTR,#tempMagnitude
0081 E0                MOVX    A,@DPTR
0082 FF                MOV     R7,A
0083 904720            MOV     DPTR,#04720H
0086 EF                MOV     A,R7
0087 F0                MOVX    @DPTR,A
                                           ; SOURCE LINE # 460
0088 800E              SJMP    ?C0046
008A         ?C0044:
                                           ; SOURCE LINE # 462
                                           ; SOURCE LINE # 463
C51 COMPILER V9.51   CYSPC                                                                 10/24/2019 10:04:16 PAGE 28  

008A 900000      R     MOV     DPTR,#status
008D 7409              MOV     A,#09H
008F F0                MOVX    @DPTR,A
                                           ; SOURCE LINE # 464
                                           ; SOURCE LINE # 465
0090 8006              SJMP    ?C0046
0092         ?C0043:
                                           ; SOURCE LINE # 467
                                           ; SOURCE LINE # 468
0092 900000      R     MOV     DPTR,#status
0095 7404              MOV     A,#04H
0097 F0                MOVX    @DPTR,A
                                           ; SOURCE LINE # 469
0098         ?C0046:
                                           ; SOURCE LINE # 471
0098 900000      R     MOV     DPTR,#status
009B E0                MOVX    A,@DPTR
009C FF                MOV     R7,A
                                           ; SOURCE LINE # 472
009D         ?C0047:
009D 22                RET     
             ; FUNCTION _CySpcWriteRow (END)

             ; FUNCTION _CySpcEraseSector (BEGIN)
                                           ; SOURCE LINE # 492
0000 900000      R     MOV     DPTR,#array
0003 EF                MOV     A,R7
0004 F0                MOVX    @DPTR,A
0005 900000      R     MOV     DPTR,#sectorNumber
0008 ED                MOV     A,R5
0009 F0                MOVX    @DPTR,A
                                           ; SOURCE LINE # 493
                                           ; SOURCE LINE # 494
000A 900000      R     MOV     DPTR,#status
000D 7407              MOV     A,#07H
000F F0                MOVX    @DPTR,A
                                           ; SOURCE LINE # 497
0010 904722            MOV     DPTR,#04722H
0013 E0                MOVX    A,@DPTR
0014 FF                MOV     R7,A
0015 EF                MOV     A,R7
0016 5402              ANL     A,#02H
0018 FF                MOV     R7,A
0019 7E00              MOV     R6,#00H
001B EF                MOV     A,R7
001C 4E                ORL     A,R6
001D 603F              JZ      ?C0048
                                           ; SOURCE LINE # 498
                                           ; SOURCE LINE # 499
001F 904720            MOV     DPTR,#04720H
0022 74B6              MOV     A,#0B6H
0024 F0                MOVX    @DPTR,A
                                           ; SOURCE LINE # 500
0025 904720            MOV     DPTR,#04720H
0028 74DB              MOV     A,#0DBH
002A F0                MOVX    @DPTR,A
                                           ; SOURCE LINE # 501
002B 904720            MOV     DPTR,#04720H
002E 7408              MOV     A,#08H
0030 F0                MOVX    @DPTR,A
                                           ; SOURCE LINE # 504
0031 904722            MOV     DPTR,#04722H
C51 COMPILER V9.51   CYSPC                                                                 10/24/2019 10:04:16 PAGE 29  

0034 E0                MOVX    A,@DPTR
0035 FF                MOV     R7,A
0036 EF                MOV     A,R7
0037 5402              ANL     A,#02H
0039 FF                MOV     R7,A
003A 7E00              MOV     R6,#00H
003C EF                MOV     A,R7
003D 4E                ORL     A,R6
003E 7016              JNZ     ?C0049
                                           ; SOURCE LINE # 505
                                           ; SOURCE LINE # 506
0040 900000      R     MOV     DPTR,#array
0043 E0                MOVX    A,@DPTR
0044 FF                MOV     R7,A
0045 904720            MOV     DPTR,#04720H
0048 EF                MOV     A,R7
0049 F0                MOVX    @DPTR,A
                                           ; SOURCE LINE # 507
004A 900000      R     MOV     DPTR,#sectorNumber
004D E0                MOVX    A,@DPTR
004E FF                MOV     R7,A
004F 904720            MOV     DPTR,#04720H
0052 EF                MOV     A,R7
0053 F0                MOVX    @DPTR,A
                                           ; SOURCE LINE # 508
0054 800E              SJMP    ?C0051
0056         ?C0049:
                                           ; SOURCE LINE # 510
                                           ; SOURCE LINE # 511
0056 900000      R     MOV     DPTR,#status
0059 7409              MOV     A,#09H
005B F0                MOVX    @DPTR,A
                                           ; SOURCE LINE # 512
                                           ; SOURCE LINE # 513
005C 8006              SJMP    ?C0051
005E         ?C0048:
                                           ; SOURCE LINE # 515
                                           ; SOURCE LINE # 516
005E 900000      R     MOV     DPTR,#status
0061 7404              MOV     A,#04H
0063 F0                MOVX    @DPTR,A
                                           ; SOURCE LINE # 517
0064         ?C0051:
                                           ; SOURCE LINE # 519
0064 900000      R     MOV     DPTR,#status
0067 E0                MOVX    A,@DPTR
0068 FF                MOV     R7,A
                                           ; SOURCE LINE # 520
0069         ?C0052:
0069 22                RET     
             ; FUNCTION _CySpcEraseSector (END)

             ; FUNCTION _CySpcEraseRow (BEGIN)
                                           ; SOURCE LINE # 548
0000 900000      R     MOV     DPTR,#array
0003 EF                MOV     A,R7
0004 F0                MOVX    @DPTR,A
0005 900000      R     MOV     DPTR,#address
0008 EC                MOV     A,R4
0009 F0                MOVX    @DPTR,A
000A A3                INC     DPTR
000B ED                MOV     A,R5
C51 COMPILER V9.51   CYSPC                                                                 10/24/2019 10:04:16 PAGE 30  

000C F0                MOVX    @DPTR,A
000D 900000      R     MOV     DPTR,#tempPolarity
0010 EB                MOV     A,R3
0011 F0                MOVX    @DPTR,A
                                           ; SOURCE LINE # 550
                                           ; SOURCE LINE # 551
0012 900000      R     MOV     DPTR,#status
0015 7407              MOV     A,#07H
0017 F0                MOVX    @DPTR,A
                                           ; SOURCE LINE # 554
0018 904722            MOV     DPTR,#04722H
001B E0                MOVX    A,@DPTR
001C FF                MOV     R7,A
001D EF                MOV     A,R7
001E 5402              ANL     A,#02H
0020 FF                MOV     R7,A
0021 7E00              MOV     R6,#00H
0023 EF                MOV     A,R7
0024 4E                ORL     A,R6
0025 606B              JZ      ?C0053
                                           ; SOURCE LINE # 555
                                           ; SOURCE LINE # 556
0027 904720            MOV     DPTR,#04720H
002A 74B6              MOV     A,#0B6H
002C F0                MOVX    @DPTR,A
                                           ; SOURCE LINE # 557
002D 904720            MOV     DPTR,#04720H
0030 74E6              MOV     A,#0E6H
0032 F0                MOVX    @DPTR,A
                                           ; SOURCE LINE # 558
0033 904720            MOV     DPTR,#04720H
0036 7413              MOV     A,#013H
0038 F0                MOVX    @DPTR,A
                                           ; SOURCE LINE # 561
0039 904722            MOV     DPTR,#04722H
003C E0                MOVX    A,@DPTR
003D FF                MOV     R7,A
003E EF                MOV     A,R7
003F 5402              ANL     A,#02H
0041 FF                MOV     R7,A
0042 7E00              MOV     R6,#00H
0044 EF                MOV     A,R7
0045 4E                ORL     A,R6
0046 7042              JNZ     ?C0054
                                           ; SOURCE LINE # 562
                                           ; SOURCE LINE # 563
0048 900000      R     MOV     DPTR,#array
004B E0                MOVX    A,@DPTR
004C FF                MOV     R7,A
004D 904720            MOV     DPTR,#04720H
0050 EF                MOV     A,R7
0051 F0                MOVX    @DPTR,A
                                           ; SOURCE LINE # 564
0052 900000      R     MOV     DPTR,#address
0055 E0                MOVX    A,@DPTR
0056 FE                MOV     R6,A
0057 A3                INC     DPTR
0058 E0                MOVX    A,@DPTR
0059 FF                MOV     R7,A
005A EE                MOV     A,R6
005B FF                MOV     R7,A
005C 7E00              MOV     R6,#00H
C51 COMPILER V9.51   CYSPC                                                                 10/24/2019 10:04:16 PAGE 31  

005E 904720            MOV     DPTR,#04720H
0061 EF                MOV     A,R7
0062 F0                MOVX    @DPTR,A
                                           ; SOURCE LINE # 565
0063 900000      R     MOV     DPTR,#address
0066 E0                MOVX    A,@DPTR
0067 FE                MOV     R6,A
0068 A3                INC     DPTR
0069 E0                MOVX    A,@DPTR
006A FF                MOV     R7,A
006B EF                MOV     A,R7
006C 54FF              ANL     A,#0FFH
006E FF                MOV     R7,A
006F 904720            MOV     DPTR,#04720H
0072 EF                MOV     A,R7
0073 F0                MOVX    @DPTR,A
                                           ; SOURCE LINE # 566
0074 900000      R     MOV     DPTR,#tempPolarity
0077 E0                MOVX    A,@DPTR
0078 FF                MOV     R7,A
0079 904720            MOV     DPTR,#04720H
007C EF                MOV     A,R7
007D F0                MOVX    @DPTR,A
                                           ; SOURCE LINE # 567
007E 900000      R     MOV     DPTR,#tempMagnitude
0081 E0                MOVX    A,@DPTR
0082 FF                MOV     R7,A
0083 904720            MOV     DPTR,#04720H
0086 EF                MOV     A,R7
0087 F0                MOVX    @DPTR,A
                                           ; SOURCE LINE # 568
0088 800E              SJMP    ?C0056
008A         ?C0054:
                                           ; SOURCE LINE # 570
                                           ; SOURCE LINE # 571
008A 900000      R     MOV     DPTR,#status
008D 7409              MOV     A,#09H
008F F0                MOVX    @DPTR,A
                                           ; SOURCE LINE # 572
                                           ; SOURCE LINE # 573
0090 8006              SJMP    ?C0056
0092         ?C0053:
                                           ; SOURCE LINE # 575
                                           ; SOURCE LINE # 576
0092 900000      R     MOV     DPTR,#status
0095 7404              MOV     A,#04H
0097 F0                MOVX    @DPTR,A
                                           ; SOURCE LINE # 577
0098         ?C0056:
                                           ; SOURCE LINE # 579
0098 900000      R     MOV     DPTR,#status
009B E0                MOVX    A,@DPTR
009C FF                MOV     R7,A
                                           ; SOURCE LINE # 580
009D         ?C0057:
009D 22                RET     
             ; FUNCTION _CySpcEraseRow (END)

             ; FUNCTION _CySpcGetTemp (BEGIN)
                                           ; SOURCE LINE # 605
0000 900000      R     MOV     DPTR,#numSamples
0003 EF                MOV     A,R7
C51 COMPILER V9.51   CYSPC                                                                 10/24/2019 10:04:16 PAGE 32  

0004 F0                MOVX    @DPTR,A
                                           ; SOURCE LINE # 606
                                           ; SOURCE LINE # 607
0005 900000      R     MOV     DPTR,#status
0008 7407              MOV     A,#07H
000A F0                MOVX    @DPTR,A
                                           ; SOURCE LINE # 610
000B 904722            MOV     DPTR,#04722H
000E E0                MOVX    A,@DPTR
000F FF                MOV     R7,A
0010 EF                MOV     A,R7
0011 5402              ANL     A,#02H
0013 FF                MOV     R7,A
0014 7E00              MOV     R6,#00H
0016 EF                MOV     A,R7
0017 4E                ORL     A,R6
0018 6035              JZ      ?C0058
                                           ; SOURCE LINE # 611
                                           ; SOURCE LINE # 612
001A 904720            MOV     DPTR,#04720H
001D 74B6              MOV     A,#0B6H
001F F0                MOVX    @DPTR,A
                                           ; SOURCE LINE # 613
0020 904720            MOV     DPTR,#04720H
0023 74E1              MOV     A,#0E1H
0025 F0                MOVX    @DPTR,A
                                           ; SOURCE LINE # 614
0026 904720            MOV     DPTR,#04720H
0029 740E              MOV     A,#0EH
002B F0                MOVX    @DPTR,A
                                           ; SOURCE LINE # 617
002C 904722            MOV     DPTR,#04722H
002F E0                MOVX    A,@DPTR
0030 FF                MOV     R7,A
0031 EF                MOV     A,R7
0032 5402              ANL     A,#02H
0034 FF                MOV     R7,A
0035 7E00              MOV     R6,#00H
0037 EF                MOV     A,R7
0038 4E                ORL     A,R6
0039 700C              JNZ     ?C0059
                                           ; SOURCE LINE # 618
                                           ; SOURCE LINE # 619
003B 900000      R     MOV     DPTR,#numSamples
003E E0                MOVX    A,@DPTR
003F FF                MOV     R7,A
0040 904720            MOV     DPTR,#04720H
0043 EF                MOV     A,R7
0044 F0                MOVX    @DPTR,A
                                           ; SOURCE LINE # 620
0045 800E              SJMP    ?C0061
0047         ?C0059:
                                           ; SOURCE LINE # 622
                                           ; SOURCE LINE # 623
0047 900000      R     MOV     DPTR,#status
004A 7409              MOV     A,#09H
004C F0                MOVX    @DPTR,A
                                           ; SOURCE LINE # 624
                                           ; SOURCE LINE # 625
004D 8006              SJMP    ?C0061
004F         ?C0058:
                                           ; SOURCE LINE # 627
C51 COMPILER V9.51   CYSPC                                                                 10/24/2019 10:04:16 PAGE 33  

                                           ; SOURCE LINE # 628
004F 900000      R     MOV     DPTR,#status
0052 7404              MOV     A,#04H
0054 F0                MOVX    @DPTR,A
                                           ; SOURCE LINE # 629
0055         ?C0061:
                                           ; SOURCE LINE # 631
0055 900000      R     MOV     DPTR,#status
0058 E0                MOVX    A,@DPTR
0059 FF                MOV     R7,A
                                           ; SOURCE LINE # 632
005A         ?C0062:
005A 22                RET     
             ; FUNCTION _CySpcGetTemp (END)

             ; FUNCTION CySpcLock (BEGIN)
                                           ; SOURCE LINE # 646
                                           ; SOURCE LINE # 647
                                           ; SOURCE LINE # 648
0000 900000      R     MOV     DPTR,#status
0003 7404              MOV     A,#04H
0005 F0                MOVX    @DPTR,A
                                           ; SOURCE LINE # 652
0006 120000      E     LCALL   CyEnterCriticalSection
0009 900000      R     MOV     DPTR,#interruptState
000C EF                MOV     A,R7
000D F0                MOVX    @DPTR,A
                                           ; SOURCE LINE # 654
000E 900000      R     MOV     DPTR,#SpcLockState
0011 E0                MOVX    A,@DPTR
0012 FF                MOV     R7,A
0013 EF                MOV     A,R7
0014 700B              JNZ     ?C0063
                                           ; SOURCE LINE # 655
                                           ; SOURCE LINE # 656
0016 900000      R     MOV     DPTR,#SpcLockState
0019 7401              MOV     A,#01H
001B F0                MOVX    @DPTR,A
                                           ; SOURCE LINE # 657
001C 900000      R     MOV     DPTR,#status
001F E4                CLR     A
0020 F0                MOVX    @DPTR,A
                                           ; SOURCE LINE # 675
0021         ?C0063:
                                           ; SOURCE LINE # 678
0021 900000      R     MOV     DPTR,#interruptState
0024 E0                MOVX    A,@DPTR
0025 FF                MOV     R7,A
0026 120000      E     LCALL   _CyExitCriticalSection
                                           ; SOURCE LINE # 680
0029 900000      R     MOV     DPTR,#status
002C E0                MOVX    A,@DPTR
002D FF                MOV     R7,A
                                           ; SOURCE LINE # 681
002E         ?C0064:
002E 22                RET     
             ; FUNCTION CySpcLock (END)

             ; FUNCTION CySpcUnlock (BEGIN)
                                           ; SOURCE LINE # 691
                                           ; SOURCE LINE # 692
                                           ; SOURCE LINE # 696
C51 COMPILER V9.51   CYSPC                                                                 10/24/2019 10:04:16 PAGE 34  

0000 120000      E     LCALL   CyEnterCriticalSection
0003 900000      R     MOV     DPTR,#interruptState
0006 EF                MOV     A,R7
0007 F0                MOVX    @DPTR,A
                                           ; SOURCE LINE # 699
0008 900000      R     MOV     DPTR,#SpcLockState
000B E4                CLR     A
000C F0                MOVX    @DPTR,A
                                           ; SOURCE LINE # 719
000D 900000      R     MOV     DPTR,#interruptState
0010 E0                MOVX    A,@DPTR
0011 FF                MOV     R7,A
0012 120000      E     LCALL   _CyExitCriticalSection
                                           ; SOURCE LINE # 720
0015 22                RET     
             ; FUNCTION CySpcUnlock (END)

             ; FUNCTION CySpcGetAlgorithm (BEGIN)
                                           ; SOURCE LINE # 733
                                           ; SOURCE LINE # 734
                                           ; SOURCE LINE # 735
0000 900000      R     MOV     DPTR,#status
0003 7407              MOV     A,#07H
0005 F0                MOVX    @DPTR,A
                                           ; SOURCE LINE # 738
0006 904722            MOV     DPTR,#04722H
0009 E0                MOVX    A,@DPTR
000A FF                MOV     R7,A
000B EF                MOV     A,R7
000C 5402              ANL     A,#02H
000E FF                MOV     R7,A
000F 7E00              MOV     R6,#00H
0011 EF                MOV     A,R7
0012 4E                ORL     A,R6
0013 6014              JZ      ?C0066
                                           ; SOURCE LINE # 739
                                           ; SOURCE LINE # 740
0015 904720            MOV     DPTR,#04720H
0018 74B6              MOV     A,#0B6H
001A F0                MOVX    @DPTR,A
                                           ; SOURCE LINE # 741
001B 904720            MOV     DPTR,#04720H
001E 74E0              MOV     A,#0E0H
0020 F0                MOVX    @DPTR,A
                                           ; SOURCE LINE # 742
0021 904720            MOV     DPTR,#04720H
0024 740D              MOV     A,#0DH
0026 F0                MOVX    @DPTR,A
                                           ; SOURCE LINE # 743
0027 8006              SJMP    ?C0067
0029         ?C0066:
                                           ; SOURCE LINE # 745
                                           ; SOURCE LINE # 746
0029 900000      R     MOV     DPTR,#status
002C 7404              MOV     A,#04H
002E F0                MOVX    @DPTR,A
                                           ; SOURCE LINE # 747
002F         ?C0067:
                                           ; SOURCE LINE # 749
002F 900000      R     MOV     DPTR,#status
0032 E0                MOVX    A,@DPTR
0033 FF                MOV     R7,A
C51 COMPILER V9.51   CYSPC                                                                 10/24/2019 10:04:16 PAGE 35  

                                           ; SOURCE LINE # 750
0034         ?C0068:
0034 22                RET     
             ; FUNCTION CySpcGetAlgorithm (END)



MODULE INFORMATION:   STATIC OVERLAYABLE
   CODE SIZE        =   1615    ----
   CONSTANT SIZE    =   ----    ----
   XDATA SIZE       =      1      61
   PDATA SIZE       =   ----    ----
   DATA SIZE        =   ----    ----
   IDATA SIZE       =   ----    ----
   BIT SIZE         =   ----    ----
   EDATA SIZE       =   ----    ----
   HDATA SIZE       =   ----    ----
   XDATA CONST SIZE =   ----    ----
   FAR CONST SIZE   =   ----    ----
END OF MODULE INFORMATION.


C51 COMPILATION COMPLETE.  0 WARNING(S),  0 ERROR(S)
