:100000000205A3008F828E83E0540100000070F887
:100010002278FFE4F6D8FD020601BB010689828A38
:1000200083E0225002E722BBFE02E32289828A8318
:10003000E49322BB010689828A83F0225002F722D0
:10004000BBFE01F322C5F0F8A3E028F0C5F0F8E507
:1000500082158270021583E038F022EF2BFFEE3A12
:10006000FEED39FDEC38FC22E88FF0A4CC8BF0A437
:100070002CFCE98EF0A42CFC8AF0EDA42CFCEA8E7A
:10008000F0A4CDA8F08BF0A42DCC3825F0FDE98F9D
:10009000F0A42CCD35F0FCEB8EF0A4FEA9F0EB8F94
:1000A000F0A4CFC5F02ECD39FEE43CFCEAA42DCE61
:1000B00035F0FDE43CFC2275F008758200EF2FFF5F
:1000C000EE33FECD33CDCC33CCC58233C5829BED30
:1000D0009AEC99E58298400CF582EE9BFEED9AFD34
:1000E000EC99FC0FD5F0D6E4CEFBE4CDFAE4CCF9E4
:1000F000A88222B800C1B90059BA002DEC8BF08457
:10010000CFCECDFCE5F0CBF97818EF2FFFEE33FE24
:10011000ED33FDEC33FCEB33FB10D703994004EBDC
:1001200099FB0FD8E5E4F9FA227818EF2FFFEE33A8
:10013000FEED33FDEC33FCC933C910D7059BE99ABA
:100140004007EC9BFCE99AF90FD8E0E4C9FAE4CC4B
:10015000FB2275F010EF2FFFEE33FEED33FDCC33B5
:10016000CCC833C810D7079BEC9AE899400AED9B9E
:10017000FDEC9AFCE899F80FD5F0DAE4CDFBE4CC7D
:10018000FAE4C8F922EF4BFFEE4AFEED49FDEC48D8
:10019000FC22EB9FF5F0EA9E42F0E99D42F0E89CDC
:1001A00045F022E8600FECC313FCED13FDEE13FEE7
:1001B000EF13FFD8F122E8600FEFC333FFEE33FEF9
:1001C000ED33FDEC33FCD8F122BB010789828A8331
:1001D0000202035005E9F80202BCBBFE05E9F80281
:1001E00002C889828A830202D4BB010789828A837A
:1001F00002021B5005E9F80202E4BBFE05E9F80221
:1002000002F022E0FCA3E0FDA3E0FEA3E0FF22E079
:10021000F8A3E0F9A3E0FAA3E0FB22ECF0A3EDF0F1
:10022000A3EEF0A3EFF022E0FBA3E0FAA3E0F922B3
:10023000EBF0A3EAF0A3E9F022E493FB740193FA54
:10024000740293F922D083D082F8E493701274017F
:1002500093700DA3A393F8740193F5828883E473DC
:100260007402936860EFA3A3A380DFE50C2582F5F9
:1002700082E50B3583F583B50B0485820C2210AF24
:100280000685820CF50B2285820CF50BD2AF22EC91
:100290008EF0A4CCC5F0CCCDF8EFA4CEC5F02DFDEA
:1002A000E43CFCE8A42EC8C5F03DFDE43CFCEFA412
:1002B000FFE5F028FEE43DFDE43CFC22E6FC08E618
:1002C000FD08E6FE08E6FF22E2FC08E2FD08E2FE89
:1002D00008E2FF22E493FC740193FD740293FE7420
:1002E0000393FF22ECF608EDF608EEF608EFF6228F
:1002F000ECF208EDF208EEF208EFF2227F947E01B4
:100300007D007C0090005C12021B905100E0FFEF2A
:100310005480FFEFF0905102E0FFEF54F0FF9000A7
:100320005BEFF090005BE0FFEF440FFF905102EFB6
:10033000F0905103E0FFEF54F0FF90005BEFF0907E
:10034000005BE0FF905103EFF0905104E0FFEF54A9
:10035000F0FF90005BEFF090005BE0FF905104EF46
:10036000F0905100E0FFEF54DFFFEFF0905100E01C
:10037000FFEF4440FFEFF07F007E00120C1490511D
:1003800000E0FFEF4410FFEFF07F017E00120C143D
:10039000905101E0FF90005BEFF0905100E0FFEF23
:1003A00054EFFFEFF07F007E00120C1490005BE032
:1003B000FFEF5408FF90005BEFF0905100E0FFEF7B
:1003C0004410FFEFF07F017E00120C14905100E00A
:1003D000FFEF54EFFFEFF090005BE0FFEF70077F5F
:1003E0000A7E00120C1490005C1202037BFF7AFF5D
:1003F00079FF78FF12005B90005C12021B90005B9B
:10040000E0FFEF601290005C120203D3EF9400EE65
:1004100094004003020377905100E0FFEF54BFFFC8
:10042000EFF0905100E0FFEF5480FFEFF0905102A9
:10043000E0FFEF54F0FFEFF0905103E0FFEF54F0D6
:10044000FF90005BEFF090005BE0FFEF440FFF9048
:100450005103EFF0905104E0FFEF54F0FF90005B88
:10046000EFF090005BE0FFEF440FFF905104EFF0DE
:10047000227B007A4679E8120CD1EF4405FD7B001F
:100480007A4679E8120CDD750A00E50AC394085033
:100490003AAF0AEF75F005A42429F582E4340DF58E
:1004A00083AF82AE838E088F09AE08AF098F828E2C
:1004B00083120239AE08AF098F828E83740393FCD6
:1004C000740493FD120C6D050A80BF7B017A50798C
:1004D00003120CD1EF4402FD7B017A507903120C18
:1004E000DD7B017A507913120CD1EF4402FD7B01C0
:1004F0007A507913120CDD7B087A007900C003C0B2
:1005000002C0017B007A517902900057120230D06C
:1005100001D002D0037F087E00120BDD7B087A0039
:100520007908C003C002C0017B007A5179129000A3
:1005300057120230D001D002D0037F087E00120B88
:10054000DD904322E0FFEF4408FF904322EFF0905C
:1005500046ECE0FFEFC394055006904689743AF0EC
:100560009048007431F012069090480074B1F01277
:100570000B3B7B007A4379A0C003C002C0017B0023
:100580007A4379B0900057120230D001D002D003E4
:100590007F0E7E00120BDD9043B0E0FFEF54FDFFB5
:1005A000EFF02275930078007583467582E8E04489
:1005B00001F0009046ECE0F99046FAE0FAB9032227
:1005C0005420B40012B8001AEA901FFFF074019092
:1005D0001FFEF09046F6F0901FFEE06005901FFFB2
:1005E000E0FA90480074C0F075810C90000078002B
:1005F0007920E4F0A3D8FCD9FAEA90004DF002008B
:1006000011750B1F750CFD120A0E12047102064BB8
:10061000020773E493A3F8E493A34003F68001F286
:1006200008DFF48029E493A3F85407240CC8C333EB
:10063000C4540F4420C8834004F456800146F6DFBA
:10064000E4800B0102040810204080900C41E47EFD
:10065000019360BCA3FF543F30E509541FFEE493AF
:10066000A360010ECF54C025E060A840B8E493A376
:10067000FAE493A3F8E493A3C8C582C8CAC583CAA1
:10068000F0A3C8C582C8CAC583CADFE9DEE780BE59
:100690009043007402F09040007408F0904200749F
:1006A00003F07B0C7A017908120CD19046A1EFF08F
:1006B0007B007A4279227D087C00120C9B7B007AB9
:1006C0004279207D517C12120C9B900056E4F07F01
:1006D000197E007D007C0090005212021B90005297
:1006E000120203D3EF9400EE9400404E900056E0C7
:1006F000FFEF64036044904225E0FFEF5401FF7E6A
:1007000000900056E0FEEE25E0FEEE4FFFEF5403B2
:10071000FF900056EFF07FE07E017D007C00120B21
:10072000009000521202037BFF7AFF79FF78FF12DC
:10073000005B90005212021B80A390005212020331
:10074000EF4E70057F03120AEC7B007A4079047D3E
:10075000007C01120C9B9040047407F0904006E46A
:10076000F09040087448F0904004E4F09040017428
:1007700002F0229000527401F0900053E4F0120C49
:10078000867BFF7A0C79E9120AA5900053E0FF906E
:100790000052E0FD1209697F00120CAA900052E09D
:1007A0002402F0900053E0FF900052E0FD1209692E
:1007B0007F01120CAA900052E02402F0900053E056
:1007C000FF900052E0FD1209697F02120CAA90000E
:1007D00052E02402F0900053E0FF900052E0FD123E
:1007E00009697F03120CAA900052E02402F09000E5
:1007F00053E0FF900052E0FD1209697F04120CAA39
:10080000900052E02402F07FC87E007D007C001240
:1008100008A87D097F011209697BFF7A0C79B8125B
:1008200009C080FE227F287E007D007C001208A87F
:100830007F03120A5C7F057E007D007C001208A801
:100840007F03120A5C7F0F7E007D007C001208A8E7
:100850007F03120A5C7F017E007D007C001208A8E5
:100860007F02120A5C7F057E007D007C001208A8D2
:100870007F06120BA77F0E120BA77F2C120BA77FF0
:1008800008120BA77F01120BA77F0C120BA77F0387
:10089000120BA77F057E007D007C001208A87BFF5D
:1008A0007A0C79E9120AA52290FFFC12026B12025F
:1008B0001B850B83850C82120203D3EF9400EE9408
:1008C00080402F90004E120203120B00850B83858F
:1008D0000C82C083C082120203EF2400FFEE34803A
:1008E000FEED34FFFDEC34FFFCD082D08312021BFE
:1008F00080BF900044120203850B83850C82120294
:100900000F120068120B0090000412026B2290007C
:100910005BEFF0905100E0FFEF4420FFEFF09051CB
:1009200000E0FFEF54BFFFEFF07F007E00120C14D9
:10093000905100E0FFEF54F0FFEFF0905100C083C2
:10094000C082E0FF90005BE0FEEE4410FEEF4EFF41
:10095000D082D083EFF07F017E00120C1490510002
:10096000E0FFEF54EFFFEFF022900054EFF0900023
:1009700055EDF0900054E0FFEF120245098C00099C
:10098000990109A60209B303000009BF900055E0D0
:10099000FFEF2480FF120BA722900055E0FFEF2409
:1009A000C0FF120BA722900055E0FFEF2494FF1226
:1009B0000BA722900055E0FFEF24D4FF120BA722D3
:1009C0009000541202309000577401F090005412BD
:1009D000022712001AFF900058EFF0900058E0FF35
:1009E000EF602A900058E0FF120B71900054120241
:1009F00027900057E0FFE92FF9E43AFA12001AFFB6
:100A0000900058EFF0900057E004F080CE22900064
:100A100052E4F0900052E0FFEFD3941F503D90005D
:100A200052E0FF7E02EF8EF0A4FFAEF0EF2400FF55
:100A3000EE3444FEAA06A9077B01C003C002C00130
:100A40007BFF7A0C7911AC02AD01D001D002D0034A
:100A5000120C9D900052E004F080B82290005AEFF2
:100A6000F0905100E0FFEF549FFFEFF0905100E055
:100A7000FFEF54F0FFEFF0905100C083C082E0FF21
:100A800090005AE0FEEE4410FEEF4EFFD082D0837D
:100A9000EFF07F017E00120C14905100E0FFEF5444
:100AA000EFFFEFF0229000541202301202FC7F4060
:100AB000120BA7900057E4F0900057E0FFEFC394AB
:100AC000405020900054120227900057E0FFE92F79
:100AD000F9E43AFA12001AFF120B71900057E00481
:100AE000F080D51202FC7F80120BA722900057EFF6
:0E0AF000F0900057E0FF900057EFF080FE22DC
:100B0000EC4D4E700D78FCEF24E950032840FD2297
:100B100000007BF178DA0000EF28FF78FFEE38FE66
:100B2000ED38FDEC38FC50E7EF2BFFEE38FEED38EA
:100B3000FDEC38FC40F222050203047B0C7A0179BB
:100B4000CF120CD1900052EFF0900052E0FFEF5422
:100B500007FF90586EEFF0900052E0FFEFC4540F83
:100B6000FFEF540FFF90586FEFF09058767444F0F9
:100B700022900059EFF01202FC900059E0FFEFC400
:100B8000540FFF90005AEFF090005AE0FF12090E48
:100B9000900059E0FFEF540FFF90005AEFF09000E3
:100BA0005AE0FF12090E22900058EFF01202FC905A
:100BB0000058E0FFEFC4540FFF900059EFF0900091
:100BC00059E0FF120A5C900058E0FFEF540FFF90CD
:100BD0000059EFF0900059E0FF120A5C2275860080
:100BE000EF4E6027EF60010E759300900057E0F51F
:100BF00095A3E0F585A3E0F5848B938A838982E051
:100C0000A30586F0A31586DFF6DEF4E4F593F595EB
:100C10002280FE32EEFA900048E0F88FF0A4FFAE9A
:100C2000F0E88AF0A42EFEE5F03400FDEF24C9FFC1
:100C300078FFEE38FEED38FDE438FC5003020B007F
:100C4000224100660041006500440049016E360003
:100C500044004400005DC04100481844004E2EE0AE
:100C600000004300600000004100670000EC4D60A0
:100C700011ED60010C8B938A838982E4F0A3DDFC83
:100C8000DCFA75930022900065E0FFEF700912080E
:100C9000259000657401F0120CC5228B938A83891C
:100CA00082EDF0A3ECF075930022900054EFF090E9
:100CB0000054E0FF120B7122D092D0B0D181D0B895
:100CC000D0BBD18C007F0C120BA79000667401F092
:100CD000228B938A838982E0759300FF228B938A0B
:100CE000838982EDF0759300221C161214181412D9
:100CF0001E040A0A111F111111040A111010190AF9
:100D00000419191515151313131E121212121212AB
:100D1000131010101E1212121C0000000000000020
:100D200000000000000000000000512000500051B1
:100D3000C000100051F0001001000010000114006C
:100D400008000140000A00014C00020001500000B0
:010D50002082
:00000001FF
