C51 COMPILER V9.51   MAIN                                                                  10/24/2019 10:04:15 PAGE 1   


C51 COMPILER V9.51, COMPILATION OF MODULE MAIN
OBJECT MODULE PLACED IN .\DP8051\DP8051_Keil_951\Debug\main.obj
COMPILER INVOKED BY: C:\Program Files\Cypress\PSoC Creator\4.2\PSoC Creator\import\keil\pk51\9.51\C51\BIN\c51.exe main.c
                    - NOIV LARGE MODDP2 OMF2 VB(1) NOIP INCDIR(.,Generated_Source\PSoC3) FF(3) DB DF(DEBUG) WL(2) PR(.\DP8051\DP8051_Keil_951
                    -\Debug/main.lst) CD OT(2,SIZE) OJ(.\DP8051\DP8051_Keil_951\Debug\main.obj)

line level    source

   1          /* ========================================
   2           *
   3           * Copyright YOUR COMPANY, THE YEAR
   4           * All Rights Reserved
   5           * UNPUBLISHED, LICENSED SOFTWARE.
   6           *
   7           * CONFIDENTIAL AND PROPRIETARY INFORMATION
   8           * WHICH IS THE PROPERTY OF your company.
   9           *
  10           * ========================================
  11          */
  12          #include "project.h"
  13          extern uint8 const CYCODE LCD_Khanas_customFonts[];
  14          int main(void)
  15          {
  16   1          uint8 pos = 1u;
  17   1          uint8 row = 0u;
  18   1          
  19   1          LCD_Khanas_Start();
  20   1          LCD_Khanas_LoadCustomFonts(LCD_Khanas_customFonts);
  21   1          
  22   1          LCD_Khanas_Position(row, pos);
  23   1          LCD_Khanas_PutChar(LCD_Khanas_CUSTOM_0);
  24   1          pos += 2u;
  25   1          
  26   1          LCD_Khanas_Position(row, pos);
  27   1          LCD_Khanas_PutChar(LCD_Khanas_CUSTOM_1);
  28   1          pos += 2u;
  29   1          
  30   1          LCD_Khanas_Position(row, pos);
  31   1          LCD_Khanas_PutChar(LCD_Khanas_CUSTOM_2);
  32   1          pos += 2u;
  33   1          
  34   1          LCD_Khanas_Position(row, pos);
  35   1          LCD_Khanas_PutChar(LCD_Khanas_CUSTOM_3);
  36   1          pos += 2u;
  37   1          
  38   1          LCD_Khanas_Position(row, pos);
  39   1          LCD_Khanas_PutChar(LCD_Khanas_CUSTOM_4);
  40   1          pos += 2u;
  41   1          
  42   1          CyDelay(200u);
  43   1          LCD_Khanas_Position(1u, 9u);
  44   1          LCD_Khanas_PrintString("Василь");
  45   1          
  46   1          //CyGlobalIntEnable; /* Enable global interrupts. */
  47   1          
  48   1          /* Place your initialization/startup code here (e.g. MyInst_Start()) */
  49   1      
  50   1          for(;;)
  51   1          {
  52   2              /* Place your application code here. */
  53   2          }
C51 COMPILER V9.51   MAIN                                                                  10/24/2019 10:04:15 PAGE 2   

  54   1      }
  55          
  56          /* [] END OF FILE */
C51 COMPILER V9.51   MAIN                                                                  10/24/2019 10:04:15 PAGE 3   

ASSEMBLY LISTING OF GENERATED OBJECT CODE


             ; FUNCTION main (BEGIN)
                                           ; SOURCE LINE # 14
                                           ; SOURCE LINE # 15
                                           ; SOURCE LINE # 16
0000 900000      R     MOV     DPTR,#pos
0003 7401              MOV     A,#01H
0005 F0                MOVX    @DPTR,A
                                           ; SOURCE LINE # 17
0006 900000      R     MOV     DPTR,#row
0009 E4                CLR     A
000A F0                MOVX    @DPTR,A
                                           ; SOURCE LINE # 19
000B 120000      E     LCALL   LCD_Khanas_Start
                                           ; SOURCE LINE # 20
000E 7BFF              MOV     R3,#0FFH
0010 7A00        E     MOV     R2,#HIGH LCD_Khanas_customFonts
0012 7900        E     MOV     R1,#LOW LCD_Khanas_customFonts
0014 120000      E     LCALL   _LCD_Khanas_LoadCustomFonts
                                           ; SOURCE LINE # 22
0017 900000      R     MOV     DPTR,#row
001A E0                MOVX    A,@DPTR
001B FF                MOV     R7,A
001C 900000      R     MOV     DPTR,#pos
001F E0                MOVX    A,@DPTR
0020 FD                MOV     R5,A
0021 120000      E     LCALL   _LCD_Khanas_Position
                                           ; SOURCE LINE # 23
0024 7F00              MOV     R7,#00H
0026 120000      E     LCALL   _LCD_Khanas_PutChar
                                           ; SOURCE LINE # 24
0029 900000      R     MOV     DPTR,#pos
002C E0                MOVX    A,@DPTR
002D 2402              ADD     A,#02H
002F F0                MOVX    @DPTR,A
                                           ; SOURCE LINE # 26
0030 900000      R     MOV     DPTR,#row
0033 E0                MOVX    A,@DPTR
0034 FF                MOV     R7,A
0035 900000      R     MOV     DPTR,#pos
0038 E0                MOVX    A,@DPTR
0039 FD                MOV     R5,A
003A 120000      E     LCALL   _LCD_Khanas_Position
                                           ; SOURCE LINE # 27
003D 7F01              MOV     R7,#01H
003F 120000      E     LCALL   _LCD_Khanas_PutChar
                                           ; SOURCE LINE # 28
0042 900000      R     MOV     DPTR,#pos
0045 E0                MOVX    A,@DPTR
0046 2402              ADD     A,#02H
0048 F0                MOVX    @DPTR,A
                                           ; SOURCE LINE # 30
0049 900000      R     MOV     DPTR,#row
004C E0                MOVX    A,@DPTR
004D FF                MOV     R7,A
004E 900000      R     MOV     DPTR,#pos
0051 E0                MOVX    A,@DPTR
0052 FD                MOV     R5,A
0053 120000      E     LCALL   _LCD_Khanas_Position
                                           ; SOURCE LINE # 31
C51 COMPILER V9.51   MAIN                                                                  10/24/2019 10:04:15 PAGE 4   

0056 7F02              MOV     R7,#02H
0058 120000      E     LCALL   _LCD_Khanas_PutChar
                                           ; SOURCE LINE # 32
005B 900000      R     MOV     DPTR,#pos
005E E0                MOVX    A,@DPTR
005F 2402              ADD     A,#02H
0061 F0                MOVX    @DPTR,A
                                           ; SOURCE LINE # 34
0062 900000      R     MOV     DPTR,#row
0065 E0                MOVX    A,@DPTR
0066 FF                MOV     R7,A
0067 900000      R     MOV     DPTR,#pos
006A E0                MOVX    A,@DPTR
006B FD                MOV     R5,A
006C 120000      E     LCALL   _LCD_Khanas_Position
                                           ; SOURCE LINE # 35
006F 7F03              MOV     R7,#03H
0071 120000      E     LCALL   _LCD_Khanas_PutChar
                                           ; SOURCE LINE # 36
0074 900000      R     MOV     DPTR,#pos
0077 E0                MOVX    A,@DPTR
0078 2402              ADD     A,#02H
007A F0                MOVX    @DPTR,A
                                           ; SOURCE LINE # 38
007B 900000      R     MOV     DPTR,#row
007E E0                MOVX    A,@DPTR
007F FF                MOV     R7,A
0080 900000      R     MOV     DPTR,#pos
0083 E0                MOVX    A,@DPTR
0084 FD                MOV     R5,A
0085 120000      E     LCALL   _LCD_Khanas_Position
                                           ; SOURCE LINE # 39
0088 7F04              MOV     R7,#04H
008A 120000      E     LCALL   _LCD_Khanas_PutChar
                                           ; SOURCE LINE # 40
008D 900000      R     MOV     DPTR,#pos
0090 E0                MOVX    A,@DPTR
0091 2402              ADD     A,#02H
0093 F0                MOVX    @DPTR,A
                                           ; SOURCE LINE # 42
0094 7FC8              MOV     R7,#0C8H
0096 7E00              MOV     R6,#00H
0098 7D00              MOV     R5,#00H
009A 7C00              MOV     R4,#00H
009C 120000      E     LCALL   _?CyDelay
                                           ; SOURCE LINE # 43
009F 7D09              MOV     R5,#09H
00A1 7F01              MOV     R7,#01H
00A3 120000      E     LCALL   _LCD_Khanas_Position
                                           ; SOURCE LINE # 44
00A6 7BFF              MOV     R3,#0FFH
00A8 7A00        R     MOV     R2,#HIGH ?SC_0
00AA 7900        R     MOV     R1,#LOW ?SC_0
00AC 120000      E     LCALL   _LCD_Khanas_PrintString
                                           ; SOURCE LINE # 50
00AF         ?C0001:
                                           ; SOURCE LINE # 51
                                           ; SOURCE LINE # 53
00AF 80FE              SJMP    ?C0001
00B1 22                RET     
             ; FUNCTION main (END)

C51 COMPILER V9.51   MAIN                                                                  10/24/2019 10:04:15 PAGE 5   



MODULE INFORMATION:   STATIC OVERLAYABLE
   CODE SIZE        =    178    ----
   CONSTANT SIZE    =     13    ----
   XDATA SIZE       =   ----       2
   PDATA SIZE       =   ----    ----
   DATA SIZE        =   ----    ----
   IDATA SIZE       =   ----    ----
   BIT SIZE         =   ----    ----
   EDATA SIZE       =   ----    ----
   HDATA SIZE       =   ----    ----
   XDATA CONST SIZE =   ----    ----
   FAR CONST SIZE   =   ----    ----
END OF MODULE INFORMATION.


C51 COMPILATION COMPLETE.  0 WARNING(S),  0 ERROR(S)
