C51 COMPILER V9.51   CYSPC                                                                 10/24/2019 10:21:10 PAGE 1   


C51 COMPILER V9.51, COMPILATION OF MODULE CYSPC
OBJECT MODULE PLACED IN .\DP8051\DP8051_Keil_951\Release\CySpc.obj
COMPILER INVOKED BY: C:\Program Files\Cypress\PSoC Creator\4.2\PSoC Creator\import\keil\pk51\9.51\C51\BIN\c51.exe Genera
                    -ted_Source\PSoC3\CySpc.c NOIV LARGE MODDP2 OMF2 VB(1) NOIP INCDIR(.,Generated_Source\PSoC3) FF(3) DB DF(NDEBUG) WL(2) PR
                    -(.\DP8051\DP8051_Keil_951\Release/CySpc.lst) CD OT(8,SIZE) OJ(.\DP8051\DP8051_Keil_951\Release\CySpc.obj)

line level    source

*** MESSAGE C286 IN LINE 0 OF (null): license limits optimization to level 5
   1          /***************************************************************************//**
   2          * \file CySpc.c
   3          * \version 5.70
   4          *
   5          * \brief Provides an API for the System Performance Component.
   6          * The SPC functions are not meant to be called directly by the user
   7          * application.
   8          *
   9          ********************************************************************************
  10          * \copyright
  11          * Copyright 2008-2018, Cypress Semiconductor Corporation.  All rights reserved.
  12          * You may use this file only in accordance with the license, terms, conditions,
  13          * disclaimers, and limitations in the end user license agreement accompanying
  14          * the software package with which this file was provided.
  15          *******************************************************************************/
  16          
  17          #include "CySpc.h"
  18          
  19          #define CY_SPC_KEY_ONE                      (0xB6u)
  20          #define CY_SPC_KEY_TWO(x)                   ((uint8) (((uint16) 0xD3u) + ((uint16) (x))))
  21          
  22          /* Command Codes */
  23          #define CY_SPC_CMD_LD_BYTE                  (0x00u)
  24          #define CY_SPC_CMD_LD_MULTI_BYTE            (0x01u)
  25          #define CY_SPC_CMD_LD_ROW                   (0x02u)
  26          #define CY_SPC_CMD_RD_BYTE                  (0x03u)
  27          #define CY_SPC_CMD_RD_MULTI_BYTE            (0x04u)
  28          #define CY_SPC_CMD_WR_ROW                   (0x05u)
  29          #define CY_SPC_CMD_WR_USER_NVL              (0x06u)
  30          #define CY_SPC_CMD_PRG_ROW                  (0x07u)
  31          #define CY_SPC_CMD_ER_SECTOR                (0x08u)
  32          #define CY_SPC_CMD_ER_ALL                   (0x09u)
  33          #define CY_SPC_CMD_RD_HIDDEN                (0x0Au)
  34          #define CY_SPC_CMD_PRG_PROTECT              (0x0Bu)
  35          #define CY_SPC_CMD_CHECKSUM                 (0x0Cu)
  36          #define CY_SPC_CMD_DWNLD_ALGORITHM          (0x0Du)
  37          #define CY_SPC_CMD_GET_TEMP                 (0x0Eu)
  38          #define CY_SPC_CMD_GET_ADC                  (0x0Fu)
  39          #define CY_SPC_CMD_RD_NVL_VOLATILE          (0x10u)
  40          #define CY_SPC_CMD_SETUP_TS                 (0x11u)
  41          #define CY_SPC_CMD_DISABLE_TS               (0x12u)
  42          #define CY_SPC_CMD_ER_ROW                   (0x13u)
  43          
  44          /* Enable bit in Active and Alternate Active mode templates */
  45          #define PM_SPC_PM_EN                        (0x08u)
  46          
  47          /* Gate calls to the SPC. */
  48          uint8 SpcLockState = CY_SPC_UNLOCKED;
  49          
  50          
  51          #if(CY_PSOC5)
              
C51 COMPILER V9.51   CYSPC                                                                 10/24/2019 10:21:10 PAGE 2   

                  /***************************************************************************
                  * The wait-state pipeline must be enabled prior to accessing the SPC
                  * register interface regardless of CPU frequency. The CySpcLock() saves
                  * current wait-state pipeline state and enables it. The CySpcUnlock()
                  * function, which must be called after SPC transaction, restores original
                  * state.
                  ***************************************************************************/
                  static uint32 spcWaitPipeBypass = 0u;
              
              #endif  /* (CY_PSOC5) */
  63          
  64          
  65          /*******************************************************************************
  66          * Function Name: CySpcStart
  67          ****************************************************************************//**
  68          *  Starts the SPC.
  69          *
  70          *******************************************************************************/
  71          void CySpcStart(void) 
  72          {
  73   1          /* Save current global interrupt enable and disable it */
  74   1          uint8 interruptState = CyEnterCriticalSection();
  75   1      
  76   1          CY_SPC_PM_ACT_REG  |= PM_SPC_PM_EN;
  77   1          CY_SPC_PM_STBY_REG |= PM_SPC_PM_EN;
  78   1      
  79   1          /* Restore global interrupt enable state */
  80   1          CyExitCriticalSection(interruptState);
  81   1      }
  82          
  83          
  84          /*******************************************************************************
  85          * Function Name: CySpcStop
  86          ****************************************************************************//**
  87          *  Stops the SPC.
  88          *
  89          *******************************************************************************/
  90          void CySpcStop(void) 
  91          {
  92   1          /* Save current global interrupt enable and disable it */
  93   1          uint8 interruptState = CyEnterCriticalSection();
  94   1      
  95   1          CY_SPC_PM_ACT_REG  &= ((uint8)(~PM_SPC_PM_EN));
  96   1          CY_SPC_PM_STBY_REG &= ((uint8)(~PM_SPC_PM_EN));
  97   1      
  98   1          /* Restore global interrupt enable state */
  99   1          CyExitCriticalSection(interruptState);
 100   1      }
 101          
 102          
 103          /*******************************************************************************
 104          * Function Name: CySpcReadData
 105          ****************************************************************************//**
 106          *  Reads data from the SPC.
 107          *
 108          *  \param uint8 buffer:
 109          *   Address to store data read.
 110          *
 111          *  \param uint8 size:
 112          *   Number of bytes to read from the SPC.
 113          *
 114          * \return
C51 COMPILER V9.51   CYSPC                                                                 10/24/2019 10:21:10 PAGE 3   

 115          *  uint8:
 116          *   The number of bytes read from the SPC.
 117          *
 118          *******************************************************************************/
 119          uint8 CySpcReadData(uint8 buffer[], uint8 size) 
 120          {
 121   1          uint8 i;
 122   1      
 123   1          for(i = 0u; i < size; i++)
 124   1          {
 125   2              while(!CY_SPC_DATA_READY)
 126   2              {
 127   3                  CyDelayUs(1u);
 128   3              }
 129   2              buffer[i] = CY_SPC_CPU_DATA_REG;
 130   2          }
 131   1      
 132   1          return(i);
 133   1      }
 134          
 135          
 136          /*******************************************************************************
 137          * Function Name: CySpcLoadMultiByte
 138          ****************************************************************************//**
 139          *  Loads 1 to 32 bytes of data into the row latch of a Flash/EEPROM array.
 140          *
 141          *  \param uint8 array:
 142          *   Id of the array.
 143          *
 144          *  \param uint16 address:
 145          *   Flash/eeprom addrress
 146          *
 147          *  \param uint8* buffer:
 148          *   Data to load to the row latch
 149          *
 150          *  \param uint16 number:
 151          *   Number bytes to load.
 152          *
 153          * \return
 154          *  CYRET_STARTED
 155          *  CYRET_CANCELED
 156          *  CYRET_LOCKED
 157          *  CYRET_BAD_PARAM
 158          *
 159          *******************************************************************************/
 160          cystatus CySpcLoadMultiByte(uint8 array, uint16 address, const uint8 buffer[], uint8 size)\
 161          
 162          {
 163   1          cystatus status = CYRET_STARTED;
 164   1          uint8 i;
 165   1      
 166   1          /***************************************************************************
 167   1          * Check if number is correct for array. Number must be less than
 168   1          * 32 for Flash or less than 16 for EEPROM.
 169   1          ***************************************************************************/
 170   1          if(((array < CY_SPC_LAST_FLASH_ARRAYID) && (size < 32u)) ||
 171   1             ((array > CY_SPC_LAST_FLASH_ARRAYID) && (size < 16u)))
 172   1          {
 173   2              if(CY_SPC_IDLE)
 174   2              {
 175   3                  CY_SPC_CPU_DATA_REG = CY_SPC_KEY_ONE;
 176   3                  CY_SPC_CPU_DATA_REG = CY_SPC_KEY_TWO(CY_SPC_CMD_LD_MULTI_BYTE);
C51 COMPILER V9.51   CYSPC                                                                 10/24/2019 10:21:10 PAGE 4   

 177   3                  CY_SPC_CPU_DATA_REG = CY_SPC_CMD_LD_MULTI_BYTE;
 178   3      
 179   3                  if(CY_SPC_BUSY)
 180   3                  {
 181   4                      CY_SPC_CPU_DATA_REG = array;
 182   4                      CY_SPC_CPU_DATA_REG = 1u & HI8(address);
 183   4                      CY_SPC_CPU_DATA_REG = LO8(address);
 184   4                      CY_SPC_CPU_DATA_REG = ((uint8)(size - 1u));
 185   4      
 186   4                      for(i = 0u; i < size; i++)
 187   4                      {
 188   5                          CY_SPC_CPU_DATA_REG = buffer[i];
 189   5                      }
 190   4                  }
 191   3                  else
 192   3                  {
 193   4                      status = CYRET_CANCELED;
 194   4                  }
 195   3              }
 196   2              else
 197   2              {
 198   3                  status = CYRET_LOCKED;
 199   3              }
 200   2          }
 201   1          else
 202   1          {
 203   2              status = CYRET_BAD_PARAM;
 204   2          }
 205   1      
 206   1          return(status);
 207   1      }
 208          
 209          
 210          /*******************************************************************************
 211          * Function Name: CySpcLoadRow
 212          ****************************************************************************//**
 213          *  Loads a row of data into the row latch of a Flash/EEPROM array.
 214          *
 215          *  The buffer pointer should point to the data that should be written to the
 216          *  flash row directly (no data in ECC/flash will be preserved). It is Flash API
 217          *  responsibility to prepare data: the preserved data are copied from flash into
 218          *  array with the modified data.
 219          *
 220          *  \param uint8 array:
 221          *   Id of the array.
 222          *
 223          *  \param uint8* buffer:
 224          *   Data to be loaded to the row latch
 225          *
 226          *  \param uint8 size:
 227          *   The number of data bytes that the SPC expects to be written. Depends on the
 228          *   type of the array and, if the array is Flash, whether ECC is being enabled
 229          *   or not. There are following values: flash row latch size with ECC enabled,
 230          *   flash row latch size with ECC disabled and EEPROM row latch size.
 231          *
 232          * \return
 233          *  CYRET_STARTED
 234          *  CYRET_CANCELED
 235          *  CYRET_LOCKED
 236          *
 237          *******************************************************************************/
 238          cystatus CySpcLoadRow(uint8 array, const uint8 buffer[], uint16 size)
C51 COMPILER V9.51   CYSPC                                                                 10/24/2019 10:21:10 PAGE 5   

 239          {
 240   1          cystatus status = CYRET_STARTED;
 241   1          uint16 i;
 242   1      
 243   1          /* Make sure the SPC is ready to accept command */
 244   1          if(CY_SPC_IDLE)
 245   1          {
 246   2              CY_SPC_CPU_DATA_REG = CY_SPC_KEY_ONE;
 247   2              CY_SPC_CPU_DATA_REG = CY_SPC_KEY_TWO(CY_SPC_CMD_LD_ROW);
 248   2              CY_SPC_CPU_DATA_REG = CY_SPC_CMD_LD_ROW;
 249   2      
 250   2              /* Make sure the command was accepted */
 251   2              if(CY_SPC_BUSY)
 252   2              {
 253   3                  CY_SPC_CPU_DATA_REG = array;
 254   3      
 255   3                  for(i = 0u; i < size; i++)
 256   3                  {
 257   4                      CY_SPC_CPU_DATA_REG = buffer[i];
 258   4                  }
 259   3              }
 260   2              else
 261   2              {
 262   3                  status = CYRET_CANCELED;
 263   3              }
 264   2          }
 265   1          else
 266   1          {
 267   2              status = CYRET_LOCKED;
 268   2          }
 269   1      
 270   1          return(status);
 271   1      }
 272          
 273          
 274          /*******************************************************************************
 275          * Function Name: CySpcLoadRowFull
 276          ****************************************************************************//**
 277          *  Loads a row of data into the row latch of a Flash/EEPROM array.
 278          *
 279          *  The only data that are going to be changed should be passed. The function
 280          *  will handle unmodified data preservation based on DWR settings and input
 281          *  parameters.
 282          *
 283          *  \param uint8 array:
 284          *   Id of the array.
 285          *
 286          *  \param uint16 row:
 287          *   Flash row number to be loaded.
 288          *
 289          *  \param uint8* buffer:
 290          *   Data to be loaded to the row latch
 291          *
 292          *  \param uint8 size:
 293          *   The number of data bytes that the SPC expects to be written. Depends on the
 294          *   type of the array and, if the array is Flash, whether ECC is being enabled
 295          *   or not. There are following values: flash row latch size with ECC enabled,
 296          *   flash row latch size with ECC disabled and EEPROM row latch size.
 297          *
 298          * \return
 299          *  CYRET_STARTED
 300          *  CYRET_CANCELED
C51 COMPILER V9.51   CYSPC                                                                 10/24/2019 10:21:10 PAGE 6   

 301          *  CYRET_LOCKED
 302          *
 303          *******************************************************************************/
 304          cystatus CySpcLoadRowFull(uint8 array, uint16 row, const uint8 buffer[], uint16 size)\
 305          
 306          {
 307   1          cystatus status = CYRET_STARTED;
 308   1          uint16 i;
 309   1      
 310   1          #if (CYDEV_ECC_ENABLE == 0)
 311   1              uint32 offset;
 312   1          #endif /* (CYDEV_ECC_ENABLE == 0) */
 313   1      
 314   1          /* Make sure the SPC is ready to accept command */
 315   1          if(CY_SPC_IDLE)
 316   1          {
 317   2              CY_SPC_CPU_DATA_REG = CY_SPC_KEY_ONE;
 318   2              CY_SPC_CPU_DATA_REG = CY_SPC_KEY_TWO(CY_SPC_CMD_LD_ROW);
 319   2              CY_SPC_CPU_DATA_REG = CY_SPC_CMD_LD_ROW;
 320   2      
 321   2              /* Make sure the command was accepted */
 322   2              if(CY_SPC_BUSY)
 323   2              {
 324   3                  CY_SPC_CPU_DATA_REG = array;
 325   3      
 326   3                  /*******************************************************************
 327   3                  * If "Enable Error Correcting Code (ECC)" and "Store Configuration
 328   3                  * Data in ECC" DWR options are disabled, ECC section is available
 329   3                  * for user data.
 330   3                  *******************************************************************/
 331   3                  #if ((CYDEV_ECC_ENABLE == 0u) && (CYDEV_CONFIGURATION_ECC == 0u))
              
                              /*******************************************************************
                              * If size parameter equals size of the ECC row and selected array
                              * identification corresponds to the flash array (but not to EEPROM
                              * array) then data are going to be written to the ECC section.
                              * In this case flash data must be preserved. The flash data copied
                              * from flash data section to the SPC data register.
                              *******************************************************************/
                              if ((size == CYDEV_ECC_ROW_SIZE) && (array <= CY_SPC_LAST_FLASH_ARRAYID))
                              {
                                  offset = CYDEV_FLS_BASE +
                                           ((uint32) array * CYDEV_FLS_SECTOR_SIZE) +
                                           ((uint32)   row * CYDEV_FLS_ROW_SIZE   );
              
                                  for (i = 0u; i < CYDEV_FLS_ROW_SIZE; i++)
                                  {
                                      CY_SPC_CPU_DATA_REG = CY_GET_XTND_REG8((void CYFAR *)(offset + i));
                                  }
                              }
              
                          #endif /* ((CYDEV_ECC_ENABLE == 0u) && (CYDEV_CONFIGURATION_ECC == 0u)) */
 353   3      
 354   3      
 355   3                  for(i = 0u; i < size; i++)
 356   3                  {
 357   4                      CY_SPC_CPU_DATA_REG = buffer[i];
 358   4                  }
 359   3      
 360   3      
 361   3                  /*******************************************************************
 362   3                  * If "Enable Error Correcting Code (ECC)" DWR option is disabled,
C51 COMPILER V9.51   CYSPC                                                                 10/24/2019 10:21:10 PAGE 7   

 363   3                  * ECC section can be used for storing device configuration data
 364   3                  * ("Store Configuration Data in ECC" DWR option is enabled) or for
 365   3                  * storing user data in the ECC section ("Store Configuration Data in
 366   3                  * ECC" DWR option is enabled). In both cases, the data in the ECC
 367   3                  * section must be preserved if flash data is written.
 368   3                  *******************************************************************/
 369   3                  #if (CYDEV_ECC_ENABLE == 0)
 370   3      
 371   3      
 372   3                      /*******************************************************************
 373   3                      * If size parameter equals size of the flash row and selected array
 374   3                      * identification corresponds to the flash array (but not to EEPROM
 375   3                      * array) then data are going to be written to the flash data
 376   3                      * section. In this case, ECC section data must be preserved.
 377   3                      * The ECC section data copied from ECC section to the SPC data
 378   3                      * register.
 379   3                      *******************************************************************/
 380   3                      if ((size == CYDEV_FLS_ROW_SIZE) && (array <= CY_SPC_LAST_FLASH_ARRAYID))
 381   3                      {
 382   4                          offset = CYDEV_ECC_BASE +
 383   4                                  ((uint32) array * CYDEV_ECC_SECTOR_SIZE) +
 384   4                                  ((uint32) row   * CYDEV_ECC_ROW_SIZE   );
 385   4      
 386   4                          for (i = 0u; i < CYDEV_ECC_ROW_SIZE; i++)
 387   4                          {
 388   5                              CY_SPC_CPU_DATA_REG = CY_GET_XTND_REG8((void CYFAR *)(offset + i));
 389   5                          }
 390   4                      }
 391   3      
 392   3                  #else
              
                              if(0u != row)
                              {
                                  /* To remove unreferenced local variable warning */
                              }
              
                          #endif /* (CYDEV_ECC_ENABLE == 0) */
 400   3              }
 401   2              else
 402   2              {
 403   3                  status = CYRET_CANCELED;
 404   3              }
 405   2          }
 406   1          else
 407   1          {
 408   2              status = CYRET_LOCKED;
 409   2          }
 410   1      
 411   1          return(status);
 412   1      }
 413          
 414          
 415          /*******************************************************************************
 416          * Function Name: CySpcWriteRow
 417          ****************************************************************************//**
 418          *  Erases then programs a row in Flash/EEPROM with data in row latch.
 419          *
 420          *  \param uint8 array:
 421          *   Id of the array.
 422          *
 423          *  \param uint16 address:
 424          *   flash/eeprom addrress
C51 COMPILER V9.51   CYSPC                                                                 10/24/2019 10:21:10 PAGE 8   

 425          *
 426          *  \param uint8 tempPolarity:
 427          *   temperature polarity.
 428          *   \param 1: the Temp Magnitude is interpreted as a positive value
 429          *   \param 0: the Temp Magnitude is interpreted as a negative value
 430          *
 431          *  \param uint8 tempMagnitude:
 432          *   temperature magnitude.
 433          *
 434          * \return
 435          *  CYRET_STARTED
 436          *  CYRET_CANCELED
 437          *  CYRET_LOCKED
 438          *
 439          *******************************************************************************/
 440          cystatus CySpcWriteRow(uint8 array, uint16 address, uint8 tempPolarity, uint8 tempMagnitude)\
 441          
 442          {
 443   1          cystatus status = CYRET_STARTED;
 444   1      
 445   1          /* Make sure the SPC is ready to accept command */
 446   1          if(CY_SPC_IDLE)
 447   1          {
 448   2              CY_SPC_CPU_DATA_REG = CY_SPC_KEY_ONE;
 449   2              CY_SPC_CPU_DATA_REG = CY_SPC_KEY_TWO(CY_SPC_CMD_WR_ROW);
 450   2              CY_SPC_CPU_DATA_REG = CY_SPC_CMD_WR_ROW;
 451   2      
 452   2              /* Make sure the command was accepted */
 453   2              if(CY_SPC_BUSY)
 454   2              {
 455   3                  CY_SPC_CPU_DATA_REG = array;
 456   3                  CY_SPC_CPU_DATA_REG = HI8(address);
 457   3                  CY_SPC_CPU_DATA_REG = LO8(address);
 458   3                  CY_SPC_CPU_DATA_REG = tempPolarity;
 459   3                  CY_SPC_CPU_DATA_REG = tempMagnitude;
 460   3              }
 461   2              else
 462   2              {
 463   3                  status = CYRET_CANCELED;
 464   3              }
 465   2          }
 466   1          else
 467   1          {
 468   2              status = CYRET_LOCKED;
 469   2          }
 470   1      
 471   1          return(status);
 472   1      }
 473          
 474          
 475          /*******************************************************************************
 476          * Function Name: CySpcEraseSector
 477          ****************************************************************************//**
 478          *  Erases all data in the addressed sector (block of 64 rows).
 479          *
 480          *  \param uint8 array:
 481          *   Id of the array.
 482          *
 483          *  \param uint8 sectorNumber:
 484          *   Zero based sector number within Flash/EEPROM array
 485          *
 486          * \return
C51 COMPILER V9.51   CYSPC                                                                 10/24/2019 10:21:10 PAGE 9   

 487          *  CYRET_STARTED
 488          *  CYRET_CANCELED
 489          *  CYRET_LOCKED
 490          *
 491          *******************************************************************************/
 492          cystatus CySpcEraseSector(uint8 array, uint8 sectorNumber)
 493          {
 494   1          cystatus status = CYRET_STARTED;
 495   1      
 496   1          /* Make sure the SPC is ready to accept command */
 497   1          if(CY_SPC_IDLE)
 498   1          {
 499   2              CY_SPC_CPU_DATA_REG = CY_SPC_KEY_ONE;
 500   2              CY_SPC_CPU_DATA_REG = CY_SPC_KEY_TWO(CY_SPC_CMD_ER_SECTOR);
 501   2              CY_SPC_CPU_DATA_REG = CY_SPC_CMD_ER_SECTOR;
 502   2      
 503   2              /* Make sure the command was accepted */
 504   2              if(CY_SPC_BUSY)
 505   2              {
 506   3                  CY_SPC_CPU_DATA_REG = array;
 507   3                  CY_SPC_CPU_DATA_REG = sectorNumber;
 508   3              }
 509   2              else
 510   2              {
 511   3                  status = CYRET_CANCELED;
 512   3              }
 513   2          }
 514   1          else
 515   1          {
 516   2              status = CYRET_LOCKED;
 517   2          }
 518   1      
 519   1          return(status);
 520   1      }
 521          
 522          
 523          /*******************************************************************************
 524          * Function Name: CySpcEraseRow
 525          ****************************************************************************//**
 526          *  Erases a row in Flash.
 527          *
 528          *  \param uint8 array:
 529          *   Id of the array.
 530          *
 531          *  \param uint16 address:
 532          *   Flash address
 533          *
 534          *  \param uint8 tempPolarity:
 535          *   temperature polarity.
 536          *   \param 1: the Temp Magnitude is interpreted as a positive value
 537          *   \param 0: the Temp Magnitude is interpreted as a negative value
 538          *
 539          *  \param uint8 tempMagnitude:
 540          *   temperature magnitude.
 541          *
 542          * \return
 543          *  CYRET_STARTED
 544          *  CYRET_CANCELED
 545          *  CYRET_LOCKED
 546          *
 547          *******************************************************************************/
 548          cystatus CySpcEraseRow(uint8 array, uint16 address, uint8 tempPolarity, uint8 tempMagnitude)\
C51 COMPILER V9.51   CYSPC                                                                 10/24/2019 10:21:10 PAGE 10  

 549          
 550          {
 551   1          cystatus status = CYRET_STARTED;
 552   1      
 553   1          /* Make sure the SPC is ready to accept command */
 554   1          if(CY_SPC_IDLE)
 555   1          {
 556   2              CY_SPC_CPU_DATA_REG = CY_SPC_KEY_ONE;
 557   2              CY_SPC_CPU_DATA_REG = CY_SPC_KEY_TWO(CY_SPC_CMD_ER_ROW);
 558   2              CY_SPC_CPU_DATA_REG = CY_SPC_CMD_ER_ROW;
 559   2      
 560   2              /* Make sure the command was accepted */
 561   2              if(CY_SPC_BUSY)
 562   2              {
 563   3                  CY_SPC_CPU_DATA_REG = array;
 564   3                  CY_SPC_CPU_DATA_REG = HI8(address);
 565   3                  CY_SPC_CPU_DATA_REG = LO8(address);
 566   3                  CY_SPC_CPU_DATA_REG = tempPolarity;
 567   3                  CY_SPC_CPU_DATA_REG = tempMagnitude;
 568   3              }
 569   2              else
 570   2              {
 571   3                  status = CYRET_CANCELED;
 572   3              }
 573   2          }
 574   1          else
 575   1          {
 576   2              status = CYRET_LOCKED;
 577   2          }
 578   1      
 579   1          return(status);
 580   1      }
 581          
 582          
 583          /*******************************************************************************
 584          * Function Name: CySpcGetTemp
 585          ****************************************************************************//**
 586          *  Returns the internal die temperature
 587          *
 588          *  \param uint8 numSamples:
 589          *   Number of samples. Valid values are 1-5, resulting in 2 - 32 samples
 590          *   respectively.
 591          *
 592          * \param uint16 timerPeriod:
 593          *   Number of ADC ACLK cycles. A valid 14 bit value is accepted, higher 2 bits
 594          *   of 16 bit values are ignored.
 595          *
 596          * \param uint8 clkDivSelect:
 597          *   ADC ACLK clock divide value. Valid values are 2 - 225.
 598          *
 599          * \return
 600          *  CYRET_STARTED
 601          *  CYRET_CANCELED
 602          *  CYRET_LOCKED
 603          *
 604          *******************************************************************************/
 605          cystatus CySpcGetTemp(uint8 numSamples)
 606          {
 607   1          cystatus status = CYRET_STARTED;
 608   1      
 609   1          /* Make sure the SPC is ready to accept command */
 610   1          if(CY_SPC_IDLE)
C51 COMPILER V9.51   CYSPC                                                                 10/24/2019 10:21:10 PAGE 11  

 611   1          {
 612   2              CY_SPC_CPU_DATA_REG = CY_SPC_KEY_ONE;
 613   2              CY_SPC_CPU_DATA_REG = CY_SPC_KEY_TWO(CY_SPC_CMD_GET_TEMP);
 614   2              CY_SPC_CPU_DATA_REG = CY_SPC_CMD_GET_TEMP;
 615   2      
 616   2              /* Make sure the command was accepted */
 617   2              if(CY_SPC_BUSY)
 618   2              {
 619   3                  CY_SPC_CPU_DATA_REG = numSamples;
 620   3              }
 621   2              else
 622   2              {
 623   3                  status = CYRET_CANCELED;
 624   3              }
 625   2          }
 626   1          else
 627   1          {
 628   2              status = CYRET_LOCKED;
 629   2          }
 630   1      
 631   1          return(status);
 632   1      }
 633          
 634          
 635          /*******************************************************************************
 636          * Function Name: CySpcLock
 637          ****************************************************************************//**
 638          *  Locks the SPC so it can not be used by someone else:
 639          *   - Saves wait-pipeline enable state and enable pipeline (PSoC5)
 640          *
 641          * \return
 642          *  CYRET_SUCCESS - if the resource was free.
 643          *  CYRET_LOCKED  - if the SPC is in use.
 644          *
 645          *******************************************************************************/
 646          cystatus CySpcLock(void)
 647          {
 648   1          cystatus status = CYRET_LOCKED;
 649   1          uint8 interruptState;
 650   1      
 651   1          /* Enter critical section */
 652   1          interruptState = CyEnterCriticalSection();
 653   1      
 654   1          if(CY_SPC_UNLOCKED == SpcLockState)
 655   1          {
 656   2              SpcLockState = CY_SPC_LOCKED;
 657   2              status = CYRET_SUCCESS;
 658   2      
 659   2              #if(CY_PSOC5)
              
                          if(0u != (CY_SPC_CPU_WAITPIPE_REG & CY_SPC_CPU_WAITPIPE_BYPASS))
                          {
                              /* Enable pipeline registers */
                              CY_SPC_CPU_WAITPIPE_REG &= ((uint32)(~CY_SPC_CPU_WAITPIPE_BYPASS));
              
                              /* At least 2 NOP instructions are recommended */
                              CY_NOP;
                              CY_NOP;
                              CY_NOP;
              
                              spcWaitPipeBypass = CY_SPC_CPU_WAITPIPE_BYPASS;
                          }
C51 COMPILER V9.51   CYSPC                                                                 10/24/2019 10:21:10 PAGE 12  

              
                      #endif  /* (CY_PSOC5) */
 675   2          }
 676   1      
 677   1          /* Exit critical section */
 678   1          CyExitCriticalSection(interruptState);
 679   1      
 680   1          return(status);
 681   1      }
 682          
 683          
 684          /*******************************************************************************
 685          * Function Name: CySpcUnlock
 686          ****************************************************************************//**
 687          *  Unlocks the SPC so it can be used by someone else:
 688          *   - Restores wait-pipeline enable state (PSoC5)
 689          *
 690          *******************************************************************************/
 691          void CySpcUnlock(void)
 692          {
 693   1          uint8 interruptState;
 694   1      
 695   1          /* Enter critical section */
 696   1          interruptState = CyEnterCriticalSection();
 697   1      
 698   1          /* Release the SPC object */
 699   1          SpcLockState = CY_SPC_UNLOCKED;
 700   1      
 701   1          #if(CY_PSOC5)
              
                      if(CY_SPC_CPU_WAITPIPE_BYPASS == spcWaitPipeBypass)
                      {
                          /* Force to bypass pipeline registers */
                          CY_SPC_CPU_WAITPIPE_REG |= CY_SPC_CPU_WAITPIPE_BYPASS;
              
                          /* At least 2 NOP instructions are recommended */
                          CY_NOP;
                          CY_NOP;
                          CY_NOP;
              
                          spcWaitPipeBypass = 0u;
                      }
              
                  #endif  /* (CY_PSOC5) */
 717   1      
 718   1          /* Exit critical section */
 719   1          CyExitCriticalSection(interruptState);
 720   1      }
 721          
 722          
 723          /*******************************************************************************
 724          * Function Name: CySpcGetAlgorithm
 725          ****************************************************************************//**
 726          *  Downloads SPC algorithm from SPC SROM into SRAM.
 727          *
 728          * \return
 729          *  CYRET_STARTED
 730          *  CYRET_LOCKED
 731          *
 732          *******************************************************************************/
 733          cystatus CySpcGetAlgorithm(void)
 734          {
C51 COMPILER V9.51   CYSPC                                                                 10/24/2019 10:21:10 PAGE 13  

 735   1          cystatus status = CYRET_STARTED;
 736   1      
 737   1          /* Make sure the SPC is ready to accept command */
 738   1          if(CY_SPC_IDLE)
 739   1          {
 740   2              CY_SPC_CPU_DATA_REG = CY_SPC_KEY_ONE;
 741   2              CY_SPC_CPU_DATA_REG = CY_SPC_KEY_TWO(CY_SPC_CMD_DWNLD_ALGORITHM);
 742   2              CY_SPC_CPU_DATA_REG = CY_SPC_CMD_DWNLD_ALGORITHM;
 743   2          }
 744   1          else
 745   1          {
 746   2              status = CYRET_LOCKED;
 747   2          }
 748   1      
 749   1          return(status);
 750   1      }
 751          
 752          /* [] END OF FILE */
 753          
C51 COMPILER V9.51   CYSPC                                                                 10/24/2019 10:21:10 PAGE 14  

ASSEMBLY LISTING OF GENERATED OBJECT CODE


             ; FUNCTION CySpcStart (BEGIN)
                                           ; SOURCE LINE # 71
                                           ; SOURCE LINE # 72
                                           ; SOURCE LINE # 74
0000 120000      E     LCALL   CyEnterCriticalSection
;---- Variable 'interruptState' assigned to Register 'R7' ----
                                           ; SOURCE LINE # 76
0003 9043A0            MOV     DPTR,#043A0H
0006 E0                MOVX    A,@DPTR
0007 4408              ORL     A,#08H
0009 F0                MOVX    @DPTR,A
                                           ; SOURCE LINE # 77
000A 9043B0            MOV     DPTR,#043B0H
000D E0                MOVX    A,@DPTR
000E 4408              ORL     A,#08H
0010 F0                MOVX    @DPTR,A
                                           ; SOURCE LINE # 80
0011 120000      E     LCALL   _CyExitCriticalSection
                                           ; SOURCE LINE # 81
0014 22                RET     
             ; FUNCTION CySpcStart (END)

             ; FUNCTION CySpcStop (BEGIN)
                                           ; SOURCE LINE # 90
                                           ; SOURCE LINE # 91
                                           ; SOURCE LINE # 93
0000 120000      E     LCALL   CyEnterCriticalSection
;---- Variable 'interruptState' assigned to Register 'R7' ----
                                           ; SOURCE LINE # 95
0003 9043A0            MOV     DPTR,#043A0H
0006 E0                MOVX    A,@DPTR
0007 54F7              ANL     A,#0F7H
0009 F0                MOVX    @DPTR,A
                                           ; SOURCE LINE # 96
000A 9043B0            MOV     DPTR,#043B0H
000D E0                MOVX    A,@DPTR
000E 54F7              ANL     A,#0F7H
0010 F0                MOVX    @DPTR,A
                                           ; SOURCE LINE # 99
0011 120000      E     LCALL   _CyExitCriticalSection
                                           ; SOURCE LINE # 100
0014 22                RET     
             ; FUNCTION CySpcStop (END)

             ; FUNCTION _CySpcReadData (BEGIN)
                                           ; SOURCE LINE # 119
0000 900000      R     MOV     DPTR,#buffer
0003 120000      E     LCALL   ?C?PSTXDATA
0006 900000      R     MOV     DPTR,#size
0009 ED                MOV     A,R5
000A F0                MOVX    @DPTR,A
                                           ; SOURCE LINE # 120
                                           ; SOURCE LINE # 123
000B E4                CLR     A
000C A3                INC     DPTR
000D F0                MOVX    @DPTR,A
000E         ?C0003:
000E 900000      R     MOV     DPTR,#size
0011 E0                MOVX    A,@DPTR
C51 COMPILER V9.51   CYSPC                                                                 10/24/2019 10:21:10 PAGE 15  

0012 FF                MOV     R7,A
0013 A3                INC     DPTR
0014 E0                MOVX    A,@DPTR
0015 C3                CLR     C
0016 9F                SUBB    A,R7
0017 5037              JNC     ?C0004
                                           ; SOURCE LINE # 124
0019         ?C0006:
                                           ; SOURCE LINE # 125
0019 904722            MOV     DPTR,#04722H
001C E0                MOVX    A,@DPTR
001D 5401              ANL     A,#01H
001F 6003              JZ      ?C0008
0021 D3                SETB    C
0022 8001              SJMP    ?C0009
0024         ?C0008:
0024 C3                CLR     C
0025         ?C0009:
0025 4009              JC      ?C0007
                                           ; SOURCE LINE # 126
                                           ; SOURCE LINE # 127
0027 7F01              MOV     R7,#01H
0029 7E00              MOV     R6,#00H
002B 120000      E     LCALL   _CyDelayUs
                                           ; SOURCE LINE # 128
002E 80E9              SJMP    ?C0006
0030         ?C0007:
                                           ; SOURCE LINE # 129
0030 904720            MOV     DPTR,#04720H
0033 E0                MOVX    A,@DPTR
0034 FF                MOV     R7,A
0035 900000      R     MOV     DPTR,#buffer
0038 120000      E     LCALL   ?C?PLDXDATA
003B 900000      R     MOV     DPTR,#i
003E E0                MOVX    A,@DPTR
003F 29                ADD     A,R1
0040 F9                MOV     R1,A
0041 E4                CLR     A
0042 3A                ADDC    A,R2
0043 FA                MOV     R2,A
0044 EF                MOV     A,R7
0045 120000      E     LCALL   ?C?CSTPTR
                                           ; SOURCE LINE # 130
0048 900000      R     MOV     DPTR,#i
004B E0                MOVX    A,@DPTR
004C 04                INC     A
004D F0                MOVX    @DPTR,A
004E 80BE              SJMP    ?C0003
0050         ?C0004:
                                           ; SOURCE LINE # 132
0050 900000      R     MOV     DPTR,#i
0053 E0                MOVX    A,@DPTR
0054 FF                MOV     R7,A
                                           ; SOURCE LINE # 133
0055         ?C0010:
0055 22                RET     
             ; FUNCTION _CySpcReadData (END)

             ; FUNCTION _CySpcLoadMultiByte (BEGIN)
                                           ; SOURCE LINE # 160
0000 900000      R     MOV     DPTR,#address
0003 EC                MOV     A,R4
C51 COMPILER V9.51   CYSPC                                                                 10/24/2019 10:21:10 PAGE 16  

0004 F0                MOVX    @DPTR,A
0005 A3                INC     DPTR
0006 ED                MOV     A,R5
0007 F0                MOVX    @DPTR,A
0008 A3                INC     DPTR
0009 120000      E     LCALL   ?C?PSTXDATA
000C 900000      R     MOV     DPTR,#array
000F EF                MOV     A,R7
0010 F0                MOVX    @DPTR,A
                                           ; SOURCE LINE # 162
                                           ; SOURCE LINE # 163
;---- Variable 'status' assigned to Register 'R5' ----
0011 7D07              MOV     R5,#07H
                                           ; SOURCE LINE # 170
0013 C3                CLR     C
0014 943F              SUBB    A,#03FH
0016 5009              JNC     ?C0013
0018 900000      R     MOV     DPTR,#size
001B E0                MOVX    A,@DPTR
001C C3                CLR     C
001D 9420              SUBB    A,#020H
001F 4011              JC      ?C0012
0021         ?C0013:
0021 900000      R     MOV     DPTR,#array
0024 E0                MOVX    A,@DPTR
0025 D3                SETB    C
0026 943F              SUBB    A,#03FH
0028 4070              JC      ?C0011
002A 900000      R     MOV     DPTR,#size
002D E0                MOVX    A,@DPTR
002E 9410              SUBB    A,#010H
0030 5068              JNC     ?C0011
0032         ?C0012:
                                           ; SOURCE LINE # 172
                                           ; SOURCE LINE # 173
0032 904722            MOV     DPTR,#04722H
0035 E0                MOVX    A,@DPTR
0036 5402              ANL     A,#02H
0038 605C              JZ      ?C0014
                                           ; SOURCE LINE # 174
                                           ; SOURCE LINE # 175
003A 904720            MOV     DPTR,#04720H
003D 74B6              MOV     A,#0B6H
003F F0                MOVX    @DPTR,A
                                           ; SOURCE LINE # 176
0040 74D4              MOV     A,#0D4H
0042 F0                MOVX    @DPTR,A
                                           ; SOURCE LINE # 177
0043 7401              MOV     A,#01H
0045 F0                MOVX    @DPTR,A
                                           ; SOURCE LINE # 179
0046 904722            MOV     DPTR,#04722H
0049 E0                MOVX    A,@DPTR
004A 5402              ANL     A,#02H
004C 7044              JNZ     ?C0015
                                           ; SOURCE LINE # 180
                                           ; SOURCE LINE # 181
004E 900000      R     MOV     DPTR,#array
0051 E0                MOVX    A,@DPTR
0052 904720            MOV     DPTR,#04720H
0055 F0                MOVX    @DPTR,A
                                           ; SOURCE LINE # 182
C51 COMPILER V9.51   CYSPC                                                                 10/24/2019 10:21:10 PAGE 17  

0056 900000      R     MOV     DPTR,#address
0059 E0                MOVX    A,@DPTR
005A FA                MOV     R2,A
005B A3                INC     DPTR
005C E0                MOVX    A,@DPTR
005D FB                MOV     R3,A
005E EA                MOV     A,R2
005F 5401              ANL     A,#01H
0061 904720            MOV     DPTR,#04720H
0064 F0                MOVX    @DPTR,A
                                           ; SOURCE LINE # 183
0065 EB                MOV     A,R3
0066 F0                MOVX    @DPTR,A
                                           ; SOURCE LINE # 184
0067 900000      R     MOV     DPTR,#size
006A E0                MOVX    A,@DPTR
006B 14                DEC     A
006C 904720            MOV     DPTR,#04720H
006F F0                MOVX    @DPTR,A
                                           ; SOURCE LINE # 186
;---- Variable 'i' assigned to Register 'R7' ----
0070 E4                CLR     A
0071 FF                MOV     R7,A
0072         ?C0016:
0072 900000      R     MOV     DPTR,#size
0075 E0                MOVX    A,@DPTR
0076 FE                MOV     R6,A
0077 EF                MOV     A,R7
0078 C3                CLR     C
0079 9E                SUBB    A,R6
007A 5020              JNC     ?C0021
                                           ; SOURCE LINE # 187
                                           ; SOURCE LINE # 188
007C 900000      R     MOV     DPTR,#buffer
007F 120000      E     LCALL   ?C?PLDXDATA
0082 E9                MOV     A,R1
0083 2F                ADD     A,R7
0084 F9                MOV     R1,A
0085 E4                CLR     A
0086 3A                ADDC    A,R2
0087 FA                MOV     R2,A
0088 120000      E     LCALL   ?C?CLDPTR
008B 904720            MOV     DPTR,#04720H
008E F0                MOVX    @DPTR,A
                                           ; SOURCE LINE # 189
008F 0F                INC     R7
0090 80E0              SJMP    ?C0016
                                           ; SOURCE LINE # 190
0092         ?C0015:
                                           ; SOURCE LINE # 192
                                           ; SOURCE LINE # 193
0092 7D09              MOV     R5,#09H
                                           ; SOURCE LINE # 194
                                           ; SOURCE LINE # 195
0094 8006              SJMP    ?C0021
0096         ?C0014:
                                           ; SOURCE LINE # 197
                                           ; SOURCE LINE # 198
0096 7D04              MOV     R5,#04H
                                           ; SOURCE LINE # 199
                                           ; SOURCE LINE # 200
0098 8002              SJMP    ?C0021
C51 COMPILER V9.51   CYSPC                                                                 10/24/2019 10:21:10 PAGE 18  

009A         ?C0011:
                                           ; SOURCE LINE # 202
                                           ; SOURCE LINE # 203
009A 7D01              MOV     R5,#01H
                                           ; SOURCE LINE # 204
009C         ?C0021:
                                           ; SOURCE LINE # 206
009C AF05              MOV     R7,AR5
                                           ; SOURCE LINE # 207
009E         ?C0022:
009E 22                RET     
             ; FUNCTION _CySpcLoadMultiByte (END)

             ; FUNCTION _CySpcLoadRow (BEGIN)
                                           ; SOURCE LINE # 238
0000 900000      R     MOV     DPTR,#buffer
0003 120000      E     LCALL   ?C?PSTXDATA
;---- Variable 'array' assigned to Register 'R7' ----
                                           ; SOURCE LINE # 239
                                           ; SOURCE LINE # 240
0006 900000      R     MOV     DPTR,#status
0009 7407              MOV     A,#07H
000B F0                MOVX    @DPTR,A
                                           ; SOURCE LINE # 244
000C 904722            MOV     DPTR,#04722H
000F E0                MOVX    A,@DPTR
0010 5402              ANL     A,#02H
0012 604B              JZ      ?C0023
                                           ; SOURCE LINE # 245
                                           ; SOURCE LINE # 246
0014 904720            MOV     DPTR,#04720H
0017 74B6              MOV     A,#0B6H
0019 F0                MOVX    @DPTR,A
                                           ; SOURCE LINE # 247
001A 74D5              MOV     A,#0D5H
001C F0                MOVX    @DPTR,A
                                           ; SOURCE LINE # 248
001D 7402              MOV     A,#02H
001F F0                MOVX    @DPTR,A
                                           ; SOURCE LINE # 251
0020 904722            MOV     DPTR,#04722H
0023 E0                MOVX    A,@DPTR
0024 5402              ANL     A,#02H
0026 702F              JNZ     ?C0024
                                           ; SOURCE LINE # 252
                                           ; SOURCE LINE # 253
0028 904720            MOV     DPTR,#04720H
002B EF                MOV     A,R7
002C F0                MOVX    @DPTR,A
                                           ; SOURCE LINE # 255
;---- Variable 'i' assigned to Register 'R6/R7' ----
002D E4                CLR     A
002E FF                MOV     R7,A
002F FE                MOV     R6,A
0030         ?C0025:
0030 D3                SETB    C
0031 900000      R     MOV     DPTR,#size+01H
0034 E0                MOVX    A,@DPTR
0035 9F                SUBB    A,R7
0036 900000      R     MOV     DPTR,#size
0039 E0                MOVX    A,@DPTR
003A 9E                SUBB    A,R6
C51 COMPILER V9.51   CYSPC                                                                 10/24/2019 10:21:10 PAGE 19  

003B 4028              JC      ?C0029
                                           ; SOURCE LINE # 256
                                           ; SOURCE LINE # 257
003D 900000      R     MOV     DPTR,#buffer
0040 120000      E     LCALL   ?C?PLDXDATA
0043 E9                MOV     A,R1
0044 2F                ADD     A,R7
0045 F9                MOV     R1,A
0046 EA                MOV     A,R2
0047 3E                ADDC    A,R6
0048 FA                MOV     R2,A
0049 120000      E     LCALL   ?C?CLDPTR
004C 904720            MOV     DPTR,#04720H
004F F0                MOVX    @DPTR,A
                                           ; SOURCE LINE # 258
0050 0F                INC     R7
0051 EF                MOV     A,R7
0052 7001              JNZ     ?C0069
0054 0E                INC     R6
0055         ?C0069:
0055 80D9              SJMP    ?C0025
                                           ; SOURCE LINE # 259
0057         ?C0024:
                                           ; SOURCE LINE # 261
                                           ; SOURCE LINE # 262
0057 900000      R     MOV     DPTR,#status
005A 7409              MOV     A,#09H
005C F0                MOVX    @DPTR,A
                                           ; SOURCE LINE # 263
                                           ; SOURCE LINE # 264
005D 8006              SJMP    ?C0029
005F         ?C0023:
                                           ; SOURCE LINE # 266
                                           ; SOURCE LINE # 267
005F 900000      R     MOV     DPTR,#status
0062 7404              MOV     A,#04H
0064 F0                MOVX    @DPTR,A
                                           ; SOURCE LINE # 268
0065         ?C0029:
                                           ; SOURCE LINE # 270
0065 900000      R     MOV     DPTR,#status
0068 E0                MOVX    A,@DPTR
0069 FF                MOV     R7,A
                                           ; SOURCE LINE # 271
006A         ?C0030:
006A 22                RET     
             ; FUNCTION _CySpcLoadRow (END)

             ; FUNCTION _CySpcLoadRowFull (BEGIN)
                                           ; SOURCE LINE # 304
0000 900000      R     MOV     DPTR,#array
0003 EF                MOV     A,R7
0004 F0                MOVX    @DPTR,A
0005 A3                INC     DPTR
0006 EC                MOV     A,R4
0007 F0                MOVX    @DPTR,A
0008 A3                INC     DPTR
0009 ED                MOV     A,R5
000A F0                MOVX    @DPTR,A
000B A3                INC     DPTR
000C 120000      E     LCALL   ?C?PSTXDATA
                                           ; SOURCE LINE # 306
C51 COMPILER V9.51   CYSPC                                                                 10/24/2019 10:21:10 PAGE 20  

                                           ; SOURCE LINE # 307
000F 900000      R     MOV     DPTR,#status
0012 7407              MOV     A,#07H
0014 F0                MOVX    @DPTR,A
                                           ; SOURCE LINE # 315
0015 904722            MOV     DPTR,#04722H
0018 E0                MOVX    A,@DPTR
0019 5402              ANL     A,#02H
001B 7003              JNZ     $ + 5H
001D 020000      R     LJMP    ?C0031
                                           ; SOURCE LINE # 316
                                           ; SOURCE LINE # 317
0020 904720            MOV     DPTR,#04720H
0023 74B6              MOV     A,#0B6H
0025 F0                MOVX    @DPTR,A
                                           ; SOURCE LINE # 318
0026 74D5              MOV     A,#0D5H
0028 F0                MOVX    @DPTR,A
                                           ; SOURCE LINE # 319
0029 7402              MOV     A,#02H
002B F0                MOVX    @DPTR,A
                                           ; SOURCE LINE # 322
002C 904722            MOV     DPTR,#04722H
002F E0                MOVX    A,@DPTR
0030 5402              ANL     A,#02H
0032 6003              JZ      $ + 5H
0034 020000      R     LJMP    ?C0032
                                           ; SOURCE LINE # 323
                                           ; SOURCE LINE # 324
0037 900000      R     MOV     DPTR,#array
003A E0                MOVX    A,@DPTR
003B 904720            MOV     DPTR,#04720H
003E F0                MOVX    @DPTR,A
                                           ; SOURCE LINE # 355
003F E4                CLR     A
0040 900000      R     MOV     DPTR,#i
0043 F0                MOVX    @DPTR,A
0044 A3                INC     DPTR
0045 F0                MOVX    @DPTR,A
0046         ?C0033:
0046 900000      R     MOV     DPTR,#size
0049 E0                MOVX    A,@DPTR
004A FE                MOV     R6,A
004B A3                INC     DPTR
004C E0                MOVX    A,@DPTR
004D FF                MOV     R7,A
004E 900000      R     MOV     DPTR,#i
0051 E0                MOVX    A,@DPTR
0052 FC                MOV     R4,A
0053 A3                INC     DPTR
0054 E0                MOVX    A,@DPTR
0055 FD                MOV     R5,A
0056 C3                CLR     C
0057 9F                SUBB    A,R7
0058 EC                MOV     A,R4
0059 9E                SUBB    A,R6
005A 501F              JNC     ?C0034
                                           ; SOURCE LINE # 356
                                           ; SOURCE LINE # 357
005C 900000      R     MOV     DPTR,#buffer
005F 120000      E     LCALL   ?C?PLDXDATA
0062 E9                MOV     A,R1
C51 COMPILER V9.51   CYSPC                                                                 10/24/2019 10:21:10 PAGE 21  

0063 2D                ADD     A,R5
0064 F9                MOV     R1,A
0065 EA                MOV     A,R2
0066 3C                ADDC    A,R4
0067 FA                MOV     R2,A
0068 120000      E     LCALL   ?C?CLDPTR
006B 904720            MOV     DPTR,#04720H
006E F0                MOVX    @DPTR,A
                                           ; SOURCE LINE # 358
006F 900000      R     MOV     DPTR,#i
0072 E4                CLR     A
0073 75F001            MOV     B,#01H
0076 120000      E     LCALL   ?C?IILDX
0079 80CB              SJMP    ?C0033
007B         ?C0034:
                                           ; SOURCE LINE # 380
007B 900000      R     MOV     DPTR,#size
007E E0                MOVX    A,@DPTR
007F 6401              XRL     A,#01H
0081 7002              JNZ     ?C0070
0083 A3                INC     DPTR
0084 E0                MOVX    A,@DPTR
0085         ?C0070:
0085 6003              JZ      $ + 5H
0087 020000      R     LJMP    ?C0041
008A 900000      R     MOV     DPTR,#array
008D E0                MOVX    A,@DPTR
008E FF                MOV     R7,A
008F D3                SETB    C
0090 943F              SUBB    A,#03FH
0092 4003              JC      $ + 5H
0094 020000      R     LJMP    ?C0041
                                           ; SOURCE LINE # 381
                                           ; SOURCE LINE # 384
0097 7E00              MOV     R6,#00H
0099 7C20              MOV     R4,#020H
009B 7D00              MOV     R5,#00H
009D 120000      E     LCALL   ?C?LIMUL
00A0 E4                CLR     A
00A1 2F                ADD     A,R7
00A2 FF                MOV     R7,A
00A3 E4                CLR     A
00A4 3E                ADDC    A,R6
00A5 FE                MOV     R6,A
00A6 ED                MOV     A,R5
00A7 3408              ADDC    A,#08H
00A9 FD                MOV     R5,A
00AA E4                CLR     A
00AB 3C                ADDC    A,R4
00AC FC                MOV     R4,A
00AD C004              PUSH    AR4
00AF A905              MOV     R1,AR5
00B1 AA06              MOV     R2,AR6
00B3 AB07              MOV     R3,AR7
00B5 A3                INC     DPTR
00B6 E0                MOVX    A,@DPTR
00B7 FE                MOV     R6,A
00B8 A3                INC     DPTR
00B9 E0                MOVX    A,@DPTR
00BA FF                MOV     R7,A
00BB 7C00              MOV     R4,#00H
00BD 7D20              MOV     R5,#020H
C51 COMPILER V9.51   CYSPC                                                                 10/24/2019 10:21:10 PAGE 22  

00BF 120000      E     LCALL   ?C?LIMUL
00C2 D000              POP     AR0
00C4 120000      E     LCALL   ?C?LADD
00C7 900000      R     MOV     DPTR,#offset
00CA 120000      E     LCALL   ?C?LSTXDATA
                                           ; SOURCE LINE # 386
00CD E4                CLR     A
00CE 900000      R     MOV     DPTR,#i
00D1 F0                MOVX    @DPTR,A
00D2 A3                INC     DPTR
00D3 F0                MOVX    @DPTR,A
00D4         ?C0037:
00D4 900000      R     MOV     DPTR,#i
00D7 E0                MOVX    A,@DPTR
00D8 FE                MOV     R6,A
00D9 A3                INC     DPTR
00DA E0                MOVX    A,@DPTR
00DB FF                MOV     R7,A
00DC C3                CLR     C
00DD 9420              SUBB    A,#020H
00DF EE                MOV     A,R6
00E0 9400              SUBB    A,#00H
00E2 5032              JNC     ?C0041
                                           ; SOURCE LINE # 387
                                           ; SOURCE LINE # 388
00E4 E4                CLR     A
00E5 FC                MOV     R4,A
00E6 FD                MOV     R5,A
00E7 A3                INC     DPTR
00E8 120000      E     LCALL   ?C?LLDXDATA0
00EB 120000      E     LCALL   ?C?LADD
00EE A907              MOV     R1,AR7
00F0 AA06              MOV     R2,AR6
00F2 AB05              MOV     R3,AR5
00F4 120000      E     LCALL   _cyread8
00F7 904720            MOV     DPTR,#04720H
00FA EF                MOV     A,R7
00FB F0                MOVX    @DPTR,A
                                           ; SOURCE LINE # 389
00FC 900000      R     MOV     DPTR,#i
00FF E4                CLR     A
0100 75F001            MOV     B,#01H
0103 120000      E     LCALL   ?C?IILDX
0106 80CC              SJMP    ?C0037
                                           ; SOURCE LINE # 390
                                           ; SOURCE LINE # 400
0108         ?C0032:
                                           ; SOURCE LINE # 402
                                           ; SOURCE LINE # 403
0108 900000      R     MOV     DPTR,#status
010B 7409              MOV     A,#09H
010D F0                MOVX    @DPTR,A
                                           ; SOURCE LINE # 404
                                           ; SOURCE LINE # 405
010E 8006              SJMP    ?C0041
0110         ?C0031:
                                           ; SOURCE LINE # 407
                                           ; SOURCE LINE # 408
0110 900000      R     MOV     DPTR,#status
0113 7404              MOV     A,#04H
0115 F0                MOVX    @DPTR,A
                                           ; SOURCE LINE # 409
C51 COMPILER V9.51   CYSPC                                                                 10/24/2019 10:21:10 PAGE 23  

0116         ?C0041:
                                           ; SOURCE LINE # 411
0116 900000      R     MOV     DPTR,#status
0119 E0                MOVX    A,@DPTR
011A FF                MOV     R7,A
                                           ; SOURCE LINE # 412
011B         ?C0042:
011B 22                RET     
             ; FUNCTION _CySpcLoadRowFull (END)

             ; FUNCTION _CySpcWriteRow (BEGIN)
                                           ; SOURCE LINE # 440
0000 900000      R     MOV     DPTR,#address
0003 EC                MOV     A,R4
0004 F0                MOVX    @DPTR,A
0005 A3                INC     DPTR
0006 ED                MOV     A,R5
0007 F0                MOVX    @DPTR,A
;---- Variable 'array' assigned to Register 'R4' ----
0008 AC07              MOV     R4,AR7
;---- Variable 'tempPolarity' assigned to Register 'R3' ----
                                           ; SOURCE LINE # 442
                                           ; SOURCE LINE # 443
;---- Variable 'status' assigned to Register 'R5' ----
000A 7D07              MOV     R5,#07H
                                           ; SOURCE LINE # 446
000C 904722            MOV     DPTR,#04722H
000F E0                MOVX    A,@DPTR
0010 5402              ANL     A,#02H
0012 603B              JZ      ?C0043
                                           ; SOURCE LINE # 447
                                           ; SOURCE LINE # 448
0014 904720            MOV     DPTR,#04720H
0017 74B6              MOV     A,#0B6H
0019 F0                MOVX    @DPTR,A
                                           ; SOURCE LINE # 449
001A 74D8              MOV     A,#0D8H
001C F0                MOVX    @DPTR,A
                                           ; SOURCE LINE # 450
001D 7405              MOV     A,#05H
001F F0                MOVX    @DPTR,A
                                           ; SOURCE LINE # 453
0020 904722            MOV     DPTR,#04722H
0023 E0                MOVX    A,@DPTR
0024 5402              ANL     A,#02H
0026 7023              JNZ     ?C0044
                                           ; SOURCE LINE # 454
                                           ; SOURCE LINE # 455
0028 904720            MOV     DPTR,#04720H
002B EC                MOV     A,R4
002C F0                MOVX    @DPTR,A
                                           ; SOURCE LINE # 456
002D 900000      R     MOV     DPTR,#address
0030 E0                MOVX    A,@DPTR
0031 904720            MOV     DPTR,#04720H
0034 F0                MOVX    @DPTR,A
                                           ; SOURCE LINE # 457
0035 900000      R     MOV     DPTR,#address
0038 E0                MOVX    A,@DPTR
0039 A3                INC     DPTR
003A E0                MOVX    A,@DPTR
003B 904720            MOV     DPTR,#04720H
C51 COMPILER V9.51   CYSPC                                                                 10/24/2019 10:21:10 PAGE 24  

003E F0                MOVX    @DPTR,A
                                           ; SOURCE LINE # 458
003F EB                MOV     A,R3
0040 F0                MOVX    @DPTR,A
                                           ; SOURCE LINE # 459
0041 900000      R     MOV     DPTR,#tempMagnitude
0044 E0                MOVX    A,@DPTR
0045 904720            MOV     DPTR,#04720H
0048 F0                MOVX    @DPTR,A
                                           ; SOURCE LINE # 460
0049 8006              SJMP    ?C0046
004B         ?C0044:
                                           ; SOURCE LINE # 462
                                           ; SOURCE LINE # 463
004B 7D09              MOV     R5,#09H
                                           ; SOURCE LINE # 464
                                           ; SOURCE LINE # 465
004D 8002              SJMP    ?C0046
004F         ?C0043:
                                           ; SOURCE LINE # 467
                                           ; SOURCE LINE # 468
004F 7D04              MOV     R5,#04H
                                           ; SOURCE LINE # 469
0051         ?C0046:
                                           ; SOURCE LINE # 471
0051 AF05              MOV     R7,AR5
                                           ; SOURCE LINE # 472
0053         ?C0047:
0053 22                RET     
             ; FUNCTION _CySpcWriteRow (END)

             ; FUNCTION _CySpcEraseSector (BEGIN)
                                           ; SOURCE LINE # 492
;---- Variable 'sectorNumber' assigned to Register 'R5' ----
;---- Variable 'array' assigned to Register 'R7' ----
                                           ; SOURCE LINE # 493
                                           ; SOURCE LINE # 494
;---- Variable 'status' assigned to Register 'R6' ----
0000 7E07              MOV     R6,#07H
                                           ; SOURCE LINE # 497
0002 904722            MOV     DPTR,#04722H
0005 E0                MOVX    A,@DPTR
0006 5402              ANL     A,#02H
0008 6021              JZ      ?C0048
                                           ; SOURCE LINE # 498
                                           ; SOURCE LINE # 499
000A 904720            MOV     DPTR,#04720H
000D 74B6              MOV     A,#0B6H
000F F0                MOVX    @DPTR,A
                                           ; SOURCE LINE # 500
0010 74DB              MOV     A,#0DBH
0012 F0                MOVX    @DPTR,A
                                           ; SOURCE LINE # 501
0013 7408              MOV     A,#08H
0015 F0                MOVX    @DPTR,A
                                           ; SOURCE LINE # 504
0016 904722            MOV     DPTR,#04722H
0019 E0                MOVX    A,@DPTR
001A 5402              ANL     A,#02H
001C 7009              JNZ     ?C0049
                                           ; SOURCE LINE # 505
                                           ; SOURCE LINE # 506
C51 COMPILER V9.51   CYSPC                                                                 10/24/2019 10:21:10 PAGE 25  

001E 904720            MOV     DPTR,#04720H
0021 EF                MOV     A,R7
0022 F0                MOVX    @DPTR,A
                                           ; SOURCE LINE # 507
0023 ED                MOV     A,R5
0024 F0                MOVX    @DPTR,A
                                           ; SOURCE LINE # 508
0025 8006              SJMP    ?C0051
0027         ?C0049:
                                           ; SOURCE LINE # 510
                                           ; SOURCE LINE # 511
0027 7E09              MOV     R6,#09H
                                           ; SOURCE LINE # 512
                                           ; SOURCE LINE # 513
0029 8002              SJMP    ?C0051
002B         ?C0048:
                                           ; SOURCE LINE # 515
                                           ; SOURCE LINE # 516
002B 7E04              MOV     R6,#04H
                                           ; SOURCE LINE # 517
002D         ?C0051:
                                           ; SOURCE LINE # 519
002D AF06              MOV     R7,AR6
                                           ; SOURCE LINE # 520
002F         ?C0052:
002F 22                RET     
             ; FUNCTION _CySpcEraseSector (END)

             ; FUNCTION _CySpcEraseRow (BEGIN)
                                           ; SOURCE LINE # 548
0000 900000      R     MOV     DPTR,#address
0003 EC                MOV     A,R4
0004 F0                MOVX    @DPTR,A
0005 A3                INC     DPTR
0006 ED                MOV     A,R5
0007 F0                MOVX    @DPTR,A
;---- Variable 'array' assigned to Register 'R4' ----
0008 AC07              MOV     R4,AR7
;---- Variable 'tempPolarity' assigned to Register 'R3' ----
                                           ; SOURCE LINE # 550
                                           ; SOURCE LINE # 551
;---- Variable 'status' assigned to Register 'R5' ----
000A 7D07              MOV     R5,#07H
                                           ; SOURCE LINE # 554
000C 904722            MOV     DPTR,#04722H
000F E0                MOVX    A,@DPTR
0010 5402              ANL     A,#02H
0012 603B              JZ      ?C0053
                                           ; SOURCE LINE # 555
                                           ; SOURCE LINE # 556
0014 904720            MOV     DPTR,#04720H
0017 74B6              MOV     A,#0B6H
0019 F0                MOVX    @DPTR,A
                                           ; SOURCE LINE # 557
001A 74E6              MOV     A,#0E6H
001C F0                MOVX    @DPTR,A
                                           ; SOURCE LINE # 558
001D 7413              MOV     A,#013H
001F F0                MOVX    @DPTR,A
                                           ; SOURCE LINE # 561
0020 904722            MOV     DPTR,#04722H
0023 E0                MOVX    A,@DPTR
C51 COMPILER V9.51   CYSPC                                                                 10/24/2019 10:21:10 PAGE 26  

0024 5402              ANL     A,#02H
0026 7023              JNZ     ?C0054
                                           ; SOURCE LINE # 562
                                           ; SOURCE LINE # 563
0028 904720            MOV     DPTR,#04720H
002B EC                MOV     A,R4
002C F0                MOVX    @DPTR,A
                                           ; SOURCE LINE # 564
002D 900000      R     MOV     DPTR,#address
0030 E0                MOVX    A,@DPTR
0031 904720            MOV     DPTR,#04720H
0034 F0                MOVX    @DPTR,A
                                           ; SOURCE LINE # 565
0035 900000      R     MOV     DPTR,#address
0038 E0                MOVX    A,@DPTR
0039 A3                INC     DPTR
003A E0                MOVX    A,@DPTR
003B 904720            MOV     DPTR,#04720H
003E F0                MOVX    @DPTR,A
                                           ; SOURCE LINE # 566
003F EB                MOV     A,R3
0040 F0                MOVX    @DPTR,A
                                           ; SOURCE LINE # 567
0041 900000      R     MOV     DPTR,#tempMagnitude
0044 E0                MOVX    A,@DPTR
0045 904720            MOV     DPTR,#04720H
0048 F0                MOVX    @DPTR,A
                                           ; SOURCE LINE # 568
0049 8006              SJMP    ?C0056
004B         ?C0054:
                                           ; SOURCE LINE # 570
                                           ; SOURCE LINE # 571
004B 7D09              MOV     R5,#09H
                                           ; SOURCE LINE # 572
                                           ; SOURCE LINE # 573
004D 8002              SJMP    ?C0056
004F         ?C0053:
                                           ; SOURCE LINE # 575
                                           ; SOURCE LINE # 576
004F 7D04              MOV     R5,#04H
                                           ; SOURCE LINE # 577
0051         ?C0056:
                                           ; SOURCE LINE # 579
0051 AF05              MOV     R7,AR5
                                           ; SOURCE LINE # 580
0053         ?C0057:
0053 22                RET     
             ; FUNCTION _CySpcEraseRow (END)

             ; FUNCTION _CySpcGetTemp (BEGIN)
                                           ; SOURCE LINE # 605
;---- Variable 'numSamples' assigned to Register 'R7' ----
                                           ; SOURCE LINE # 606
                                           ; SOURCE LINE # 607
;---- Variable 'status' assigned to Register 'R6' ----
0000 7E07              MOV     R6,#07H
                                           ; SOURCE LINE # 610
0002 904722            MOV     DPTR,#04722H
0005 E0                MOVX    A,@DPTR
0006 5402              ANL     A,#02H
0008 601F              JZ      ?C0058
                                           ; SOURCE LINE # 611
C51 COMPILER V9.51   CYSPC                                                                 10/24/2019 10:21:10 PAGE 27  

                                           ; SOURCE LINE # 612
000A 904720            MOV     DPTR,#04720H
000D 74B6              MOV     A,#0B6H
000F F0                MOVX    @DPTR,A
                                           ; SOURCE LINE # 613
0010 74E1              MOV     A,#0E1H
0012 F0                MOVX    @DPTR,A
                                           ; SOURCE LINE # 614
0013 740E              MOV     A,#0EH
0015 F0                MOVX    @DPTR,A
                                           ; SOURCE LINE # 617
0016 904722            MOV     DPTR,#04722H
0019 E0                MOVX    A,@DPTR
001A 5402              ANL     A,#02H
001C 7007              JNZ     ?C0059
                                           ; SOURCE LINE # 618
                                           ; SOURCE LINE # 619
001E 904720            MOV     DPTR,#04720H
0021 EF                MOV     A,R7
0022 F0                MOVX    @DPTR,A
                                           ; SOURCE LINE # 620
0023 8006              SJMP    ?C0061
0025         ?C0059:
                                           ; SOURCE LINE # 622
                                           ; SOURCE LINE # 623
0025 7E09              MOV     R6,#09H
                                           ; SOURCE LINE # 624
                                           ; SOURCE LINE # 625
0027 8002              SJMP    ?C0061
0029         ?C0058:
                                           ; SOURCE LINE # 627
                                           ; SOURCE LINE # 628
0029 7E04              MOV     R6,#04H
                                           ; SOURCE LINE # 629
002B         ?C0061:
                                           ; SOURCE LINE # 631
002B AF06              MOV     R7,AR6
                                           ; SOURCE LINE # 632
002D         ?C0062:
002D 22                RET     
             ; FUNCTION _CySpcGetTemp (END)

             ; FUNCTION CySpcLock (BEGIN)
                                           ; SOURCE LINE # 646
                                           ; SOURCE LINE # 647
                                           ; SOURCE LINE # 648
0000 900000      R     MOV     DPTR,#status
0003 7404              MOV     A,#04H
0005 F0                MOVX    @DPTR,A
                                           ; SOURCE LINE # 652
0006 120000      E     LCALL   CyEnterCriticalSection
;---- Variable 'interruptState' assigned to Register 'R7' ----
                                           ; SOURCE LINE # 654
0009 900000      R     MOV     DPTR,#SpcLockState
000C E0                MOVX    A,@DPTR
000D 7007              JNZ     ?C0063
                                           ; SOURCE LINE # 655
                                           ; SOURCE LINE # 656
000F 04                INC     A
0010 F0                MOVX    @DPTR,A
                                           ; SOURCE LINE # 657
0011 E4                CLR     A
C51 COMPILER V9.51   CYSPC                                                                 10/24/2019 10:21:10 PAGE 28  

0012 900000      R     MOV     DPTR,#status
0015 F0                MOVX    @DPTR,A
                                           ; SOURCE LINE # 675
0016         ?C0063:
                                           ; SOURCE LINE # 678
0016 120000      E     LCALL   _CyExitCriticalSection
                                           ; SOURCE LINE # 680
0019 900000      R     MOV     DPTR,#status
001C E0                MOVX    A,@DPTR
001D FF                MOV     R7,A
                                           ; SOURCE LINE # 681
001E         ?C0064:
001E 22                RET     
             ; FUNCTION CySpcLock (END)

             ; FUNCTION CySpcUnlock (BEGIN)
                                           ; SOURCE LINE # 691
                                           ; SOURCE LINE # 692
                                           ; SOURCE LINE # 696
0000 120000      E     LCALL   CyEnterCriticalSection
;---- Variable 'interruptState' assigned to Register 'R7' ----
                                           ; SOURCE LINE # 699
0003 E4                CLR     A
0004 900000      R     MOV     DPTR,#SpcLockState
0007 F0                MOVX    @DPTR,A
                                           ; SOURCE LINE # 719
0008 120000      E     LCALL   _CyExitCriticalSection
                                           ; SOURCE LINE # 720
000B 22                RET     
             ; FUNCTION CySpcUnlock (END)

             ; FUNCTION CySpcGetAlgorithm (BEGIN)
                                           ; SOURCE LINE # 733
                                           ; SOURCE LINE # 734
                                           ; SOURCE LINE # 735
;---- Variable 'status' assigned to Register 'R7' ----
0000 7F07              MOV     R7,#07H
                                           ; SOURCE LINE # 738
0002 904722            MOV     DPTR,#04722H
0005 E0                MOVX    A,@DPTR
0006 5402              ANL     A,#02H
0008 600E              JZ      ?C0066
                                           ; SOURCE LINE # 739
                                           ; SOURCE LINE # 740
000A 904720            MOV     DPTR,#04720H
000D 74B6              MOV     A,#0B6H
000F F0                MOVX    @DPTR,A
                                           ; SOURCE LINE # 741
0010 74E0              MOV     A,#0E0H
0012 F0                MOVX    @DPTR,A
                                           ; SOURCE LINE # 742
0013 740D              MOV     A,#0DH
0015 F0                MOVX    @DPTR,A
                                           ; SOURCE LINE # 743
0016 8002              SJMP    ?C0067
0018         ?C0066:
                                           ; SOURCE LINE # 745
                                           ; SOURCE LINE # 746
0018 7F04              MOV     R7,#04H
                                           ; SOURCE LINE # 747
001A         ?C0067:
                                           ; SOURCE LINE # 749
C51 COMPILER V9.51   CYSPC                                                                 10/24/2019 10:21:10 PAGE 29  

                                           ; SOURCE LINE # 750
001A         ?C0068:
001A 22                RET     
             ; FUNCTION CySpcGetAlgorithm (END)



MODULE INFORMATION:   STATIC OVERLAYABLE
   CODE SIZE        =   1010    ----
   CONSTANT SIZE    =   ----    ----
   XDATA SIZE       =      1      45
   PDATA SIZE       =   ----    ----
   DATA SIZE        =   ----    ----
   IDATA SIZE       =   ----    ----
   BIT SIZE         =   ----    ----
   EDATA SIZE       =   ----    ----
   HDATA SIZE       =   ----    ----
   XDATA CONST SIZE =   ----    ----
   FAR CONST SIZE   =   ----    ----
END OF MODULE INFORMATION.


C51 COMPILATION COMPLETE.  0 WARNING(S),  0 ERROR(S)
