:400000000204FB008F828E83E0540100000070F82278FFE4F6D8FD020559BB010689828A83E0225002E722BBFE02E32289828A83E49322BB010689828A83F0225002F72259
:40004000BBFE01F322C5F0F8A3E028F0C5F0F8E582158270021583E038F022EF2BFFEE3AFEED39FDEC38FC22E88FF0A4CC8BF0A42CFCE98EF0A42CFC8AF0EDA42CFCEA8EEA
:40008000F0A4CDA8F08BF0A42DCC3825F0FDE98FF0A42CCD35F0FCEB8EF0A4FEA9F0EB8FF0A4CFC5F02ECD39FEE43CFCEAA42DCE35F0FDE43CFC2275F008758200EF2FFFD1
:4000C000EE33FECD33CDCC33CCC58233C5829BED9AEC99E58298400CF582EE9BFEED9AFDEC99FC0FD5F0D6E4CEFBE4CDFAE4CCF9A88222B800C1B90059BA002DEC8BF0843F
:40010000CFCECDFCE5F0CBF97818EF2FFFEE33FEED33FDEC33FCEB33FB10D703994004EB99FB0FD8E5E4F9FA227818EF2FFFEE33FEED33FDEC33FCC933C910D7059BE99AC5
:400140004007EC9BFCE99AF90FD8E0E4C9FAE4CCFB2275F010EF2FFFEE33FEED33FDCC33CCC833C810D7079BEC9AE899400AED9BFDEC9AFCE899F80FD5F0DAE4CDFBE4CC3E
:40018000FAE4C8F922EF4BFFEE4AFEED49FDEC48FC22EB9FF5F0EA9E42F0E99D42F0E89C45F022E8600FECC313FCED13FDEE13FEEF13FFD8F122E8600FEFC333FFEE33FE77
:4001C000ED33FDEC33FCD8F122BB010789828A830202035005E9F80202BCBBFE05E9F80202C889828A830202D4BB010789828A8302021B5005E9F80202E4BBFE05E9F802F0
:4002000002F022E0FCA3E0FDA3E0FEA3E0FF22E0F8A3E0F9A3E0FAA3E0FB22ECF0A3EDF0A3EEF0A3EFF022E0FBA3E0FAA3E0F922EBF0A3EAF0A3E9F022E493FB740193FAD7
:40024000740293F922D083D082F8E4937012740193700DA3A393F8740193F5828883E4737402936860EFA3A3A380DFE50C2582F582E50B3583F583B50B0485820C2210AF9E
:400280000685820CF50B2285820CF50BD2AF22EC8EF0A4CCC5F0CCCDF8EFA4CEC5F02DFDE43CFCE8A42EC8C5F03DFDE43CFCEFA4FFE5F028FEE43DFDE43CFC22E6FC08E68B
:4002C000FD08E6FE08E6FF22E2FC08E2FD08E2FE08E2FF22E493FC740193FD740293FE740393FF22ECF608EDF608EEF608EFF622ECF208EDF208EEF208EFF2227B007A46E9
:4003000079E8120AEFEF4405FD7B007A4679E8120AFBE4F50AE50AC39409502CE50A75F005A4244EF582E4340BAF82F5088F09F5831202398F82850883740393FC740493F5
:40034000FD1209E5050A80CD7B017A507903120AEFEF4402FD7B017A507903120AFB7B017A507913120AEFEF4402FD7B017A507913120AFB7B087A007900C003C002C00198
:400380007B007A517912900048120230D001D002D0037F087E001209257B087A007908C003C002C0017B007A517922900048120230D001D002D0037F087E00120925904346
:4003C00022E04408F09046ECE0C394055006904689743AF09048007431F01206BC90480074B1F0120AA47B007A4379A0C00179B0900048120230D0017F0E7E00120925907D
:4004000043B0E054FDF022E47F947E01FDFC90004F12021B905120E05480F0905122E054F090004EF0E0440F905122F0A3E054F090004EF0E0905123F0A3E054F090004E3B
:40044000F0E0905124F0905120E054DFF0E04440F0E4FFFE12098C905120E04410F07F017E0012098C905121E090004EF0905120E054EFF0E4FFFE12098C90004EE05408A7
:40048000F0905120E04410F07F017E0012098C905120E054EFF090004EE070067F0AFE12098C90004F12020374FFFBFAF9F812005B90004F12021B90004EE0600DA3120260
:4004C00003D3EF9400EE94005087905120E054BFF0E05480F0905122E054F0F0A3E054F090004EF0E0440F905123F0A3E054F090004EF0E0440F905124F022759300780090
:400500007583467582E8E04401F0009046ECE0F99046FAE0FAB903225420B40012B8001AEA901FFFF07401901FFEF09046F6F0901FFEE06005901FFFE0FA90480074C0F08E
:4005400075810C90000078007920E4F0A3D8FCD9FAEA90005DF0020011750B1F750CFD1209591202FC0205A30205E8E493A3F8E493A34003F68001F208DFF48029E493A330
:40058000F85407240CC8C333C4540F4420C8834004F456800146F6DFE4800B01020408102040809009B9E47E019360BCA3FF543F30E509541FFEE493A360010ECF54C025D3
:4005C000E060A840B8E493A3FAE493A3F8E493A3C8C582C8CAC583CAF0A3C8C582C8CAC583CADFE9DEE780BE9000437404F0A37401F0A3740FF0A37401F0E4A3F0120AC162
:400600007BFF7A0B790E1208657F01120A5E900044E0FF900043E0FD1208E6E4FF120B07900044E0FFA3E0FD1208E67F01120B07900047E0FF7012EF1313135401900044F1
:40064000F0900047E004F08065900044E0FF6021900043E014F0900045E0FEB4030725E025E0F0800C900045E004F0900047E004F0EF7021900043E004F0900045E0FFB435
:400680000C071313543FF0800C900045E014F0900047E004F0900047E0FF54077010EF1313135401900044F0900047E004F0E47FD67E01FDFC1208000206092290430074CC
:4006C00002F09040007408F09042007403F07B0C7A017908120AEF9046A1EFF07B007A4279227D087C00120AD47B007A4279207D517C12120AD4E4900047F07F19FEFDFC96
:4007000090004312021B900043120203D3EF9400EE9400403B900047E0FF64036032904225E05401FEEF25E04E5403900047F0E47FE07E01FDFC120A00900043120203740C
:40074000FFFBFAF9F812005B90004312021B80B6900043120203EF4E70057F031209897B007A4079047D007C01120AD49040047407F0904006E4F09040087448F090400450
:40078000E4F09040017402F022E47F28FEFDFC1208007F03120A81E47F05FEFDFC1208007F03120A81E47F0FFEFDFC1208007F03120A81E47F01FEFDFC1208007F02120A05
:4007C00081E47F05FEFDFC1208007F06120A5E7F0E120A5E7F2C120A5E7F08120A5E7F01120A5E7F0C120A5E7F03120A5EE47F05FEFDFC1208007BFF7A0B790E1208652238
:4008000090FFFC12026B12021B850B83850C82120203D3EF9400EE9480402E90005E120203120A00850B83850C82C083C082120203E42FFFEE3480FEED34FFFDEC34FFFCAF
:40084000D082D08312021B80C0900054120203850B83850C8212020F120068120A0090000412026B229000481202301204077F40120A5EE490004BF090004BE0FFC39440E3
:40088000501B900048120227E92FF9E43AFA12001AFF120A3B90004BE004F080DB1204077F80120A5E2290004EEFF0905120E04420F0E054BFF0E4FFFE12098C905120E00F
:4008C00054F0F0C083C082E0FF90004EE04410FEEF4ED082D083F07F017E0012098C905120E054EFF022900048EDF0EF14601514601D1460252403702B900048E02480FF2F
:40090000120A5E22900048E024C0FF120A5E22900048E02494FF120A5E22900048E024D4FF120A5E22758600EF4E6027EF60010E759300900048E0F595A3E0F585A3E0F5B2
:40094000848B938A838982E0A30586F0A31586DFF6DEF4E4F593F59522E4900043F0900043E0FFD3941F5020EF75F002A42400FFE5F03444FAA9077B017C0B7D0B120AD6E2
:40098000900043E004F080D62280FE22EEFA900058E0F88FF0A4FFAEF0E88AF0A42EFEE5F03400FDEF24C9FF78FFEE38FEED38FDE438FC5003020A00224100680041006756
:4009C00000440059016E360044005400005DC04100581844005E2EE000004300620000004100690000EC4D6011ED60010C8B938A838982E4F0A3DDFCDCFA759300220000C6
:400A0000EC4D4E700D78FCEF24E950032840FD2200007BF178DA0000EF28FF78FFEE38FEED38FDEC38FC50E7EF2BFFEE38FEED38FDEC38FC40F2220502030490004CEFF0E4
:400A400012040790004CE0FFC4540FFFA3F01208A690004CE0540FFFA3F01208A62290004CEFF012040790004CE0FFC4540FFFA3F0120A8190004CE0540FFFA3F0120A815B
:400A800022905120E0549FF0E054F0F0E0FEEF4410FFEE4FF07F017E0012098C905120E054EFF0227B0C7A0179CF120AEFEF540790586EF0EFC4540FA3F09058767444F080
:400AC00022900067E070091207899000677401F0120AE3228B938A838982EDF0A3ECF0759300227F0C120A5E9000687401F0228B938A838982E0759300FF228B938A838932
:400B000082EDF075930022120A3B2280FE320E1F151F1F1B1515040A111214130B0E040A11180C07120E110A0A0A04040404101010101010101F0000000000000000000095
:400B40000000000000000000000000000000005100001000513000400051C000100051F00010010000100001140008000140000A00014C00020001500000200000000000A8
:400B80000000000000000000000000000000000000000000000000000000000000000000000000000000000000000000000000000000000000000000000000000000000035
:400BC00000000000000000000000000000000000000000000000000000000000000000000000000000000000000000000000000000000000000000000000000000000000F5
:400C000000000000000000000000000000000000000000000000000000000000000000000000000000000000000000000000000000000000000000000000000000000000B4
:400C40000000000000000000000000000000000000000000000000000000000000000000000000000000000000000000000000000000000000000000000000000000000074
:0200000480007A
:40000000000B0B0000000000007F7F0000000000000000000000000000000000000000000000000000000000000000000000000000000000000000000000000000000000AC
:400040000000000000000000000000000000000000000000000000000000000000000000000000000000000000000000000000000000000000000000000000000000000080
:400080000000000000000000000000000000000000000000000000000000000000000000000000000000000000000000000000000000000000000000000000000000000040
:4000C0000000000000000000000000000000000000000000000000000000000000000000000000000000000000000000000000000000000000000000000000000000000000
:4001000000000000000000000000000000000000000000000000000000000000000000000000000000000000000000000000000000000000000000000000000000000000BF
:0200000490006A
:0400000000004005B7
:0200000490105A
:04000000BC90ACAF55
:0200000490303A
:0200000057584F
:0200000490501A
:0C00000000011E02806903011E07D7C129
:0200000490402A
:4000000000000000000000000000000000000000000000000000000000000000000000000000000000000000000000000000000000000000000000000000000000000000C0
:00000001FF
