C51 COMPILER V9.51   MAIN                                                                  11/13/2019 09:29:19 PAGE 1   


C51 COMPILER V9.51, COMPILATION OF MODULE MAIN
OBJECT MODULE PLACED IN .\DP8051\DP8051_Keil_951\Release\main.obj
COMPILER INVOKED BY: C:\Program Files\Cypress\PSoC Creator\4.2\PSoC Creator\import\keil\pk51\9.51\C51\BIN\c51.exe main.c
                    - NOIV LARGE MODDP2 OMF2 VB(1) NOIP INCDIR(.,Generated_Source\PSoC3) FF(3) DB DF(NDEBUG) WL(2) PR(.\DP8051\DP8051_Keil_95
                    -1\Release/main.lst) CD OT(8,SIZE) OJ(.\DP8051\DP8051_Keil_951\Release\main.obj)

line level    source

*** MESSAGE C286 IN LINE 0 OF (null): license limits optimization to level 5
   1          /* ========================================
   2           *
   3           * Copyright YOUR COMPANY, THE YEAR
   4           * All Rights Reserved
   5           * UNPUBLISHED, LICENSED SOFTWARE.
   6           *
   7           * CONFIDENTIAL AND PROPRIETARY INFORMATION
   8           * WHICH IS THE PROPERTY OF your company.
   9           *
  10           * ========================================
  11          */
  12          #include "project.h"
  13          extern uint8 const CYCODE LCD_Khanas_customFonts[];
  14          int main(void)
  15          {
  16   1          uint8 column1 = 4u;
  17   1          uint8 row1 = 1u;
  18   1          uint8 column2 =15u;
  19   1          uint8 row2 = 1u;
  20   1          uint8 i = 0u;
  21   1          
  22   1          LCD_Khanas_Start();
  23   1          LCD_Khanas_LoadCustomFonts(LCD_Khanas_customFonts);
  24   1          
  25   1          
  26   1      
  27   1          for(;;)
  28   1          {
  29   2          LCD_Khanas_ClearDisplay();
  30   2          LCD_Khanas_Position(row1, column1);
  31   2          LCD_Khanas_PutChar(LCD_Khanas_CUSTOM_0);
  32   2       
  33   2          LCD_Khanas_Position(row1, column2);
  34   2          LCD_Khanas_PutChar(LCD_Khanas_CUSTOM_1);
  35   2                
  36   2          if( i==0) {
  37   3              row1 = (i/8)%2;
  38   3              i++;
  39   3          } else { 
  40   3              if(row1) {
  41   4                  column1--;
  42   4                  if(column2==3){
  43   5                      column2*=4;
  44   5                  } else {
  45   5                      column2++;
  46   5                      i++;
  47   5                  }
  48   4              }
  49   3              if(!row1) {
  50   4                  column1++;
  51   4                  if(column2==12) {
  52   5                      column2/=4;
C51 COMPILER V9.51   MAIN                                                                  11/13/2019 09:29:19 PAGE 2   

  53   5                  } else {
  54   5                      column2--;
  55   5                      i++;
  56   5                  }
  57   4              }
  58   3              if(i%8==0 ) {
  59   4                  row1 = (i/8)%2;
  60   4                  i++;
  61   4              }
  62   3             
  63   3          }
  64   2          
  65   2          CyDelay(470);
  66   2              
  67   2          }
  68   1      }
  69          
  70          /* [] END OF FILE */
C51 COMPILER V9.51   MAIN                                                                  11/13/2019 09:29:19 PAGE 3   

ASSEMBLY LISTING OF GENERATED OBJECT CODE


             ; FUNCTION main (BEGIN)
                                           ; SOURCE LINE # 14
                                           ; SOURCE LINE # 15
                                           ; SOURCE LINE # 16
0000 900000      R     MOV     DPTR,#column1
0003 7404              MOV     A,#04H
0005 F0                MOVX    @DPTR,A
                                           ; SOURCE LINE # 17
0006 A3                INC     DPTR
0007 7401              MOV     A,#01H
0009 F0                MOVX    @DPTR,A
                                           ; SOURCE LINE # 18
000A A3                INC     DPTR
000B 740F              MOV     A,#0FH
000D F0                MOVX    @DPTR,A
                                           ; SOURCE LINE # 19
000E A3                INC     DPTR
000F 7401              MOV     A,#01H
0011 F0                MOVX    @DPTR,A
                                           ; SOURCE LINE # 20
0012 E4                CLR     A
0013 A3                INC     DPTR
0014 F0                MOVX    @DPTR,A
                                           ; SOURCE LINE # 22
0015 120000      E     LCALL   LCD_Khanas_Start
                                           ; SOURCE LINE # 23
0018 7BFF              MOV     R3,#0FFH
001A 7A00        E     MOV     R2,#HIGH LCD_Khanas_customFonts
001C 7900        E     MOV     R1,#LOW LCD_Khanas_customFonts
001E 120000      E     LCALL   _LCD_Khanas_LoadCustomFonts
                                           ; SOURCE LINE # 27
0021         ?C0001:
                                           ; SOURCE LINE # 28
                                           ; SOURCE LINE # 29
0021 7F01              MOV     R7,#01H
0023 120000      E     LCALL   _LCD_Khanas_WriteControl
                                           ; SOURCE LINE # 30
0026 900000      R     MOV     DPTR,#row1
0029 E0                MOVX    A,@DPTR
002A FF                MOV     R7,A
002B 900000      R     MOV     DPTR,#column1
002E E0                MOVX    A,@DPTR
002F FD                MOV     R5,A
0030 120000      E     LCALL   _LCD_Khanas_Position
                                           ; SOURCE LINE # 31
0033 E4                CLR     A
0034 FF                MOV     R7,A
0035 120000      E     LCALL   _LCD_Khanas_PutChar
                                           ; SOURCE LINE # 33
0038 900000      R     MOV     DPTR,#row1
003B E0                MOVX    A,@DPTR
003C FF                MOV     R7,A
003D A3                INC     DPTR
003E E0                MOVX    A,@DPTR
003F FD                MOV     R5,A
0040 120000      E     LCALL   _LCD_Khanas_Position
                                           ; SOURCE LINE # 34
0043 7F01              MOV     R7,#01H
0045 120000      E     LCALL   _LCD_Khanas_PutChar
C51 COMPILER V9.51   MAIN                                                                  11/13/2019 09:29:19 PAGE 4   

                                           ; SOURCE LINE # 36
0048 900000      R     MOV     DPTR,#i
004B E0                MOVX    A,@DPTR
004C FF                MOV     R7,A
004D 7012              JNZ     ?C0003
                                           ; SOURCE LINE # 37
004F EF                MOV     A,R7
0050 13                RRC     A
0051 13                RRC     A
0052 13                RRC     A
0053 5401              ANL     A,#01H
0055 900000      R     MOV     DPTR,#row1
0058 F0                MOVX    @DPTR,A
                                           ; SOURCE LINE # 38
0059 900000      R     MOV     DPTR,#i
005C E0                MOVX    A,@DPTR
005D 04                INC     A
005E F0                MOVX    @DPTR,A
                                           ; SOURCE LINE # 39
005F 8065              SJMP    ?C0004
0061         ?C0003:
                                           ; SOURCE LINE # 40
0061 900000      R     MOV     DPTR,#row1
0064 E0                MOVX    A,@DPTR
0065 FF                MOV     R7,A
0066 6021              JZ      ?C0005
                                           ; SOURCE LINE # 41
0068 900000      R     MOV     DPTR,#column1
006B E0                MOVX    A,@DPTR
006C 14                DEC     A
006D F0                MOVX    @DPTR,A
                                           ; SOURCE LINE # 42
006E 900000      R     MOV     DPTR,#column2
0071 E0                MOVX    A,@DPTR
0072 FE                MOV     R6,A
0073 B40307            CJNE    A,#03H,?C0006
                                           ; SOURCE LINE # 43
0076 25E0              ADD     A,ACC
0078 25E0              ADD     A,ACC
007A F0                MOVX    @DPTR,A
                                           ; SOURCE LINE # 44
007B 800C              SJMP    ?C0005
007D         ?C0006:
                                           ; SOURCE LINE # 45
007D 900000      R     MOV     DPTR,#column2
0080 E0                MOVX    A,@DPTR
0081 04                INC     A
0082 F0                MOVX    @DPTR,A
                                           ; SOURCE LINE # 46
0083 900000      R     MOV     DPTR,#i
0086 E0                MOVX    A,@DPTR
0087 04                INC     A
0088 F0                MOVX    @DPTR,A
                                           ; SOURCE LINE # 47
                                           ; SOURCE LINE # 48
0089         ?C0005:
                                           ; SOURCE LINE # 49
0089 EF                MOV     A,R7
008A 7021              JNZ     ?C0008
                                           ; SOURCE LINE # 50
008C 900000      R     MOV     DPTR,#column1
008F E0                MOVX    A,@DPTR
C51 COMPILER V9.51   MAIN                                                                  11/13/2019 09:29:19 PAGE 5   

0090 04                INC     A
0091 F0                MOVX    @DPTR,A
                                           ; SOURCE LINE # 51
0092 900000      R     MOV     DPTR,#column2
0095 E0                MOVX    A,@DPTR
0096 FF                MOV     R7,A
0097 B40C07            CJNE    A,#0CH,?C0009
                                           ; SOURCE LINE # 52
009A 13                RRC     A
009B 13                RRC     A
009C 543F              ANL     A,#03FH
009E F0                MOVX    @DPTR,A
                                           ; SOURCE LINE # 53
009F 800C              SJMP    ?C0008
00A1         ?C0009:
                                           ; SOURCE LINE # 54
00A1 900000      R     MOV     DPTR,#column2
00A4 E0                MOVX    A,@DPTR
00A5 14                DEC     A
00A6 F0                MOVX    @DPTR,A
                                           ; SOURCE LINE # 55
00A7 900000      R     MOV     DPTR,#i
00AA E0                MOVX    A,@DPTR
00AB 04                INC     A
00AC F0                MOVX    @DPTR,A
                                           ; SOURCE LINE # 56
                                           ; SOURCE LINE # 57
00AD         ?C0008:
                                           ; SOURCE LINE # 58
00AD 900000      R     MOV     DPTR,#i
00B0 E0                MOVX    A,@DPTR
00B1 FF                MOV     R7,A
00B2 5407              ANL     A,#07H
00B4 7010              JNZ     ?C0004
                                           ; SOURCE LINE # 59
00B6 EF                MOV     A,R7
00B7 13                RRC     A
00B8 13                RRC     A
00B9 13                RRC     A
00BA 5401              ANL     A,#01H
00BC 900000      R     MOV     DPTR,#row1
00BF F0                MOVX    @DPTR,A
                                           ; SOURCE LINE # 60
00C0 900000      R     MOV     DPTR,#i
00C3 E0                MOVX    A,@DPTR
00C4 04                INC     A
00C5 F0                MOVX    @DPTR,A
                                           ; SOURCE LINE # 61
                                           ; SOURCE LINE # 63
00C6         ?C0004:
                                           ; SOURCE LINE # 65
00C6 E4                CLR     A
00C7 7FD6              MOV     R7,#0D6H
00C9 7E01              MOV     R6,#01H
00CB FD                MOV     R5,A
00CC FC                MOV     R4,A
00CD 120000      E     LCALL   _?CyDelay
                                           ; SOURCE LINE # 67
00D0 020000      R     LJMP    ?C0001
00D3 22                RET     
             ; FUNCTION main (END)

C51 COMPILER V9.51   MAIN                                                                  11/13/2019 09:29:19 PAGE 6   



MODULE INFORMATION:   STATIC OVERLAYABLE
   CODE SIZE        =    212    ----
   CONSTANT SIZE    =   ----    ----
   XDATA SIZE       =   ----       5
   PDATA SIZE       =   ----    ----
   DATA SIZE        =   ----    ----
   IDATA SIZE       =   ----    ----
   BIT SIZE         =   ----    ----
   EDATA SIZE       =   ----    ----
   HDATA SIZE       =   ----    ----
   XDATA CONST SIZE =   ----    ----
   FAR CONST SIZE   =   ----    ----
END OF MODULE INFORMATION.


C51 COMPILATION COMPLETE.  0 WARNING(S),  0 ERROR(S)
