C51 COMPILER V9.51   CY_EM_EEPROM                                                          10/24/2019 10:21:11 PAGE 1   


C51 COMPILER V9.51, COMPILATION OF MODULE CY_EM_EEPROM
OBJECT MODULE PLACED IN .\DP8051\DP8051_Keil_951\Release\cy_em_eeprom.obj
COMPILER INVOKED BY: C:\Program Files\Cypress\PSoC Creator\4.2\PSoC Creator\import\keil\pk51\9.51\C51\BIN\c51.exe Genera
                    -ted_Source\PSoC3\cy_em_eeprom.c NOIV LARGE MODDP2 OMF2 VB(1) NOIP INCDIR(.,Generated_Source\PSoC3) FF(3) DB DF(NDEBUG) W
                    -L(2) PR(.\DP8051\DP8051_Keil_951\Release/cy_em_eeprom.lst) CD OT(8,SIZE) OJ(.\DP8051\DP8051_Keil_951\Release\cy_em_eepro
                    -m.obj)

line level    source

*** MESSAGE C286 IN LINE 0 OF (null): license limits optimization to level 5
   1          /***************************************************************************//**
   2          * \file cy_em_eeprom.c
   3          * \version 2.0
   4          *
   5          * \brief
   6          *  This file provides source code of the API for the Emulated EEPROM library.
   7          *  The Emulated EEPROM API allows creating of an emulated EEPROM in flash that
   8          *  has the ability to do wear leveling and restore corrupted data from a
   9          *  redundant copy.
  10          *
  11          ********************************************************************************
  12          * \copyright
  13          * Copyright 2017, Cypress Semiconductor Corporation.  All rights reserved.
  14          * You may use this file only in accordance with the license, terms, conditions,
  15          * disclaimers, and limitations in the end user license agreement accompanying
  16          * the software package with which this file was provided.
  17          *******************************************************************************/
  18          
  19          
  20          #include "cytypes.h"
  21          #include <string.h>
  22          
  23          #if (CYDEV_CHIP_FAMILY_USED == CYDEV_CHIP_FAMILY_PSOC6)
                  #include "em_eeprom/cy_em_eeprom.h"
              #else
  26              #include "cy_em_eeprom.h"
  27          #endif /* (CYDEV_CHIP_FAMILY_USED == CYDEV_CHIP_FAMILY_PSOC6) */
  28          
  29          
  30          #if defined(__cplusplus)
              extern "C" {
              #endif
  33          
  34          
  35          /***************************************
  36          * Private Function Prototypes
  37          ***************************************/
  38          static void FindLastWrittenRow(uint32 * lastWrRowPtr, cy_stc_eeprom_context_t * context);
  39          static uint32 GetRowAddrBySeqNum(uint32 seqNum, cy_stc_eeprom_context_t * context);
  40          static uint8 CalcChecksum(uint8 rowData[], uint32 len);
  41          static void GetNextRowToWrite(uint32 seqNum,
  42                                      uint32 * rowToWrPtr,
  43                                      uint32 * rowToRdPtr,
  44                                      cy_stc_eeprom_context_t * context);
  45          static cy_en_em_eeprom_status_t CheckRanges(cy_stc_eeprom_config_t* config);
  46          static cy_en_em_eeprom_status_t WriteRow(uint32 rowAddr, uint32 *rowData, cy_stc_eeprom_context_t * contex
             -t);
  47          static cy_en_em_eeprom_status_t EraseRow(uint32 rowAddr, uint32 ramBuffAddr, cy_stc_eeprom_context_t * con
             -text);
  48          static cy_en_em_eeprom_status_t CheckCrcAndCopy(uint32 startAddr,
  49                                                          uint32 dstAddr,
C51 COMPILER V9.51   CY_EM_EEPROM                                                          10/24/2019 10:21:11 PAGE 2   

  50                                                          uint32 rowOffset,
  51                                                          uint32 numBytes,
  52                                                          cy_stc_eeprom_context_t * context);
  53          static uint32 GetAddresses(uint32 *startAddr, uint32 *endAddr, uint32 *offset, uint32 rowNum, uint32 addr,
             - uint32 len);
  54          static cy_en_em_eeprom_status_t FillChecksum(cy_stc_eeprom_context_t * context);
  55          
  56          /**
  57          * \addtogroup group_em_eeprom_functions
  58          * \{
  59          */
  60          
  61          /*******************************************************************************
  62          * Function Name: Cy_Em_EEPROM_Init
  63          ****************************************************************************//**
  64          *
  65          * Initializes the Emulated EEPROM library by filling the context structure. 
  66          *
  67          * \param config
  68          * The pointer to a configuration structure. See \ref cy_stc_eeprom_config_t.
  69          *
  70          * \param context
  71          * The pointer to the EEPROM context structure to be filled by the function.
  72          * \ref cy_stc_eeprom_context_t.
  73          *
  74          * \return
  75          * error / status code. See \ref cy_en_em_eeprom_status_t.
  76          *
  77          * \note
  78          * The context structure should not be modified by the user after it is filled
  79          * with this function. Modification of context structure may cause the 
  80          * unexpected behavior of the Cy_Em_EEPROM API functions which rely on it.
  81          *
  82          * \note
  83          * This function uses a buffer of the flash row size to perform read
  84          * operation. For the size of the row refer to the specific PSoC device
  85          * datasheet.
  86          *
  87          * \sideeffect 
  88          * If the "Redundant Copy" option is used, the function performs a number of 
  89          * write operations to the EEPROM to initialize flash rows checksums. Therefore,
  90          * Cy_Em_EEPROM_NumWrites(), when it is called right after Cy_Em_EEPROM_Init(), 
  91          * will return a non-zero value that identifies the number of writes performed 
  92          * by Cy_Em_EEPROM_Init().
  93          *
  94          *******************************************************************************/
  95          cy_en_em_eeprom_status_t Cy_Em_EEPROM_Init(cy_stc_eeprom_config_t* config, cy_stc_eeprom_context_t * conte
             -xt)
  96          {
  97   1          cy_en_em_eeprom_status_t ret = CY_EM_EEPROM_BAD_PARAM;
  98   1      
  99   1          if((NULL != context) && (NULL != config) && (NULL != ((uint32 *)config->userFlashStartAddr)) &&
 100   1              (config->wearLevelingFactor <= CY_EM_EEPROM_MAX_WEAR_LEVELING_FACTOR) && (config->eepromSize != 0u
             -))
 101   1          {
 102   2              ret = CheckRanges(config);
 103   2      
 104   2              if(CY_EM_EEPROM_SUCCESS == ret)
 105   2              {
 106   3                  /* Copy the user config structure fields into context */
 107   3                  context->eepromSize = config->eepromSize;
 108   3                  context->wearLevelingFactor = config->wearLevelingFactor;
C51 COMPILER V9.51   CY_EM_EEPROM                                                          10/24/2019 10:21:11 PAGE 3   

 109   3                  context->redundantCopy = config->redundantCopy;
 110   3                  context->blockingWrite = config->blockingWrite;
 111   3                  context->userFlashStartAddr = config->userFlashStartAddr;
 112   3                  /* Store frequently used data for internal use */
 113   3                  context->numberOfRows = CY_EM_EEPROM_GET_NUM_ROWS_IN_EEPROM(config->eepromSize);
 114   3                  context->wlEndAddr = ((CY_EM_EEPROM_GET_EEPROM_SIZE(context->numberOfRows) * config->wearLevel
             -ingFactor) +
 115   3                          config->userFlashStartAddr);
 116   3                  /* Find last written EEPROM row and store it for quick access */
 117   3                  FindLastWrittenRow(&context->lastWrRowAddr, context);
 118   3      
 119   3                  if((0u == CY_EM_EEPROM_GET_SEQ_NUM(context->lastWrRowAddr)) && (0u != context->redundantCopy))
 120   3                  {
 121   4                      /* Call the function only after device reprogramming in case
 122   4                      * if redundant copy is enabled.
 123   4                      */
 124   4                      ret = FillChecksum(context);
 125   4                      
 126   4                      /* Update the last written EEPROM row for Cy_Em_EEPROM_NumWrites() */
 127   4                      FindLastWrittenRow(&context->lastWrRowAddr, context);
 128   4                  }
 129   3              }
 130   2          }
 131   1      
 132   1          return(ret);
 133   1      }
 134          
 135          
 136          /*******************************************************************************
 137          * Function Name: Cy_Em_EEPROM_Read
 138          ****************************************************************************//**
 139          *
 140          * This function takes the logical EEPROM address, converts it to the actual
 141          * physical address where the data is stored and returns the data to the user.
 142          *
 143          * \param addr
 144          * The logical start address in EEPROM to start reading data from.
 145          *
 146          * \param eepromData
 147          * The pointer to a user array to write data to.
 148          *
 149          * \param size
 150          * The amount of data to read.
 151          *
 152          * \param context
 153          * The pointer to the EEPROM context structure \ref cy_stc_eeprom_context_t.
 154          *
 155          * \return
 156          * This function returns \ref cy_en_em_eeprom_status_t.
 157          *
 158          * \note
 159          * This function uses a buffer of the flash row size to perform read
 160          * operation. For the size of the row refer to the specific PSoC device
 161          * datasheet.
 162          *
 163          * \note
 164          * In case if redundant copy option is enabled the function may perform writes
 165          * to EEPROM. This is done in case if the data in the EEPPROM is corrupted and
 166          * the data in redundant copy is valid based on CRC-8 data integrity check.
 167          *
 168          *******************************************************************************/
 169          cy_en_em_eeprom_status_t Cy_Em_EEPROM_Read(uint32 addr, 
C51 COMPILER V9.51   CY_EM_EEPROM                                                          10/24/2019 10:21:11 PAGE 4   

 170                                                  void * eepromData, 
 171                                                  uint32 size,
 172                                                  cy_stc_eeprom_context_t * context)
 173          {
 174   1          cy_en_em_eeprom_status_t ret = CY_EM_EEPROM_BAD_PARAM;
 175   1          uint32 i;
 176   1          uint32 numBytesToRead;
 177   1          uint32 curEepromBaseAddr;
 178   1          uint32 curRowOffset;
 179   1          uint32 startRowAddr;
 180   1          uint32 actEepromRowNum;
 181   1          uint32 curRdEepromRowNum = 0u;
 182   1          uint32 dataStartEepromRowNum = 0u;
 183   1          uint32 eeData = (uint32) eepromData; /* To avoid the pointer arithmetic with void */
 184   1      
 185   1          /* Validate input parameters */
 186   1          if((0u != size) && ((addr + size) <= (context->eepromSize)) && (NULL != eepromData))
 187   1          {
 188   2              uint32 rdAddr = addr;
 189   2              uint32 rdSize = size;
 190   2              /* Get the sequence number of the last written row */
 191   2              uint32 seqNum = CY_EM_EEPROM_GET_SEQ_NUM(context->lastWrRowAddr);
 192   2              uint32 updateAddrFlag = 0u;
 193   2      
 194   2              /* Calculate the number of the row read operations. Currently this only concerns
 195   2              * the reads from the EEPROM data locations.
 196   2              */
 197   2              uint32 numRowReads = ((((rdAddr + rdSize) - 1u) / CY_EM_EEPROM_EEPROM_DATA_LEN) -
 198   2                                    (rdAddr / CY_EM_EEPROM_EEPROM_DATA_LEN)) + 1u;
 199   2      
 200   2              /* Get the address of the first row of the currently active EEPROM sector. If
 201   2              * no wear leveling is used - the EEPROM has only one sector, so use the base
 202   2              * addr stored in "context->userFlashStartAddr".
 203   2              */
 204   2              curEepromBaseAddr = (((context->lastWrRowAddr - context->userFlashStartAddr) /
 205   2                                    (CY_EM_EEPROM_FLASH_SIZEOF_ROW * context->numberOfRows)) *
 206   2                                    (CY_EM_EEPROM_FLASH_SIZEOF_ROW * context->numberOfRows)) +
 207   2                                     context->userFlashStartAddr;
 208   2      
 209   2              /* Find the number of the row that contains the start address of the data */
 210   2              for(i = 0u; i < context->numberOfRows; i++)
 211   2              {
 212   3                  if(0u != CY_EM_EEPROM_IS_ADDR_IN_ROW_RANGE(rdAddr, i))
 213   3                  {
 214   4                      dataStartEepromRowNum = i;
 215   4                      curRdEepromRowNum = dataStartEepromRowNum;
 216   4                      break;
 217   4                  }
 218   3              }
 219   2      
 220   2              /* Find the row number of the last written row */
 221   2              actEepromRowNum = (context->lastWrRowAddr - curEepromBaseAddr) / CY_EM_EEPROM_FLASH_SIZEOF_ROW;
 222   2      
 223   2              /* Check if wear leveling is used */
 224   2              if(context->wearLevelingFactor > 1u)
 225   2              {
 226   3                  uint32 dataEndEepromRowNum = dataStartEepromRowNum + (numRowReads - 1u);
 227   3      
 228   3                  /* Check if the future validation of the read address is required. */
 229   3                  updateAddrFlag = (dataStartEepromRowNum > actEepromRowNum) ? 1u :
 230   3                                    ((dataEndEepromRowNum > actEepromRowNum) ? 1u : 0u);
 231   3              }
C51 COMPILER V9.51   CY_EM_EEPROM                                                          10/24/2019 10:21:11 PAGE 5   

 232   2      
 233   2              /* Copy data from the EEPROM data locations to the user buffer */
 234   2              for(i = 0u; i < numRowReads; i++)
 235   2              {
 236   3                  startRowAddr = curEepromBaseAddr + (curRdEepromRowNum * CY_EM_EEPROM_FLASH_SIZEOF_ROW);
 237   3                  curRowOffset = CY_EM_EEPROM_EEPROM_DATA_LEN + (rdAddr % CY_EM_EEPROM_EEPROM_DATA_LEN);
 238   3      
 239   3                  /* Check if there are more reads pending and update the number of the
 240   3                  * remaining bytes to read respectively.
 241   3                  */
 242   3                  if((i + 1u) < numRowReads)
 243   3                  {
 244   4                      numBytesToRead = CY_EM_EEPROM_EEPROM_DATA_LEN - (rdAddr % CY_EM_EEPROM_EEPROM_DATA_LEN);
 245   4                  }
 246   3                  else
 247   3                  {
 248   4                      numBytesToRead = rdSize;
 249   4                  }
 250   3      
 251   3                  /* Check if the read address needs to be updated to point to the correct
 252   3                  * EEPROM sector.
 253   3                  */
 254   3                  if((0u != updateAddrFlag) && (curRdEepromRowNum > actEepromRowNum))
 255   3                  {
 256   4                      startRowAddr -= context->numberOfRows * CY_EM_EEPROM_FLASH_SIZEOF_ROW;
 257   4      
 258   4                      if(startRowAddr < context->userFlashStartAddr)
 259   4                      {
 260   5                          startRowAddr = context->wlEndAddr -
 261   5                              ((context->numberOfRows - curRdEepromRowNum) * CY_EM_EEPROM_FLASH_SIZEOF_ROW);
 262   5                      }
 263   4                  }
 264   3      
 265   3                  if(0u != context->redundantCopy)
 266   3                  {
 267   4                      /* Check a checksum of the EEPROM row and if it is bad, check a checksum in
 268   4                      * the corresponding row in redundant copy, otherwise return failure.
 269   4                      */
 270   4                      ret = CheckCrcAndCopy(startRowAddr, eeData, curRowOffset, numBytesToRead, context);
 271   4      
 272   4                      if(CY_EM_EEPROM_SUCCESS != ret)
 273   4                      {
 274   5                          break;
 275   5                      }
 276   4                  }
 277   3                  else
 278   3                  {
 279   4                      /* Copy the data to the user buffer */
 280   4                      (void)memcpy((void *)(eeData),
 281   4                                   (void *)(startRowAddr + curRowOffset),
 282   4                                   numBytesToRead);
 283   4      
 284   4                      /* Indicate success to be able to execute next code block */
 285   4                      ret = CY_EM_EEPROM_SUCCESS;
 286   4                  }
 287   3      
 288   3                  /* Update variables anticipated in the read operation */
 289   3                  rdAddr += numBytesToRead;
 290   3                  rdSize -= numBytesToRead;
 291   3                  eeData += numBytesToRead;
 292   3                  curRdEepromRowNum++;
 293   3              }
C51 COMPILER V9.51   CY_EM_EEPROM                                                          10/24/2019 10:21:11 PAGE 6   

 294   2      
 295   2              /* This code block will copy the latest data from the EEPROM headers into the
 296   2              * user buffer. The data previously copied into the user buffer may be updated
 297   2              * as the EEPROM headers contain more recent data. 
 298   2              * The code block is executed when two following conditions are true:
 299   2              *  1) The reads from "historic" data locations were successful;
 300   2              *  2) The user performed at least one write operation to Em_EEPROM (0u !=
 301   2              *     seqNum).        
 302   2              */
 303   2              if((CY_EM_EEPROM_SUCCESS == ret) && (0u != seqNum))
 304   2              {
 305   3                  numRowReads = (context->numberOfRows <= seqNum) ? (context->numberOfRows) : (seqNum);
 306   3                  numRowReads--;
 307   3      
 308   3                  for(i = (seqNum - numRowReads); i <= seqNum; i++)
 309   3                  {
 310   4                      startRowAddr = GetRowAddrBySeqNum(i, context);
 311   4      
 312   4                      if (0u != startRowAddr)
 313   4                      {
 314   5                          /* The following variables are introduced to increase code readability. */
 315   5                          uint32 startAddr  = *(uint32 *)(startRowAddr + CY_EM_EEPROM_HEADER_ADDR_OFFSET);
 316   5                          uint32 endAddr    = startAddr + (*(uint32 *)(startRowAddr + CY_EM_EEPROM_HEADER_LEN_OF
             -FSET));
 317   5      
 318   5                          /* Check if the current row EEPROM header contains the data requested for read */
 319   5                          if(0u != CY_EM_EEPROM_IS_ADDRESES_CROSSING(startAddr, endAddr, addr, addr + size))
 320   5                          {
 321   6                              uint32 srcOffset = (startAddr > addr) ? (0u) : (addr - startAddr);
 322   6                              uint32 dstOffset = (startAddr > addr) ? (startAddr - addr): (0u);
 323   6                              rdAddr = (startAddr > addr) ? (startAddr) : (addr);
 324   6      
 325   6                              srcOffset += CY_EM_EEPROM_HEADER_DATA_OFFSET;
 326   6      
 327   6                              /* Calculate the number of bytes to be read from the current row's EEPROM header *
             -/
 328   6                              numBytesToRead = ((endAddr < (addr + size)) ? endAddr : (addr + size)) - rdAddr;
 329   6      
 330   6                              /* Calculate the offset in the user buffer from which the data will be updated. */
 331   6                              eeData = ((uint32)eepromData) + dstOffset;
 332   6      
 333   6                              /* Check a checksum of the EEPROM row and if it is bad, check a checksum in the
 334   6                              * corresponding row in redundant copy, otherwise return failure. Copy the data
 335   6                              * from the recent EEPROM headers to the user buffer. This will overwrite the
 336   6                              * data copied form EEPROM data locations as the data in EEPROM headers is newer.
 337   6                              */
 338   6                              if(0u != context->redundantCopy)
 339   6                              {
 340   7                                  ret = CheckCrcAndCopy(startRowAddr, eeData, srcOffset, numBytesToRead, context
             -);
 341   7      
 342   7                                  if(CY_EM_EEPROM_SUCCESS != ret)
 343   7                                  {
 344   8                                      break;
 345   8                                  }
 346   7                              }
 347   6                              else
 348   6                              {
 349   7                                  (void)memcpy((void *)(eeData), (void *)(startRowAddr + srcOffset), numBytesToR
             -ead);
 350   7                              }
 351   6                          }
C51 COMPILER V9.51   CY_EM_EEPROM                                                          10/24/2019 10:21:11 PAGE 7   

 352   5                      }
 353   4                  }
 354   3              }
 355   2          }
 356   1      
 357   1          return(ret);
 358   1      }
 359          
 360          
 361          /*******************************************************************************
 362          * Function Name: Cy_Em_EEPROM_Write
 363          ****************************************************************************//**
 364          *
 365          * This function takes the logical EEPROM address and converts it to the actual
 366          * physical address and writes data there. If wear leveling is implemented, the
 367          * writing process will use the wear leveling techniques. This is a blocking
 368          * function and it does not return until the write operation is completed. The
 369          * user firmware should not enter Hibernate mode until write is completed. The
 370          * write operation is allowed in Sleep and Deep-Sleep modes. During the flash
 371          * operation, the device should not be reset, including the XRES pin, a software
 372          * reset, and watchdog reset sources. Also, low-voltage detect circuits should
 373          * be configured to generate an interrupt instead of a reset. Otherwise, portions
 374          * of flash may undergo unexpected changes.
 375          *
 376          * \param addr
 377          * The logical start address in EEPROM to start writing data from.
 378          *
 379          * \param eepromData
 380          * Data to write to EEPROM.
 381          *
 382          * \param size
 383          * The amount of data to write to EEPROM.
 384          *
 385          * \param context
 386          * The pointer to the EEPROM context structure \ref cy_stc_eeprom_context_t.
 387          *
 388          * \return
 389          * This function returns \ref cy_en_em_eeprom_status_t.
 390          *
 391          * \note
 392          * This function uses a buffer of the flash row size to perform write
 393          * operation. For the size of the row refer to the specific PSoC device
 394          * datasheet.
 395          *
 396          * \sideeffect
 397          * In case when blocking write option is used, if this function is called by
 398          * the CM4 the user code on CM0P and the user code on CM4 are blocked until erase
 399          * flash row operation is finished. If this function is called by the CM0P the
 400          * user code on CM4 is not blocked and the user code on CM0P is blocked until
 401          * erase flash row operation is finished. Plan your task allocation accordingly.
 402          *
 403          * \sideeffect
 404          * In case if non-blocking write option is used and when user flash is used as
 405          * an EEPROM storage care should be taken to prevent the read while write (RWW)
 406          * exception. To prevent the RWW exception the user flash macro that includes
 407          * the EEPROM storage should not be read while the EEPROM write is not completed.
 408          * The read also means the user code execution from the respective flash macro.
 409          *
 410          *******************************************************************************/
 411          cy_en_em_eeprom_status_t Cy_Em_EEPROM_Write(uint32 addr,
 412                                                      void * eepromData,
 413                                                      uint32 size,
C51 COMPILER V9.51   CY_EM_EEPROM                                                          10/24/2019 10:21:11 PAGE 8   

 414                                                      cy_stc_eeprom_context_t * context)
 415          {
 416   1          cy_en_em_eeprom_status_t ret = CY_EM_EEPROM_BAD_PARAM;
 417   1          uint32 i;
 418   1          uint32 wrCnt;
 419   1          uint32 actEmEepromRowNum;
 420   1          uint32 writeRamBuffer[CY_EM_EEPROM_FLASH_SIZEOF_ROW / CY_EM_EEPROM_U32_DIV];
 421   1          uint32 startAddr = 0u;
 422   1          uint32 endAddr = 0u;
 423   1          uint32 tmpRowAddr;
 424   1          uint32 emEepromRowAddr = context->lastWrRowAddr;
 425   1          uint32 emEepromRowRdAddr;
 426   1          void * tmpData;
 427   1          uint32 eeData = (uint32) eepromData; /* To avoid the pointer arithmetic with void */
 428   1      
 429   1          /* Check if the EEPROM data does not exceed the EEPROM capacity */
 430   1          if((0u != size) && ((addr + size) <= (context->eepromSize)) && (NULL != eepromData))
 431   1          {
 432   2              uint32 numWrites = ((size - 1u) / CY_EM_EEPROM_HEADER_DATA_LEN) + 1u;
 433   2              uint32 eeHeaderDataOffset = 0u;
 434   2      
 435   2              for(wrCnt = 0u; wrCnt < numWrites; wrCnt++)
 436   2              {
 437   3                  uint32 skipOperation = 0u;
 438   3                  /* Get the sequence number of the last written row */
 439   3                  uint32 seqNum = CY_EM_EEPROM_GET_SEQ_NUM(emEepromRowAddr);
 440   3      
 441   3                  /* Get the address of the row to be written. The "emEepromRowAddr" may be
 442   3                  * updated with the proper address (if wear leveling is used). The
 443   3                  * "emEepromRowRdAddr" will point to the row address from which the historic
 444   3                  * data will be read into the RAM buffer.
 445   3                  */
 446   3                  GetNextRowToWrite(seqNum, &emEepromRowAddr, &emEepromRowRdAddr, context);
 447   3      
 448   3                  /* Clear the RAM buffer so to not put junk into flash */
 449   3                  (void)memset(writeRamBuffer, 0, CY_EM_EEPROM_FLASH_SIZEOF_ROW);
 450   3      
 451   3                  /* Fill the EM_EEPROM header info for the row in the RAM buffer */
 452   3                  seqNum++;
 453   3                  writeRamBuffer[CY_EM_EEPROM_HEADER_SEQ_NUM_OFFSET_U32] = seqNum;
 454   3                  writeRamBuffer[CY_EM_EEPROM_HEADER_ADDR_OFFSET_U32] = addr;
 455   3                  tmpData = (void *) eeData;
 456   3      
 457   3                  /* Check if this is the last row to write */
 458   3                  if(wrCnt == (numWrites - 1u))
 459   3                  {
 460   4                      /* Fill in the remaining size value to the EEPROM header. */
 461   4                      writeRamBuffer[CY_EM_EEPROM_HEADER_LEN_OFFSET_U32] = size;
 462   4                  }
 463   3                  else
 464   3                  {
 465   4                      /* This is not the last row to write in the current EEPROM write operation.
 466   4                      * Write the maximum possible data size to the EEPROM header. Update the
 467   4                      * size, eeData and addr respectively.
 468   4                      */
 469   4                      writeRamBuffer[CY_EM_EEPROM_HEADER_LEN_OFFSET_U32] = CY_EM_EEPROM_HEADER_DATA_LEN;
 470   4                      size -= CY_EM_EEPROM_HEADER_DATA_LEN;
 471   4                      addr += CY_EM_EEPROM_HEADER_DATA_LEN;
 472   4                      eeData += CY_EM_EEPROM_HEADER_DATA_LEN;
 473   4                  }
 474   3      
 475   3                  /* Write the data to the EEPROM header */
C51 COMPILER V9.51   CY_EM_EEPROM                                                          10/24/2019 10:21:11 PAGE 9   

 476   3                  (void)memcpy((void *)&writeRamBuffer[CY_EM_EEPROM_HEADER_DATA_OFFSET_U32],
 477   3                               tmpData,
 478   3                               writeRamBuffer[CY_EM_EEPROM_HEADER_LEN_OFFSET_U32]);
 479   3      
 480   3                  if(emEepromRowRdAddr != 0UL)
 481   3                  {
 482   4                      /* Copy the EEPROM historic data for this row from flash to RAM */
 483   4                      (void)memcpy((void *)&writeRamBuffer[CY_EM_EEPROM_EEPROM_DATA_OFFSET_U32],
 484   4                                   (void *)(emEepromRowRdAddr + CY_EM_EEPROM_EEPROM_DATA_LEN),
 485   4                                   CY_EM_EEPROM_EEPROM_DATA_LEN);
 486   4                  }
 487   3      
 488   3                  /* Check if there is data for this location in other EEPROM headers:
 489   3                  * find out the row with the lowest possible sequence number which
 490   3                  * may contain the data for the current row.
 491   3                  */
 492   3                  i = (seqNum > context->numberOfRows) ? ((seqNum - (context->numberOfRows)) + 1u) : 1u;
 493   3      
 494   3                  for(; i <= seqNum; i++)
 495   3                  {
 496   4                      if(i == seqNum)
 497   4                      {
 498   5                          /* The code reached the row that is about to be written. Analyze the recently
 499   5                          * created EEPROM header (stored in the RAM buffer currently): if it contains
 500   5                          * the data for EEPROM data locations in the row that is about to be written.
 501   5                          */
 502   5                          tmpRowAddr = (uint32) writeRamBuffer;
 503   5                      }
 504   4                      else
 505   4                      {
 506   5                          /* Retrieve the address of the previously written row by its sequence number.
 507   5                          * The pointer will be used to get data from the respective EEPROM header.
 508   5                          */
 509   5                          tmpRowAddr = GetRowAddrBySeqNum(i, context);
 510   5                      }
 511   4      
 512   4                      actEmEepromRowNum = CY_EM_EEPROM_GET_ACT_ROW_NUM_FROM_ADDR(emEepromRowAddr,
 514   4                                                                                 context->numberOfRows,
 514   4                                                                                 context->userFlashStartAddr);
 515   4                      if(0UL != tmpRowAddr)
 516   4                      {
 517   5                          /* Calculate the required addressed for the later EEPROM historic data update */
 518   5                          skipOperation = GetAddresses(
 519   5                                                    &startAddr,
 520   5                                                    &endAddr,
 521   5                                                    &eeHeaderDataOffset,
 522   5                                                    actEmEepromRowNum,
 523   5                                                    *(uint32 *)(tmpRowAddr + CY_EM_EEPROM_HEADER_ADDR_OFFSET),
 524   5                                                    *(uint32 *)(tmpRowAddr + CY_EM_EEPROM_HEADER_LEN_OFFSET));
 525   5                      }
 526   4                      else
 527   4                      {
 528   5                          /* Skip writes to the RAM buffer */
 529   5                          skipOperation++;
 530   5                      }
 531   4      
 532   4                      /* Write data to the RAM buffer */
 533   4                      if(0u == skipOperation)
 534   4                      {
 535   5                          uint32 dataAddr = ((uint32)((uint8 *)&writeRamBuffer)) + startAddr;
 536   5      
 537   5                          /* Update the address to point to the EEPROM header data and not to
C51 COMPILER V9.51   CY_EM_EEPROM                                                          10/24/2019 10:21:11 PAGE 10  

 538   5                          * the start of the row.
 539   5                          */
 540   5                          tmpRowAddr = tmpRowAddr + CY_EM_EEPROM_HEADER_DATA_OFFSET + eeHeaderDataOffset;
 541   5                          (void)memcpy((void *)(dataAddr), (void *)(tmpRowAddr), endAddr - startAddr);
 542   5                      }
 543   4      
 544   4                      /* Calculate the checksum if redundant copy is enabled */
 545   4                      if(0u != context->redundantCopy)
 546   4                      {
 547   5                          writeRamBuffer[CY_EM_EEPROM_HEADER_CHECKSUM_OFFSET_U32] = (uint32)
 548   5                              CalcChecksum((uint8 *) &writeRamBuffer[CY_EM_EEPROM_EEPROM_DATA_OFFSET_U32],
 549   5                                                        CY_EM_EEPROM_EEPROM_DATA_LEN);
 550   5                      }
 551   4                  }
 552   3      
 553   3                  /* Write the data to the specified flash row */
 554   3                  ret = WriteRow(emEepromRowAddr, writeRamBuffer, context);
 555   3                  tmpRowAddr = emEepromRowAddr;
 556   3      
 557   3                  /* Check if redundant copy is used */
 558   3                  if((0u != context->redundantCopy) && (CY_EM_EEPROM_SUCCESS == ret))
 559   3                  {
 560   4                      /* Update the row address to point to the row in the redundant EEPROM's copy */
 561   4                      tmpRowAddr = (emEepromRowAddr - context->userFlashStartAddr) + context->wlEndAddr;
 562   4      
 563   4                      /* Write the data to the specified flash row */
 564   4                      ret = WriteRow(tmpRowAddr, writeRamBuffer, context);
 565   4                  }
 566   3      
 567   3                  if(CY_EM_EEPROM_SUCCESS == ret)
 568   3                  {
 569   4                      /* Store last written row address only when EEPROM and redundant
 570   4                      * copy writes were successful.
 571   4                      */
 572   4                      context->lastWrRowAddr = emEepromRowAddr;
 573   4                  }
 574   3                  else
 575   3                  {
 576   4                      break;
 577   4                  }
 578   3              }
 579   2          }
 580   1          return(ret);
 581   1      }
 582          
 583          
 584          /*******************************************************************************
 585          * Function Name: Cy_Em_EEPROM_Erase
 586          ****************************************************************************//**
 587          *
 588          * This function erases the entire contents of the EEPROM. Erased values are all
 589          * zeros. This is a blocking function and it does not return until the write
 590          * operation is completed. The user firmware should not enter Hibernate mode until
 591          * erase is completed. The erase operation is allowed in Sleep and Deep-Sleep modes.
 592          * During the flash operation, the device should not be reset, including the
 593          * XRES pin, a software reset, and watchdog reset sources. Also, low-voltage
 594          * detect circuits should be configured to generate an interrupt instead of a
 595          * reset. Otherwise, portions of flash may undergo unexpected changes.
 596          *
 597          * \param context
 598          * The pointer to the EEPROM context structure \ref cy_stc_eeprom_context_t.
 599          *
C51 COMPILER V9.51   CY_EM_EEPROM                                                          10/24/2019 10:21:11 PAGE 11  

 600          * \return
 601          * This function returns \ref cy_en_em_eeprom_status_t.
 602          *
 603          * \note
 604          * For all non PSoC 6 devices the erase operation is performed by clearing
 605          * the EEPROM data using flash write. This affects the flash durability.
 606          * So it is recommended to use this function in utmost case to prolongate
 607          * flash life.
 608          *
 609          * \note
 610          * This function uses a buffer of the flash row size to perform erase
 611          * operation. For the size of the row refer to the specific PSoC device
 612          * datasheet.
 613          *
 614          * \sideeffect
 615          * In case when blocking write option is used, if this function is called by
 616          * the CM4 the user code on CM0P and the user code on CM4 are blocked until erase
 617          * flash row operation is finished. If this function is called by the CM0P the
 618          * user code on CM4 is not blocked and the user code on CM0P is blocked until
 619          * erase flash row operation is finished. Plan your task allocation accordingly.
 620          *
 621          * \sideeffect
 622          * In case if non-blocking write option is used and when user flash is used as
 623          * an EEPROM storage care should be taken to prevent the read while write (RWW)
 624          * exception. To prevent the RWW exception the user flash macro that includes
 625          * the EEPROM storage should not be read while the EEPROM erase is not completed.
 626          * The read also means the user code execution from the respective flash macro.
 627          *
 628          *******************************************************************************/
 629          cy_en_em_eeprom_status_t Cy_Em_EEPROM_Erase(cy_stc_eeprom_context_t * context)
 630          {
 631   1          uint32 i;
 632   1          uint32 seqNum;
 633   1          uint32 emEepromRowAddr = context->lastWrRowAddr;
 634   1          uint32 emEepromRowRdAddr;
 635   1          cy_en_em_eeprom_status_t ret = CY_EM_EEPROM_WRITE_FAIL;
 636   1          uint32 writeRamBuffer[CY_EM_EEPROM_FLASH_SIZEOF_ROW / CY_EM_EEPROM_U32_DIV] = {0u};
 637   1      #if (CY_PSOC6)
                  uint32 emEepromStoredRowAddr = context->lastWrRowAddr;
                  uint32 storedSeqNum;
              #endif /* (!CY_PSOC6) */
 641   1      
 642   1          /* Get the sequence number of the last written row */
 643   1          seqNum = CY_EM_EEPROM_GET_SEQ_NUM(emEepromRowAddr);
 644   1      
 645   1          /* If there were no writes to EEPROM - nothing to erase */
 646   1          if(0u != seqNum)
 647   1          {
 648   2              /* Calculate the number of row erase operations required */
 649   2              uint32 numWrites = context->numberOfRows * context->wearLevelingFactor;
 650   2      
 651   2          #if (CY_PSOC6)
                      GetNextRowToWrite(seqNum, &emEepromStoredRowAddr, &emEepromRowRdAddr, context);
                      storedSeqNum = seqNum + 1u;
                  #endif /* (CY_PSOC6) */
 655   2      
 656   2              if(0u != context->redundantCopy)
 657   2              {
 658   3                  writeRamBuffer[CY_EM_EEPROM_HEADER_CHECKSUM_OFFSET_U32] = (uint32)
 659   3                              CalcChecksum((uint8 *) &writeRamBuffer[CY_EM_EEPROM_EEPROM_DATA_OFFSET_U32],
 660   3                                                        CY_EM_EEPROM_EEPROM_DATA_LEN);
 661   3              }
C51 COMPILER V9.51   CY_EM_EEPROM                                                          10/24/2019 10:21:11 PAGE 12  

 662   2      
 663   2              for(i = 0u; i < numWrites; i++)
 664   2              {
 665   3              #if (CY_PSOC6)
                          /* For PSoC 6 the erase operation moves backwards. From last written row
                          * identified by "seqNum" down to "seqNum" - "numWrites". If "emEepromRowAddr"
                          * is zero this means that the row identified by "seqNum" was previously 
                          * erased.
                          */
                          if(0u != emEepromRowAddr)
                          {
                              ret = EraseRow(emEepromRowAddr, (uint32)writeRamBuffer, context);
                          }
              
                          seqNum--;
              
                          if(0u == seqNum)
                          {
                              /* Exit the loop as there is no more row is EEPROM to be erased */
                              break;
                          }
                          emEepromRowAddr = GetRowAddrBySeqNum(seqNum, context);
                      #else
 685   3                  seqNum = CY_EM_EEPROM_GET_SEQ_NUM(emEepromRowAddr);
 686   3                  /* Get the address of the row to be erased. "emEepromRowAddr" may be updated
 687   3                  * with the proper address (if wear leveling is used).
 688   3                  */
 689   3                  GetNextRowToWrite(seqNum, &emEepromRowAddr, &emEepromRowRdAddr, context);
 690   3                  seqNum++;
 691   3                  writeRamBuffer[0u] = seqNum;
 692   3                  ret = EraseRow(emEepromRowAddr, (uint32)writeRamBuffer, context);
 693   3              #endif /* (CY_PSOC6) */
 694   3              }
 695   2      
 696   2          #if (CY_PSOC6)
                      if(CY_EM_EEPROM_SUCCESS == ret)
                      {
                          writeRamBuffer[0u] = storedSeqNum;
              
                          /* Write the previously stored sequence number to the flash row which would be
                          * written next if the erase wouldn't happen. In this case the write to
                          * redundant copy can be skipped as it does not add any value.
                          */
                          ret = WriteRow(emEepromStoredRowAddr, writeRamBuffer, context);
              
                          if(CY_EM_EEPROM_SUCCESS == ret)
                          {
                              context->lastWrRowAddr = emEepromStoredRowAddr;
                          }
                      }
                  #endif /* (CY_PSOC6) */
 713   2      
 714   2          }
 715   1          return(ret);
 716   1      }
 717          
 718          
 719          /*******************************************************************************
 720          * Function Name: Cy_Em_EEPROM_NumWrites
 721          ****************************************************************************//**
 722          *
 723          * Returns the number of the EEPROM writes completed so far.
C51 COMPILER V9.51   CY_EM_EEPROM                                                          10/24/2019 10:21:11 PAGE 13  

 724          *
 725          * \param context
 726          * The pointer to the EEPROM context structure \ref cy_stc_eeprom_context_t.
 727          *
 728          * \return
 729          * The number of writes performed to the EEPROM.
 730          *
 731          *******************************************************************************/
 732          uint32 Cy_Em_EEPROM_NumWrites(cy_stc_eeprom_context_t * context)
 733          {
 734   1          return(CY_EM_EEPROM_GET_SEQ_NUM(context->lastWrRowAddr));
 735   1      }
 736          
 737          /** \} */
 738          
 739          /** \cond INTERNAL */
 740          
 741          
 742          /*******************************************************************************
 743          * Function Name: FindLastWrittenRow
 744          ****************************************************************************//**
 745          *
 746          * Performs a search of the last written row address of the EEPROM associated
 747          * with the context structure. If there were no writes to the EEPROM the
 748          * function returns the start address of the EEPROM. The row address is returned
 749          * in the input parameter.
 750          *
 751          * \param lastWrRowPtr
 752          * The pointer to a memory where the last written row will be returned.
 753          *
 754          * \param context
 755          * The pointer to the EEPROM context structure \ref cy_stc_eeprom_context_t.
 756          *
 757          *******************************************************************************/
 758          static void FindLastWrittenRow(uint32 * lastWrRowPtr, cy_stc_eeprom_context_t * context)
 759          {
 760   1          uint32 seqNum = 0u;
 761   1          uint32 prevSeqNum = 0u;
 762   1          uint32 numRows;
 763   1          uint32 emEepromAddr = context->userFlashStartAddr;
 764   1      
 765   1          *lastWrRowPtr = emEepromAddr;
 766   1      
 767   1          for(numRows = 0u; numRows < (context->numberOfRows * context->wearLevelingFactor); numRows++)
 768   1          {
 769   2              seqNum = CY_EM_EEPROM_GET_SEQ_NUM(emEepromAddr);
 770   2              if((0u != seqNum) && (seqNum > prevSeqNum))
 771   2              {
 772   3                  /* Some record in EEPROM was found. Store found sequence
 773   3                  * number and row address.
 774   3                  */
 775   3                  prevSeqNum = seqNum;
 776   3                  *lastWrRowPtr = emEepromAddr;
 777   3              }
 778   2      
 779   2              /* Switch to the next row */
 780   2              emEepromAddr = emEepromAddr + CY_EM_EEPROM_FLASH_SIZEOF_ROW;
 781   2          }
 782   1      }
 783          
 784          
 785          /*******************************************************************************
C51 COMPILER V9.51   CY_EM_EEPROM                                                          10/24/2019 10:21:11 PAGE 14  

 786          * Function Name: GetRowAddrBySeqNum
 787          ****************************************************************************//**
 788          *
 789          * Returns the address of the row in EEPROM using its sequence number.
 790          *
 791          * \param seqNum
 792          * The sequence number of the row.
 793          *
 794          * \param context
 795          * The pointer to the EEPROM context structure.
 796          *
 797          * \return
 798          * The address of the row or zero if the row with the sequence number was not
 799          * found.
 800          *
 801          *******************************************************************************/
 802          static uint32 GetRowAddrBySeqNum(uint32 seqNum, cy_stc_eeprom_context_t * context)
 803          {
 804   1          uint32 emEepromAddr = context->userFlashStartAddr;
 805   1      
 806   1          while(CY_EM_EEPROM_GET_SEQ_NUM(emEepromAddr) != seqNum)
 807   1          {
 808   2              /* Switch to the next row */
 809   2              emEepromAddr = emEepromAddr + CY_EM_EEPROM_FLASH_SIZEOF_ROW;
 810   2      
 811   2              if (CY_EM_EEPROM_ADDR_IN_RANGE !=
 812   2                  CY_EM_EEPROM_IS_ADDR_EXCEED_RANGE(emEepromAddr, context->wlEndAddr))
 813   2              {
 814   3                  emEepromAddr = 0u;
 815   3                  /* Exit the loop as we reached the end of EEPROM */
 816   3                  break;
 817   3              }
 818   2          }
 819   1      
 820   1          return (emEepromAddr);
 821   1      }
 822          
 823          
 824          /*******************************************************************************
 825          * Function Name: GetNextRowToWrite
 826          ****************************************************************************//**
 827          *
 828          * Performs a range check of the row that should be written and updates the
 829          * address to the row respectively. The similar actions are done for the read
 830          * address.
 831          *
 832          * \param seqNum
 833          * The sequence number of the last written row.
 834          *
 835          * \param rowToWrPtr
 836          * The address of the last written row (input). The address of the row to be 
 837          * written (output).
 838          *
 839          * \param rowToRdPtr
 840          * The address of the row from which the data should be read into the RAM buffer
 841          * in a later write operation. Out parameter.
 842          *
 843          * \param context
 844          * The pointer to the EEPROM context structure \ref cy_stc_eeprom_context_t.
 845          *
 846          *******************************************************************************/
 847          static void GetNextRowToWrite(uint32 seqNum,
C51 COMPILER V9.51   CY_EM_EEPROM                                                          10/24/2019 10:21:11 PAGE 15  

 848                                      uint32 * rowToWrPtr,
 849                                      uint32 * rowToRdPtr,
 850                                      cy_stc_eeprom_context_t * context)
 851          {
 852   1          /* Switch to the next row to be written if the current sequence number is
 853   1          * not zero.
 854   1          */
 855   1          if(0u != seqNum)
 856   1          {
 857   2              *rowToWrPtr = (*rowToWrPtr + CY_EM_EEPROM_FLASH_SIZEOF_ROW);
 858   2          }
 859   1      
 860   1          /* If the resulting row address is out of EEPROM, then switch to the base
 861   1          * EEPROM address (Row#0).
 862   1          */
 863   1          if(CY_EM_EEPROM_ADDR_IN_RANGE !=
 864   1                  CY_EM_EEPROM_IS_ADDR_EXCEED_RANGE(*rowToWrPtr, context->wlEndAddr))
 865   1          {
 866   2              *rowToWrPtr = context->userFlashStartAddr;
 867   2          }
 868   1      
 869   1          *rowToRdPtr = 0u;
 870   1      
 871   1          /* Check if the sequence number is larger than the number of rows in the EEPROM.
 872   1          * If not, do not update the row read address because there is no historic
 873   1          * data to be read.
 874   1          */
 875   1          if(context->numberOfRows <= seqNum)
 876   1          {
 877   2              /* Check if wear leveling is used in EEPROM */
 878   2              if(context->wearLevelingFactor > 1u)
 879   2              {
 880   3                  /* The read row address should be taken from an EEPROM copy that became
 881   3                  * inactive recently. This condition check handles that.
 882   3                  */
 883   3                  if((*rowToWrPtr - (context->numberOfRows * CY_EM_EEPROM_FLASH_SIZEOF_ROW)) <
 884   3                      context->userFlashStartAddr)
 885   3                  {
 886   4                      *rowToRdPtr = context->userFlashStartAddr +
 887   4                          (context->numberOfRows * (context->wearLevelingFactor - 1u) *
 888   4                              CY_EM_EEPROM_FLASH_SIZEOF_ROW) + (*rowToWrPtr - context->userFlashStartAddr);
 889   4                  }
 890   3                  else
 891   3                  {
 892   4                      *rowToRdPtr = *rowToWrPtr - (context->numberOfRows * CY_EM_EEPROM_FLASH_SIZEOF_ROW);
 893   4                  }
 894   3              }
 895   2              else
 896   2              {
 897   3                  /* If no wear leveling, always read from the same flash row that
 898   3                  * should be written.
 899   3                  */
 900   3                  *rowToRdPtr = *rowToWrPtr;
 901   3              }
 902   2          }
 903   1      }
 904          
 905          
 906          /*******************************************************************************
 907          * Function Name: CalcChecksum
 908          ****************************************************************************//**
 909          *
C51 COMPILER V9.51   CY_EM_EEPROM                                                          10/24/2019 10:21:11 PAGE 16  

 910          * Implements CRC-8 that is used in checksum calculation for the redundant copy
 911          * algorithm.
 912          *
 913          * \param rowData
 914          * The row data to be used to calculate the checksum.
 915          *
 916          * \param len
 917          * The length of rowData.
 918          *
 919          * \return
 920          * The calculated value of CRC-8.
 921          *
 922          *******************************************************************************/
 923          static uint8 CalcChecksum(uint8 rowData[], uint32 len)
 924          {
 925   1          uint8 crc = CY_EM_EEPROM_CRC8_SEED;
 926   1          uint8 i;
 927   1          uint16 cnt = 0u;
 928   1      
 929   1          while(cnt != len)
 930   1          {
 931   2              crc ^= rowData[cnt];
 932   2              for (i = 0u; i < CY_EM_EEPROM_CRC8_POLYNOM_LEN; i++)
 933   2              {
 934   3                  crc = CY_EM_EEPROM_CALCULATE_CRC8(crc);
 935   3              }
 936   2              cnt++;
 937   2          }
 938   1      
 939   1          return (crc);
 940   1      }
 941          
 942          
 943          /*******************************************************************************
 944          * Function Name: CheckRanges
 945          ****************************************************************************//**
 946          *
 947          * Checks if the EEPROM of the requested size can be placed in flash.
 948          *
 949          * \param config
 950          * The pointer to a configuration structure. See \ref cy_stc_eeprom_config_t.
 951          *
 952          * \return
 953          * error / status code. See \ref cy_en_em_eeprom_status_t.
 954          *
 955          *******************************************************************************/
 956          static cy_en_em_eeprom_status_t CheckRanges(cy_stc_eeprom_config_t* config)
 957          {
 958   1          cy_en_em_eeprom_status_t ret = CY_EM_EEPROM_BAD_DATA;
 959   1          uint32 startAddr = config->userFlashStartAddr;
 960   1          uint32 endAddr = startAddr + CY_EM_EEPROM_GET_PHYSICAL_SIZE(config->eepromSize,
 961   1                  config->wearLevelingFactor, config->redundantCopy);
 962   1      
 963   1          /* Range check if there is enough flash for EEPROM */
 964   1          if (CY_EM_EEPROM_IS_IN_FLASH_RANGE(startAddr, endAddr))
 965   1          {
 966   2              ret = CY_EM_EEPROM_SUCCESS;
 967   2          }
 968   1          return (ret);
 969   1      }
 970          
 971          
C51 COMPILER V9.51   CY_EM_EEPROM                                                          10/24/2019 10:21:11 PAGE 17  

 972          /*******************************************************************************
 973          * Function Name: WriteRow
 974          ****************************************************************************//**
 975          *
 976          * Writes one flash row starting from the specified row address.
 977          *
 978          * \param rowAdd
 979          * The address of the flash row.
 980          *
 981          * \param rowData
 982          * The pointer to the data to be written to the row.
 983          *
 984          * \param context
 985          * The pointer to the EEPROM context structure \ref cy_stc_eeprom_context_t.
 986          *
 987          * \return
 988          * error / status code. See \ref cy_en_em_eeprom_status_t.
 989          *
 990          *******************************************************************************/
 991          static cy_en_em_eeprom_status_t WriteRow(uint32 rowAddr,
 992                                                  uint32 *rowData,
 993                                                  cy_stc_eeprom_context_t * context)
 994          {
 995   1          cy_en_em_eeprom_status_t ret = CY_EM_EEPROM_WRITE_FAIL;
 996   1      #if (!CY_PSOC6)
 997   1          cystatus rc;
 998   1          uint32 rowId;
 999   1          #if ((CY_PSOC3) || (CY_PSOC5))
1000   1              uint32 arrayId;
1001   1          #endif /* (CY_PSOC3) */
1002   1          
1003   1          #if (CY_PSOC3)
1004   1              rowAddr &= CY_EM_EEPROM_CODE_ADDR_MASK;
1005   1              context = context;      /* To avoid compiler warning generation */
1006   1          #else
                      (void)context;          /* To avoid compiler warning generation */
                  #endif /* ((CY_PSOC3) */
1009   1          
1010   1          /* For non-PSoC 6 devices, the Array ID and Row ID needed to write the row */
1011   1          rowId = (rowAddr / CY_EM_EEPROM_FLASH_SIZEOF_ROW) % CY_EM_EEPROM_ROWS_IN_ARRAY;
1012   1      
1013   1          /* Write the flash row */
1014   1          #if (CY_PSOC4)
                      rc = CySysFlashWriteRow(rowId, (uint8 *)rowData);
                  #else
1017   1      
1018   1              #ifndef CY_EM_EEPROM_SKIP_TEMP_MEASUREMENT
1019   1                  (void)CySetTemp();
1020   1              #endif /* (CY_EM_EEPROM_SKIP_TEMP_MEASUREMENT) */
1021   1      
1022   1              arrayId = rowAddr / CY_FLASH_SIZEOF_ARRAY;
1023   1              rc = CyWriteRowData((uint8)arrayId, (uint16)rowId, (uint8 *)rowData);
1024   1              
1025   1              #if (CY_PSOC5)
                          CyFlushCache();
                      #endif /* (CY_PSOC5) */
1028   1          #endif /* (CY_PSOC4) */
1029   1      
1030   1          if(CYRET_SUCCESS == rc)
1031   1          {
1032   2              ret = CY_EM_EEPROM_SUCCESS;
1033   2          }
C51 COMPILER V9.51   CY_EM_EEPROM                                                          10/24/2019 10:21:11 PAGE 18  

1034   1      #else /* PSoC 6 */
                  if(0u != context->blockingWrite)
                  {
                      /* Do blocking write */
                      if(CY_FLASH_DRV_SUCCESS == Cy_Flash_WriteRow(rowAddr, (const uint32 *)rowData))
                      {
                          ret = CY_EM_EEPROM_SUCCESS;
                      }
                  }
                  else
                  {
                      /* Initiate write */
                      if(CY_FLASH_DRV_OPERATION_STARTED == Cy_Flash_StartWrite(rowAddr, (const uint32 *)rowData))
                      {
                          uint32 countMs = CY_EM_EEPROM_MAX_WRITE_DURATION_MS;
                          cy_en_flashdrv_status_t rc;
              
                          do
                          {
                              CyDelay(1u);                         /* Wait 1ms */
                              rc = Cy_Flash_IsWriteComplete();     /* Check if write completed */
                              countMs--;
                          }
                          while ((rc == CY_FLASH_DRV_OPCODE_BUSY) && (0u != countMs));
              
                          if(CY_FLASH_DRV_SUCCESS == rc)
                          {
                              ret = CY_EM_EEPROM_SUCCESS;
                          }
                      }
                  }
              #endif /* (CY_PSOC6) */
1066   1      
1067   1          return (ret);
1068   1      }
1069          
1070          
1071          /*******************************************************************************
1072          * Function Name: EraseRow
1073          ****************************************************************************//**
1074          *
1075          * Erases one flash row starting from the specified row address. If the redundant
1076          * copy option is enabled the corresponding row in the redundant copy will also
1077          * be erased.
1078          *
1079          * \param rowAdd
1080          * The address of the flash row.
1081          *
1082          * \param ramBuffAddr
1083          * The address of the RAM buffer that contains zeroed data (used only for
1084          * non-PSoC 6 devices).
1085          *
1086          * \param context
1087          * The pointer to the EEPROM context structure \ref cy_stc_eeprom_context_t.
1088          *
1089          * \return
1090          * error / status code. See \ref cy_en_em_eeprom_status_t.
1091          *
1092          *******************************************************************************/
1093          static cy_en_em_eeprom_status_t EraseRow(uint32 rowAddr,
1094                                                  uint32 ramBuffAddr,
1095                                                  cy_stc_eeprom_context_t * context)
C51 COMPILER V9.51   CY_EM_EEPROM                                                          10/24/2019 10:21:11 PAGE 19  

1096          {
1097   1          uint32 emEepromRowAddr = rowAddr;
1098   1          cy_en_em_eeprom_status_t ret = CY_EM_EEPROM_WRITE_FAIL;
1099   1      #if (CY_PSOC6)
                  uint32 i = 1u;
              
                  (void)ramBuffAddr; /* To avoid compiler warning */
              
                  if(0u != context->redundantCopy)
                  {
                      i++;
                  }
              
                  do
                  {
                      if(0u != context->blockingWrite)
                      {
                          /* Erase the flash row */
                          if(CY_FLASH_DRV_SUCCESS == Cy_Flash_EraseRow(emEepromRowAddr))
                          {
                              ret = CY_EM_EEPROM_SUCCESS;
                          }
                      }
                      else
                      {
                          /* Initiate erase */
                          if(CY_FLASH_DRV_OPERATION_STARTED == Cy_Flash_StartErase(emEepromRowAddr))
                          {
                              uint32 countMs = CY_EM_EEPROM_MAX_WRITE_DURATION_MS;
                              cy_en_flashdrv_status_t rc;
              
                              do
                              {
                                  CyDelay(1u);                         /* Wait 1ms */
                                  rc = Cy_Flash_IsWriteComplete();     /* Check if erase completed */
                                  countMs--;
                              }
                              while ((rc == CY_FLASH_DRV_OPCODE_BUSY) && (0u != countMs));
              
                              if(CY_FLASH_DRV_SUCCESS == rc)
                              {
                                  ret = CY_EM_EEPROM_SUCCESS;
                              }
                          }
                      }
              
                      if(CY_EM_EEPROM_SUCCESS == ret)
                      {
                          /* Update the address to point to the redundant copy row */
                          emEepromRowAddr = (emEepromRowAddr - context->userFlashStartAddr) + context->wlEndAddr;
                      }
                      else
                      {
                          break;
                      }
                      i--;
                  } while (0u != i);
              #else
1154   1          /* Write the data to the specified flash row */
1155   1          ret = WriteRow(emEepromRowAddr, (uint32 *)ramBuffAddr, context);
1156   1      
1157   1          if((CY_EM_EEPROM_SUCCESS == ret) && (0u != context->redundantCopy))
C51 COMPILER V9.51   CY_EM_EEPROM                                                          10/24/2019 10:21:11 PAGE 20  

1158   1          {
1159   2              /* Update the address to point to the redundant copy row */
1160   2              emEepromRowAddr = (emEepromRowAddr - context->userFlashStartAddr) + context->wlEndAddr;
1161   2              ret = WriteRow(emEepromRowAddr, (uint32 *)ramBuffAddr, context);
1162   2          }
1163   1      
1164   1          if(CY_EM_EEPROM_SUCCESS == ret)
1165   1          {
1166   2              context->lastWrRowAddr = rowAddr;
1167   2          }
1168   1      #endif /* (CY_PSOC6) */
1169   1      
1170   1          return(ret);
1171   1      }
1172          
1173          
1174          /*******************************************************************************
1175          * Function Name: CheckCrcAndCopy
1176          ****************************************************************************//**
1177          *
1178          * Checks the checksum of the specific row in EEPROM. If the CRC matches - copies
1179          * the data to the "datAddr" from EEPROM. f the CRC does not match checks the
1180          * CRC of the corresponding row in the EEPROM's redundant copy. If the CRC
1181          * matches - copies the data to the "datAddr" from EEPROM redundant copy. If the
1182          * CRC of the redundant copy does not match - returns bad checksum.
1183          *
1184          * \param startAddr
1185          * The address that points to the start of the specified row.
1186          *
1187          * \param datAddr
1188          * The start address of where the row data will be copied if the CRC check
1189          * will succeed.
1190          *
1191          * \param rowOffset
1192          * The offset in the row from which the data should be copied.
1193          *
1194          * \param numBytes
1195          * The number of bytes to be copied.
1196          *
1197          * \param context
1198          * The pointer to the EEPROM context structure \ref cy_stc_eeprom_context_t.
1199          *
1200          * \return
1201          * error / status code. See \ref cy_en_em_eeprom_status_t.
1202          *
1203          * \note
1204          * This function uses a buffer of the flash row size to perform read
1205          * operation. For the size of the row refer to the specific PSoC device
1206          * datasheet.
1207          *
1208          *******************************************************************************/
1209          static cy_en_em_eeprom_status_t CheckCrcAndCopy(uint32 startAddr,
1210                                                          uint32 dstAddr,
1211                                                          uint32 rowOffset,
1212                                                          uint32 numBytes,
1213                                                          cy_stc_eeprom_context_t * context)
1214          {
1215   1          cy_en_em_eeprom_status_t ret;
1216   1          uint32 writeRamBuffer[CY_EM_EEPROM_FLASH_SIZEOF_ROW / CY_EM_EEPROM_U32_DIV];
1217   1      
1218   1          /* Calculate the row address in the EEPROM's redundant copy */
1219   1          uint32 rcStartRowAddr = (startAddr - context->userFlashStartAddr) + context->wlEndAddr;
C51 COMPILER V9.51   CY_EM_EEPROM                                                          10/24/2019 10:21:11 PAGE 21  

1220   1      
1221   1          /* Check the row data CRC in the EEPROM */
1222   1          if((*(uint32 *)(startAddr + CY_EM_EEPROM_HEADER_CHECKSUM_OFFSET)) ==
1223   1              ((uint32) CalcChecksum((uint8 *)(startAddr + CY_EM_EEPROM_EEPROM_DATA_OFFSET),
1224   1                  CY_EM_EEPROM_EEPROM_DATA_LEN)))
1225   1          {
1226   2              (void)memcpy((void *)(dstAddr), (void *)(startAddr + rowOffset), numBytes);
1227   2      
1228   2              ret = CY_EM_EEPROM_SUCCESS;
1229   2          }
1230   1          /* Check the row data CRC in the EEPROM's redundant copy */
1231   1          else if((*(uint32 *)(rcStartRowAddr + CY_EM_EEPROM_HEADER_CHECKSUM_OFFSET)) ==
1232   1                  ((uint32) CalcChecksum((uint8 *)(rcStartRowAddr + CY_EM_EEPROM_EEPROM_DATA_OFFSET),
1233   1                      CY_EM_EEPROM_EEPROM_DATA_LEN)))
1234   1          {
1235   2              /* Copy the redundant copy row to RAM buffer to avoid read while write (RWW)
1236   2              * flash exception. The RWW occurs while trying to write and read the data from
1237   2              * same flash macro.
1238   2              */
1239   2              (void)memcpy((void *)(writeRamBuffer), (void *)(rcStartRowAddr), CY_EM_EEPROM_FLASH_SIZEOF_ROW);
1240   2      
1241   2              /* Restore bad row data from the RAM buffer */
1242   2              ret = WriteRow(startAddr, (uint32 *)writeRamBuffer, context);
1243   2      
1244   2              if(CY_EM_EEPROM_SUCCESS == ret)
1245   2              {
1246   3                  (void)memcpy((void *)(dstAddr), (void *)(writeRamBuffer + rowOffset), numBytes);
1247   3              }
1248   2          }
1249   1          else
1250   1          {
1251   2              ret = CY_EM_EEPROM_BAD_CHECKSUM;
1252   2          }
1253   1      
1254   1          return(ret);
1255   1      }
1256          
1257          
1258          /*******************************************************************************
1259          * Function Name: GetAddresses
1260          ****************************************************************************//**
1261          *
1262          * Calculates the start and end address of the row's EEPROM data to be updated.
1263          * The start and end are not absolute addresses but a relative addresses in a
1264          * flash row.
1265          *
1266          * \param startAddr
1267          * The pointer the address where the EEPROM data start address will be returned.
1268          *
1269          * \param endAddr
1270          * The pointer the address where the EEPROM data end address will be returned.
1271          *
1272          * \param offset
1273          * The pointer the address where the calculated offset of the EEPROM header data
1274          * will be returned.
1275          *
1276          * \param rowNum
1277          * The row number that is about to be written.
1278          *
1279          * \param addr
1280          * The address of the EEPROM header data in the currently analyzed row that may
1281          * concern to the row about to be written.
C51 COMPILER V9.51   CY_EM_EEPROM                                                          10/24/2019 10:21:11 PAGE 22  

1282          *
1283          * \param len
1284          * The length of the EEPROM header data in the currently analyzed row that may
1285          * concern to the row about to be written.
1286          *
1287          * \return
1288          * Zero indicates that the currently analyzed row has the data to be written to
1289          * the active EEPROM row data locations. Non zero value indicates that there is
1290          * no data to be written
1291          *
1292          *******************************************************************************/
1293          static uint32 GetAddresses(uint32 *startAddr, 
1294                                  uint32 *endAddr, 
1295                                  uint32 *offset,
1296                                  uint32 rowNum,
1297                                  uint32 addr,
1298                                  uint32 len)
1299          {
1300   1          uint32 skip = 0u;
1301   1      
1302   1          *offset =0u;
1303   1      
1304   1          if(0u != CY_EM_EEPROM_IS_ADDR_IN_ROW_RANGE(addr, rowNum))
1305   1          {
1306   2              *startAddr = CY_EM_EEPROM_EEPROM_DATA_LEN + (addr % CY_EM_EEPROM_EEPROM_DATA_LEN);
1307   2      
1308   2              if(0u != CY_EM_EEPROM_IS_ADDR_IN_ROW_RANGE(addr + len, rowNum))
1309   2              {
1310   3                  *endAddr = *startAddr + len;
1311   3              }
1312   2              else
1313   2              {
1314   3                  *endAddr = CY_EM_EEPROM_FLASH_SIZEOF_ROW;
1315   3              }
1316   2          }
1317   1          else
1318   1          {
1319   2      
1320   2              if(0u != CY_EM_EEPROM_IS_ADDR_IN_ROW_RANGE(addr + len, rowNum))
1321   2              {
1322   3                  *startAddr = CY_EM_EEPROM_EEPROM_DATA_LEN;
1323   3                  *endAddr = (*startAddr + len) - (*startAddr - (addr % CY_EM_EEPROM_EEPROM_DATA_LEN));
1324   3                  *offset = len - (*endAddr - *startAddr);
1325   3              }
1326   2              else
1327   2              {
1328   3                  skip++;
1329   3              }
1330   2          }
1331   1      
1332   1          return (skip);
1333   1      }
1334          
1335          
1336          /*******************************************************************************
1337          * Function Name: FillChecksum
1338          ****************************************************************************//**
1339          *
1340          * Performs calculation of the checksum on each row in the Em_EEPROM and fills
1341          * the Em_EEPROM headers checksum field with the calculated checksums.
1342          *
1343          * \param context
C51 COMPILER V9.51   CY_EM_EEPROM                                                          10/24/2019 10:21:11 PAGE 23  

1344          * The pointer to the EEPROM context structure.
1345          *
1346          * \return
1347          * error / status code. See \ref cy_en_em_eeprom_status_t.
1348          *
1349          * \theory 
1350          * In case if redundant copy option is used the Em_EEPROM would return bad 
1351          * checksum while trying to read the EEPROM rows which were not yet written by 
1352          * the user. E.g. any read after device reprogramming without previous Write() 
1353          * operation to the EEPROM would fail. This would happen because the Em_EEPROM 
1354          * headers checksum field values (which is zero at the moment) would not be 
1355          * equal to the actual data checksum. This function allows to avoid read failure
1356          * after device reprogramming. 
1357          *
1358          * \note
1359          * This function uses a buffer of the flash row size to perform read
1360          * operation. For the size of the row refer to the specific PSoC device
1361          * datasheet.
1362          *
1363          *******************************************************************************/
1364          static cy_en_em_eeprom_status_t FillChecksum(cy_stc_eeprom_context_t * context)
1365          {
1366   1          uint32 i;
1367   1          uint32 rdAddr;
1368   1          uint32 writeRamBuffer[CY_EM_EEPROM_FLASH_SIZEOF_ROW / CY_EM_EEPROM_U32_DIV];
1369   1          uint32 wrAddr = context->lastWrRowAddr;
1370   1          uint32 tmpRowAddr;
1371   1          /* Get the sequence number (number of writes) */
1372   1          uint32 seqNum = CY_EM_EEPROM_GET_SEQ_NUM(wrAddr);
1373   1          cy_en_em_eeprom_status_t ret = CY_EM_EEPROM_BAD_PARAM;
1374   1      
1375   1          for(i = 0u; i < (context->numberOfRows * context->wearLevelingFactor); i++)
1376   1          {
1377   2              /* Copy the EEPROM row from Flash to RAM */
1378   2              (void)memcpy((void *)&writeRamBuffer[0u], (void *)(wrAddr), CY_EM_EEPROM_FLASH_SIZEOF_ROW);
1379   2      
1380   2              /* Increment the sequence number */
1381   2              seqNum++;
1382   2              writeRamBuffer[CY_EM_EEPROM_HEADER_SEQ_NUM_OFFSET_U32] = seqNum;
1383   2      
1384   2              /* Calculate and fill the checksum to the Em_EEPROM header */
1385   2              writeRamBuffer[CY_EM_EEPROM_HEADER_CHECKSUM_OFFSET_U32] = (uint32)
1386   2                          CalcChecksum((uint8 *) &writeRamBuffer[CY_EM_EEPROM_EEPROM_DATA_OFFSET_U32],
1387   2                                                    CY_EM_EEPROM_EEPROM_DATA_LEN);
1388   2      
1389   2              /* Write the data to the specified flash row */
1390   2              ret = WriteRow(wrAddr, writeRamBuffer, context);
1391   2      
1392   2              /* Update the row address to point to the relevant row in the redundant 
1393   2              * EEPROM's copy.
1394   2              */
1395   2              tmpRowAddr = (wrAddr - context->userFlashStartAddr) + context->wlEndAddr;
1396   2      
1397   2              /* Write the data to the specified flash row */
1398   2              ret = WriteRow(tmpRowAddr, writeRamBuffer, context);
1399   2      
1400   2              /* Get the address of the next row to be written. 
1401   2              * "rdAddr" is not used in this function but provided to prevent NULL 
1402   2              * pointer exception in GetNextRowToWrite().
1403   2              */
1404   2              GetNextRowToWrite(seqNum, &wrAddr, &rdAddr, context);
1405   2          }
C51 COMPILER V9.51   CY_EM_EEPROM                                                          10/24/2019 10:21:11 PAGE 24  

1406   1          
1407   1          return(ret);
1408   1      }
1409          
1410          /** \endcond */
1411          
1412          #if defined(__cplusplus)
              }
              #endif
1415          
1416          /* [] END OF FILE */
C51 COMPILER V9.51   CY_EM_EEPROM                                                          10/24/2019 10:21:11 PAGE 25  

ASSEMBLY LISTING OF GENERATED OBJECT CODE


             ; FUNCTION _Cy_Em_EEPROM_Init (BEGIN)
                                           ; SOURCE LINE # 95
0000 900000      R     MOV     DPTR,#config
0003 120000      E     LCALL   ?C?PSTXDATA
                                           ; SOURCE LINE # 96
                                           ; SOURCE LINE # 97
0006 900000      R     MOV     DPTR,#ret
0009 7401              MOV     A,#01H
000B F0                MOVX    @DPTR,A
                                           ; SOURCE LINE # 99
000C 900000      R     MOV     DPTR,#context
000F 120000      E     LCALL   ?C?PLDXDATA
0012 E9                MOV     A,R1
0013 4A                ORL     A,R2
0014 4B                ORL     A,R3
0015 7003              JNZ     $ + 5H
0017 020000      R     LJMP    ?C0001
001A 900000      R     MOV     DPTR,#config
001D 120000      E     LCALL   ?C?PLDXDATA
0020 E9                MOV     A,R1
0021 4A                ORL     A,R2
0022 4B                ORL     A,R3
0023 7003              JNZ     $ + 5H
0025 020000      R     LJMP    ?C0001
0028 900000      R     MOV     DPTR,#config
002B 120000      E     LCALL   ?C?PLDXDATA
002E E9                MOV     A,R1
002F 240A              ADD     A,#0AH
0031 F9                MOV     R1,A
0032 E4                CLR     A
0033 3A                ADDC    A,R2
0034 FA                MOV     R2,A
0035 120000      E     LCALL   ?C?LLDPTR
0038 EF                MOV     A,R7
0039 4E                ORL     A,R6
003A 4D                ORL     A,R5
003B 7003              JNZ     $ + 5H
003D 020000      R     LJMP    ?C0001
0040 900000      R     MOV     DPTR,#config
0043 120000      E     LCALL   ?C?PLDXDATA
0046 E9                MOV     A,R1
0047 2404              ADD     A,#04H
0049 F9                MOV     R1,A
004A E4                CLR     A
004B 3A                ADDC    A,R2
004C FA                MOV     R2,A
004D 120000      E     LCALL   ?C?LLDPTR
0050 D3                SETB    C
0051 EF                MOV     A,R7
0052 940A              SUBB    A,#0AH
0054 EE                MOV     A,R6
0055 9400              SUBB    A,#00H
0057 4003              JC      $ + 5H
0059 020000      R     LJMP    ?C0001
005C 900000      R     MOV     DPTR,#config
005F 120000      E     LCALL   ?C?PLDXDATA
0062 120000      E     LCALL   ?C?LLDPTR
0065 EF                MOV     A,R7
0066 4E                ORL     A,R6
C51 COMPILER V9.51   CY_EM_EEPROM                                                          10/24/2019 10:21:11 PAGE 26  

0067 7003              JNZ     $ + 5H
0069 020000      R     LJMP    ?C0001
                                           ; SOURCE LINE # 101
                                           ; SOURCE LINE # 102
006C 120000      R     LCALL   _CheckRanges
006F 900000      R     MOV     DPTR,#ret
0072 EF                MOV     A,R7
0073 F0                MOVX    @DPTR,A
                                           ; SOURCE LINE # 104
0074 6003              JZ      $ + 5H
0076 020000      R     LJMP    ?C0001
                                           ; SOURCE LINE # 105
                                           ; SOURCE LINE # 107
0079 900000      R     MOV     DPTR,#config
007C 120000      E     LCALL   ?C?PLDXDATA
007F 120000      E     LCALL   ?C?LLDPTR
0082 900000      R     MOV     DPTR,#context
0085 120000      E     LCALL   ?C?PLDXDATA
0088 E9                MOV     A,R1
0089 240C              ADD     A,#0CH
008B F9                MOV     R1,A
008C E4                CLR     A
008D 3A                ADDC    A,R2
008E FA                MOV     R2,A
008F 120000      E     LCALL   ?C?LSTPTR
                                           ; SOURCE LINE # 108
0092 900000      R     MOV     DPTR,#config
0095 120000      E     LCALL   ?C?PLDXDATA
0098 E9                MOV     A,R1
0099 2404              ADD     A,#04H
009B F9                MOV     R1,A
009C E4                CLR     A
009D 3A                ADDC    A,R2
009E FA                MOV     R2,A
009F 120000      E     LCALL   ?C?LLDPTR
00A2 900000      R     MOV     DPTR,#context
00A5 120000      E     LCALL   ?C?PLDXDATA
00A8 E9                MOV     A,R1
00A9 2410              ADD     A,#010H
00AB F9                MOV     R1,A
00AC E4                CLR     A
00AD 3A                ADDC    A,R2
00AE FA                MOV     R2,A
00AF 120000      E     LCALL   ?C?LSTPTR
                                           ; SOURCE LINE # 109
00B2 900000      R     MOV     DPTR,#config
00B5 120000      E     LCALL   ?C?PLDXDATA
00B8 E9                MOV     A,R1
00B9 2408              ADD     A,#08H
00BB F9                MOV     R1,A
00BC E4                CLR     A
00BD 3A                ADDC    A,R2
00BE FA                MOV     R2,A
00BF 120000      E     LCALL   ?C?CLDPTR
00C2 FF                MOV     R7,A
00C3 900000      R     MOV     DPTR,#context
00C6 120000      E     LCALL   ?C?PLDXDATA
00C9 E9                MOV     A,R1
00CA 2414              ADD     A,#014H
00CC F9                MOV     R1,A
00CD E4                CLR     A
00CE 3A                ADDC    A,R2
C51 COMPILER V9.51   CY_EM_EEPROM                                                          10/24/2019 10:21:11 PAGE 27  

00CF FA                MOV     R2,A
00D0 EF                MOV     A,R7
00D1 120000      E     LCALL   ?C?CSTPTR
                                           ; SOURCE LINE # 110
00D4 900000      R     MOV     DPTR,#config
00D7 120000      E     LCALL   ?C?PLDXDATA
00DA E9                MOV     A,R1
00DB 2409              ADD     A,#09H
00DD F9                MOV     R1,A
00DE E4                CLR     A
00DF 3A                ADDC    A,R2
00E0 FA                MOV     R2,A
00E1 120000      E     LCALL   ?C?CLDPTR
00E4 FF                MOV     R7,A
00E5 900000      R     MOV     DPTR,#context
00E8 120000      E     LCALL   ?C?PLDXDATA
00EB E9                MOV     A,R1
00EC 2415              ADD     A,#015H
00EE F9                MOV     R1,A
00EF E4                CLR     A
00F0 3A                ADDC    A,R2
00F1 FA                MOV     R2,A
00F2 EF                MOV     A,R7
00F3 120000      E     LCALL   ?C?CSTPTR
                                           ; SOURCE LINE # 111
00F6 900000      R     MOV     DPTR,#config
00F9 120000      E     LCALL   ?C?PLDXDATA
00FC E9                MOV     A,R1
00FD 240A              ADD     A,#0AH
00FF F9                MOV     R1,A
0100 E4                CLR     A
0101 3A                ADDC    A,R2
0102 FA                MOV     R2,A
0103 120000      E     LCALL   ?C?LLDPTR
0106 900000      R     MOV     DPTR,#context
0109 120000      E     LCALL   ?C?PLDXDATA
010C E9                MOV     A,R1
010D 2416              ADD     A,#016H
010F F9                MOV     R1,A
0110 E4                CLR     A
0111 3A                ADDC    A,R2
0112 FA                MOV     R2,A
0113 120000      E     LCALL   ?C?LSTPTR
                                           ; SOURCE LINE # 113
0116 900000      R     MOV     DPTR,#config
0119 120000      E     LCALL   ?C?PLDXDATA
011C 120000      E     LCALL   ?C?LLDPTR
011F EF                MOV     A,R7
0120 547F              ANL     A,#07FH
0122 FF                MOV     R7,A
0123 E4                CLR     A
0124 EF                MOV     A,R7
0125 6010              JZ      ?C0003
0127 E4                CLR     A
0128 7F01              MOV     R7,#01H
012A FE                MOV     R6,A
012B FD                MOV     R5,A
012C FC                MOV     R4,A
012D C004              PUSH    AR4
012F C005              PUSH    AR5
0131 C006              PUSH    AR6
0133 C007              PUSH    AR7
C51 COMPILER V9.51   CY_EM_EEPROM                                                          10/24/2019 10:21:11 PAGE 28  

0135 8011              SJMP    ?C0004
0137         ?C0003:
0137 E4                CLR     A
0138 FF                MOV     R7,A
0139 FE                MOV     R6,A
013A FD                MOV     R5,A
013B FC                MOV     R4,A
013C FB                MOV     R3,A
013D FA                MOV     R2,A
013E F9                MOV     R1,A
013F F8                MOV     R0,A
0140 C000              PUSH    AR0
0142 C001              PUSH    AR1
0144 C002              PUSH    AR2
0146 C003              PUSH    AR3
0148         ?C0004:
0148 900000      R     MOV     DPTR,#config
014B 120000      E     LCALL   ?C?PLDXDATA
014E 120000      E     LCALL   ?C?LLDPTR
0151 E4                CLR     A
0152 7B80              MOV     R3,#080H
0154 FA                MOV     R2,A
0155 F9                MOV     R1,A
0156 F8                MOV     R0,A
0157 120000      E     LCALL   ?C?ULDIV
015A D003              POP     AR3
015C D002              POP     AR2
015E D001              POP     AR1
0160 D000              POP     AR0
0162 120000      E     LCALL   ?C?LADD
0165 900000      R     MOV     DPTR,#context
0168 120000      E     LCALL   ?C?PLDXDATA
016B E9                MOV     A,R1
016C 2404              ADD     A,#04H
016E F9                MOV     R1,A
016F E4                CLR     A
0170 3A                ADDC    A,R2
0171 FA                MOV     R2,A
0172 120000      E     LCALL   ?C?LSTPTR
                                           ; SOURCE LINE # 114
0175 120000      E     LCALL   ?C?LLDPTR
0178 E4                CLR     A
0179 FB                MOV     R3,A
017A 7A01              MOV     R2,#01H
017C F9                MOV     R1,A
017D F8                MOV     R0,A
017E 120000      E     LCALL   ?C?LMUL
0181 900000      R     MOV     DPTR,#config
0184 120000      E     LCALL   ?C?PLDXDATA
0187 E9                MOV     A,R1
0188 2404              ADD     A,#04H
018A F9                MOV     R1,A
018B E4                CLR     A
018C 3A                ADDC    A,R2
018D FA                MOV     R2,A
018E 120000      E     LCALL   ?C?LLDPTR0
0191 120000      E     LCALL   ?C?LMUL
0194 900000      R     MOV     DPTR,#config
0197 120000      E     LCALL   ?C?PLDXDATA
019A E9                MOV     A,R1
019B 240A              ADD     A,#0AH
019D F9                MOV     R1,A
C51 COMPILER V9.51   CY_EM_EEPROM                                                          10/24/2019 10:21:11 PAGE 29  

019E E4                CLR     A
019F 3A                ADDC    A,R2
01A0 FA                MOV     R2,A
01A1 120000      E     LCALL   ?C?LLDPTR0
01A4 120000      E     LCALL   ?C?LADD
01A7 900000      R     MOV     DPTR,#context
01AA 120000      E     LCALL   ?C?PLDXDATA
01AD 120000      E     LCALL   ?C?LSTPTR
                                           ; SOURCE LINE # 117
01B0 900000      R     MOV     DPTR,#context
01B3 120000      E     LCALL   ?C?PLDXDATA
01B6 E9                MOV     A,R1
01B7 2408              ADD     A,#08H
01B9 F9                MOV     R1,A
01BA E4                CLR     A
01BB 3A                ADDC    A,R2
01BC FA                MOV     R2,A
01BD C003              PUSH    AR3
01BF C002              PUSH    AR2
01C1 C001              PUSH    AR1
01C3 900000      R     MOV     DPTR,#context
01C6 120000      E     LCALL   ?C?PLDXDATA
01C9 900000      R     MOV     DPTR,#?_FindLastWrittenRow?BYTE+03H
01CC 120000      E     LCALL   ?C?PSTXDATA
01CF D001              POP     AR1
01D1 D002              POP     AR2
01D3 D003              POP     AR3
01D5 120000      R     LCALL   _FindLastWrittenRow
                                           ; SOURCE LINE # 119
01D8 900000      R     MOV     DPTR,#context
01DB 120000      E     LCALL   ?C?PLDXDATA
01DE E9                MOV     A,R1
01DF 2408              ADD     A,#08H
01E1 F9                MOV     R1,A
01E2 E4                CLR     A
01E3 3A                ADDC    A,R2
01E4 FA                MOV     R2,A
01E5 120000      E     LCALL   ?C?LLDPTR
01E8 A907              MOV     R1,AR7
01EA AA06              MOV     R2,AR6
01EC AB05              MOV     R3,AR5
01EE 120000      E     LCALL   ?C?LLDPTR
01F1 EF                MOV     A,R7
01F2 4E                ORL     A,R6
01F3 7048              JNZ     ?C0001
01F5 900000      R     MOV     DPTR,#context
01F8 120000      E     LCALL   ?C?PLDXDATA
01FB E9                MOV     A,R1
01FC 2414              ADD     A,#014H
01FE F9                MOV     R1,A
01FF E4                CLR     A
0200 3A                ADDC    A,R2
0201 FA                MOV     R2,A
0202 120000      E     LCALL   ?C?CLDPTR
0205 6036              JZ      ?C0001
                                           ; SOURCE LINE # 120
                                           ; SOURCE LINE # 124
0207 900000      R     MOV     DPTR,#context
020A 120000      E     LCALL   ?C?PLDXDATA
020D 120000      R     LCALL   _FillChecksum
0210 900000      R     MOV     DPTR,#ret
0213 EF                MOV     A,R7
C51 COMPILER V9.51   CY_EM_EEPROM                                                          10/24/2019 10:21:11 PAGE 30  

0214 F0                MOVX    @DPTR,A
                                           ; SOURCE LINE # 127
0215 900000      R     MOV     DPTR,#context
0218 120000      E     LCALL   ?C?PLDXDATA
021B E9                MOV     A,R1
021C 2408              ADD     A,#08H
021E F9                MOV     R1,A
021F E4                CLR     A
0220 3A                ADDC    A,R2
0221 FA                MOV     R2,A
0222 C003              PUSH    AR3
0224 C002              PUSH    AR2
0226 C001              PUSH    AR1
0228 900000      R     MOV     DPTR,#context
022B 120000      E     LCALL   ?C?PLDXDATA
022E 900000      R     MOV     DPTR,#?_FindLastWrittenRow?BYTE+03H
0231 120000      E     LCALL   ?C?PSTXDATA
0234 D001              POP     AR1
0236 D002              POP     AR2
0238 D003              POP     AR3
023A 120000      R     LCALL   _FindLastWrittenRow
                                           ; SOURCE LINE # 128
                                           ; SOURCE LINE # 129
                                           ; SOURCE LINE # 130
023D         ?C0001:
                                           ; SOURCE LINE # 132
023D 900000      R     MOV     DPTR,#ret
0240 E0                MOVX    A,@DPTR
0241 FF                MOV     R7,A
                                           ; SOURCE LINE # 133
0242         ?C0006:
0242 22                RET     
             ; FUNCTION _Cy_Em_EEPROM_Init (END)

             ; FUNCTION _Cy_Em_EEPROM_Read (BEGIN)
                                           ; SOURCE LINE # 169
0000 900000      R     MOV     DPTR,#addr
0003 120000      E     LCALL   ?C?LSTXDATA
0006 900000      R     MOV     DPTR,#eepromData
0009 120000      E     LCALL   ?C?PSTXDATA
                                           ; SOURCE LINE # 173
                                           ; SOURCE LINE # 174
000C 900000      R     MOV     DPTR,#ret
000F 7401              MOV     A,#01H
0011 F0                MOVX    @DPTR,A
                                           ; SOURCE LINE # 181
0012 E4                CLR     A
0013 FF                MOV     R7,A
0014 FE                MOV     R6,A
0015 FD                MOV     R5,A
0016 FC                MOV     R4,A
0017 900000      R     MOV     DPTR,#curRdEepromRowNum
001A 120000      E     LCALL   ?C?LSTXDATA
                                           ; SOURCE LINE # 182
001D E4                CLR     A
001E FF                MOV     R7,A
001F FE                MOV     R6,A
0020 FD                MOV     R5,A
0021 FC                MOV     R4,A
0022 900000      R     MOV     DPTR,#dataStartEepromRowNum
0025 120000      E     LCALL   ?C?LSTXDATA
                                           ; SOURCE LINE # 183
C51 COMPILER V9.51   CY_EM_EEPROM                                                          10/24/2019 10:21:11 PAGE 31  

0028 AF01              MOV     R7,AR1
002A AE02              MOV     R6,AR2
002C AD03              MOV     R5,AR3
002E 7C00              MOV     R4,#00H
0030 900000      R     MOV     DPTR,#eeData
0033 120000      E     LCALL   ?C?LSTXDATA
                                           ; SOURCE LINE # 186
0036 900000      R     MOV     DPTR,#size
0039 120000      E     LCALL   ?C?LLDXDATA
003C EF                MOV     A,R7
003D 4E                ORL     A,R6
003E 7003              JNZ     $ + 5H
0040 020000      R     LJMP    ?C0007
0043 900000      R     MOV     DPTR,#context
0046 120000      E     LCALL   ?C?PLDXDATA
0049 E9                MOV     A,R1
004A 240C              ADD     A,#0CH
004C F9                MOV     R1,A
004D E4                CLR     A
004E 3A                ADDC    A,R2
004F FA                MOV     R2,A
0050 120000      E     LCALL   ?C?LLDPTR0
0053 C000              PUSH    AR0
0055 C001              PUSH    AR1
0057 C002              PUSH    AR2
0059 C003              PUSH    AR3
005B 900000      R     MOV     DPTR,#size
005E 120000      E     LCALL   ?C?LLDXDATA
0061 900000      R     MOV     DPTR,#addr
0064 120000      E     LCALL   ?C?LLDXDATA0
0067 120000      E     LCALL   ?C?LADD
006A D003              POP     AR3
006C D002              POP     AR2
006E D001              POP     AR1
0070 D000              POP     AR0
0072 C3                CLR     C
0073 120000      E     LCALL   ?C?ULCMP
0076 5003              JNC     $ + 5H
0078 020000      R     LJMP    ?C0007
007B 900000      R     MOV     DPTR,#eepromData
007E 120000      E     LCALL   ?C?PLDXDATA
0081 E9                MOV     A,R1
0082 4A                ORL     A,R2
0083 4B                ORL     A,R3
0084 7003              JNZ     $ + 5H
0086 020000      R     LJMP    ?C0007
                                           ; SOURCE LINE # 187
                                           ; SOURCE LINE # 188
0089 900000      R     MOV     DPTR,#addr
008C 120000      E     LCALL   ?C?LLDXDATA
008F 900000      R     MOV     DPTR,#rdAddr
0092 120000      E     LCALL   ?C?LSTXDATA
                                           ; SOURCE LINE # 189
0095 900000      R     MOV     DPTR,#size
0098 120000      E     LCALL   ?C?LLDXDATA
009B 900000      R     MOV     DPTR,#rdSize
009E 120000      E     LCALL   ?C?LSTXDATA
                                           ; SOURCE LINE # 191
00A1 900000      R     MOV     DPTR,#context
00A4 120000      E     LCALL   ?C?PLDXDATA
00A7 E9                MOV     A,R1
00A8 2408              ADD     A,#08H
C51 COMPILER V9.51   CY_EM_EEPROM                                                          10/24/2019 10:21:11 PAGE 32  

00AA F9                MOV     R1,A
00AB E4                CLR     A
00AC 3A                ADDC    A,R2
00AD FA                MOV     R2,A
00AE 120000      E     LCALL   ?C?LLDPTR
00B1 A907              MOV     R1,AR7
00B3 AA06              MOV     R2,AR6
00B5 AB05              MOV     R3,AR5
00B7 120000      E     LCALL   ?C?LLDPTR
00BA 900000      R     MOV     DPTR,#seqNum
00BD 120000      E     LCALL   ?C?LSTXDATA
                                           ; SOURCE LINE # 192
00C0 E4                CLR     A
00C1 FF                MOV     R7,A
00C2 FE                MOV     R6,A
00C3 FD                MOV     R5,A
00C4 FC                MOV     R4,A
00C5 900000      R     MOV     DPTR,#updateAddrFlag
00C8 120000      E     LCALL   ?C?LSTXDATA
                                           ; SOURCE LINE # 197
00CB 900000      R     MOV     DPTR,#rdSize
00CE 120000      E     LCALL   ?C?LLDXDATA
00D1 900000      R     MOV     DPTR,#rdAddr
00D4 120000      E     LCALL   ?C?LLDXDATA0
00D7 120000      E     LCALL   ?C?LADD
00DA EF                MOV     A,R7
00DB 24FF              ADD     A,#0FFH
00DD FF                MOV     R7,A
00DE EE                MOV     A,R6
00DF 34FF              ADDC    A,#0FFH
00E1 FE                MOV     R6,A
00E2 ED                MOV     A,R5
00E3 34FF              ADDC    A,#0FFH
00E5 FD                MOV     R5,A
00E6 EC                MOV     A,R4
00E7 34FF              ADDC    A,#0FFH
00E9 FC                MOV     R4,A
00EA E4                CLR     A
00EB 7B80              MOV     R3,#080H
00ED FA                MOV     R2,A
00EE F9                MOV     R1,A
00EF F8                MOV     R0,A
00F0 120000      E     LCALL   ?C?ULDIV
00F3 C004              PUSH    AR4
00F5 C005              PUSH    AR5
00F7 C006              PUSH    AR6
00F9 C007              PUSH    AR7
00FB E4                CLR     A
00FC 7B80              MOV     R3,#080H
00FE FA                MOV     R2,A
00FF F9                MOV     R1,A
0100 F8                MOV     R0,A
0101 900000      R     MOV     DPTR,#rdAddr
0104 120000      E     LCALL   ?C?LLDXDATA
0107 120000      E     LCALL   ?C?ULDIV
010A A804              MOV     R0,AR4
010C A905              MOV     R1,AR5
010E AA06              MOV     R2,AR6
0110 AB07              MOV     R3,AR7
0112 D007              POP     AR7
0114 D006              POP     AR6
0116 D005              POP     AR5
C51 COMPILER V9.51   CY_EM_EEPROM                                                          10/24/2019 10:21:11 PAGE 33  

0118 D004              POP     AR4
011A 120000      E     LCALL   ?C?LSUB
011D EF                MOV     A,R7
011E 2401              ADD     A,#01H
0120 FF                MOV     R7,A
0121 E4                CLR     A
0122 3E                ADDC    A,R6
0123 FE                MOV     R6,A
0124 E4                CLR     A
0125 3D                ADDC    A,R5
0126 FD                MOV     R5,A
0127 E4                CLR     A
0128 3C                ADDC    A,R4
0129 FC                MOV     R4,A
012A 900000      R     MOV     DPTR,#numRowReads
012D 120000      E     LCALL   ?C?LSTXDATA
                                           ; SOURCE LINE # 204
0130 900000      R     MOV     DPTR,#context
0133 120000      E     LCALL   ?C?PLDXDATA
0136 E9                MOV     A,R1
0137 2416              ADD     A,#016H
0139 F9                MOV     R1,A
013A E4                CLR     A
013B 3A                ADDC    A,R2
013C FA                MOV     R2,A
013D 120000      E     LCALL   ?C?LLDPTR0
0140 C000              PUSH    AR0
0142 C001              PUSH    AR1
0144 C002              PUSH    AR2
0146 C003              PUSH    AR3
0148 900000      R     MOV     DPTR,#context
014B 120000      E     LCALL   ?C?PLDXDATA
014E E9                MOV     A,R1
014F 2408              ADD     A,#08H
0151 F9                MOV     R1,A
0152 E4                CLR     A
0153 3A                ADDC    A,R2
0154 FA                MOV     R2,A
0155 120000      E     LCALL   ?C?LLDPTR
0158 D003              POP     AR3
015A D002              POP     AR2
015C D001              POP     AR1
015E D000              POP     AR0
0160 120000      E     LCALL   ?C?LSUB
0163 C004              PUSH    AR4
0165 C005              PUSH    AR5
0167 C006              PUSH    AR6
0169 C007              PUSH    AR7
016B 900000      R     MOV     DPTR,#context
016E 120000      E     LCALL   ?C?PLDXDATA
0171 E9                MOV     A,R1
0172 2404              ADD     A,#04H
0174 F9                MOV     R1,A
0175 E4                CLR     A
0176 3A                ADDC    A,R2
0177 FA                MOV     R2,A
0178 120000      E     LCALL   ?C?LLDPTR
017B E4                CLR     A
017C FB                MOV     R3,A
017D 7A01              MOV     R2,#01H
017F F9                MOV     R1,A
0180 F8                MOV     R0,A
C51 COMPILER V9.51   CY_EM_EEPROM                                                          10/24/2019 10:21:11 PAGE 34  

0181 120000      E     LCALL   ?C?LMUL
0184 A804              MOV     R0,AR4
0186 A905              MOV     R1,AR5
0188 AA06              MOV     R2,AR6
018A AB07              MOV     R3,AR7
018C D007              POP     AR7
018E D006              POP     AR6
0190 D005              POP     AR5
0192 D004              POP     AR4
0194 120000      E     LCALL   ?C?ULDIV
0197 C004              PUSH    AR4
0199 C005              PUSH    AR5
019B C006              PUSH    AR6
019D C007              PUSH    AR7
019F 900000      R     MOV     DPTR,#context
01A2 120000      E     LCALL   ?C?PLDXDATA
01A5 E9                MOV     A,R1
01A6 2404              ADD     A,#04H
01A8 F9                MOV     R1,A
01A9 E4                CLR     A
01AA 3A                ADDC    A,R2
01AB FA                MOV     R2,A
01AC 120000      E     LCALL   ?C?LLDPTR
01AF E4                CLR     A
01B0 FB                MOV     R3,A
01B1 7A01              MOV     R2,#01H
01B3 F9                MOV     R1,A
01B4 F8                MOV     R0,A
01B5 120000      E     LCALL   ?C?LMUL
01B8 D003              POP     AR3
01BA D002              POP     AR2
01BC D001              POP     AR1
01BE D000              POP     AR0
01C0 120000      E     LCALL   ?C?LMUL
01C3 900000      R     MOV     DPTR,#context
01C6 120000      E     LCALL   ?C?PLDXDATA
01C9 E9                MOV     A,R1
01CA 2416              ADD     A,#016H
01CC F9                MOV     R1,A
01CD E4                CLR     A
01CE 3A                ADDC    A,R2
01CF FA                MOV     R2,A
01D0 120000      E     LCALL   ?C?LLDPTR0
01D3 120000      E     LCALL   ?C?LADD
01D6 900000      R     MOV     DPTR,#curEepromBaseAddr
01D9 120000      E     LCALL   ?C?LSTXDATA
                                           ; SOURCE LINE # 210
01DC E4                CLR     A
01DD FF                MOV     R7,A
01DE FE                MOV     R6,A
01DF FD                MOV     R5,A
01E0 FC                MOV     R4,A
01E1 900000      R     MOV     DPTR,#i
01E4 120000      E     LCALL   ?C?LSTXDATA
01E7         ?C0008:
01E7 900000      R     MOV     DPTR,#context
01EA 120000      E     LCALL   ?C?PLDXDATA
01ED E9                MOV     A,R1
01EE 2404              ADD     A,#04H
01F0 F9                MOV     R1,A
01F1 E4                CLR     A
01F2 3A                ADDC    A,R2
C51 COMPILER V9.51   CY_EM_EEPROM                                                          10/24/2019 10:21:11 PAGE 35  

01F3 FA                MOV     R2,A
01F4 120000      E     LCALL   ?C?LLDPTR
01F7 900000      R     MOV     DPTR,#i
01FA 120000      E     LCALL   ?C?LLDXDATA0
01FD C3                CLR     C
01FE 120000      E     LCALL   ?C?ULCMP
0201 4003              JC      $ + 5H
0203 020000      R     LJMP    ?C0009
                                           ; SOURCE LINE # 211
                                           ; SOURCE LINE # 212
0206 E4                CLR     A
0207 7F80              MOV     R7,#080H
0209 FE                MOV     R6,A
020A FD                MOV     R5,A
020B FC                MOV     R4,A
020C 900000      R     MOV     DPTR,#i
020F 120000      E     LCALL   ?C?LLDXDATA0
0212 120000      E     LCALL   ?C?LMUL
0215 900000      R     MOV     DPTR,#rdAddr
0218 120000      E     LCALL   ?C?LLDXDATA0
021B C3                CLR     C
021C 120000      E     LCALL   ?C?ULCMP
021F 5004              JNC     ?C0012
0221 7F00              MOV     R7,#00H
0223 802E              SJMP    ?C0013
0225         ?C0012:
0225 E4                CLR     A
0226 7F80              MOV     R7,#080H
0228 FE                MOV     R6,A
0229 FD                MOV     R5,A
022A FC                MOV     R4,A
022B 900000      R     MOV     DPTR,#i
022E 120000      E     LCALL   ?C?LLDXDATA0
0231 120000      E     LCALL   ?C?LMUL
0234 EF                MOV     A,R7
0235 247F              ADD     A,#07FH
0237 FF                MOV     R7,A
0238 E4                CLR     A
0239 3E                ADDC    A,R6
023A FE                MOV     R6,A
023B E4                CLR     A
023C 3D                ADDC    A,R5
023D FD                MOV     R5,A
023E E4                CLR     A
023F 3C                ADDC    A,R4
0240 FC                MOV     R4,A
0241 900000      R     MOV     DPTR,#rdAddr
0244 120000      E     LCALL   ?C?LLDXDATA0
0247 D3                SETB    C
0248 120000      E     LCALL   ?C?ULCMP
024B 4004              JC      ?C0014
024D 7F00              MOV     R7,#00H
024F 8002              SJMP    ?C0015
0251         ?C0014:
0251 7F01              MOV     R7,#01H
0253         ?C0015:
0253         ?C0013:
0253 EF                MOV     A,R7
0254 601A              JZ      ?C0010
                                           ; SOURCE LINE # 213
                                           ; SOURCE LINE # 214
0256 900000      R     MOV     DPTR,#i
C51 COMPILER V9.51   CY_EM_EEPROM                                                          10/24/2019 10:21:11 PAGE 36  

0259 120000      E     LCALL   ?C?LLDXDATA
025C 900000      R     MOV     DPTR,#dataStartEepromRowNum
025F 120000      E     LCALL   ?C?LSTXDATA
                                           ; SOURCE LINE # 215
0262 900000      R     MOV     DPTR,#dataStartEepromRowNum
0265 120000      E     LCALL   ?C?LLDXDATA
0268 900000      R     MOV     DPTR,#curRdEepromRowNum
026B 120000      E     LCALL   ?C?LSTXDATA
                                           ; SOURCE LINE # 216
026E 8018              SJMP    ?C0009
                                           ; SOURCE LINE # 217
                                           ; SOURCE LINE # 218
0270         ?C0010:
0270 900000      R     MOV     DPTR,#i
0273 120000      E     LCALL   ?C?LLDXDATA
0276 E4                CLR     A
0277 7B01              MOV     R3,#01H
0279 FA                MOV     R2,A
027A F9                MOV     R1,A
027B F8                MOV     R0,A
027C 120000      E     LCALL   ?C?LADD
027F 900000      R     MOV     DPTR,#i
0282 120000      E     LCALL   ?C?LSTXDATA
0285 020000      R     LJMP    ?C0008
0288         ?C0009:
                                           ; SOURCE LINE # 221
0288 900000      R     MOV     DPTR,#context
028B 120000      E     LCALL   ?C?PLDXDATA
028E E9                MOV     A,R1
028F 2408              ADD     A,#08H
0291 F9                MOV     R1,A
0292 E4                CLR     A
0293 3A                ADDC    A,R2
0294 FA                MOV     R2,A
0295 120000      E     LCALL   ?C?LLDPTR
0298 900000      R     MOV     DPTR,#curEepromBaseAddr
029B 120000      E     LCALL   ?C?LLDXDATA0
029E 120000      E     LCALL   ?C?LSUB
02A1 E4                CLR     A
02A2 FB                MOV     R3,A
02A3 7A01              MOV     R2,#01H
02A5 F9                MOV     R1,A
02A6 F8                MOV     R0,A
02A7 120000      E     LCALL   ?C?ULDIV
02AA 900000      R     MOV     DPTR,#actEepromRowNum
02AD 120000      E     LCALL   ?C?LSTXDATA
                                           ; SOURCE LINE # 224
02B0 900000      R     MOV     DPTR,#context
02B3 120000      E     LCALL   ?C?PLDXDATA
02B6 E9                MOV     A,R1
02B7 2410              ADD     A,#010H
02B9 F9                MOV     R1,A
02BA E4                CLR     A
02BB 3A                ADDC    A,R2
02BC FA                MOV     R2,A
02BD 120000      E     LCALL   ?C?LLDPTR
02C0 D3                SETB    C
02C1 EF                MOV     A,R7
02C2 9401              SUBB    A,#01H
02C4 EE                MOV     A,R6
02C5 9400              SUBB    A,#00H
02C7 405D              JC      ?C0016
C51 COMPILER V9.51   CY_EM_EEPROM                                                          10/24/2019 10:21:11 PAGE 37  

                                           ; SOURCE LINE # 225
                                           ; SOURCE LINE # 226
02C9 900000      R     MOV     DPTR,#numRowReads
02CC 120000      E     LCALL   ?C?LLDXDATA
02CF EF                MOV     A,R7
02D0 24FF              ADD     A,#0FFH
02D2 FF                MOV     R7,A
02D3 EE                MOV     A,R6
02D4 34FF              ADDC    A,#0FFH
02D6 FE                MOV     R6,A
02D7 ED                MOV     A,R5
02D8 34FF              ADDC    A,#0FFH
02DA FD                MOV     R5,A
02DB EC                MOV     A,R4
02DC 34FF              ADDC    A,#0FFH
02DE FC                MOV     R4,A
02DF 900000      R     MOV     DPTR,#dataStartEepromRowNum
02E2 120000      E     LCALL   ?C?LLDXDATA0
02E5 120000      E     LCALL   ?C?LADD
02E8 900000      R     MOV     DPTR,#dataEndEepromRowNum
02EB 120000      E     LCALL   ?C?LSTXDATA
                                           ; SOURCE LINE # 229
02EE 900000      R     MOV     DPTR,#actEepromRowNum
02F1 120000      E     LCALL   ?C?LLDXDATA
02F4 900000      R     MOV     DPTR,#dataStartEepromRowNum
02F7 120000      E     LCALL   ?C?LLDXDATA0
02FA D3                SETB    C
02FB 120000      E     LCALL   ?C?ULCMP
02FE 4004              JC      ?C0017
0300 7F01              MOV     R7,#01H
0302 8018              SJMP    ?C0018
0304         ?C0017:
0304 900000      R     MOV     DPTR,#actEepromRowNum
0307 120000      E     LCALL   ?C?LLDXDATA
030A 900000      R     MOV     DPTR,#dataEndEepromRowNum
030D 120000      E     LCALL   ?C?LLDXDATA0
0310 D3                SETB    C
0311 120000      E     LCALL   ?C?ULCMP
0314 4004              JC      ?C0019
0316 7F01              MOV     R7,#01H
0318 8002              SJMP    ?C0020
031A         ?C0019:
031A 7F00              MOV     R7,#00H
031C         ?C0020:
031C         ?C0018:
031C E4                CLR     A
031D FC                MOV     R4,A
031E FD                MOV     R5,A
031F FE                MOV     R6,A
0320 900000      R     MOV     DPTR,#updateAddrFlag
0323 120000      E     LCALL   ?C?LSTXDATA
                                           ; SOURCE LINE # 231
0326         ?C0016:
                                           ; SOURCE LINE # 234
0326 E4                CLR     A
0327 FF                MOV     R7,A
0328 FE                MOV     R6,A
0329 FD                MOV     R5,A
032A FC                MOV     R4,A
032B 900000      R     MOV     DPTR,#i
032E 120000      E     LCALL   ?C?LSTXDATA
0331         ?C0021:
C51 COMPILER V9.51   CY_EM_EEPROM                                                          10/24/2019 10:21:11 PAGE 38  

0331 900000      R     MOV     DPTR,#numRowReads
0334 120000      E     LCALL   ?C?LLDXDATA
0337 900000      R     MOV     DPTR,#i
033A 120000      E     LCALL   ?C?LLDXDATA0
033D C3                CLR     C
033E 120000      E     LCALL   ?C?ULCMP
0341 4003              JC      $ + 5H
0343 020000      R     LJMP    ?C0022
                                           ; SOURCE LINE # 235
                                           ; SOURCE LINE # 236
0346 E4                CLR     A
0347 FF                MOV     R7,A
0348 7E01              MOV     R6,#01H
034A FD                MOV     R5,A
034B FC                MOV     R4,A
034C 900000      R     MOV     DPTR,#curRdEepromRowNum
034F 120000      E     LCALL   ?C?LLDXDATA0
0352 120000      E     LCALL   ?C?LMUL
0355 900000      R     MOV     DPTR,#curEepromBaseAddr
0358 120000      E     LCALL   ?C?LLDXDATA0
035B 120000      E     LCALL   ?C?LADD
035E 900000      R     MOV     DPTR,#startRowAddr
0361 120000      E     LCALL   ?C?LSTXDATA
                                           ; SOURCE LINE # 237
0364 900000      R     MOV     DPTR,#rdAddr
0367 120000      E     LCALL   ?C?LLDXDATA
036A EF                MOV     A,R7
036B 547F              ANL     A,#07FH
036D FF                MOV     R7,A
036E E4                CLR     A
036F EF                MOV     A,R7
0370 2480              ADD     A,#080H
0372 FF                MOV     R7,A
0373 E4                CLR     A
0374 33                RLC     A
0375 FE                MOV     R6,A
0376 E4                CLR     A
0377 33                RLC     A
0378 FD                MOV     R5,A
0379 E4                CLR     A
037A 33                RLC     A
037B FC                MOV     R4,A
037C 900000      R     MOV     DPTR,#curRowOffset
037F 120000      E     LCALL   ?C?LSTXDATA
                                           ; SOURCE LINE # 242
0382 900000      R     MOV     DPTR,#i
0385 120000      E     LCALL   ?C?LLDXDATA
0388 EF                MOV     A,R7
0389 2401              ADD     A,#01H
038B FF                MOV     R7,A
038C E4                CLR     A
038D 3E                ADDC    A,R6
038E FE                MOV     R6,A
038F E4                CLR     A
0390 3D                ADDC    A,R5
0391 FD                MOV     R5,A
0392 E4                CLR     A
0393 3C                ADDC    A,R4
0394 FC                MOV     R4,A
0395 900000      R     MOV     DPTR,#numRowReads
0398 120000      E     LCALL   ?C?LLDXDATA0
039B D3                SETB    C
C51 COMPILER V9.51   CY_EM_EEPROM                                                          10/24/2019 10:21:11 PAGE 39  

039C 120000      E     LCALL   ?C?ULCMP
039F 4024              JC      ?C0024
                                           ; SOURCE LINE # 243
                                           ; SOURCE LINE # 244
03A1 900000      R     MOV     DPTR,#rdAddr
03A4 120000      E     LCALL   ?C?LLDXDATA
03A7 EF                MOV     A,R7
03A8 547F              ANL     A,#07FH
03AA FB                MOV     R3,A
03AB E4                CLR     A
03AC C3                CLR     C
03AD 7480              MOV     A,#080H
03AF 9B                SUBB    A,R3
03B0 FF                MOV     R7,A
03B1 E4                CLR     A
03B2 9400              SUBB    A,#00H
03B4 FE                MOV     R6,A
03B5 E4                CLR     A
03B6 9400              SUBB    A,#00H
03B8 FD                MOV     R5,A
03B9 E4                CLR     A
03BA 9400              SUBB    A,#00H
03BC FC                MOV     R4,A
03BD 900000      R     MOV     DPTR,#numBytesToRead
03C0 120000      E     LCALL   ?C?LSTXDATA
                                           ; SOURCE LINE # 245
03C3 800C              SJMP    ?C0025
03C5         ?C0024:
                                           ; SOURCE LINE # 247
                                           ; SOURCE LINE # 248
03C5 900000      R     MOV     DPTR,#rdSize
03C8 120000      E     LCALL   ?C?LLDXDATA
03CB 900000      R     MOV     DPTR,#numBytesToRead
03CE 120000      E     LCALL   ?C?LSTXDATA
                                           ; SOURCE LINE # 249
03D1         ?C0025:
                                           ; SOURCE LINE # 254
03D1 900000      R     MOV     DPTR,#updateAddrFlag
03D4 120000      E     LCALL   ?C?LLDXDATA
03D7 EF                MOV     A,R7
03D8 4E                ORL     A,R6
03D9 7003              JNZ     $ + 5H
03DB 020000      R     LJMP    ?C0026
03DE 900000      R     MOV     DPTR,#actEepromRowNum
03E1 120000      E     LCALL   ?C?LLDXDATA
03E4 900000      R     MOV     DPTR,#curRdEepromRowNum
03E7 120000      E     LCALL   ?C?LLDXDATA0
03EA D3                SETB    C
03EB 120000      E     LCALL   ?C?ULCMP
03EE 5003              JNC     $ + 5H
03F0 020000      R     LJMP    ?C0026
                                           ; SOURCE LINE # 255
                                           ; SOURCE LINE # 256
03F3 900000      R     MOV     DPTR,#startRowAddr
03F6 120000      E     LCALL   ?C?LLDXDATA
03F9 C004              PUSH    AR4
03FB C005              PUSH    AR5
03FD C006              PUSH    AR6
03FF C007              PUSH    AR7
0401 900000      R     MOV     DPTR,#context
0404 120000      E     LCALL   ?C?PLDXDATA
0407 E9                MOV     A,R1
C51 COMPILER V9.51   CY_EM_EEPROM                                                          10/24/2019 10:21:11 PAGE 40  

0408 2404              ADD     A,#04H
040A F9                MOV     R1,A
040B E4                CLR     A
040C 3A                ADDC    A,R2
040D FA                MOV     R2,A
040E 120000      E     LCALL   ?C?LLDPTR
0411 E4                CLR     A
0412 FB                MOV     R3,A
0413 7A01              MOV     R2,#01H
0415 F9                MOV     R1,A
0416 F8                MOV     R0,A
0417 120000      E     LCALL   ?C?LMUL
041A A804              MOV     R0,AR4
041C A905              MOV     R1,AR5
041E AA06              MOV     R2,AR6
0420 AB07              MOV     R3,AR7
0422 D007              POP     AR7
0424 D006              POP     AR6
0426 D005              POP     AR5
0428 D004              POP     AR4
042A 120000      E     LCALL   ?C?LSUB
042D 900000      R     MOV     DPTR,#startRowAddr
0430 120000      E     LCALL   ?C?LSTXDATA
                                           ; SOURCE LINE # 258
0433 900000      R     MOV     DPTR,#context
0436 120000      E     LCALL   ?C?PLDXDATA
0439 E9                MOV     A,R1
043A 2416              ADD     A,#016H
043C F9                MOV     R1,A
043D E4                CLR     A
043E 3A                ADDC    A,R2
043F FA                MOV     R2,A
0440 120000      E     LCALL   ?C?LLDPTR
0443 900000      R     MOV     DPTR,#startRowAddr
0446 120000      E     LCALL   ?C?LLDXDATA0
0449 C3                CLR     C
044A 120000      E     LCALL   ?C?ULCMP
044D 5044              JNC     ?C0026
                                           ; SOURCE LINE # 259
                                           ; SOURCE LINE # 260
044F 900000      R     MOV     DPTR,#context
0452 120000      E     LCALL   ?C?PLDXDATA
0455 E9                MOV     A,R1
0456 2404              ADD     A,#04H
0458 F9                MOV     R1,A
0459 E4                CLR     A
045A 3A                ADDC    A,R2
045B FA                MOV     R2,A
045C 120000      E     LCALL   ?C?LLDPTR
045F 900000      R     MOV     DPTR,#curRdEepromRowNum
0462 120000      E     LCALL   ?C?LLDXDATA0
0465 120000      E     LCALL   ?C?LSUB
0468 E4                CLR     A
0469 FB                MOV     R3,A
046A 7A01              MOV     R2,#01H
046C F9                MOV     R1,A
046D F8                MOV     R0,A
046E 120000      E     LCALL   ?C?LMUL
0471 C004              PUSH    AR4
0473 C005              PUSH    AR5
0475 C006              PUSH    AR6
0477 C007              PUSH    AR7
C51 COMPILER V9.51   CY_EM_EEPROM                                                          10/24/2019 10:21:11 PAGE 41  

0479 900000      R     MOV     DPTR,#context
047C 120000      E     LCALL   ?C?PLDXDATA
047F 120000      E     LCALL   ?C?LLDPTR
0482 D003              POP     AR3
0484 D002              POP     AR2
0486 D001              POP     AR1
0488 D000              POP     AR0
048A 120000      E     LCALL   ?C?LSUB
048D 900000      R     MOV     DPTR,#startRowAddr
0490 120000      E     LCALL   ?C?LSTXDATA
                                           ; SOURCE LINE # 262
                                           ; SOURCE LINE # 263
0493         ?C0026:
                                           ; SOURCE LINE # 265
0493 900000      R     MOV     DPTR,#context
0496 120000      E     LCALL   ?C?PLDXDATA
0499 E9                MOV     A,R1
049A 2414              ADD     A,#014H
049C F9                MOV     R1,A
049D E4                CLR     A
049E 3A                ADDC    A,R2
049F FA                MOV     R2,A
04A0 120000      E     LCALL   ?C?CLDPTR
04A3 6045              JZ      ?C0028
                                           ; SOURCE LINE # 266
                                           ; SOURCE LINE # 270
04A5 900000      R     MOV     DPTR,#eeData
04A8 120000      E     LCALL   ?C?LLDXDATA
04AB 900000      R     MOV     DPTR,#?_CheckCrcAndCopy?BYTE+04H
04AE 120000      E     LCALL   ?C?LSTXDATA
04B1 900000      R     MOV     DPTR,#curRowOffset
04B4 120000      E     LCALL   ?C?LLDXDATA
04B7 900000      R     MOV     DPTR,#?_CheckCrcAndCopy?BYTE+08H
04BA 120000      E     LCALL   ?C?LSTXDATA
04BD 900000      R     MOV     DPTR,#numBytesToRead
04C0 120000      E     LCALL   ?C?LLDXDATA
04C3 900000      R     MOV     DPTR,#?_CheckCrcAndCopy?BYTE+0CH
04C6 120000      E     LCALL   ?C?LSTXDATA
04C9 900000      R     MOV     DPTR,#context
04CC 120000      E     LCALL   ?C?PLDXDATA
04CF 900000      R     MOV     DPTR,#?_CheckCrcAndCopy?BYTE+010H
04D2 120000      E     LCALL   ?C?PSTXDATA
04D5 900000      R     MOV     DPTR,#startRowAddr
04D8 120000      E     LCALL   ?C?LLDXDATA
04DB 120000      R     LCALL   _CheckCrcAndCopy
04DE 900000      R     MOV     DPTR,#ret
04E1 EF                MOV     A,R7
04E2 F0                MOVX    @DPTR,A
                                           ; SOURCE LINE # 272
04E3 603A              JZ      ?C0030
                                           ; SOURCE LINE # 273
                                           ; SOURCE LINE # 274
04E5 020000      R     LJMP    ?C0022
                                           ; SOURCE LINE # 275
04E8         ?C0029:
                                           ; SOURCE LINE # 276
04E8 8035              SJMP    ?C0030
04EA         ?C0028:
                                           ; SOURCE LINE # 278
                                           ; SOURCE LINE # 281
04EA 900000      R     MOV     DPTR,#numBytesToRead
04ED 120000      E     LCALL   ?C?LLDXDATA
C51 COMPILER V9.51   CY_EM_EEPROM                                                          10/24/2019 10:21:11 PAGE 42  

04F0 C006              PUSH    AR6
04F2 C007              PUSH    AR7
04F4 900000      R     MOV     DPTR,#curRowOffset
04F7 120000      E     LCALL   ?C?LLDXDATA
04FA 900000      R     MOV     DPTR,#startRowAddr
04FD 120000      E     LCALL   ?C?LLDXDATA0
0500 120000      E     LCALL   ?C?LADD
0503 A907              MOV     R1,AR7
0505 AA06              MOV     R2,AR6
0507 AB05              MOV     R3,AR5
0509 900000      R     MOV     DPTR,#eeData
050C 120000      E     LCALL   ?C?LLDXDATA
050F A807              MOV     R0,AR7
0511 AC06              MOV     R4,AR6
0513 D007              POP     AR7
0515 D006              POP     AR6
0517 120000      E     LCALL   ?C?COPYAMD
                                           ; SOURCE LINE # 285
051A E4                CLR     A
051B 900000      R     MOV     DPTR,#ret
051E F0                MOVX    @DPTR,A
                                           ; SOURCE LINE # 286
051F         ?C0030:
                                           ; SOURCE LINE # 289
051F 900000      R     MOV     DPTR,#rdAddr
0522 120000      E     LCALL   ?C?LLDXDATA
0525 900000      R     MOV     DPTR,#numBytesToRead
0528 120000      E     LCALL   ?C?LLDXDATA0
052B 120000      E     LCALL   ?C?LADD
052E 900000      R     MOV     DPTR,#rdAddr
0531 120000      E     LCALL   ?C?LSTXDATA
                                           ; SOURCE LINE # 290
0534 900000      R     MOV     DPTR,#rdSize
0537 120000      E     LCALL   ?C?LLDXDATA
053A 900000      R     MOV     DPTR,#numBytesToRead
053D 120000      E     LCALL   ?C?LLDXDATA0
0540 120000      E     LCALL   ?C?LSUB
0543 900000      R     MOV     DPTR,#rdSize
0546 120000      E     LCALL   ?C?LSTXDATA
                                           ; SOURCE LINE # 291
0549 900000      R     MOV     DPTR,#eeData
054C 120000      E     LCALL   ?C?LLDXDATA
054F 900000      R     MOV     DPTR,#numBytesToRead
0552 120000      E     LCALL   ?C?LLDXDATA0
0555 120000      E     LCALL   ?C?LADD
0558 900000      R     MOV     DPTR,#eeData
055B 120000      E     LCALL   ?C?LSTXDATA
                                           ; SOURCE LINE # 292
055E 900000      R     MOV     DPTR,#curRdEepromRowNum
0561 120000      E     LCALL   ?C?LLDXDATA
0564 E4                CLR     A
0565 7B01              MOV     R3,#01H
0567 FA                MOV     R2,A
0568 F9                MOV     R1,A
0569 F8                MOV     R0,A
056A 120000      E     LCALL   ?C?LADD
056D 900000      R     MOV     DPTR,#curRdEepromRowNum
0570 120000      E     LCALL   ?C?LSTXDATA
                                           ; SOURCE LINE # 293
0573 900000      R     MOV     DPTR,#i
0576 120000      E     LCALL   ?C?LLDXDATA
0579 E4                CLR     A
C51 COMPILER V9.51   CY_EM_EEPROM                                                          10/24/2019 10:21:11 PAGE 43  

057A F8                MOV     R0,A
057B 120000      E     LCALL   ?C?LADD
057E 900000      R     MOV     DPTR,#i
0581 120000      E     LCALL   ?C?LSTXDATA
0584 020000      R     LJMP    ?C0021
0587         ?C0022:
                                           ; SOURCE LINE # 303
0587 900000      R     MOV     DPTR,#ret
058A E0                MOVX    A,@DPTR
058B 6003              JZ      $ + 5H
058D 020000      R     LJMP    ?C0007
0590 900000      R     MOV     DPTR,#seqNum
0593 120000      E     LCALL   ?C?LLDXDATA
0596 EF                MOV     A,R7
0597 4E                ORL     A,R6
0598 7003              JNZ     $ + 5H
059A 020000      R     LJMP    ?C0007
                                           ; SOURCE LINE # 304
                                           ; SOURCE LINE # 305
059D 900000      R     MOV     DPTR,#context
05A0 120000      E     LCALL   ?C?PLDXDATA
05A3 E9                MOV     A,R1
05A4 2404              ADD     A,#04H
05A6 F9                MOV     R1,A
05A7 E4                CLR     A
05A8 3A                ADDC    A,R2
05A9 FA                MOV     R2,A
05AA 120000      E     LCALL   ?C?LLDPTR
05AD 900000      R     MOV     DPTR,#seqNum
05B0 120000      E     LCALL   ?C?LLDXDATA0
05B3 C3                CLR     C
05B4 120000      E     LCALL   ?C?ULCMP
05B7 4012              JC      ?C0032
05B9 900000      R     MOV     DPTR,#context
05BC 120000      E     LCALL   ?C?PLDXDATA
05BF E9                MOV     A,R1
05C0 2404              ADD     A,#04H
05C2 F9                MOV     R1,A
05C3 E4                CLR     A
05C4 3A                ADDC    A,R2
05C5 FA                MOV     R2,A
05C6 120000      E     LCALL   ?C?LLDPTR
05C9 8006              SJMP    ?C0033
05CB         ?C0032:
05CB 900000      R     MOV     DPTR,#seqNum
05CE 120000      E     LCALL   ?C?LLDXDATA
05D1         ?C0033:
05D1 900000      R     MOV     DPTR,#numRowReads
05D4 120000      E     LCALL   ?C?LSTXDATA
                                           ; SOURCE LINE # 306
05D7 900000      R     MOV     DPTR,#numRowReads
05DA 120000      E     LCALL   ?C?LLDXDATA
05DD 74FF              MOV     A,#0FFH
05DF FB                MOV     R3,A
05E0 FA                MOV     R2,A
05E1 F9                MOV     R1,A
05E2 F8                MOV     R0,A
05E3 120000      E     LCALL   ?C?LADD
05E6 900000      R     MOV     DPTR,#numRowReads
05E9 120000      E     LCALL   ?C?LSTXDATA
                                           ; SOURCE LINE # 308
05EC 900000      R     MOV     DPTR,#numRowReads
C51 COMPILER V9.51   CY_EM_EEPROM                                                          10/24/2019 10:21:11 PAGE 44  

05EF 120000      E     LCALL   ?C?LLDXDATA0
05F2 900000      R     MOV     DPTR,#seqNum
05F5 120000      E     LCALL   ?C?LLDXDATA
05F8 120000      E     LCALL   ?C?LSUB
05FB 900000      R     MOV     DPTR,#i
05FE 120000      E     LCALL   ?C?LSTXDATA
0601         ?C0034:
0601 900000      R     MOV     DPTR,#seqNum
0604 120000      E     LCALL   ?C?LLDXDATA
0607 900000      R     MOV     DPTR,#i
060A 120000      E     LCALL   ?C?LLDXDATA0
060D D3                SETB    C
060E 120000      E     LCALL   ?C?ULCMP
0611 4003              JC      $ + 5H
0613 020000      R     LJMP    ?C0007
                                           ; SOURCE LINE # 309
                                           ; SOURCE LINE # 310
0616 900000      R     MOV     DPTR,#i
0619 120000      E     LCALL   ?C?LLDXDATA
061C 900000      R     MOV     DPTR,#context
061F 120000      E     LCALL   ?C?PLDXDATA
0622 120000      R     LCALL   _GetRowAddrBySeqNum
0625 900000      R     MOV     DPTR,#startRowAddr
0628 120000      E     LCALL   ?C?LSTXDATA
                                           ; SOURCE LINE # 312
062B 900000      R     MOV     DPTR,#startRowAddr
062E 120000      E     LCALL   ?C?LLDXDATA
0631 EF                MOV     A,R7
0632 4E                ORL     A,R6
0633 7003              JNZ     $ + 5H
0635 020000      R     LJMP    ?C0036
                                           ; SOURCE LINE # 313
                                           ; SOURCE LINE # 315
0638 900000      R     MOV     DPTR,#startRowAddr
063B 120000      E     LCALL   ?C?LLDXDATA
063E EF                MOV     A,R7
063F 2404              ADD     A,#04H
0641 FF                MOV     R7,A
0642 E4                CLR     A
0643 3E                ADDC    A,R6
0644 FE                MOV     R6,A
0645 E4                CLR     A
0646 3D                ADDC    A,R5
0647 FD                MOV     R5,A
0648 E4                CLR     A
0649 3C                ADDC    A,R4
064A A907              MOV     R1,AR7
064C AA06              MOV     R2,AR6
064E AB05              MOV     R3,AR5
0650 120000      E     LCALL   ?C?LLDPTR
0653 900000      R     MOV     DPTR,#startAddr
0656 120000      E     LCALL   ?C?LSTXDATA
                                           ; SOURCE LINE # 316
0659 900000      R     MOV     DPTR,#startRowAddr
065C 120000      E     LCALL   ?C?LLDXDATA
065F EF                MOV     A,R7
0660 2408              ADD     A,#08H
0662 FF                MOV     R7,A
0663 E4                CLR     A
0664 3E                ADDC    A,R6
0665 FE                MOV     R6,A
0666 E4                CLR     A
C51 COMPILER V9.51   CY_EM_EEPROM                                                          10/24/2019 10:21:11 PAGE 45  

0667 3D                ADDC    A,R5
0668 FD                MOV     R5,A
0669 E4                CLR     A
066A 3C                ADDC    A,R4
066B A907              MOV     R1,AR7
066D AA06              MOV     R2,AR6
066F AB05              MOV     R3,AR5
0671 120000      E     LCALL   ?C?LLDPTR
0674 900000      R     MOV     DPTR,#startAddr
0677 120000      E     LCALL   ?C?LLDXDATA0
067A 120000      E     LCALL   ?C?LADD
067D 900000      R     MOV     DPTR,#endAddr
0680 120000      E     LCALL   ?C?LSTXDATA
                                           ; SOURCE LINE # 319
0683 900000      R     MOV     DPTR,#addr
0686 120000      E     LCALL   ?C?LLDXDATA
0689 900000      R     MOV     DPTR,#startAddr
068C 120000      E     LCALL   ?C?LLDXDATA0
068F D3                SETB    C
0690 120000      E     LCALL   ?C?ULCMP
0693 4023              JC      ?C0039
0695 900000      R     MOV     DPTR,#size
0698 120000      E     LCALL   ?C?LLDXDATA
069B 900000      R     MOV     DPTR,#addr
069E 120000      E     LCALL   ?C?LLDXDATA0
06A1 120000      E     LCALL   ?C?LADD
06A4 900000      R     MOV     DPTR,#startAddr
06A7 120000      E     LCALL   ?C?LLDXDATA0
06AA C3                CLR     C
06AB 120000      E     LCALL   ?C?ULCMP
06AE 4004              JC      ?C0041
06B0 7F00              MOV     R7,#00H
06B2 8002              SJMP    ?C0042
06B4         ?C0041:
06B4 7F01              MOV     R7,#01H
06B6         ?C0042:
06B6 8018              SJMP    ?C0040
06B8         ?C0039:
06B8 900000      R     MOV     DPTR,#endAddr
06BB 120000      E     LCALL   ?C?LLDXDATA
06BE 900000      R     MOV     DPTR,#addr
06C1 120000      E     LCALL   ?C?LLDXDATA0
06C4 C3                CLR     C
06C5 120000      E     LCALL   ?C?ULCMP
06C8 4004              JC      ?C0043
06CA 7F00              MOV     R7,#00H
06CC 8002              SJMP    ?C0044
06CE         ?C0043:
06CE 7F01              MOV     R7,#01H
06D0         ?C0044:
06D0         ?C0040:
06D0 EF                MOV     A,R7
06D1 7003              JNZ     $ + 5H
06D3 020000      R     LJMP    ?C0036
                                           ; SOURCE LINE # 320
                                           ; SOURCE LINE # 321
06D6 900000      R     MOV     DPTR,#addr
06D9 120000      E     LCALL   ?C?LLDXDATA
06DC 900000      R     MOV     DPTR,#startAddr
06DF 120000      E     LCALL   ?C?LLDXDATA0
06E2 D3                SETB    C
06E3 120000      E     LCALL   ?C?ULCMP
C51 COMPILER V9.51   CY_EM_EEPROM                                                          10/24/2019 10:21:11 PAGE 46  

06E6 4007              JC      ?C0045
06E8 E4                CLR     A
06E9 FF                MOV     R7,A
06EA FE                MOV     R6,A
06EB FD                MOV     R5,A
06EC FC                MOV     R4,A
06ED 800F              SJMP    ?C0046
06EF         ?C0045:
06EF 900000      R     MOV     DPTR,#startAddr
06F2 120000      E     LCALL   ?C?LLDXDATA0
06F5 900000      R     MOV     DPTR,#addr
06F8 120000      E     LCALL   ?C?LLDXDATA
06FB 120000      E     LCALL   ?C?LSUB
06FE         ?C0046:
06FE 900000      R     MOV     DPTR,#srcOffset
0701 120000      E     LCALL   ?C?LSTXDATA
                                           ; SOURCE LINE # 322
0704 900000      R     MOV     DPTR,#addr
0707 120000      E     LCALL   ?C?LLDXDATA
070A 900000      R     MOV     DPTR,#startAddr
070D 120000      E     LCALL   ?C?LLDXDATA0
0710 D3                SETB    C
0711 120000      E     LCALL   ?C?ULCMP
0714 4011              JC      ?C0047
0716 900000      R     MOV     DPTR,#addr
0719 120000      E     LCALL   ?C?LLDXDATA0
071C 900000      R     MOV     DPTR,#startAddr
071F 120000      E     LCALL   ?C?LLDXDATA
0722 120000      E     LCALL   ?C?LSUB
0725 8005              SJMP    ?C0048
0727         ?C0047:
0727 E4                CLR     A
0728 FF                MOV     R7,A
0729 FE                MOV     R6,A
072A FD                MOV     R5,A
072B FC                MOV     R4,A
072C         ?C0048:
072C 900000      R     MOV     DPTR,#dstOffset
072F 120000      E     LCALL   ?C?LSTXDATA
                                           ; SOURCE LINE # 323
0732 900000      R     MOV     DPTR,#addr
0735 120000      E     LCALL   ?C?LLDXDATA
0738 900000      R     MOV     DPTR,#startAddr
073B 120000      E     LCALL   ?C?LLDXDATA0
073E D3                SETB    C
073F 120000      E     LCALL   ?C?ULCMP
0742 4008              JC      ?C0049
0744 900000      R     MOV     DPTR,#startAddr
0747 120000      E     LCALL   ?C?LLDXDATA
074A 8006              SJMP    ?C0050
074C         ?C0049:
074C 900000      R     MOV     DPTR,#addr
074F 120000      E     LCALL   ?C?LLDXDATA
0752         ?C0050:
0752 900000      R     MOV     DPTR,#rdAddr
0755 120000      E     LCALL   ?C?LSTXDATA
                                           ; SOURCE LINE # 325
0758 900000      R     MOV     DPTR,#srcOffset
075B 120000      E     LCALL   ?C?LLDXDATA
075E EF                MOV     A,R7
075F 240C              ADD     A,#0CH
0761 FF                MOV     R7,A
C51 COMPILER V9.51   CY_EM_EEPROM                                                          10/24/2019 10:21:11 PAGE 47  

0762 E4                CLR     A
0763 3E                ADDC    A,R6
0764 FE                MOV     R6,A
0765 E4                CLR     A
0766 3D                ADDC    A,R5
0767 FD                MOV     R5,A
0768 E4                CLR     A
0769 3C                ADDC    A,R4
076A FC                MOV     R4,A
076B 900000      R     MOV     DPTR,#srcOffset
076E 120000      E     LCALL   ?C?LSTXDATA
                                           ; SOURCE LINE # 328
0771 900000      R     MOV     DPTR,#size
0774 120000      E     LCALL   ?C?LLDXDATA
0777 900000      R     MOV     DPTR,#addr
077A 120000      E     LCALL   ?C?LLDXDATA0
077D 120000      E     LCALL   ?C?LADD
0780 900000      R     MOV     DPTR,#endAddr
0783 120000      E     LCALL   ?C?LLDXDATA0
0786 C3                CLR     C
0787 120000      E     LCALL   ?C?ULCMP
078A 5008              JNC     ?C0051
078C 900000      R     MOV     DPTR,#endAddr
078F 120000      E     LCALL   ?C?LLDXDATA
0792 800F              SJMP    ?C0052
0794         ?C0051:
0794 900000      R     MOV     DPTR,#size
0797 120000      E     LCALL   ?C?LLDXDATA
079A 900000      R     MOV     DPTR,#addr
079D 120000      E     LCALL   ?C?LLDXDATA0
07A0 120000      E     LCALL   ?C?LADD
07A3         ?C0052:
07A3 900000      R     MOV     DPTR,#rdAddr
07A6 120000      E     LCALL   ?C?LLDXDATA0
07A9 120000      E     LCALL   ?C?LSUB
07AC 900000      R     MOV     DPTR,#numBytesToRead
07AF 120000      E     LCALL   ?C?LSTXDATA
                                           ; SOURCE LINE # 331
07B2 900000      R     MOV     DPTR,#eepromData
07B5 120000      E     LCALL   ?C?PLDXDATA
07B8 AF01              MOV     R7,AR1
07BA AE02              MOV     R6,AR2
07BC AD03              MOV     R5,AR3
07BE 7C00              MOV     R4,#00H
07C0 900000      R     MOV     DPTR,#dstOffset
07C3 120000      E     LCALL   ?C?LLDXDATA0
07C6 120000      E     LCALL   ?C?LADD
07C9 900000      R     MOV     DPTR,#eeData
07CC 120000      E     LCALL   ?C?LSTXDATA
                                           ; SOURCE LINE # 338
07CF 900000      R     MOV     DPTR,#context
07D2 120000      E     LCALL   ?C?PLDXDATA
07D5 E9                MOV     A,R1
07D6 2414              ADD     A,#014H
07D8 F9                MOV     R1,A
07D9 E4                CLR     A
07DA 3A                ADDC    A,R2
07DB FA                MOV     R2,A
07DC 120000      E     LCALL   ?C?CLDPTR
07DF 6044              JZ      ?C0053
                                           ; SOURCE LINE # 339
                                           ; SOURCE LINE # 340
C51 COMPILER V9.51   CY_EM_EEPROM                                                          10/24/2019 10:21:11 PAGE 48  

07E1 900000      R     MOV     DPTR,#eeData
07E4 120000      E     LCALL   ?C?LLDXDATA
07E7 900000      R     MOV     DPTR,#?_CheckCrcAndCopy?BYTE+04H
07EA 120000      E     LCALL   ?C?LSTXDATA
07ED 900000      R     MOV     DPTR,#srcOffset
07F0 120000      E     LCALL   ?C?LLDXDATA
07F3 900000      R     MOV     DPTR,#?_CheckCrcAndCopy?BYTE+08H
07F6 120000      E     LCALL   ?C?LSTXDATA
07F9 900000      R     MOV     DPTR,#numBytesToRead
07FC 120000      E     LCALL   ?C?LLDXDATA
07FF 900000      R     MOV     DPTR,#?_CheckCrcAndCopy?BYTE+0CH
0802 120000      E     LCALL   ?C?LSTXDATA
0805 900000      R     MOV     DPTR,#context
0808 120000      E     LCALL   ?C?PLDXDATA
080B 900000      R     MOV     DPTR,#?_CheckCrcAndCopy?BYTE+010H
080E 120000      E     LCALL   ?C?PSTXDATA
0811 900000      R     MOV     DPTR,#startRowAddr
0814 120000      E     LCALL   ?C?LLDXDATA
0817 120000      R     LCALL   _CheckCrcAndCopy
081A 900000      R     MOV     DPTR,#ret
081D EF                MOV     A,R7
081E F0                MOVX    @DPTR,A
                                           ; SOURCE LINE # 342
081F 6034              JZ      ?C0036
                                           ; SOURCE LINE # 343
                                           ; SOURCE LINE # 344
0821 804A              SJMP    ?C0007
                                           ; SOURCE LINE # 345
0823         ?C0054:
                                           ; SOURCE LINE # 346
0823 8030              SJMP    ?C0036
0825         ?C0053:
                                           ; SOURCE LINE # 348
                                           ; SOURCE LINE # 349
0825 900000      R     MOV     DPTR,#numBytesToRead
0828 120000      E     LCALL   ?C?LLDXDATA
082B C006              PUSH    AR6
082D C007              PUSH    AR7
082F 900000      R     MOV     DPTR,#srcOffset
0832 120000      E     LCALL   ?C?LLDXDATA
0835 900000      R     MOV     DPTR,#startRowAddr
0838 120000      E     LCALL   ?C?LLDXDATA0
083B 120000      E     LCALL   ?C?LADD
083E A907              MOV     R1,AR7
0840 AA06              MOV     R2,AR6
0842 AB05              MOV     R3,AR5
0844 900000      R     MOV     DPTR,#eeData
0847 120000      E     LCALL   ?C?LLDXDATA
084A A807              MOV     R0,AR7
084C AC06              MOV     R4,AR6
084E D007              POP     AR7
0850 D006              POP     AR6
0852 120000      E     LCALL   ?C?COPYAMD
                                           ; SOURCE LINE # 350
                                           ; SOURCE LINE # 351
                                           ; SOURCE LINE # 352
                                           ; SOURCE LINE # 353
0855         ?C0036:
0855 900000      R     MOV     DPTR,#i
0858 120000      E     LCALL   ?C?LLDXDATA
085B E4                CLR     A
085C 7B01              MOV     R3,#01H
C51 COMPILER V9.51   CY_EM_EEPROM                                                          10/24/2019 10:21:11 PAGE 49  

085E FA                MOV     R2,A
085F F9                MOV     R1,A
0860 F8                MOV     R0,A
0861 120000      E     LCALL   ?C?LADD
0864 900000      R     MOV     DPTR,#i
0867 120000      E     LCALL   ?C?LSTXDATA
086A 020000      R     LJMP    ?C0034
                                           ; SOURCE LINE # 354
                                           ; SOURCE LINE # 355
086D         ?C0007:
                                           ; SOURCE LINE # 357
086D 900000      R     MOV     DPTR,#ret
0870 E0                MOVX    A,@DPTR
0871 FF                MOV     R7,A
                                           ; SOURCE LINE # 358
0872         ?C0056:
0872 22                RET     
             ; FUNCTION _Cy_Em_EEPROM_Read (END)

             ; FUNCTION _Cy_Em_EEPROM_Write (BEGIN)
                                           ; SOURCE LINE # 411
0000 900000      R     MOV     DPTR,#addr
0003 120000      E     LCALL   ?C?LSTXDATA
0006 900000      R     MOV     DPTR,#eepromData
0009 120000      E     LCALL   ?C?PSTXDATA
                                           ; SOURCE LINE # 415
                                           ; SOURCE LINE # 416
000C 900000      R     MOV     DPTR,#ret
000F 7401              MOV     A,#01H
0011 F0                MOVX    @DPTR,A
                                           ; SOURCE LINE # 421
0012 E4                CLR     A
0013 FF                MOV     R7,A
0014 FE                MOV     R6,A
0015 FD                MOV     R5,A
0016 FC                MOV     R4,A
0017 900000      R     MOV     DPTR,#startAddr
001A 120000      E     LCALL   ?C?LSTXDATA
                                           ; SOURCE LINE # 422
001D E4                CLR     A
001E FF                MOV     R7,A
001F FE                MOV     R6,A
0020 FD                MOV     R5,A
0021 FC                MOV     R4,A
0022 900000      R     MOV     DPTR,#endAddr
0025 120000      E     LCALL   ?C?LSTXDATA
                                           ; SOURCE LINE # 424
0028 900000      R     MOV     DPTR,#context
002B 120000      E     LCALL   ?C?PLDXDATA
002E E9                MOV     A,R1
002F 2408              ADD     A,#08H
0031 F9                MOV     R1,A
0032 E4                CLR     A
0033 3A                ADDC    A,R2
0034 FA                MOV     R2,A
0035 120000      E     LCALL   ?C?LLDPTR
0038 900000      R     MOV     DPTR,#emEepromRowAddr
003B 120000      E     LCALL   ?C?LSTXDATA
                                           ; SOURCE LINE # 427
003E 900000      R     MOV     DPTR,#eepromData
0041 120000      E     LCALL   ?C?PLDXDATA
0044 AF01              MOV     R7,AR1
C51 COMPILER V9.51   CY_EM_EEPROM                                                          10/24/2019 10:21:11 PAGE 50  

0046 AE02              MOV     R6,AR2
0048 AD03              MOV     R5,AR3
004A 7C00              MOV     R4,#00H
004C 900000      R     MOV     DPTR,#eeData
004F 120000      E     LCALL   ?C?LSTXDATA
                                           ; SOURCE LINE # 430
0052 900000      R     MOV     DPTR,#size
0055 120000      E     LCALL   ?C?LLDXDATA
0058 EF                MOV     A,R7
0059 4E                ORL     A,R6
005A 7003              JNZ     $ + 5H
005C 020000      R     LJMP    ?C0057
005F 900000      R     MOV     DPTR,#context
0062 120000      E     LCALL   ?C?PLDXDATA
0065 E9                MOV     A,R1
0066 240C              ADD     A,#0CH
0068 F9                MOV     R1,A
0069 E4                CLR     A
006A 3A                ADDC    A,R2
006B FA                MOV     R2,A
006C 120000      E     LCALL   ?C?LLDPTR0
006F C000              PUSH    AR0
0071 C001              PUSH    AR1
0073 C002              PUSH    AR2
0075 C003              PUSH    AR3
0077 900000      R     MOV     DPTR,#size
007A 120000      E     LCALL   ?C?LLDXDATA
007D 900000      R     MOV     DPTR,#addr
0080 120000      E     LCALL   ?C?LLDXDATA0
0083 120000      E     LCALL   ?C?LADD
0086 D003              POP     AR3
0088 D002              POP     AR2
008A D001              POP     AR1
008C D000              POP     AR0
008E C3                CLR     C
008F 120000      E     LCALL   ?C?ULCMP
0092 5003              JNC     $ + 5H
0094 020000      R     LJMP    ?C0057
0097 900000      R     MOV     DPTR,#eepromData
009A 120000      E     LCALL   ?C?PLDXDATA
009D E9                MOV     A,R1
009E 4A                ORL     A,R2
009F 4B                ORL     A,R3
00A0 7003              JNZ     $ + 5H
00A2 020000      R     LJMP    ?C0057
                                           ; SOURCE LINE # 431
                                           ; SOURCE LINE # 432
00A5 900000      R     MOV     DPTR,#size
00A8 120000      E     LCALL   ?C?LLDXDATA
00AB EF                MOV     A,R7
00AC 24FF              ADD     A,#0FFH
00AE FF                MOV     R7,A
00AF EE                MOV     A,R6
00B0 34FF              ADDC    A,#0FFH
00B2 FE                MOV     R6,A
00B3 ED                MOV     A,R5
00B4 34FF              ADDC    A,#0FFH
00B6 FD                MOV     R5,A
00B7 EC                MOV     A,R4
00B8 34FF              ADDC    A,#0FFH
00BA FC                MOV     R4,A
00BB E4                CLR     A
C51 COMPILER V9.51   CY_EM_EEPROM                                                          10/24/2019 10:21:11 PAGE 51  

00BC 7B70              MOV     R3,#070H
00BE FA                MOV     R2,A
00BF F9                MOV     R1,A
00C0 F8                MOV     R0,A
00C1 120000      E     LCALL   ?C?ULDIV
00C4 EF                MOV     A,R7
00C5 2401              ADD     A,#01H
00C7 FF                MOV     R7,A
00C8 E4                CLR     A
00C9 3E                ADDC    A,R6
00CA FE                MOV     R6,A
00CB E4                CLR     A
00CC 3D                ADDC    A,R5
00CD FD                MOV     R5,A
00CE E4                CLR     A
00CF 3C                ADDC    A,R4
00D0 FC                MOV     R4,A
00D1 900000      R     MOV     DPTR,#numWrites
00D4 120000      E     LCALL   ?C?LSTXDATA
                                           ; SOURCE LINE # 433
00D7 E4                CLR     A
00D8 FF                MOV     R7,A
00D9 FE                MOV     R6,A
00DA FD                MOV     R5,A
00DB FC                MOV     R4,A
00DC 900000      R     MOV     DPTR,#eeHeaderDataOffset
00DF 120000      E     LCALL   ?C?LSTXDATA
                                           ; SOURCE LINE # 435
00E2 E4                CLR     A
00E3 FF                MOV     R7,A
00E4 FE                MOV     R6,A
00E5 FD                MOV     R5,A
00E6 FC                MOV     R4,A
00E7 900000      R     MOV     DPTR,#wrCnt
00EA 120000      E     LCALL   ?C?LSTXDATA
00ED         ?C0058:
00ED 900000      R     MOV     DPTR,#numWrites
00F0 120000      E     LCALL   ?C?LLDXDATA
00F3 900000      R     MOV     DPTR,#wrCnt
00F6 120000      E     LCALL   ?C?LLDXDATA0
00F9 C3                CLR     C
00FA 120000      E     LCALL   ?C?ULCMP
00FD 4003              JC      $ + 5H
00FF 020000      R     LJMP    ?C0057
                                           ; SOURCE LINE # 436
                                           ; SOURCE LINE # 437
0102 E4                CLR     A
0103 FF                MOV     R7,A
0104 FE                MOV     R6,A
0105 FD                MOV     R5,A
0106 FC                MOV     R4,A
0107 900000      R     MOV     DPTR,#skipOperation
010A 120000      E     LCALL   ?C?LSTXDATA
                                           ; SOURCE LINE # 439
010D 900000      R     MOV     DPTR,#emEepromRowAddr
0110 120000      E     LCALL   ?C?LLDXDATA
0113 A907              MOV     R1,AR7
0115 AA06              MOV     R2,AR6
0117 AB05              MOV     R3,AR5
0119 120000      E     LCALL   ?C?LLDPTR
011C 900000      R     MOV     DPTR,#seqNum
011F 120000      E     LCALL   ?C?LSTXDATA
C51 COMPILER V9.51   CY_EM_EEPROM                                                          10/24/2019 10:21:11 PAGE 52  

                                           ; SOURCE LINE # 446
0122 900000      R     MOV     DPTR,#seqNum
0125 120000      E     LCALL   ?C?LLDXDATA
0128 7B01              MOV     R3,#01H
012A 7A00        R     MOV     R2,#HIGH emEepromRowRdAddr
012C 7900        R     MOV     R1,#LOW emEepromRowRdAddr
012E 900000      R     MOV     DPTR,#?_GetNextRowToWrite?BYTE+07H
0131 120000      E     LCALL   ?C?PSTXDATA
0134 900000      R     MOV     DPTR,#context
0137 120000      E     LCALL   ?C?PLDXDATA
013A 900000      R     MOV     DPTR,#?_GetNextRowToWrite?BYTE+0AH
013D 120000      E     LCALL   ?C?PSTXDATA
0140 7B01              MOV     R3,#01H
0142 7A00        R     MOV     R2,#HIGH emEepromRowAddr
0144 7900        R     MOV     R1,#LOW emEepromRowAddr
0146 120000      R     LCALL   _GetNextRowToWrite
                                           ; SOURCE LINE # 449
0149 7E01              MOV     R6,#01H
014B 7F00              MOV     R7,#00H
014D 7D00              MOV     R5,#00H
014F 7B01              MOV     R3,#01H
0151 7A00        R     MOV     R2,#HIGH writeRamBuffer
0153 7900        R     MOV     R1,#LOW writeRamBuffer
0155 120000      E     LCALL   ?C?MEMSET
                                           ; SOURCE LINE # 452
0158 900000      R     MOV     DPTR,#seqNum
015B 120000      E     LCALL   ?C?LLDXDATA
015E E4                CLR     A
015F 7B01              MOV     R3,#01H
0161 FA                MOV     R2,A
0162 F9                MOV     R1,A
0163 F8                MOV     R0,A
0164 120000      E     LCALL   ?C?LADD
0167 900000      R     MOV     DPTR,#seqNum
016A 120000      E     LCALL   ?C?LSTXDATA
                                           ; SOURCE LINE # 453
016D 900000      R     MOV     DPTR,#seqNum
0170 120000      E     LCALL   ?C?LLDXDATA
0173 900000      R     MOV     DPTR,#writeRamBuffer
0176 120000      E     LCALL   ?C?LSTXDATA
                                           ; SOURCE LINE # 454
0179 900000      R     MOV     DPTR,#addr
017C 120000      E     LCALL   ?C?LLDXDATA
017F 900000      R     MOV     DPTR,#writeRamBuffer+04H
0182 120000      E     LCALL   ?C?LSTXDATA
                                           ; SOURCE LINE # 455
0185 900000      R     MOV     DPTR,#eeData
0188 120000      E     LCALL   ?C?LLDXDATA
018B A907              MOV     R1,AR7
018D AA06              MOV     R2,AR6
018F AB05              MOV     R3,AR5
0191 900000      R     MOV     DPTR,#tmpData
0194 120000      E     LCALL   ?C?PSTXDATA
                                           ; SOURCE LINE # 458
0197 900000      R     MOV     DPTR,#numWrites
019A 120000      E     LCALL   ?C?LLDXDATA
019D EF                MOV     A,R7
019E 24FF              ADD     A,#0FFH
01A0 FF                MOV     R7,A
01A1 EE                MOV     A,R6
01A2 34FF              ADDC    A,#0FFH
01A4 FE                MOV     R6,A
C51 COMPILER V9.51   CY_EM_EEPROM                                                          10/24/2019 10:21:11 PAGE 53  

01A5 ED                MOV     A,R5
01A6 34FF              ADDC    A,#0FFH
01A8 FD                MOV     R5,A
01A9 EC                MOV     A,R4
01AA 34FF              ADDC    A,#0FFH
01AC FC                MOV     R4,A
01AD 900000      R     MOV     DPTR,#wrCnt
01B0 120000      E     LCALL   ?C?LLDXDATA0
01B3 C3                CLR     C
01B4 120000      E     LCALL   ?C?ULCMP
01B7 700E              JNZ     ?C0061
                                           ; SOURCE LINE # 459
                                           ; SOURCE LINE # 461
01B9 900000      R     MOV     DPTR,#size
01BC 120000      E     LCALL   ?C?LLDXDATA
01BF 900000      R     MOV     DPTR,#writeRamBuffer+08H
01C2 120000      E     LCALL   ?C?LSTXDATA
                                           ; SOURCE LINE # 462
01C5 805B              SJMP    ?C0062
01C7         ?C0061:
                                           ; SOURCE LINE # 464
                                           ; SOURCE LINE # 469
01C7 E4                CLR     A
01C8 7F70              MOV     R7,#070H
01CA FE                MOV     R6,A
01CB FD                MOV     R5,A
01CC FC                MOV     R4,A
01CD 900000      R     MOV     DPTR,#writeRamBuffer+08H
01D0 120000      E     LCALL   ?C?LSTXDATA
                                           ; SOURCE LINE # 470
01D3 900000      R     MOV     DPTR,#size
01D6 120000      E     LCALL   ?C?LLDXDATA
01D9 C3                CLR     C
01DA EF                MOV     A,R7
01DB 9470              SUBB    A,#070H
01DD FF                MOV     R7,A
01DE EE                MOV     A,R6
01DF 9400              SUBB    A,#00H
01E1 FE                MOV     R6,A
01E2 ED                MOV     A,R5
01E3 9400              SUBB    A,#00H
01E5 FD                MOV     R5,A
01E6 EC                MOV     A,R4
01E7 9400              SUBB    A,#00H
01E9 FC                MOV     R4,A
01EA 900000      R     MOV     DPTR,#size
01ED 120000      E     LCALL   ?C?LSTXDATA
                                           ; SOURCE LINE # 471
01F0 900000      R     MOV     DPTR,#addr
01F3 120000      E     LCALL   ?C?LLDXDATA
01F6 EF                MOV     A,R7
01F7 2470              ADD     A,#070H
01F9 FF                MOV     R7,A
01FA E4                CLR     A
01FB 3E                ADDC    A,R6
01FC FE                MOV     R6,A
01FD E4                CLR     A
01FE 3D                ADDC    A,R5
01FF FD                MOV     R5,A
0200 E4                CLR     A
0201 3C                ADDC    A,R4
0202 FC                MOV     R4,A
C51 COMPILER V9.51   CY_EM_EEPROM                                                          10/24/2019 10:21:11 PAGE 54  

0203 900000      R     MOV     DPTR,#addr
0206 120000      E     LCALL   ?C?LSTXDATA
                                           ; SOURCE LINE # 472
0209 900000      R     MOV     DPTR,#eeData
020C 120000      E     LCALL   ?C?LLDXDATA
020F EF                MOV     A,R7
0210 2470              ADD     A,#070H
0212 FF                MOV     R7,A
0213 E4                CLR     A
0214 3E                ADDC    A,R6
0215 FE                MOV     R6,A
0216 E4                CLR     A
0217 3D                ADDC    A,R5
0218 FD                MOV     R5,A
0219 E4                CLR     A
021A 3C                ADDC    A,R4
021B FC                MOV     R4,A
021C 900000      R     MOV     DPTR,#eeData
021F 120000      E     LCALL   ?C?LSTXDATA
                                           ; SOURCE LINE # 473
0222         ?C0062:
                                           ; SOURCE LINE # 476
0222 900000      R     MOV     DPTR,#writeRamBuffer+08H
0225 120000      E     LCALL   ?C?LLDXDATA
0228 7800        R     MOV     R0,#LOW writeRamBuffer+0CH
022A 7C00        R     MOV     R4,#HIGH writeRamBuffer+0CH
022C 7D01              MOV     R5,#01H
022E 900000      R     MOV     DPTR,#tmpData
0231 120000      E     LCALL   ?C?PLDXDATA
0234 120000      E     LCALL   ?C?COPYAMD
                                           ; SOURCE LINE # 480
0237 E4                CLR     A
0238 FF                MOV     R7,A
0239 FE                MOV     R6,A
023A FD                MOV     R5,A
023B FC                MOV     R4,A
023C 900000      R     MOV     DPTR,#emEepromRowRdAddr
023F 120000      E     LCALL   ?C?LLDXDATA0
0242 C3                CLR     C
0243 120000      E     LCALL   ?C?ULCMP
0246 6025              JZ      ?C0063
                                           ; SOURCE LINE # 481
                                           ; SOURCE LINE # 484
0248 900000      R     MOV     DPTR,#emEepromRowRdAddr
024B 120000      E     LCALL   ?C?LLDXDATA
024E EF                MOV     A,R7
024F 2480              ADD     A,#080H
0251 FF                MOV     R7,A
0252 E4                CLR     A
0253 3E                ADDC    A,R6
0254 FE                MOV     R6,A
0255 E4                CLR     A
0256 3D                ADDC    A,R5
0257 FD                MOV     R5,A
0258 E4                CLR     A
0259 3C                ADDC    A,R4
025A A907              MOV     R1,AR7
025C AA06              MOV     R2,AR6
025E AB05              MOV     R3,AR5
0260 7800        R     MOV     R0,#LOW writeRamBuffer+080H
0262 7C00        R     MOV     R4,#HIGH writeRamBuffer+080H
0264 7D01              MOV     R5,#01H
C51 COMPILER V9.51   CY_EM_EEPROM                                                          10/24/2019 10:21:11 PAGE 55  

0266 7E00              MOV     R6,#00H
0268 7F80              MOV     R7,#080H
026A 120000      E     LCALL   ?C?COPYAMD
                                           ; SOURCE LINE # 486
026D         ?C0063:
                                           ; SOURCE LINE # 492
026D 900000      R     MOV     DPTR,#context
0270 120000      E     LCALL   ?C?PLDXDATA
0273 E9                MOV     A,R1
0274 2404              ADD     A,#04H
0276 F9                MOV     R1,A
0277 E4                CLR     A
0278 3A                ADDC    A,R2
0279 FA                MOV     R2,A
027A 120000      E     LCALL   ?C?LLDPTR
027D 900000      R     MOV     DPTR,#seqNum
0280 120000      E     LCALL   ?C?LLDXDATA0
0283 D3                SETB    C
0284 120000      E     LCALL   ?C?ULCMP
0287 4028              JC      ?C0064
0289 900000      R     MOV     DPTR,#context
028C 120000      E     LCALL   ?C?PLDXDATA
028F E9                MOV     A,R1
0290 2404              ADD     A,#04H
0292 F9                MOV     R1,A
0293 E4                CLR     A
0294 3A                ADDC    A,R2
0295 FA                MOV     R2,A
0296 120000      E     LCALL   ?C?LLDPTR0
0299 900000      R     MOV     DPTR,#seqNum
029C 120000      E     LCALL   ?C?LLDXDATA
029F 120000      E     LCALL   ?C?LSUB
02A2 EF                MOV     A,R7
02A3 2401              ADD     A,#01H
02A5 FF                MOV     R7,A
02A6 E4                CLR     A
02A7 3E                ADDC    A,R6
02A8 FE                MOV     R6,A
02A9 E4                CLR     A
02AA 3D                ADDC    A,R5
02AB FD                MOV     R5,A
02AC E4                CLR     A
02AD 3C                ADDC    A,R4
02AE FC                MOV     R4,A
02AF 8006              SJMP    ?C0065
02B1         ?C0064:
02B1 E4                CLR     A
02B2 7F01              MOV     R7,#01H
02B4 FE                MOV     R6,A
02B5 FD                MOV     R5,A
02B6 FC                MOV     R4,A
02B7         ?C0065:
02B7 900000      R     MOV     DPTR,#i
02BA 120000      E     LCALL   ?C?LSTXDATA
                                           ; SOURCE LINE # 494
02BD         ?C0066:
02BD 900000      R     MOV     DPTR,#seqNum
02C0 120000      E     LCALL   ?C?LLDXDATA
02C3 900000      R     MOV     DPTR,#i
02C6 120000      E     LCALL   ?C?LLDXDATA0
02C9 D3                SETB    C
02CA 120000      E     LCALL   ?C?ULCMP
C51 COMPILER V9.51   CY_EM_EEPROM                                                          10/24/2019 10:21:11 PAGE 56  

02CD 4003              JC      $ + 5H
02CF 020000      R     LJMP    ?C0067
                                           ; SOURCE LINE # 495
                                           ; SOURCE LINE # 496
02D2 900000      R     MOV     DPTR,#seqNum
02D5 120000      E     LCALL   ?C?LLDXDATA
02D8 900000      R     MOV     DPTR,#i
02DB 120000      E     LCALL   ?C?LLDXDATA0
02DE C3                CLR     C
02DF 120000      E     LCALL   ?C?ULCMP
02E2 7015              JNZ     ?C0069
                                           ; SOURCE LINE # 497
                                           ; SOURCE LINE # 502
02E4 7B01              MOV     R3,#01H
02E6 7A00        R     MOV     R2,#HIGH writeRamBuffer
02E8 7900        R     MOV     R1,#LOW writeRamBuffer
02EA AF01              MOV     R7,AR1
02EC AE02              MOV     R6,AR2
02EE 7D01              MOV     R5,#01H
02F0 FC                MOV     R4,A
02F1 900000      R     MOV     DPTR,#tmpRowAddr
02F4 120000      E     LCALL   ?C?LSTXDATA
                                           ; SOURCE LINE # 503
02F7 8015              SJMP    ?C0070
02F9         ?C0069:
                                           ; SOURCE LINE # 505
                                           ; SOURCE LINE # 509
02F9 900000      R     MOV     DPTR,#i
02FC 120000      E     LCALL   ?C?LLDXDATA
02FF 900000      R     MOV     DPTR,#context
0302 120000      E     LCALL   ?C?PLDXDATA
0305 120000      R     LCALL   _GetRowAddrBySeqNum
0308 900000      R     MOV     DPTR,#tmpRowAddr
030B 120000      E     LCALL   ?C?LSTXDATA
                                           ; SOURCE LINE # 510
030E         ?C0070:
                                           ; SOURCE LINE # 512
030E 900000      R     MOV     DPTR,#context
0311 120000      E     LCALL   ?C?PLDXDATA
0314 E9                MOV     A,R1
0315 2416              ADD     A,#016H
0317 F9                MOV     R1,A
0318 E4                CLR     A
0319 3A                ADDC    A,R2
031A FA                MOV     R2,A
031B 120000      E     LCALL   ?C?LLDPTR0
031E 900000      R     MOV     DPTR,#emEepromRowAddr
0321 120000      E     LCALL   ?C?LLDXDATA
0324 120000      E     LCALL   ?C?LSUB
0327 E4                CLR     A
0328 FB                MOV     R3,A
0329 7A01              MOV     R2,#01H
032B F9                MOV     R1,A
032C F8                MOV     R0,A
032D 120000      E     LCALL   ?C?ULDIV
0330 900000      R     MOV     DPTR,#context
0333 120000      E     LCALL   ?C?PLDXDATA
0336 E9                MOV     A,R1
0337 2404              ADD     A,#04H
0339 F9                MOV     R1,A
033A E4                CLR     A
033B 3A                ADDC    A,R2
C51 COMPILER V9.51   CY_EM_EEPROM                                                          10/24/2019 10:21:11 PAGE 57  

033C FA                MOV     R2,A
033D 120000      E     LCALL   ?C?LLDPTR0
0340 120000      E     LCALL   ?C?ULDIV
0343 AC00              MOV     R4,AR0
0345 AD01              MOV     R5,AR1
0347 AE02              MOV     R6,AR2
0349 AF03              MOV     R7,AR3
034B 900000      R     MOV     DPTR,#actEmEepromRowNum
034E 120000      E     LCALL   ?C?LSTXDATA
                                           ; SOURCE LINE # 515
0351 E4                CLR     A
0352 FF                MOV     R7,A
0353 FE                MOV     R6,A
0354 FD                MOV     R5,A
0355 FC                MOV     R4,A
0356 900000      R     MOV     DPTR,#tmpRowAddr
0359 120000      E     LCALL   ?C?LLDXDATA0
035C C3                CLR     C
035D 120000      E     LCALL   ?C?ULCMP
0360 6075              JZ      ?C0071
                                           ; SOURCE LINE # 516
                                           ; SOURCE LINE # 524
0362 7B01              MOV     R3,#01H
0364 7A00        R     MOV     R2,#HIGH endAddr
0366 7900        R     MOV     R1,#LOW endAddr
0368 900000      R     MOV     DPTR,#?_GetAddresses?BYTE+03H
036B 120000      E     LCALL   ?C?PSTXDATA
036E 7A00        R     MOV     R2,#HIGH eeHeaderDataOffset
0370 7900        R     MOV     R1,#LOW eeHeaderDataOffset
0372 900000      R     MOV     DPTR,#?_GetAddresses?BYTE+06H
0375 120000      E     LCALL   ?C?PSTXDATA
0378 900000      R     MOV     DPTR,#actEmEepromRowNum
037B 120000      E     LCALL   ?C?LLDXDATA
037E 900000      R     MOV     DPTR,#?_GetAddresses?BYTE+09H
0381 120000      E     LCALL   ?C?LSTXDATA
0384 900000      R     MOV     DPTR,#tmpRowAddr
0387 120000      E     LCALL   ?C?LLDXDATA
038A EF                MOV     A,R7
038B 2404              ADD     A,#04H
038D FF                MOV     R7,A
038E E4                CLR     A
038F 3E                ADDC    A,R6
0390 FE                MOV     R6,A
0391 E4                CLR     A
0392 3D                ADDC    A,R5
0393 FD                MOV     R5,A
0394 E4                CLR     A
0395 3C                ADDC    A,R4
0396 A907              MOV     R1,AR7
0398 AA06              MOV     R2,AR6
039A AB05              MOV     R3,AR5
039C 120000      E     LCALL   ?C?LLDPTR
039F 900000      R     MOV     DPTR,#?_GetAddresses?BYTE+0DH
03A2 120000      E     LCALL   ?C?LSTXDATA
03A5 900000      R     MOV     DPTR,#tmpRowAddr
03A8 120000      E     LCALL   ?C?LLDXDATA
03AB EF                MOV     A,R7
03AC 2408              ADD     A,#08H
03AE FF                MOV     R7,A
03AF E4                CLR     A
03B0 3E                ADDC    A,R6
03B1 FE                MOV     R6,A
C51 COMPILER V9.51   CY_EM_EEPROM                                                          10/24/2019 10:21:11 PAGE 58  

03B2 E4                CLR     A
03B3 3D                ADDC    A,R5
03B4 FD                MOV     R5,A
03B5 E4                CLR     A
03B6 3C                ADDC    A,R4
03B7 A907              MOV     R1,AR7
03B9 AA06              MOV     R2,AR6
03BB AB05              MOV     R3,AR5
03BD 120000      E     LCALL   ?C?LLDPTR
03C0 900000      R     MOV     DPTR,#?_GetAddresses?BYTE+011H
03C3 120000      E     LCALL   ?C?LSTXDATA
03C6 7B01              MOV     R3,#01H
03C8 7A00        R     MOV     R2,#HIGH startAddr
03CA 7900        R     MOV     R1,#LOW startAddr
03CC 120000      R     LCALL   _GetAddresses
03CF 900000      R     MOV     DPTR,#skipOperation
03D2 120000      E     LCALL   ?C?LSTXDATA
                                           ; SOURCE LINE # 525
03D5 8015              SJMP    ?C0072
03D7         ?C0071:
                                           ; SOURCE LINE # 527
                                           ; SOURCE LINE # 529
03D7 900000      R     MOV     DPTR,#skipOperation
03DA 120000      E     LCALL   ?C?LLDXDATA
03DD E4                CLR     A
03DE 7B01              MOV     R3,#01H
03E0 FA                MOV     R2,A
03E1 F9                MOV     R1,A
03E2 F8                MOV     R0,A
03E3 120000      E     LCALL   ?C?LADD
03E6 900000      R     MOV     DPTR,#skipOperation
03E9 120000      E     LCALL   ?C?LSTXDATA
                                           ; SOURCE LINE # 530
03EC         ?C0072:
                                           ; SOURCE LINE # 533
03EC 900000      R     MOV     DPTR,#skipOperation
03EF 120000      E     LCALL   ?C?LLDXDATA
03F2 EF                MOV     A,R7
03F3 4E                ORL     A,R6
03F4 7076              JNZ     ?C0073
                                           ; SOURCE LINE # 534
                                           ; SOURCE LINE # 535
03F6 7B01              MOV     R3,#01H
03F8 7A00        R     MOV     R2,#HIGH writeRamBuffer
03FA 7900        R     MOV     R1,#LOW writeRamBuffer
03FC AF01              MOV     R7,AR1
03FE AE02              MOV     R6,AR2
0400 7D01              MOV     R5,#01H
0402 FC                MOV     R4,A
0403 900000      R     MOV     DPTR,#startAddr
0406 120000      E     LCALL   ?C?LLDXDATA0
0409 120000      E     LCALL   ?C?LADD
040C 900000      R     MOV     DPTR,#dataAddr
040F 120000      E     LCALL   ?C?LSTXDATA
                                           ; SOURCE LINE # 540
0412 900000      R     MOV     DPTR,#tmpRowAddr
0415 120000      E     LCALL   ?C?LLDXDATA
0418 EF                MOV     A,R7
0419 240C              ADD     A,#0CH
041B FF                MOV     R7,A
041C E4                CLR     A
041D 3E                ADDC    A,R6
C51 COMPILER V9.51   CY_EM_EEPROM                                                          10/24/2019 10:21:11 PAGE 59  

041E FE                MOV     R6,A
041F E4                CLR     A
0420 3D                ADDC    A,R5
0421 FD                MOV     R5,A
0422 E4                CLR     A
0423 3C                ADDC    A,R4
0424 FC                MOV     R4,A
0425 900000      R     MOV     DPTR,#eeHeaderDataOffset
0428 120000      E     LCALL   ?C?LLDXDATA0
042B 120000      E     LCALL   ?C?LADD
042E 900000      R     MOV     DPTR,#tmpRowAddr
0431 120000      E     LCALL   ?C?LSTXDATA
                                           ; SOURCE LINE # 541
0434 900000      R     MOV     DPTR,#startAddr
0437 120000      E     LCALL   ?C?LLDXDATA
043A AB07              MOV     R3,AR7
043C AA06              MOV     R2,AR6
043E 900000      R     MOV     DPTR,#endAddr
0441 120000      E     LCALL   ?C?LLDXDATA
0444 C3                CLR     C
0445 EF                MOV     A,R7
0446 9B                SUBB    A,R3
0447 FF                MOV     R7,A
0448 EE                MOV     A,R6
0449 9A                SUBB    A,R2
044A FE                MOV     R6,A
044B C006              PUSH    AR6
044D C007              PUSH    AR7
044F 900000      R     MOV     DPTR,#tmpRowAddr
0452 120000      E     LCALL   ?C?LLDXDATA
0455 A907              MOV     R1,AR7
0457 AA06              MOV     R2,AR6
0459 AB05              MOV     R3,AR5
045B 900000      R     MOV     DPTR,#dataAddr
045E 120000      E     LCALL   ?C?LLDXDATA
0461 A807              MOV     R0,AR7
0463 AC06              MOV     R4,AR6
0465 D007              POP     AR7
0467 D006              POP     AR6
0469 120000      E     LCALL   ?C?COPYAMD
                                           ; SOURCE LINE # 542
046C         ?C0073:
                                           ; SOURCE LINE # 545
046C 900000      R     MOV     DPTR,#context
046F 120000      E     LCALL   ?C?PLDXDATA
0472 E9                MOV     A,R1
0473 2414              ADD     A,#014H
0475 F9                MOV     R1,A
0476 E4                CLR     A
0477 3A                ADDC    A,R2
0478 FA                MOV     R2,A
0479 120000      E     LCALL   ?C?CLDPTR
047C 6019              JZ      ?C0068
                                           ; SOURCE LINE # 546
                                           ; SOURCE LINE # 548
047E 7B01              MOV     R3,#01H
0480 7A00        R     MOV     R2,#HIGH writeRamBuffer+080H
0482 7900        R     MOV     R1,#LOW writeRamBuffer+080H
0484 E4                CLR     A
0485 7F80              MOV     R7,#080H
0487 FE                MOV     R6,A
0488 FD                MOV     R5,A
C51 COMPILER V9.51   CY_EM_EEPROM                                                          10/24/2019 10:21:11 PAGE 60  

0489 FC                MOV     R4,A
048A 120000      R     LCALL   _CalcChecksum
048D E4                CLR     A
048E FC                MOV     R4,A
048F FD                MOV     R5,A
0490 FE                MOV     R6,A
0491 900000      R     MOV     DPTR,#writeRamBuffer+07CH
0494 120000      E     LCALL   ?C?LSTXDATA
                                           ; SOURCE LINE # 550
                                           ; SOURCE LINE # 551
0497         ?C0068:
0497 900000      R     MOV     DPTR,#i
049A 120000      E     LCALL   ?C?LLDXDATA
049D E4                CLR     A
049E 7B01              MOV     R3,#01H
04A0 FA                MOV     R2,A
04A1 F9                MOV     R1,A
04A2 F8                MOV     R0,A
04A3 120000      E     LCALL   ?C?LADD
04A6 900000      R     MOV     DPTR,#i
04A9 120000      E     LCALL   ?C?LSTXDATA
04AC 020000      R     LJMP    ?C0066
04AF         ?C0067:
                                           ; SOURCE LINE # 554
04AF 900000      R     MOV     DPTR,#emEepromRowAddr
04B2 120000      E     LCALL   ?C?LLDXDATA
04B5 900000      R     MOV     DPTR,#context
04B8 120000      E     LCALL   ?C?PLDXDATA
04BB 900000      R     MOV     DPTR,#?_WriteRow?BYTE+07H
04BE 120000      E     LCALL   ?C?PSTXDATA
04C1 7B01              MOV     R3,#01H
04C3 7A00        R     MOV     R2,#HIGH writeRamBuffer
04C5 7900        R     MOV     R1,#LOW writeRamBuffer
04C7 120000      R     LCALL   _WriteRow
04CA 900000      R     MOV     DPTR,#ret
04CD EF                MOV     A,R7
04CE F0                MOVX    @DPTR,A
                                           ; SOURCE LINE # 555
04CF 900000      R     MOV     DPTR,#emEepromRowAddr
04D2 120000      E     LCALL   ?C?LLDXDATA
04D5 900000      R     MOV     DPTR,#tmpRowAddr
04D8 120000      E     LCALL   ?C?LSTXDATA
                                           ; SOURCE LINE # 558
04DB 900000      R     MOV     DPTR,#context
04DE 120000      E     LCALL   ?C?PLDXDATA
04E1 E9                MOV     A,R1
04E2 2414              ADD     A,#014H
04E4 F9                MOV     R1,A
04E5 E4                CLR     A
04E6 3A                ADDC    A,R2
04E7 FA                MOV     R2,A
04E8 120000      E     LCALL   ?C?CLDPTR
04EB 6051              JZ      ?C0075
04ED 900000      R     MOV     DPTR,#ret
04F0 E0                MOVX    A,@DPTR
04F1 704B              JNZ     ?C0075
                                           ; SOURCE LINE # 559
                                           ; SOURCE LINE # 561
04F3 900000      R     MOV     DPTR,#context
04F6 120000      E     LCALL   ?C?PLDXDATA
04F9 E9                MOV     A,R1
04FA 2416              ADD     A,#016H
C51 COMPILER V9.51   CY_EM_EEPROM                                                          10/24/2019 10:21:11 PAGE 61  

04FC F9                MOV     R1,A
04FD E4                CLR     A
04FE 3A                ADDC    A,R2
04FF FA                MOV     R2,A
0500 120000      E     LCALL   ?C?LLDPTR0
0503 900000      R     MOV     DPTR,#emEepromRowAddr
0506 120000      E     LCALL   ?C?LLDXDATA
0509 120000      E     LCALL   ?C?LSUB
050C 900000      R     MOV     DPTR,#context
050F 120000      E     LCALL   ?C?PLDXDATA
0512 120000      E     LCALL   ?C?LLDPTR0
0515 120000      E     LCALL   ?C?LADD
0518 900000      R     MOV     DPTR,#tmpRowAddr
051B 120000      E     LCALL   ?C?LSTXDATA
                                           ; SOURCE LINE # 564
051E 900000      R     MOV     DPTR,#tmpRowAddr
0521 120000      E     LCALL   ?C?LLDXDATA
0524 900000      R     MOV     DPTR,#context
0527 120000      E     LCALL   ?C?PLDXDATA
052A 900000      R     MOV     DPTR,#?_WriteRow?BYTE+07H
052D 120000      E     LCALL   ?C?PSTXDATA
0530 7B01              MOV     R3,#01H
0532 7A00        R     MOV     R2,#HIGH writeRamBuffer
0534 7900        R     MOV     R1,#LOW writeRamBuffer
0536 120000      R     LCALL   _WriteRow
0539 900000      R     MOV     DPTR,#ret
053C EF                MOV     A,R7
053D F0                MOVX    @DPTR,A
                                           ; SOURCE LINE # 565
053E         ?C0075:
                                           ; SOURCE LINE # 567
053E 900000      R     MOV     DPTR,#ret
0541 E0                MOVX    A,@DPTR
0542 702E              JNZ     ?C0057
                                           ; SOURCE LINE # 568
                                           ; SOURCE LINE # 572
0544 900000      R     MOV     DPTR,#emEepromRowAddr
0547 120000      E     LCALL   ?C?LLDXDATA
054A 900000      R     MOV     DPTR,#context
054D 120000      E     LCALL   ?C?PLDXDATA
0550 E9                MOV     A,R1
0551 2408              ADD     A,#08H
0553 F9                MOV     R1,A
0554 E4                CLR     A
0555 3A                ADDC    A,R2
0556 FA                MOV     R2,A
0557 120000      E     LCALL   ?C?LSTPTR
                                           ; SOURCE LINE # 573
                                           ; SOURCE LINE # 575
                                           ; SOURCE LINE # 576
                                           ; SOURCE LINE # 577
                                           ; SOURCE LINE # 578
055A         ?C0060:
055A 900000      R     MOV     DPTR,#wrCnt
055D 120000      E     LCALL   ?C?LLDXDATA
0560 E4                CLR     A
0561 7B01              MOV     R3,#01H
0563 FA                MOV     R2,A
0564 F9                MOV     R1,A
0565 F8                MOV     R0,A
0566 120000      E     LCALL   ?C?LADD
0569 900000      R     MOV     DPTR,#wrCnt
C51 COMPILER V9.51   CY_EM_EEPROM                                                          10/24/2019 10:21:11 PAGE 62  

056C 120000      E     LCALL   ?C?LSTXDATA
056F 020000      R     LJMP    ?C0058
                                           ; SOURCE LINE # 579
0572         ?C0057:
                                           ; SOURCE LINE # 580
0572 900000      R     MOV     DPTR,#ret
0575 E0                MOVX    A,@DPTR
0576 FF                MOV     R7,A
                                           ; SOURCE LINE # 581
0577         ?C0078:
0577 22                RET     
             ; FUNCTION _Cy_Em_EEPROM_Write (END)

             ; FUNCTION _Cy_Em_EEPROM_Erase (BEGIN)
                                           ; SOURCE LINE # 629
0000 900000      R     MOV     DPTR,#context
0003 120000      E     LCALL   ?C?PSTXDATA
                                           ; SOURCE LINE # 630
                                           ; SOURCE LINE # 633
0006 E9                MOV     A,R1
0007 2408              ADD     A,#08H
0009 F9                MOV     R1,A
000A E4                CLR     A
000B 3A                ADDC    A,R2
000C FA                MOV     R2,A
000D 120000      E     LCALL   ?C?LLDPTR
0010 900000      R     MOV     DPTR,#emEepromRowAddr
0013 120000      E     LCALL   ?C?LSTXDATA
                                           ; SOURCE LINE # 635
0016 900000      R     MOV     DPTR,#ret
0019 7404              MOV     A,#04H
001B F0                MOVX    @DPTR,A
                                           ; SOURCE LINE # 636
001C 7800        R     MOV     R0,#LOW writeRamBuffer
001E 7C00        R     MOV     R4,#HIGH writeRamBuffer
0020 7D01              MOV     R5,#01H
0022 7BFF              MOV     R3,#0FFH
0024 7A00        R     MOV     R2,#HIGH _?ix1000
0026 7900        R     MOV     R1,#LOW _?ix1000
0028 7E01              MOV     R6,#01H
002A 7F00              MOV     R7,#00H
002C 120000      E     LCALL   ?C?COPYAMD
                                           ; SOURCE LINE # 643
002F 900000      R     MOV     DPTR,#emEepromRowAddr
0032 120000      E     LCALL   ?C?LLDXDATA
0035 A907              MOV     R1,AR7
0037 AA06              MOV     R2,AR6
0039 AB05              MOV     R3,AR5
003B 120000      E     LCALL   ?C?LLDPTR
003E 900000      R     MOV     DPTR,#seqNum
0041 120000      E     LCALL   ?C?LSTXDATA
                                           ; SOURCE LINE # 646
0044 900000      R     MOV     DPTR,#seqNum
0047 120000      E     LCALL   ?C?LLDXDATA
004A EF                MOV     A,R7
004B 4E                ORL     A,R6
004C 7003              JNZ     $ + 5H
004E 020000      R     LJMP    ?C0079
                                           ; SOURCE LINE # 647
                                           ; SOURCE LINE # 649
0051 900000      R     MOV     DPTR,#context
0054 120000      E     LCALL   ?C?PLDXDATA
C51 COMPILER V9.51   CY_EM_EEPROM                                                          10/24/2019 10:21:11 PAGE 63  

0057 E9                MOV     A,R1
0058 2410              ADD     A,#010H
005A F9                MOV     R1,A
005B E4                CLR     A
005C 3A                ADDC    A,R2
005D FA                MOV     R2,A
005E 120000      E     LCALL   ?C?LLDPTR
0061 900000      R     MOV     DPTR,#context
0064 120000      E     LCALL   ?C?PLDXDATA
0067 E9                MOV     A,R1
0068 2404              ADD     A,#04H
006A F9                MOV     R1,A
006B E4                CLR     A
006C 3A                ADDC    A,R2
006D FA                MOV     R2,A
006E 120000      E     LCALL   ?C?LLDPTR0
0071 120000      E     LCALL   ?C?LMUL
0074 900000      R     MOV     DPTR,#numWrites
0077 120000      E     LCALL   ?C?LSTXDATA
                                           ; SOURCE LINE # 656
007A 900000      R     MOV     DPTR,#context
007D 120000      E     LCALL   ?C?PLDXDATA
0080 E9                MOV     A,R1
0081 2414              ADD     A,#014H
0083 F9                MOV     R1,A
0084 E4                CLR     A
0085 3A                ADDC    A,R2
0086 FA                MOV     R2,A
0087 120000      E     LCALL   ?C?CLDPTR
008A 6019              JZ      ?C0080
                                           ; SOURCE LINE # 657
                                           ; SOURCE LINE # 659
008C 7B01              MOV     R3,#01H
008E 7A00        R     MOV     R2,#HIGH writeRamBuffer+080H
0090 7900        R     MOV     R1,#LOW writeRamBuffer+080H
0092 E4                CLR     A
0093 7F80              MOV     R7,#080H
0095 FE                MOV     R6,A
0096 FD                MOV     R5,A
0097 FC                MOV     R4,A
0098 120000      R     LCALL   _CalcChecksum
009B E4                CLR     A
009C FC                MOV     R4,A
009D FD                MOV     R5,A
009E FE                MOV     R6,A
009F 900000      R     MOV     DPTR,#writeRamBuffer+07CH
00A2 120000      E     LCALL   ?C?LSTXDATA
                                           ; SOURCE LINE # 661
00A5         ?C0080:
                                           ; SOURCE LINE # 663
00A5 E4                CLR     A
00A6 FF                MOV     R7,A
00A7 FE                MOV     R6,A
00A8 FD                MOV     R5,A
00A9 FC                MOV     R4,A
00AA 900000      R     MOV     DPTR,#i
00AD 120000      E     LCALL   ?C?LSTXDATA
00B0         ?C0081:
00B0 900000      R     MOV     DPTR,#numWrites
00B3 120000      E     LCALL   ?C?LLDXDATA
00B6 900000      R     MOV     DPTR,#i
00B9 120000      E     LCALL   ?C?LLDXDATA0
C51 COMPILER V9.51   CY_EM_EEPROM                                                          10/24/2019 10:21:11 PAGE 64  

00BC C3                CLR     C
00BD 120000      E     LCALL   ?C?ULCMP
00C0 4003              JC      $ + 5H
00C2 020000      R     LJMP    ?C0079
                                           ; SOURCE LINE # 664
                                           ; SOURCE LINE # 685
00C5 900000      R     MOV     DPTR,#emEepromRowAddr
00C8 120000      E     LCALL   ?C?LLDXDATA
00CB A907              MOV     R1,AR7
00CD AA06              MOV     R2,AR6
00CF AB05              MOV     R3,AR5
00D1 120000      E     LCALL   ?C?LLDPTR
00D4 900000      R     MOV     DPTR,#seqNum
00D7 120000      E     LCALL   ?C?LSTXDATA
                                           ; SOURCE LINE # 689
00DA 900000      R     MOV     DPTR,#seqNum
00DD 120000      E     LCALL   ?C?LLDXDATA
00E0 7B01              MOV     R3,#01H
00E2 7A00        R     MOV     R2,#HIGH emEepromRowRdAddr
00E4 7900        R     MOV     R1,#LOW emEepromRowRdAddr
00E6 900000      R     MOV     DPTR,#?_GetNextRowToWrite?BYTE+07H
00E9 120000      E     LCALL   ?C?PSTXDATA
00EC 900000      R     MOV     DPTR,#context
00EF 120000      E     LCALL   ?C?PLDXDATA
00F2 900000      R     MOV     DPTR,#?_GetNextRowToWrite?BYTE+0AH
00F5 120000      E     LCALL   ?C?PSTXDATA
00F8 7B01              MOV     R3,#01H
00FA 7A00        R     MOV     R2,#HIGH emEepromRowAddr
00FC 7900        R     MOV     R1,#LOW emEepromRowAddr
00FE 120000      R     LCALL   _GetNextRowToWrite
                                           ; SOURCE LINE # 690
0101 900000      R     MOV     DPTR,#seqNum
0104 120000      E     LCALL   ?C?LLDXDATA
0107 E4                CLR     A
0108 7B01              MOV     R3,#01H
010A FA                MOV     R2,A
010B F9                MOV     R1,A
010C F8                MOV     R0,A
010D 120000      E     LCALL   ?C?LADD
0110 900000      R     MOV     DPTR,#seqNum
0113 120000      E     LCALL   ?C?LSTXDATA
                                           ; SOURCE LINE # 691
0116 900000      R     MOV     DPTR,#seqNum
0119 120000      E     LCALL   ?C?LLDXDATA
011C 900000      R     MOV     DPTR,#writeRamBuffer
011F 120000      E     LCALL   ?C?LSTXDATA
                                           ; SOURCE LINE # 692
0122 7A00        R     MOV     R2,#HIGH writeRamBuffer
0124 7900        R     MOV     R1,#LOW writeRamBuffer
0126 AF01              MOV     R7,AR1
0128 AE02              MOV     R6,AR2
012A 7D01              MOV     R5,#01H
012C 7C00              MOV     R4,#00H
012E 900000      R     MOV     DPTR,#?_EraseRow?BYTE+04H
0131 120000      E     LCALL   ?C?LSTXDATA
0134 900000      R     MOV     DPTR,#context
0137 120000      E     LCALL   ?C?PLDXDATA
013A 900000      R     MOV     DPTR,#?_EraseRow?BYTE+08H
013D 120000      E     LCALL   ?C?PSTXDATA
0140 900000      R     MOV     DPTR,#emEepromRowAddr
0143 120000      E     LCALL   ?C?LLDXDATA
0146 120000      R     LCALL   _EraseRow
C51 COMPILER V9.51   CY_EM_EEPROM                                                          10/24/2019 10:21:11 PAGE 65  

0149 900000      R     MOV     DPTR,#ret
014C EF                MOV     A,R7
014D F0                MOVX    @DPTR,A
                                           ; SOURCE LINE # 694
014E 900000      R     MOV     DPTR,#i
0151 120000      E     LCALL   ?C?LLDXDATA
0154 E4                CLR     A
0155 7B01              MOV     R3,#01H
0157 FA                MOV     R2,A
0158 F9                MOV     R1,A
0159 F8                MOV     R0,A
015A 120000      E     LCALL   ?C?LADD
015D 900000      R     MOV     DPTR,#i
0160 120000      E     LCALL   ?C?LSTXDATA
0163 020000      R     LJMP    ?C0081
                                           ; SOURCE LINE # 714
0166         ?C0079:
                                           ; SOURCE LINE # 715
0166 900000      R     MOV     DPTR,#ret
0169 E0                MOVX    A,@DPTR
016A FF                MOV     R7,A
                                           ; SOURCE LINE # 716
016B         ?C0084:
016B 22                RET     
             ; FUNCTION _Cy_Em_EEPROM_Erase (END)

             ; FUNCTION _Cy_Em_EEPROM_NumWrites (BEGIN)
                                           ; SOURCE LINE # 732
;---- Variable 'context' assigned to Register 'R1/R2/R3' ----
                                           ; SOURCE LINE # 733
                                           ; SOURCE LINE # 734
0000 E9                MOV     A,R1
0001 2408              ADD     A,#08H
0003 F9                MOV     R1,A
0004 E4                CLR     A
0005 3A                ADDC    A,R2
0006 FA                MOV     R2,A
0007 120000      E     LCALL   ?C?LLDPTR
000A A907              MOV     R1,AR7
000C AA06              MOV     R2,AR6
000E AB05              MOV     R3,AR5
0010 120000      E     LCALL   ?C?LLDPTR
                                           ; SOURCE LINE # 735
0013         ?C0085:
0013 22                RET     
             ; FUNCTION _Cy_Em_EEPROM_NumWrites (END)

             ; FUNCTION _FindLastWrittenRow (BEGIN)
                                           ; SOURCE LINE # 758
0000 900000      R     MOV     DPTR,#lastWrRowPtr
0003 120000      E     LCALL   ?C?PSTXDATA
                                           ; SOURCE LINE # 759
                                           ; SOURCE LINE # 760
0006 E4                CLR     A
0007 FF                MOV     R7,A
0008 FE                MOV     R6,A
0009 FD                MOV     R5,A
000A FC                MOV     R4,A
000B 900000      R     MOV     DPTR,#seqNum
000E 120000      E     LCALL   ?C?LSTXDATA
                                           ; SOURCE LINE # 761
0011 E4                CLR     A
C51 COMPILER V9.51   CY_EM_EEPROM                                                          10/24/2019 10:21:11 PAGE 66  

0012 FF                MOV     R7,A
0013 FE                MOV     R6,A
0014 FD                MOV     R5,A
0015 FC                MOV     R4,A
0016 900000      R     MOV     DPTR,#prevSeqNum
0019 120000      E     LCALL   ?C?LSTXDATA
                                           ; SOURCE LINE # 763
001C 900000      R     MOV     DPTR,#context
001F 120000      E     LCALL   ?C?PLDXDATA
0022 E9                MOV     A,R1
0023 2416              ADD     A,#016H
0025 F9                MOV     R1,A
0026 E4                CLR     A
0027 3A                ADDC    A,R2
0028 FA                MOV     R2,A
0029 120000      E     LCALL   ?C?LLDPTR
002C 900000      R     MOV     DPTR,#emEepromAddr
002F 120000      E     LCALL   ?C?LSTXDATA
                                           ; SOURCE LINE # 765
0032 900000      R     MOV     DPTR,#emEepromAddr
0035 120000      E     LCALL   ?C?LLDXDATA
0038 900000      R     MOV     DPTR,#lastWrRowPtr
003B 120000      E     LCALL   ?C?PLDXDATA
003E 120000      E     LCALL   ?C?LSTPTR
                                           ; SOURCE LINE # 767
0041 E4                CLR     A
0042 FF                MOV     R7,A
0043 FE                MOV     R6,A
0044 FD                MOV     R5,A
0045 FC                MOV     R4,A
0046 900000      R     MOV     DPTR,#numRows
0049 120000      E     LCALL   ?C?LSTXDATA
004C         ?C0086:
004C 900000      R     MOV     DPTR,#context
004F 120000      E     LCALL   ?C?PLDXDATA
0052 E9                MOV     A,R1
0053 2410              ADD     A,#010H
0055 F9                MOV     R1,A
0056 E4                CLR     A
0057 3A                ADDC    A,R2
0058 FA                MOV     R2,A
0059 120000      E     LCALL   ?C?LLDPTR
005C 900000      R     MOV     DPTR,#context
005F 120000      E     LCALL   ?C?PLDXDATA
0062 E9                MOV     A,R1
0063 2404              ADD     A,#04H
0065 F9                MOV     R1,A
0066 E4                CLR     A
0067 3A                ADDC    A,R2
0068 FA                MOV     R2,A
0069 120000      E     LCALL   ?C?LLDPTR0
006C 120000      E     LCALL   ?C?LMUL
006F 900000      R     MOV     DPTR,#numRows
0072 120000      E     LCALL   ?C?LLDXDATA0
0075 C3                CLR     C
0076 120000      E     LCALL   ?C?ULCMP
0079 4003              JC      $ + 5H
007B 020000      R     LJMP    ?C0090
                                           ; SOURCE LINE # 768
                                           ; SOURCE LINE # 769
007E 900000      R     MOV     DPTR,#emEepromAddr
0081 120000      E     LCALL   ?C?LLDXDATA
C51 COMPILER V9.51   CY_EM_EEPROM                                                          10/24/2019 10:21:11 PAGE 67  

0084 A907              MOV     R1,AR7
0086 AA06              MOV     R2,AR6
0088 AB05              MOV     R3,AR5
008A 120000      E     LCALL   ?C?LLDPTR
008D 900000      R     MOV     DPTR,#seqNum
0090 120000      E     LCALL   ?C?LSTXDATA
                                           ; SOURCE LINE # 770
0093 900000      R     MOV     DPTR,#seqNum
0096 120000      E     LCALL   ?C?LLDXDATA
0099 EF                MOV     A,R7
009A 4E                ORL     A,R6
009B 602D              JZ      ?C0089
009D 900000      R     MOV     DPTR,#prevSeqNum
00A0 120000      E     LCALL   ?C?LLDXDATA
00A3 900000      R     MOV     DPTR,#seqNum
00A6 120000      E     LCALL   ?C?LLDXDATA0
00A9 D3                SETB    C
00AA 120000      E     LCALL   ?C?ULCMP
00AD 401B              JC      ?C0089
                                           ; SOURCE LINE # 771
                                           ; SOURCE LINE # 775
00AF 900000      R     MOV     DPTR,#seqNum
00B2 120000      E     LCALL   ?C?LLDXDATA
00B5 900000      R     MOV     DPTR,#prevSeqNum
00B8 120000      E     LCALL   ?C?LSTXDATA
                                           ; SOURCE LINE # 776
00BB 900000      R     MOV     DPTR,#emEepromAddr
00BE 120000      E     LCALL   ?C?LLDXDATA
00C1 900000      R     MOV     DPTR,#lastWrRowPtr
00C4 120000      E     LCALL   ?C?PLDXDATA
00C7 120000      E     LCALL   ?C?LSTPTR
                                           ; SOURCE LINE # 777
00CA         ?C0089:
                                           ; SOURCE LINE # 780
00CA 900000      R     MOV     DPTR,#emEepromAddr
00CD 120000      E     LCALL   ?C?LLDXDATA
00D0 E4                CLR     A
00D1 2F                ADD     A,R7
00D2 FF                MOV     R7,A
00D3 EE                MOV     A,R6
00D4 3401              ADDC    A,#01H
00D6 FE                MOV     R6,A
00D7 E4                CLR     A
00D8 3D                ADDC    A,R5
00D9 FD                MOV     R5,A
00DA E4                CLR     A
00DB 3C                ADDC    A,R4
00DC FC                MOV     R4,A
00DD 900000      R     MOV     DPTR,#emEepromAddr
00E0 120000      E     LCALL   ?C?LSTXDATA
                                           ; SOURCE LINE # 781
00E3 900000      R     MOV     DPTR,#numRows
00E6 120000      E     LCALL   ?C?LLDXDATA
00E9 E4                CLR     A
00EA 7B01              MOV     R3,#01H
00EC FA                MOV     R2,A
00ED F9                MOV     R1,A
00EE F8                MOV     R0,A
00EF 120000      E     LCALL   ?C?LADD
00F2 900000      R     MOV     DPTR,#numRows
00F5 120000      E     LCALL   ?C?LSTXDATA
00F8 020000      R     LJMP    ?C0086
C51 COMPILER V9.51   CY_EM_EEPROM                                                          10/24/2019 10:21:11 PAGE 68  

                                           ; SOURCE LINE # 782
00FB         ?C0090:
00FB 22                RET     
             ; FUNCTION _FindLastWrittenRow (END)

             ; FUNCTION _GetRowAddrBySeqNum (BEGIN)
                                           ; SOURCE LINE # 802
0000 900000      R     MOV     DPTR,#seqNum
0003 120000      E     LCALL   ?C?LSTXDATA
0006 900000      R     MOV     DPTR,#context
0009 120000      E     LCALL   ?C?PSTXDATA
                                           ; SOURCE LINE # 803
                                           ; SOURCE LINE # 804
000C E9                MOV     A,R1
000D 2416              ADD     A,#016H
000F F9                MOV     R1,A
0010 E4                CLR     A
0011 3A                ADDC    A,R2
0012 FA                MOV     R2,A
0013 120000      E     LCALL   ?C?LLDPTR
0016 900000      R     MOV     DPTR,#emEepromAddr
0019 120000      E     LCALL   ?C?LSTXDATA
001C         ?C0091:
                                           ; SOURCE LINE # 806
001C 900000      R     MOV     DPTR,#emEepromAddr
001F 120000      E     LCALL   ?C?LLDXDATA
0022 A907              MOV     R1,AR7
0024 AA06              MOV     R2,AR6
0026 AB05              MOV     R3,AR5
0028 120000      E     LCALL   ?C?LLDPTR
002B 900000      R     MOV     DPTR,#seqNum
002E 120000      E     LCALL   ?C?LLDXDATA0
0031 C3                CLR     C
0032 120000      E     LCALL   ?C?ULCMP
0035 6044              JZ      ?C0092
                                           ; SOURCE LINE # 807
                                           ; SOURCE LINE # 809
0037 900000      R     MOV     DPTR,#emEepromAddr
003A 120000      E     LCALL   ?C?LLDXDATA
003D E4                CLR     A
003E 2F                ADD     A,R7
003F FF                MOV     R7,A
0040 EE                MOV     A,R6
0041 3401              ADDC    A,#01H
0043 FE                MOV     R6,A
0044 E4                CLR     A
0045 3D                ADDC    A,R5
0046 FD                MOV     R5,A
0047 E4                CLR     A
0048 3C                ADDC    A,R4
0049 FC                MOV     R4,A
004A 900000      R     MOV     DPTR,#emEepromAddr
004D 120000      E     LCALL   ?C?LSTXDATA
                                           ; SOURCE LINE # 811
0050 900000      R     MOV     DPTR,#context
0053 120000      E     LCALL   ?C?PLDXDATA
0056 120000      E     LCALL   ?C?LLDPTR
0059 900000      R     MOV     DPTR,#emEepromAddr
005C 120000      E     LCALL   ?C?LLDXDATA0
005F C3                CLR     C
0060 120000      E     LCALL   ?C?ULCMP
0063 4004              JC      ?C0094
C51 COMPILER V9.51   CY_EM_EEPROM                                                          10/24/2019 10:21:11 PAGE 69  

0065 7F00              MOV     R7,#00H
0067 8002              SJMP    ?C0095
0069         ?C0094:
0069 7F01              MOV     R7,#01H
006B         ?C0095:
006B EF                MOV     A,R7
006C 6401              XRL     A,#01H
006E 60AC              JZ      ?C0091
                                           ; SOURCE LINE # 813
                                           ; SOURCE LINE # 814
0070 E4                CLR     A
0071 FF                MOV     R7,A
0072 FE                MOV     R6,A
0073 FD                MOV     R5,A
0074 FC                MOV     R4,A
0075 900000      R     MOV     DPTR,#emEepromAddr
0078 120000      E     LCALL   ?C?LSTXDATA
                                           ; SOURCE LINE # 816
                                           ; SOURCE LINE # 817
                                           ; SOURCE LINE # 818
007B         ?C0092:
                                           ; SOURCE LINE # 820
007B 900000      R     MOV     DPTR,#emEepromAddr
007E 120000      E     LCALL   ?C?LLDXDATA
                                           ; SOURCE LINE # 821
0081         ?C0096:
0081 22                RET     
             ; FUNCTION _GetRowAddrBySeqNum (END)

             ; FUNCTION _GetNextRowToWrite (BEGIN)
                                           ; SOURCE LINE # 847
0000 900000      R     MOV     DPTR,#seqNum
0003 120000      E     LCALL   ?C?LSTXDATA
0006 900000      R     MOV     DPTR,#rowToWrPtr
0009 120000      E     LCALL   ?C?PSTXDATA
                                           ; SOURCE LINE # 851
                                           ; SOURCE LINE # 855
000C 900000      R     MOV     DPTR,#seqNum
000F 120000      E     LCALL   ?C?LLDXDATA
0012 EF                MOV     A,R7
0013 4E                ORL     A,R6
0014 6019              JZ      ?C0097
                                           ; SOURCE LINE # 856
                                           ; SOURCE LINE # 857
0016 900000      R     MOV     DPTR,#rowToWrPtr
0019 120000      E     LCALL   ?C?PLDXDATA
001C 120000      E     LCALL   ?C?LLDPTR
001F E4                CLR     A
0020 2F                ADD     A,R7
0021 FF                MOV     R7,A
0022 EE                MOV     A,R6
0023 3401              ADDC    A,#01H
0025 FE                MOV     R6,A
0026 E4                CLR     A
0027 3D                ADDC    A,R5
0028 FD                MOV     R5,A
0029 E4                CLR     A
002A 3C                ADDC    A,R4
002B FC                MOV     R4,A
002C 120000      E     LCALL   ?C?LSTPTR
                                           ; SOURCE LINE # 858
002F         ?C0097:
C51 COMPILER V9.51   CY_EM_EEPROM                                                          10/24/2019 10:21:11 PAGE 70  

                                           ; SOURCE LINE # 863
002F 900000      R     MOV     DPTR,#context
0032 120000      E     LCALL   ?C?PLDXDATA
0035 120000      E     LCALL   ?C?LLDPTR
0038 900000      R     MOV     DPTR,#rowToWrPtr
003B 120000      E     LCALL   ?C?PLDXDATA
003E 120000      E     LCALL   ?C?LLDPTR0
0041 C3                CLR     C
