C51 COMPILER V9.51   CYDMAC                                                                10/24/2019 10:21:10 PAGE 1   


C51 COMPILER V9.51, COMPILATION OF MODULE CYDMAC
OBJECT MODULE PLACED IN .\DP8051\DP8051_Keil_951\Release\CyDmac.obj
COMPILER INVOKED BY: C:\Program Files\Cypress\PSoC Creator\4.2\PSoC Creator\import\keil\pk51\9.51\C51\BIN\c51.exe Genera
                    -ted_Source\PSoC3\CyDmac.c NOIV LARGE MODDP2 OMF2 VB(1) NOIP INCDIR(.,Generated_Source\PSoC3) FF(3) DB DF(NDEBUG) WL(2) P
                    -R(.\DP8051\DP8051_Keil_951\Release/CyDmac.lst) CD OT(8,SIZE) OJ(.\DP8051\DP8051_Keil_951\Release\CyDmac.obj)

line level    source

*** MESSAGE C286 IN LINE 0 OF (null): license limits optimization to level 5
   1          /***************************************************************************//**
   2          * \file CyDmac.c
   3          * \version 5.70
   4          *
   5          * \brief
   6          * Provides an API for the DMAC component. The API includes functions for the
   7          * DMA controller, DMA channels and Transfer Descriptors. This API is the library
   8          * version not the auto generated code that gets generated when the user places a
   9          * DMA component on the schematic.
  10          *
  11          * The auto generated code would use the APi's in this module.
  12          *
  13          * \note This code is endian agnostic.
  14          *
  15          * \note The Transfer Descriptor memory can be used as regular memory if the
  16          * TD's are not being used.
  17          *
  18          * \note This code uses the first byte of each TD to manage the free list of
  19          * TD's. The user can overwrite this once the TD is allocated.
  20          *
  21          ********************************************************************************
  22          * \copyright
  23          * Copyright 2008-2018, Cypress Semiconductor Corporation.  All rights reserved.
  24          * You may use this file only in accordance with the license, terms, conditions,
  25          * disclaimers, and limitations in the end user license agreement accompanying
  26          * the software package with which this file was provided.
  27          *******************************************************************************/
  28          
  29          #include "CyDmac.h"
  30          
  31          
  32          /*******************************************************************************
  33          * The following variables are initialized from CyDmacConfigure() function that
  34          * is executed from initialize_psoc() at the early initialization stage.
  35          * In case of IAR EW IDE, initialize_psoc() is executed before the data sections
  36          * are initialized. To avoid zeroing, these variables should be initialized
  37          * properly during segments initialization as well.
  38          *******************************************************************************/
  39          static uint8  CyDmaTdCurrentNumber = CY_DMA_NUMBEROF_TDS;           /* Current Number of free elements on 
             -list */
  40          static uint8  CyDmaTdFreeIndex = (uint8)(CY_DMA_NUMBEROF_TDS - 1u); /* Index of first available TD */
  41          static uint32 CyDmaChannels = DMA_CHANNELS_USED__MASK0;              /* Bit map of DMA channel ownership *
             -/
  42          
  43          
  44          /*******************************************************************************
  45          * Function Name: CyDmacConfigure
  46          ****************************************************************************//**
  47          *
  48          * Creates a linked list of all the TDs to be allocated. This function is called
  49          * by the startup code; you do not normally need to call it. You can call this
  50          * function if all of the DMA channels are inactive.
C51 COMPILER V9.51   CYDMAC                                                                10/24/2019 10:21:10 PAGE 2   

  51          *
  52          *******************************************************************************/
  53          void CyDmacConfigure(void) 
  54          {
  55   1          uint8 dmaIndex;
  56   1      
  57   1          /* Set TD list variables. */
  58   1          CyDmaTdFreeIndex     = (uint8)(CY_DMA_NUMBEROF_TDS - 1u);
  59   1          CyDmaTdCurrentNumber = CY_DMA_NUMBEROF_TDS;
  60   1      
  61   1          /* Make TD free list. */
  62   1          for(dmaIndex = (uint8)(CY_DMA_NUMBEROF_TDS - 1u); dmaIndex != 0u; dmaIndex--)
  63   1          {
  64   2              CY_DMA_TDMEM_STRUCT_PTR[dmaIndex].TD0[0u] = (uint8)(dmaIndex - 1u);
  65   2          }
  66   1      
  67   1          /* Make last one point to zero. */
  68   1          CY_DMA_TDMEM_STRUCT_PTR[dmaIndex].TD0[0u] = 0u;
  69   1      }
  70          
  71          
  72          /*******************************************************************************
  73          * Function Name: CyDmacError
  74          ****************************************************************************//**
  75          *
  76          *  Returns errors of the last failed DMA transaction.
  77          *
  78          * \return Errors of the last failed DMA transaction.
  79          *
  80          *  DMAC_PERIPH_ERR:
  81          *   Set to 1 when a peripheral responds to a bus transaction with an error
  82          *   response.
  83          *
  84          *  DMAC_UNPOP_ACC:
  85          *   Set to 1 when an access is attempted to an invalid address.
  86          *
  87          *  DMAC_BUS_TIMEOUT:
  88          *   Set to 1 when a bus timeout occurs. Cleared by writing a 1. Timeout values
  89          *   are determined by the BUS_TIMEOUT field in the PHUBCFG register.
  90          *
  91          * Theory:
  92          *  Once an error occurs the error bits are sticky and are only cleared by
  93          *  writing 1 to the error register.
  94          *
  95          *******************************************************************************/
  96          uint8 CyDmacError(void) 
  97          {
  98   1          return((uint8)(((uint32) 0x0Eu) & *CY_DMA_ERR_PTR));
  99   1      }
 100          
 101          
 102          /*******************************************************************************
 103          * Function Name: CyDmacClearError
 104          ****************************************************************************//**
 105          *
 106          *  Clears the error bits in the error register of the DMAC.
 107          *
 108          * \param error:
 109          *   Clears the error bits in the DMAC error register.
 110          *
 111          *  \param DMAC_PERIPH_ERR:
 112          *   Set to 1 when a peripheral responds to a bus transaction with an error
C51 COMPILER V9.51   CYDMAC                                                                10/24/2019 10:21:10 PAGE 3   

 113          *   response.
 114          *
 115          *  \param DMAC_UNPOP_ACC:
 116          *   Set to 1 when an access is attempted to an invalid address.
 117          *
 118          *  \param DMAC_BUS_TIMEOUT:
 119          *   Set to 1 when a bus timeout occurs. Cleared by writing 1. Timeout values
 120          *   are determined by the BUS_TIMEOUT field in the PHUBCFG register.
 121          *
 122          * Theory:
 123          *  Once an error occurs the error bits are sticky and are only cleared by
 124          *  writing 1 to the error register.
 125          *
 126          *******************************************************************************/
 127          void CyDmacClearError(uint8 error) 
 128          {
 129   1          *CY_DMA_ERR_PTR = (((uint32)0x0Fu) & ((uint32)error));
 130   1      }
 131          
 132          
 133          /*******************************************************************************
 134          * Function Name: CyDmacErrorAddress
 135          ****************************************************************************//**
 136          *
 137          *  When DMAC_BUS_TIMEOUT, DMAC_UNPOP_ACC, and DMAC_PERIPH_ERR occur the
 138          *  address of the error is written to the error address register and can be read
 139          *  with this function.
 140          *
 141          *  If there are multiple errors, only the address of the first is saved.
 142          *
 143          * \return The address that caused the error.
 144          *
 145          *******************************************************************************/
 146          uint32 CyDmacErrorAddress(void) 
 147          {
 148   1          return(CY_GET_REG32(CY_DMA_ERR_ADR_PTR));
 149   1      }
 150          
 151          
 152          /*******************************************************************************
 153          * Function Name: CyDmaChAlloc
 154          ****************************************************************************//**
 155          *
 156          *  Allocates a channel from the DMAC to be used in all functions that require a
 157          *  channel handle.
 158          *
 159          * \return The allocated channel number. Zero is a valid channel number.
 160          *  DMA_INVALID_CHANNEL is returned if there are no channels available.
 161          *
 162          *******************************************************************************/
 163          uint8 CyDmaChAlloc(void) 
 164          {
 165   1          uint8 interruptState;
 166   1          uint8 dmaIndex;
 167   1          uint32 channel = 1u;
 168   1      
 169   1      
 170   1          /* Enter critical section! */
 171   1          interruptState = CyEnterCriticalSection();
 172   1      
 173   1          /* Look for free channel. */
 174   1          for(dmaIndex = 0u; dmaIndex < CY_DMA_NUMBEROF_CHANNELS; dmaIndex++)
C51 COMPILER V9.51   CYDMAC                                                                10/24/2019 10:21:10 PAGE 4   

 175   1          {
 176   2              if(0uL == (CyDmaChannels & channel))
 177   2              {
 178   3                  /* Mark channel as used. */
 179   3                  CyDmaChannels |= channel;
 180   3                  break;
 181   3              }
 182   2      
 183   2              channel <<= 1u;
 184   2          }
 185   1      
 186   1          if(dmaIndex >= CY_DMA_NUMBEROF_CHANNELS)
 187   1          {
 188   2              dmaIndex = CY_DMA_INVALID_CHANNEL;
 189   2          }
 190   1      
 191   1          /* Exit critical section! */
 192   1          CyExitCriticalSection(interruptState);
 193   1      
 194   1          return(dmaIndex);
 195   1      }
 196          
 197          
 198          /*******************************************************************************
 199          * Function Name: CyDmaChFree
 200          ****************************************************************************//**
 201          *
 202          * Frees a channel allocated by \ref DmaChAlloc().
 203          *
 204          * \param chHandle The handle previously returned by \ref CyDmaChAlloc() or \ref
 205          * DMA_DmaInitalize().
 206          *
 207          * \return CYRET_SUCCESS if successful.
 208          * \return CYRET_BAD_PARAM if chHandle is invalid.
 209          *
 210          *******************************************************************************/
 211          cystatus CyDmaChFree(uint8 chHandle) 
 212          {
 213   1          cystatus status = CYRET_BAD_PARAM;
 214   1          uint8 interruptState;
 215   1      
 216   1          if(chHandle < CY_DMA_NUMBEROF_CHANNELS)
 217   1          {
 218   2              /* Enter critical section */
 219   2              interruptState = CyEnterCriticalSection();
 220   2      
 221   2              /* Clear bit mask that keeps track of ownership. */
 222   2              CyDmaChannels &= ~(((uint32) 1u) << chHandle);
 223   2      
 224   2              /* Exit critical section */
 225   2              CyExitCriticalSection(interruptState);
 226   2              status = CYRET_SUCCESS;
 227   2          }
 228   1      
 229   1          return(status);
 230   1      }
 231          
 232          
 233          /*******************************************************************************
 234          * Function Name: CyDmaChEnable
 235          ****************************************************************************//**
 236          *
C51 COMPILER V9.51   CYDMAC                                                                10/24/2019 10:21:10 PAGE 5   

 237          *  Enables the DMA channel. A software or hardware request still must happen
 238          *  before the channel is executed.
 239          *
 240          *  \param chHandle A handle previously returned by \ref CyDmaChAlloc() or \ref
 241          *  DMA_DmaInitalize().
 242          *
 243          *  \param preserveTds Preserves the original TD state when the TD has completed.
 244          *  This parameter applies to all TDs in the channel.
 245          *
 246          *   0 - When TD is completed, the DMAC leaves the TD configuration values in
 247          *   their current state, and does not restore them to their original state.
 248          *
 249          *   1 - When TD is completed, the DMAC restores the original configuration
 250          *   values of the TD.
 251          *
 252          *  When preserveTds is set, the TD slot that equals the channel number becomes
 253          *  RESERVED and that becomes where the working registers exist. So, for example,
 254          *  if you are using CH06 and preserveTds is set, you are not allowed to use TD
 255          *  slot 6. That is reclaimed by the DMA engine for its private use.
 256          *
 257          *  \note Do not chain back to a completed TD if the preserveTds for the channel
 258          *  is set to 0. When a TD has completed preserveTds for the channel set to 0,
 259          *  the transfer count will be at 0. If a TD with a transfer count of 0 is
 260          *  started, the TD will transfer an indefinite amount of data.
 261          *
 262          *  Take extra precautions when using the hardware request (DRQ) option when the
 263          *  preserveTds is set to 0, as you might be requesting the wrong data.
 264          *
 265          * \return CYRET_SUCCESS if successful.
 266          * \return CYRET_BAD_PARAM if chHandle is invalid.
 267          *
 268          *******************************************************************************/
 269          cystatus CyDmaChEnable(uint8 chHandle, uint8 preserveTds) 
 270          {
 271   1          cystatus status = CYRET_BAD_PARAM;
 272   1      
 273   1          if(chHandle < CY_DMA_NUMBEROF_CHANNELS)
 274   1          {
 275   2              if (0u != preserveTds)
 276   2              {
 277   3                  /* Store intermediate TD states separately in CHn_SEP_TD0/1 to
 278   3                  *  preserve original TD chain
 279   3                  */
 280   3                  CY_DMA_CH_STRUCT_PTR[chHandle].basic_cfg[0u] |= CY_DMA_CH_BASIC_CFG_WORK_SEP;
 281   3              }
 282   2              else
 283   2              {
 284   3                  /* Store intermediate and final TD states on top of original TD chain */
 285   3                  CY_DMA_CH_STRUCT_PTR[chHandle].basic_cfg[0u] &= (uint8)(~CY_DMA_CH_BASIC_CFG_WORK_SEP);
 286   3              }
 287   2      
 288   2              /* Enable channel */
 289   2              CY_DMA_CH_STRUCT_PTR[chHandle].basic_cfg[0u] |= CY_DMA_CH_BASIC_CFG_EN;
 290   2      
 291   2              status = CYRET_SUCCESS;
 292   2          }
 293   1      
 294   1          return(status);
 295   1      }
 296          
 297          
 298          /*******************************************************************************
C51 COMPILER V9.51   CYDMAC                                                                10/24/2019 10:21:10 PAGE 6   

 299          * Function Name: CyDmaChDisable
 300          ****************************************************************************//**
 301          *
 302          * Disables the DMA channel. Once this function is called, CyDmaChStatus() may
 303          * be called to determine when the channel is disabled and which TDs were being
 304          * executed.
 305          *
 306          * If it is currently executing it will allow the current burst to finish
 307          * naturally.
 308          *
 309          * \param chHandle A handle previously returned by \ref CyDmaChAlloc() or \ref
 310          * DMA_DmaInitalize().
 311          *
 312          * \return CYRET_SUCCESS if successful.
 313          * \return CYRET_BAD_PARAM if chHandle is invalid.
 314          *
 315          *******************************************************************************/
 316          cystatus CyDmaChDisable(uint8 chHandle) 
 317          {
 318   1          cystatus status = CYRET_BAD_PARAM;
 319   1      
 320   1          if(chHandle < CY_DMA_NUMBEROF_CHANNELS)
 321   1          {
 322   2              /***********************************************************************
 323   2              * Should not change configuration information of a DMA channel when it
 324   2              * is active (or vulnerable to becoming active).
 325   2              ***********************************************************************/
 326   2      
 327   2              /* Disable channel */
 328   2              CY_DMA_CH_STRUCT_PTR[chHandle].basic_cfg[0] &= ((uint8) (~CY_DMA_CH_BASIC_CFG_EN));
 329   2      
 330   2              /* Store intermediate and final TD states on top of original TD chain */
 331   2              CY_DMA_CH_STRUCT_PTR[chHandle].basic_cfg[0] &= ((uint8) (~CY_DMA_CH_BASIC_CFG_WORK_SEP));
 332   2              status = CYRET_SUCCESS;
 333   2          }
 334   1      
 335   1          return(status);
 336   1      }
 337          
 338          
 339          /*******************************************************************************
 340          * Function Name: CyDmaClearPendingDrq
 341          ****************************************************************************//**
 342          *
 343          * Clears pending the DMA data request.
 344          *
 345          * \param chHandle Handle to the dma channel.
 346          *
 347          * \return CYRET_SUCCESS if successful.
 348          * \return CYRET_BAD_PARAM if chHandle is invalid.
 349          *
 350          *******************************************************************************/
 351          cystatus CyDmaClearPendingDrq(uint8 chHandle) 
 352          {
 353   1          cystatus status = CYRET_BAD_PARAM;
 354   1      
 355   1          if(chHandle < CY_DMA_NUMBEROF_CHANNELS)
 356   1          {
 357   2              CY_DMA_CH_STRUCT_PTR[chHandle].action[0] |= CY_DMA_CPU_TERM_CHAIN;
 358   2              CY_DMA_CH_STRUCT_PTR[chHandle].basic_cfg[0] |= 0x01u;
 359   2              status = CYRET_SUCCESS;
 360   2          }
C51 COMPILER V9.51   CYDMAC                                                                10/24/2019 10:21:10 PAGE 7   

 361   1      
 362   1          return(status);
 363   1      }
 364          
 365          
 366          /*******************************************************************************
 367          * Function Name: CyDmaChPriority
 368          ****************************************************************************//**
 369          *
 370          *  Sets the priority of a DMA channel. You can use this function when you want
 371          *  to change the priority at run time. If the priority remains the same for a
 372          *  DMA channel, then you can configure the priority in the .cydwr file.
 373          *
 374          *  \param chHandle A handle previously returned by \ref CyDmaChAlloc() or \ref
 375          *  DMA_DmaInitalize().
 376          *
 377          *  \param priority Priority to set the channel to, 0 - 7.
 378          *
 379          * \return CYRET_SUCCESS if successful.
 380          *  \return CYRET_BAD_PARAM if chHandle is invalid.
 381          *
 382          *******************************************************************************/
 383          cystatus CyDmaChPriority(uint8 chHandle, uint8 priority) 
 384          {
 385   1          uint8 value;
 386   1          cystatus status = CYRET_BAD_PARAM;
 387   1      
 388   1          if(chHandle < CY_DMA_NUMBEROF_CHANNELS)
 389   1          {
 390   2              value = CY_DMA_CH_STRUCT_PTR[chHandle].basic_cfg[0u] & ((uint8)(~(0x0Eu)));
 391   2      
 392   2              CY_DMA_CH_STRUCT_PTR[chHandle].basic_cfg[0u] = value | ((uint8) ((priority & 0x7u) << 0x01u));
 393   2      
 394   2              status = CYRET_SUCCESS;
 395   2          }
 396   1      
 397   1          return(status);
 398   1      }
 399          
 400          
 401          /*******************************************************************************
 402          * Function Name: CyDmaChSetExtendedAddress
 403          ****************************************************************************//**
 404          *
 405          *  Sets the high 16 bits of the source and destination addresses for the DMA
 406          *  channel (valid for all TDs in the chain).
 407          *
 408          *  \param chHandle A handle previously returned by \ref CyDmaChAlloc() or \ref
 409          *  DMA_DmaInitalize().
 410          *
 411          *  \param source Upper 16 bit address of the DMA transfer source.
 412          *
 413          *  \param destination Upper 16 bit address of the DMA transfer destination.
 414          *
 415          * \return CYRET_SUCCESS if successful.
 416          * \return CYRET_BAD_PARAM if chHandle is invalid.
 417          *
 418          *******************************************************************************/
 419          cystatus CyDmaChSetExtendedAddress(uint8 chHandle, uint16 source, uint16 destination) \
 420              
 421          {
 422   1          cystatus status = CYRET_BAD_PARAM;
C51 COMPILER V9.51   CYDMAC                                                                10/24/2019 10:21:10 PAGE 8   

 423   1          reg16 *convert;
 424   1      
 425   1          #if(CY_PSOC5)
              
                      /* 0x1FFF8000-0x1FFFFFFF needs to use alias at 0x20008000-0x2000FFFF */
                      if(source == 0x1FFFu)
                      {
                          source = 0x2000u;
                      }
              
                      if(destination == 0x1FFFu)
                      {
                          destination = 0x2000u;
                      }
              
                  #endif  /* (CY_PSOC5) */
 439   1      
 440   1      
 441   1          if(chHandle < CY_DMA_NUMBEROF_CHANNELS)
 442   1          {
 443   2              /* Set source address */
 444   2              convert = (reg16 *) &CY_DMA_CFGMEM_STRUCT_PTR[chHandle].CFG1[0];
 445   2              CY_SET_REG16(convert, source);
 446   2      
 447   2              /* Set destination address */
 448   2              convert = (reg16 *) &CY_DMA_CFGMEM_STRUCT_PTR[chHandle].CFG1[2u];
 449   2              CY_SET_REG16(convert, destination);
 450   2              status = CYRET_SUCCESS;
 451   2          }
 452   1      
 453   1          return(status);
 454   1      }
 455          
 456          
 457          /*******************************************************************************
 458          * Function Name: CyDmaChSetInitialTd
 459          ****************************************************************************//**
 460          *
 461          * Sets the initial TD to be executed for the channel when the \ref CyDmaChEnable()
 462          * function is called.
 463          *
 464          * \param chHandle A handle previously returned by \ref CyDmaChAlloc() or
 465          * \ref DMA_DmaInitialize().
 466          *
 467          * \param startTd Set the TD index as the first TD associated with the
 468          * channel. Zero is a valid TD index.
 469          *
 470          * \return CYRET_SUCCESS if successful.
 471          * \return CYRET_BAD_PARAM if chHandle is invalid.
 472          *
 473          *******************************************************************************/
 474          cystatus CyDmaChSetInitialTd(uint8 chHandle, uint8 startTd) 
 475          {
 476   1          cystatus status = CYRET_BAD_PARAM;
 477   1      
 478   1          if(chHandle < CY_DMA_NUMBEROF_CHANNELS)
 479   1          {
 480   2              CY_DMA_CH_STRUCT_PTR[chHandle].basic_status[1u] = startTd;
 481   2              status = CYRET_SUCCESS;
 482   2          }
 483   1      
 484   1          return(status);
C51 COMPILER V9.51   CYDMAC                                                                10/24/2019 10:21:10 PAGE 9   

 485   1      }
 486          
 487          
 488          /*******************************************************************************
 489          * Function Name: CyDmaChSetRequest
 490          ****************************************************************************//**
 491          *
 492          *  Allows the caller to terminate a chain of TDs, terminate one TD, or create a
 493          *  direct request to start the DMA channel.
 494          *
 495          *  \param chHandle A handle previously returned by \ref CyDmaChAlloc() or \ref
 496          *  DMA_DmaInitalize().
 497          *
 498          *  \param request One of the following constants. Each of the constants is a
 499          *  three-bit value.
 500          *   CPU_REQ         - Create a direct request to start the DMA channel
 501          *   CPU_TERM_TD     - Terminate one TD
 502          *   CPU_TERM_CHAIN  - Terminate a chain of TDs
 503          *
 504          * \return CYRET_SUCCESS if successful.
 505          * \return CYRET_BAD_PARAM if chHandle is invalid.
 506          *
 507          *******************************************************************************/
 508          cystatus CyDmaChSetRequest(uint8 chHandle, uint8 request) 
 509          {
 510   1          cystatus status = CYRET_BAD_PARAM;
 511   1      
 512   1          if(chHandle < CY_DMA_NUMBEROF_CHANNELS)
 513   1          {
 514   2              CY_DMA_CH_STRUCT_PTR[chHandle].action[0u] |= (request & (CPU_REQ | CPU_TERM_TD | CPU_TERM_CHAIN));
 515   2              status = CYRET_SUCCESS;
 516   2          }
 517   1      
 518   1          return(status);
 519   1      }
 520          
 521          
 522          /*******************************************************************************
 523          * Function Name: CyDmaChGetRequest
 524          ****************************************************************************//**
 525          *
 526          * This function allows the caller of \ref CyDmaChSetRequest() to determine if the
 527          * request was completed.
 528          *
 529          * \param chHandle A handle previously returned by \ref CyDmaChAlloc() or \ref
 530          * DMA_DmaInitalize().
 531          *
 532          * \return Returns a three-bit field, corresponding to the three bits of the
 533          * request, which describes the state of the previously posted request. If the
 534          * value is zero, the request was completed. CY_DMA_INVALID_CHANNEL if the handle
 535          * is invalid.
 536          *
 537          *******************************************************************************/
 538          cystatus CyDmaChGetRequest(uint8 chHandle) 
 539          {
 540   1          cystatus status = CY_DMA_INVALID_CHANNEL;
 541   1      
 542   1          if(chHandle < CY_DMA_NUMBEROF_CHANNELS)
 543   1          {
 544   2              status = (cystatus) ((uint32)CY_DMA_CH_STRUCT_PTR[chHandle].action[0u] &
 545   2                                  (uint32)(CY_DMA_CPU_REQ | CY_DMA_CPU_TERM_TD | CY_DMA_CPU_TERM_CHAIN));
 546   2          }
C51 COMPILER V9.51   CYDMAC                                                                10/24/2019 10:21:10 PAGE 10  

 547   1      
 548   1          return(status);
 549   1      }
 550          
 551          
 552          /*******************************************************************************
 553          * Function Name: CyDmaChStatus
 554          ****************************************************************************//**
 555          *
 556          *  Determines the status of the DMA channel.
 557          *
 558          *  \param chHandle A handle previously returned by \ref CyDmaChAlloc() or \ref
 559          *  DMA_DmaInitalize().
 560          *
 561          *  \param currentTd The address to store the index of the current TD. Can be NULL
 562          *  if the value is not needed.
 563          *
 564          *  \param state The address to store the state of the channel. Can be NULL if the
 565          *  value is not needed.
 566          *
 567          *   STATUS_TD_ACTIVE
 568          *    \param 0: Channel is not currently being serviced by DMAC
 569          *    \param 1: Channel is currently being serviced by DMAC
 570          *
 571          *   STATUS_CHAIN_ACTIVE
 572          *    \param 0: TD chain is inactive; either no DMA requests have triggered a new chain
 573          *       or the previous chain has completed.
 574          *    \param 1: TD chain has been triggered by a DMA request
 575          *
 576          * \return CYRET_SUCCESS if successful.
 577          * \return CYRET_BAD_PARAM if chHandle is invalid.
 578          *
 579          * Theory:
 580          *   The caller can check on the activity of the Current TD and the Chain.
 581          *
 582          *******************************************************************************/
 583          cystatus CyDmaChStatus(uint8 chHandle, uint8 * currentTd, uint8 * state) 
 584          {
 585   1          cystatus status = CYRET_BAD_PARAM;
 586   1      
 587   1          if(chHandle < CY_DMA_NUMBEROF_CHANNELS)
 588   1          {
 589   2              if(NULL != currentTd)
 590   2              {
 591   3                  *currentTd = CY_DMA_CH_STRUCT_PTR[chHandle].basic_status[1] & 0x7Fu;
 592   3              }
 593   2      
 594   2              if(NULL != state)
 595   2              {
 596   3                  *state= CY_DMA_CH_STRUCT_PTR[chHandle].basic_status[0];
 597   3              }
 598   2      
 599   2              status = CYRET_SUCCESS;
 600   2          }
 601   1      
 602   1          return (status);
 603   1      }
 604          
 605          
 606          /*******************************************************************************
 607          * Function Name: CyDmaChSetConfiguration
 608          ****************************************************************************//**
C51 COMPILER V9.51   CYDMAC                                                                10/24/2019 10:21:10 PAGE 11  

 609          *
 610          * Sets configuration information of the channel.
 611          *
 612          *  \param uint8 chHandle:
 613          *   A handle previously returned by CyDmaChAlloc() or DMA_DmaInitialize().
 614          *
 615          *  \param uint8 burstCount:
 616          *   Specifies the size of bursts (1 to 127) the data transfer should be divided
 617          *   into. If this value is zero then the whole transfer is done in one burst.
 618          *
 619          *  \param uint8 requestPerBurst:
 620          *   The whole of the data can be split into multiple bursts, if this is
 621          *   \param required to complete the transaction:
 622          *    \param 0: All subsequent bursts after the first burst will be automatically
 623          *       requested and carried out
 624          *    \param 1: All subsequent bursts after the first burst must also be individually
 625          *       requested.
 626          *
 627          *  \param uint8 tdDone0:
 628          *   Selects one of the TERMOUT0 interrupt lines to signal completion. The line
 629          *   connected to the nrq terminal will determine the TERMOUT0_SEL definition and
 630          *   should be used as supplied by cyfitter.h
 631          *
 632          *  \param uint8 tdDone1:
 633          *   Selects one of the TERMOUT1 interrupt lines to signal completion. The line
 634          *   connected to the nrq terminal will determine the TERMOUT1_SEL definition and
 635          *   should be used as supplied by cyfitter.h
 636          *
 637          *  \param uint8 tdStop:
 638          *   Selects one of the TERMIN interrupt lines to signal to the DMAC that the TD
 639          *   should terminate. The signal connected to the trq terminal will determine
 640          *   which TERMIN (termination request) is used.
 641          *
 642          * \return
 643          *  CYRET_SUCCESS if successful.
 644          *  CYRET_BAD_PARAM if chHandle is invalid.
 645          *
 646          *******************************************************************************/
 647          cystatus CyDmaChSetConfiguration(uint8 chHandle, uint8 burstCount, uint8 requestPerBurst,
 648                                           uint8 tdDone0, uint8 tdDone1, uint8 tdStop) 
 649          {
 650   1          cystatus status = CYRET_BAD_PARAM;
 651   1      
 652   1          if(chHandle < CY_DMA_NUMBEROF_CHANNELS)
 653   1          {
 654   2              CY_DMA_CFGMEM_STRUCT_PTR[chHandle].CFG0[0] = (burstCount & 0x7Fu) | ((uint8)((requestPerBurst & 0x
             -1u) << 7u));
 655   2              CY_DMA_CFGMEM_STRUCT_PTR[chHandle].CFG0[1] = ((uint8)((tdDone1 & 0xFu) << 4u)) | (tdDone0 & 0xFu);
 656   2              CY_DMA_CFGMEM_STRUCT_PTR[chHandle].CFG0[2] = 0x0Fu & tdStop;
 657   2              CY_DMA_CFGMEM_STRUCT_PTR[chHandle].CFG0[3] = 0u; /* burstcount_remain. */
 658   2      
 659   2              status = CYRET_SUCCESS;
 660   2          }
 661   1      
 662   1          return (status);
 663   1      }
 664          
 665          
 666          /*******************************************************************************
 667          * Function Name: CyDmaTdAllocate
 668          ****************************************************************************//**
 669          *
C51 COMPILER V9.51   CYDMAC                                                                10/24/2019 10:21:10 PAGE 12  

 670          *  Allocates a TD for use with an allocated DMA channel.
 671          *
 672          * \return
 673          *  Zero-based index of the TD to be used by the caller. Since there are 128 TDs
 674          *  minus the reserved TDs (0 to 23), the value returned would range from 24 to
 675          *  127 not 24 to 128. DMA_INVALID_TD is returned if there are no free TDs
 676          *  available.
 677          *
 678          *******************************************************************************/
 679          uint8 CyDmaTdAllocate(void) 
 680          {
 681   1          uint8 interruptState;
 682   1          uint8 element = CY_DMA_INVALID_TD;
 683   1      
 684   1          /* Enter critical section! */
 685   1          interruptState = CyEnterCriticalSection();
 686   1      
 687   1          if(CyDmaTdCurrentNumber > NUMBEROF_CHANNELS)
 688   1          {
 689   2              /* Get pointer to Next available. */
 690   2              element = CyDmaTdFreeIndex;
 691   2      
 692   2              /* Decrement the count. */
 693   2              CyDmaTdCurrentNumber--;
 694   2      
 695   2              /* Update next available pointer. */
 696   2              CyDmaTdFreeIndex = CY_DMA_TDMEM_STRUCT_PTR[element].TD0[0];
 697   2          }
 698   1      
 699   1          /* Exit critical section! */
 700   1          CyExitCriticalSection(interruptState);
 701   1      
 702   1          return(element);
 703   1      }
 704          
 705          
 706          /*******************************************************************************
 707          * Function Name: CyDmaTdFree
 708          ****************************************************************************//**
 709          *
 710          *  Returns a TD to the free list.
 711          *
 712          *  \param uint8 tdHandle:
 713          *   The TD handle returned by the CyDmaTdAllocate().
 714          *
 715          *******************************************************************************/
 716          void CyDmaTdFree(uint8 tdHandle) 
 717          {
 718   1          if(tdHandle < CY_DMA_NUMBEROF_TDS)
 719   1          {
 720   2              /* Enter critical section! */
 721   2              uint8 interruptState = CyEnterCriticalSection();
 722   2      
 723   2              /* Get pointer to Next available. */
 724   2              CY_DMA_TDMEM_STRUCT_PTR[tdHandle].TD0[0u] = CyDmaTdFreeIndex;
 725   2      
 726   2              /* Set new Next Available. */
 727   2              CyDmaTdFreeIndex = tdHandle;
 728   2      
 729   2              /* Keep track of how many left. */
 730   2              CyDmaTdCurrentNumber++;
 731   2      
C51 COMPILER V9.51   CYDMAC                                                                10/24/2019 10:21:10 PAGE 13  

 732   2              /* Exit critical section! */
 733   2              CyExitCriticalSection(interruptState);
 734   2          }
 735   1      }
 736          
 737          
 738          /*******************************************************************************
 739          * Function Name: CyDmaTdFreeCount
 740          ****************************************************************************//**
 741          *
 742          *  Returns the number of free TDs available to be allocated.
 743          *
 744          * \return
 745          *  The number of free TDs.
 746          *
 747          *******************************************************************************/
 748          uint8 CyDmaTdFreeCount(void) 
 749          {
 750   1          return(CyDmaTdCurrentNumber - CY_DMA_NUMBEROF_CHANNELS);
 751   1      }
 752          
 753          
 754          /*******************************************************************************
 755          * Function Name: CyDmaTdSetConfiguration
 756          ****************************************************************************//**
 757          *
 758          *  Configures the TD.
 759          *
 760          *  \param uint8 tdHandle:
 761          *   A handle previously returned by CyDmaTdAlloc().
 762          *
 763          *  \param uint16 transferCount:
 764          *   The size of the data transfer (in bytes) for this TD. A size of zero will
 765          *   cause the transfer to continue indefinitely. This parameter is limited to
 766          *   4095 bytes; the TD is not initialized at all when a higher value is passed.
 767          *
 768          *  \param uint8 nextTd:
 769          *   Zero based index of the next Transfer Descriptor in the TD chain. Zero is a
 770          *   valid pointer to the next TD; DMA_END_CHAIN_TD is the end of the chain.
 771          *   DMA_DISABLE_TD indicates an end to the chain and the DMA is disabled. No
 772          *   further TDs are fetched. DMA_DISABLE_TD is only supported on PSoC3 and
 773          *   PSoC 5LP silicons.
 774          *
 775          *  \param uint8 configuration:
 776          *   Stores the Bit field of configuration bits.
 777          *
 778          *   CY_DMA_TD_SWAP_EN        - Perform endian swap
 779          *
 780          *   CY_DMA_TD_SWAP_SIZE4     - Swap size = 4 bytes
 781          *
 782          *   CY_DMA_TD_AUTO_EXEC_NEXT - The next TD in the chain will trigger
 783          *                              automatically when the current TD completes.
 784          *
 785          *   CY_DMA_TD_TERMIN_EN      - Terminate this TD if a positive edge on the trq
 786          *                              input line occurs. The positive edge must occur
 787          *                              during a burst. That is the only time the DMAC
 788          *                              will listen for it.
 789          *
 790          *   DMA__TD_TERMOUT_EN       - When this TD completes, the TERMOUT signal will
 791          *                              generate a pulse. Note that this option is
 792          *                              instance specific with the instance name followed
 793          *                              by two underscores. In this example, the instance
C51 COMPILER V9.51   CYDMAC                                                                10/24/2019 10:21:10 PAGE 14  

 794          *                              name is DMA.
 795          *
 796          *   CY_DMA_TD_INC_DST_ADR    - Increment DST_ADR according to the size of each
 797          *                              data transaction in the burst.
 798          *
 799          *   CY_DMA_TD_INC_SRC_ADR    - Increment SRC_ADR according to the size of each
 800          *                              data transaction in the burst.
 801          *
 802          * \return
 803          *  CYRET_SUCCESS if successful.
 804          *  CYRET_BAD_PARAM if tdHandle or transferCount is invalid.
 805          *
 806          *******************************************************************************/
 807          cystatus CyDmaTdSetConfiguration(uint8 tdHandle, uint16 transferCount, uint8 nextTd, uint8 configuration) 
             -\
 808              
 809          {
 810   1          cystatus status = CYRET_BAD_PARAM;
 811   1      
 812   1          if((tdHandle < CY_DMA_NUMBEROF_TDS) && (0u == (0xF000u & transferCount)))
 813   1          {
 814   2              /* Set 12 bits transfer count. */
 815   2              reg16 *convert = (reg16 *) &CY_DMA_TDMEM_STRUCT_PTR[tdHandle].TD0[0u];
 816   2              CY_SET_REG16(convert, transferCount);
 817   2      
 818   2              /* Set Next TD pointer. */
 819   2              CY_DMA_TDMEM_STRUCT_PTR[tdHandle].TD0[2u] = nextTd;
 820   2      
 821   2              /* Configure the TD */
 822   2              CY_DMA_TDMEM_STRUCT_PTR[tdHandle].TD0[3u] = configuration;
 823   2      
 824   2              status = CYRET_SUCCESS;
 825   2          }
 826   1      
 827   1          return(status);
 828   1      }
 829          
 830          
 831          /*******************************************************************************
 832          * Function Name: CyDmaTdGetConfiguration
 833          ****************************************************************************//**
 834          *
 835          *  Retrieves the configuration of the TD. If a NULL pointer is passed as a
 836          *  parameter, that parameter is skipped. You may request only the values you are
 837          *  interested in.
 838          *
 839          *  \param uint8 tdHandle:
 840          *   A handle previously returned by CyDmaTdAlloc().
 841          *
 842          *  \param uint16 * transferCount:
 843          *   The address to store the size of the data transfer (in bytes) for this TD.
 844          *   A size of zero could indicate that the TD has completed its transfer, or
 845          *   that the TD is doing an indefinite transfer.
 846          *
 847          *  \param uint8 * nextTd:
 848          *   The address to store the index of the next TD in the TD chain.
 849          *
 850          *  \param uint8 * configuration:
 851          *   The address to store the Bit field of configuration bits.
 852          *   See CyDmaTdSetConfiguration() function description.
 853          *
 854          * \return
C51 COMPILER V9.51   CYDMAC                                                                10/24/2019 10:21:10 PAGE 15  

 855          *  CYRET_SUCCESS if successful.
 856          *  CYRET_BAD_PARAM if tdHandle is invalid.
 857          *
 858          * \sideeffect
 859          *  If TD has a transfer count of N and is executed, the transfer count becomes
 860          *  0. If it is reexecuted, the Transfer count of zero will be interpreted as a
 861          *  request for indefinite transfer. Be careful when requesting TD with a
 862          *  transfer count of zero.
 863          *
 864          *******************************************************************************/
 865          cystatus CyDmaTdGetConfiguration(uint8 tdHandle, uint16 * transferCount, uint8 * nextTd, uint8 * configura
             -tion) \
 866              
 867          {
 868   1          cystatus status = CYRET_BAD_PARAM;
 869   1      
 870   1          if(tdHandle < CY_DMA_NUMBEROF_TDS)
 871   1          {
 872   2              /* If we have pointer */
 873   2              if(NULL != transferCount)
 874   2              {
 875   3                  /* Get 12 bits of transfer count */
 876   3                  reg16 *convert = (reg16 *) &CY_DMA_TDMEM_STRUCT_PTR[tdHandle].TD0[0];
 877   3                  *transferCount = 0x0FFFu & CY_GET_REG16(convert);
 878   3              }
 879   2      
 880   2              /* If we have pointer */
 881   2              if(NULL != nextTd)
 882   2              {
 883   3                  /* Get Next TD pointer */
 884   3                  *nextTd = CY_DMA_TDMEM_STRUCT_PTR[tdHandle].TD0[2u];
 885   3              }
 886   2      
 887   2              /* If we have pointer */
 888   2              if(NULL != configuration)
 889   2              {
 890   3                  /* Get configuration TD */
 891   3                  *configuration = CY_DMA_TDMEM_STRUCT_PTR[tdHandle].TD0[3u];
 892   3              }
 893   2      
 894   2              status = CYRET_SUCCESS;
 895   2          }
 896   1      
 897   1          return(status);
 898   1      }
 899          
 900          
 901          /*******************************************************************************
 902          * Function Name: CyDmaTdSetAddress
 903          ****************************************************************************//**
 904          *
 905          *  Sets the lower 16 bits of the source and destination addresses for this TD
 906          *  only.
 907          *
 908          *  \param uint8 tdHandle:
 909          *   A handle previously returned by CyDmaTdAlloc().
 910          *
 911          *  \param uint16 source:
 912          *   The lower 16 address bits of the source of the data transfer.
 913          *
 914          *  \param uint16 destination:
 915          *   The lower 16 address bits of the destination of the data transfer.
C51 COMPILER V9.51   CYDMAC                                                                10/24/2019 10:21:10 PAGE 16  

 916          *
 917          * \return
 918          *  CYRET_SUCCESS if successful.
 919          *  CYRET_BAD_PARAM if tdHandle is invalid.
 920          *
 921          *******************************************************************************/
 922          cystatus CyDmaTdSetAddress(uint8 tdHandle, uint16 source, uint16 destination) 
 923          {
 924   1          cystatus status = CYRET_BAD_PARAM;
 925   1          reg16 *convert;
 926   1      
 927   1          if(tdHandle < CY_DMA_NUMBEROF_TDS)
 928   1          {
 929   2              /* Set source address */
 930   2              convert = (reg16 *) &CY_DMA_TDMEM_STRUCT_PTR[tdHandle].TD1[0u];
 931   2              CY_SET_REG16(convert, source);
 932   2      
 933   2              /* Set destination address */
 934   2              convert = (reg16 *) &CY_DMA_TDMEM_STRUCT_PTR[tdHandle].TD1[2u];
 935   2              CY_SET_REG16(convert, destination);
 936   2      
 937   2              status = CYRET_SUCCESS;
 938   2          }
 939   1      
 940   1          return(status);
 941   1      }
 942          
 943          
 944          /*******************************************************************************
 945          * Function Name: CyDmaTdGetAddress
 946          ****************************************************************************//**
 947          *
 948          *  Retrieves the lower 16 bits of the source and/or destination addresses for
 949          *  this TD only. If NULL is passed for a pointer parameter, that value is
 950          *  skipped. You may request only the values of interest.
 951          *
 952          *  \param uint8 tdHandle:
 953          *   A handle previously returned by CyDmaTdAlloc().
 954          *
 955          *  \param uint16 * source:
 956          *   The address to store the lower 16 address bits of the source of the data
 957          *   transfer.
 958          *
 959          *  \param uint16 * destination:
 960          *   The address to store the lower 16 address bits of the destination of the
 961          *   data transfer.
 962          *
 963          * \return
 964          *  CYRET_SUCCESS if successful.
 965          *  CYRET_BAD_PARAM if tdHandle is invalid.
 966          *
 967          *******************************************************************************/
 968          cystatus CyDmaTdGetAddress(uint8 tdHandle, uint16 * source, uint16 * destination) 
 969          {
 970   1          cystatus status = CYRET_BAD_PARAM;
 971   1          reg16 *convert;
 972   1      
 973   1          if(tdHandle < CY_DMA_NUMBEROF_TDS)
 974   1          {
 975   2              /* If we have a pointer. */
 976   2              if(NULL != source)
 977   2              {
C51 COMPILER V9.51   CYDMAC                                                                10/24/2019 10:21:10 PAGE 17  

 978   3                  /* Get source address */
 979   3                  convert = (reg16 *) &CY_DMA_TDMEM_STRUCT_PTR[tdHandle].TD1[0u];
 980   3                  *source = CY_GET_REG16(convert);
 981   3              }
 982   2      
 983   2              /* If we have a pointer. */
 984   2              if(NULL != destination)
 985   2              {
 986   3                  /* Get Destination address. */
 987   3                  convert = (reg16 *) &CY_DMA_TDMEM_STRUCT_PTR[tdHandle].TD1[2u];
 988   3                  *destination = CY_GET_REG16(convert);
 989   3              }
 990   2      
 991   2              status = CYRET_SUCCESS;
 992   2          }
 993   1      
 994   1          return(status);
 995   1      }
 996          
 997          
 998          /*******************************************************************************
 999          * Function Name: CyDmaChRoundRobin
1000          ****************************************************************************//**
1001          *
1002          * Either enables or disables the Round-Robin scheduling enforcement algorithm.
1003          * Within a priority level a Round-Robin fairness algorithm is enforced.
1004          *
1005          * \param uint8 chHandle:
1006          *  A handle previously returned by CyDmaChAlloc() or Dma_DmaInitialize().
1007          *
1008          * \param uint8 enableRR:
1009          *  \param 0: Disable Round-Robin fairness algorithm
1010          *  \param 1: Enable Round-Robin fairness algorithm
1011          *
1012          * \return
1013          * CYRET_SUCCESS if successful.
1014          * CYRET_BAD_PARAM if chHandle is invalid.
1015          *
1016          *******************************************************************************/
1017          cystatus CyDmaChRoundRobin(uint8 chHandle, uint8 enableRR) 
1018          {
1019   1          cystatus status = CYRET_BAD_PARAM;
1020   1      
1021   1          if(chHandle < CY_DMA_NUMBEROF_CHANNELS)
1022   1          {
1023   2              if (0u != enableRR)
1024   2              {
1025   3                  CY_DMA_CH_STRUCT_PTR[chHandle].basic_cfg[0u] |= (uint8)CY_DMA_ROUND_ROBIN_ENABLE;
1026   3              }
1027   2              else
1028   2              {
1029   3                  CY_DMA_CH_STRUCT_PTR[chHandle].basic_cfg[0u] &= (uint8)(~CY_DMA_ROUND_ROBIN_ENABLE);
1030   3              }
1031   2      
1032   2              status = CYRET_SUCCESS;
1033   2          }
1034   1      
1035   1          return(status);
1036   1      }
1037          
1038          
1039          /* [] END OF FILE */
C51 COMPILER V9.51   CYDMAC                                                                10/24/2019 10:21:10 PAGE 18  

ASSEMBLY LISTING OF GENERATED OBJECT CODE


             ; FUNCTION CyDmacConfigure (BEGIN)
                                           ; SOURCE LINE # 53
                                           ; SOURCE LINE # 54
                                           ; SOURCE LINE # 58
0000 900000      R     MOV     DPTR,#CyDmaTdFreeIndex
0003 747F              MOV     A,#07FH
0005 F0                MOVX    @DPTR,A
                                           ; SOURCE LINE # 59
0006 A3                INC     DPTR
0007 04                INC     A
0008 F0                MOVX    @DPTR,A
                                           ; SOURCE LINE # 62
;---- Variable 'dmaIndex' assigned to Register 'R7' ----
0009 7F7F              MOV     R7,#07FH
000B         ?C0001:
000B EF                MOV     A,R7
000C 6011              JZ      ?C0002
                                           ; SOURCE LINE # 63
                                           ; SOURCE LINE # 64
000E 14                DEC     A
000F FE                MOV     R6,A
0010 75F008            MOV     B,#08H
0013 EF                MOV     A,R7
0014 907800            MOV     DPTR,#07800H
0017 120000      E     LCALL   ?C?OFFXADD
001A EE                MOV     A,R6
001B F0                MOVX    @DPTR,A
                                           ; SOURCE LINE # 65
001C 1F                DEC     R7
001D 80EC              SJMP    ?C0001
001F         ?C0002:
                                           ; SOURCE LINE # 68
001F 75F008            MOV     B,#08H
0022 EF                MOV     A,R7
0023 907800            MOV     DPTR,#07800H
0026 120000      E     LCALL   ?C?OFFXADD
0029 E4                CLR     A
002A F0                MOVX    @DPTR,A
                                           ; SOURCE LINE # 69
002B 22                RET     
             ; FUNCTION CyDmacConfigure (END)

             ; FUNCTION CyDmacError (BEGIN)
                                           ; SOURCE LINE # 96
                                           ; SOURCE LINE # 97
                                           ; SOURCE LINE # 98
0000 907004            MOV     DPTR,#07004H
0003 120000      E     LCALL   ?C?LLDXDATA
0006 EF                MOV     A,R7
0007 540E              ANL     A,#0EH
0009 FF                MOV     R7,A
000A E4                CLR     A
                                           ; SOURCE LINE # 99
000B         ?C0005:
000B 22                RET     
             ; FUNCTION CyDmacError (END)

             ; FUNCTION _CyDmacClearError (BEGIN)
                                           ; SOURCE LINE # 127
C51 COMPILER V9.51   CYDMAC                                                                10/24/2019 10:21:10 PAGE 19  

;---- Variable 'error' assigned to Register 'R7' ----
                                           ; SOURCE LINE # 128
                                           ; SOURCE LINE # 129
0000 E4                CLR     A
0001 FC                MOV     R4,A
0002 FD                MOV     R5,A
0003 FE                MOV     R6,A
0004 EF                MOV     A,R7
0005 540F              ANL     A,#0FH
0007 FF                MOV     R7,A
0008 E4                CLR     A
0009 907004            MOV     DPTR,#07004H
000C 120000      E     LCALL   ?C?LSTXDATA
                                           ; SOURCE LINE # 130
000F 22                RET     
             ; FUNCTION _CyDmacClearError (END)

             ; FUNCTION CyDmacErrorAddress (BEGIN)
                                           ; SOURCE LINE # 146
                                           ; SOURCE LINE # 147
                                           ; SOURCE LINE # 148
0000 7B02              MOV     R3,#02H
0002 7A70              MOV     R2,#070H
0004 7908              MOV     R1,#08H
0006 120000      E     LCALL   _cyread32_nodpx
                                           ; SOURCE LINE # 149
0009         ?C0007:
0009 22                RET     
             ; FUNCTION CyDmacErrorAddress (END)

             ; FUNCTION CyDmaChAlloc (BEGIN)
                                           ; SOURCE LINE # 163
                                           ; SOURCE LINE # 164
                                           ; SOURCE LINE # 167
0000 E4                CLR     A
0001 7F01              MOV     R7,#01H
0003 FE                MOV     R6,A
0004 FD                MOV     R5,A
0005 FC                MOV     R4,A
0006 900000      R     MOV     DPTR,#channel
0009 120000      E     LCALL   ?C?LSTXDATA
                                           ; SOURCE LINE # 171
000C 120000      E     LCALL   CyEnterCriticalSection
000F 900000      R     MOV     DPTR,#interruptState
0012 EF                MOV     A,R7
0013 F0                MOVX    @DPTR,A
                                           ; SOURCE LINE # 174
0014 E4                CLR     A
0015 A3                INC     DPTR
0016 F0                MOVX    @DPTR,A
0017         ?C0008:
0017 900000      R     MOV     DPTR,#dmaIndex
001A E0                MOVX    A,@DPTR
001B C3                CLR     C
001C 9418              SUBB    A,#018H
001E 5048              JNC     ?C0009
                                           ; SOURCE LINE # 175
                                           ; SOURCE LINE # 176
0020 A3                INC     DPTR
0021 120000      E     LCALL   ?C?LLDXDATA
0024 900000      R     MOV     DPTR,#CyDmaChannels
0027 120000      E     LCALL   ?C?LLDXDATA0
C51 COMPILER V9.51   CYDMAC                                                                10/24/2019 10:21:10 PAGE 20  

002A 120000      E     LCALL   ?C?LAND
002D E4                CLR     A
002E FB                MOV     R3,A
002F FA                MOV     R2,A
0030 F9                MOV     R1,A
0031 F8                MOV     R0,A
0032 C3                CLR     C
0033 120000      E     LCALL   ?C?ULCMP
0036 7017              JNZ     ?C0011
                                           ; SOURCE LINE # 177
                                           ; SOURCE LINE # 179
0038 900000      R     MOV     DPTR,#CyDmaChannels
003B 120000      E     LCALL   ?C?LLDXDATA
003E 900000      R     MOV     DPTR,#channel
0041 120000      E     LCALL   ?C?LLDXDATA0
0044 120000      E     LCALL   ?C?LOR
0047 900000      R     MOV     DPTR,#CyDmaChannels
004A 120000      E     LCALL   ?C?LSTXDATA
                                           ; SOURCE LINE # 180
004D 8019              SJMP    ?C0009
                                           ; SOURCE LINE # 181
004F         ?C0011:
                                           ; SOURCE LINE # 183
004F 900000      R     MOV     DPTR,#channel
0052 120000      E     LCALL   ?C?LLDXDATA
0055 7801              MOV     R0,#01H
0057 120000      E     LCALL   ?C?LSHL
005A 900000      R     MOV     DPTR,#channel
005D 120000      E     LCALL   ?C?LSTXDATA
                                           ; SOURCE LINE # 184
0060 900000      R     MOV     DPTR,#dmaIndex
0063 E0                MOVX    A,@DPTR
0064 04                INC     A
0065 F0                MOVX    @DPTR,A
0066 80AF              SJMP    ?C0008
0068         ?C0009:
                                           ; SOURCE LINE # 186
0068 900000      R     MOV     DPTR,#dmaIndex
006B E0                MOVX    A,@DPTR
006C C3                CLR     C
006D 9418              SUBB    A,#018H
006F 4003              JC      ?C0012
                                           ; SOURCE LINE # 187
                                           ; SOURCE LINE # 188
0071 74FF              MOV     A,#0FFH
0073 F0                MOVX    @DPTR,A
                                           ; SOURCE LINE # 189
0074         ?C0012:
                                           ; SOURCE LINE # 192
0074 900000      R     MOV     DPTR,#interruptState
0077 E0                MOVX    A,@DPTR
0078 FF                MOV     R7,A
0079 120000      E     LCALL   _CyExitCriticalSection
                                           ; SOURCE LINE # 194
007C 900000      R     MOV     DPTR,#dmaIndex
007F E0                MOVX    A,@DPTR
0080 FF                MOV     R7,A
                                           ; SOURCE LINE # 195
0081         ?C0013:
0081 22                RET     
             ; FUNCTION CyDmaChAlloc (END)

C51 COMPILER V9.51   CYDMAC                                                                10/24/2019 10:21:10 PAGE 21  

             ; FUNCTION _CyDmaChFree (BEGIN)
                                           ; SOURCE LINE # 211
0000 900000      R     MOV     DPTR,#chHandle
0003 EF                MOV     A,R7
0004 F0                MOVX    @DPTR,A
                                           ; SOURCE LINE # 212
                                           ; SOURCE LINE # 213
0005 A3                INC     DPTR
0006 7401              MOV     A,#01H
0008 F0                MOVX    @DPTR,A
                                           ; SOURCE LINE # 216
0009 EF                MOV     A,R7
000A C3                CLR     C
000B 9418              SUBB    A,#018H
000D 503E              JNC     ?C0014
                                           ; SOURCE LINE # 217
                                           ; SOURCE LINE # 219
000F 120000      E     LCALL   CyEnterCriticalSection
0012 900000      R     MOV     DPTR,#interruptState
0015 EF                MOV     A,R7
0016 F0                MOVX    @DPTR,A
                                           ; SOURCE LINE # 222
0017 900000      R     MOV     DPTR,#CyDmaChannels
001A 120000      E     LCALL   ?C?LLDXDATA0
001D C000              PUSH    AR0
001F C001              PUSH    AR1
0021 E4                CLR     A
0022 7F01              MOV     R7,#01H
0024 FE                MOV     R6,A
0025 FD                MOV     R5,A
0026 FC                MOV     R4,A
0027 900000      R     MOV     DPTR,#chHandle
002A E0                MOVX    A,@DPTR
002B F9                MOV     R1,A
002C F8                MOV     R0,A
002D 120000      E     LCALL   ?C?LSHL
0030 120000      E     LCALL   ?C?LNOT
0033 D001              POP     AR1
0035 D000              POP     AR0
0037 120000      E     LCALL   ?C?LAND
003A 900000      R     MOV     DPTR,#CyDmaChannels
003D 120000      E     LCALL   ?C?LSTXDATA
                                           ; SOURCE LINE # 225
0040 900000      R     MOV     DPTR,#interruptState
0043 E0                MOVX    A,@DPTR
0044 FF                MOV     R7,A
0045 120000      E     LCALL   _CyExitCriticalSection
                                           ; SOURCE LINE # 226
0048 E4                CLR     A
0049 900000      R     MOV     DPTR,#status
004C F0                MOVX    @DPTR,A
                                           ; SOURCE LINE # 227
004D         ?C0014:
                                           ; SOURCE LINE # 229
004D 900000      R     MOV     DPTR,#status
0050 E0                MOVX    A,@DPTR
0051 FF                MOV     R7,A
                                           ; SOURCE LINE # 230
0052         ?C0015:
0052 22                RET     
             ; FUNCTION _CyDmaChFree (END)

C51 COMPILER V9.51   CYDMAC                                                                10/24/2019 10:21:10 PAGE 22  

             ; FUNCTION _CyDmaChEnable (BEGIN)
                                           ; SOURCE LINE # 269
;---- Variable 'chHandle' assigned to Register 'R7' ----
;---- Variable 'preserveTds' assigned to Register 'R5' ----
                                           ; SOURCE LINE # 270
                                           ; SOURCE LINE # 271
;---- Variable 'status' assigned to Register 'R6' ----
0000 7E01              MOV     R6,#01H
                                           ; SOURCE LINE # 273
0002 EF                MOV     A,R7
0003 C3                CLR     C
0004 9418              SUBB    A,#018H
0006 5031              JNC     ?C0016
                                           ; SOURCE LINE # 274
                                           ; SOURCE LINE # 275
0008 ED                MOV     A,R5
0009 6010              JZ      ?C0017
                                           ; SOURCE LINE # 276
                                           ; SOURCE LINE # 280
000B 75F010            MOV     B,#010H
000E EF                MOV     A,R7
000F 907010            MOV     DPTR,#07010H
0012 120000      E     LCALL   ?C?OFFXADD
0015 E0                MOVX    A,@DPTR
0016 4420              ORL     A,#020H
0018 F0                MOVX    @DPTR,A
                                           ; SOURCE LINE # 281
0019 800E              SJMP    ?C0018
001B         ?C0017:
                                           ; SOURCE LINE # 283
                                           ; SOURCE LINE # 285
001B 75F010            MOV     B,#010H
001E EF                MOV     A,R7
001F 907010            MOV     DPTR,#07010H
0022 120000      E     LCALL   ?C?OFFXADD
0025 E0                MOVX    A,@DPTR
0026 54DF              ANL     A,#0DFH
0028 F0                MOVX    @DPTR,A
                                           ; SOURCE LINE # 286
0029         ?C0018:
                                           ; SOURCE LINE # 289
0029 75F010            MOV     B,#010H
002C EF                MOV     A,R7
002D 907010            MOV     DPTR,#07010H
0030 120000      E     LCALL   ?C?OFFXADD
0033 E0                MOVX    A,@DPTR
0034 4401              ORL     A,#01H
0036 F0                MOVX    @DPTR,A
                                           ; SOURCE LINE # 291
0037 E4                CLR     A
0038 FE                MOV     R6,A
                                           ; SOURCE LINE # 292
0039         ?C0016:
                                           ; SOURCE LINE # 294
0039 AF06              MOV     R7,AR6
                                           ; SOURCE LINE # 295
003B         ?C0019:
003B 22                RET     
             ; FUNCTION _CyDmaChEnable (END)

             ; FUNCTION _CyDmaChDisable (BEGIN)
                                           ; SOURCE LINE # 316
C51 COMPILER V9.51   CYDMAC                                                                10/24/2019 10:21:10 PAGE 23  

;---- Variable 'chHandle' assigned to Register 'R7' ----
                                           ; SOURCE LINE # 317
                                           ; SOURCE LINE # 318
;---- Variable 'status' assigned to Register 'R6' ----
0000 7E01              MOV     R6,#01H
                                           ; SOURCE LINE # 320
0002 EF                MOV     A,R7
0003 C3                CLR     C
0004 9418              SUBB    A,#018H
0006 501E              JNC     ?C0020
                                           ; SOURCE LINE # 321
                                           ; SOURCE LINE # 328
0008 75F010            MOV     B,#010H
000B EF                MOV     A,R7
000C 907010            MOV     DPTR,#07010H
000F 120000      E     LCALL   ?C?OFFXADD
0012 E0                MOVX    A,@DPTR
0013 54FE              ANL     A,#0FEH
0015 F0                MOVX    @DPTR,A
                                           ; SOURCE LINE # 331
0016 75F010            MOV     B,#010H
0019 EF                MOV     A,R7
001A 907010            MOV     DPTR,#07010H
001D 120000      E     LCALL   ?C?OFFXADD
0020 E0                MOVX    A,@DPTR
0021 54DF              ANL     A,#0DFH
0023 F0                MOVX    @DPTR,A
                                           ; SOURCE LINE # 332
0024 E4                CLR     A
0025 1E                DEC     R6
                                           ; SOURCE LINE # 333
0026         ?C0020:
                                           ; SOURCE LINE # 335
0026 AF06              MOV     R7,AR6
                                           ; SOURCE LINE # 336
0028         ?C0021:
0028 22                RET     
             ; FUNCTION _CyDmaChDisable (END)

             ; FUNCTION _CyDmaClearPendingDrq (BEGIN)
                                           ; SOURCE LINE # 351
;---- Variable 'chHandle' assigned to Register 'R7' ----
                                           ; SOURCE LINE # 352
                                           ; SOURCE LINE # 353
;---- Variable 'status' assigned to Register 'R6' ----
0000 7E01              MOV     R6,#01H
                                           ; SOURCE LINE # 355
0002 EF                MOV     A,R7
0003 C3                CLR     C
0004 9418              SUBB    A,#018H
0006 501E              JNC     ?C0022
                                           ; SOURCE LINE # 356
                                           ; SOURCE LINE # 357
0008 75F010            MOV     B,#010H
000B EF                MOV     A,R7
000C 907014            MOV     DPTR,#07014H
000F 120000      E     LCALL   ?C?OFFXADD
0012 E0                MOVX    A,@DPTR
0013 4404              ORL     A,#04H
0015 F0                MOVX    @DPTR,A
                                           ; SOURCE LINE # 358
0016 75F010            MOV     B,#010H
C51 COMPILER V9.51   CYDMAC                                                                10/24/2019 10:21:10 PAGE 24  

0019 EF                MOV     A,R7
001A 907010            MOV     DPTR,#07010H
001D 120000      E     LCALL   ?C?OFFXADD
0020 E0                MOVX    A,@DPTR
0021 4401              ORL     A,#01H
0023 F0                MOVX    @DPTR,A
                                           ; SOURCE LINE # 359
0024 E4                CLR     A
0025 1E                DEC     R6
                                           ; SOURCE LINE # 360
0026         ?C0022:
                                           ; SOURCE LINE # 362
0026 AF06              MOV     R7,AR6
                                           ; SOURCE LINE # 363
0028         ?C0023:
0028 22                RET     
             ; FUNCTION _CyDmaClearPendingDrq (END)

             ; FUNCTION _CyDmaChPriority (BEGIN)
                                           ; SOURCE LINE # 383
;---- Variable 'chHandle' assigned to Register 'R4' ----
0000 AC07              MOV     R4,AR7
;---- Variable 'priority' assigned to Register 'R5' ----
                                           ; SOURCE LINE # 384
                                           ; SOURCE LINE # 386
;---- Variable 'status' assigned to Register 'R3' ----
0002 7B01              MOV     R3,#01H
                                           ; SOURCE LINE # 388
0004 EC                MOV     A,R4
0005 C3                CLR     C
0006 9418              SUBB    A,#018H
0008 5029              JNC     ?C0024
                                           ; SOURCE LINE # 389
                                           ; SOURCE LINE # 390
000A 75F010            MOV     B,#010H
000D EC                MOV     A,R4
000E 907010            MOV     DPTR,#07010H
0011 120000      E     LCALL   ?C?OFFXADD
0014 E0                MOVX    A,@DPTR
0015 54F1              ANL     A,#0F1H
;---- Variable 'value' assigned to Register 'R2' ----
0017 FA                MOV     R2,A
                                           ; SOURCE LINE # 392
0018 ED                MOV     A,R5
0019 5407              ANL     A,#07H
001B 25E0              ADD     A,ACC
001D FF                MOV     R7,A
001E E4                CLR     A
001F 33                RLC     A
0020 AE02              MOV     R6,AR2
0022 EF                MOV     A,R7
0023 4A                ORL     A,R2
0024 FF                MOV     R7,A
0025 75F010            MOV     B,#010H
0028 EC                MOV     A,R4
0029 907010            MOV     DPTR,#07010H
002C 120000      E     LCALL   ?C?OFFXADD
002F EF                MOV     A,R7
0030 F0                MOVX    @DPTR,A
                                           ; SOURCE LINE # 394
0031 E4                CLR     A
0032 1B                DEC     R3
C51 COMPILER V9.51   CYDMAC                                                                10/24/2019 10:21:10 PAGE 25  

                                           ; SOURCE LINE # 395
0033         ?C0024:
                                           ; SOURCE LINE # 397
0033 AF03              MOV     R7,AR3
                                           ; SOURCE LINE # 398
0035         ?C0025:
0035 22                RET     
             ; FUNCTION _CyDmaChPriority (END)

             ; FUNCTION _CyDmaChSetExtendedAddress (BEGIN)
                                           ; SOURCE LINE # 419
0000 900000      R     MOV     DPTR,#source
0003 EC                MOV     A,R4
0004 F0                MOVX    @DPTR,A
0005 A3                INC     DPTR
0006 ED                MOV     A,R5
0007 F0                MOVX    @DPTR,A
0008 A3                INC     DPTR
0009 EA                MOV     A,R2
000A F0                MOVX    @DPTR,A
000B A3                INC     DPTR
000C EB                MOV     A,R3
000D F0                MOVX    @DPTR,A
000E 900000      R     MOV     DPTR,#chHandle
0011 EF                MOV     A,R7
0012 F0                MOVX    @DPTR,A
                                           ; SOURCE LINE # 421
                                           ; SOURCE LINE # 422
0013 900000      R     MOV     DPTR,#status
0016 7401              MOV     A,#01H
0018 F0                MOVX    @DPTR,A
                                           ; SOURCE LINE # 441
0019 EF                MOV     A,R7
001A C3                CLR     C
001B 9418              SUBB    A,#018H
001D 5053              JNC     ?C0026
                                           ; SOURCE LINE # 442
                                           ; SOURCE LINE # 444
001F 900000      R     MOV     DPTR,#chHandle
0022 E0                MOVX    A,@DPTR
0023 75F008            MOV     B,#08H
0026 A4                MUL     AB
0027 2404              ADD     A,#04H
0029 FF                MOV     R7,A
002A E5F0              MOV     A,B
002C 3476              ADDC    A,#076H
002E FE                MOV     R6,A
002F 900000      R     MOV     DPTR,#convert
0032 F0                MOVX    @DPTR,A
0033 A3                INC     DPTR
0034 EF                MOV     A,R7
0035 F0                MOVX    @DPTR,A
                                           ; SOURCE LINE # 445
0036 AA06              MOV     R2,AR6
0038 F9                MOV     R1,A
0039 7B01              MOV     R3,#01H
003B 900000      R     MOV     DPTR,#source
003E E0                MOVX    A,@DPTR
003F FC                MOV     R4,A
0040 A3                INC     DPTR
0041 E0                MOVX    A,@DPTR
0042 FD                MOV     R5,A
C51 COMPILER V9.51   CYDMAC                                                                10/24/2019 10:21:10 PAGE 26  

0043 120000      E     LCALL   _cywrite16_nodpx
                                           ; SOURCE LINE # 448
0046 900000      R     MOV     DPTR,#chHandle
0049 E0                MOVX    A,@DPTR
004A 75F008            MOV     B,#08H
004D A4                MUL     AB
004E 2406              ADD     A,#06H
0050 FF                MOV     R7,A
0051 E5F0              MOV     A,B
0053 3476              ADDC    A,#076H
0055 FE                MOV     R6,A
0056 900000      R     MOV     DPTR,#convert
0059 F0                MOVX    @DPTR,A
005A A3                INC     DPTR
005B EF                MOV     A,R7
005C F0                MOVX    @DPTR,A
                                           ; SOURCE LINE # 449
005D AA06              MOV     R2,AR6
005F F9                MOV     R1,A
0060 7B01              MOV     R3,#01H
0062 900000      R     MOV     DPTR,#destination
0065 E0                MOVX    A,@DPTR
0066 FC                MOV     R4,A
0067 A3                INC     DPTR
0068 E0                MOVX    A,@DPTR
0069 FD                MOV     R5,A
006A 120000      E     LCALL   _cywrite16_nodpx
                                           ; SOURCE LINE # 450
006D E4                CLR     A
006E 900000      R     MOV     DPTR,#status
0071 F0                MOVX    @DPTR,A
                                           ; SOURCE LINE # 451
0072         ?C0026:
                                           ; SOURCE LINE # 453
0072 900000      R     MOV     DPTR,#status
0075 E0                MOVX    A,@DPTR
0076 FF                MOV     R7,A
                                           ; SOURCE LINE # 454
0077         ?C0027:
0077 22                RET     
             ; FUNCTION _CyDmaChSetExtendedAddress (END)

             ; FUNCTION _CyDmaChSetInitialTd (BEGIN)
                                           ; SOURCE LINE # 474
;---- Variable 'chHandle' assigned to Register 'R7' ----
;---- Variable 'startTd' assigned to Register 'R5' ----
                                           ; SOURCE LINE # 475
                                           ; SOURCE LINE # 476
;---- Variable 'status' assigned to Register 'R6' ----
0000 7E01              MOV     R6,#01H
                                           ; SOURCE LINE # 478
0002 EF                MOV     A,R7
0003 C3                CLR     C
0004 9418              SUBB    A,#018H
0006 500E              JNC     ?C0028
                                           ; SOURCE LINE # 479
                                           ; SOURCE LINE # 480
0008 75F010            MOV     B,#010H
000B EF                MOV     A,R7
000C 907019            MOV     DPTR,#07019H
000F 120000      E     LCALL   ?C?OFFXADD
0012 ED                MOV     A,R5
C51 COMPILER V9.51   CYDMAC                                                                10/24/2019 10:21:10 PAGE 27  

0013 F0                MOVX    @DPTR,A
                                           ; SOURCE LINE # 481
0014 E4                CLR     A
0015 1E                DEC     R6
                                           ; SOURCE LINE # 482
0016         ?C0028:
                                           ; SOURCE LINE # 484
0016 AF06              MOV     R7,AR6
                                           ; SOURCE LINE # 485
0018         ?C0029:
0018 22                RET     
             ; FUNCTION _CyDmaChSetInitialTd (END)

             ; FUNCTION _CyDmaChSetRequest (BEGIN)
                                           ; SOURCE LINE # 508
;---- Variable 'chHandle' assigned to Register 'R7' ----
;---- Variable 'request' assigned to Register 'R5' ----
                                           ; SOURCE LINE # 509
                                           ; SOURCE LINE # 510
;---- Variable 'status' assigned to Register 'R6' ----
0000 7E01              MOV     R6,#01H
                                           ; SOURCE LINE # 512
0002 EF                MOV     A,R7
0003 C3                CLR     C
0004 9418              SUBB    A,#018H
0006 5015              JNC     ?C0030
                                           ; SOURCE LINE # 513
                                           ; SOURCE LINE # 514
0008 75F010            MOV     B,#010H
000B EF                MOV     A,R7
000C 907014            MOV     DPTR,#07014H
000F 120000      E     LCALL   ?C?OFFXADD
0012 E0                MOVX    A,@DPTR
0013 FF                MOV     R7,A
0014 ED                MOV     A,R5
0015 5407              ANL     A,#07H
0017 FD                MOV     R5,A
0018 EF                MOV     A,R7
0019 4D                ORL     A,R5
001A F0                MOVX    @DPTR,A
                                           ; SOURCE LINE # 515
001B E4                CLR     A
001C 1E                DEC     R6
                                           ; SOURCE LINE # 516
001D         ?C0030:
                                           ; SOURCE LINE # 518
001D AF06              MOV     R7,AR6
                                           ; SOURCE LINE # 519
001F         ?C0031:
001F 22                RET     
             ; FUNCTION _CyDmaChSetRequest (END)

             ; FUNCTION _CyDmaChGetRequest (BEGIN)
                                           ; SOURCE LINE # 538
;---- Variable 'chHandle' assigned to Register 'R7' ----
                                           ; SOURCE LINE # 539
                                           ; SOURCE LINE # 540
;---- Variable 'status' assigned to Register 'R3' ----
0000 7BFF              MOV     R3,#0FFH
                                           ; SOURCE LINE # 542
0002 EF                MOV     A,R7
0003 C3                CLR     C
C51 COMPILER V9.51   CYDMAC                                                                10/24/2019 10:21:10 PAGE 28  

0004 9418              SUBB    A,#018H
0006 5014              JNC     ?C0032
                                           ; SOURCE LINE # 543
                                           ; SOURCE LINE # 545
0008 75F010            MOV     B,#010H
000B EF                MOV     A,R7
000C 907014            MOV     DPTR,#07014H
000F 120000      E     LCALL   ?C?OFFXADD
0012 E0                MOVX    A,@DPTR
0013 FF                MOV     R7,A
0014 E4                CLR     A
0015 EF                MOV     A,R7
0016 5407              ANL     A,#07H
0018 FF                MOV     R7,A
0019 E4                CLR     A
001A AB07              MOV     R3,AR7
                                           ; SOURCE LINE # 546
001C         ?C0032:
                                           ; SOURCE LINE # 548
001C AF03              MOV     R7,AR3
                                           ; SOURCE LINE # 549
001E         ?C0033:
001E 22                RET     
             ; FUNCTION _CyDmaChGetRequest (END)

             ; FUNCTION _CyDmaChStatus (BEGIN)
                                           ; SOURCE LINE # 583
0000 900000      R     MOV     DPTR,#currentTd
0003 120000      E     LCALL   ?C?PSTXDATA
;---- Variable 'chHandle' assigned to Register 'R7' ----
                                           ; SOURCE LINE # 584
                                           ; SOURCE LINE # 585
;---- Variable 'status' assigned to Register 'R6' ----
0006 7E01              MOV     R6,#01H
                                           ; SOURCE LINE # 587
0008 EF                MOV     A,R7
0009 C3                CLR     C
000A 9418              SUBB    A,#018H
000C 5046              JNC     ?C0034
                                           ; SOURCE LINE # 588
                                           ; SOURCE LINE # 589
000E 900000      R     MOV     DPTR,#currentTd
0011 120000      E     LCALL   ?C?PLDXDATA
0014 E9                MOV     A,R1
0015 4A                ORL     A,R2
0016 4B                ORL     A,R3
0017 6018              JZ      ?C0035
                                           ; SOURCE LINE # 590
                                           ; SOURCE LINE # 591
0019 75F010            MOV     B,#010H
001C EF                MOV     A,R7
001D 907019            MOV     DPTR,#07019H
0020 120000      E     LCALL   ?C?OFFXADD
0023 E0                MOVX    A,@DPTR
0024 547F              ANL     A,#07FH
0026 FD                MOV     R5,A
0027 900000      R     MOV     DPTR,#currentTd
002A 120000      E     LCALL   ?C?PLDXDATA
002D ED                MOV     A,R5
002E 120000      E     LCALL   ?C?CSTPTR
                                           ; SOURCE LINE # 592
0031         ?C0035:
C51 COMPILER V9.51   CYDMAC                                                                10/24/2019 10:21:10 PAGE 29  

                                           ; SOURCE LINE # 594
0031 900000      R     MOV     DPTR,#state
0034 120000      E     LCALL   ?C?PLDXDATA
0037 E9                MOV     A,R1
0038 4A                ORL     A,R2
0039 4B                ORL     A,R3
003A 6016              JZ      ?C0036
                                           ; SOURCE LINE # 595
                                           ; SOURCE LINE # 596
003C 75F010            MOV     B,#010H
003F EF                MOV     A,R7
0040 907018            MOV     DPTR,#07018H
0043 120000      E     LCALL   ?C?OFFXADD
0046 E0                MOVX    A,@DPTR
0047 FF                MOV     R7,A
0048 900000      R     MOV     DPTR,#state
004B 120000      E     LCALL   ?C?PLDXDATA
004E EF                MOV     A,R7
004F 120000      E     LCALL   ?C?CSTPTR
                                           ; SOURCE LINE # 597
0052         ?C0036:
                                           ; SOURCE LINE # 599
0052 E4                CLR     A
0053 FE                MOV     R6,A
                                           ; SOURCE LINE # 600
0054         ?C0034:
                                           ; SOURCE LINE # 602
0054 AF06              MOV     R7,AR6
                                           ; SOURCE LINE # 603
0056         ?C0037:
0056 22                RET     
             ; FUNCTION _CyDmaChStatus (END)

             ; FUNCTION _CyDmaChSetConfiguration (BEGIN)
                                           ; SOURCE LINE # 647
;---- Variable 'chHandle' assigned to Register 'R4' ----
0000 AC07              MOV     R4,AR7
;---- Variable 'requestPerBurst' assigned to Register 'R3' ----
;---- Variable 'burstCount' assigned to Register 'R5' ----
                                           ; SOURCE LINE # 649
                                           ; SOURCE LINE # 650
;---- Variable 'status' assigned to Register 'R2' ----
0002 7A01              MOV     R2,#01H
                                           ; SOURCE LINE # 652
0004 EC                MOV     A,R4
0005 C3                CLR     C
0006 9418              SUBB    A,#018H
0008 5058              JNC     ?C0038
                                           ; SOURCE LINE # 653
                                           ; SOURCE LINE # 654
000A EB                MOV     A,R3
000B 5401              ANL     A,#01H
000D 75F080            MOV     B,#080H
0010 A4                MUL     AB
0011 FF                MOV     R7,A
0012 ED                MOV     A,R5
0013 547F              ANL     A,#07FH
0015 4F                ORL     A,R7
0016 FF                MOV     R7,A
0017 75F008            MOV     B,#08H
001A EC                MOV     A,R4
001B 907600            MOV     DPTR,#07600H
C51 COMPILER V9.51   CYDMAC                                                                10/24/2019 10:21:10 PAGE 30  

001E 120000      E     LCALL   ?C?OFFXADD
0021 EF                MOV     A,R7
0022 F0                MOVX    @DPTR,A
                                           ; SOURCE LINE # 655
0023 900000      R     MOV     DPTR,#tdDone1
0026 E0                MOVX    A,@DPTR
0027 540F              ANL     A,#0FH
0029 75F010            MOV     B,#010H
002C A4                MUL     AB
002D FF                MOV     R7,A
002E 900000      R     MOV     DPTR,#tdDone0
0031 E0                MOVX    A,@DPTR
0032 540F              ANL     A,#0FH
0034 4F                ORL     A,R7
0035 FF                MOV     R7,A
0036 75F008            MOV     B,#08H
0039 EC                MOV     A,R4
003A 907601            MOV     DPTR,#07601H
003D 120000      E     LCALL   ?C?OFFXADD
0040 EF                MOV     A,R7
0041 F0                MOVX    @DPTR,A
                                           ; SOURCE LINE # 656
0042 900000      R     MOV     DPTR,#tdStop
0045 E0                MOVX    A,@DPTR
0046 540F              ANL     A,#0FH
0048 FF                MOV     R7,A
0049 75F008            MOV     B,#08H
004C EC                MOV     A,R4
004D 907602            MOV     DPTR,#07602H
0050 120000      E     LCALL   ?C?OFFXADD
0053 EF                MOV     A,R7
0054 F0                MOVX    @DPTR,A
                                           ; SOURCE LINE # 657
0055 75F008            MOV     B,#08H
0058 EC                MOV     A,R4
0059 907603            MOV     DPTR,#07603H
005C 120000      E     LCALL   ?C?OFFXADD
005F E4                CLR     A
0060 F0                MOVX    @DPTR,A
                                           ; SOURCE LINE # 659
0061 1A                DEC     R2
                                           ; SOURCE LINE # 660
0062         ?C0038:
                                           ; SOURCE LINE # 662
0062 AF02              MOV     R7,AR2
                                           ; SOURCE LINE # 663
0064         ?C0039:
0064 22                RET     
             ; FUNCTION _CyDmaChSetConfiguration (END)

             ; FUNCTION CyDmaTdAllocate (BEGIN)
                                           ; SOURCE LINE # 679
                                           ; SOURCE LINE # 680
                                           ; SOURCE LINE # 682
0000 900000      R     MOV     DPTR,#element
0003 74FF              MOV     A,#0FFH
0005 F0                MOVX    @DPTR,A
                                           ; SOURCE LINE # 685
0006 120000      E     LCALL   CyEnterCriticalSection
;---- Variable 'interruptState' assigned to Register 'R7' ----
                                           ; SOURCE LINE # 687
0009 900000      R     MOV     DPTR,#CyDmaTdCurrentNumber
C51 COMPILER V9.51   CYDMAC                                                                10/24/2019 10:21:10 PAGE 31  

000C E0                MOVX    A,@DPTR
000D D3                SETB    C
000E 9418              SUBB    A,#018H
0010 401E              JC      ?C0040
                                           ; SOURCE LINE # 688
                                           ; SOURCE LINE # 690
0012 900000      R     MOV     DPTR,#CyDmaTdFreeIndex
0015 E0                MOVX    A,@DPTR
0016 FE                MOV     R6,A
0017 900000      R     MOV     DPTR,#element
001A F0                MOVX    @DPTR,A
                                           ; SOURCE LINE # 693
001B 900000      R     MOV     DPTR,#CyDmaTdCurrentNumber
001E E0                MOVX    A,@DPTR
001F 14                DEC     A
0020 F0                MOVX    @DPTR,A
                                           ; SOURCE LINE # 696
0021 75F008            MOV     B,#08H
0024 EE                MOV     A,R6
0025 907800            MOV     DPTR,#07800H
0028 120000      E     LCALL   ?C?OFFXADD
002B E0                MOVX    A,@DPTR
002C 900000      R     MOV     DPTR,#CyDmaTdFreeIndex
002F F0                MOVX    @DPTR,A
                                           ; SOURCE LINE # 697
0030         ?C0040:
                                           ; SOURCE LINE # 700
0030 120000      E     LCALL   _CyExitCriticalSection
                                           ; SOURCE LINE # 702
0033 900000      R     MOV     DPTR,#element
0036 E0                MOVX    A,@DPTR
0037 FF                MOV     R7,A
                                           ; SOURCE LINE # 703
0038         ?C0041:
0038 22                RET     
             ; FUNCTION CyDmaTdAllocate (END)

             ; FUNCTION _CyDmaTdFree (BEGIN)
                                           ; SOURCE LINE # 716
0000 900000      R     MOV     DPTR,#tdHandle
0003 EF                MOV     A,R7
0004 F0                MOVX    @DPTR,A
                                           ; SOURCE LINE # 717
                                           ; SOURCE LINE # 718
0005 C3                CLR     C
0006 9480              SUBB    A,#080H
0008 502E              JNC     ?C0043
                                           ; SOURCE LINE # 719
                                           ; SOURCE LINE # 721
000A 120000      E     LCALL   CyEnterCriticalSection
000D 900000      R     MOV     DPTR,#interruptState
0010 EF                MOV     A,R7
0011 F0                MOVX    @DPTR,A
                                           ; SOURCE LINE # 724
0012 900000      R     MOV     DPTR,#CyDmaTdFreeIndex
0015 E0                MOVX    A,@DPTR
0016 FF                MOV     R7,A
0017 900000      R     MOV     DPTR,#tdHandle
001A E0                MOVX    A,@DPTR
001B FE                MOV     R6,A
001C 75F008            MOV     B,#08H
001F 907800            MOV     DPTR,#07800H
C51 COMPILER V9.51   CYDMAC                                                                10/24/2019 10:21:10 PAGE 32  

0022 120000      E     LCALL   ?C?OFFXADD
0025 EF                MOV     A,R7
0026 F0                MOVX    @DPTR,A
                                           ; SOURCE LINE # 727
0027 900000      R     MOV     DPTR,#CyDmaTdFreeIndex
002A EE                MOV     A,R6
002B F0                MOVX    @DPTR,A
                                           ; SOURCE LINE # 730
002C A3                INC     DPTR
002D E0                MOVX    A,@DPTR
002E 04                INC     A
002F F0                MOVX    @DPTR,A
                                           ; SOURCE LINE # 733
0030 900000      R     MOV     DPTR,#interruptState
0033 E0                MOVX    A,@DPTR
0034 FF                MOV     R7,A
0035 120000      E     LCALL   _CyExitCriticalSection
                                           ; SOURCE LINE # 734
                                           ; SOURCE LINE # 735
0038         ?C0043:
0038 22                RET     
             ; FUNCTION _CyDmaTdFree (END)

             ; FUNCTION CyDmaTdFreeCount (BEGIN)
                                           ; SOURCE LINE # 748
                                           ; SOURCE LINE # 749
                                           ; SOURCE LINE # 750
0000 900000      R     MOV     DPTR,#CyDmaTdCurrentNumber
0003 E0                MOVX    A,@DPTR
0004 C3                CLR     C
0005 9418              SUBB    A,#018H
0007 FF                MOV     R7,A
                                           ; SOURCE LINE # 751
0008         ?C0044:
0008 22                RET     
             ; FUNCTION CyDmaTdFreeCount (END)

             ; FUNCTION _CyDmaTdSetConfiguration (BEGIN)
                                           ; SOURCE LINE # 807
0000 900000      R     MOV     DPTR,#transferCount
0003 EC                MOV     A,R4
0004 F0                MOVX    @DPTR,A
0005 A3                INC     DPTR
0006 ED                MOV     A,R5
0007 F0                MOVX    @DPTR,A
0008 A3                INC     DPTR
0009 EB                MOV     A,R3
000A F0                MOVX    @DPTR,A
000B 900000      R     MOV     DPTR,#tdHandle
000E EF                MOV     A,R7
000F F0                MOVX    @DPTR,A
                                           ; SOURCE LINE # 809
                                           ; SOURCE LINE # 810
0010 900000      R     MOV     DPTR,#status
0013 7401              MOV     A,#01H
0015 F0                MOVX    @DPTR,A
                                           ; SOURCE LINE # 812
0016 EF                MOV     A,R7
0017 C3                CLR     C
0018 9480              SUBB    A,#080H
001A 505B              JNC     ?C0045
001C 900000      R     MOV     DPTR,#transferCount
C51 COMPILER V9.51   CYDMAC                                                                10/24/2019 10:21:10 PAGE 33  

001F E0                MOVX    A,@DPTR
0020 54F0              ANL     A,#0F0H
0022 A3                INC     DPTR
0023 7052              JNZ     ?C0045
                                           ; SOURCE LINE # 813
                                           ; SOURCE LINE # 815
0025 900000      R     MOV     DPTR,#tdHandle
0028 E0                MOVX    A,@DPTR
0029 75F008            MOV     B,#08H
002C A4                MUL     AB
002D 2400              ADD     A,#00H
002F FF                MOV     R7,A
0030 E5F0              MOV     A,B
0032 3478              ADDC    A,#078H
0034 FE                MOV     R6,A
0035 900000      R     MOV     DPTR,#convert
0038 F0                MOVX    @DPTR,A
0039 A3                INC     DPTR
003A EF                MOV     A,R7
003B F0                MOVX    @DPTR,A
                                           ; SOURCE LINE # 816
003C AA06              MOV     R2,AR6
003E F9                MOV     R1,A
003F 7B01              MOV     R3,#01H
0041 900000      R     MOV     DPTR,#transferCount
0044 E0                MOVX    A,@DPTR
0045 FC                MOV     R4,A
0046 A3                INC     DPTR
0047 E0                MOVX    A,@DPTR
0048 FD                MOV     R5,A
0049 120000      E     LCALL   _cywrite16_nodpx
                                           ; SOURCE LINE # 819
004C 900000      R     MOV     DPTR,#nextTd
004F E0                MOVX    A,@DPTR
0050 FF                MOV     R7,A
0051 900000      R     MOV     DPTR,#tdHandle
0054 E0                MOVX    A,@DPTR
0055 FE                MOV     R6,A
0056 75F008            MOV     B,#08H
0059 907802            MOV     DPTR,#07802H
005C 120000      E     LCALL   ?C?OFFXADD
005F EF                MOV     A,R7
0060 F0                MOVX    @DPTR,A
                                           ; SOURCE LINE # 822
0061 900000      R     MOV     DPTR,#configuration
0064 E0                MOVX    A,@DPTR
0065 FF                MOV     R7,A
0066 75F008            MOV     B,#08H
0069 EE                MOV     A,R6
006A 907803            MOV     DPTR,#07803H
006D 120000      E     LCALL   ?C?OFFXADD
0070 EF                MOV     A,R7
0071 F0                MOVX    @DPTR,A
                                           ; SOURCE LINE # 824
0072 E4                CLR     A
0073 900000      R     MOV     DPTR,#status
0076 F0                MOVX    @DPTR,A
                                           ; SOURCE LINE # 825
0077         ?C0045:
                                           ; SOURCE LINE # 827
0077 900000      R     MOV     DPTR,#status
007A E0                MOVX    A,@DPTR
C51 COMPILER V9.51   CYDMAC                                                                10/24/2019 10:21:10 PAGE 34  

007B FF                MOV     R7,A
                                           ; SOURCE LINE # 828
007C         ?C0046:
007C 22                RET     
             ; FUNCTION _CyDmaTdSetConfiguration (END)

             ; FUNCTION _CyDmaTdGetConfiguration (BEGIN)
                                           ; SOURCE LINE # 865
0000 900000      R     MOV     DPTR,#transferCount
0003 120000      E     LCALL   ?C?PSTXDATA
0006 900000      R     MOV     DPTR,#tdHandle
0009 EF                MOV     A,R7
000A F0                MOVX    @DPTR,A
                                           ; SOURCE LINE # 867
                                           ; SOURCE LINE # 868
000B 900000      R     MOV     DPTR,#status
000E 7401              MOV     A,#01H
0010 F0                MOVX    @DPTR,A
                                           ; SOURCE LINE # 870
0011 EF                MOV     A,R7
0012 C3                CLR     C
0013 9480              SUBB    A,#080H
0015 4003              JC      $ + 5H
0017 020000      R     LJMP    ?C0047
                                           ; SOURCE LINE # 871
                                           ; SOURCE LINE # 873
001A 900000      R     MOV     DPTR,#transferCount
001D 120000      E     LCALL   ?C?PLDXDATA
0020 E9                MOV     A,R1
0021 4A                ORL     A,R2
0022 4B                ORL     A,R3
0023 602F              JZ      ?C0048
                                           ; SOURCE LINE # 874
                                           ; SOURCE LINE # 876
0025 900000      R     MOV     DPTR,#tdHandle
0028 E0                MOVX    A,@DPTR
0029 75F008            MOV     B,#08H
002C A4                MUL     AB
002D 2400              ADD     A,#00H
002F FF                MOV     R7,A
0030 E5F0              MOV     A,B
0032 3478              ADDC    A,#078H
0034 FE                MOV     R6,A
0035 900000      R     MOV     DPTR,#convert
0038 F0                MOVX    @DPTR,A
0039 A3                INC     DPTR
003A EF                MOV     A,R7
003B F0                MOVX    @DPTR,A
                                           ; SOURCE LINE # 877
003C AA06              MOV     R2,AR6
003E F9                MOV     R1,A
003F 7B01              MOV     R3,#01H
0041 120000      E     LCALL   _cyread16_nodpx
0044 EE                MOV     A,R6
0045 540F              ANL     A,#0FH
0047 FE                MOV     R6,A
0048 900000      R     MOV     DPTR,#transferCount
004B 120000      E     LCALL   ?C?PLDXDATA
004E EE                MOV     A,R6
004F 8FF0              MOV     B,R7
0051 120000      E     LCALL   ?C?ISTPTR
                                           ; SOURCE LINE # 878
C51 COMPILER V9.51   CYDMAC                                                                10/24/2019 10:21:10 PAGE 35  

0054         ?C0048:
                                           ; SOURCE LINE # 881
0054 900000      R     MOV     DPTR,#nextTd
0057 120000      E     LCALL   ?C?PLDXDATA
005A E9                MOV     A,R1
005B 4A                ORL     A,R2
005C 4B                ORL     A,R3
005D 6019              JZ      ?C0049
                                           ; SOURCE LINE # 882
                                           ; SOURCE LINE # 884
005F 900000      R     MOV     DPTR,#tdHandle
0062 E0                MOVX    A,@DPTR
0063 75F008            MOV     B,#08H
0066 907802            MOV     DPTR,#07802H
0069 120000      E     LCALL   ?C?OFFXADD
006C E0                MOVX    A,@DPTR
006D FF                MOV     R7,A
006E 900000      R     MOV     DPTR,#nextTd
0071 120000      E     LCALL   ?C?PLDXDATA
0074 EF                MOV     A,R7
0075 120000      E     LCALL   ?C?CSTPTR
                                           ; SOURCE LINE # 885
0078         ?C0049:
                                           ; SOURCE LINE # 888
0078 900000      R     MOV     DPTR,#configuration
007B 120000      E     LCALL   ?C?PLDXDATA
007E E9                MOV     A,R1
007F 4A                ORL     A,R2
0080 4B                ORL     A,R3
0081 6019              JZ      ?C0050
                                           ; SOURCE LINE # 889
                                           ; SOURCE LINE # 891
0083 900000      R     MOV     DPTR,#tdHandle
0086 E0                MOVX    A,@DPTR
0087 75F008            MOV     B,#08H
008A 907803            MOV     DPTR,#07803H
008D 120000      E     LCALL   ?C?OFFXADD
0090 E0                MOVX    A,@DPTR
0091 FF                MOV     R7,A
0092 900000      R     MOV     DPTR,#configuration
0095 120000      E     LCALL   ?C?PLDXDATA
0098 EF                MOV     A,R7
0099 120000      E     LCALL   ?C?CSTPTR
                                           ; SOURCE LINE # 892
009C         ?C0050:
                                           ; SOURCE LINE # 894
009C E4                CLR     A
009D 900000      R     MOV     DPTR,#status
00A0 F0                MOVX    @DPTR,A
                                           ; SOURCE LINE # 895
00A1         ?C0047:
                                           ; SOURCE LINE # 897
00A1 900000      R     MOV     DPTR,#status
00A4 E0                MOVX    A,@DPTR
00A5 FF                MOV     R7,A
                                           ; SOURCE LINE # 898
00A6         ?C0051:
00A6 22                RET     
             ; FUNCTION _CyDmaTdGetConfiguration (END)

             ; FUNCTION _CyDmaTdSetAddress (BEGIN)
                                           ; SOURCE LINE # 922
C51 COMPILER V9.51   CYDMAC                                                                10/24/2019 10:21:10 PAGE 36  

0000 900000      R     MOV     DPTR,#source
0003 EC                MOV     A,R4
0004 F0                MOVX    @DPTR,A
0005 A3                INC     DPTR
0006 ED                MOV     A,R5
0007 F0                MOVX    @DPTR,A
0008 A3                INC     DPTR
0009 EA                MOV     A,R2
000A F0                MOVX    @DPTR,A
000B A3                INC     DPTR
000C EB                MOV     A,R3
000D F0                MOVX    @DPTR,A
000E 900000      R     MOV     DPTR,#tdHandle
0011 EF                MOV     A,R7
0012 F0                MOVX    @DPTR,A
                                           ; SOURCE LINE # 923
                                           ; SOURCE LINE # 924
0013 900000      R     MOV     DPTR,#status
0016 7401              MOV     A,#01H
0018 F0                MOVX    @DPTR,A
                                           ; SOURCE LINE # 927
0019 EF                MOV     A,R7
001A C3                CLR     C
001B 9480              SUBB    A,#080H
001D 5053              JNC     ?C0052
                                           ; SOURCE LINE # 928
                                           ; SOURCE LINE # 930
001F 900000      R     MOV     DPTR,#tdHandle
0022 E0                MOVX    A,@DPTR
0023 75F008            MOV     B,#08H
0026 A4                MUL     AB
0027 2404              ADD     A,#04H
0029 FF                MOV     R7,A
002A E5F0              MOV     A,B
002C 3478              ADDC    A,#078H
002E FE                MOV     R6,A
002F 900000      R     MOV     DPTR,#convert
0032 F0                MOVX    @DPTR,A
0033 A3                INC     DPTR
0034 EF                MOV     A,R7
0035 F0                MOVX    @DPTR,A
                                           ; SOURCE LINE # 931
0036 AA06              MOV     R2,AR6
0038 F9                MOV     R1,A
0039 7B01              MOV     R3,#01H
003B 900000      R     MOV     DPTR,#source
003E E0                MOVX    A,@DPTR
003F FC                MOV     R4,A
0040 A3                INC     DPTR
0041 E0                MOVX    A,@DPTR
0042 FD                MOV     R5,A
0043 120000      E     LCALL   _cywrite16_nodpx
                                           ; SOURCE LINE # 934
0046 900000      R     MOV     DPTR,#tdHandle
0049 E0                MOVX    A,@DPTR
004A 75F008            MOV     B,#08H
004D A4                MUL     AB
004E 2406              ADD     A,#06H
0050 FF                MOV     R7,A
0051 E5F0              MOV     A,B
0053 3478              ADDC    A,#078H
0055 FE                MOV     R6,A
C51 COMPILER V9.51   CYDMAC                                                                10/24/2019 10:21:10 PAGE 37  

0056 900000      R     MOV     DPTR,#convert
0059 F0                MOVX    @DPTR,A
005A A3                INC     DPTR
005B EF                MOV     A,R7
005C F0                MOVX    @DPTR,A
                                           ; SOURCE LINE # 935
005D AA06              MOV     R2,AR6
005F F9                MOV     R1,A
0060 7B01              MOV     R3,#01H
0062 900000      R     MOV     DPTR,#destination
0065 E0                MOVX    A,@DPTR
0066 FC                MOV     R4,A
0067 A3                INC     DPTR
0068 E0                MOVX    A,@DPTR
0069 FD                MOV     R5,A
006A 120000      E     LCALL   _cywrite16_nodpx
                                           ; SOURCE LINE # 937
006D E4                CLR     A
006E 900000      R     MOV     DPTR,#status
0071 F0                MOVX    @DPTR,A
                                           ; SOURCE LINE # 938
0072         ?C0052:
                                           ; SOURCE LINE # 940
0072 900000      R     MOV     DPTR,#status
0075 E0                MOVX    A,@DPTR
0076 FF                MOV     R7,A
                                           ; SOURCE LINE # 941
0077         ?C0053:
0077 22                RET     
             ; FUNCTION _CyDmaTdSetAddress (END)

             ; FUNCTION _CyDmaTdGetAddress (BEGIN)
                                           ; SOURCE LINE # 968
0000 900000      R     MOV     DPTR,#source
0003 120000      E     LCALL   ?C?PSTXDATA
0006 900000      R     MOV     DPTR,#tdHandle
0009 EF                MOV     A,R7
000A F0                MOVX    @DPTR,A
                                           ; SOURCE LINE # 969
                                           ; SOURCE LINE # 970
000B 900000      R     MOV     DPTR,#status
000E 7401              MOV     A,#01H
0010 F0                MOVX    @DPTR,A
                                           ; SOURCE LINE # 973
0011 EF                MOV     A,R7
0012 C3                CLR     C
0013 9480              SUBB    A,#080H
0015 5071              JNC     ?C0054
                                           ; SOURCE LINE # 974
                                           ; SOURCE LINE # 976
0017 900000      R     MOV     DPTR,#source
001A 120000      E     LCALL   ?C?PLDXDATA
001D E9                MOV     A,R1
001E 4A                ORL     A,R2
001F 4B                ORL     A,R3
0020 602B              JZ      ?C0055
                                           ; SOURCE LINE # 977
                                           ; SOURCE LINE # 979
0022 900000      R     MOV     DPTR,#tdHandle
0025 E0                MOVX    A,@DPTR
0026 75F008            MOV     B,#08H
0029 A4                MUL     AB
C51 COMPILER V9.51   CYDMAC                                                                10/24/2019 10:21:10 PAGE 38  

002A 2404              ADD     A,#04H
002C FF                MOV     R7,A
002D E5F0              MOV     A,B
002F 3478              ADDC    A,#078H
0031 FE                MOV     R6,A
0032 900000      R     MOV     DPTR,#convert
0035 F0                MOVX    @DPTR,A
0036 A3                INC     DPTR
0037 EF                MOV     A,R7
0038 F0                MOVX    @DPTR,A
                                           ; SOURCE LINE # 980
0039 AA06              MOV     R2,AR6
003B F9                MOV     R1,A
003C 7B01              MOV     R3,#01H
003E 120000      E     LCALL   _cyread16_nodpx
0041 900000      R     MOV     DPTR,#source
0044 120000      E     LCALL   ?C?PLDXDATA
0047 EE                MOV     A,R6
0048 8FF0              MOV     B,R7
004A 120000      E     LCALL   ?C?ISTPTR
                                           ; SOURCE LINE # 981
004D         ?C0055:
                                           ; SOURCE LINE # 984
004D 900000      R     MOV     DPTR,#destination
0050 120000      E     LCALL   ?C?PLDXDATA
0053 E9                MOV     A,R1
0054 4A                ORL     A,R2
0055 4B                ORL     A,R3
0056 602B              JZ      ?C0056
                                           ; SOURCE LINE # 985
                                           ; SOURCE LINE # 987
0058 900000      R     MOV     DPTR,#tdHandle
005B E0                MOVX    A,@DPTR
005C 75F008            MOV     B,#08H
005F A4                MUL     AB
0060 2406              ADD     A,#06H
0062 FF                MOV     R7,A
0063 E5F0              MOV     A,B
0065 3478              ADDC    A,#078H
0067 FE                MOV     R6,A
0068 900000      R     MOV     DPTR,#convert
006B F0                MOVX    @DPTR,A
006C A3                INC     DPTR
006D EF                MOV     A,R7
006E F0                MOVX    @DPTR,A
                                           ; SOURCE LINE # 988
006F AA06              MOV     R2,AR6
0071 F9                MOV     R1,A
0072 7B01              MOV     R3,#01H
0074 120000      E     LCALL   _cyread16_nodpx
0077 900000      R     MOV     DPTR,#destination
007A 120000      E     LCALL   ?C?PLDXDATA
007D EE                MOV     A,R6
007E 8FF0              MOV     B,R7
0080 120000      E     LCALL   ?C?ISTPTR
                                           ; SOURCE LINE # 989
0083         ?C0056:
                                           ; SOURCE LINE # 991
0083 E4                CLR     A
0084 900000      R     MOV     DPTR,#status
0087 F0                MOVX    @DPTR,A
                                           ; SOURCE LINE # 992
C51 COMPILER V9.51   CYDMAC                                                                10/24/2019 10:21:10 PAGE 39  

0088         ?C0054:
                                           ; SOURCE LINE # 994
0088 900000      R     MOV     DPTR,#status
008B E0                MOVX    A,@DPTR
008C FF                MOV     R7,A
                                           ; SOURCE LINE # 995
008D         ?C0057:
008D 22                RET     
             ; FUNCTION _CyDmaTdGetAddress (END)

             ; FUNCTION _CyDmaChRoundRobin (BEGIN)
                                           ; SOURCE LINE # 1017
;---- Variable 'chHandle' assigned to Register 'R7' ----
;---- Variable 'enableRR' assigned to Register 'R5' ----
                                           ; SOURCE LINE # 1018
                                           ; SOURCE LINE # 1019
;---- Variable 'status' assigned to Register 'R6' ----
0000 7E01              MOV     R6,#01H
                                           ; SOURCE LINE # 1021
0002 EF                MOV     A,R7
0003 C3                CLR     C
0004 9418              SUBB    A,#018H
0006 5023              JNC     ?C0058
                                           ; SOURCE LINE # 1022
                                           ; SOURCE LINE # 1023
0008 ED                MOV     A,R5
0009 6010              JZ      ?C0059
                                           ; SOURCE LINE # 1024
                                           ; SOURCE LINE # 1025
000B 75F010            MOV     B,#010H
000E EF                MOV     A,R7
000F 907010            MOV     DPTR,#07010H
0012 120000      E     LCALL   ?C?OFFXADD
0015 E0                MOVX    A,@DPTR
0016 4410              ORL     A,#010H
0018 F0                MOVX    @DPTR,A
                                           ; SOURCE LINE # 1026
0019 800E              SJMP    ?C0060
001B         ?C0059:
                                           ; SOURCE LINE # 1028
                                           ; SOURCE LINE # 1029
001B 75F010            MOV     B,#010H
001E EF                MOV     A,R7
001F 907010            MOV     DPTR,#07010H
0022 120000      E     LCALL   ?C?OFFXADD
0025 E0                MOVX    A,@DPTR
0026 54EF              ANL     A,#0EFH
0028 F0                MOVX    @DPTR,A
                                           ; SOURCE LINE # 1030
0029         ?C0060:
                                           ; SOURCE LINE # 1032
0029 E4                CLR     A
002A FE                MOV     R6,A
                                           ; SOURCE LINE # 1033
002B         ?C0058:
                                           ; SOURCE LINE # 1035
002B AF06              MOV     R7,AR6
                                           ; SOURCE LINE # 1036
002D         ?C0061:
002D 22                RET     
             ; FUNCTION _CyDmaChRoundRobin (END)

C51 COMPILER V9.51   CYDMAC                                                                10/24/2019 10:21:10 PAGE 40  



MODULE INFORMATION:   STATIC OVERLAYABLE
   CODE SIZE        =   1610    ----
   CONSTANT SIZE    =   ----    ----
   XDATA SIZE       =      6      72
   PDATA SIZE       =   ----    ----
   DATA SIZE        =   ----    ----
   IDATA SIZE       =   ----    ----
   BIT SIZE         =   ----    ----
   EDATA SIZE       =   ----    ----
   HDATA SIZE       =   ----    ----
   XDATA CONST SIZE =   ----    ----
   FAR CONST SIZE   =   ----    ----
END OF MODULE INFORMATION.


C51 COMPILATION COMPLETE.  0 WARNING(S),  0 ERROR(S)
