C51 COMPILER V9.51   CYFITTER_CFG                                                          10/24/2019 10:21:09 PAGE 1   


C51 COMPILER V9.51, COMPILATION OF MODULE CYFITTER_CFG
OBJECT MODULE PLACED IN .\DP8051\DP8051_Keil_951\Release\cyfitter_cfg.obj
COMPILER INVOKED BY: C:\Program Files\Cypress\PSoC Creator\4.2\PSoC Creator\import\keil\pk51\9.51\C51\BIN\c51.exe Genera
                    -ted_Source\PSoC3\cyfitter_cfg.c NOIV LARGE MODDP2 OMF2 VB(1) NOIP INCDIR(.,Generated_Source\PSoC3) FF(3) DB DF(NDEBUG) W
                    -L(2) PR(.\DP8051\DP8051_Keil_951\Release/cyfitter_cfg.lst) CD OT(8,SIZE) OJ(.\DP8051\DP8051_Keil_951\Release\cyfitter_cf
                    -g.obj)

line level    source

*** MESSAGE C286 IN LINE 0 OF (null): license limits optimization to level 5
   1          
   2          /*******************************************************************************
   3          * File Name: cyfitter_cfg.c
   4          * 
   5          * PSoC Creator  4.2
   6          *
   7          * Description:
   8          * This file contains device initialization code.
   9          * Except for the user defined sections in CyClockStartupError(), this file should not be modified.
  10          * This file is automatically generated by PSoC Creator.
  11          *
  12          ********************************************************************************
  13          * Copyright (c) 2007-2018 Cypress Semiconductor.  All rights reserved.
  14          * You may use this file only in accordance with the license, terms, conditions, 
  15          * disclaimers, and limitations in the end user license agreement accompanying 
  16          * the software package with which this file was provided.
  17          ********************************************************************************/
  18          
  19          #include <string.h>
  20          #include "cytypes.h"
  21          #include "cydevice_trm.h"
  22          #include "cyfitter.h"
  23          #include "CyLib.h"
  24          #include "cyfitter_cfg.h"
  25          #include "cyapicallbacks.h"
  26          
  27          #define CY_NEED_CYCLOCKSTARTUPERROR 1
  28          
  29          
  30          #if defined(__C51__) || defined(__CX51__)
  31                  #define CYPACKED
  32                  #define CYPACKED_ATTR
  33                  #define CYALIGNED
  34                  
  35              #define CY_CFG_UNUSED
  36                  #define CY_CFG_MEMORY_BARRIER() do { } while (0)
  37          
  38          
  39          
  40                  #define CYMEMZERO(a,c) cymemzero((a),(c))
  41                  #define CYCONFIGCPY(d,s,c) cyconfigcpy((c),(s),(d))
  42                  #define CYCONFIGCPYCODE(d,s,c) cyconfigcpycode((c),(s),(d))
  43          #else
                      #error Unsupported toolchain
              #endif
  46          
  47          
  48          
  49          
  50          /* Clock startup error codes                                                   */
  51          #define CYCLOCKSTART_NO_ERROR    0u
C51 COMPILER V9.51   CYFITTER_CFG                                                          10/24/2019 10:21:09 PAGE 2   

  52          #define CYCLOCKSTART_XTAL_ERROR  1u
  53          #define CYCLOCKSTART_32KHZ_ERROR 2u
  54          #define CYCLOCKSTART_PLL_ERROR   3u
  55          #define CYCLOCKSTART_FLL_ERROR   4u
  56          #define CYCLOCKSTART_WCO_ERROR   5u
  57          
  58          
  59          #ifdef CY_NEED_CYCLOCKSTARTUPERROR
  60          /*******************************************************************************
  61          * Function Name: CyClockStartupError
  62          ********************************************************************************
  63          * Summary:
  64          *  If an error is encountered during clock configuration (crystal startup error,
  65          *  PLL lock error, etc.), the system will end up here.  Unless reimplemented by
  66          *  the customer, this function will stop in an infinite loop.
  67          *
  68          * Parameters:
  69          *   void
  70          *
  71          * Return:
  72          *   void
  73          *
  74          *******************************************************************************/
  75          CY_CFG_UNUSED
  76          static void CyClockStartupError(uint8 errorCode);
  77          CY_CFG_UNUSED
  78          static void CyClockStartupError(uint8 errorCode)
  79          {
  80   1          /* To remove the compiler warning if errorCode not used.                */
  81   1          errorCode = errorCode;
  82   1      
  83   1          /* If we have a clock startup error (bad MHz crystal, PLL lock, etc.),  */
  84   1          /* we will end up here to allow the customer to implement something to  */
  85   1          /* deal with the clock condition.                                       */
  86   1      
  87   1      #ifdef CY_CFG_CLOCK_STARTUP_ERROR_CALLBACK
                  CY_CFG_Clock_Startup_ErrorCallback();
              #else
  90   1          /*  If not using CY_CFG_CLOCK_STARTUP_ERROR_CALLBACK, place your clock startup code here. */
  91   1          /* `#START CyClockStartupError` */
  92   1      
  93   1      
  94   1      
  95   1          /* `#END` */
  96   1      
  97   1          while(1) {}
  98   1      #endif /* CY_CFG_CLOCK_STARTUP_ERROR_CALLBACK */
  99   1      }
 100          #endif
 101          
 102          /* IOPINS0_1 Address: CYREG_PRT1_DM0 Size (bytes): 8 */
 103          #define BS_IOPINS0_1_VAL ((const uint8 CYFAR *)0x00080000u)
 104          
 105          /* IOPINS0_2 Address: CYREG_PRT2_DM0 Size (bytes): 8 */
 106          #define BS_IOPINS0_2_VAL ((const uint8 CYFAR *)0x00080008u)
 107          
 108          
 109          /*******************************************************************************
 110          * Function Name: ClockSetup
 111          ********************************************************************************
 112          *
 113          * Summary:
C51 COMPILER V9.51   CYFITTER_CFG                                                          10/24/2019 10:21:09 PAGE 3   

 114          *  Performs the initialization of all of the clocks in the device based on the
 115          *  settings in the Clock tab of the DWR.  This includes enabling the requested
 116          *  clocks and setting the necessary dividers to produce the desired frequency. 
 117          *
 118          * Parameters:
 119          *  void
 120          *
 121          * Return:
 122          *  void
 123          *
 124          *******************************************************************************/
 125          static void ClockSetup(void);
 126          static void ClockSetup(void)
 127          {
 128   1              uint32 timeout;
 129   1              uint8 pllLock;
 130   1      
 131   1      
 132   1              /* Configure ILO based on settings from Clock DWR */
 133   1              CY_SET_REG8((void CYXDATA *)(CYREG_SLOWCLK_ILO_CR0), 0x02u);
 134   1              CY_SET_REG8((void CYXDATA *)(CYREG_CLKDIST_CR), 0x08u);
 135   1      
 136   1              /* Configure IMO based on settings from Clock DWR */
 137   1              CY_SET_REG8((void CYXDATA *)(CYREG_FASTCLK_IMO_CR), 0x03u);
 138   1              CY_SET_REG8((void CYXDATA *)(CYREG_IMO_TR1), (CY_GET_XTND_REG8((void CYFAR *)CYREG_FLSHID_CUST_TABLES_IMO
             -_3MHZ)));
 139   1      
 140   1              /* Configure PLL based on settings from Clock DWR */
 141   1              CY_SET_XTND_REG16((void CYFAR *)(CYREG_FASTCLK_PLL_P), 0x0008u);
 142   1              CY_SET_XTND_REG16((void CYFAR *)(CYREG_FASTCLK_PLL_CFG0), 0x1251u);
 143   1              /* Wait up to 250us for the PLL to lock */
 144   1              pllLock = 0u;
 145   1              for (timeout = 250u / 10u; (timeout > 0u) && (pllLock != 0x03u); timeout--)
 146   1              { 
 147   2                      pllLock = 0x03u & ((uint8)((uint8)pllLock << 1) | ((CY_GET_REG8((void CYXDATA *)CYREG_FASTCLK_PLL_SR) & 
             -0x01u) >> 0));
 148   2                      CyDelayCycles(10u * 48u); /* Delay 10us based on 48MHz clock */
 149   2              }
 150   1              /* If we ran out of time the PLL didn't lock so go to the error function */
 151   1              if (timeout == 0u)
 152   1              {
 153   2                      CyClockStartupError(CYCLOCKSTART_PLL_ERROR);
 154   2              }
 155   1      
 156   1              /* Configure Bus/Master Clock based on settings from Clock DWR */
 157   1              CY_SET_XTND_REG16((void CYFAR *)(CYREG_CLKDIST_MSTR0), 0x0100u);
 158   1              CY_SET_REG8((void CYXDATA *)(CYREG_CLKDIST_MSTR0), 0x07u);
 159   1              CY_SET_REG8((void CYXDATA *)(CYREG_CLKDIST_BCFG0), 0x00u);
 160   1              CY_SET_REG8((void CYXDATA *)(CYREG_CLKDIST_BCFG2), 0x48u);
 161   1              CY_SET_REG8((void CYXDATA *)(CYREG_CLKDIST_MSTR0), 0x00u);
 162   1              CY_SET_REG8((void CYXDATA *)(CYREG_CLKDIST_LD), 0x02u);
 163   1      }
 164          
 165          
 166          /* Analog API Functions */
 167          
 168          
 169          /*******************************************************************************
 170          * Function Name: AnalogSetDefault
 171          ********************************************************************************
 172          *
 173          * Summary:
C51 COMPILER V9.51   CYFITTER_CFG                                                          10/24/2019 10:21:09 PAGE 4   

 174          *  Sets up the analog portions of the chip to default values based on chip
 175          *  configuration options from the project.
 176          *
 177          * Parameters:
 178          *  void
 179          *
 180          * Return:
 181          *  void
 182          *
 183          *******************************************************************************/
 184          static void AnalogSetDefault(void);
 185          static void AnalogSetDefault(void)
 186          {
 187   1              uint8 bg_xover_inl_trim = CY_GET_XTND_REG8((void CYFAR *)(CYREG_FLSHID_MFG_CFG_BG_XOVER_INL_TRIM + 1u));
 188   1              CY_SET_REG8((void CYXDATA *)(CYREG_BG_DFT0), (bg_xover_inl_trim & 0x07u));
 189   1              CY_SET_REG8((void CYXDATA *)(CYREG_BG_DFT1), ((bg_xover_inl_trim >> 4) & 0x0Fu));
 190   1              CY_SET_REG8((void CYXDATA *)CYREG_PUMP_CR0, 0x44u);
 191   1      }
 192          
 193          
 194          /*******************************************************************************
 195          * Function Name: SetAnalogRoutingPumps
 196          ********************************************************************************
 197          *
 198          * Summary:
 199          * Enables or disables the analog pumps feeding analog routing switches.
 200          * Intended to be called at startup, based on the Vdda system configuration;
 201          * may be called during operation when the user informs us that the Vdda voltage
 202          * crossed the pump threshold.
 203          *
 204          * Parameters:
 205          *  enabled - 1 to enable the pumps, 0 to disable the pumps
 206          *
 207          * Return:
 208          *  void
 209          *
 210          *******************************************************************************/
 211          void SetAnalogRoutingPumps(uint8 enabled)
 212          {
 213   1              uint8 regValue = CY_GET_REG8((void CYXDATA *)CYREG_PUMP_CR0);
 214   1              if (enabled != 0u)
 215   1              {
 216   2                      regValue |= 0x00u;
 217   2              }
 218   1              else
 219   1              {
 220   2                      regValue &= (uint8)~0x00u;
 221   2              }
 222   1              CY_SET_REG8((void CYXDATA *)CYREG_PUMP_CR0, regValue);
 223   1      }
 224          
 225          
 226          
 227          
 228          /*******************************************************************************
 229          * Function Name: cyfitter_cfg
 230          ********************************************************************************
 231          * Summary:
 232          *  This function is called by the start-up code for the selected device. It
 233          *  performs all of the necessary device configuration based on the design
 234          *  settings.  This includes settings from the Design Wide Resources (DWR) such
 235          *  as Clocks and Pins as well as any component configuration that is necessary.
C51 COMPILER V9.51   CYFITTER_CFG                                                          10/24/2019 10:21:09 PAGE 5   

 236          *
 237          * Parameters:
 238          *   void
 239          *
 240          * Return:
 241          *   void
 242          *
 243          *******************************************************************************/
 244          
 245          void cyfitter_cfg(void)
 246          {
 247   1              /* Enable/Disable Debug functionality based on settings from System DWR */
 248   1              CY_SET_XTND_REG8((void CYFAR *)CYREG_MLOGIC_DEBUG, (CY_GET_XTND_REG8((void CYFAR *)CYREG_MLOGIC_DEBUG) | 
             -0x05u));
 249   1      
 250   1              {
 251   2      
 252   2                      CYPACKED typedef struct {
 253   2                              void CYFAR *address;
 254   2                              uint16 size;
 255   2                      } CYPACKED_ATTR cfg_memset_t;
 256   2      
 257   2                      static const cfg_memset_t CYCODE cfg_memset_list[] = {
 258   2                              /* address, size */
 259   2                              {(void CYFAR *)(CYREG_PRT0_DR), 16u},
 260   2                              {(void CYFAR *)(CYREG_PRT3_DR), 64u},
 261   2                              {(void CYFAR *)(CYREG_PRT12_DR), 16u},
 262   2                              {(void CYFAR *)(CYREG_PRT15_DR), 16u},
 263   2                              {(void CYFAR *)(CYDEV_UCFG_B0_P0_U0_BASE), 4096u},
 264   2                              {(void CYFAR *)(CYDEV_UCFG_B1_P2_U0_BASE), 2048u},
 265   2                              {(void CYFAR *)(CYDEV_UCFG_DSI0_BASE), 2560u},
 266   2                              {(void CYFAR *)(CYDEV_UCFG_DSI12_BASE), 512u},
 267   2                              {(void CYFAR *)(CYREG_BCTL0_MDCLK_EN), 32u},
 268   2                      };
 269   2      
 270   2                      uint8 CYDATA i;
 271   2      
 272   2                      /* Zero out critical memory blocks before beginning configuration */
 273   2                      for (i = 0u; i < (sizeof(cfg_memset_list)/sizeof(cfg_memset_list[0])); i++)
 274   2                      {
 275   3                              const cfg_memset_t CYCODE * CYDATA ms = &cfg_memset_list[i];
 276   3                              CYMEMZERO(ms->address, ms->size);
 277   3                      }
 278   2      
 279   2                      /* Enable digital routing */
 280   2                      CY_SET_XTND_REG8((void CYFAR *)CYREG_BCTL0_BANK_CTL, CY_GET_XTND_REG8((void CYFAR *)CYREG_BCTL0_BANK_CTL
             -) | 0x02u);
 281   2                      CY_SET_XTND_REG8((void CYFAR *)CYREG_BCTL1_BANK_CTL, CY_GET_XTND_REG8((void CYFAR *)CYREG_BCTL1_BANK_CTL
             -) | 0x02u);
 282   2              }
 283   1      
 284   1      
 285   1              /* Perform second pass device configuration. These items must be configured in specific order after the r
             -egular configuration is done. */
 286   1              CYCONFIGCPY((void CYFAR *)(CYREG_PRT1_DM0), (const void CYFAR *)(BS_IOPINS0_1_VAL), 8u);
 287   1              CYCONFIGCPY((void CYFAR *)(CYREG_PRT2_DM0), (const void CYFAR *)(BS_IOPINS0_2_VAL), 8u);
 288   1              /* Switch Boost to the precision bandgap reference from its internal reference */
 289   1              CY_SET_REG8((void CYXDATA *)CYREG_BOOST_CR2, (CY_GET_REG8((void CYXDATA *)CYREG_BOOST_CR2) | 0x08u));
 290   1              if (CYDEV_CHIP_REV_ACTUAL < 5u)
 291   1              {
 292   2                      CY_SET_REG8((void CYXDATA *)CYREG_PWRSYS_WAKE_TR2, 0x3Au);
 293   2              }
C51 COMPILER V9.51   CYFITTER_CFG                                                          10/24/2019 10:21:09 PAGE 6   

 294   1      
 295   1      
 296   1              /* Set Flash Cycles based on max possible frequency in case a glitch occurs during ClockSetup(). */
 297   1              CY_SET_REG8((void CYXDATA *)(CYREG_CACHE_CR), (((CYDEV_INSTRUCT_CACHE_ENABLED) != 0) ? 0x31u : 0x00u));
 298   1              /* Setup clocks based on selections from Clock DWR */
 299   1              ClockSetup();
 300   1              /* Set Flash Cycles based on newly configured 24.00MHz Bus Clock. */
 301   1              CY_SET_REG8((void CYXDATA *)(CYREG_CACHE_CR), (((CYDEV_INSTRUCT_CACHE_ENABLED) != 0) ? 0xB1u : 0x80u));
 302   1      
 303   1              /* Perform basic analog initialization to defaults */
 304   1              AnalogSetDefault();
 305   1      
 306   1              /* Configure alternate active mode */
 307   1              CYCONFIGCPY((void CYFAR *)CYDEV_PM_STBY_BASE, (const void CYFAR *)CYDEV_PM_ACT_BASE, 14u);
 308   1              CY_SET_REG8((void CYXDATA *)CYREG_PM_STBY_CFG0, CY_GET_REG8((void CYXDATA *)CYREG_PM_STBY_CFG0) & (uint8)
             -~0x02u);        /* Disable CPU */
 309   1      }
C51 COMPILER V9.51   CYFITTER_CFG                                                          10/24/2019 10:21:09 PAGE 7   

ASSEMBLY LISTING OF GENERATED OBJECT CODE


             ; FUNCTION _CyClockStartupError (BEGIN)
                                           ; SOURCE LINE # 78
                                           ; SOURCE LINE # 79
                                           ; SOURCE LINE # 81
0000         ?C0001:
                                           ; SOURCE LINE # 97
0000 80FE              SJMP    ?C0001
0002 22                RET     
             ; FUNCTION _CyClockStartupError (END)

             ; FUNCTION ClockSetup (BEGIN)
                                           ; SOURCE LINE # 126
                                           ; SOURCE LINE # 127
                                           ; SOURCE LINE # 133
0000 904300            MOV     DPTR,#04300H
0003 7402              MOV     A,#02H
0005 F0                MOVX    @DPTR,A
                                           ; SOURCE LINE # 134
0006 904000            MOV     DPTR,#04000H
0009 7408              MOV     A,#08H
000B F0                MOVX    @DPTR,A
                                           ; SOURCE LINE # 137
000C 904200            MOV     DPTR,#04200H
000F 7403              MOV     A,#03H
0011 F0                MOVX    @DPTR,A
                                           ; SOURCE LINE # 138
0012 7B0C              MOV     R3,#0CH
0014 7A01              MOV     R2,#01H
0016 7908              MOV     R1,#08H
0018 120000      E     LCALL   _cyread8
001B 9046A1            MOV     DPTR,#046A1H
001E EF                MOV     A,R7
001F F0                MOVX    @DPTR,A
                                           ; SOURCE LINE # 141
0020 7B00              MOV     R3,#00H
0022 7A42              MOV     R2,#042H
0024 7922              MOV     R1,#022H
0026 7D08              MOV     R5,#08H
0028 7C00              MOV     R4,#00H
002A 120000      E     LCALL   _cywrite16
                                           ; SOURCE LINE # 142
002D 7B00              MOV     R3,#00H
002F 7A42              MOV     R2,#042H
0031 7920              MOV     R1,#020H
0033 7D51              MOV     R5,#051H
0035 7C12              MOV     R4,#012H
0037 120000      E     LCALL   _cywrite16
                                           ; SOURCE LINE # 144
003A E4                CLR     A
003B 900000      R     MOV     DPTR,#pllLock
003E F0                MOVX    @DPTR,A
                                           ; SOURCE LINE # 145
003F 7F19              MOV     R7,#019H
0041 FE                MOV     R6,A
0042 FD                MOV     R5,A
0043 FC                MOV     R4,A
0044 900000      R     MOV     DPTR,#timeout
0047 120000      E     LCALL   ?C?LSTXDATA
004A         ?C0004:
C51 COMPILER V9.51   CYFITTER_CFG                                                          10/24/2019 10:21:09 PAGE 8   

004A 900000      R     MOV     DPTR,#timeout
004D 120000      E     LCALL   ?C?LLDXDATA
0050 D3                SETB    C
0051 EF                MOV     A,R7
0052 9400              SUBB    A,#00H
0054 EE                MOV     A,R6
0055 9400              SUBB    A,#00H
0057 403B              JC      ?C0005
0059 900000      R     MOV     DPTR,#pllLock
005C E0                MOVX    A,@DPTR
005D FF                MOV     R7,A
005E 6403              XRL     A,#03H
0060 6032              JZ      ?C0005
                                           ; SOURCE LINE # 146
                                           ; SOURCE LINE # 147
0062 904225            MOV     DPTR,#04225H
0065 E0                MOVX    A,@DPTR
0066 5401              ANL     A,#01H
0068 FE                MOV     R6,A
0069 EF                MOV     A,R7
006A 25E0              ADD     A,ACC
006C 4E                ORL     A,R6
006D 5403              ANL     A,#03H
006F 900000      R     MOV     DPTR,#pllLock
0072 F0                MOVX    @DPTR,A
                                           ; SOURCE LINE # 148
0073 E4                CLR     A
0074 7FE0              MOV     R7,#0E0H
0076 7E01              MOV     R6,#01H
0078 FD                MOV     R5,A
0079 FC                MOV     R4,A
007A 120000      E     LCALL   _CyDelayCycles
                                           ; SOURCE LINE # 149
007D 900000      R     MOV     DPTR,#timeout
0080 120000      E     LCALL   ?C?LLDXDATA
0083 74FF              MOV     A,#0FFH
0085 FB                MOV     R3,A
0086 FA                MOV     R2,A
0087 F9                MOV     R1,A
0088 F8                MOV     R0,A
0089 120000      E     LCALL   ?C?LADD
008C 900000      R     MOV     DPTR,#timeout
008F 120000      E     LCALL   ?C?LSTXDATA
0092 80B6              SJMP    ?C0004
0094         ?C0005:
                                           ; SOURCE LINE # 151
0094 900000      R     MOV     DPTR,#timeout
0097 120000      E     LCALL   ?C?LLDXDATA
009A EF                MOV     A,R7
009B 4E                ORL     A,R6
009C 7005              JNZ     ?C0007
                                           ; SOURCE LINE # 152
                                           ; SOURCE LINE # 153
009E 7F03              MOV     R7,#03H
00A0 120000      R     LCALL   _CyClockStartupError
                                           ; SOURCE LINE # 154
00A3         ?C0007:
                                           ; SOURCE LINE # 157
00A3 7B00              MOV     R3,#00H
00A5 7A40              MOV     R2,#040H
00A7 7904              MOV     R1,#04H
00A9 7D00              MOV     R5,#00H
C51 COMPILER V9.51   CYFITTER_CFG                                                          10/24/2019 10:21:09 PAGE 9   

00AB 7C01              MOV     R4,#01H
00AD 120000      E     LCALL   _cywrite16
                                           ; SOURCE LINE # 158
00B0 904004            MOV     DPTR,#04004H
00B3 7407              MOV     A,#07H
00B5 F0                MOVX    @DPTR,A
                                           ; SOURCE LINE # 159
00B6 904006            MOV     DPTR,#04006H
00B9 E4                CLR     A
00BA F0                MOVX    @DPTR,A
                                           ; SOURCE LINE # 160
00BB 904008            MOV     DPTR,#04008H
00BE 7448              MOV     A,#048H
00C0 F0                MOVX    @DPTR,A
                                           ; SOURCE LINE # 161
00C1 904004            MOV     DPTR,#04004H
00C4 E4                CLR     A
00C5 F0                MOVX    @DPTR,A
                                           ; SOURCE LINE # 162
00C6 904001            MOV     DPTR,#04001H
00C9 7402              MOV     A,#02H
00CB F0                MOVX    @DPTR,A
                                           ; SOURCE LINE # 163
00CC 22                RET     
             ; FUNCTION ClockSetup (END)

             ; FUNCTION AnalogSetDefault (BEGIN)
                                           ; SOURCE LINE # 185
                                           ; SOURCE LINE # 186
                                           ; SOURCE LINE # 187
0000 7B0C              MOV     R3,#0CH
0002 7A01              MOV     R2,#01H
0004 79CF              MOV     R1,#0CFH
0006 120000      E     LCALL   _cyread8
;---- Variable 'bg_xover_inl_trim' assigned to Register 'R7' ----
                                           ; SOURCE LINE # 188
0009 EF                MOV     A,R7
000A 5407              ANL     A,#07H
000C 90586E            MOV     DPTR,#0586EH
000F F0                MOVX    @DPTR,A
                                           ; SOURCE LINE # 189
0010 EF                MOV     A,R7
0011 C4                SWAP    A
0012 540F              ANL     A,#0FH
0014 A3                INC     DPTR
0015 F0                MOVX    @DPTR,A
                                           ; SOURCE LINE # 190
0016 905876            MOV     DPTR,#05876H
0019 7444              MOV     A,#044H
001B F0                MOVX    @DPTR,A
                                           ; SOURCE LINE # 191
001C 22                RET     
             ; FUNCTION AnalogSetDefault (END)

             ; FUNCTION _SetAnalogRoutingPumps (BEGIN)
                                           ; SOURCE LINE # 211
;---- Variable 'enabled' assigned to Register 'R7' ----
                                           ; SOURCE LINE # 212
                                           ; SOURCE LINE # 213
0000 905876            MOV     DPTR,#05876H
0003 E0                MOVX    A,@DPTR
0004 FE                MOV     R6,A
C51 COMPILER V9.51   CYFITTER_CFG                                                          10/24/2019 10:21:09 PAGE 10  

;---- Variable 'regValue' assigned to Register 'R6' ----
                                           ; SOURCE LINE # 214
0005 EF                MOV     A,R7
0006 6003              JZ      ?C0010
                                           ; SOURCE LINE # 215
                                           ; SOURCE LINE # 216
0008 EE                MOV     A,R6
                                           ; SOURCE LINE # 217
0009 8001              SJMP    ?C0011
000B         ?C0010:
                                           ; SOURCE LINE # 219
                                           ; SOURCE LINE # 220
000B EE                MOV     A,R6
                                           ; SOURCE LINE # 221
000C         ?C0011:
                                           ; SOURCE LINE # 222
000C AF06              MOV     R7,AR6
000E 905876            MOV     DPTR,#05876H
0011 EE                MOV     A,R6
0012 F0                MOVX    @DPTR,A
                                           ; SOURCE LINE # 223
0013 22                RET     
             ; FUNCTION _SetAnalogRoutingPumps (END)

             ; FUNCTION cyfitter_cfg (BEGIN)
                                           ; SOURCE LINE # 245
                                           ; SOURCE LINE # 246
                                           ; SOURCE LINE # 248
0000 7B00              MOV     R3,#00H
0002 7A46              MOV     R2,#046H
0004 79E8              MOV     R1,#0E8H
0006 120000      E     LCALL   _cyread8
0009 EF                MOV     A,R7
000A 4405              ORL     A,#05H
000C FD                MOV     R5,A
000D 7B00              MOV     R3,#00H
000F 7A46              MOV     R2,#046H
0011 79E8              MOV     R1,#0E8H
0013 120000      E     LCALL   _cywrite8
                                           ; SOURCE LINE # 250
                                           ; SOURCE LINE # 273
0016 E4                CLR     A
0017 F500        R     MOV     i,A
0019         ?C0013:
0019 E500        R     MOV     A,i
001B C3                CLR     C
001C 9409              SUBB    A,#09H
001E 502C              JNC     ?C0014
                                           ; SOURCE LINE # 274
                                           ; SOURCE LINE # 275
0020 E500        R     MOV     A,i
0022 75F005            MOV     B,#05H
0025 A4                MUL     AB
0026 2400        R     ADD     A,#LOW cfg_memset_list
0028 F582              MOV     DPL,A
002A E4                CLR     A
002B 3400        R     ADDC    A,#HIGH cfg_memset_list
002D AF82              MOV     R7,DPL
002F F500        R     MOV     ms,A
0031 8F00        R     MOV     ms+01H,R7
                                           ; SOURCE LINE # 276
0033 F583              MOV     DPH,A
C51 COMPILER V9.51   CYFITTER_CFG                                                          10/24/2019 10:21:09 PAGE 11  

0035 120000      E     LCALL   ?C?PLDCODE
0038 8F82              MOV     DPL,R7
003A 850083      R     MOV     DPH,ms
003D 7403              MOV     A,#03H
003F 93                MOVC    A,@A+DPTR
0040 FC                MOV     R4,A
0041 7404              MOV     A,#04H
0043 93                MOVC    A,@A+DPTR
0044 FD                MOV     R5,A
0045 120000      E     LCALL   _cymemzero
                                           ; SOURCE LINE # 277
0048 0500        R     INC     i
004A 80CD              SJMP    ?C0013
004C         ?C0014:
                                           ; SOURCE LINE # 280
004C 7B01              MOV     R3,#01H
004E 7A50              MOV     R2,#050H
0050 7903              MOV     R1,#03H
0052 120000      E     LCALL   _cyread8
0055 EF                MOV     A,R7
0056 4402              ORL     A,#02H
0058 FD                MOV     R5,A
0059 7B01              MOV     R3,#01H
005B 7A50              MOV     R2,#050H
005D 7903              MOV     R1,#03H
005F 120000      E     LCALL   _cywrite8
                                           ; SOURCE LINE # 281
0062 7B01              MOV     R3,#01H
0064 7A50              MOV     R2,#050H
0066 7913              MOV     R1,#013H
0068 120000      E     LCALL   _cyread8
006B EF                MOV     A,R7
006C 4402              ORL     A,#02H
006E FD                MOV     R5,A
006F 7B01              MOV     R3,#01H
0071 7A50              MOV     R2,#050H
0073 7913              MOV     R1,#013H
0075 120000      E     LCALL   _cywrite8
                                           ; SOURCE LINE # 282
                                           ; SOURCE LINE # 286
0078 7B08              MOV     R3,#08H
007A 7A00              MOV     R2,#00H
007C 7900              MOV     R1,#00H
007E C003              PUSH    AR3
0080 C002              PUSH    AR2
0082 C001              PUSH    AR1
0084 7B00              MOV     R3,#00H
0086 7A51              MOV     R2,#051H
0088 7912              MOV     R1,#012H
008A 900000      E     MOV     DPTR,#?_cyconfigcpy?BYTE+05H
008D 120000      E     LCALL   ?C?PSTXDATA
0090 D001              POP     AR1
0092 D002              POP     AR2
0094 D003              POP     AR3
0096 7F08              MOV     R7,#08H
0098 7E00              MOV     R6,#00H
009A 120000      E     LCALL   _cyconfigcpy
                                           ; SOURCE LINE # 287
009D 7B08              MOV     R3,#08H
009F 7A00              MOV     R2,#00H
00A1 7908              MOV     R1,#08H
00A3 C003              PUSH    AR3
C51 COMPILER V9.51   CYFITTER_CFG                                                          10/24/2019 10:21:09 PAGE 12  

00A5 C002              PUSH    AR2
00A7 C001              PUSH    AR1
00A9 7B00              MOV     R3,#00H
00AB 7A51              MOV     R2,#051H
00AD 7922              MOV     R1,#022H
00AF 900000      E     MOV     DPTR,#?_cyconfigcpy?BYTE+05H
00B2 120000      E     LCALL   ?C?PSTXDATA
00B5 D001              POP     AR1
00B7 D002              POP     AR2
00B9 D003              POP     AR3
00BB 7F08              MOV     R7,#08H
00BD 7E00              MOV     R6,#00H
00BF 120000      E     LCALL   _cyconfigcpy
                                           ; SOURCE LINE # 289
00C2 904322            MOV     DPTR,#04322H
00C5 E0                MOVX    A,@DPTR
00C6 4408              ORL     A,#08H
00C8 F0                MOVX    @DPTR,A
                                           ; SOURCE LINE # 290
00C9 9046EC            MOV     DPTR,#046ECH
00CC E0                MOVX    A,@DPTR
00CD C3                CLR     C
00CE 9405              SUBB    A,#05H
00D0 5006              JNC     ?C0016
                                           ; SOURCE LINE # 291
                                           ; SOURCE LINE # 292
00D2 904689            MOV     DPTR,#04689H
00D5 743A              MOV     A,#03AH
00D7 F0                MOVX    @DPTR,A
                                           ; SOURCE LINE # 293
00D8         ?C0016:
                                           ; SOURCE LINE # 297
00D8 904800            MOV     DPTR,#04800H
00DB 7431              MOV     A,#031H
00DD F0                MOVX    @DPTR,A
                                           ; SOURCE LINE # 299
00DE 120000      R     LCALL   ClockSetup
                                           ; SOURCE LINE # 301
00E1 904800            MOV     DPTR,#04800H
00E4 74B1              MOV     A,#0B1H
00E6 F0                MOVX    @DPTR,A
                                           ; SOURCE LINE # 304
00E7 120000      R     LCALL   AnalogSetDefault
                                           ; SOURCE LINE # 307
00EA 7B00              MOV     R3,#00H
00EC 7A43              MOV     R2,#043H
00EE 79A0              MOV     R1,#0A0H
00F0 C001              PUSH    AR1
00F2 79B0              MOV     R1,#0B0H
00F4 900000      E     MOV     DPTR,#?_cyconfigcpy?BYTE+05H
00F7 120000      E     LCALL   ?C?PSTXDATA
00FA D001              POP     AR1
00FC 7F0E              MOV     R7,#0EH
00FE 7E00              MOV     R6,#00H
0100 120000      E     LCALL   _cyconfigcpy
                                           ; SOURCE LINE # 308
0103 9043B0            MOV     DPTR,#043B0H
0106 E0                MOVX    A,@DPTR
0107 54FD              ANL     A,#0FDH
0109 F0                MOVX    @DPTR,A
                                           ; SOURCE LINE # 309
010A 22                RET     
C51 COMPILER V9.51   CYFITTER_CFG                                                          10/24/2019 10:21:09 PAGE 13  

             ; FUNCTION cyfitter_cfg (END)



MODULE INFORMATION:   STATIC OVERLAYABLE
   CODE SIZE        =    524    ----
   CONSTANT SIZE    =     45    ----
   XDATA SIZE       =   ----       5
   PDATA SIZE       =   ----    ----
   DATA SIZE        =   ----       3
   IDATA SIZE       =   ----    ----
   BIT SIZE         =   ----    ----
   EDATA SIZE       =   ----    ----
   HDATA SIZE       =   ----    ----
   XDATA CONST SIZE =   ----    ----
   FAR CONST SIZE   =   ----    ----
END OF MODULE INFORMATION.


C51 COMPILATION COMPLETE.  0 WARNING(S),  0 ERROR(S)
