LX51 LINKER/LOCATER V4.64.0.0                                                           10/24/2019  10:28:13  PAGE 1


LX51 LINKER/LOCATER V4.64.0.0, INVOKED BY:
C:\PROGRAM FILES\CYPRESS\PSOC CREATOR\4.2\PSOC CREATOR\IMPORT\KEIL\PK51\9.51\C51\BIN\LX51.EXE .\DP8051\DP8051_Keil_951\R
>> elease\main.obj, .\DP8051\DP8051_Keil_951\Release\cyfitter_cfg.obj, .\DP8051\DP8051_Keil_951\Release\Lab01.lib, C:\Pr
>> ogram Files\Cypress\PSoC Creator\4.2\PSoC Creator\psoc\content\cycomponentlibrary\CyComponentLibrary.cylib\DP8051\DP8
>> 051_Keil_951\Release\CyComponentLibrary.lib TO .\DP8051\DP8051_Keil_951\Release\Lab01.omf CODE RU RC (10) DW (16) WL 
>> (2) PR (.\DP8051\DP8051_Keil_951\Release/Lab01.map) IX CL (XDATA (X:0X0000-X:0X1FFF)) CL (CODE (C:0X0000-C:0XFFFF)) C
>> L (CONST (C:0X0000-C:0XFFFF))


CPU MODE:     8051 MODE
MEMORY MODEL: LARGE


INPUT MODULES INCLUDED:
  .\DP8051\DP8051_Keil_951\Release\main.obj (MAIN)
         COMMENT TYPE 0: C51 V9.51
  .\DP8051\DP8051_Keil_951\Release\cyfitter_cfg.obj (CYFITTER_CFG)
         COMMENT TYPE 0: C51 V9.51
  .\DP8051\DP8051_Keil_951\Release\Lab01.lib (LCD_KHANAS)
         COMMENT TYPE 0: C51 V9.51
  .\DP8051\DP8051_Keil_951\Release\Lab01.lib (LCD_KHANAS_CUSTCHARS)
         COMMENT TYPE 0: C51 V9.51
  .\DP8051\DP8051_Keil_951\Release\Lab01.lib (CYLIB)
         COMMENT TYPE 0: C51 V9.51
  .\DP8051\DP8051_Keil_951\Release\Lab01.lib (CYBOOTASMKEIL)
         COMMENT TYPE 0: AX51 V3.07d
  .\DP8051\DP8051_Keil_951\Release\Lab01.lib (CYMEM)
         COMMENT TYPE 0: AX51 V3.07d
  .\DP8051\DP8051_Keil_951\Release\Lab01.lib (?C_STARTUP)
         COMMENT TYPE 0: AX51 V3.07d
  .\DP8051\DP8051_Keil_951\Release\Lab01.lib (CYPM)
         COMMENT TYPE 0: C51 V9.51
  .\DP8051\DP8051_Keil_951\Release\Lab01.lib (CYFLASH)
         COMMENT TYPE 0: C51 V9.51
  .\DP8051\DP8051_Keil_951\Release\Lab01.lib (CYSPC)
         COMMENT TYPE 0: C51 V9.51
  C:\PROGRAM FILES\CYPRESS\PSOC CREATOR\4.2\PSOC CREATOR\IMPORT\KEIL\PK51\9.51\C51\LIB\C51L.LIB (?C_INIT)
         COMMENT TYPE 1: A51 / ASM51 Assembler
  C:\PROGRAM FILES\CYPRESS\PSOC CREATOR\4.2\PSOC CREATOR\IMPORT\KEIL\PK51\9.51\C51\LIB\C51L.LIB (?C?CLDPTR)
         COMMENT TYPE 1: A51 / ASM51 Assembler
  C:\PROGRAM FILES\CYPRESS\PSOC CREATOR\4.2\PSOC CREATOR\IMPORT\KEIL\PK51\9.51\C51\LIB\C51L.LIB (?C?CSTPTR)
         COMMENT TYPE 1: A51 / ASM51 Assembler
  C:\PROGRAM FILES\CYPRESS\PSOC CREATOR\4.2\PSOC CREATOR\IMPORT\KEIL\PK51\9.51\C51\LIB\C51L.LIB (?C?IILDX)
         COMMENT TYPE 1: A51 / ASM51 Assembler
  C:\PROGRAM FILES\CYPRESS\PSOC CREATOR\4.2\PSOC CREATOR\IMPORT\KEIL\PK51\9.51\C51\LIB\C51L.LIB (?C?LADD)
         COMMENT TYPE 1: A51 / ASM51 Assembler
  C:\PROGRAM FILES\CYPRESS\PSOC CREATOR\4.2\PSOC CREATOR\IMPORT\KEIL\PK51\9.51\C51\LIB\C51L.LIB (?C?LMUL)
         COMMENT TYPE 1: A51 / ASM51 Assembler
  C:\PROGRAM FILES\CYPRESS\PSOC CREATOR\4.2\PSOC CREATOR\IMPORT\KEIL\PK51\9.51\C51\LIB\C51L.LIB (?C?ULDIV)
         COMMENT TYPE 1: A51 / ASM51 Assembler
  C:\PROGRAM FILES\CYPRESS\PSOC CREATOR\4.2\PSOC CREATOR\IMPORT\KEIL\PK51\9.51\C51\LIB\C51L.LIB (?C?LOR)
         COMMENT TYPE 1: A51 / ASM51 Assembler
  C:\PROGRAM FILES\CYPRESS\PSOC CREATOR\4.2\PSOC CREATOR\IMPORT\KEIL\PK51\9.51\C51\LIB\C51L.LIB (?C?ULCMP)
         COMMENT TYPE 1: A51 / ASM51 Assembler
  C:\PROGRAM FILES\CYPRESS\PSOC CREATOR\4.2\PSOC CREATOR\IMPORT\KEIL\PK51\9.51\C51\LIB\C51L.LIB (?C?ULSHR)
         COMMENT TYPE 1: A51 / ASM51 Assembler
  C:\PROGRAM FILES\CYPRESS\PSOC CREATOR\4.2\PSOC CREATOR\IMPORT\KEIL\PK51\9.51\C51\LIB\C51L.LIB (?C?LSHL)
         COMMENT TYPE 1: A51 / ASM51 Assembler
  C:\PROGRAM FILES\CYPRESS\PSOC CREATOR\4.2\PSOC CREATOR\IMPORT\KEIL\PK51\9.51\C51\LIB\C51L.LIB (?C?LLDPTR)
         COMMENT TYPE 1: A51 / ASM51 Assembler
  C:\PROGRAM FILES\CYPRESS\PSOC CREATOR\4.2\PSOC CREATOR\IMPORT\KEIL\PK51\9.51\C51\LIB\C51L.LIB (?C?LSTPTR)
         COMMENT TYPE 1: A51 / ASM51 Assembler
  C:\PROGRAM FILES\CYPRESS\PSOC CREATOR\4.2\PSOC CREATOR\IMPORT\KEIL\PK51\9.51\C51\LIB\C51L.LIB (?C?LLDXDATA)
         COMMENT TYPE 1: A51 / ASM51 Assembler
  C:\PROGRAM FILES\CYPRESS\PSOC CREATOR\4.2\PSOC CREATOR\IMPORT\KEIL\PK51\9.51\C51\LIB\C51L.LIB (?C?LLDXDATA0)
         COMMENT TYPE 1: A51 / ASM51 Assembler
LX51 LINKER/LOCATER V4.64.0.0                                                         10/24/2019  10:28:13  PAGE 2


  C:\PROGRAM FILES\CYPRESS\PSOC CREATOR\4.2\PSOC CREATOR\IMPORT\KEIL\PK51\9.51\C51\LIB\C51L.LIB (?C?LSTXDATA)
         COMMENT TYPE 1: A51 / ASM51 Assembler
  C:\PROGRAM FILES\CYPRESS\PSOC CREATOR\4.2\PSOC CREATOR\IMPORT\KEIL\PK51\9.51\C51\LIB\C51L.LIB (?C?PLDXDATA)
         COMMENT TYPE 1: A51 / ASM51 Assembler
  C:\PROGRAM FILES\CYPRESS\PSOC CREATOR\4.2\PSOC CREATOR\IMPORT\KEIL\PK51\9.51\C51\LIB\C51L.LIB (?C?PSTXDATA)
         COMMENT TYPE 1: A51 / ASM51 Assembler
  C:\PROGRAM FILES\CYPRESS\PSOC CREATOR\4.2\PSOC CREATOR\IMPORT\KEIL\PK51\9.51\C51\LIB\C51L.LIB (?C?PLDCODE)
         COMMENT TYPE 1: A51 / ASM51 Assembler
  C:\PROGRAM FILES\CYPRESS\PSOC CREATOR\4.2\PSOC CREATOR\IMPORT\KEIL\PK51\9.51\C51\LIB\C51L.LIB (?C?CCASE)
         COMMENT TYPE 1: A51 / ASM51 Assembler
  C:\PROGRAM FILES\CYPRESS\PSOC CREATOR\4.2\PSOC CREATOR\IMPORT\KEIL\PK51\9.51\C51\LIB\C51L.LIB (?C_XBP)
         COMMENT TYPE 1: A51 / ASM51 Assembler
  C:\PROGRAM FILES\CYPRESS\PSOC CREATOR\4.2\PSOC CREATOR\IMPORT\KEIL\PK51\9.51\C51\LIB\C51L.LIB (?C?ADDXBP)
         COMMENT TYPE 1: A51 / ASM51 Assembler
  C:\PROGRAM FILES\CYPRESS\PSOC CREATOR\4.2\PSOC CREATOR\IMPORT\KEIL\PK51\9.51\C51\LIB\C51L.LIB (?C?LIMUL)
         COMMENT TYPE 1: A51 / ASM51 Assembler
  C:\PROGRAM FILES\CYPRESS\PSOC CREATOR\4.2\PSOC CREATOR\IMPORT\KEIL\PK51\9.51\C51\LIB\C51L.LIB (?C?LLDIDATA)
         COMMENT TYPE 1: A51 / ASM51 Assembler
  C:\PROGRAM FILES\CYPRESS\PSOC CREATOR\4.2\PSOC CREATOR\IMPORT\KEIL\PK51\9.51\C51\LIB\C51L.LIB (?C?LLDPDATA)
         COMMENT TYPE 1: A51 / ASM51 Assembler
  C:\PROGRAM FILES\CYPRESS\PSOC CREATOR\4.2\PSOC CREATOR\IMPORT\KEIL\PK51\9.51\C51\LIB\C51L.LIB (?C?LLDCODE)
         COMMENT TYPE 1: A51 / ASM51 Assembler
  C:\PROGRAM FILES\CYPRESS\PSOC CREATOR\4.2\PSOC CREATOR\IMPORT\KEIL\PK51\9.51\C51\LIB\C51L.LIB (?C?LSTIDATA)
         COMMENT TYPE 1: A51 / ASM51 Assembler
  C:\PROGRAM FILES\CYPRESS\PSOC CREATOR\4.2\PSOC CREATOR\IMPORT\KEIL\PK51\9.51\C51\LIB\C51L.LIB (?C?LSTPDATA)
         COMMENT TYPE 1: A51 / ASM51 Assembler


ACTIVE MEMORY CLASSES OF MODULE:  .\DP8051\DP8051_Keil_951\Release\Lab01.omf (MAIN)

BASE        START       END         USED      MEMORY CLASS
==========================================================
X:000000H   X:000000H   X:001FFFH   000068H   XDATA
C:000000H   C:000000H   C:00FFFFH   000B20H   CODE
C:000000H   C:000000H   C:00FFFFH   00006DH   CONST
I:000000H   I:000000H   I:00007FH   00000DH   DATA
I:000000H   I:000000H   I:0000FFH   000001H   IDATA


MEMORY MAP OF MODULE:  .\DP8051\DP8051_Keil_951\Release\Lab01.omf (MAIN)


START     STOP      LENGTH    ALIGN  RELOC    MEMORY CLASS   SEGMENT NAME
=========================================================================

* * * * * * * * * * *   D A T A   M E M O R Y   * * * * * * * * * * * * *
000000H   000007H   000008H   ---    AT..     DATA           "REG BANK 0"
000008H   00000AH   000003H   BYTE   UNIT     DATA           _DATA_GROUP_
00000BH   00000CH   000002H   BYTE   UNIT     DATA           ?C?LIB_DATA
00000DH   00000DH   000001H   BYTE   UNIT     IDATA          ?STACK

* * * * * * * * * * *   C O D E   M E M O R Y   * * * * * * * * * * * * *
000000H   000019H   00001AH   ---    OFFS..   CODE           ?CO?KEILSTART?3
00001AH   0002FBH   0002E2H   BYTE   UNIT     CODE           ?C?LIB_CODE
0002FCH   000406H   00010BH   BYTE   UNIT     CODE           ?PR?CYFITTER_CFG?CYFITTER_CFG
000407H   0004FAH   0000F4H   BYTE   UNIT     CODE           ?PR?LCD_KHANAS_ISREADY?LCD_KHANAS
0004FBH   0005E7H   0000EDH   BYTE   UNIT     CODE           ?C_C51STARTUP
0005E8H   0006B4H   0000CDH   BYTE   UNIT     CODE           ?PR?CLOCKSETUP?CYFITTER_CFG
0006B5H   00075AH   0000A6H   BYTE   UNIT     CODE           ?PR?MAIN?MAIN
00075BH   0007D1H   000077H   BYTE   UNIT     CODE           ?PR?LCD_KHANAS_INIT?LCD_KHANAS
0007D2H   000836H   000065H   BYTE   UNIT     CODE           ?PR?_?CYDELAY?CYLIB
000837H   000877H   000041H   BYTE   UNIT     CODE           ?PR?_LCD_KHANAS_LOADCUSTOMFONTS?LCD_KHANAS_CUSTCHARS
000878H   0008B7H   000040H   BYTE   UNIT     CODE           ?PR?_LCD_KHANAS_WRDATNIB?LCD_KHANAS
0008B8H   0008F6H   00003FH   BYTE   UNIT     CODE           ?PR?_LCD_KHANAS_POSITION?LCD_KHANAS
0008F7H   000932H   00003CH   BYTE   UNIT     CODE           ?PR?_LCD_KHANAS_PRINTSTRING?LCD_KHANAS
LX51 LINKER/LOCATER V4.64.0.0                                                         10/24/2019  10:28:13  PAGE 3


000933H   000966H   000034H   BYTE   UNIT     CODE           ?PR?_CYCONFIGCPY?CYMEM
000967H   000996H   000030H   BYTE   UNIT     CODE           ?PR?CYINTINITVECTORS?CYLIB
000997H   000997H   000001H   ---    ---      **GAP**
000998H   0009C4H   00002DH   DWORD  UNIT     CODE           ?PR?CYDELAYUS?CYBOOTASMKEIL
0009C5H   0009F0H   00002CH   BYTE   UNIT     CODE           ?C_INITSEG
0009F1H   0009FFH   00000FH   BYTE   UNIT     CODE           ?PR?CYWRITE16?CYMEM
000A00H   000A3AH   00003BH   PAGE   UNIT     CODE           ?PR?CYDELAYCYCLES?CYBOOTASMKEIL
000A3BH   000A5DH   000023H   BYTE   UNIT     CODE           ?PR?_LCD_KHANAS_WRITEDATA?LCD_KHANAS
000A5EH   000A80H   000023H   BYTE   UNIT     CODE           ?PR?_LCD_KHANAS_WRITECONTROL?LCD_KHANAS
000A81H   000AA3H   000023H   BYTE   UNIT     CODE           ?PR?_LCD_KHANAS_WRCNTRLNIB?LCD_KHANAS
000AA4H   000AC0H   00001DH   BYTE   UNIT     CODE           ?PR?ANALOGSETDEFAULT?CYFITTER_CFG
000AC1H   000AD9H   000019H   BYTE   UNIT     CODE           ?PR?CYMEMZERO?CYMEM
000ADAH   000AECH   000013H   BYTE   UNIT     CODE           ?PR?LCD_KHANAS_START?LCD_KHANAS
000AEDH   000AF8H   00000CH   BYTE   UNIT     CODE           ?PR?LCD_KHANAS_ENABLE?LCD_KHANAS
000AF9H   000B04H   00000CH   BYTE   UNIT     CODE           ?PR?CYREAD8?CYMEM
000B05H   000B10H   00000CH   BYTE   UNIT     CODE           ?PR?CYWRITE8?CYMEM
000B11H   000B16H   000006H   BYTE   UNIT     CODE           ?CO?MAIN
000B17H   000B1AH   000004H   BYTE   UNIT     CODE           ?PR?_LCD_KHANAS_PUTCHAR?LCD_KHANAS
000B1BH   000B1DH   000003H   BYTE   UNIT     CODE           ?PR?_CYCLOCKSTARTUPERROR?CYFITTER_CFG
000B1EH   000B20H   000003H   BYTE   UNIT     CODE           ?PR?INTDEFAULTHANDLER?CYLIB
000B21H   000B60H   000040H   BYTE   UNIT     CONST          ?CO?LCD_KHANAS_CUSTCHARS
000B61H   000B8DH   00002DH   BYTE   UNIT     CONST          ?CO?CYFITTER_CFG

* * * * * * * * * * *  X D A T A   M E M O R Y  * * * * * * * * * * * * *
000000H   000042H   000043H   BYTE   UNIT     XDATA          ?XD?CYPM
000043H   000051H   00000FH   BYTE   UNIT     XDATA          ?XD?CYLIB
000052H   00005FH   00000EH   BYTE   UNIT     XDATA          _XDATA_GROUP_
000060H   000064H   000005H   BYTE   UNIT     XDATA          ?XD?CYFLASH
000065H   000066H   000002H   BYTE   UNIT     XDATA          ?XD?LCD_KHANAS
000067H   000067H   000001H   BYTE   UNIT     XDATA          ?XD?CYSPC

* * * * * * * * *   R E M O V E D     S E G M E N T S   * * * * * * * *
   *DEL*:           000014H   BYTE   UNIT     CODE           ?PR?_SETANALOGROUTINGPUMPS?CYFITTER_CFG
   *DEL*:           00000BH   BYTE   UNIT     CODE           ?PR?LCD_KHANAS_STOP?LCD_KHANAS
   *DEL*:           000021H   BYTE   UNIT     CODE           ?PR?_LCD_KHANAS_PRINTINT8?LCD_KHANAS
   *DEL*:           000001H   BYTE   UNIT     XDATA          ?XD?_LCD_KHANAS_PRINTINT8?LCD_KHANAS
   *DEL*:           00001BH   BYTE   UNIT     CODE           ?PR?_LCD_KHANAS_PRINTINT16?LCD_KHANAS
   *DEL*:           000002H   BYTE   UNIT     XDATA          ?XD?_LCD_KHANAS_PRINTINT16?LCD_KHANAS
   *DEL*:           00002AH   BYTE   UNIT     CODE           ?PR?_LCD_KHANAS_PRINTINT32?LCD_KHANAS
   *DEL*:           000005H   BYTE   UNIT     XDATA          ?XD?_LCD_KHANAS_PRINTINT32?LCD_KHANAS
   *DEL*:           0000A5H   BYTE   UNIT     CODE           ?PR?_LCD_KHANAS_PRINTU32NUMBER?LCD_KHANAS
   *DEL*:           000011H   BYTE   UNIT     XDATA          ?XD?_LCD_KHANAS_PRINTU32NUMBER?LCD_KHANAS
   *DEL*:           000010H   BYTE   UNIT     CONST          ?CO?LCD_KHANAS
   *DEL*:           00006EH   BYTE   UNIT     CODE           ?PR?_CYPLL_OUT_START?CYLIB
   *DEL*:           000004H   BYTE   UNIT     XDATA          ?XD?_CYPLL_OUT_START?CYLIB
   *DEL*:           000008H   BYTE   UNIT     CODE           ?PR?CYPLL_OUT_STOP?CYLIB
   *DEL*:           000036H   BYTE   UNIT     CODE           ?PR?_CYPLL_OUT_SETPQ?CYLIB
   *DEL*:           000010H   BYTE   UNIT     CODE           ?PR?_CYPLL_OUT_SETSOURCE?CYLIB
   *DEL*:           000053H   BYTE   UNIT     CODE           ?PR?_CYIMO_START?CYLIB
   *DEL*:           000003H   BYTE   UNIT     XDATA          ?XD?_CYIMO_START?CYLIB
   *DEL*:           00000FH   BYTE   UNIT     CODE           ?PR?CYIMO_STOP?CYLIB
   *DEL*:           000027H   BYTE   UNIT     CODE           ?PR?CYUSB_POWERONCHECK?CYLIB
   *DEL*:           0000A8H   BYTE   UNIT     CODE           ?PR?_CYIMO_SETTRIMVALUE?CYLIB
   *DEL*:           000001H   BYTE   UNIT     XDATA          ?XD?_CYIMO_SETTRIMVALUE?CYLIB
   *DEL*:           00010DH   BYTE   UNIT     CODE           ?PR?_CYIMO_SETFREQ?CYLIB
   *DEL*:           000003H   BYTE   UNIT     XDATA          ?XD?_CYIMO_SETFREQ?CYLIB
   *DEL*:           00002FH   BYTE   UNIT     CODE           ?PR?_CYIMO_SETSOURCE?CYLIB
   *DEL*:           000008H   BYTE   UNIT     CODE           ?PR?CYIMO_ENABLEDOUBLER?CYLIB
   *DEL*:           000008H   BYTE   UNIT     CODE           ?PR?CYIMO_DISABLEDOUBLER?CYLIB
   *DEL*:           00000DH   BYTE   UNIT     CODE           ?PR?_CYMASTERCLK_SETSOURCE?CYLIB
   *DEL*:           000006H   BYTE   UNIT     CODE           ?PR?_CYMASTERCLK_SETDIVIDER?CYLIB
   *DEL*:           000023H   BYTE   UNIT     CODE           ?PR?_CYBUSCLK_INTERNAL_SETDIVIDER?CYLIB
   *DEL*:           00007AH   BYTE   UNIT     CODE           ?PR?_CYBUSCLK_SETDIVIDER?CYLIB
   *DEL*:           000002H   BYTE   UNIT     XDATA          ?XD?_CYBUSCLK_SETDIVIDER?CYLIB
   *DEL*:           00000EH   BYTE   UNIT     CODE           ?PR?_CYCPUCLK_SETDIVIDER?CYLIB
LX51 LINKER/LOCATER V4.64.0.0                                                         10/24/2019  10:28:13  PAGE 4


   *DEL*:           00000DH   BYTE   UNIT     CODE           ?PR?_CYUSBCLK_SETSOURCE?CYLIB
   *DEL*:           000008H   BYTE   UNIT     CODE           ?PR?CYILO_START1K?CYLIB
   *DEL*:           000008H   BYTE   UNIT     CODE           ?PR?CYILO_STOP1K?CYLIB
   *DEL*:           000008H   BYTE   UNIT     CODE           ?PR?CYILO_START100K?CYLIB
   *DEL*:           000008H   BYTE   UNIT     CODE           ?PR?CYILO_STOP100K?CYLIB
   *DEL*:           000008H   BYTE   UNIT     CODE           ?PR?CYILO_ENABLE33K?CYLIB
   *DEL*:           000008H   BYTE   UNIT     CODE           ?PR?CYILO_DISABLE33K?CYLIB
   *DEL*:           000011H   BYTE   UNIT     CODE           ?PR?_CYILO_SETSOURCE?CYLIB
   *DEL*:           000029H   BYTE   UNIT     CODE           ?PR?_CYILO_SETPOWERMODE?CYLIB
   *DEL*:           00005AH   BYTE   UNIT     CODE           ?PR?CYXTAL_32KHZ_START?CYLIB
   *DEL*:           000002H   BYTE   UNIT     XDATA          ?XD?CYXTAL_32KHZ_START?CYLIB
   *DEL*:           000020H   BYTE   UNIT     CODE           ?PR?CYXTAL_32KHZ_STOP?CYLIB
   *DEL*:           000008H   BYTE   UNIT     CODE           ?PR?CYXTAL_32KHZ_READSTATUS?CYLIB
   *DEL*:           000066H   BYTE   UNIT     CODE           ?PR?_CYXTAL_32KHZ_SETPOWERMODE?CYLIB
   *DEL*:           000001H   BYTE   UNIT     XDATA          ?XD?_CYXTAL_32KHZ_SETPOWERMODE?CYLIB
   *DEL*:           0000A0H   BYTE   UNIT     CODE           ?PR?_CYXTAL_START?CYLIB
   *DEL*:           000006H   BYTE   UNIT     XDATA          ?XD?_CYXTAL_START?CYLIB
   *DEL*:           000008H   BYTE   UNIT     CODE           ?PR?CYXTAL_STOP?CYLIB
   *DEL*:           000008H   BYTE   UNIT     CODE           ?PR?CYXTAL_ENABLEERRSTATUS?CYLIB
   *DEL*:           000008H   BYTE   UNIT     CODE           ?PR?CYXTAL_DISABLEERRSTATUS?CYLIB
   *DEL*:           00000FH   BYTE   UNIT     CODE           ?PR?CYXTAL_READSTATUS?CYLIB
   *DEL*:           000008H   BYTE   UNIT     CODE           ?PR?CYXTAL_ENABLEFAULTRECOVERY?CYLIB
   *DEL*:           000008H   BYTE   UNIT     CODE           ?PR?CYXTAL_DISABLEFAULTRECOVERY?CYLIB
   *DEL*:           00000DH   BYTE   UNIT     CODE           ?PR?_CYXTAL_SETSTARTUP?CYLIB
   *DEL*:           00000DH   BYTE   UNIT     CODE           ?PR?_CYXTAL_SETFBVOLTAGE?CYLIB
   *DEL*:           00000EH   BYTE   UNIT     CODE           ?PR?_CYXTAL_SETWDVOLTAGE?CYLIB
   *DEL*:           000015H   BYTE   UNIT     CODE           ?PR?_?CYHALT?CYLIB
   *DEL*:           000008H   BYTE   UNIT     CODE           ?PR?CYSOFTWARERESET?CYLIB
   *DEL*:           000098H   BYTE   UNIT     CODE           ?PR?_?CYDELAYFREQ?CYLIB
   *DEL*:           000026H   BYTE   UNIT     CODE           ?PR?_CYWDTSTART?CYLIB
   *DEL*:           000007H   BYTE   UNIT     CODE           ?PR?CYWDTCLEAR?CYLIB
   *DEL*:           000081H   BYTE   UNIT     CODE           ?PR?_CYVDLVDIGITENABLE?CYLIB
   *DEL*:           000007H   BYTE   UNIT     XDATA          ?XD?_CYVDLVDIGITENABLE?CYLIB
   *DEL*:           000080H   BYTE   UNIT     CODE           ?PR?_CYVDLVANALOGENABLE?CYLIB
   *DEL*:           000007H   BYTE   UNIT     XDATA          ?XD?_CYVDLVANALOGENABLE?CYLIB
   *DEL*:           00001DH   BYTE   UNIT     CODE           ?PR?CYVDLVDIGITDISABLE?CYLIB
   *DEL*:           000018H   BYTE   UNIT     CODE           ?PR?CYVDLVANALOGDISABLE?CYLIB
   *DEL*:           000053H   BYTE   UNIT     CODE           ?PR?CYVDHVANALOGENABLE?CYLIB
   *DEL*:           000005H   BYTE   UNIT     XDATA          ?XD?CYVDHVANALOGENABLE?CYLIB
   *DEL*:           000011H   BYTE   UNIT     CODE           ?PR?CYVDHVANALOGDISABLE?CYLIB
   *DEL*:           000039H   BYTE   UNIT     CODE           ?PR?_CYVDSTICKYSTATUS?CYLIB
   *DEL*:           000002H   BYTE   UNIT     XDATA          ?XD?_CYVDSTICKYSTATUS?CYLIB
   *DEL*:           000018H   BYTE   UNIT     CODE           ?PR?CYVDREALTIMESTATUS?CYLIB
   *DEL*:           000001H   BYTE   UNIT     XDATA          ?XD?CYVDREALTIMESTATUS?CYLIB
   *DEL*:           000095H   BYTE   UNIT     CODE           ?PR?CYDISABLEINTS?CYLIB
   *DEL*:           000005H   BYTE   UNIT     XDATA          ?XD?CYDISABLEINTS?CYLIB
   *DEL*:           00004CH   BYTE   UNIT     CODE           ?PR?_CYENABLEINTS?CYLIB
   *DEL*:           000004H   BYTE   UNIT     XDATA          ?XD?_CYENABLEINTS?CYLIB
   *DEL*:           000054H   BYTE   UNIT     CODE           ?PR?_CYINTSETVECTOR?CYLIB
   *DEL*:           000005H   BYTE   UNIT     XDATA          ?XD?_CYINTSETVECTOR?CYLIB
   *DEL*:           000018H   BYTE   UNIT     CODE           ?PR?_CYINTGETVECTOR?CYLIB
   *DEL*:           000019H   BYTE   UNIT     CODE           ?PR?_CYINTSETPRIORITY?CYLIB
   *DEL*:           000014H   BYTE   UNIT     CODE           ?PR?_CYINTGETPRIORITY?CYLIB
   *DEL*:           000036H   BYTE   UNIT     CODE           ?PR?_CYINTGETSTATE?CYLIB
   *DEL*:           0001EDH   BYTE   UNIT     CODE           ?PR?_CYGETUNIQUEID?CYLIB
   *DEL*:           000003H   BYTE   UNIT     XDATA          ?XD?_CYGETUNIQUEID?CYLIB
   *DEL*:           000015H   BYTE   UNIT     CODE           ?PR?CYENTERCRITICALSECTION?CYBOOTASMKEIL
   *DEL*:           000018H   BYTE   UNIT     CODE           ?PR?CYEXITCRITICALSECTION?CYBOOTASMKEIL
   *DEL*:           000004H   BYTE   UNIT     CODE           ?PR?_CyDelay?CYBOOTASMKEIL
   *DEL*:           000026H   BYTE   UNIT     CODE           ?PR?CYCONFIGCPYCODE?CYMEM
   *DEL*:           00002DH   BYTE   UNIT     CODE           ?PR?CFG_WRITE_BYTES?CYMEM
   *DEL*:           00002EH   BYTE   UNIT     CODE           ?PR?CY_WRITE_BYTES_CODE?CYMEM
   *DEL*:           00000FH   BYTE   UNIT     CODE           ?PR?CYREAD16?CYMEM
   *DEL*:           000013H   BYTE   UNIT     CODE           ?PR?CYREAD24?CYMEM
   *DEL*:           000012H   BYTE   UNIT     CODE           ?PR?CYWRITE24?CYMEM
LX51 LINKER/LOCATER V4.64.0.0                                                         10/24/2019  10:28:13  PAGE 5


   *DEL*:           000015H   BYTE   UNIT     CODE           ?PR?CYREAD32?CYMEM
   *DEL*:           000015H   BYTE   UNIT     CODE           ?PR?CYWRITE32?CYMEM
   *DEL*:           0001A9H   BYTE   UNIT     CODE           ?PR?CYPMSAVECLOCKS?CYPM
   *DEL*:           000244H   BYTE   UNIT     CODE           ?PR?CYPMRESTORECLOCKS?CYPM
   *DEL*:           000003H   BYTE   UNIT     XDATA          ?XD?CYPMRESTORECLOCKS?CYPM
   *DEL*:           0000E0H   BYTE   UNIT     CODE           ?PR?_CYPMALTACT?CYPM
   *DEL*:           000004H   BYTE   UNIT     XDATA          ?XD?_CYPMALTACT?CYPM
   *DEL*:           000160H   BYTE   UNIT     CODE           ?PR?_CYPMSLEEP?CYPM
   *DEL*:           000004H   BYTE   UNIT     XDATA          ?XD?_CYPMSLEEP?CYPM
   *DEL*:           000008H   BYTE   UNIT     CODE           ?PR?CYPMHIBERNATE?CYPM
   *DEL*:           0000D6H   BYTE   UNIT     CODE           ?PR?_CYPMHIBERNATEEX?CYPM
   *DEL*:           000003H   BYTE   UNIT     XDATA          ?XD?_CYPMHIBERNATEEX?CYPM
   *DEL*:           000039H   BYTE   UNIT     CODE           ?PR?_CYPMREADSTATUS?CYPM
   *DEL*:           000002H   BYTE   UNIT     XDATA          ?XD?_CYPMREADSTATUS?CYPM
   *DEL*:           000076H   BYTE   UNIT     CODE           ?PR?CYPMHIBSAVESET?CYPM
   *DEL*:           000040H   BYTE   UNIT     CODE           ?PR?CYPMHIBRESTORE?CYPM
   *DEL*:           000049H   BYTE   UNIT     CODE           ?PR?_CYPMCTWSETINTERVAL?CYPM
   *DEL*:           000001H   BYTE   UNIT     XDATA          ?XD?_CYPMCTWSETINTERVAL?CYPM
   *DEL*:           000017H   BYTE   UNIT     CODE           ?PR?CYPMOPPSSET?CYPM
   *DEL*:           00004DH   BYTE   UNIT     CODE           ?PR?_CYPMFTWSETINTERVAL?CYPM
   *DEL*:           000001H   BYTE   UNIT     XDATA          ?XD?_CYPMFTWSETINTERVAL?CYPM
   *DEL*:           00018CH   BYTE   UNIT     CODE           ?PR?CYPMHIBSLPSAVESET?CYPM
   *DEL*:           00010DH   BYTE   UNIT     CODE           ?PR?CYPMHIBSLPRESTORE?CYPM
   *DEL*:           000082H   BYTE   UNIT     CODE           ?PR?CYPMHVILVISAVEDISABLE?CYPM
   *DEL*:           000033H   BYTE   UNIT     CODE           ?PR?CYPMHVILVIRESTORE?CYPM
   *DEL*:           00000EH   BYTE   UNIT     CONST          ?CO?CYPM
   *DEL*:           000031H   BYTE   UNIT     CODE           ?PR?CYFLASH_START?CYFLASH
   *DEL*:           000015H   BYTE   UNIT     CODE           ?PR?CYFLASH_STOP?CYFLASH
   *DEL*:           0000AFH   BYTE   UNIT     CODE           ?PR?_CYFLASH_ERASEROW?CYFLASH
   *DEL*:           000004H   BYTE   UNIT     XDATA          ?XD?_CYFLASH_ERASEROW?CYFLASH
   *DEL*:           000056H   BYTE   UNIT     CODE           ?PR?CYSETTEMPINT?CYFLASH
   *DEL*:           000001H   BYTE   UNIT     XDATA          ?XD?CYSETTEMPINT?CYFLASH
   *DEL*:           000050H   BYTE   UNIT     CODE           ?PR?CYFLASHGETSPCALGORITHM?CYFLASH
   *DEL*:           000001H   BYTE   UNIT     XDATA          ?XD?CYFLASHGETSPCALGORITHM?CYFLASH
   *DEL*:           000018H   BYTE   UNIT     CODE           ?PR?CYSETTEMP?CYFLASH
   *DEL*:           000001H   BYTE   UNIT     XDATA          ?XD?CYSETTEMP?CYFLASH
   *DEL*:           00005CH   BYTE   UNIT     CODE           ?PR?_CYSETFLASHEEBUFFER?CYFLASH
   *DEL*:           000004H   BYTE   UNIT     XDATA          ?XD?_CYSETFLASHEEBUFFER?CYFLASH
   *DEL*:           000034H   BYTE   UNIT     CODE           ?PR?_CYWRITEROWDATA?CYFLASH
   *DEL*:           000003H   BYTE   UNIT     XDATA          ?XD?_CYWRITEROWDATA?CYFLASH
   *DEL*:           000185H   BYTE   UNIT     CODE           ?PR?_CYWRITEROWFULL?CYFLASH
   *DEL*:           000009H   BYTE   UNIT     XDATA          ?XD?_CYWRITEROWFULL?CYFLASH
   *DEL*:           000044H   BYTE   UNIT     CODE           ?PR?_CYFLASH_SETWAITCYCLES?CYFLASH
   *DEL*:           000001H   BYTE   UNIT     XDATA          ?XD?_CYFLASH_SETWAITCYCLES?CYFLASH
   *DEL*:           000031H   BYTE   UNIT     CODE           ?PR?CYEEPROM_START?CYFLASH
   *DEL*:           000015H   BYTE   UNIT     CODE           ?PR?CYEEPROM_STOP?CYFLASH
   *DEL*:           000010H   BYTE   UNIT     CODE           ?PR?CYEEPROM_READRESERVE?CYFLASH
   *DEL*:           000008H   BYTE   UNIT     CODE           ?PR?CYEEPROM_READRELEASE?CYFLASH
   *DEL*:           000015H   BYTE   UNIT     CODE           ?PR?CYSPCSTART?CYSPC
   *DEL*:           000015H   BYTE   UNIT     CODE           ?PR?CYSPCSTOP?CYSPC
   *DEL*:           000056H   BYTE   UNIT     CODE           ?PR?_CYSPCREADDATA?CYSPC
   *DEL*:           000005H   BYTE   UNIT     XDATA          ?XD?_CYSPCREADDATA?CYSPC
   *DEL*:           00009FH   BYTE   UNIT     CODE           ?PR?_CYSPCLOADMULTIBYTE?CYSPC
   *DEL*:           000007H   BYTE   UNIT     XDATA          ?XD?_CYSPCLOADMULTIBYTE?CYSPC
   *DEL*:           00006BH   BYTE   UNIT     CODE           ?PR?_CYSPCLOADROW?CYSPC
   *DEL*:           000007H   BYTE   UNIT     XDATA          ?XD?_CYSPCLOADROW?CYSPC
   *DEL*:           00011CH   BYTE   UNIT     CODE           ?PR?_CYSPCLOADROWFULL?CYSPC
   *DEL*:           00000FH   BYTE   UNIT     XDATA          ?XD?_CYSPCLOADROWFULL?CYSPC
   *DEL*:           000054H   BYTE   UNIT     CODE           ?PR?_CYSPCWRITEROW?CYSPC
   *DEL*:           000005H   BYTE   UNIT     XDATA          ?XD?_CYSPCWRITEROW?CYSPC
   *DEL*:           000030H   BYTE   UNIT     CODE           ?PR?_CYSPCERASESECTOR?CYSPC
   *DEL*:           000054H   BYTE   UNIT     CODE           ?PR?_CYSPCERASEROW?CYSPC
   *DEL*:           000005H   BYTE   UNIT     XDATA          ?XD?_CYSPCERASEROW?CYSPC
   *DEL*:           00002EH   BYTE   UNIT     CODE           ?PR?_CYSPCGETTEMP?CYSPC
   *DEL*:           00001FH   BYTE   UNIT     CODE           ?PR?CYSPCLOCK?CYSPC
LX51 LINKER/LOCATER V4.64.0.0                                                         10/24/2019  10:28:13  PAGE 6


   *DEL*:           000001H   BYTE   UNIT     XDATA          ?XD?CYSPCLOCK?CYSPC
   *DEL*:           00000CH   BYTE   UNIT     CODE           ?PR?CYSPCUNLOCK?CYSPC
   *DEL*:           00001BH   BYTE   UNIT     CODE           ?PR?CYSPCGETALGORITHM?CYSPC



OVERLAY MAP OF MODULE:   .\DP8051\DP8051_Keil_951\Release\Lab01.omf (MAIN)


FUNCTION/MODULE                               DATA_GROUP   XDATA_GROUP
--> CALLED FUNCTION/MODULE                    START  STOP  START  STOP
======================================================================
INTDEFAULTHANDLER/CYLIB                       ----- -----  ----- -----

*** NEW ROOT ********************************

?C_C51STARTUP                                 ----- -----  ----- -----
  +--> ?CO?KEILSTART?3
  +--> CYINTINITVECTORS/CYLIB
  +--> CYFITTER_CFG/CYFITTER_CFG
  +--> MAIN/MAIN
  +--> ?C_INITSEG

?CO?KEILSTART?3                               ----- -----  ----- -----

CYINTINITVECTORS/CYLIB                        ----- -----  0052H 0052H
  +--> CYWRITE16/CYMEM

CYWRITE16/CYMEM                               ----- -----  ----- -----

CYFITTER_CFG/CYFITTER_CFG                     0008H 000AH  ----- -----
  +--> CYREAD8/CYMEM
  +--> CYWRITE8/CYMEM
  +--> ?CO?CYFITTER_CFG
  +--> CYMEMZERO/CYMEM
  +--> _CYCONFIGCPY/CYMEM
  +--> CLOCKSETUP/CYFITTER_CFG
  +--> ANALOGSETDEFAULT/CYFITTER_CFG

CYREAD8/CYMEM                                 ----- -----  ----- -----

CYWRITE8/CYMEM                                ----- -----  ----- -----

?CO?CYFITTER_CFG                              ----- -----  ----- -----

CYMEMZERO/CYMEM                               ----- -----  ----- -----

_CYCONFIGCPY/CYMEM                            ----- -----  0052H 0059H

CLOCKSETUP/CYFITTER_CFG                       ----- -----  0052H 0056H
  +--> CYREAD8/CYMEM
  +--> CYWRITE16/CYMEM
  +--> CYDELAYCYCLES/CYBOOTASMKEIL
  +--> _CYCLOCKSTARTUPERROR/CYFITTER_CFG

CYDELAYCYCLES/CYBOOTASMKEIL                   ----- -----  ----- -----

_CYCLOCKSTARTUPERROR/CYFITTER_CFG             ----- -----  ----- -----

ANALOGSETDEFAULT/CYFITTER_CFG                 ----- -----  ----- -----
  +--> CYREAD8/CYMEM

MAIN/MAIN                                     ----- -----  0052H 0053H
  +--> LCD_KHANAS_START/LCD_KHANAS
  +--> ?CO?LCD_KHANAS_CUSTCHARS
LX51 LINKER/LOCATER V4.64.0.0                                                         10/24/2019  10:28:13  PAGE 7


  +--> _LCD_KHANAS_LOADCUSTOMFONTS/LCD_KHANAS_CUSTCHARS
  +--> _LCD_KHANAS_POSITION/LCD_KHANAS
  +--> _LCD_KHANAS_PUTCHAR/LCD_KHANAS
  +--> _?CYDELAY/CYLIB
  +--> ?CO?MAIN
  +--> _LCD_KHANAS_PRINTSTRING/LCD_KHANAS

LCD_KHANAS_START/LCD_KHANAS                   ----- -----  ----- -----
  +--> LCD_KHANAS_INIT/LCD_KHANAS
  +--> LCD_KHANAS_ENABLE/LCD_KHANAS

LCD_KHANAS_INIT/LCD_KHANAS                    ----- -----  ----- -----
  +--> _?CYDELAY/CYLIB
  +--> _LCD_KHANAS_WRCNTRLNIB/LCD_KHANAS
  +--> _LCD_KHANAS_WRITECONTROL/LCD_KHANAS
  +--> ?CO?LCD_KHANAS_CUSTCHARS
  +--> _LCD_KHANAS_LOADCUSTOMFONTS/LCD_KHANAS_CUSTCHARS

_?CYDELAY/CYLIB                               ----- -----  ----- -----
  +--> CYDELAYCYCLES/CYBOOTASMKEIL

_LCD_KHANAS_WRCNTRLNIB/LCD_KHANAS             ----- -----  ----- -----
  +--> CYDELAYUS/CYBOOTASMKEIL

CYDELAYUS/CYBOOTASMKEIL                       ----- -----  ----- -----
  +--> CYDELAYCYCLES/CYBOOTASMKEIL

_LCD_KHANAS_WRITECONTROL/LCD_KHANAS           ----- -----  0058H 0059H
  +--> LCD_KHANAS_ISREADY/LCD_KHANAS
  +--> _LCD_KHANAS_WRCNTRLNIB/LCD_KHANAS

LCD_KHANAS_ISREADY/LCD_KHANAS                 ----- -----  005BH 005FH
  +--> CYDELAYUS/CYBOOTASMKEIL

?CO?LCD_KHANAS_CUSTCHARS                      ----- -----  ----- -----

_LCD_KHANAS_LOADCUSTOMFONTS/LCD_KHANAS_C+     ----- -----  0054H 0057H
... USTCHARS
  +--> LCD_KHANAS_ISREADY/LCD_KHANAS
  +--> _LCD_KHANAS_WRITECONTROL/LCD_KHANAS
  +--> _LCD_KHANAS_WRITEDATA/LCD_KHANAS

_LCD_KHANAS_WRITEDATA/LCD_KHANAS              ----- -----  0059H 005AH
  +--> LCD_KHANAS_ISREADY/LCD_KHANAS
  +--> _LCD_KHANAS_WRDATNIB/LCD_KHANAS

_LCD_KHANAS_WRDATNIB/LCD_KHANAS               ----- -----  005BH 005BH
  +--> CYDELAYUS/CYBOOTASMKEIL

LCD_KHANAS_ENABLE/LCD_KHANAS                  ----- -----  ----- -----
  +--> _LCD_KHANAS_WRITECONTROL/LCD_KHANAS

_LCD_KHANAS_POSITION/LCD_KHANAS               ----- -----  0054H 0054H
  +--> _LCD_KHANAS_WRITECONTROL/LCD_KHANAS

_LCD_KHANAS_PUTCHAR/LCD_KHANAS                ----- -----  ----- -----
  +--> _LCD_KHANAS_WRITEDATA/LCD_KHANAS

?CO?MAIN                                      ----- -----  ----- -----

_LCD_KHANAS_PRINTSTRING/LCD_KHANAS            ----- -----  0054H 0058H
  +--> _LCD_KHANAS_WRITEDATA/LCD_KHANAS

?C_INITSEG                                    ----- -----  ----- -----

LX51 LINKER/LOCATER V4.64.0.0                                                         10/24/2019  10:28:13  PAGE 8




PUBLIC SYMBOLS OF MODULE:  .\DP8051\DP8051_Keil_951\Release\Lab01.omf (MAIN)


      VALUE       CLASS    TYPE      PUBLIC SYMBOL NAME
      =================================================
      02000052H   XDATA    BYTE      ?_cyconfigcpy?BYTE
*DEL*:00000000H   XDATA    BYTE      ?_CySpcEraseRow?BYTE
*DEL*:00000000H   XDATA    BYTE      ?_CySpcLoadMultiByte?BYTE
*DEL*:00000000H   XDATA    BYTE      ?_CySpcLoadRow?BYTE
*DEL*:00000000H   XDATA    BYTE      ?_CySpcLoadRowFull?BYTE
*DEL*:00000000H   XDATA    BYTE      ?_CySpcWriteRow?BYTE
*DEL*:00000000H   XDATA    BYTE      ?_CyWriteRowFull?BYTE
      0100026BH   CODE     ---       ?C?ADDXBP
      01000245H   CODE     ---       ?C?CCASE
      0100001AH   CODE     ---       ?C?CLDPTR
      00000000H   NUMBER   ---       ?C?CODESEG
      01000033H   CODE     ---       ?C?CSTPTR
      01000045H   CODE     ---       ?C?IILDX
      0100005BH   CODE     ---       ?C?LADD
      0100028FH   CODE     ---       ?C?LIMUL
      010002D4H   CODE     ---       ?C?LLDCODE
      010002BCH   CODE     ---       ?C?LLDIDATA
      010002C8H   CODE     ---       ?C?LLDPDATA
      010001C9H   CODE     ---       ?C?LLDPTR
      01000203H   CODE     ---       ?C?LLDXDATA
      0100020FH   CODE     ---       ?C?LLDXDATA0
      01000068H   CODE     ---       ?C?LMUL
      01000185H   CODE     ---       ?C?LOR
      010001B6H   CODE     ---       ?C?LSHL
      010002E4H   CODE     ---       ?C?LSTIDATA
      010002F0H   CODE     ---       ?C?LSTPDATA
      010001E9H   CODE     ---       ?C?LSTPTR
      0100021BH   CODE     ---       ?C?LSTXDATA
      01000239H   CODE     ---       ?C?PLDCODE
      01000227H   CODE     ---       ?C?PLDXDATA
      01000230H   CODE     ---       ?C?PSTXDATA
      01000192H   CODE     ---       ?C?ULCMP
      010000F3H   CODE     ---       ?C?ULDIV
      010001A3H   CODE     ---       ?C?ULSHR
      00000000H   NUMBER   ---       ?C?XDATASEG
      00000000H   NUMBER   ---       ?C?XPAGE1RST
      00000093H   DATA     BYTE      ?C?XPAGE1SFR
      010005A3H   CODE     ---       ?C_START
      01000000H   CODE     NEAR LAB  ?C_STARTUP
      0000000BH   DATA     ---       ?C_XBP
      010007D2H   CODE     ---       _?CyDelay
*DEL*:00000000H   CODE     ---       _?CyDelayFreq
*DEL*:00000000H   CODE     ---       _?CyHalt
*DEL*:00000000H   CODE     NEAR LAB  _cfg_write_bytes
*DEL*:00000000H   CODE     NEAR LAB  _cfg_write_bytes_code
*DEL*:00000000H   CODE     ---       _CyBusClk_SetDivider
      01000933H   CODE     NEAR LAB  _cyconfigcpy
*DEL*:00000000H   CODE     NEAR LAB  _cyconfigcpycode
*DEL*:00000000H   CODE     ---       _CyCpuClk_SetDivider
*DEL*:00000000H   CODE     NEAR LAB  _CyDelay
      01000A00H   CODE     NEAR LAB  _CyDelayCycles
      01000998H   CODE     NEAR LAB  _CyDelayUs
*DEL*:00000000H   CODE     ---       _CyEnableInts
*DEL*:00000000H   CODE     NEAR LAB  _CyExitCriticalSection
*DEL*:00000000H   CODE     ---       _CyFlash_EraseRow
*DEL*:00000000H   CODE     ---       _CyFlash_SetWaitCycles
*DEL*:00000000H   CODE     ---       _CyGetUniqueId
*DEL*:00000000H   CODE     ---       _CyILO_SetPowerMode
LX51 LINKER/LOCATER V4.64.0.0                                                         10/24/2019  10:28:13  PAGE 9


*DEL*:00000000H   CODE     ---       _CyILO_SetSource
*DEL*:00000000H   CODE     ---       _CyIMO_SetFreq
*DEL*:00000000H   CODE     ---       _CyIMO_SetSource
*DEL*:00000000H   CODE     ---       _CyIMO_Start
*DEL*:00000000H   CODE     ---       _CyIntGetPriority
*DEL*:00000000H   CODE     ---       _CyIntGetState
*DEL*:00000000H   CODE     ---       _CyIntGetVector
*DEL*:00000000H   CODE     ---       _CyIntSetPriority
*DEL*:00000000H   CODE     ---       _CyIntSetVector
*DEL*:00000000H   CODE     ---       _CyMasterClk_SetDivider
*DEL*:00000000H   CODE     ---       _CyMasterClk_SetSource
      01000AC1H   CODE     NEAR LAB  _cymemzero
*DEL*:00000000H   CODE     ---       _CyPLL_OUT_SetPQ
*DEL*:00000000H   CODE     ---       _CyPLL_OUT_SetSource
*DEL*:00000000H   CODE     ---       _CyPLL_OUT_Start
*DEL*:00000000H   CODE     ---       _CyPmAltAct
*DEL*:00000000H   CODE     ---       _CyPmCtwSetInterval
*DEL*:00000000H   CODE     ---       _CyPmFtwSetInterval
*DEL*:00000000H   CODE     ---       _CyPmHibernateEx
*DEL*:00000000H   CODE     ---       _CyPmReadStatus
*DEL*:00000000H   CODE     ---       _CyPmSleep
*DEL*:00000000H   CODE     NEAR LAB  _cyread16
*DEL*:00000002H   CODE     NEAR LAB  _cyread16_nodpx
*DEL*:00000000H   CODE     NEAR LAB  _cyread24
*DEL*:00000002H   CODE     NEAR LAB  _cyread24_nodpx
*DEL*:00000000H   CODE     NEAR LAB  _cyread32
*DEL*:00000002H   CODE     NEAR LAB  _cyread32_nodpx
      01000AF9H   CODE     NEAR LAB  _cyread8
      01000AFBH   CODE     NEAR LAB  _cyread8_nodpx
*DEL*:00000000H   CODE     ---       _CySetFlashEEBuffer
*DEL*:00000000H   CODE     ---       _CySpcEraseRow
*DEL*:00000000H   CODE     ---       _CySpcEraseSector
*DEL*:00000000H   CODE     ---       _CySpcGetTemp
*DEL*:00000000H   CODE     ---       _CySpcLoadMultiByte
*DEL*:00000000H   CODE     ---       _CySpcLoadRow
*DEL*:00000000H   CODE     ---       _CySpcLoadRowFull
*DEL*:00000000H   CODE     ---       _CySpcReadData
*DEL*:00000000H   CODE     ---       _CySpcWriteRow
*DEL*:00000000H   CODE     ---       _CyUsbClk_SetSource
*DEL*:00000000H   CODE     ---       _CyVdLvAnalogEnable
*DEL*:00000000H   CODE     ---       _CyVdLvDigitEnable
*DEL*:00000000H   CODE     ---       _CyVdStickyStatus
*DEL*:00000000H   CODE     ---       _CyWdtStart
      010009F1H   CODE     NEAR LAB  _cywrite16
      010009F3H   CODE     NEAR LAB  _cywrite16_nodpx
*DEL*:00000000H   CODE     NEAR LAB  _cywrite24
*DEL*:00000002H   CODE     NEAR LAB  _cywrite24_nodpx
*DEL*:00000000H   CODE     NEAR LAB  _cywrite32
*DEL*:00000002H   CODE     NEAR LAB  _cywrite32_nodpx
      01000B05H   CODE     NEAR LAB  _cywrite8
      01000B07H   CODE     NEAR LAB  _cywrite8_nodpx
*DEL*:00000000H   CODE     ---       _CyWriteRowData
*DEL*:00000000H   CODE     ---       _CyWriteRowFull
*DEL*:00000000H   CODE     ---       _CyXTAL_32KHZ_SetPowerMode
*DEL*:00000000H   CODE     ---       _CyXTAL_SetFbVoltage
*DEL*:00000000H   CODE     ---       _CyXTAL_SetStartup
*DEL*:00000000H   CODE     ---       _CyXTAL_SetWdVoltage
*DEL*:00000000H   CODE     ---       _CyXTAL_Start
      01000004H   CODE     NEAR LAB  _dma_wait
      01000837H   CODE     ---       _LCD_Khanas_LoadCustomFonts
      010008B8H   CODE     ---       _LCD_Khanas_Position
*DEL*:00000000H   CODE     ---       _LCD_Khanas_PrintInt16
*DEL*:00000000H   CODE     ---       _LCD_Khanas_PrintInt32
*DEL*:00000000H   CODE     ---       _LCD_Khanas_PrintInt8
      010008F7H   CODE     ---       _LCD_Khanas_PrintString
LX51 LINKER/LOCATER V4.64.0.0                                                         10/24/2019  10:28:13  PAGE 10


*DEL*:00000000H   CODE     ---       _LCD_Khanas_PrintU32Number
      01000B17H   CODE     ---       _LCD_Khanas_PutChar
      01000A5EH   CODE     ---       _LCD_Khanas_WriteControl
      01000A3BH   CODE     ---       _LCD_Khanas_WriteData
*DEL*:00000000H   CODE     ---       _SetAnalogRoutingPumps
*SFR* 000000D0H.6 DATA     BIT       AC
*SFR* 000000E0H   DATA     BYTE      ACC
*SFR* 000000F0H   DATA     BYTE      B
*SFR* 000000D0H.7 DATA     BIT       CY
      0200004EH   XDATA    DWORD     cydelay_32k_ms
      02000049H   XDATA    DWORD     cydelay_freq_hz
      02000044H   XDATA    DWORD     cydelay_freq_khz
      02000048H   XDATA    BYTE      cydelay_freq_mhz
*DEL*:00000000H   CODE     ---       CyDisableInts
*DEL*:00000000H   CODE     ---       CyEEPROM_ReadRelease
*DEL*:00000000H   CODE     ---       CyEEPROM_ReadReserve
*DEL*:00000000H   CODE     ---       CyEEPROM_Start
*DEL*:00000000H   CODE     ---       CyEEPROM_Stop
*DEL*:00000000H   CODE     NEAR LAB  CyEnterCriticalSection
      010002FCH   CODE     ---       cyfitter_cfg
*DEL*:00000000H   CODE     ---       CyFlash_Start
*DEL*:00000000H   CODE     ---       CyFlash_Stop
*DEL*:00000000H   CODE     ---       CyFlashGetSpcAlgorithm
*DEL*:00000000H   CODE     ---       CyILO_Disable33K
*DEL*:00000000H   CODE     ---       CyILO_Enable33K
*DEL*:00000000H   CODE     ---       CyILO_Start100K
*DEL*:00000000H   CODE     ---       CyILO_Start1K
*DEL*:00000000H   CODE     ---       CyILO_Stop100K
*DEL*:00000000H   CODE     ---       CyILO_Stop1K
*DEL*:00000000H   CODE     ---       CyIMO_DisableDoubler
*DEL*:00000000H   CODE     ---       CyIMO_EnableDoubler
*DEL*:00000000H   CODE     ---       CyIMO_Stop
      01000967H   CODE     ---       CyIntInitVectors
*DEL*:00000000H   CODE     ---       CyPLL_OUT_Stop
*DEL*:00000000H   CODE     ---       CyPmHibernate
*DEL*:00000000H   CODE     ---       CyPmOppsSet
*DEL*:00000000H   CODE     ---       CyPmRestoreClocks
*DEL*:00000000H   CODE     ---       CyPmSaveClocks
      0200004DH   XDATA    BYTE      CyResetStatus
*DEL*:00000000H   CODE     ---       CySetTemp
*DEL*:00000000H   CODE     ---       CySoftwareReset
*DEL*:00000000H   CODE     ---       CySpcGetAlgorithm
*DEL*:00000000H   CODE     ---       CySpcLock
*DEL*:00000000H   CODE     ---       CySpcStart
*DEL*:00000000H   CODE     ---       CySpcStop
*DEL*:00000000H   CODE     ---       CySpcUnlock
*DEL*:00000000H   CODE     ---       CyVdHvAnalogDisable
*DEL*:00000000H   CODE     ---       CyVdHvAnalogEnable
*DEL*:00000000H   CODE     ---       CyVdLvAnalogDisable
*DEL*:00000000H   CODE     ---       CyVdLvDigitDisable
*DEL*:00000000H   CODE     ---       CyVdRealTimeStatus
*DEL*:00000000H   CODE     ---       CyWdtClear
*DEL*:00000000H   CODE     ---       CyXTAL_32KHZ_ReadStatus
*DEL*:00000000H   CODE     ---       CyXTAL_32KHZ_Start
*DEL*:00000000H   CODE     ---       CyXTAL_32KHZ_Stop
*DEL*:00000000H   CODE     ---       CyXTAL_DisableErrStatus
*DEL*:00000000H   CODE     ---       CyXTAL_DisableFaultRecovery
*DEL*:00000000H   CODE     ---       CyXTAL_EnableErrStatus
*DEL*:00000000H   CODE     ---       CyXTAL_EnableFaultRecovery
*DEL*:00000000H   CODE     ---       CyXTAL_ReadStatus
*DEL*:00000000H   CODE     ---       CyXTAL_Stop
      02000063H   XDATA    ---       dieTemperature
*SFR* 00000083H   DATA     BYTE      DPH
*SFR* 00000085H   DATA     BYTE      DPH1
*SFR* 00000082H   DATA     BYTE      DPL
LX51 LINKER/LOCATER V4.64.0.0                                                         10/24/2019  10:28:13  PAGE 11


*SFR* 00000084H   DATA     BYTE      DPL1
*SFR* 00000086H   DATA     BYTE      DPS
*SFR* 00000093H   DATA     BYTE      DPX
*SFR* 00000095H   DATA     BYTE      DPX1
*SFR* 000000A8H.7 DATA     BIT       EA
*SFR* 000000D0H.5 DATA     BIT       F0
*SFR* 000000D0H.1 DATA     BIT       F1
*SFR* 000000A8H   DATA     BYTE      IE
      01000B1EH   CODE     ---       IntDefaultHandler
      01000B21H   CONST    ---       LCD_Khanas_customFonts
      01000AEDH   CODE     ---       LCD_Khanas_Enable
      02000066H   XDATA    BYTE      LCD_Khanas_enableState
      0100075BH   CODE     ---       LCD_Khanas_Init
      02000065H   XDATA    BYTE      LCD_Khanas_initVar
      01000407H   CODE     ---       LCD_Khanas_IsReady
      01000ADAH   CODE     ---       LCD_Khanas_Start
*DEL*:00000000H   CODE     ---       LCD_Khanas_Stop
      010006B5H   CODE     ---       main
*SFR* 000000EAH   DATA     BYTE      MXAX
*SFR* 000000D0H.2 DATA     BIT       OV
*SFR* 000000D0H   DATA     BIT       P
*SFR* 000000A0H   DATA     BYTE      P2AX
*SFR* 000000D0H   DATA     BYTE      PSW
*SFR* 000000D0H.3 DATA     BIT       RS0
*SFR* 000000D0H.4 DATA     BIT       RS1
*SFR* 00000080H   DATA     BYTE      SFRPRT0DR
*SFR* 00000089H   DATA     BYTE      SFRPRT0PS
*SFR* 0000008AH   DATA     BYTE      SFRPRT0SEL
*SFR* 000000E8H   DATA     BYTE      SFRPRT12DR
*SFR* 000000E9H   DATA     BYTE      SFRPRT12PS
*SFR* 000000F2H   DATA     BYTE      SFRPRT12SEL
*SFR* 000000F8H   DATA     BYTE      SFRPRT15DR
*SFR* 000000F9H   DATA     BYTE      SFRPRT15PS
*SFR* 000000FAH   DATA     BYTE      SFRPRT15SEL
*SFR* 00000090H   DATA     BYTE      SFRPRT1DR
*SFR* 00000091H   DATA     BYTE      SFRPRT1PS
*SFR* 000000A2H   DATA     BYTE      SFRPRT1SEL
*SFR* 00000098H   DATA     BYTE      SFRPRT2DR
*SFR* 00000099H   DATA     BYTE      SFRPRT2PS
*SFR* 0000009AH   DATA     BYTE      SFRPRT2SEL
*SFR* 000000B0H   DATA     BYTE      SFRPRT3DR
*SFR* 000000B1H   DATA     BYTE      SFRPRT3PS
*SFR* 000000B2H   DATA     BYTE      SFRPRT3SEL
*SFR* 000000C0H   DATA     BYTE      SFRPRT4DR
*SFR* 000000C1H   DATA     BYTE      SFRPRT4PS
*SFR* 000000C2H   DATA     BYTE      SFRPRT4SEL
*SFR* 000000C8H   DATA     BYTE      SFRPRT5DR
*SFR* 000000C9H   DATA     BYTE      SFRPRT5PS
*SFR* 000000CAH   DATA     BYTE      SFRPRT5SEL
*SFR* 000000D8H   DATA     BYTE      SFRPRT6DR
*SFR* 000000D9H   DATA     BYTE      SFRPRT6PS
*SFR* 000000DAH   DATA     BYTE      SFRPRT6SEL
*SFR* 00000081H   DATA     BYTE      SP
      02000067H   XDATA    BYTE      SpcLockState
      010004FBH   CODE     NEAR LAB  STARTUP1



SYMBOL TABLE OF MODULE:  .\DP8051\DP8051_Keil_951\Release\Lab01.omf (MAIN)

      VALUE       REP       CLASS    TYPE      SYMBOL NAME
      ====================================================
      ---         MODULE    ---      ---       MAIN
      010006B5H   PUBLIC    CODE     ---       main
      000000CAH   SFRSYM    DATA     BYTE      SFRPRT5SEL
LX51 LINKER/LOCATER V4.64.0.0                                                         10/24/2019  10:28:13  PAGE 12


      000000DAH   SFRSYM    DATA     BYTE      SFRPRT6SEL
      000000D0H.6 SFRSYM    DATA     BIT       AC
      000000A8H.7 SFRSYM    DATA     BIT       EA
      000000A8H   SFRSYM    DATA     BYTE      IE
      00000085H   SFRSYM    DATA     BYTE      DPH1
      00000084H   SFRSYM    DATA     BYTE      DPL1
      000000D0H.7 SFRSYM    DATA     BIT       CY
      000000A0H   SFRSYM    DATA     BYTE      P2AX
      00000095H   SFRSYM    DATA     BYTE      DPX1
      00000081H   SFRSYM    DATA     BYTE      SP
      000000D0H.2 SFRSYM    DATA     BIT       OV
      00000080H   SFRSYM    DATA     BYTE      SFRPRT0DR
      00000090H   SFRSYM    DATA     BYTE      SFRPRT1DR
      000000F2H   SFRSYM    DATA     BYTE      SFRPRT12SEL
      00000098H   SFRSYM    DATA     BYTE      SFRPRT2DR
      000000B0H   SFRSYM    DATA     BYTE      SFRPRT3DR
      000000C0H   SFRSYM    DATA     BYTE      SFRPRT4DR
      000000FAH   SFRSYM    DATA     BYTE      SFRPRT15SEL
      000000C8H   SFRSYM    DATA     BYTE      SFRPRT5DR
      000000D8H   SFRSYM    DATA     BYTE      SFRPRT6DR
      00000089H   SFRSYM    DATA     BYTE      SFRPRT0PS
      00000091H   SFRSYM    DATA     BYTE      SFRPRT1PS
      00000099H   SFRSYM    DATA     BYTE      SFRPRT2PS
      000000B1H   SFRSYM    DATA     BYTE      SFRPRT3PS
      000000C1H   SFRSYM    DATA     BYTE      SFRPRT4PS
      000000C9H   SFRSYM    DATA     BYTE      SFRPRT5PS
      000000D9H   SFRSYM    DATA     BYTE      SFRPRT6PS
      000000EAH   SFRSYM    DATA     BYTE      MXAX
      000000F0H   SFRSYM    DATA     BYTE      B
      000000E0H   SFRSYM    DATA     BYTE      ACC
      000000D0H   SFRSYM    DATA     BIT       P
      000000D0H.3 SFRSYM    DATA     BIT       RS0
      000000D0H.4 SFRSYM    DATA     BIT       RS1
      00000083H   SFRSYM    DATA     BYTE      DPH
      000000E8H   SFRSYM    DATA     BYTE      SFRPRT12DR
      00000082H   SFRSYM    DATA     BYTE      DPL
      000000F8H   SFRSYM    DATA     BYTE      SFRPRT15DR
      00000086H   SFRSYM    DATA     BYTE      DPS
      000000E9H   SFRSYM    DATA     BYTE      SFRPRT12PS
      00000093H   SFRSYM    DATA     BYTE      DPX
      000000F9H   SFRSYM    DATA     BYTE      SFRPRT15PS
      000000D0H.5 SFRSYM    DATA     BIT       F0
      000000D0H.1 SFRSYM    DATA     BIT       F1
      0000008AH   SFRSYM    DATA     BYTE      SFRPRT0SEL
      000000D0H   SFRSYM    DATA     BYTE      PSW
      000000A2H   SFRSYM    DATA     BYTE      SFRPRT1SEL
      0000009AH   SFRSYM    DATA     BYTE      SFRPRT2SEL
      000000B2H   SFRSYM    DATA     BYTE      SFRPRT3SEL
      000000C2H   SFRSYM    DATA     BYTE      SFRPRT4SEL

      010006B5H   BLOCK     CODE     ---       LVL=0
      010006B5H   BLOCK     CODE     NEAR LAB  LVL=1
      02000052H   SYMBOL    XDATA    BYTE      pos
      02000053H   SYMBOL    XDATA    BYTE      row
      ---         BLOCKEND  ---      ---       LVL=1
      010006B5H   LINE      CODE     ---       #14
      010006B5H   LINE      CODE     ---       #15
      010006B5H   LINE      CODE     ---       #16
      010006BBH   LINE      CODE     ---       #17
      010006BEH   LINE      CODE     ---       #19
      010006C1H   LINE      CODE     ---       #20
      010006CAH   LINE      CODE     ---       #22
      010006D7H   LINE      CODE     ---       #23
      010006DCH   LINE      CODE     ---       #24
      010006E3H   LINE      CODE     ---       #26
LX51 LINKER/LOCATER V4.64.0.0                                                         10/24/2019  10:28:13  PAGE 13


      010006EEH   LINE      CODE     ---       #27
      010006F3H   LINE      CODE     ---       #28
      010006FAH   LINE      CODE     ---       #30
      01000705H   LINE      CODE     ---       #31
      0100070AH   LINE      CODE     ---       #32
      01000711H   LINE      CODE     ---       #34
      0100071CH   LINE      CODE     ---       #35
      01000721H   LINE      CODE     ---       #36
      01000728H   LINE      CODE     ---       #38
      01000733H   LINE      CODE     ---       #39
      01000738H   LINE      CODE     ---       #40
      0100073FH   LINE      CODE     ---       #42
      01000748H   LINE      CODE     ---       #43
      0100074FH   LINE      CODE     ---       #44
      01000758H   LINE      CODE     ---       #50
      01000758H   LINE      CODE     ---       #51
      01000758H   LINE      CODE     ---       #53
      ---         BLOCKEND  ---      ---       LVL=0

      ---         MODULE    ---      ---       CYFITTER_CFG
      010002FCH   PUBLIC    CODE     ---       cyfitter_cfg
      000000CAH   SFRSYM    DATA     BYTE      SFRPRT5SEL
      000000DAH   SFRSYM    DATA     BYTE      SFRPRT6SEL
      000000D0H.6 SFRSYM    DATA     BIT       AC
      000000A8H.7 SFRSYM    DATA     BIT       EA
      000000A8H   SFRSYM    DATA     BYTE      IE
      00000085H   SFRSYM    DATA     BYTE      DPH1
      00000084H   SFRSYM    DATA     BYTE      DPL1
      000000D0H.7 SFRSYM    DATA     BIT       CY
      000000A0H   SFRSYM    DATA     BYTE      P2AX
      00000095H   SFRSYM    DATA     BYTE      DPX1
      00000081H   SFRSYM    DATA     BYTE      SP
      000000D0H.2 SFRSYM    DATA     BIT       OV
      00000080H   SFRSYM    DATA     BYTE      SFRPRT0DR
      00000090H   SFRSYM    DATA     BYTE      SFRPRT1DR
      000000F2H   SFRSYM    DATA     BYTE      SFRPRT12SEL
      00000098H   SFRSYM    DATA     BYTE      SFRPRT2DR
      000000B0H   SFRSYM    DATA     BYTE      SFRPRT3DR
      000000C0H   SFRSYM    DATA     BYTE      SFRPRT4DR
      000000FAH   SFRSYM    DATA     BYTE      SFRPRT15SEL
      000000C8H   SFRSYM    DATA     BYTE      SFRPRT5DR
      000000D8H   SFRSYM    DATA     BYTE      SFRPRT6DR
      00000089H   SFRSYM    DATA     BYTE      SFRPRT0PS
      00000091H   SFRSYM    DATA     BYTE      SFRPRT1PS
      00000099H   SFRSYM    DATA     BYTE      SFRPRT2PS
      000000B1H   SFRSYM    DATA     BYTE      SFRPRT3PS
      000000C1H   SFRSYM    DATA     BYTE      SFRPRT4PS
      000000C9H   SFRSYM    DATA     BYTE      SFRPRT5PS
      000000D9H   SFRSYM    DATA     BYTE      SFRPRT6PS
      000000EAH   SFRSYM    DATA     BYTE      MXAX
      000000F0H   SFRSYM    DATA     BYTE      B
      000000E0H   SFRSYM    DATA     BYTE      ACC
      000000D0H   SFRSYM    DATA     BIT       P
      000000D0H.3 SFRSYM    DATA     BIT       RS0
      000000D0H.4 SFRSYM    DATA     BIT       RS1
      00000083H   SFRSYM    DATA     BYTE      DPH
      000000E8H   SFRSYM    DATA     BYTE      SFRPRT12DR
      00000082H   SFRSYM    DATA     BYTE      DPL
      000000F8H   SFRSYM    DATA     BYTE      SFRPRT15DR
      00000086H   SFRSYM    DATA     BYTE      DPS
      000000E9H   SFRSYM    DATA     BYTE      SFRPRT12PS
      00000093H   SFRSYM    DATA     BYTE      DPX
      000000F9H   SFRSYM    DATA     BYTE      SFRPRT15PS
      000000D0H.5 SFRSYM    DATA     BIT       F0
      000000D0H.1 SFRSYM    DATA     BIT       F1
LX51 LINKER/LOCATER V4.64.0.0                                                         10/24/2019  10:28:13  PAGE 14


      0000008AH   SFRSYM    DATA     BYTE      SFRPRT0SEL
      000000D0H   SFRSYM    DATA     BYTE      PSW
      000000A2H   SFRSYM    DATA     BYTE      SFRPRT1SEL
      0000009AH   SFRSYM    DATA     BYTE      SFRPRT2SEL
      000000B2H   SFRSYM    DATA     BYTE      SFRPRT3SEL
      000000C2H   SFRSYM    DATA     BYTE      SFRPRT4SEL
      010005E8H   SYMBOL    CODE     ---       ClockSetup
      01000B1BH   SYMBOL    CODE     ---       _CyClockStartupError
      01000AA4H   SYMBOL    CODE     ---       AnalogSetDefault

      01000B1BH   BLOCK     CODE     ---       LVL=0
      02000000H   SYMBOL    XDATA    BYTE      errorCode
      01000B1BH   LINE      CODE     ---       #78
      01000B1BH   LINE      CODE     ---       #79
      01000B1BH   LINE      CODE     ---       #81
      01000B1BH   LINE      CODE     ---       #97
      ---         BLOCKEND  ---      ---       LVL=0

      010005E8H   BLOCK     CODE     ---       LVL=0
      010005E8H   BLOCK     CODE     NEAR LAB  LVL=1
      02000052H   SYMBOL    XDATA    DWORD     timeout
      02000056H   SYMBOL    XDATA    BYTE      pllLock
      ---         BLOCKEND  ---      ---       LVL=1
      010005E8H   LINE      CODE     ---       #126
      010005E8H   LINE      CODE     ---       #127
      010005E8H   LINE      CODE     ---       #133
      010005EEH   LINE      CODE     ---       #134
      010005F4H   LINE      CODE     ---       #137
      010005FAH   LINE      CODE     ---       #138
      01000608H   LINE      CODE     ---       #141
      01000615H   LINE      CODE     ---       #142
      01000622H   LINE      CODE     ---       #144
      01000627H   LINE      CODE     ---       #145
      0100064AH   LINE      CODE     ---       #146
      0100064AH   LINE      CODE     ---       #147
      0100065BH   LINE      CODE     ---       #148
      01000665H   LINE      CODE     ---       #149
      0100067CH   LINE      CODE     ---       #151
      01000686H   LINE      CODE     ---       #152
      01000686H   LINE      CODE     ---       #153
      0100068BH   LINE      CODE     ---       #154
      0100068BH   LINE      CODE     ---       #157
      01000698H   LINE      CODE     ---       #158
      0100069EH   LINE      CODE     ---       #159
      010006A3H   LINE      CODE     ---       #160
      010006A9H   LINE      CODE     ---       #161
      010006AEH   LINE      CODE     ---       #162
      010006B4H   LINE      CODE     ---       #163
      ---         BLOCKEND  ---      ---       LVL=0

      01000AA4H   BLOCK     CODE     ---       LVL=0
      01000AA4H   BLOCK     CODE     NEAR LAB  LVL=1
      00000007H   SYMBOL    DATA     BYTE      bg_xover_inl_trim
      ---         BLOCKEND  ---      ---       LVL=1
      01000AA4H   LINE      CODE     ---       #185
      01000AA4H   LINE      CODE     ---       #186
      01000AA4H   LINE      CODE     ---       #187
      01000AADH   LINE      CODE     ---       #188
      01000AB4H   LINE      CODE     ---       #189
      01000ABAH   LINE      CODE     ---       #190
      01000AC0H   LINE      CODE     ---       #191
      ---         BLOCKEND  ---      ---       LVL=0
      00000007H   SYMBOL    DATA     BYTE      enabled
      00000006H   SYMBOL    DATA     BYTE      regValue

LX51 LINKER/LOCATER V4.64.0.0                                                         10/24/2019  10:28:13  PAGE 15


      010002FCH   BLOCK     CODE     ---       LVL=0
      01000312H   BLOCK     CODE     NEAR LAB  LVL=1
      01000B61H   SYMBOL    CONST    ---       cfg_memset_list
      0000000AH   SYMBOL    DATA     BYTE      i
      0100031CH   BLOCK     CODE     NEAR LAB  LVL=2
      00000008H   SYMBOL    DATA     ---       ms
      ---         BLOCKEND  ---      ---       LVL=2
      ---         BLOCKEND  ---      ---       LVL=1
      010002FCH   LINE      CODE     ---       #245
      010002FCH   LINE      CODE     ---       #246
      010002FCH   LINE      CODE     ---       #248
      01000312H   LINE      CODE     ---       #250
      01000312H   LINE      CODE     ---       #273
      0100031CH   LINE      CODE     ---       #274
      0100031CH   LINE      CODE     ---       #275
      0100032FH   LINE      CODE     ---       #276
      01000344H   LINE      CODE     ---       #277
      01000348H   LINE      CODE     ---       #280
      0100035EH   LINE      CODE     ---       #281
      01000374H   LINE      CODE     ---       #282
      01000374H   LINE      CODE     ---       #286
      01000399H   LINE      CODE     ---       #287
      010003BEH   LINE      CODE     ---       #289
      010003C5H   LINE      CODE     ---       #290
      010003CEH   LINE      CODE     ---       #291
      010003CEH   LINE      CODE     ---       #292
      010003D4H   LINE      CODE     ---       #293
      010003D4H   LINE      CODE     ---       #297
      010003DAH   LINE      CODE     ---       #299
      010003DDH   LINE      CODE     ---       #301
      010003E3H   LINE      CODE     ---       #304
      010003E6H   LINE      CODE     ---       #307
      010003FFH   LINE      CODE     ---       #308
      01000406H   LINE      CODE     ---       #309
      ---         BLOCKEND  ---      ---       LVL=0

      ---         MODULE    ---      ---       LCD_KHANAS
      02000066H   PUBLIC    XDATA    BYTE      LCD_Khanas_enableState
      02000065H   PUBLIC    XDATA    BYTE      LCD_Khanas_initVar
      01000407H   PUBLIC    CODE     ---       LCD_Khanas_IsReady
      01000A5EH   PUBLIC    CODE     ---       _LCD_Khanas_WriteControl
      01000A3BH   PUBLIC    CODE     ---       _LCD_Khanas_WriteData
      01000B17H   PUBLIC    CODE     ---       _LCD_Khanas_PutChar
      010008F7H   PUBLIC    CODE     ---       _LCD_Khanas_PrintString
      010008B8H   PUBLIC    CODE     ---       _LCD_Khanas_Position
      01000ADAH   PUBLIC    CODE     ---       LCD_Khanas_Start
      01000AEDH   PUBLIC    CODE     ---       LCD_Khanas_Enable
      0100075BH   PUBLIC    CODE     ---       LCD_Khanas_Init
      000000CAH   SFRSYM    DATA     BYTE      SFRPRT5SEL
      000000DAH   SFRSYM    DATA     BYTE      SFRPRT6SEL
      000000D0H.6 SFRSYM    DATA     BIT       AC
      000000A8H.7 SFRSYM    DATA     BIT       EA
      000000A8H   SFRSYM    DATA     BYTE      IE
      00000085H   SFRSYM    DATA     BYTE      DPH1
      00000084H   SFRSYM    DATA     BYTE      DPL1
      000000D0H.7 SFRSYM    DATA     BIT       CY
      000000A0H   SFRSYM    DATA     BYTE      P2AX
      00000095H   SFRSYM    DATA     BYTE      DPX1
      00000081H   SFRSYM    DATA     BYTE      SP
      000000D0H.2 SFRSYM    DATA     BIT       OV
      00000080H   SFRSYM    DATA     BYTE      SFRPRT0DR
      00000090H   SFRSYM    DATA     BYTE      SFRPRT1DR
      000000F2H   SFRSYM    DATA     BYTE      SFRPRT12SEL
      00000098H   SFRSYM    DATA     BYTE      SFRPRT2DR
      000000B0H   SFRSYM    DATA     BYTE      SFRPRT3DR
LX51 LINKER/LOCATER V4.64.0.0                                                         10/24/2019  10:28:13  PAGE 16


      000000C0H   SFRSYM    DATA     BYTE      SFRPRT4DR
      000000FAH   SFRSYM    DATA     BYTE      SFRPRT15SEL
      000000C8H   SFRSYM    DATA     BYTE      SFRPRT5DR
      000000D8H   SFRSYM    DATA     BYTE      SFRPRT6DR
      00000089H   SFRSYM    DATA     BYTE      SFRPRT0PS
      00000091H   SFRSYM    DATA     BYTE      SFRPRT1PS
      00000099H   SFRSYM    DATA     BYTE      SFRPRT2PS
      000000B1H   SFRSYM    DATA     BYTE      SFRPRT3PS
      000000C1H   SFRSYM    DATA     BYTE      SFRPRT4PS
      000000C9H   SFRSYM    DATA     BYTE      SFRPRT5PS
      000000D9H   SFRSYM    DATA     BYTE      SFRPRT6PS
      000000EAH   SFRSYM    DATA     BYTE      MXAX
      000000F0H   SFRSYM    DATA     BYTE      B
      000000E0H   SFRSYM    DATA     BYTE      ACC
      000000D0H   SFRSYM    DATA     BIT       P
      000000D0H.3 SFRSYM    DATA     BIT       RS0
      000000D0H.4 SFRSYM    DATA     BIT       RS1
      00000083H   SFRSYM    DATA     BYTE      DPH
      000000E8H   SFRSYM    DATA     BYTE      SFRPRT12DR
      00000082H   SFRSYM    DATA     BYTE      DPL
      000000F8H   SFRSYM    DATA     BYTE      SFRPRT15DR
      00000086H   SFRSYM    DATA     BYTE      DPS
      000000E9H   SFRSYM    DATA     BYTE      SFRPRT12PS
      00000093H   SFRSYM    DATA     BYTE      DPX
      000000F9H   SFRSYM    DATA     BYTE      SFRPRT15PS
      000000D0H.5 SFRSYM    DATA     BIT       F0
      000000D0H.1 SFRSYM    DATA     BIT       F1
      0000008AH   SFRSYM    DATA     BYTE      SFRPRT0SEL
      000000D0H   SFRSYM    DATA     BYTE      PSW
      000000A2H   SFRSYM    DATA     BYTE      SFRPRT1SEL
      0000009AH   SFRSYM    DATA     BYTE      SFRPRT2SEL
      000000B2H   SFRSYM    DATA     BYTE      SFRPRT3SEL
      000000C2H   SFRSYM    DATA     BYTE      SFRPRT4SEL
      01000A81H   SYMBOL    CODE     ---       _LCD_Khanas_WrCntrlNib
      01000878H   SYMBOL    CODE     ---       _LCD_Khanas_WrDatNib

      0100075BH   BLOCK     CODE     ---       LVL=0
      0100075BH   LINE      CODE     ---       #55
      0100075BH   LINE      CODE     ---       #56
      0100075BH   LINE      CODE     ---       #58
      01000764H   LINE      CODE     ---       #59
      01000769H   LINE      CODE     ---       #60
      01000772H   LINE      CODE     ---       #61
      01000777H   LINE      CODE     ---       #62
      01000780H   LINE      CODE     ---       #63
      01000785H   LINE      CODE     ---       #64
      0100078EH   LINE      CODE     ---       #65
      01000793H   LINE      CODE     ---       #66
      0100079CH   LINE      CODE     ---       #68
      010007A1H   LINE      CODE     ---       #69
      010007A6H   LINE      CODE     ---       #70
      010007ABH   LINE      CODE     ---       #71
      010007B0H   LINE      CODE     ---       #72
      010007B5H   LINE      CODE     ---       #73
      010007BAH   LINE      CODE     ---       #74
      010007BFH   LINE      CODE     ---       #75
      010007C8H   LINE      CODE     ---       #78
      010007D1H   LINE      CODE     ---       #80
      ---         BLOCKEND  ---      ---       LVL=0

      01000AEDH   BLOCK     CODE     ---       LVL=0
      01000AEDH   LINE      CODE     ---       #104
      01000AEDH   LINE      CODE     ---       #105
      01000AEDH   LINE      CODE     ---       #106
      01000AF2H   LINE      CODE     ---       #107
LX51 LINKER/LOCATER V4.64.0.0                                                         10/24/2019  10:28:13  PAGE 17


      01000AF8H   LINE      CODE     ---       #108
      ---         BLOCKEND  ---      ---       LVL=0

      01000ADAH   BLOCK     CODE     ---       LVL=0
      01000ADAH   LINE      CODE     ---       #137
      01000ADAH   LINE      CODE     ---       #138
      01000ADAH   LINE      CODE     ---       #140
      01000AE0H   LINE      CODE     ---       #141
      01000AE0H   LINE      CODE     ---       #142
      01000AE3H   LINE      CODE     ---       #143
      01000AE9H   LINE      CODE     ---       #144
      01000AE9H   LINE      CODE     ---       #147
      01000AECH   LINE      CODE     ---       #148
      ---         BLOCKEND  ---      ---       LVL=0

      010008B8H   BLOCK     CODE     ---       LVL=0
      00000007H   SYMBOL    DATA     BYTE      row
      02000054H   SYMBOL    XDATA    BYTE      column
      010008B8H   LINE      CODE     ---       #196
      010008BDH   LINE      CODE     ---       #197
      010008BDH   LINE      CODE     ---       #198
      010008CBH   LINE      CODE     ---       #199
      010008CBH   LINE      CODE     ---       #200
      010008CBH   LINE      CODE     ---       #201
      010008D5H   LINE      CODE     ---       #202
      010008D6H   LINE      CODE     ---       #203
      010008D6H   LINE      CODE     ---       #204
      010008E0H   LINE      CODE     ---       #205
      010008E1H   LINE      CODE     ---       #206
      010008E1H   LINE      CODE     ---       #207
      010008EBH   LINE      CODE     ---       #208
      010008ECH   LINE      CODE     ---       #209
      010008ECH   LINE      CODE     ---       #210
      010008F6H   LINE      CODE     ---       #211
      010008F6H   LINE      CODE     ---       #212
      010008F6H   LINE      CODE     ---       #214
      010008F6H   LINE      CODE     ---       #215
      010008F6H   LINE      CODE     ---       #216
      ---         BLOCKEND  ---      ---       LVL=0

      010008F7H   BLOCK     CODE     ---       LVL=0
      02000054H   SYMBOL    XDATA    ---       string
      010008FDH   BLOCK     CODE     NEAR LAB  LVL=1
      02000057H   SYMBOL    XDATA    BYTE      indexU8
      02000058H   SYMBOL    XDATA    CHAR      current
      ---         BLOCKEND  ---      ---       LVL=1
      010008F7H   LINE      CODE     ---       #233
      010008FDH   LINE      CODE     ---       #234
      010008FDH   LINE      CODE     ---       #235
      01000903H   LINE      CODE     ---       #236
      0100090AH   LINE      CODE     ---       #239
      01000911H   LINE      CODE     ---       #240
      01000911H   LINE      CODE     ---       #241
      01000914H   LINE      CODE     ---       #242
      0100092AH   LINE      CODE     ---       #243
      01000930H   LINE      CODE     ---       #244
      01000932H   LINE      CODE     ---       #245
      ---         BLOCKEND  ---      ---       LVL=0

      01000B17H   BLOCK     CODE     ---       LVL=0
      00000007H   SYMBOL    DATA     CHAR      character
      01000B17H   LINE      CODE     ---       #264
      01000B17H   LINE      CODE     ---       #265
      01000B17H   LINE      CODE     ---       #266
      01000B1AH   LINE      CODE     ---       #267
LX51 LINKER/LOCATER V4.64.0.0                                                         10/24/2019  10:28:13  PAGE 18


      ---         BLOCKEND  ---      ---       LVL=0

      01000A3BH   BLOCK     CODE     ---       LVL=0
      02000059H   SYMBOL    XDATA    BYTE      dByte
      01000A40H   BLOCK     CODE     NEAR LAB  LVL=1
      0200005AH   SYMBOL    XDATA    BYTE      nibble
      ---         BLOCKEND  ---      ---       LVL=1
      01000A3BH   LINE      CODE     ---       #284
      01000A40H   LINE      CODE     ---       #285
      01000A40H   LINE      CODE     ---       #288
      01000A43H   LINE      CODE     ---       #289
      01000A4EH   LINE      CODE     ---       #292
      01000A51H   LINE      CODE     ---       #294
      01000A5AH   LINE      CODE     ---       #296
      01000A5DH   LINE      CODE     ---       #297
      ---         BLOCKEND  ---      ---       LVL=0

      01000A5EH   BLOCK     CODE     ---       LVL=0
      02000058H   SYMBOL    XDATA    BYTE      cByte
      01000A63H   BLOCK     CODE     NEAR LAB  LVL=1
      02000059H   SYMBOL    XDATA    BYTE      nibble
      ---         BLOCKEND  ---      ---       LVL=1
      01000A5EH   LINE      CODE     ---       #314
      01000A63H   LINE      CODE     ---       #315
      01000A63H   LINE      CODE     ---       #318
      01000A66H   LINE      CODE     ---       #320
      01000A71H   LINE      CODE     ---       #323
      01000A74H   LINE      CODE     ---       #324
      01000A7DH   LINE      CODE     ---       #327
      01000A80H   LINE      CODE     ---       #328
      ---         BLOCKEND  ---      ---       LVL=0

      01000407H   BLOCK     CODE     ---       LVL=0
      01000407H   BLOCK     CODE     NEAR LAB  LVL=1
      0200005BH   SYMBOL    XDATA    BYTE      value
      0200005CH   SYMBOL    XDATA    DWORD     timeout
      ---         BLOCKEND  ---      ---       LVL=1
      01000407H   LINE      CODE     ---       #348
      01000407H   LINE      CODE     ---       #349
      01000407H   LINE      CODE     ---       #352
      01000414H   LINE      CODE     ---       #355
      0100041BH   LINE      CODE     ---       #372
      01000425H   LINE      CODE     ---       #374
      0100042CH   LINE      CODE     ---       #377
      01000434H   LINE      CODE     ---       #379
      01000439H   LINE      CODE     ---       #382
      01000441H   LINE      CODE     ---       #384
      01000446H   LINE      CODE     ---       #389
      0100044DH   LINE      CODE     ---       #392
      01000451H   LINE      CODE     ---       #395
      01000451H   LINE      CODE     ---       #397
      01000457H   LINE      CODE     ---       #400
      0100045EH   LINE      CODE     ---       #403
      01000465H   LINE      CODE     ---       #406
      0100046DH   LINE      CODE     ---       #409
      01000474H   LINE      CODE     ---       #412
      0100047AH   LINE      CODE     ---       #415
      01000481H   LINE      CODE     ---       #418
      01000488H   LINE      CODE     ---       #421
      0100048FH   LINE      CODE     ---       #424
      01000496H   LINE      CODE     ---       #427
      0100049CH   LINE      CODE     ---       #428
      0100049CH   LINE      CODE     ---       #429
      010004A2H   LINE      CODE     ---       #430
      010004A2H   LINE      CODE     ---       #433
LX51 LINKER/LOCATER V4.64.0.0                                                         10/24/2019  10:28:13  PAGE 19


      010004B7H   LINE      CODE     ---       #435
      010004CAH   LINE      CODE     ---       #438
      010004D1H   LINE      CODE     ---       #441
      010004D5H   LINE      CODE     ---       #456
      010004DCH   LINE      CODE     ---       #458
      010004E4H   LINE      CODE     ---       #460
      010004EBH   LINE      CODE     ---       #463
      010004F3H   LINE      CODE     ---       #465
      010004FAH   LINE      CODE     ---       #468
      ---         BLOCKEND  ---      ---       LVL=0

      01000878H   BLOCK     CODE     ---       LVL=0
      0200005BH   SYMBOL    XDATA    BYTE      nibble
      01000878H   LINE      CODE     ---       #486
      0100087DH   LINE      CODE     ---       #487
      0100087DH   LINE      CODE     ---       #489
      01000884H   LINE      CODE     ---       #491
      01000888H   LINE      CODE     ---       #494
      0100088EH   LINE      CODE     ---       #497
      01000895H   LINE      CODE     ---       #504
      010008A9H   LINE      CODE     ---       #508
      010008B0H   LINE      CODE     ---       #510
      010008B7H   LINE      CODE     ---       #511
      ---         BLOCKEND  ---      ---       LVL=0

      01000A81H   BLOCK     CODE     ---       LVL=0
      00000007H   SYMBOL    DATA     BYTE      nibble
      01000A81H   LINE      CODE     ---       #528
      01000A81H   LINE      CODE     ---       #529
      01000A81H   LINE      CODE     ---       #531
      01000A88H   LINE      CODE     ---       #535
      01000A8CH   LINE      CODE     ---       #542
      01000A95H   LINE      CODE     ---       #546
      01000A9CH   LINE      CODE     ---       #548
      01000AA3H   LINE      CODE     ---       #549
      ---         BLOCKEND  ---      ---       LVL=0

      ---         MODULE    ---      ---       LCD_KHANAS_CUSTCHARS
      01000B21H   PUBLIC    CONST    ---       LCD_Khanas_customFonts
      01000837H   PUBLIC    CODE     ---       _LCD_Khanas_LoadCustomFonts

      01000837H   BLOCK     CODE     ---       LVL=0
      02000054H   SYMBOL    XDATA    ---       customData
      0100083DH   BLOCK     CODE     NEAR LAB  LVL=1
      02000057H   SYMBOL    XDATA    BYTE      indexU8
      ---         BLOCKEND  ---      ---       LVL=1
      01000837H   LINE      CODE     ---       #66
      0100083DH   LINE      CODE     ---       #67
      0100083DH   LINE      CODE     ---       #70
      01000840H   LINE      CODE     ---       #75
      01000845H   LINE      CODE     ---       #78
      01000854H   LINE      CODE     ---       #79
      01000854H   LINE      CODE     ---       #80
      01000867H   LINE      CODE     ---       #81
      0100086FH   LINE      CODE     ---       #83
      01000872H   LINE      CODE     ---       #84
      01000877H   LINE      CODE     ---       #85
      ---         BLOCKEND  ---      ---       LVL=0

      ---         MODULE    ---      ---       CYLIB
      0200004EH   PUBLIC    XDATA    DWORD     cydelay_32k_ms
      0200004DH   PUBLIC    XDATA    BYTE      CyResetStatus
      02000049H   PUBLIC    XDATA    DWORD     cydelay_freq_hz
      02000048H   PUBLIC    XDATA    BYTE      cydelay_freq_mhz
      02000044H   PUBLIC    XDATA    DWORD     cydelay_freq_khz
LX51 LINKER/LOCATER V4.64.0.0                                                         10/24/2019  10:28:13  PAGE 20


      01000967H   PUBLIC    CODE     ---       CyIntInitVectors
      01000B1EH   PUBLIC    CODE     ---       IntDefaultHandler
      010007D2H   PUBLIC    CODE     ---       _?CyDelay
      000000CAH   SFRSYM    DATA     BYTE      SFRPRT5SEL
      000000DAH   SFRSYM    DATA     BYTE      SFRPRT6SEL
      000000D0H.6 SFRSYM    DATA     BIT       AC
      000000A8H.7 SFRSYM    DATA     BIT       EA
      000000A8H   SFRSYM    DATA     BYTE      IE
      00000085H   SFRSYM    DATA     BYTE      DPH1
      00000084H   SFRSYM    DATA     BYTE      DPL1
      000000D0H.7 SFRSYM    DATA     BIT       CY
      000000A0H   SFRSYM    DATA     BYTE      P2AX
      00000095H   SFRSYM    DATA     BYTE      DPX1
      00000081H   SFRSYM    DATA     BYTE      SP
      000000D0H.2 SFRSYM    DATA     BIT       OV
      00000080H   SFRSYM    DATA     BYTE      SFRPRT0DR
      00000090H   SFRSYM    DATA     BYTE      SFRPRT1DR
      000000F2H   SFRSYM    DATA     BYTE      SFRPRT12SEL
      00000098H   SFRSYM    DATA     BYTE      SFRPRT2DR
      000000B0H   SFRSYM    DATA     BYTE      SFRPRT3DR
      000000C0H   SFRSYM    DATA     BYTE      SFRPRT4DR
      000000FAH   SFRSYM    DATA     BYTE      SFRPRT15SEL
      000000C8H   SFRSYM    DATA     BYTE      SFRPRT5DR
      000000D8H   SFRSYM    DATA     BYTE      SFRPRT6DR
      00000089H   SFRSYM    DATA     BYTE      SFRPRT0PS
      00000091H   SFRSYM    DATA     BYTE      SFRPRT1PS
      00000099H   SFRSYM    DATA     BYTE      SFRPRT2PS
      000000B1H   SFRSYM    DATA     BYTE      SFRPRT3PS
      000000C1H   SFRSYM    DATA     BYTE      SFRPRT4PS
      000000C9H   SFRSYM    DATA     BYTE      SFRPRT5PS
      000000D9H   SFRSYM    DATA     BYTE      SFRPRT6PS
      000000EAH   SFRSYM    DATA     BYTE      MXAX
      000000F0H   SFRSYM    DATA     BYTE      B
      000000E0H   SFRSYM    DATA     BYTE      ACC
      000000D0H   SFRSYM    DATA     BIT       P
      000000D0H.3 SFRSYM    DATA     BIT       RS0
      000000D0H.4 SFRSYM    DATA     BIT       RS1
      00000083H   SFRSYM    DATA     BYTE      DPH
      000000E8H   SFRSYM    DATA     BYTE      SFRPRT12DR
      00000082H   SFRSYM    DATA     BYTE      DPL
      000000F8H   SFRSYM    DATA     BYTE      SFRPRT15DR
      00000086H   SFRSYM    DATA     BYTE      DPS
      000000E9H   SFRSYM    DATA     BYTE      SFRPRT12PS
      00000093H   SFRSYM    DATA     BYTE      DPX
      000000F9H   SFRSYM    DATA     BYTE      SFRPRT15PS
      000000D0H.5 SFRSYM    DATA     BIT       F0
      000000D0H.1 SFRSYM    DATA     BIT       F1
      0000008AH   SFRSYM    DATA     BYTE      SFRPRT0SEL
      000000D0H   SFRSYM    DATA     BYTE      PSW
      000000A2H   SFRSYM    DATA     BYTE      SFRPRT1SEL
      0000009AH   SFRSYM    DATA     BYTE      SFRPRT2SEL
      000000B2H   SFRSYM    DATA     BYTE      SFRPRT3SEL
      000000C2H   SFRSYM    DATA     BYTE      SFRPRT4SEL
      00000007H   SYMBOL    DATA     BYTE      wait
      00000007H   SYMBOL    DATA     BYTE      pDiv
      00000005H   SYMBOL    DATA     BYTE      qDiv
      00000003H   SYMBOL    DATA     BYTE      current
      00000007H   SYMBOL    DATA     BYTE      source
      00000007H   SYMBOL    DATA     BYTE      wait
      00000007H   SYMBOL    DATA     BYTE      poweredOn
      00000006H   SYMBOL    DATA     BYTE      freq
      00000007H   SYMBOL    DATA     BYTE      source
      00000007H   SYMBOL    DATA     BYTE      source
      00000007H   SYMBOL    DATA     BYTE      divider
      00000006H   SYMBOL    DATA     WORD      divider
LX51 LINKER/LOCATER V4.64.0.0                                                         10/24/2019  10:28:13  PAGE 21


      00000005H   SYMBOL    DATA     BYTE      masterClkDiv
      00000006H   SYMBOL    DATA     WORD      busClkDiv
      00000001H   SYMBOL    DATA     BYTE      interruptState
      00000007H   SYMBOL    DATA     BYTE      divider
      00000007H   SYMBOL    DATA     BYTE      source
      00000007H   SYMBOL    DATA     BYTE      source
      00000007H   SYMBOL    DATA     BYTE      mode
      00000006H   SYMBOL    DATA     BYTE      state
      00000007H   SYMBOL    DATA     BYTE      mode
      00000007H   SYMBOL    DATA     BYTE      wait
      00000007H   SYMBOL    DATA     BYTE      setting
      00000007H   SYMBOL    DATA     BYTE      setting
      00000007H   SYMBOL    DATA     BYTE      setting
      00000000H   SYMBOL    XSTK     BYTE      reason

      010007D2H   BLOCK     CODE     ---       LVL=0
      00000000H   SYMBOL    XSTK     DWORD     milliseconds
      010007D2H   LINE      CODE     ---       #1459
      010007DBH   LINE      CODE     ---       #1461
      010007EDH   LINE      CODE     ---       #1462
      010007EDH   LINE      CODE     ---       #1467
      010007F6H   LINE      CODE     ---       #1468
      01000819H   LINE      CODE     ---       #1469
      0100081BH   LINE      CODE     ---       #1471
      01000830H   LINE      CODE     ---       #1472
      ---         BLOCKEND  ---      ---       LVL=0
      00000000H   SYMBOL    XSTK     DWORD     freq
      00000007H   SYMBOL    DATA     BYTE      ticks
      00000005H   SYMBOL    DATA     BYTE      lpMode
      02000043H   SYMBOL    XDATA    BYTE      interruptStatus
      00000005H   SYMBOL    DATA     BYTE      interruptState
      00000005H   SYMBOL    DATA     BYTE      interruptState
      00000003H   SYMBOL    DATA     BYTE      interruptState

      01000B1EH   BLOCK     CODE     ---       LVL=0
      01000B1EH   LINE      CODE     ---       #2304
      01000B1EH   LINE      CODE     ---       #2310
      01000B1EH   LINE      CODE     ---       #2311
      01000B1EH   LINE      CODE     ---       #2316
      ---         BLOCKEND  ---      ---       LVL=0

      01000967H   BLOCK     CODE     ---       LVL=0
      01000967H   BLOCK     CODE     NEAR LAB  LVL=1
      02000052H   SYMBOL    XDATA    BYTE      i
      ---         BLOCKEND  ---      ---       LVL=1
      01000967H   LINE      CODE     ---       #2328
      01000967H   LINE      CODE     ---       #2329
      01000967H   LINE      CODE     ---       #2332
      01000976H   LINE      CODE     ---       #2333
      01000976H   LINE      CODE     ---       #2334
      0100098EH   LINE      CODE     ---       #2335
      01000996H   LINE      CODE     ---       #2336
      ---         BLOCKEND  ---      ---       LVL=0
      00000007H   SYMBOL    DATA     BYTE      number
      00000004H   SYMBOL    DATA     BYTE      number
      00000005H   SYMBOL    DATA     BYTE      priority
      00000007H   SYMBOL    DATA     BYTE      number
      00000007H   SYMBOL    DATA     BYTE      priority
      00000005H   SYMBOL    DATA     BYTE      number
      00000006H   SYMBOL    DATA     ---       stateReg

      ---         MODULE    ---      ---       CYBOOTASMKEIL
      01000A00H   PUBLIC    CODE     NEAR LAB  _CyDelayCycles
      01000998H   PUBLIC    CODE     NEAR LAB  _CyDelayUs
      000000D0H.6 SFRSYM    DATA     BIT       AC
LX51 LINKER/LOCATER V4.64.0.0                                                         10/24/2019  10:28:13  PAGE 22


      000000E0H   SFRSYM    DATA     BYTE      ACC
      000000F0H   SFRSYM    DATA     BYTE      B
      000000D0H.7 SFRSYM    DATA     BIT       CY
      00000083H   SFRSYM    DATA     BYTE      DPH
      00000085H   SFRSYM    DATA     BYTE      DPH1
      00000082H   SFRSYM    DATA     BYTE      DPL
      00000084H   SFRSYM    DATA     BYTE      DPL1
      00000086H   SFRSYM    DATA     BYTE      DPS
      00000093H   SFRSYM    DATA     BYTE      DPX
      00000095H   SFRSYM    DATA     BYTE      DPX1
      000000A8H.7 SFRSYM    DATA     BIT       EA
      000000D0H.5 SFRSYM    DATA     BIT       F0
      000000D0H.1 SFRSYM    DATA     BIT       F1
      000000A8H   SFRSYM    DATA     BYTE      IE
      000000EAH   SFRSYM    DATA     BYTE      MXAX
      000000D0H.2 SFRSYM    DATA     BIT       OV
      000000D0H   SFRSYM    DATA     BIT       P
      000000A0H   SFRSYM    DATA     BYTE      P2AX
      000000D0H   SFRSYM    DATA     BYTE      PSW
      000000D0H.3 SFRSYM    DATA     BIT       RS0
      000000D0H.4 SFRSYM    DATA     BIT       RS1
      00000080H   SFRSYM    DATA     BYTE      SFRPRT0DR
      00000089H   SFRSYM    DATA     BYTE      SFRPRT0PS
      0000008AH   SFRSYM    DATA     BYTE      SFRPRT0SEL
      000000E8H   SFRSYM    DATA     BYTE      SFRPRT12DR
      000000E9H   SFRSYM    DATA     BYTE      SFRPRT12PS
      000000F2H   SFRSYM    DATA     BYTE      SFRPRT12SEL
      000000F8H   SFRSYM    DATA     BYTE      SFRPRT15DR
      000000F9H   SFRSYM    DATA     BYTE      SFRPRT15PS
      000000FAH   SFRSYM    DATA     BYTE      SFRPRT15SEL
      00000090H   SFRSYM    DATA     BYTE      SFRPRT1DR
      00000091H   SFRSYM    DATA     BYTE      SFRPRT1PS
      000000A2H   SFRSYM    DATA     BYTE      SFRPRT1SEL
      00000098H   SFRSYM    DATA     BYTE      SFRPRT2DR
      00000099H   SFRSYM    DATA     BYTE      SFRPRT2PS
      0000009AH   SFRSYM    DATA     BYTE      SFRPRT2SEL
      000000B0H   SFRSYM    DATA     BYTE      SFRPRT3DR
      000000B1H   SFRSYM    DATA     BYTE      SFRPRT3PS
      000000B2H   SFRSYM    DATA     BYTE      SFRPRT3SEL
      000000C0H   SFRSYM    DATA     BYTE      SFRPRT4DR
      000000C1H   SFRSYM    DATA     BYTE      SFRPRT4PS
      000000C2H   SFRSYM    DATA     BYTE      SFRPRT4SEL
      000000C8H   SFRSYM    DATA     BYTE      SFRPRT5DR
      000000C9H   SFRSYM    DATA     BYTE      SFRPRT5PS
      000000CAH   SFRSYM    DATA     BYTE      SFRPRT5SEL
      000000D8H   SFRSYM    DATA     BYTE      SFRPRT6DR
      000000D9H   SFRSYM    DATA     BYTE      SFRPRT6PS
      000000DAH   SFRSYM    DATA     BYTE      SFRPRT6SEL
      00000081H   SFRSYM    DATA     BYTE      SP
      016E3600H   SYMBOL    NUMBER   ---       BCLK__BUS_CLK__HZ
      00005DC0H   SYMBOL    NUMBER   ---       BCLK__BUS_CLK__KHZ
      00000018H   SYMBOL    NUMBER   ---       BCLK__BUS_CLK__MHZ
      00000010H   SYMBOL    NUMBER   ---       CYCLK_DUTY
      00000020H   SYMBOL    NUMBER   ---       CYCLK_EARLY
      00000004H   SYMBOL    NUMBER   ---       CYCLK_LD_DISABLE
      00000001H   SYMBOL    NUMBER   ---       CYCLK_LD_LOAD
      00000002H   SYMBOL    NUMBER   ---       CYCLK_LD_SYNC_EN
      00000080H   SYMBOL    NUMBER   ---       CYCLK_PIPE
      00000000H   SYMBOL    NUMBER   ---       CYCLK_SRC_SEL_CLK_SYNC_A
      00000000H   SYMBOL    NUMBER   ---       CYCLK_SRC_SEL_CLK_SYNC_D
      00000007H   SYMBOL    NUMBER   ---       CYCLK_SRC_SEL_DSI_A
      00000007H   SYMBOL    NUMBER   ---       CYCLK_SRC_SEL_DSI_D
      00000006H   SYMBOL    NUMBER   ---       CYCLK_SRC_SEL_DSI_G
      00000003H   SYMBOL    NUMBER   ---       CYCLK_SRC_SEL_ILO
      00000001H   SYMBOL    NUMBER   ---       CYCLK_SRC_SEL_IMO
LX51 LINKER/LOCATER V4.64.0.0                                                         10/24/2019  10:28:13  PAGE 23


      00000004H   SYMBOL    NUMBER   ---       CYCLK_SRC_SEL_PLL
      00000000H   SYMBOL    NUMBER   ---       CYCLK_SRC_SEL_SYNC_DIG
      00000005H   SYMBOL    NUMBER   ---       CYCLK_SRC_SEL_XTALK
      00000002H   SYMBOL    NUMBER   ---       CYCLK_SRC_SEL_XTALM
      00000005H   SYMBOL    NUMBER   ---       CYCLK_SRC_SEL_XTAL_KHZ
      00000002H   SYMBOL    NUMBER   ---       CYCLK_SRC_SEL_XTAL_MHZ
      00000040H   SYMBOL    NUMBER   ---       CYCLK_SSS
      00000008H   SYMBOL    NUMBER   ---       CYCLK_SYNC
      00005800H   SYMBOL    NUMBER   ---       CYDEV_ANAIF_BASE
      00005800H   SYMBOL    NUMBER   ---       CYDEV_ANAIF_CFG_BASE
      0000586CH   SYMBOL    NUMBER   ---       CYDEV_ANAIF_CFG_BG_BASE
      0000586CH   SYMBOL    NUMBER   ---       CYDEV_ANAIF_CFG_BG_CR0
      0000586EH   SYMBOL    NUMBER   ---       CYDEV_ANAIF_CFG_BG_DFT0
      0000586FH   SYMBOL    NUMBER   ---       CYDEV_ANAIF_CFG_BG_DFT1
      0000586DH   SYMBOL    NUMBER   ---       CYDEV_ANAIF_CFG_BG_RSVD
      00000004H   SYMBOL    NUMBER   ---       CYDEV_ANAIF_CFG_BG_SIZE
      00005870H   SYMBOL    NUMBER   ---       CYDEV_ANAIF_CFG_CAPSL_BASE
      00005870H   SYMBOL    NUMBER   ---       CYDEV_ANAIF_CFG_CAPSL_CFG0
      00005871H   SYMBOL    NUMBER   ---       CYDEV_ANAIF_CFG_CAPSL_CFG1
      00000002H   SYMBOL    NUMBER   ---       CYDEV_ANAIF_CFG_CAPSL_SIZE
      00005872H   SYMBOL    NUMBER   ---       CYDEV_ANAIF_CFG_CAPSR_BASE
      00005872H   SYMBOL    NUMBER   ---       CYDEV_ANAIF_CFG_CAPSR_CFG0
      00005873H   SYMBOL    NUMBER   ---       CYDEV_ANAIF_CFG_CAPSR_CFG1
      00000002H   SYMBOL    NUMBER   ---       CYDEV_ANAIF_CFG_CAPSR_SIZE
      00005840H   SYMBOL    NUMBER   ---       CYDEV_ANAIF_CFG_CMP0_BASE
      00005840H   SYMBOL    NUMBER   ---       CYDEV_ANAIF_CFG_CMP0_CR
      00000001H   SYMBOL    NUMBER   ---       CYDEV_ANAIF_CFG_CMP0_SIZE
      00005841H   SYMBOL    NUMBER   ---       CYDEV_ANAIF_CFG_CMP1_BASE
      00005841H   SYMBOL    NUMBER   ---       CYDEV_ANAIF_CFG_CMP1_CR
      00000001H   SYMBOL    NUMBER   ---       CYDEV_ANAIF_CFG_CMP1_SIZE
      00005842H   SYMBOL    NUMBER   ---       CYDEV_ANAIF_CFG_CMP2_BASE
      00005842H   SYMBOL    NUMBER   ---       CYDEV_ANAIF_CFG_CMP2_CR
      00000001H   SYMBOL    NUMBER   ---       CYDEV_ANAIF_CFG_CMP2_SIZE
      00005843H   SYMBOL    NUMBER   ---       CYDEV_ANAIF_CFG_CMP3_BASE
      00005843H   SYMBOL    NUMBER   ---       CYDEV_ANAIF_CFG_CMP3_CR
      00000001H   SYMBOL    NUMBER   ---       CYDEV_ANAIF_CFG_CMP3_SIZE
      00005820H   SYMBOL    NUMBER   ---       CYDEV_ANAIF_CFG_DAC0_BASE
      00005820H   SYMBOL    NUMBER   ---       CYDEV_ANAIF_CFG_DAC0_CR0
      00005821H   SYMBOL    NUMBER   ---       CYDEV_ANAIF_CFG_DAC0_CR1
      00000003H   SYMBOL    NUMBER   ---       CYDEV_ANAIF_CFG_DAC0_SIZE
      00005822H   SYMBOL    NUMBER   ---       CYDEV_ANAIF_CFG_DAC0_TST
      00005824H   SYMBOL    NUMBER   ---       CYDEV_ANAIF_CFG_DAC1_BASE
      00005824H   SYMBOL    NUMBER   ---       CYDEV_ANAIF_CFG_DAC1_CR0
      00005825H   SYMBOL    NUMBER   ---       CYDEV_ANAIF_CFG_DAC1_CR1
      00000003H   SYMBOL    NUMBER   ---       CYDEV_ANAIF_CFG_DAC1_SIZE
      00005826H   SYMBOL    NUMBER   ---       CYDEV_ANAIF_CFG_DAC1_TST
      00005828H   SYMBOL    NUMBER   ---       CYDEV_ANAIF_CFG_DAC2_BASE
      00005828H   SYMBOL    NUMBER   ---       CYDEV_ANAIF_CFG_DAC2_CR0
      00005829H   SYMBOL    NUMBER   ---       CYDEV_ANAIF_CFG_DAC2_CR1
      00000003H   SYMBOL    NUMBER   ---       CYDEV_ANAIF_CFG_DAC2_SIZE
      0000582AH   SYMBOL    NUMBER   ---       CYDEV_ANAIF_CFG_DAC2_TST
      0000582CH   SYMBOL    NUMBER   ---       CYDEV_ANAIF_CFG_DAC3_BASE
      0000582CH   SYMBOL    NUMBER   ---       CYDEV_ANAIF_CFG_DAC3_CR0
      0000582DH   SYMBOL    NUMBER   ---       CYDEV_ANAIF_CFG_DAC3_CR1
      00000003H   SYMBOL    NUMBER   ---       CYDEV_ANAIF_CFG_DAC3_SIZE
      0000582EH   SYMBOL    NUMBER   ---       CYDEV_ANAIF_CFG_DAC3_TST
      00005880H   SYMBOL    NUMBER   ---       CYDEV_ANAIF_CFG_DSM0_BASE
      0000589AH   SYMBOL    NUMBER   ---       CYDEV_ANAIF_CFG_DSM0_BUF0
      0000589BH   SYMBOL    NUMBER   ---       CYDEV_ANAIF_CFG_DSM0_BUF1
      0000589CH   SYMBOL    NUMBER   ---       CYDEV_ANAIF_CFG_DSM0_BUF2
      0000589DH   SYMBOL    NUMBER   ---       CYDEV_ANAIF_CFG_DSM0_BUF3
      00005880H   SYMBOL    NUMBER   ---       CYDEV_ANAIF_CFG_DSM0_CR0
      00005881H   SYMBOL    NUMBER   ---       CYDEV_ANAIF_CFG_DSM0_CR1
      0000588AH   SYMBOL    NUMBER   ---       CYDEV_ANAIF_CFG_DSM0_CR10
      0000588BH   SYMBOL    NUMBER   ---       CYDEV_ANAIF_CFG_DSM0_CR11
LX51 LINKER/LOCATER V4.64.0.0                                                         10/24/2019  10:28:13  PAGE 24


      0000588CH   SYMBOL    NUMBER   ---       CYDEV_ANAIF_CFG_DSM0_CR12
      0000588DH   SYMBOL    NUMBER   ---       CYDEV_ANAIF_CFG_DSM0_CR13
      0000588EH   SYMBOL    NUMBER   ---       CYDEV_ANAIF_CFG_DSM0_CR14
      0000588FH   SYMBOL    NUMBER   ---       CYDEV_ANAIF_CFG_DSM0_CR15
      00005890H   SYMBOL    NUMBER   ---       CYDEV_ANAIF_CFG_DSM0_CR16
      00005891H   SYMBOL    NUMBER   ---       CYDEV_ANAIF_CFG_DSM0_CR17
      00005882H   SYMBOL    NUMBER   ---       CYDEV_ANAIF_CFG_DSM0_CR2
      00005883H   SYMBOL    NUMBER   ---       CYDEV_ANAIF_CFG_DSM0_CR3
      00005884H   SYMBOL    NUMBER   ---       CYDEV_ANAIF_CFG_DSM0_CR4
      00005885H   SYMBOL    NUMBER   ---       CYDEV_ANAIF_CFG_DSM0_CR5
      00005886H   SYMBOL    NUMBER   ---       CYDEV_ANAIF_CFG_DSM0_CR6
      00005887H   SYMBOL    NUMBER   ---       CYDEV_ANAIF_CFG_DSM0_CR7
      00005888H   SYMBOL    NUMBER   ---       CYDEV_ANAIF_CFG_DSM0_CR8
      00005889H   SYMBOL    NUMBER   ---       CYDEV_ANAIF_CFG_DSM0_CR9
      00005896H   SYMBOL    NUMBER   ---       CYDEV_ANAIF_CFG_DSM0_DEM0
      00005897H   SYMBOL    NUMBER   ---       CYDEV_ANAIF_CFG_DSM0_DEM1
      0000589EH   SYMBOL    NUMBER   ---       CYDEV_ANAIF_CFG_DSM0_MISC
      00005892H   SYMBOL    NUMBER   ---       CYDEV_ANAIF_CFG_DSM0_REF0
      00005893H   SYMBOL    NUMBER   ---       CYDEV_ANAIF_CFG_DSM0_REF1
      00005894H   SYMBOL    NUMBER   ---       CYDEV_ANAIF_CFG_DSM0_REF2
      00005895H   SYMBOL    NUMBER   ---       CYDEV_ANAIF_CFG_DSM0_REF3
      0000589FH   SYMBOL    NUMBER   ---       CYDEV_ANAIF_CFG_DSM0_RSVD1
      00000020H   SYMBOL    NUMBER   ---       CYDEV_ANAIF_CFG_DSM0_SIZE
      00005898H   SYMBOL    NUMBER   ---       CYDEV_ANAIF_CFG_DSM0_TST0
      00005899H   SYMBOL    NUMBER   ---       CYDEV_ANAIF_CFG_DSM0_TST1
      00005868H   SYMBOL    NUMBER   ---       CYDEV_ANAIF_CFG_LCDDAC_BASE
      00005868H   SYMBOL    NUMBER   ---       CYDEV_ANAIF_CFG_LCDDAC_CR0
      00005869H   SYMBOL    NUMBER   ---       CYDEV_ANAIF_CFG_LCDDAC_CR1
      00000002H   SYMBOL    NUMBER   ---       CYDEV_ANAIF_CFG_LCDDAC_SIZE
      0000586AH   SYMBOL    NUMBER   ---       CYDEV_ANAIF_CFG_LCDDRV_BASE
      0000586AH   SYMBOL    NUMBER   ---       CYDEV_ANAIF_CFG_LCDDRV_CR
      00000001H   SYMBOL    NUMBER   ---       CYDEV_ANAIF_CFG_LCDDRV_SIZE
      0000586BH   SYMBOL    NUMBER   ---       CYDEV_ANAIF_CFG_LCDTMR_BASE
      0000586BH   SYMBOL    NUMBER   ---       CYDEV_ANAIF_CFG_LCDTMR_CFG
      00000001H   SYMBOL    NUMBER   ---       CYDEV_ANAIF_CFG_LCDTMR_SIZE
      00005878H   SYMBOL    NUMBER   ---       CYDEV_ANAIF_CFG_LPF0_BASE
      00005878H   SYMBOL    NUMBER   ---       CYDEV_ANAIF_CFG_LPF0_CR0
      00005879H   SYMBOL    NUMBER   ---       CYDEV_ANAIF_CFG_LPF0_RSVD
      00000002H   SYMBOL    NUMBER   ---       CYDEV_ANAIF_CFG_LPF0_SIZE
      0000587AH   SYMBOL    NUMBER   ---       CYDEV_ANAIF_CFG_LPF1_BASE
      0000587AH   SYMBOL    NUMBER   ---       CYDEV_ANAIF_CFG_LPF1_CR0
      0000587BH   SYMBOL    NUMBER   ---       CYDEV_ANAIF_CFG_LPF1_RSVD
      00000002H   SYMBOL    NUMBER   ---       CYDEV_ANAIF_CFG_LPF1_SIZE
      00005848H   SYMBOL    NUMBER   ---       CYDEV_ANAIF_CFG_LUT0_BASE
      00005848H   SYMBOL    NUMBER   ---       CYDEV_ANAIF_CFG_LUT0_CR
      00005849H   SYMBOL    NUMBER   ---       CYDEV_ANAIF_CFG_LUT0_MX
      00000002H   SYMBOL    NUMBER   ---       CYDEV_ANAIF_CFG_LUT0_SIZE
      0000584AH   SYMBOL    NUMBER   ---       CYDEV_ANAIF_CFG_LUT1_BASE
      0000584AH   SYMBOL    NUMBER   ---       CYDEV_ANAIF_CFG_LUT1_CR
      0000584BH   SYMBOL    NUMBER   ---       CYDEV_ANAIF_CFG_LUT1_MX
      00000002H   SYMBOL    NUMBER   ---       CYDEV_ANAIF_CFG_LUT1_SIZE
      0000584CH   SYMBOL    NUMBER   ---       CYDEV_ANAIF_CFG_LUT2_BASE
      0000584CH   SYMBOL    NUMBER   ---       CYDEV_ANAIF_CFG_LUT2_CR
      0000584DH   SYMBOL    NUMBER   ---       CYDEV_ANAIF_CFG_LUT2_MX
      00000002H   SYMBOL    NUMBER   ---       CYDEV_ANAIF_CFG_LUT2_SIZE
      0000584EH   SYMBOL    NUMBER   ---       CYDEV_ANAIF_CFG_LUT3_BASE
      0000584EH   SYMBOL    NUMBER   ---       CYDEV_ANAIF_CFG_LUT3_CR
      0000584FH   SYMBOL    NUMBER   ---       CYDEV_ANAIF_CFG_LUT3_MX
      00000002H   SYMBOL    NUMBER   ---       CYDEV_ANAIF_CFG_LUT3_SIZE
      0000587CH   SYMBOL    NUMBER   ---       CYDEV_ANAIF_CFG_MISC_BASE
      0000587CH   SYMBOL    NUMBER   ---       CYDEV_ANAIF_CFG_MISC_CR0
      00000001H   SYMBOL    NUMBER   ---       CYDEV_ANAIF_CFG_MISC_SIZE
      00005858H   SYMBOL    NUMBER   ---       CYDEV_ANAIF_CFG_OPAMP0_BASE
      00005858H   SYMBOL    NUMBER   ---       CYDEV_ANAIF_CFG_OPAMP0_CR
      00005859H   SYMBOL    NUMBER   ---       CYDEV_ANAIF_CFG_OPAMP0_RSVD
LX51 LINKER/LOCATER V4.64.0.0                                                         10/24/2019  10:28:13  PAGE 25


      00000002H   SYMBOL    NUMBER   ---       CYDEV_ANAIF_CFG_OPAMP0_SIZE
      0000585AH   SYMBOL    NUMBER   ---       CYDEV_ANAIF_CFG_OPAMP1_BASE
      0000585AH   SYMBOL    NUMBER   ---       CYDEV_ANAIF_CFG_OPAMP1_CR
      0000585BH   SYMBOL    NUMBER   ---       CYDEV_ANAIF_CFG_OPAMP1_RSVD
      00000002H   SYMBOL    NUMBER   ---       CYDEV_ANAIF_CFG_OPAMP1_SIZE
      0000585CH   SYMBOL    NUMBER   ---       CYDEV_ANAIF_CFG_OPAMP2_BASE
      0000585CH   SYMBOL    NUMBER   ---       CYDEV_ANAIF_CFG_OPAMP2_CR
      0000585DH   SYMBOL    NUMBER   ---       CYDEV_ANAIF_CFG_OPAMP2_RSVD
      00000002H   SYMBOL    NUMBER   ---       CYDEV_ANAIF_CFG_OPAMP2_SIZE
      0000585EH   SYMBOL    NUMBER   ---       CYDEV_ANAIF_CFG_OPAMP3_BASE
      0000585EH   SYMBOL    NUMBER   ---       CYDEV_ANAIF_CFG_OPAMP3_CR
      0000585FH   SYMBOL    NUMBER   ---       CYDEV_ANAIF_CFG_OPAMP3_RSVD
      00000002H   SYMBOL    NUMBER   ---       CYDEV_ANAIF_CFG_OPAMP3_SIZE
      00005876H   SYMBOL    NUMBER   ---       CYDEV_ANAIF_CFG_PUMP_BASE
      00005876H   SYMBOL    NUMBER   ---       CYDEV_ANAIF_CFG_PUMP_CR0
      00005877H   SYMBOL    NUMBER   ---       CYDEV_ANAIF_CFG_PUMP_CR1
      00000002H   SYMBOL    NUMBER   ---       CYDEV_ANAIF_CFG_PUMP_SIZE
      00005800H   SYMBOL    NUMBER   ---       CYDEV_ANAIF_CFG_SC0_BASE
      00005800H   SYMBOL    NUMBER   ---       CYDEV_ANAIF_CFG_SC0_CR0
      00005801H   SYMBOL    NUMBER   ---       CYDEV_ANAIF_CFG_SC0_CR1
      00005802H   SYMBOL    NUMBER   ---       CYDEV_ANAIF_CFG_SC0_CR2
      00000003H   SYMBOL    NUMBER   ---       CYDEV_ANAIF_CFG_SC0_SIZE
      00005804H   SYMBOL    NUMBER   ---       CYDEV_ANAIF_CFG_SC1_BASE
      00005804H   SYMBOL    NUMBER   ---       CYDEV_ANAIF_CFG_SC1_CR0
      00005805H   SYMBOL    NUMBER   ---       CYDEV_ANAIF_CFG_SC1_CR1
      00005806H   SYMBOL    NUMBER   ---       CYDEV_ANAIF_CFG_SC1_CR2
      00000003H   SYMBOL    NUMBER   ---       CYDEV_ANAIF_CFG_SC1_SIZE
      00005808H   SYMBOL    NUMBER   ---       CYDEV_ANAIF_CFG_SC2_BASE
      00005808H   SYMBOL    NUMBER   ---       CYDEV_ANAIF_CFG_SC2_CR0
      00005809H   SYMBOL    NUMBER   ---       CYDEV_ANAIF_CFG_SC2_CR1
      0000580AH   SYMBOL    NUMBER   ---       CYDEV_ANAIF_CFG_SC2_CR2
      00000003H   SYMBOL    NUMBER   ---       CYDEV_ANAIF_CFG_SC2_SIZE
      0000580CH   SYMBOL    NUMBER   ---       CYDEV_ANAIF_CFG_SC3_BASE
      0000580CH   SYMBOL    NUMBER   ---       CYDEV_ANAIF_CFG_SC3_CR0
      0000580DH   SYMBOL    NUMBER   ---       CYDEV_ANAIF_CFG_SC3_CR1
      0000580EH   SYMBOL    NUMBER   ---       CYDEV_ANAIF_CFG_SC3_CR2
      00000003H   SYMBOL    NUMBER   ---       CYDEV_ANAIF_CFG_SC3_SIZE
      000000A0H   SYMBOL    NUMBER   ---       CYDEV_ANAIF_CFG_SIZE
      00005A00H   SYMBOL    NUMBER   ---       CYDEV_ANAIF_RT_BASE
      00005B58H   SYMBOL    NUMBER   ---       CYDEV_ANAIF_RT_BUS_BASE
      00000004H   SYMBOL    NUMBER   ---       CYDEV_ANAIF_RT_BUS_SIZE
      00005B58H   SYMBOL    NUMBER   ---       CYDEV_ANAIF_RT_BUS_SW0
      00005B5AH   SYMBOL    NUMBER   ---       CYDEV_ANAIF_RT_BUS_SW2
      00005B5BH   SYMBOL    NUMBER   ---       CYDEV_ANAIF_RT_BUS_SW3
      00005AC0H   SYMBOL    NUMBER   ---       CYDEV_ANAIF_RT_CMP0_BASE
      00005AC7H   SYMBOL    NUMBER   ---       CYDEV_ANAIF_RT_CMP0_CLK
      00000008H   SYMBOL    NUMBER   ---       CYDEV_ANAIF_RT_CMP0_SIZE
      00005AC0H   SYMBOL    NUMBER   ---       CYDEV_ANAIF_RT_CMP0_SW0
      00005AC2H   SYMBOL    NUMBER   ---       CYDEV_ANAIF_RT_CMP0_SW2
      00005AC3H   SYMBOL    NUMBER   ---       CYDEV_ANAIF_RT_CMP0_SW3
      00005AC4H   SYMBOL    NUMBER   ---       CYDEV_ANAIF_RT_CMP0_SW4
      00005AC6H   SYMBOL    NUMBER   ---       CYDEV_ANAIF_RT_CMP0_SW6
      00005AC8H   SYMBOL    NUMBER   ---       CYDEV_ANAIF_RT_CMP1_BASE
      00005ACFH   SYMBOL    NUMBER   ---       CYDEV_ANAIF_RT_CMP1_CLK
      00000008H   SYMBOL    NUMBER   ---       CYDEV_ANAIF_RT_CMP1_SIZE
      00005AC8H   SYMBOL    NUMBER   ---       CYDEV_ANAIF_RT_CMP1_SW0
      00005ACAH   SYMBOL    NUMBER   ---       CYDEV_ANAIF_RT_CMP1_SW2
      00005ACBH   SYMBOL    NUMBER   ---       CYDEV_ANAIF_RT_CMP1_SW3
      00005ACCH   SYMBOL    NUMBER   ---       CYDEV_ANAIF_RT_CMP1_SW4
      00005ACEH   SYMBOL    NUMBER   ---       CYDEV_ANAIF_RT_CMP1_SW6
      00005AD0H   SYMBOL    NUMBER   ---       CYDEV_ANAIF_RT_CMP2_BASE
      00005AD7H   SYMBOL    NUMBER   ---       CYDEV_ANAIF_RT_CMP2_CLK
      00000008H   SYMBOL    NUMBER   ---       CYDEV_ANAIF_RT_CMP2_SIZE
      00005AD0H   SYMBOL    NUMBER   ---       CYDEV_ANAIF_RT_CMP2_SW0
      00005AD2H   SYMBOL    NUMBER   ---       CYDEV_ANAIF_RT_CMP2_SW2
LX51 LINKER/LOCATER V4.64.0.0                                                         10/24/2019  10:28:13  PAGE 26


      00005AD3H   SYMBOL    NUMBER   ---       CYDEV_ANAIF_RT_CMP2_SW3
      00005AD4H   SYMBOL    NUMBER   ---       CYDEV_ANAIF_RT_CMP2_SW4
      00005AD6H   SYMBOL    NUMBER   ---       CYDEV_ANAIF_RT_CMP2_SW6
      00005AD8H   SYMBOL    NUMBER   ---       CYDEV_ANAIF_RT_CMP3_BASE
      00005ADFH   SYMBOL    NUMBER   ---       CYDEV_ANAIF_RT_CMP3_CLK
      00000008H   SYMBOL    NUMBER   ---       CYDEV_ANAIF_RT_CMP3_SIZE
      00005AD8H   SYMBOL    NUMBER   ---       CYDEV_ANAIF_RT_CMP3_SW0
      00005ADAH   SYMBOL    NUMBER   ---       CYDEV_ANAIF_RT_CMP3_SW2
      00005ADBH   SYMBOL    NUMBER   ---       CYDEV_ANAIF_RT_CMP3_SW3
      00005ADCH   SYMBOL    NUMBER   ---       CYDEV_ANAIF_RT_CMP3_SW4
      00005ADEH   SYMBOL    NUMBER   ---       CYDEV_ANAIF_RT_CMP3_SW6
      00005A80H   SYMBOL    NUMBER   ---       CYDEV_ANAIF_RT_DAC0_BASE
      00000008H   SYMBOL    NUMBER   ---       CYDEV_ANAIF_RT_DAC0_SIZE
      00005A87H   SYMBOL    NUMBER   ---       CYDEV_ANAIF_RT_DAC0_STROBE
      00005A80H   SYMBOL    NUMBER   ---       CYDEV_ANAIF_RT_DAC0_SW0
      00005A82H   SYMBOL    NUMBER   ---       CYDEV_ANAIF_RT_DAC0_SW2
      00005A83H   SYMBOL    NUMBER   ---       CYDEV_ANAIF_RT_DAC0_SW3
      00005A84H   SYMBOL    NUMBER   ---       CYDEV_ANAIF_RT_DAC0_SW4
      00005A88H   SYMBOL    NUMBER   ---       CYDEV_ANAIF_RT_DAC1_BASE
      00000008H   SYMBOL    NUMBER   ---       CYDEV_ANAIF_RT_DAC1_SIZE
      00005A8FH   SYMBOL    NUMBER   ---       CYDEV_ANAIF_RT_DAC1_STROBE
      00005A88H   SYMBOL    NUMBER   ---       CYDEV_ANAIF_RT_DAC1_SW0
      00005A8AH   SYMBOL    NUMBER   ---       CYDEV_ANAIF_RT_DAC1_SW2
      00005A8BH   SYMBOL    NUMBER   ---       CYDEV_ANAIF_RT_DAC1_SW3
      00005A8CH   SYMBOL    NUMBER   ---       CYDEV_ANAIF_RT_DAC1_SW4
      00005A90H   SYMBOL    NUMBER   ---       CYDEV_ANAIF_RT_DAC2_BASE
      00000008H   SYMBOL    NUMBER   ---       CYDEV_ANAIF_RT_DAC2_SIZE
      00005A97H   SYMBOL    NUMBER   ---       CYDEV_ANAIF_RT_DAC2_STROBE
      00005A90H   SYMBOL    NUMBER   ---       CYDEV_ANAIF_RT_DAC2_SW0
      00005A92H   SYMBOL    NUMBER   ---       CYDEV_ANAIF_RT_DAC2_SW2
      00005A93H   SYMBOL    NUMBER   ---       CYDEV_ANAIF_RT_DAC2_SW3
      00005A94H   SYMBOL    NUMBER   ---       CYDEV_ANAIF_RT_DAC2_SW4
      00005A98H   SYMBOL    NUMBER   ---       CYDEV_ANAIF_RT_DAC3_BASE
      00000008H   SYMBOL    NUMBER   ---       CYDEV_ANAIF_RT_DAC3_SIZE
      00005A9FH   SYMBOL    NUMBER   ---       CYDEV_ANAIF_RT_DAC3_STROBE
      00005A98H   SYMBOL    NUMBER   ---       CYDEV_ANAIF_RT_DAC3_SW0
      00005A9AH   SYMBOL    NUMBER   ---       CYDEV_ANAIF_RT_DAC3_SW2
      00005A9BH   SYMBOL    NUMBER   ---       CYDEV_ANAIF_RT_DAC3_SW3
      00005A9CH   SYMBOL    NUMBER   ---       CYDEV_ANAIF_RT_DAC3_SW4
      00005B5CH   SYMBOL    NUMBER   ---       CYDEV_ANAIF_RT_DFT_BASE
      00005B5CH   SYMBOL    NUMBER   ---       CYDEV_ANAIF_RT_DFT_CR0
      00005B5DH   SYMBOL    NUMBER   ---       CYDEV_ANAIF_RT_DFT_CR1
      00005B5EH   SYMBOL    NUMBER   ---       CYDEV_ANAIF_RT_DFT_CR2
      00005B5FH   SYMBOL    NUMBER   ---       CYDEV_ANAIF_RT_DFT_CR3
      00005B60H   SYMBOL    NUMBER   ---       CYDEV_ANAIF_RT_DFT_CR4
      00005B61H   SYMBOL    NUMBER   ---       CYDEV_ANAIF_RT_DFT_CR5
      00000006H   SYMBOL    NUMBER   ---       CYDEV_ANAIF_RT_DFT_SIZE
      00005B00H   SYMBOL    NUMBER   ---       CYDEV_ANAIF_RT_DSM0_BASE
      00005B07H   SYMBOL    NUMBER   ---       CYDEV_ANAIF_RT_DSM0_CLK
      00000008H   SYMBOL    NUMBER   ---       CYDEV_ANAIF_RT_DSM0_SIZE
      00005B00H   SYMBOL    NUMBER   ---       CYDEV_ANAIF_RT_DSM0_SW0
      00005B02H   SYMBOL    NUMBER   ---       CYDEV_ANAIF_RT_DSM0_SW2
      00005B03H   SYMBOL    NUMBER   ---       CYDEV_ANAIF_RT_DSM0_SW3
      00005B04H   SYMBOL    NUMBER   ---       CYDEV_ANAIF_RT_DSM0_SW4
      00005B06H   SYMBOL    NUMBER   ---       CYDEV_ANAIF_RT_DSM0_SW6
      00005B50H   SYMBOL    NUMBER   ---       CYDEV_ANAIF_RT_LCDDAC_BASE
      00000005H   SYMBOL    NUMBER   ---       CYDEV_ANAIF_RT_LCDDAC_SIZE
      00005B50H   SYMBOL    NUMBER   ---       CYDEV_ANAIF_RT_LCDDAC_SW0
      00005B51H   SYMBOL    NUMBER   ---       CYDEV_ANAIF_RT_LCDDAC_SW1
      00005B52H   SYMBOL    NUMBER   ---       CYDEV_ANAIF_RT_LCDDAC_SW2
      00005B53H   SYMBOL    NUMBER   ---       CYDEV_ANAIF_RT_LCDDAC_SW3
      00005B54H   SYMBOL    NUMBER   ---       CYDEV_ANAIF_RT_LCDDAC_SW4
      00005B40H   SYMBOL    NUMBER   ---       CYDEV_ANAIF_RT_OPAMP0_BASE
      00005B40H   SYMBOL    NUMBER   ---       CYDEV_ANAIF_RT_OPAMP0_MX
      00000002H   SYMBOL    NUMBER   ---       CYDEV_ANAIF_RT_OPAMP0_SIZE
LX51 LINKER/LOCATER V4.64.0.0                                                         10/24/2019  10:28:13  PAGE 27


      00005B41H   SYMBOL    NUMBER   ---       CYDEV_ANAIF_RT_OPAMP0_SW
      00005B42H   SYMBOL    NUMBER   ---       CYDEV_ANAIF_RT_OPAMP1_BASE
      00005B42H   SYMBOL    NUMBER   ---       CYDEV_ANAIF_RT_OPAMP1_MX
      00000002H   SYMBOL    NUMBER   ---       CYDEV_ANAIF_RT_OPAMP1_SIZE
      00005B43H   SYMBOL    NUMBER   ---       CYDEV_ANAIF_RT_OPAMP1_SW
      00005B44H   SYMBOL    NUMBER   ---       CYDEV_ANAIF_RT_OPAMP2_BASE
      00005B44H   SYMBOL    NUMBER   ---       CYDEV_ANAIF_RT_OPAMP2_MX
      00000002H   SYMBOL    NUMBER   ---       CYDEV_ANAIF_RT_OPAMP2_SIZE
      00005B45H   SYMBOL    NUMBER   ---       CYDEV_ANAIF_RT_OPAMP2_SW
      00005B46H   SYMBOL    NUMBER   ---       CYDEV_ANAIF_RT_OPAMP3_BASE
      00005B46H   SYMBOL    NUMBER   ---       CYDEV_ANAIF_RT_OPAMP3_MX
      00000002H   SYMBOL    NUMBER   ---       CYDEV_ANAIF_RT_OPAMP3_SIZE
      00005B47H   SYMBOL    NUMBER   ---       CYDEV_ANAIF_RT_OPAMP3_SW
      00005A00H   SYMBOL    NUMBER   ---       CYDEV_ANAIF_RT_SC0_BASE
      00005A0CH   SYMBOL    NUMBER   ---       CYDEV_ANAIF_RT_SC0_BST
      00005A0BH   SYMBOL    NUMBER   ---       CYDEV_ANAIF_RT_SC0_CLK
      0000000DH   SYMBOL    NUMBER   ---       CYDEV_ANAIF_RT_SC0_SIZE
      00005A00H   SYMBOL    NUMBER   ---       CYDEV_ANAIF_RT_SC0_SW0
      00005A0AH   SYMBOL    NUMBER   ---       CYDEV_ANAIF_RT_SC0_SW10
      00005A02H   SYMBOL    NUMBER   ---       CYDEV_ANAIF_RT_SC0_SW2
      00005A03H   SYMBOL    NUMBER   ---       CYDEV_ANAIF_RT_SC0_SW3
      00005A04H   SYMBOL    NUMBER   ---       CYDEV_ANAIF_RT_SC0_SW4
      00005A06H   SYMBOL    NUMBER   ---       CYDEV_ANAIF_RT_SC0_SW6
      00005A07H   SYMBOL    NUMBER   ---       CYDEV_ANAIF_RT_SC0_SW7
      00005A08H   SYMBOL    NUMBER   ---       CYDEV_ANAIF_RT_SC0_SW8
      00005A10H   SYMBOL    NUMBER   ---       CYDEV_ANAIF_RT_SC1_BASE
      00005A1CH   SYMBOL    NUMBER   ---       CYDEV_ANAIF_RT_SC1_BST
      00005A1BH   SYMBOL    NUMBER   ---       CYDEV_ANAIF_RT_SC1_CLK
      0000000DH   SYMBOL    NUMBER   ---       CYDEV_ANAIF_RT_SC1_SIZE
      00005A10H   SYMBOL    NUMBER   ---       CYDEV_ANAIF_RT_SC1_SW0
      00005A1AH   SYMBOL    NUMBER   ---       CYDEV_ANAIF_RT_SC1_SW10
      00005A12H   SYMBOL    NUMBER   ---       CYDEV_ANAIF_RT_SC1_SW2
      00005A13H   SYMBOL    NUMBER   ---       CYDEV_ANAIF_RT_SC1_SW3
      00005A14H   SYMBOL    NUMBER   ---       CYDEV_ANAIF_RT_SC1_SW4
      00005A16H   SYMBOL    NUMBER   ---       CYDEV_ANAIF_RT_SC1_SW6
      00005A17H   SYMBOL    NUMBER   ---       CYDEV_ANAIF_RT_SC1_SW7
      00005A18H   SYMBOL    NUMBER   ---       CYDEV_ANAIF_RT_SC1_SW8
      00005A20H   SYMBOL    NUMBER   ---       CYDEV_ANAIF_RT_SC2_BASE
      00005A2CH   SYMBOL    NUMBER   ---       CYDEV_ANAIF_RT_SC2_BST
      00005A2BH   SYMBOL    NUMBER   ---       CYDEV_ANAIF_RT_SC2_CLK
      0000000DH   SYMBOL    NUMBER   ---       CYDEV_ANAIF_RT_SC2_SIZE
      00005A20H   SYMBOL    NUMBER   ---       CYDEV_ANAIF_RT_SC2_SW0
      00005A2AH   SYMBOL    NUMBER   ---       CYDEV_ANAIF_RT_SC2_SW10
      00005A22H   SYMBOL    NUMBER   ---       CYDEV_ANAIF_RT_SC2_SW2
      00005A23H   SYMBOL    NUMBER   ---       CYDEV_ANAIF_RT_SC2_SW3
      00005A24H   SYMBOL    NUMBER   ---       CYDEV_ANAIF_RT_SC2_SW4
      00005A26H   SYMBOL    NUMBER   ---       CYDEV_ANAIF_RT_SC2_SW6
      00005A27H   SYMBOL    NUMBER   ---       CYDEV_ANAIF_RT_SC2_SW7
      00005A28H   SYMBOL    NUMBER   ---       CYDEV_ANAIF_RT_SC2_SW8
      00005A30H   SYMBOL    NUMBER   ---       CYDEV_ANAIF_RT_SC3_BASE
      00005A3CH   SYMBOL    NUMBER   ---       CYDEV_ANAIF_RT_SC3_BST
      00005A3BH   SYMBOL    NUMBER   ---       CYDEV_ANAIF_RT_SC3_CLK
      0000000DH   SYMBOL    NUMBER   ---       CYDEV_ANAIF_RT_SC3_SIZE
      00005A30H   SYMBOL    NUMBER   ---       CYDEV_ANAIF_RT_SC3_SW0
      00005A3AH   SYMBOL    NUMBER   ---       CYDEV_ANAIF_RT_SC3_SW10
      00005A32H   SYMBOL    NUMBER   ---       CYDEV_ANAIF_RT_SC3_SW2
      00005A33H   SYMBOL    NUMBER   ---       CYDEV_ANAIF_RT_SC3_SW3
      00005A34H   SYMBOL    NUMBER   ---       CYDEV_ANAIF_RT_SC3_SW4
      00005A36H   SYMBOL    NUMBER   ---       CYDEV_ANAIF_RT_SC3_SW6
      00005A37H   SYMBOL    NUMBER   ---       CYDEV_ANAIF_RT_SC3_SW7
      00005A38H   SYMBOL    NUMBER   ---       CYDEV_ANAIF_RT_SC3_SW8
      00005B56H   SYMBOL    NUMBER   ---       CYDEV_ANAIF_RT_SC_BASE
      00005B56H   SYMBOL    NUMBER   ---       CYDEV_ANAIF_RT_SC_MISC
      00000001H   SYMBOL    NUMBER   ---       CYDEV_ANAIF_RT_SC_SIZE
      00000162H   SYMBOL    NUMBER   ---       CYDEV_ANAIF_RT_SIZE
LX51 LINKER/LOCATER V4.64.0.0                                                         10/24/2019  10:28:13  PAGE 28


      0000039DH   SYMBOL    NUMBER   ---       CYDEV_ANAIF_SIZE
      00005B80H   SYMBOL    NUMBER   ---       CYDEV_ANAIF_WRK_BASE
      00005B96H   SYMBOL    NUMBER   ---       CYDEV_ANAIF_WRK_CMP_BASE
      00000002H   SYMBOL    NUMBER   ---       CYDEV_ANAIF_WRK_CMP_SIZE
      00005B97H   SYMBOL    NUMBER   ---       CYDEV_ANAIF_WRK_CMP_TST
      00005B96H   SYMBOL    NUMBER   ---       CYDEV_ANAIF_WRK_CMP_WRK
      00005B80H   SYMBOL    NUMBER   ---       CYDEV_ANAIF_WRK_DAC0_BASE
      00005B80H   SYMBOL    NUMBER   ---       CYDEV_ANAIF_WRK_DAC0_D
      00000001H   SYMBOL    NUMBER   ---       CYDEV_ANAIF_WRK_DAC0_SIZE
      00005B81H   SYMBOL    NUMBER   ---       CYDEV_ANAIF_WRK_DAC1_BASE
      00005B81H   SYMBOL    NUMBER   ---       CYDEV_ANAIF_WRK_DAC1_D
      00000001H   SYMBOL    NUMBER   ---       CYDEV_ANAIF_WRK_DAC1_SIZE
      00005B82H   SYMBOL    NUMBER   ---       CYDEV_ANAIF_WRK_DAC2_BASE
      00005B82H   SYMBOL    NUMBER   ---       CYDEV_ANAIF_WRK_DAC2_D
      00000001H   SYMBOL    NUMBER   ---       CYDEV_ANAIF_WRK_DAC2_SIZE
      00005B83H   SYMBOL    NUMBER   ---       CYDEV_ANAIF_WRK_DAC3_BASE
      00005B83H   SYMBOL    NUMBER   ---       CYDEV_ANAIF_WRK_DAC3_D
      00000001H   SYMBOL    NUMBER   ---       CYDEV_ANAIF_WRK_DAC3_SIZE
      00005B88H   SYMBOL    NUMBER   ---       CYDEV_ANAIF_WRK_DSM0_BASE
      00005B88H   SYMBOL    NUMBER   ---       CYDEV_ANAIF_WRK_DSM0_OUT0
      00005B89H   SYMBOL    NUMBER   ---       CYDEV_ANAIF_WRK_DSM0_OUT1
      00000002H   SYMBOL    NUMBER   ---       CYDEV_ANAIF_WRK_DSM0_SIZE
      00005B90H   SYMBOL    NUMBER   ---       CYDEV_ANAIF_WRK_LUT_BASE
      00005B93H   SYMBOL    NUMBER   ---       CYDEV_ANAIF_WRK_LUT_CLK
      00005B94H   SYMBOL    NUMBER   ---       CYDEV_ANAIF_WRK_LUT_CPTR
      00005B92H   SYMBOL    NUMBER   ---       CYDEV_ANAIF_WRK_LUT_MSK
      00000005H   SYMBOL    NUMBER   ---       CYDEV_ANAIF_WRK_LUT_SIZE
      00005B90H   SYMBOL    NUMBER   ---       CYDEV_ANAIF_WRK_LUT_SR
      00005B91H   SYMBOL    NUMBER   ---       CYDEV_ANAIF_WRK_LUT_WRK1
      00005B98H   SYMBOL    NUMBER   ---       CYDEV_ANAIF_WRK_SC_BASE
      00005B9BH   SYMBOL    NUMBER   ---       CYDEV_ANAIF_WRK_SC_CMPINV
      00005B9CH   SYMBOL    NUMBER   ---       CYDEV_ANAIF_WRK_SC_CPTR
      00005B9AH   SYMBOL    NUMBER   ---       CYDEV_ANAIF_WRK_SC_MSK
      00000005H   SYMBOL    NUMBER   ---       CYDEV_ANAIF_WRK_SC_SIZE
      00005B98H   SYMBOL    NUMBER   ---       CYDEV_ANAIF_WRK_SC_SR
      00005B99H   SYMBOL    NUMBER   ---       CYDEV_ANAIF_WRK_SC_WRK1
      0000001DH   SYMBOL    NUMBER   ---       CYDEV_ANAIF_WRK_SIZE
      00004320H   SYMBOL    NUMBER   ---       CYDEV_BOOST_BASE
      00004320H   SYMBOL    NUMBER   ---       CYDEV_BOOST_CR0
      00004321H   SYMBOL    NUMBER   ---       CYDEV_BOOST_CR1
      00004322H   SYMBOL    NUMBER   ---       CYDEV_BOOST_CR2
      00004323H   SYMBOL    NUMBER   ---       CYDEV_BOOST_CR3
      00004325H   SYMBOL    NUMBER   ---       CYDEV_BOOST_CR4
      00000007H   SYMBOL    NUMBER   ---       CYDEV_BOOST_SIZE
      00004324H   SYMBOL    NUMBER   ---       CYDEV_BOOST_SR
      00004326H   SYMBOL    NUMBER   ---       CYDEV_BOOST_SR2
      00000000H   SYMBOL    NUMBER   ---       CYDEV_BOOTLOADER_ENABLE
      00004800H   SYMBOL    NUMBER   ---       CYDEV_CACHE_BASE
      00004800H   SYMBOL    NUMBER   ---       CYDEV_CACHE_CR
      00004868H   SYMBOL    NUMBER   ---       CYDEV_CACHE_INT_LOG0
      00004870H   SYMBOL    NUMBER   ---       CYDEV_CACHE_INT_LOG1
      00004878H   SYMBOL    NUMBER   ---       CYDEV_CACHE_INT_LOG2
      00004880H   SYMBOL    NUMBER   ---       CYDEV_CACHE_INT_LOG3
      00004888H   SYMBOL    NUMBER   ---       CYDEV_CACHE_INT_LOG4
      00004890H   SYMBOL    NUMBER   ---       CYDEV_CACHE_INT_LOG5
      00004858H   SYMBOL    NUMBER   ---       CYDEV_CACHE_INT_MSK
      00004860H   SYMBOL    NUMBER   ---       CYDEV_CACHE_INT_SR
      00004801H   SYMBOL    NUMBER   ---       CYDEV_CACHE_LP_MODE
      00000092H   SYMBOL    NUMBER   ---       CYDEV_CACHE_SIZE
      00004808H   SYMBOL    NUMBER   ---       CYDEV_CACHE_SR
      00004818H   SYMBOL    NUMBER   ---       CYDEV_CACHE_TAG0
      00004820H   SYMBOL    NUMBER   ---       CYDEV_CACHE_TAG1
      00004828H   SYMBOL    NUMBER   ---       CYDEV_CACHE_TAG2
      00004830H   SYMBOL    NUMBER   ---       CYDEV_CACHE_TAG3
      00004838H   SYMBOL    NUMBER   ---       CYDEV_CACHE_TAG4
LX51 LINKER/LOCATER V4.64.0.0                                                         10/24/2019  10:28:13  PAGE 29


      00004840H   SYMBOL    NUMBER   ---       CYDEV_CACHE_TAG5
      00004848H   SYMBOL    NUMBER   ---       CYDEV_CACHE_TAG6
      00004850H   SYMBOL    NUMBER   ---       CYDEV_CACHE_TAG7
      00004810H   SYMBOL    NUMBER   ---       CYDEV_CACHE_TAG_SR
      0000A000H   SYMBOL    NUMBER   ---       CYDEV_CAN0_BASE
      0000A000H   SYMBOL    NUMBER   ---       CYDEV_CAN0_CSR_BASE
      0000A008H   SYMBOL    NUMBER   ---       CYDEV_CAN0_CSR_BUF_SR
      0000A014H   SYMBOL    NUMBER   ---       CYDEV_CAN0_CSR_CFG
      0000A010H   SYMBOL    NUMBER   ---       CYDEV_CAN0_CSR_CMD
      0000A00CH   SYMBOL    NUMBER   ---       CYDEV_CAN0_CSR_ERR_SR
      0000A004H   SYMBOL    NUMBER   ---       CYDEV_CAN0_CSR_INT_EN
      0000A000H   SYMBOL    NUMBER   ---       CYDEV_CAN0_CSR_INT_SR
      00000018H   SYMBOL    NUMBER   ---       CYDEV_CAN0_CSR_SIZE
      0000A0B4H   SYMBOL    NUMBER   ---       CYDEV_CAN0_RX0_ACR
      0000A0BCH   SYMBOL    NUMBER   ---       CYDEV_CAN0_RX0_ACRD
      0000A0B0H   SYMBOL    NUMBER   ---       CYDEV_CAN0_RX0_AMR
      0000A0B8H   SYMBOL    NUMBER   ---       CYDEV_CAN0_RX0_AMRD
      0000A0A0H   SYMBOL    NUMBER   ---       CYDEV_CAN0_RX0_BASE
      0000A0A0H   SYMBOL    NUMBER   ---       CYDEV_CAN0_RX0_CMD
      0000A0A8H   SYMBOL    NUMBER   ---       CYDEV_CAN0_RX0_DH
      0000A0ACH   SYMBOL    NUMBER   ---       CYDEV_CAN0_RX0_DL
      0000A0A4H   SYMBOL    NUMBER   ---       CYDEV_CAN0_RX0_ID
      00000020H   SYMBOL    NUMBER   ---       CYDEV_CAN0_RX0_SIZE
      0000A1F4H   SYMBOL    NUMBER   ---       CYDEV_CAN0_RX10_ACR
      0000A1FCH   SYMBOL    NUMBER   ---       CYDEV_CAN0_RX10_ACRD
      0000A1F0H   SYMBOL    NUMBER   ---       CYDEV_CAN0_RX10_AMR
      0000A1F8H   SYMBOL    NUMBER   ---       CYDEV_CAN0_RX10_AMRD
      0000A1E0H   SYMBOL    NUMBER   ---       CYDEV_CAN0_RX10_BASE
      0000A1E0H   SYMBOL    NUMBER   ---       CYDEV_CAN0_RX10_CMD
      0000A1E8H   SYMBOL    NUMBER   ---       CYDEV_CAN0_RX10_DH
      0000A1ECH   SYMBOL    NUMBER   ---       CYDEV_CAN0_RX10_DL
      0000A1E4H   SYMBOL    NUMBER   ---       CYDEV_CAN0_RX10_ID
      00000020H   SYMBOL    NUMBER   ---       CYDEV_CAN0_RX10_SIZE
      0000A214H   SYMBOL    NUMBER   ---       CYDEV_CAN0_RX11_ACR
      0000A21CH   SYMBOL    NUMBER   ---       CYDEV_CAN0_RX11_ACRD
      0000A210H   SYMBOL    NUMBER   ---       CYDEV_CAN0_RX11_AMR
      0000A218H   SYMBOL    NUMBER   ---       CYDEV_CAN0_RX11_AMRD
      0000A200H   SYMBOL    NUMBER   ---       CYDEV_CAN0_RX11_BASE
      0000A200H   SYMBOL    NUMBER   ---       CYDEV_CAN0_RX11_CMD
      0000A208H   SYMBOL    NUMBER   ---       CYDEV_CAN0_RX11_DH
      0000A20CH   SYMBOL    NUMBER   ---       CYDEV_CAN0_RX11_DL
      0000A204H   SYMBOL    NUMBER   ---       CYDEV_CAN0_RX11_ID
      00000020H   SYMBOL    NUMBER   ---       CYDEV_CAN0_RX11_SIZE
      0000A234H   SYMBOL    NUMBER   ---       CYDEV_CAN0_RX12_ACR
      0000A23CH   SYMBOL    NUMBER   ---       CYDEV_CAN0_RX12_ACRD
      0000A230H   SYMBOL    NUMBER   ---       CYDEV_CAN0_RX12_AMR
      0000A238H   SYMBOL    NUMBER   ---       CYDEV_CAN0_RX12_AMRD
      0000A220H   SYMBOL    NUMBER   ---       CYDEV_CAN0_RX12_BASE
      0000A220H   SYMBOL    NUMBER   ---       CYDEV_CAN0_RX12_CMD
      0000A228H   SYMBOL    NUMBER   ---       CYDEV_CAN0_RX12_DH
      0000A22CH   SYMBOL    NUMBER   ---       CYDEV_CAN0_RX12_DL
      0000A224H   SYMBOL    NUMBER   ---       CYDEV_CAN0_RX12_ID
      00000020H   SYMBOL    NUMBER   ---       CYDEV_CAN0_RX12_SIZE
      0000A254H   SYMBOL    NUMBER   ---       CYDEV_CAN0_RX13_ACR
      0000A25CH   SYMBOL    NUMBER   ---       CYDEV_CAN0_RX13_ACRD
      0000A250H   SYMBOL    NUMBER   ---       CYDEV_CAN0_RX13_AMR
      0000A258H   SYMBOL    NUMBER   ---       CYDEV_CAN0_RX13_AMRD
      0000A240H   SYMBOL    NUMBER   ---       CYDEV_CAN0_RX13_BASE
      0000A240H   SYMBOL    NUMBER   ---       CYDEV_CAN0_RX13_CMD
      0000A248H   SYMBOL    NUMBER   ---       CYDEV_CAN0_RX13_DH
      0000A24CH   SYMBOL    NUMBER   ---       CYDEV_CAN0_RX13_DL
      0000A244H   SYMBOL    NUMBER   ---       CYDEV_CAN0_RX13_ID
      00000020H   SYMBOL    NUMBER   ---       CYDEV_CAN0_RX13_SIZE
      0000A274H   SYMBOL    NUMBER   ---       CYDEV_CAN0_RX14_ACR
      0000A27CH   SYMBOL    NUMBER   ---       CYDEV_CAN0_RX14_ACRD
LX51 LINKER/LOCATER V4.64.0.0                                                         10/24/2019  10:28:13  PAGE 30


      0000A270H   SYMBOL    NUMBER   ---       CYDEV_CAN0_RX14_AMR
      0000A278H   SYMBOL    NUMBER   ---       CYDEV_CAN0_RX14_AMRD
      0000A260H   SYMBOL    NUMBER   ---       CYDEV_CAN0_RX14_BASE
      0000A260H   SYMBOL    NUMBER   ---       CYDEV_CAN0_RX14_CMD
      0000A268H   SYMBOL    NUMBER   ---       CYDEV_CAN0_RX14_DH
      0000A26CH   SYMBOL    NUMBER   ---       CYDEV_CAN0_RX14_DL
      0000A264H   SYMBOL    NUMBER   ---       CYDEV_CAN0_RX14_ID
      00000020H   SYMBOL    NUMBER   ---       CYDEV_CAN0_RX14_SIZE
      0000A294H   SYMBOL    NUMBER   ---       CYDEV_CAN0_RX15_ACR
      0000A29CH   SYMBOL    NUMBER   ---       CYDEV_CAN0_RX15_ACRD
      0000A290H   SYMBOL    NUMBER   ---       CYDEV_CAN0_RX15_AMR
      0000A298H   SYMBOL    NUMBER   ---       CYDEV_CAN0_RX15_AMRD
      0000A280H   SYMBOL    NUMBER   ---       CYDEV_CAN0_RX15_BASE
      0000A280H   SYMBOL    NUMBER   ---       CYDEV_CAN0_RX15_CMD
      0000A288H   SYMBOL    NUMBER   ---       CYDEV_CAN0_RX15_DH
      0000A28CH   SYMBOL    NUMBER   ---       CYDEV_CAN0_RX15_DL
      0000A284H   SYMBOL    NUMBER   ---       CYDEV_CAN0_RX15_ID
      00000020H   SYMBOL    NUMBER   ---       CYDEV_CAN0_RX15_SIZE
      0000A0D4H   SYMBOL    NUMBER   ---       CYDEV_CAN0_RX1_ACR
      0000A0DCH   SYMBOL    NUMBER   ---       CYDEV_CAN0_RX1_ACRD
      0000A0D0H   SYMBOL    NUMBER   ---       CYDEV_CAN0_RX1_AMR
      0000A0D8H   SYMBOL    NUMBER   ---       CYDEV_CAN0_RX1_AMRD
      0000A0C0H   SYMBOL    NUMBER   ---       CYDEV_CAN0_RX1_BASE
      0000A0C0H   SYMBOL    NUMBER   ---       CYDEV_CAN0_RX1_CMD
      0000A0C8H   SYMBOL    NUMBER   ---       CYDEV_CAN0_RX1_DH
      0000A0CCH   SYMBOL    NUMBER   ---       CYDEV_CAN0_RX1_DL
      0000A0C4H   SYMBOL    NUMBER   ---       CYDEV_CAN0_RX1_ID
      00000020H   SYMBOL    NUMBER   ---       CYDEV_CAN0_RX1_SIZE
      0000A0F4H   SYMBOL    NUMBER   ---       CYDEV_CAN0_RX2_ACR
      0000A0FCH   SYMBOL    NUMBER   ---       CYDEV_CAN0_RX2_ACRD
      0000A0F0H   SYMBOL    NUMBER   ---       CYDEV_CAN0_RX2_AMR
      0000A0F8H   SYMBOL    NUMBER   ---       CYDEV_CAN0_RX2_AMRD
      0000A0E0H   SYMBOL    NUMBER   ---       CYDEV_CAN0_RX2_BASE
      0000A0E0H   SYMBOL    NUMBER   ---       CYDEV_CAN0_RX2_CMD
      0000A0E8H   SYMBOL    NUMBER   ---       CYDEV_CAN0_RX2_DH
      0000A0ECH   SYMBOL    NUMBER   ---       CYDEV_CAN0_RX2_DL
      0000A0E4H   SYMBOL    NUMBER   ---       CYDEV_CAN0_RX2_ID
      00000020H   SYMBOL    NUMBER   ---       CYDEV_CAN0_RX2_SIZE
      0000A114H   SYMBOL    NUMBER   ---       CYDEV_CAN0_RX3_ACR
      0000A11CH   SYMBOL    NUMBER   ---       CYDEV_CAN0_RX3_ACRD
      0000A110H   SYMBOL    NUMBER   ---       CYDEV_CAN0_RX3_AMR
      0000A118H   SYMBOL    NUMBER   ---       CYDEV_CAN0_RX3_AMRD
      0000A100H   SYMBOL    NUMBER   ---       CYDEV_CAN0_RX3_BASE
      0000A100H   SYMBOL    NUMBER   ---       CYDEV_CAN0_RX3_CMD
      0000A108H   SYMBOL    NUMBER   ---       CYDEV_CAN0_RX3_DH
      0000A10CH   SYMBOL    NUMBER   ---       CYDEV_CAN0_RX3_DL
      0000A104H   SYMBOL    NUMBER   ---       CYDEV_CAN0_RX3_ID
      00000020H   SYMBOL    NUMBER   ---       CYDEV_CAN0_RX3_SIZE
      0000A134H   SYMBOL    NUMBER   ---       CYDEV_CAN0_RX4_ACR
      0000A13CH   SYMBOL    NUMBER   ---       CYDEV_CAN0_RX4_ACRD
      0000A130H   SYMBOL    NUMBER   ---       CYDEV_CAN0_RX4_AMR
      0000A138H   SYMBOL    NUMBER   ---       CYDEV_CAN0_RX4_AMRD
      0000A120H   SYMBOL    NUMBER   ---       CYDEV_CAN0_RX4_BASE
      0000A120H   SYMBOL    NUMBER   ---       CYDEV_CAN0_RX4_CMD
      0000A128H   SYMBOL    NUMBER   ---       CYDEV_CAN0_RX4_DH
      0000A12CH   SYMBOL    NUMBER   ---       CYDEV_CAN0_RX4_DL
      0000A124H   SYMBOL    NUMBER   ---       CYDEV_CAN0_RX4_ID
      00000020H   SYMBOL    NUMBER   ---       CYDEV_CAN0_RX4_SIZE
      0000A154H   SYMBOL    NUMBER   ---       CYDEV_CAN0_RX5_ACR
      0000A15CH   SYMBOL    NUMBER   ---       CYDEV_CAN0_RX5_ACRD
      0000A150H   SYMBOL    NUMBER   ---       CYDEV_CAN0_RX5_AMR
      0000A158H   SYMBOL    NUMBER   ---       CYDEV_CAN0_RX5_AMRD
      0000A140H   SYMBOL    NUMBER   ---       CYDEV_CAN0_RX5_BASE
      0000A140H   SYMBOL    NUMBER   ---       CYDEV_CAN0_RX5_CMD
      0000A148H   SYMBOL    NUMBER   ---       CYDEV_CAN0_RX5_DH
LX51 LINKER/LOCATER V4.64.0.0                                                         10/24/2019  10:28:13  PAGE 31


      0000A14CH   SYMBOL    NUMBER   ---       CYDEV_CAN0_RX5_DL
      0000A144H   SYMBOL    NUMBER   ---       CYDEV_CAN0_RX5_ID
      00000020H   SYMBOL    NUMBER   ---       CYDEV_CAN0_RX5_SIZE
      0000A174H   SYMBOL    NUMBER   ---       CYDEV_CAN0_RX6_ACR
      0000A17CH   SYMBOL    NUMBER   ---       CYDEV_CAN0_RX6_ACRD
      0000A170H   SYMBOL    NUMBER   ---       CYDEV_CAN0_RX6_AMR
      0000A178H   SYMBOL    NUMBER   ---       CYDEV_CAN0_RX6_AMRD
      0000A160H   SYMBOL    NUMBER   ---       CYDEV_CAN0_RX6_BASE
      0000A160H   SYMBOL    NUMBER   ---       CYDEV_CAN0_RX6_CMD
      0000A168H   SYMBOL    NUMBER   ---       CYDEV_CAN0_RX6_DH
      0000A16CH   SYMBOL    NUMBER   ---       CYDEV_CAN0_RX6_DL
      0000A164H   SYMBOL    NUMBER   ---       CYDEV_CAN0_RX6_ID
      00000020H   SYMBOL    NUMBER   ---       CYDEV_CAN0_RX6_SIZE
      0000A194H   SYMBOL    NUMBER   ---       CYDEV_CAN0_RX7_ACR
      0000A19CH   SYMBOL    NUMBER   ---       CYDEV_CAN0_RX7_ACRD
      0000A190H   SYMBOL    NUMBER   ---       CYDEV_CAN0_RX7_AMR
      0000A198H   SYMBOL    NUMBER   ---       CYDEV_CAN0_RX7_AMRD
      0000A180H   SYMBOL    NUMBER   ---       CYDEV_CAN0_RX7_BASE
      0000A180H   SYMBOL    NUMBER   ---       CYDEV_CAN0_RX7_CMD
      0000A188H   SYMBOL    NUMBER   ---       CYDEV_CAN0_RX7_DH
      0000A18CH   SYMBOL    NUMBER   ---       CYDEV_CAN0_RX7_DL
      0000A184H   SYMBOL    NUMBER   ---       CYDEV_CAN0_RX7_ID
      00000020H   SYMBOL    NUMBER   ---       CYDEV_CAN0_RX7_SIZE
      0000A1B4H   SYMBOL    NUMBER   ---       CYDEV_CAN0_RX8_ACR
      0000A1BCH   SYMBOL    NUMBER   ---       CYDEV_CAN0_RX8_ACRD
      0000A1B0H   SYMBOL    NUMBER   ---       CYDEV_CAN0_RX8_AMR
      0000A1B8H   SYMBOL    NUMBER   ---       CYDEV_CAN0_RX8_AMRD
      0000A1A0H   SYMBOL    NUMBER   ---       CYDEV_CAN0_RX8_BASE
      0000A1A0H   SYMBOL    NUMBER   ---       CYDEV_CAN0_RX8_CMD
      0000A1A8H   SYMBOL    NUMBER   ---       CYDEV_CAN0_RX8_DH
      0000A1ACH   SYMBOL    NUMBER   ---       CYDEV_CAN0_RX8_DL
      0000A1A4H   SYMBOL    NUMBER   ---       CYDEV_CAN0_RX8_ID
      00000020H   SYMBOL    NUMBER   ---       CYDEV_CAN0_RX8_SIZE
      0000A1D4H   SYMBOL    NUMBER   ---       CYDEV_CAN0_RX9_ACR
      0000A1DCH   SYMBOL    NUMBER   ---       CYDEV_CAN0_RX9_ACRD
      0000A1D0H   SYMBOL    NUMBER   ---       CYDEV_CAN0_RX9_AMR
      0000A1D8H   SYMBOL    NUMBER   ---       CYDEV_CAN0_RX9_AMRD
      0000A1C0H   SYMBOL    NUMBER   ---       CYDEV_CAN0_RX9_BASE
      0000A1C0H   SYMBOL    NUMBER   ---       CYDEV_CAN0_RX9_CMD
      0000A1C8H   SYMBOL    NUMBER   ---       CYDEV_CAN0_RX9_DH
      0000A1CCH   SYMBOL    NUMBER   ---       CYDEV_CAN0_RX9_DL
      0000A1C4H   SYMBOL    NUMBER   ---       CYDEV_CAN0_RX9_ID
      00000020H   SYMBOL    NUMBER   ---       CYDEV_CAN0_RX9_SIZE
      000002A0H   SYMBOL    NUMBER   ---       CYDEV_CAN0_SIZE
      0000A020H   SYMBOL    NUMBER   ---       CYDEV_CAN0_TX0_BASE
      0000A020H   SYMBOL    NUMBER   ---       CYDEV_CAN0_TX0_CMD
      0000A028H   SYMBOL    NUMBER   ---       CYDEV_CAN0_TX0_DH
      0000A02CH   SYMBOL    NUMBER   ---       CYDEV_CAN0_TX0_DL
      0000A024H   SYMBOL    NUMBER   ---       CYDEV_CAN0_TX0_ID
      00000010H   SYMBOL    NUMBER   ---       CYDEV_CAN0_TX0_SIZE
      0000A030H   SYMBOL    NUMBER   ---       CYDEV_CAN0_TX1_BASE
      0000A030H   SYMBOL    NUMBER   ---       CYDEV_CAN0_TX1_CMD
      0000A038H   SYMBOL    NUMBER   ---       CYDEV_CAN0_TX1_DH
      0000A03CH   SYMBOL    NUMBER   ---       CYDEV_CAN0_TX1_DL
      0000A034H   SYMBOL    NUMBER   ---       CYDEV_CAN0_TX1_ID
      00000010H   SYMBOL    NUMBER   ---       CYDEV_CAN0_TX1_SIZE
      0000A040H   SYMBOL    NUMBER   ---       CYDEV_CAN0_TX2_BASE
      0000A040H   SYMBOL    NUMBER   ---       CYDEV_CAN0_TX2_CMD
      0000A048H   SYMBOL    NUMBER   ---       CYDEV_CAN0_TX2_DH
      0000A04CH   SYMBOL    NUMBER   ---       CYDEV_CAN0_TX2_DL
      0000A044H   SYMBOL    NUMBER   ---       CYDEV_CAN0_TX2_ID
      00000010H   SYMBOL    NUMBER   ---       CYDEV_CAN0_TX2_SIZE
      0000A050H   SYMBOL    NUMBER   ---       CYDEV_CAN0_TX3_BASE
      0000A050H   SYMBOL    NUMBER   ---       CYDEV_CAN0_TX3_CMD
      0000A058H   SYMBOL    NUMBER   ---       CYDEV_CAN0_TX3_DH
LX51 LINKER/LOCATER V4.64.0.0                                                         10/24/2019  10:28:13  PAGE 32


      0000A05CH   SYMBOL    NUMBER   ---       CYDEV_CAN0_TX3_DL
      0000A054H   SYMBOL    NUMBER   ---       CYDEV_CAN0_TX3_ID
      00000010H   SYMBOL    NUMBER   ---       CYDEV_CAN0_TX3_SIZE
      0000A060H   SYMBOL    NUMBER   ---       CYDEV_CAN0_TX4_BASE
      0000A060H   SYMBOL    NUMBER   ---       CYDEV_CAN0_TX4_CMD
      0000A068H   SYMBOL    NUMBER   ---       CYDEV_CAN0_TX4_DH
      0000A06CH   SYMBOL    NUMBER   ---       CYDEV_CAN0_TX4_DL
      0000A064H   SYMBOL    NUMBER   ---       CYDEV_CAN0_TX4_ID
      00000010H   SYMBOL    NUMBER   ---       CYDEV_CAN0_TX4_SIZE
      0000A070H   SYMBOL    NUMBER   ---       CYDEV_CAN0_TX5_BASE
      0000A070H   SYMBOL    NUMBER   ---       CYDEV_CAN0_TX5_CMD
      0000A078H   SYMBOL    NUMBER   ---       CYDEV_CAN0_TX5_DH
      0000A07CH   SYMBOL    NUMBER   ---       CYDEV_CAN0_TX5_DL
      0000A074H   SYMBOL    NUMBER   ---       CYDEV_CAN0_TX5_ID
      00000010H   SYMBOL    NUMBER   ---       CYDEV_CAN0_TX5_SIZE
      0000A080H   SYMBOL    NUMBER   ---       CYDEV_CAN0_TX6_BASE
      0000A080H   SYMBOL    NUMBER   ---       CYDEV_CAN0_TX6_CMD
      0000A088H   SYMBOL    NUMBER   ---       CYDEV_CAN0_TX6_DH
      0000A08CH   SYMBOL    NUMBER   ---       CYDEV_CAN0_TX6_DL
      0000A084H   SYMBOL    NUMBER   ---       CYDEV_CAN0_TX6_ID
      00000010H   SYMBOL    NUMBER   ---       CYDEV_CAN0_TX6_SIZE
      0000A090H   SYMBOL    NUMBER   ---       CYDEV_CAN0_TX7_BASE
      0000A090H   SYMBOL    NUMBER   ---       CYDEV_CAN0_TX7_CMD
      0000A098H   SYMBOL    NUMBER   ---       CYDEV_CAN0_TX7_DH
      0000A09CH   SYMBOL    NUMBER   ---       CYDEV_CAN0_TX7_DL
      0000A094H   SYMBOL    NUMBER   ---       CYDEV_CAN0_TX7_ID
      00000010H   SYMBOL    NUMBER   ---       CYDEV_CAN0_TX7_SIZE
      00000001H   SYMBOL    NUMBER   ---       CYDEV_CHIP_DIE_ACTUAL
      00000001H   SYMBOL    NUMBER   ---       CYDEV_CHIP_DIE_EXPECT
      00000001H   SYMBOL    NUMBER   ---       CYDEV_CHIP_DIE_LEOPARD
      00000012H   SYMBOL    NUMBER   ---       CYDEV_CHIP_DIE_PSOC4A
      00000002H   SYMBOL    NUMBER   ---       CYDEV_CHIP_DIE_PSOC5LP
      00000003H   SYMBOL    NUMBER   ---       CYDEV_CHIP_DIE_PSOC5TM
      00000004H   SYMBOL    NUMBER   ---       CYDEV_CHIP_DIE_TMA4
      00000000H   SYMBOL    NUMBER   ---       CYDEV_CHIP_DIE_UNKNOWN
      00000005H   SYMBOL    NUMBER   ---       CYDEV_CHIP_FAMILY_FM0P
      00000006H   SYMBOL    NUMBER   ---       CYDEV_CHIP_FAMILY_FM3
      00000007H   SYMBOL    NUMBER   ---       CYDEV_CHIP_FAMILY_FM4
      00000001H   SYMBOL    NUMBER   ---       CYDEV_CHIP_FAMILY_PSOC3
      00000002H   SYMBOL    NUMBER   ---       CYDEV_CHIP_FAMILY_PSOC4
      00000003H   SYMBOL    NUMBER   ---       CYDEV_CHIP_FAMILY_PSOC5
      00000004H   SYMBOL    NUMBER   ---       CYDEV_CHIP_FAMILY_PSOC6
      00000000H   SYMBOL    NUMBER   ---       CYDEV_CHIP_FAMILY_UNKNOWN
      00000001H   SYMBOL    NUMBER   ---       CYDEV_CHIP_FAMILY_USED
      1E028069H   SYMBOL    NUMBER   ---       CYDEV_CHIP_JTAG_ID
      00000001H   SYMBOL    NUMBER   ---       CYDEV_CHIP_MEMBER_3A
      00000012H   SYMBOL    NUMBER   ---       CYDEV_CHIP_MEMBER_4A
      0000000DH   SYMBOL    NUMBER   ---       CYDEV_CHIP_MEMBER_4D
      00000006H   SYMBOL    NUMBER   ---       CYDEV_CHIP_MEMBER_4E
      00000013H   SYMBOL    NUMBER   ---       CYDEV_CHIP_MEMBER_4F
      00000004H   SYMBOL    NUMBER   ---       CYDEV_CHIP_MEMBER_4G
      00000011H   SYMBOL    NUMBER   ---       CYDEV_CHIP_MEMBER_4H
      00000017H   SYMBOL    NUMBER   ---       CYDEV_CHIP_MEMBER_4I
      0000000EH   SYMBOL    NUMBER   ---       CYDEV_CHIP_MEMBER_4J
      0000000FH   SYMBOL    NUMBER   ---       CYDEV_CHIP_MEMBER_4K
      00000016H   SYMBOL    NUMBER   ---       CYDEV_CHIP_MEMBER_4L
      00000015H   SYMBOL    NUMBER   ---       CYDEV_CHIP_MEMBER_4M
      0000000AH   SYMBOL    NUMBER   ---       CYDEV_CHIP_MEMBER_4N
      00000007H   SYMBOL    NUMBER   ---       CYDEV_CHIP_MEMBER_4O
      00000014H   SYMBOL    NUMBER   ---       CYDEV_CHIP_MEMBER_4P
      0000000CH   SYMBOL    NUMBER   ---       CYDEV_CHIP_MEMBER_4Q
      00000008H   SYMBOL    NUMBER   ---       CYDEV_CHIP_MEMBER_4R
      0000000BH   SYMBOL    NUMBER   ---       CYDEV_CHIP_MEMBER_4S
      00000009H   SYMBOL    NUMBER   ---       CYDEV_CHIP_MEMBER_4T
      00000005H   SYMBOL    NUMBER   ---       CYDEV_CHIP_MEMBER_4U
LX51 LINKER/LOCATER V4.64.0.0                                                         10/24/2019  10:28:13  PAGE 33


      00000010H   SYMBOL    NUMBER   ---       CYDEV_CHIP_MEMBER_4V
      00000003H   SYMBOL    NUMBER   ---       CYDEV_CHIP_MEMBER_5A
      00000002H   SYMBOL    NUMBER   ---       CYDEV_CHIP_MEMBER_5B
      00000018H   SYMBOL    NUMBER   ---       CYDEV_CHIP_MEMBER_6A
      0000001CH   SYMBOL    NUMBER   ---       CYDEV_CHIP_MEMBER_FM3
      0000001DH   SYMBOL    NUMBER   ---       CYDEV_CHIP_MEMBER_FM4
      00000019H   SYMBOL    NUMBER   ---       CYDEV_CHIP_MEMBER_PDL_FM0P_TYPE1
      0000001AH   SYMBOL    NUMBER   ---       CYDEV_CHIP_MEMBER_PDL_FM0P_TYPE2
      0000001BH   SYMBOL    NUMBER   ---       CYDEV_CHIP_MEMBER_PDL_FM0P_TYPE3
      00000000H   SYMBOL    NUMBER   ---       CYDEV_CHIP_MEMBER_UNKNOWN
      00000001H   SYMBOL    NUMBER   ---       CYDEV_CHIP_MEMBER_USED
      00000000H   SYMBOL    NUMBER   ---       CYDEV_CHIP_REVISION_3A_ES1
      00000001H   SYMBOL    NUMBER   ---       CYDEV_CHIP_REVISION_3A_ES2
      00000003H   SYMBOL    NUMBER   ---       CYDEV_CHIP_REVISION_3A_ES3
      00000003H   SYMBOL    NUMBER   ---       CYDEV_CHIP_REVISION_3A_PRODUCTION
      00000011H   SYMBOL    NUMBER   ---       CYDEV_CHIP_REVISION_4A_ES0
      00000011H   SYMBOL    NUMBER   ---       CYDEV_CHIP_REVISION_4A_PRODUCTION
      00000000H   SYMBOL    NUMBER   ---       CYDEV_CHIP_REVISION_4D_PRODUCTION
      00000000H   SYMBOL    NUMBER   ---       CYDEV_CHIP_REVISION_4E_CCG2_NO_USBPD
      00000000H   SYMBOL    NUMBER   ---       CYDEV_CHIP_REVISION_4E_PRODUCTION
      00000000H   SYMBOL    NUMBER   ---       CYDEV_CHIP_REVISION_4F_PRODUCTION
      00000000H   SYMBOL    NUMBER   ---       CYDEV_CHIP_REVISION_4F_PRODUCTION_256DMA
      00000000H   SYMBOL    NUMBER   ---       CYDEV_CHIP_REVISION_4F_PRODUCTION_256K
      00000011H   SYMBOL    NUMBER   ---       CYDEV_CHIP_REVISION_4G_ES
      00000021H   SYMBOL    NUMBER   ---       CYDEV_CHIP_REVISION_4G_ES2
      00000011H   SYMBOL    NUMBER   ---       CYDEV_CHIP_REVISION_4G_PRODUCTION
      00000000H   SYMBOL    NUMBER   ---       CYDEV_CHIP_REVISION_4H_PRODUCTION
      00000000H   SYMBOL    NUMBER   ---       CYDEV_CHIP_REVISION_4I_PRODUCTION
      00000000H   SYMBOL    NUMBER   ---       CYDEV_CHIP_REVISION_4J_PRODUCTION
      00000000H   SYMBOL    NUMBER   ---       CYDEV_CHIP_REVISION_4K_PRODUCTION
      00000000H   SYMBOL    NUMBER   ---       CYDEV_CHIP_REVISION_4L_PRODUCTION
      00000000H   SYMBOL    NUMBER   ---       CYDEV_CHIP_REVISION_4M_PRODUCTION
      00000000H   SYMBOL    NUMBER   ---       CYDEV_CHIP_REVISION_4N_PRODUCTION
      00000000H   SYMBOL    NUMBER   ---       CYDEV_CHIP_REVISION_4O_PRODUCTION
      00000000H   SYMBOL    NUMBER   ---       CYDEV_CHIP_REVISION_4P_PRODUCTION
      00000000H   SYMBOL    NUMBER   ---       CYDEV_CHIP_REVISION_4Q_PRODUCTION
      00000000H   SYMBOL    NUMBER   ---       CYDEV_CHIP_REVISION_4R_PRODUCTION
      00000000H   SYMBOL    NUMBER   ---       CYDEV_CHIP_REVISION_4S_PRODUCTION
      00000000H   SYMBOL    NUMBER   ---       CYDEV_CHIP_REVISION_4T_PRODUCTION
      00000000H   SYMBOL    NUMBER   ---       CYDEV_CHIP_REVISION_4U_PRODUCTION
      00000000H   SYMBOL    NUMBER   ---       CYDEV_CHIP_REVISION_4V_PRODUCTION
      00000000H   SYMBOL    NUMBER   ---       CYDEV_CHIP_REVISION_5A_ES0
      00000001H   SYMBOL    NUMBER   ---       CYDEV_CHIP_REVISION_5A_ES1
      00000001H   SYMBOL    NUMBER   ---       CYDEV_CHIP_REVISION_5A_PRODUCTION
      00000000H   SYMBOL    NUMBER   ---       CYDEV_CHIP_REVISION_5B_ES0
      00000000H   SYMBOL    NUMBER   ---       CYDEV_CHIP_REVISION_5B_PRODUCTION
      00000011H   SYMBOL    NUMBER   ---       CYDEV_CHIP_REVISION_6A_ES
      00000021H   SYMBOL    NUMBER   ---       CYDEV_CHIP_REVISION_6A_NO_UDB
      00000021H   SYMBOL    NUMBER   ---       CYDEV_CHIP_REVISION_6A_PRODUCTION
      00000000H   SYMBOL    NUMBER   ---       CYDEV_CHIP_REVISION_FM3_PRODUCTION
      00000000H   SYMBOL    NUMBER   ---       CYDEV_CHIP_REVISION_FM4_PRODUCTION
      00000000H   SYMBOL    NUMBER   ---       CYDEV_CHIP_REVISION_PDL_FM0P_TYPE1_PRODUCTION
      00000000H   SYMBOL    NUMBER   ---       CYDEV_CHIP_REVISION_PDL_FM0P_TYPE2_PRODUCTION
      00000000H   SYMBOL    NUMBER   ---       CYDEV_CHIP_REVISION_PDL_FM0P_TYPE3_PRODUCTION
      00000003H   SYMBOL    NUMBER   ---       CYDEV_CHIP_REVISION_USED
      00000003H   SYMBOL    NUMBER   ---       CYDEV_CHIP_REV_EXPECT
      00000000H   SYMBOL    NUMBER   ---       CYDEV_CHIP_REV_LEOPARD_ES1
      00000001H   SYMBOL    NUMBER   ---       CYDEV_CHIP_REV_LEOPARD_ES2
      00000003H   SYMBOL    NUMBER   ---       CYDEV_CHIP_REV_LEOPARD_ES3
      00000003H   SYMBOL    NUMBER   ---       CYDEV_CHIP_REV_LEOPARD_PRODUCTION
      00000011H   SYMBOL    NUMBER   ---       CYDEV_CHIP_REV_PSOC4A_ES0
      00000011H   SYMBOL    NUMBER   ---       CYDEV_CHIP_REV_PSOC4A_PRODUCTION
      00000000H   SYMBOL    NUMBER   ---       CYDEV_CHIP_REV_PSOC5LP_ES0
      00000000H   SYMBOL    NUMBER   ---       CYDEV_CHIP_REV_PSOC5LP_PRODUCTION
      00000000H   SYMBOL    NUMBER   ---       CYDEV_CHIP_REV_PSOC5TM_ES0
LX51 LINKER/LOCATER V4.64.0.0                                                         10/24/2019  10:28:13  PAGE 34


      00000001H   SYMBOL    NUMBER   ---       CYDEV_CHIP_REV_PSOC5TM_ES1
      00000001H   SYMBOL    NUMBER   ---       CYDEV_CHIP_REV_PSOC5TM_PRODUCTION
      00000011H   SYMBOL    NUMBER   ---       CYDEV_CHIP_REV_TMA4_ES
      00000021H   SYMBOL    NUMBER   ---       CYDEV_CHIP_REV_TMA4_ES2
      00000011H   SYMBOL    NUMBER   ---       CYDEV_CHIP_REV_TMA4_PRODUCTION
      00004100H   SYMBOL    NUMBER   ---       CYDEV_CLKDIST_ACFG0_BASE
      00004100H   SYMBOL    NUMBER   ---       CYDEV_CLKDIST_ACFG0_CFG0
      00004101H   SYMBOL    NUMBER   ---       CYDEV_CLKDIST_ACFG0_CFG1
      00004102H   SYMBOL    NUMBER   ---       CYDEV_CLKDIST_ACFG0_CFG2
      00004103H   SYMBOL    NUMBER   ---       CYDEV_CLKDIST_ACFG0_CFG3
      00000004H   SYMBOL    NUMBER   ---       CYDEV_CLKDIST_ACFG0_SIZE
      00004104H   SYMBOL    NUMBER   ---       CYDEV_CLKDIST_ACFG1_BASE
      00004104H   SYMBOL    NUMBER   ---       CYDEV_CLKDIST_ACFG1_CFG0
      00004105H   SYMBOL    NUMBER   ---       CYDEV_CLKDIST_ACFG1_CFG1
      00004106H   SYMBOL    NUMBER   ---       CYDEV_CLKDIST_ACFG1_CFG2
      00004107H   SYMBOL    NUMBER   ---       CYDEV_CLKDIST_ACFG1_CFG3
      00000004H   SYMBOL    NUMBER   ---       CYDEV_CLKDIST_ACFG1_SIZE
      00004108H   SYMBOL    NUMBER   ---       CYDEV_CLKDIST_ACFG2_BASE
      00004108H   SYMBOL    NUMBER   ---       CYDEV_CLKDIST_ACFG2_CFG0
      00004109H   SYMBOL    NUMBER   ---       CYDEV_CLKDIST_ACFG2_CFG1
      0000410AH   SYMBOL    NUMBER   ---       CYDEV_CLKDIST_ACFG2_CFG2
      0000410BH   SYMBOL    NUMBER   ---       CYDEV_CLKDIST_ACFG2_CFG3
      00000004H   SYMBOL    NUMBER   ---       CYDEV_CLKDIST_ACFG2_SIZE
      0000410CH   SYMBOL    NUMBER   ---       CYDEV_CLKDIST_ACFG3_BASE
      0000410CH   SYMBOL    NUMBER   ---       CYDEV_CLKDIST_ACFG3_CFG0
      0000410DH   SYMBOL    NUMBER   ---       CYDEV_CLKDIST_ACFG3_CFG1
      0000410EH   SYMBOL    NUMBER   ---       CYDEV_CLKDIST_ACFG3_CFG2
      0000410FH   SYMBOL    NUMBER   ---       CYDEV_CLKDIST_ACFG3_CFG3
      00000004H   SYMBOL    NUMBER   ---       CYDEV_CLKDIST_ACFG3_SIZE
      00004014H   SYMBOL    NUMBER   ---       CYDEV_CLKDIST_AMASK
      00004000H   SYMBOL    NUMBER   ---       CYDEV_CLKDIST_BASE
      00004006H   SYMBOL    NUMBER   ---       CYDEV_CLKDIST_BCFG0
      00004007H   SYMBOL    NUMBER   ---       CYDEV_CLKDIST_BCFG1
      00004008H   SYMBOL    NUMBER   ---       CYDEV_CLKDIST_BCFG2
      00004000H   SYMBOL    NUMBER   ---       CYDEV_CLKDIST_CR
      00004080H   SYMBOL    NUMBER   ---       CYDEV_CLKDIST_DCFG0_BASE
      00004080H   SYMBOL    NUMBER   ---       CYDEV_CLKDIST_DCFG0_CFG0
      00004081H   SYMBOL    NUMBER   ---       CYDEV_CLKDIST_DCFG0_CFG1
      00004082H   SYMBOL    NUMBER   ---       CYDEV_CLKDIST_DCFG0_CFG2
      00000003H   SYMBOL    NUMBER   ---       CYDEV_CLKDIST_DCFG0_SIZE
      00004084H   SYMBOL    NUMBER   ---       CYDEV_CLKDIST_DCFG1_BASE
      00004084H   SYMBOL    NUMBER   ---       CYDEV_CLKDIST_DCFG1_CFG0
      00004085H   SYMBOL    NUMBER   ---       CYDEV_CLKDIST_DCFG1_CFG1
      00004086H   SYMBOL    NUMBER   ---       CYDEV_CLKDIST_DCFG1_CFG2
      00000003H   SYMBOL    NUMBER   ---       CYDEV_CLKDIST_DCFG1_SIZE
      00004088H   SYMBOL    NUMBER   ---       CYDEV_CLKDIST_DCFG2_BASE
      00004088H   SYMBOL    NUMBER   ---       CYDEV_CLKDIST_DCFG2_CFG0
      00004089H   SYMBOL    NUMBER   ---       CYDEV_CLKDIST_DCFG2_CFG1
      0000408AH   SYMBOL    NUMBER   ---       CYDEV_CLKDIST_DCFG2_CFG2
      00000003H   SYMBOL    NUMBER   ---       CYDEV_CLKDIST_DCFG2_SIZE
      0000408CH   SYMBOL    NUMBER   ---       CYDEV_CLKDIST_DCFG3_BASE
      0000408CH   SYMBOL    NUMBER   ---       CYDEV_CLKDIST_DCFG3_CFG0
      0000408DH   SYMBOL    NUMBER   ---       CYDEV_CLKDIST_DCFG3_CFG1
      0000408EH   SYMBOL    NUMBER   ---       CYDEV_CLKDIST_DCFG3_CFG2
      00000003H   SYMBOL    NUMBER   ---       CYDEV_CLKDIST_DCFG3_SIZE
      00004090H   SYMBOL    NUMBER   ---       CYDEV_CLKDIST_DCFG4_BASE
      00004090H   SYMBOL    NUMBER   ---       CYDEV_CLKDIST_DCFG4_CFG0
      00004091H   SYMBOL    NUMBER   ---       CYDEV_CLKDIST_DCFG4_CFG1
      00004092H   SYMBOL    NUMBER   ---       CYDEV_CLKDIST_DCFG4_CFG2
      00000003H   SYMBOL    NUMBER   ---       CYDEV_CLKDIST_DCFG4_SIZE
      00004094H   SYMBOL    NUMBER   ---       CYDEV_CLKDIST_DCFG5_BASE
      00004094H   SYMBOL    NUMBER   ---       CYDEV_CLKDIST_DCFG5_CFG0
      00004095H   SYMBOL    NUMBER   ---       CYDEV_CLKDIST_DCFG5_CFG1
      00004096H   SYMBOL    NUMBER   ---       CYDEV_CLKDIST_DCFG5_CFG2
      00000003H   SYMBOL    NUMBER   ---       CYDEV_CLKDIST_DCFG5_SIZE
LX51 LINKER/LOCATER V4.64.0.0                                                         10/24/2019  10:28:13  PAGE 35


      00004098H   SYMBOL    NUMBER   ---       CYDEV_CLKDIST_DCFG6_BASE
      00004098H   SYMBOL    NUMBER   ---       CYDEV_CLKDIST_DCFG6_CFG0
      00004099H   SYMBOL    NUMBER   ---       CYDEV_CLKDIST_DCFG6_CFG1
      0000409AH   SYMBOL    NUMBER   ---       CYDEV_CLKDIST_DCFG6_CFG2
      00000003H   SYMBOL    NUMBER   ---       CYDEV_CLKDIST_DCFG6_SIZE
      0000409CH   SYMBOL    NUMBER   ---       CYDEV_CLKDIST_DCFG7_BASE
      0000409CH   SYMBOL    NUMBER   ---       CYDEV_CLKDIST_DCFG7_CFG0
      0000409DH   SYMBOL    NUMBER   ---       CYDEV_CLKDIST_DCFG7_CFG1
      0000409EH   SYMBOL    NUMBER   ---       CYDEV_CLKDIST_DCFG7_CFG2
      00000003H   SYMBOL    NUMBER   ---       CYDEV_CLKDIST_DCFG7_SIZE
      0000400AH   SYMBOL    NUMBER   ---       CYDEV_CLKDIST_DLY0
      0000400BH   SYMBOL    NUMBER   ---       CYDEV_CLKDIST_DLY1
      00004010H   SYMBOL    NUMBER   ---       CYDEV_CLKDIST_DMASK
      00004001H   SYMBOL    NUMBER   ---       CYDEV_CLKDIST_LD
      00004004H   SYMBOL    NUMBER   ---       CYDEV_CLKDIST_MSTR0
      00004005H   SYMBOL    NUMBER   ---       CYDEV_CLKDIST_MSTR1
      00000110H   SYMBOL    NUMBER   ---       CYDEV_CLKDIST_SIZE
      00004009H   SYMBOL    NUMBER   ---       CYDEV_CLKDIST_UCFG
      00004002H   SYMBOL    NUMBER   ---       CYDEV_CLKDIST_WRK0
      00004003H   SYMBOL    NUMBER   ---       CYDEV_CLKDIST_WRK1
      00000001H   SYMBOL    NUMBER   ---       CYDEV_CONFIGURATION_CLEAR_SRAM
      00000001H   SYMBOL    NUMBER   ---       CYDEV_CONFIGURATION_COMPRESSED
      00000000H   SYMBOL    NUMBER   ---       CYDEV_CONFIGURATION_DMA
      00000001H   SYMBOL    NUMBER   ---       CYDEV_CONFIGURATION_ECC
      00000001H   SYMBOL    NUMBER   ---       CYDEV_CONFIGURATION_IMOENABLED
      00000000H   SYMBOL    NUMBER   ---       CYDEV_CONFIGURATION_MODE
      00000000H   SYMBOL    NUMBER   ---       CYDEV_CONFIGURATION_MODE_COMPRESSED
      00000002H   SYMBOL    NUMBER   ---       CYDEV_CONFIGURATION_MODE_DMA
      00000001H   SYMBOL    NUMBER   ---       CYDEV_CONFIGURATION_MODE_UNCOMPRESSED
      00000001H   SYMBOL    NUMBER   ---       CYDEV_CONFIG_FASTBOOT_ENABLED
      00000000H   SYMBOL    NUMBER   ---       CYDEV_CONFIG_UNUSED_IO
      00000000H   SYMBOL    NUMBER   ---       CYDEV_CONFIG_UNUSED_IO_AllowButWarn
      00000001H   SYMBOL    NUMBER   ---       CYDEV_CONFIG_UNUSED_IO_AllowWithInfo
      00000002H   SYMBOL    NUMBER   ---       CYDEV_CONFIG_UNUSED_IO_Disallowed
      00000006H   SYMBOL    NUMBER   ---       CYDEV_DEBUGGING_DPS
      00000003H   SYMBOL    NUMBER   ---       CYDEV_DEBUGGING_DPS_Disable
      00000001H   SYMBOL    NUMBER   ---       CYDEV_DEBUGGING_DPS_JTAG_4
      00000000H   SYMBOL    NUMBER   ---       CYDEV_DEBUGGING_DPS_JTAG_5
      00000002H   SYMBOL    NUMBER   ---       CYDEV_DEBUGGING_DPS_SWD
      00000006H   SYMBOL    NUMBER   ---       CYDEV_DEBUGGING_DPS_SWD_SWV
      00000001H   SYMBOL    NUMBER   ---       CYDEV_DEBUGGING_ENABLE
      00000000H   SYMBOL    NUMBER   ---       CYDEV_DEBUGGING_XRES
      00000001H   SYMBOL    NUMBER   ---       CYDEV_DEBUG_ENABLE_MASK
      000046E8H   SYMBOL    NUMBER   ---       CYDEV_DEBUG_ENABLE_REGISTER
      00004E00H   SYMBOL    NUMBER   ---       CYDEV_DEC_BASE
      00004E14H   SYMBOL    NUMBER   ---       CYDEV_DEC_COHER
      00004E00H   SYMBOL    NUMBER   ---       CYDEV_DEC_CR
      00004E06H   SYMBOL    NUMBER   ---       CYDEV_DEC_DR1
      00004E04H   SYMBOL    NUMBER   ---       CYDEV_DEC_DR2
      00004E05H   SYMBOL    NUMBER   ---       CYDEV_DEC_DR2H
      00004E0CH   SYMBOL    NUMBER   ---       CYDEV_DEC_GCOR
      00004E0DH   SYMBOL    NUMBER   ---       CYDEV_DEC_GCORH
      00004E0EH   SYMBOL    NUMBER   ---       CYDEV_DEC_GVAL
      00004E08H   SYMBOL    NUMBER   ---       CYDEV_DEC_OCOR
      00004E0AH   SYMBOL    NUMBER   ---       CYDEV_DEC_OCORH
      00004E09H   SYMBOL    NUMBER   ---       CYDEV_DEC_OCORM
      00004E10H   SYMBOL    NUMBER   ---       CYDEV_DEC_OUTSAMP
      00004E12H   SYMBOL    NUMBER   ---       CYDEV_DEC_OUTSAMPH
      00004E11H   SYMBOL    NUMBER   ---       CYDEV_DEC_OUTSAMPM
      00004E13H   SYMBOL    NUMBER   ---       CYDEV_DEC_OUTSAMPS
      00004E02H   SYMBOL    NUMBER   ---       CYDEV_DEC_SHIFT1
      00004E03H   SYMBOL    NUMBER   ---       CYDEV_DEC_SHIFT2
      00000015H   SYMBOL    NUMBER   ---       CYDEV_DEC_SIZE
      00004E01H   SYMBOL    NUMBER   ---       CYDEV_DEC_SR
      0000C700H   SYMBOL    NUMBER   ---       CYDEV_DFB0_ACU_SRAM_BASE
LX51 LINKER/LOCATER V4.64.0.0                                                         10/24/2019  10:28:13  PAGE 36


      0000C700H   SYMBOL    NUMBER   ---       CYDEV_DFB0_ACU_SRAM_DATA_MBASE
      00000040H   SYMBOL    NUMBER   ---       CYDEV_DFB0_ACU_SRAM_DATA_MSIZE
      00000040H   SYMBOL    NUMBER   ---       CYDEV_DFB0_ACU_SRAM_SIZE
      0000C000H   SYMBOL    NUMBER   ---       CYDEV_DFB0_BASE
      0000C7B0H   SYMBOL    NUMBER   ---       CYDEV_DFB0_COHER
      0000C780H   SYMBOL    NUMBER   ---       CYDEV_DFB0_CR
      0000C400H   SYMBOL    NUMBER   ---       CYDEV_DFB0_CSA_SRAM_BASE
      0000C400H   SYMBOL    NUMBER   ---       CYDEV_DFB0_CSA_SRAM_DATA_MBASE
      00000100H   SYMBOL    NUMBER   ---       CYDEV_DFB0_CSA_SRAM_DATA_MSIZE
      00000100H   SYMBOL    NUMBER   ---       CYDEV_DFB0_CSA_SRAM_SIZE
      0000C500H   SYMBOL    NUMBER   ---       CYDEV_DFB0_CSB_SRAM_BASE
      0000C500H   SYMBOL    NUMBER   ---       CYDEV_DFB0_CSB_SRAM_DATA_MBASE
      00000100H   SYMBOL    NUMBER   ---       CYDEV_DFB0_CSB_SRAM_DATA_MSIZE
      00000100H   SYMBOL    NUMBER   ---       CYDEV_DFB0_CSB_SRAM_SIZE
      0000C7B4H   SYMBOL    NUMBER   ---       CYDEV_DFB0_DALIGN
      0000C79CH   SYMBOL    NUMBER   ---       CYDEV_DFB0_DMA_CTRL
      0000C000H   SYMBOL    NUMBER   ---       CYDEV_DFB0_DPA_SRAM_BASE
      0000C000H   SYMBOL    NUMBER   ---       CYDEV_DFB0_DPA_SRAM_DATA_MBASE
      00000200H   SYMBOL    NUMBER   ---       CYDEV_DFB0_DPA_SRAM_DATA_MSIZE
      00000200H   SYMBOL    NUMBER   ---       CYDEV_DFB0_DPA_SRAM_SIZE
      0000C200H   SYMBOL    NUMBER   ---       CYDEV_DFB0_DPB_SRAM_BASE
      0000C200H   SYMBOL    NUMBER   ---       CYDEV_DFB0_DPB_SRAM_DATA_MBASE
      00000200H   SYMBOL    NUMBER   ---       CYDEV_DFB0_DPB_SRAM_DATA_MSIZE
      00000200H   SYMBOL    NUMBER   ---       CYDEV_DFB0_DPB_SRAM_SIZE
      0000C794H   SYMBOL    NUMBER   ---       CYDEV_DFB0_DSI_CTRL
      0000C600H   SYMBOL    NUMBER   ---       CYDEV_DFB0_FSM_SRAM_BASE
      0000C600H   SYMBOL    NUMBER   ---       CYDEV_DFB0_FSM_SRAM_DATA_MBASE
      00000100H   SYMBOL    NUMBER   ---       CYDEV_DFB0_FSM_SRAM_DATA_MSIZE
      00000100H   SYMBOL    NUMBER   ---       CYDEV_DFB0_FSM_SRAM_SIZE
      0000C7A8H   SYMBOL    NUMBER   ---       CYDEV_DFB0_HOLDA
      0000C7AAH   SYMBOL    NUMBER   ---       CYDEV_DFB0_HOLDAH
      0000C7A9H   SYMBOL    NUMBER   ---       CYDEV_DFB0_HOLDAM
      0000C7ABH   SYMBOL    NUMBER   ---       CYDEV_DFB0_HOLDAS
      0000C7ACH   SYMBOL    NUMBER   ---       CYDEV_DFB0_HOLDB
      0000C7AEH   SYMBOL    NUMBER   ---       CYDEV_DFB0_HOLDBH
      0000C7ADH   SYMBOL    NUMBER   ---       CYDEV_DFB0_HOLDBM
      0000C7AFH   SYMBOL    NUMBER   ---       CYDEV_DFB0_HOLDBS
      0000C798H   SYMBOL    NUMBER   ---       CYDEV_DFB0_INT_CTRL
      0000C78CH   SYMBOL    NUMBER   ---       CYDEV_DFB0_RAM_DIR
      0000C788H   SYMBOL    NUMBER   ---       CYDEV_DFB0_RAM_EN
      0000C790H   SYMBOL    NUMBER   ---       CYDEV_DFB0_SEMA
      000007B5H   SYMBOL    NUMBER   ---       CYDEV_DFB0_SIZE
      0000C784H   SYMBOL    NUMBER   ---       CYDEV_DFB0_SR
      0000C7A0H   SYMBOL    NUMBER   ---       CYDEV_DFB0_STAGEA
      0000C7A2H   SYMBOL    NUMBER   ---       CYDEV_DFB0_STAGEAH
      0000C7A1H   SYMBOL    NUMBER   ---       CYDEV_DFB0_STAGEAM
      0000C7A4H   SYMBOL    NUMBER   ---       CYDEV_DFB0_STAGEB
      0000C7A6H   SYMBOL    NUMBER   ---       CYDEV_DFB0_STAGEBH
      0000C7A5H   SYMBOL    NUMBER   ---       CYDEV_DFB0_STAGEBM
      00000018H   SYMBOL    NUMBER   ---       CYDEV_DMA_CHANNELS_AVAILABLE
      00080000H   SYMBOL    NUMBER   ---       CYDEV_ECC_BASE
      00080000H   SYMBOL    NUMBER   ---       CYDEV_ECC_DATA_MBASE
      00002000H   SYMBOL    NUMBER   ---       CYDEV_ECC_DATA_MSIZE
      00000000H   SYMBOL    NUMBER   ---       CYDEV_ECC_ENABLE
      00000020H   SYMBOL    NUMBER   ---       CYDEV_ECC_ROW_SIZE
      00002000H   SYMBOL    NUMBER   ---       CYDEV_ECC_SECTOR_SIZE
      00002000H   SYMBOL    NUMBER   ---       CYDEV_ECC_SIZE
      00000010H   SYMBOL    NUMBER   ---       CYDEV_EEPROM_ROW_SIZE
      00000400H   SYMBOL    NUMBER   ---       CYDEV_EEPROM_SECTOR_SIZE
      00008000H   SYMBOL    NUMBER   ---       CYDEV_EE_BASE
      00008000H   SYMBOL    NUMBER   ---       CYDEV_EE_DATA_MBASE
      00000800H   SYMBOL    NUMBER   ---       CYDEV_EE_DATA_MSIZE
      00000800H   SYMBOL    NUMBER   ---       CYDEV_EE_SIZE
      00005400H   SYMBOL    NUMBER   ---       CYDEV_EMIF_BASE
      00005404H   SYMBOL    NUMBER   ---       CYDEV_EMIF_CLOCK_EN
LX51 LINKER/LOCATER V4.64.0.0                                                         10/24/2019  10:28:13  PAGE 37


      00005405H   SYMBOL    NUMBER   ---       CYDEV_EMIF_EM_TYPE
      00005403H   SYMBOL    NUMBER   ---       CYDEV_EMIF_MEMCLK_DIV
      00005402H   SYMBOL    NUMBER   ---       CYDEV_EMIF_MEM_DWN
      00005400H   SYMBOL    NUMBER   ---       CYDEV_EMIF_NO_UDB
      00005401H   SYMBOL    NUMBER   ---       CYDEV_EMIF_RP_WAIT_STATES
      00000007H   SYMBOL    NUMBER   ---       CYDEV_EMIF_SIZE
      00005406H   SYMBOL    NUMBER   ---       CYDEV_EMIF_WP_WAIT_STATES
      00800000H   SYMBOL    NUMBER   ---       CYDEV_EXTMEM_BASE
      00800000H   SYMBOL    NUMBER   ---       CYDEV_EXTMEM_DATA_MBASE
      00800000H   SYMBOL    NUMBER   ---       CYDEV_EXTMEM_DATA_MSIZE
      00800000H   SYMBOL    NUMBER   ---       CYDEV_EXTMEM_SIZE
      00004200H   SYMBOL    NUMBER   ---       CYDEV_FASTCLK_BASE
      00004200H   SYMBOL    NUMBER   ---       CYDEV_FASTCLK_IMO_BASE
      00004200H   SYMBOL    NUMBER   ---       CYDEV_FASTCLK_IMO_CR
      00000001H   SYMBOL    NUMBER   ---       CYDEV_FASTCLK_IMO_SIZE
      00004220H   SYMBOL    NUMBER   ---       CYDEV_FASTCLK_PLL_BASE
      00004220H   SYMBOL    NUMBER   ---       CYDEV_FASTCLK_PLL_CFG0
      00004221H   SYMBOL    NUMBER   ---       CYDEV_FASTCLK_PLL_CFG1
      00004222H   SYMBOL    NUMBER   ---       CYDEV_FASTCLK_PLL_P
      00004223H   SYMBOL    NUMBER   ---       CYDEV_FASTCLK_PLL_Q
      00000006H   SYMBOL    NUMBER   ---       CYDEV_FASTCLK_PLL_SIZE
      00004225H   SYMBOL    NUMBER   ---       CYDEV_FASTCLK_PLL_SR
      00004224H   SYMBOL    NUMBER   ---       CYDEV_FASTCLK_PLL_TST
      00000026H   SYMBOL    NUMBER   ---       CYDEV_FASTCLK_SIZE
      00004210H   SYMBOL    NUMBER   ---       CYDEV_FASTCLK_XMHZ_BASE
      00004212H   SYMBOL    NUMBER   ---       CYDEV_FASTCLK_XMHZ_CFG0
      00004213H   SYMBOL    NUMBER   ---       CYDEV_FASTCLK_XMHZ_CFG1
      00004210H   SYMBOL    NUMBER   ---       CYDEV_FASTCLK_XMHZ_CSR
      00000004H   SYMBOL    NUMBER   ---       CYDEV_FASTCLK_XMHZ_SIZE
      00004211H   SYMBOL    NUMBER   ---       CYDEV_FASTCLK_XMHZ_TST
      00010000H   SYMBOL    NUMBER   ---       CYDEV_FLASH_SIZE
      000C0000H   SYMBOL    NUMBER   ---       CYDEV_FLSHID_BASE
      000C0080H   SYMBOL    NUMBER   ---       CYDEV_FLSHID_CUST_MDATA_MBASE
      00000080H   SYMBOL    NUMBER   ---       CYDEV_FLSHID_CUST_MDATA_MSIZE
      000C0100H   SYMBOL    NUMBER   ---       CYDEV_FLSHID_CUST_TABLES_BASE
      000C0110H   SYMBOL    NUMBER   ---       CYDEV_FLSHID_CUST_TABLES_CMP0_TR0_HS
      000C0114H   SYMBOL    NUMBER   ---       CYDEV_FLSHID_CUST_TABLES_CMP0_TR1_HS
      000C0111H   SYMBOL    NUMBER   ---       CYDEV_FLSHID_CUST_TABLES_CMP1_TR0_HS
      000C0115H   SYMBOL    NUMBER   ---       CYDEV_FLSHID_CUST_TABLES_CMP1_TR1_HS
      000C0112H   SYMBOL    NUMBER   ---       CYDEV_FLSHID_CUST_TABLES_CMP2_TR0_HS
      000C0116H   SYMBOL    NUMBER   ---       CYDEV_FLSHID_CUST_TABLES_CMP2_TR1_HS
      000C0113H   SYMBOL    NUMBER   ---       CYDEV_FLSHID_CUST_TABLES_CMP3_TR0_HS
      000C0117H   SYMBOL    NUMBER   ---       CYDEV_FLSHID_CUST_TABLES_CMP3_TR1_HS
      000C0120H   SYMBOL    NUMBER   ---       CYDEV_FLSHID_CUST_TABLES_DAC0_M1
      000C0121H   SYMBOL    NUMBER   ---       CYDEV_FLSHID_CUST_TABLES_DAC0_M2
      000C0122H   SYMBOL    NUMBER   ---       CYDEV_FLSHID_CUST_TABLES_DAC0_M3
      000C0123H   SYMBOL    NUMBER   ---       CYDEV_FLSHID_CUST_TABLES_DAC0_M4
      000C0124H   SYMBOL    NUMBER   ---       CYDEV_FLSHID_CUST_TABLES_DAC0_M5
      000C0125H   SYMBOL    NUMBER   ---       CYDEV_FLSHID_CUST_TABLES_DAC0_M6
      000C0126H   SYMBOL    NUMBER   ---       CYDEV_FLSHID_CUST_TABLES_DAC0_M7
      000C0127H   SYMBOL    NUMBER   ---       CYDEV_FLSHID_CUST_TABLES_DAC0_M8
      000C0130H   SYMBOL    NUMBER   ---       CYDEV_FLSHID_CUST_TABLES_DAC1_M1
      000C0131H   SYMBOL    NUMBER   ---       CYDEV_FLSHID_CUST_TABLES_DAC1_M2
      000C0132H   SYMBOL    NUMBER   ---       CYDEV_FLSHID_CUST_TABLES_DAC1_M3
      000C0133H   SYMBOL    NUMBER   ---       CYDEV_FLSHID_CUST_TABLES_DAC1_M4
      000C0134H   SYMBOL    NUMBER   ---       CYDEV_FLSHID_CUST_TABLES_DAC1_M5
      000C0135H   SYMBOL    NUMBER   ---       CYDEV_FLSHID_CUST_TABLES_DAC1_M6
      000C0136H   SYMBOL    NUMBER   ---       CYDEV_FLSHID_CUST_TABLES_DAC1_M7
      000C0137H   SYMBOL    NUMBER   ---       CYDEV_FLSHID_CUST_TABLES_DAC1_M8
      000C0128H   SYMBOL    NUMBER   ---       CYDEV_FLSHID_CUST_TABLES_DAC2_M1
      000C0129H   SYMBOL    NUMBER   ---       CYDEV_FLSHID_CUST_TABLES_DAC2_M2
      000C012AH   SYMBOL    NUMBER   ---       CYDEV_FLSHID_CUST_TABLES_DAC2_M3
      000C012BH   SYMBOL    NUMBER   ---       CYDEV_FLSHID_CUST_TABLES_DAC2_M4
      000C012CH   SYMBOL    NUMBER   ---       CYDEV_FLSHID_CUST_TABLES_DAC2_M5
      000C012DH   SYMBOL    NUMBER   ---       CYDEV_FLSHID_CUST_TABLES_DAC2_M6
LX51 LINKER/LOCATER V4.64.0.0                                                         10/24/2019  10:28:13  PAGE 38


      000C012EH   SYMBOL    NUMBER   ---       CYDEV_FLSHID_CUST_TABLES_DAC2_M7
      000C012FH   SYMBOL    NUMBER   ---       CYDEV_FLSHID_CUST_TABLES_DAC2_M8
      000C0138H   SYMBOL    NUMBER   ---       CYDEV_FLSHID_CUST_TABLES_DAC3_M1
      000C0139H   SYMBOL    NUMBER   ---       CYDEV_FLSHID_CUST_TABLES_DAC3_M2
      000C013AH   SYMBOL    NUMBER   ---       CYDEV_FLSHID_CUST_TABLES_DAC3_M3
      000C013BH   SYMBOL    NUMBER   ---       CYDEV_FLSHID_CUST_TABLES_DAC3_M4
      000C013CH   SYMBOL    NUMBER   ---       CYDEV_FLSHID_CUST_TABLES_DAC3_M5
      000C013DH   SYMBOL    NUMBER   ---       CYDEV_FLSHID_CUST_TABLES_DAC3_M6
      000C013EH   SYMBOL    NUMBER   ---       CYDEV_FLSHID_CUST_TABLES_DAC3_M7
      000C013FH   SYMBOL    NUMBER   ---       CYDEV_FLSHID_CUST_TABLES_DAC3_M8
      000C0118H   SYMBOL    NUMBER   ---       CYDEV_FLSHID_CUST_TABLES_DEC_M1
      000C0119H   SYMBOL    NUMBER   ---       CYDEV_FLSHID_CUST_TABLES_DEC_M2
      000C011AH   SYMBOL    NUMBER   ---       CYDEV_FLSHID_CUST_TABLES_DEC_M3
      000C011BH   SYMBOL    NUMBER   ---       CYDEV_FLSHID_CUST_TABLES_DEC_M4
      000C011CH   SYMBOL    NUMBER   ---       CYDEV_FLSHID_CUST_TABLES_DEC_M5
      000C011DH   SYMBOL    NUMBER   ---       CYDEV_FLSHID_CUST_TABLES_DEC_M6
      000C011EH   SYMBOL    NUMBER   ---       CYDEV_FLSHID_CUST_TABLES_DEC_M7
      000C011FH   SYMBOL    NUMBER   ---       CYDEV_FLSHID_CUST_TABLES_DEC_M8
      000C0106H   SYMBOL    NUMBER   ---       CYDEV_FLSHID_CUST_TABLES_FAB_YR
      000C010AH   SYMBOL    NUMBER   ---       CYDEV_FLSHID_CUST_TABLES_IMO_12MHZ
      000C010BH   SYMBOL    NUMBER   ---       CYDEV_FLSHID_CUST_TABLES_IMO_24MHZ
      000C0108H   SYMBOL    NUMBER   ---       CYDEV_FLSHID_CUST_TABLES_IMO_3MHZ
      000C010CH   SYMBOL    NUMBER   ---       CYDEV_FLSHID_CUST_TABLES_IMO_67MHZ
      000C0109H   SYMBOL    NUMBER   ---       CYDEV_FLSHID_CUST_TABLES_IMO_6MHZ
      000C010DH   SYMBOL    NUMBER   ---       CYDEV_FLSHID_CUST_TABLES_IMO_80MHZ
      000C010EH   SYMBOL    NUMBER   ---       CYDEV_FLSHID_CUST_TABLES_IMO_92MHZ
      000C010FH   SYMBOL    NUMBER   ---       CYDEV_FLSHID_CUST_TABLES_IMO_USB
      000C0103H   SYMBOL    NUMBER   ---       CYDEV_FLSHID_CUST_TABLES_LOT_LSB
      000C0104H   SYMBOL    NUMBER   ---       CYDEV_FLSHID_CUST_TABLES_LOT_MSB
      000C0107H   SYMBOL    NUMBER   ---       CYDEV_FLSHID_CUST_TABLES_MINOR
      00000040H   SYMBOL    NUMBER   ---       CYDEV_FLSHID_CUST_TABLES_SIZE
      000C0102H   SYMBOL    NUMBER   ---       CYDEV_FLSHID_CUST_TABLES_WAFER_NUM
      000C0105H   SYMBOL    NUMBER   ---       CYDEV_FLSHID_CUST_TABLES_WRK_WK
      000C0101H   SYMBOL    NUMBER   ---       CYDEV_FLSHID_CUST_TABLES_X_LOC
      000C0100H   SYMBOL    NUMBER   ---       CYDEV_FLSHID_CUST_TABLES_Y_LOC
      000C0180H   SYMBOL    NUMBER   ---       CYDEV_FLSHID_MFG_CFG_BASE
      000C01CEH   SYMBOL    NUMBER   ---       CYDEV_FLSHID_MFG_CFG_BG_XOVER_INL_TRIM
      000C01ACH   SYMBOL    NUMBER   ---       CYDEV_FLSHID_MFG_CFG_CMP0_TR0
      000C01B4H   SYMBOL    NUMBER   ---       CYDEV_FLSHID_MFG_CFG_CMP0_TR1
      000C01AEH   SYMBOL    NUMBER   ---       CYDEV_FLSHID_MFG_CFG_CMP1_TR0
      000C01B6H   SYMBOL    NUMBER   ---       CYDEV_FLSHID_MFG_CFG_CMP1_TR1
      000C01B0H   SYMBOL    NUMBER   ---       CYDEV_FLSHID_MFG_CFG_CMP2_TR0
      000C01B8H   SYMBOL    NUMBER   ---       CYDEV_FLSHID_MFG_CFG_CMP2_TR1
      000C01B2H   SYMBOL    NUMBER   ---       CYDEV_FLSHID_MFG_CFG_CMP3_TR0
      000C01BAH   SYMBOL    NUMBER   ---       CYDEV_FLSHID_MFG_CFG_CMP3_TR1
      000C0188H   SYMBOL    NUMBER   ---       CYDEV_FLSHID_MFG_CFG_IMO_TR1
      00000080H   SYMBOL    NUMBER   ---       CYDEV_FLSHID_MFG_CFG_SIZE
      000C0000H   SYMBOL    NUMBER   ---       CYDEV_FLSHID_RSVD_MBASE
      00000080H   SYMBOL    NUMBER   ---       CYDEV_FLSHID_RSVD_MSIZE
      00000200H   SYMBOL    NUMBER   ---       CYDEV_FLSHID_SIZE
      00100000H   SYMBOL    NUMBER   ---       CYDEV_FLS_BASE
      00100000H   SYMBOL    NUMBER   ---       CYDEV_FLS_DATA_MBASE
      00010000H   SYMBOL    NUMBER   ---       CYDEV_FLS_DATA_MSIZE
      00000100H   SYMBOL    NUMBER   ---       CYDEV_FLS_ROW_SIZE
      00010000H   SYMBOL    NUMBER   ---       CYDEV_FLS_SECTOR_SIZE
      00010000H   SYMBOL    NUMBER   ---       CYDEV_FLS_SIZE
      000049CAH   SYMBOL    NUMBER   ---       CYDEV_I2C_ADR
      00004900H   SYMBOL    NUMBER   ---       CYDEV_I2C_BASE
      000049D6H   SYMBOL    NUMBER   ---       CYDEV_I2C_CFG
      000049DBH   SYMBOL    NUMBER   ---       CYDEV_I2C_CLK_DIV1
      000049DCH   SYMBOL    NUMBER   ---       CYDEV_I2C_CLK_DIV2
      000049D7H   SYMBOL    NUMBER   ---       CYDEV_I2C_CSR
      000049D8H   SYMBOL    NUMBER   ---       CYDEV_I2C_D
      000049D9H   SYMBOL    NUMBER   ---       CYDEV_I2C_MCSR
      000000DDH   SYMBOL    NUMBER   ---       CYDEV_I2C_SIZE
LX51 LINKER/LOCATER V4.64.0.0                                                         10/24/2019  10:28:13  PAGE 39


      000049C8H   SYMBOL    NUMBER   ---       CYDEV_I2C_XCFG
      00015100H   SYMBOL    NUMBER   ---       CYDEV_IDMUX_BASE
      00015110H   SYMBOL    NUMBER   ---       CYDEV_IDMUX_DRQ_CTL0
      00015111H   SYMBOL    NUMBER   ---       CYDEV_IDMUX_DRQ_CTL1
      00015112H   SYMBOL    NUMBER   ---       CYDEV_IDMUX_DRQ_CTL2
      00015113H   SYMBOL    NUMBER   ---       CYDEV_IDMUX_DRQ_CTL3
      00015114H   SYMBOL    NUMBER   ---       CYDEV_IDMUX_DRQ_CTL4
      00015115H   SYMBOL    NUMBER   ---       CYDEV_IDMUX_DRQ_CTL5
      00015100H   SYMBOL    NUMBER   ---       CYDEV_IDMUX_IRQ_CTL0
      00015101H   SYMBOL    NUMBER   ---       CYDEV_IDMUX_IRQ_CTL1
      00015102H   SYMBOL    NUMBER   ---       CYDEV_IDMUX_IRQ_CTL2
      00015103H   SYMBOL    NUMBER   ---       CYDEV_IDMUX_IRQ_CTL3
      00015104H   SYMBOL    NUMBER   ---       CYDEV_IDMUX_IRQ_CTL4
      00015105H   SYMBOL    NUMBER   ---       CYDEV_IDMUX_IRQ_CTL5
      00015106H   SYMBOL    NUMBER   ---       CYDEV_IDMUX_IRQ_CTL6
      00015107H   SYMBOL    NUMBER   ---       CYDEV_IDMUX_IRQ_CTL7
      00000016H   SYMBOL    NUMBER   ---       CYDEV_IDMUX_SIZE
      00000001H   SYMBOL    NUMBER   ---       CYDEV_INSTRUCT_CACHE_ENABLED
      000044F1H   SYMBOL    NUMBER   ---       CYDEV_INTC_ACT_INT_NUM
      000044F2H   SYMBOL    NUMBER   ---       CYDEV_INTC_ACT_VECT
      00004400H   SYMBOL    NUMBER   ---       CYDEV_INTC_BASE
      000044C8H   SYMBOL    NUMBER   ---       CYDEV_INTC_CLR_EN0
      000044C9H   SYMBOL    NUMBER   ---       CYDEV_INTC_CLR_EN1
      000044CAH   SYMBOL    NUMBER   ---       CYDEV_INTC_CLR_EN2
      000044CBH   SYMBOL    NUMBER   ---       CYDEV_INTC_CLR_EN3
      000044D8H   SYMBOL    NUMBER   ---       CYDEV_INTC_CLR_PD0
      000044D9H   SYMBOL    NUMBER   ---       CYDEV_INTC_CLR_PD1
      000044DAH   SYMBOL    NUMBER   ---       CYDEV_INTC_CLR_PD2
      000044DBH   SYMBOL    NUMBER   ---       CYDEV_INTC_CLR_PD3
      000044F4H   SYMBOL    NUMBER   ---       CYDEV_INTC_CSR_EN
      000044F0H   SYMBOL    NUMBER   ---       CYDEV_INTC_NUM_LINES
      00004480H   SYMBOL    NUMBER   ---       CYDEV_INTC_PRIOR0
      00004481H   SYMBOL    NUMBER   ---       CYDEV_INTC_PRIOR1
      0000448AH   SYMBOL    NUMBER   ---       CYDEV_INTC_PRIOR10
      0000448BH   SYMBOL    NUMBER   ---       CYDEV_INTC_PRIOR11
      0000448CH   SYMBOL    NUMBER   ---       CYDEV_INTC_PRIOR12
      0000448DH   SYMBOL    NUMBER   ---       CYDEV_INTC_PRIOR13
      0000448EH   SYMBOL    NUMBER   ---       CYDEV_INTC_PRIOR14
      0000448FH   SYMBOL    NUMBER   ---       CYDEV_INTC_PRIOR15
      00004490H   SYMBOL    NUMBER   ---       CYDEV_INTC_PRIOR16
      00004491H   SYMBOL    NUMBER   ---       CYDEV_INTC_PRIOR17
      00004492H   SYMBOL    NUMBER   ---       CYDEV_INTC_PRIOR18
      00004493H   SYMBOL    NUMBER   ---       CYDEV_INTC_PRIOR19
      00004482H   SYMBOL    NUMBER   ---       CYDEV_INTC_PRIOR2
      00004494H   SYMBOL    NUMBER   ---       CYDEV_INTC_PRIOR20
      00004495H   SYMBOL    NUMBER   ---       CYDEV_INTC_PRIOR21
      00004496H   SYMBOL    NUMBER   ---       CYDEV_INTC_PRIOR22
      00004497H   SYMBOL    NUMBER   ---       CYDEV_INTC_PRIOR23
      00004498H   SYMBOL    NUMBER   ---       CYDEV_INTC_PRIOR24
      00004499H   SYMBOL    NUMBER   ---       CYDEV_INTC_PRIOR25
      0000449AH   SYMBOL    NUMBER   ---       CYDEV_INTC_PRIOR26
      0000449BH   SYMBOL    NUMBER   ---       CYDEV_INTC_PRIOR27
      0000449CH   SYMBOL    NUMBER   ---       CYDEV_INTC_PRIOR28
      0000449DH   SYMBOL    NUMBER   ---       CYDEV_INTC_PRIOR29
      00004483H   SYMBOL    NUMBER   ---       CYDEV_INTC_PRIOR3
      0000449EH   SYMBOL    NUMBER   ---       CYDEV_INTC_PRIOR30
      0000449FH   SYMBOL    NUMBER   ---       CYDEV_INTC_PRIOR31
      00004484H   SYMBOL    NUMBER   ---       CYDEV_INTC_PRIOR4
      00004485H   SYMBOL    NUMBER   ---       CYDEV_INTC_PRIOR5
      00004486H   SYMBOL    NUMBER   ---       CYDEV_INTC_PRIOR6
      00004487H   SYMBOL    NUMBER   ---       CYDEV_INTC_PRIOR7
      00004488H   SYMBOL    NUMBER   ---       CYDEV_INTC_PRIOR8
      00004489H   SYMBOL    NUMBER   ---       CYDEV_INTC_PRIOR9
      000044C0H   SYMBOL    NUMBER   ---       CYDEV_INTC_SET_EN0
      000044C1H   SYMBOL    NUMBER   ---       CYDEV_INTC_SET_EN1
LX51 LINKER/LOCATER V4.64.0.0                                                         10/24/2019  10:28:13  PAGE 40


      000044C2H   SYMBOL    NUMBER   ---       CYDEV_INTC_SET_EN2
      000044C3H   SYMBOL    NUMBER   ---       CYDEV_INTC_SET_EN3
      000044D0H   SYMBOL    NUMBER   ---       CYDEV_INTC_SET_PD0
      000044D1H   SYMBOL    NUMBER   ---       CYDEV_INTC_SET_PD1
      000044D2H   SYMBOL    NUMBER   ---       CYDEV_INTC_SET_PD2
      000044D3H   SYMBOL    NUMBER   ---       CYDEV_INTC_SET_PD3
      000000F6H   SYMBOL    NUMBER   ---       CYDEV_INTC_SIZE
      000044E1H   SYMBOL    NUMBER   ---       CYDEV_INTC_STK1
      000044E2H   SYMBOL    NUMBER   ---       CYDEV_INTC_STK2
      000044E3H   SYMBOL    NUMBER   ---       CYDEV_INTC_STK3
      000044E4H   SYMBOL    NUMBER   ---       CYDEV_INTC_STK4
      000044E5H   SYMBOL    NUMBER   ---       CYDEV_INTC_STK5
      000044E6H   SYMBOL    NUMBER   ---       CYDEV_INTC_STK6
      000044E7H   SYMBOL    NUMBER   ---       CYDEV_INTC_STK7
      000044E8H   SYMBOL    NUMBER   ---       CYDEV_INTC_STK_INT_NUM0
      000044E9H   SYMBOL    NUMBER   ---       CYDEV_INTC_STK_INT_NUM1
      000044EAH   SYMBOL    NUMBER   ---       CYDEV_INTC_STK_INT_NUM2
      000044EBH   SYMBOL    NUMBER   ---       CYDEV_INTC_STK_INT_NUM3
      000044ECH   SYMBOL    NUMBER   ---       CYDEV_INTC_STK_INT_NUM4
      000044EDH   SYMBOL    NUMBER   ---       CYDEV_INTC_STK_INT_NUM5
      000044EEH   SYMBOL    NUMBER   ---       CYDEV_INTC_STK_INT_NUM6
      000044EFH   SYMBOL    NUMBER   ---       CYDEV_INTC_STK_INT_NUM7
      000044E0H   SYMBOL    NUMBER   ---       CYDEV_INTC_STK_TOP
      00004400H   SYMBOL    NUMBER   ---       CYDEV_INTC_VECT_MBASE
      00000040H   SYMBOL    NUMBER   ---       CYDEV_INTC_VECT_MSIZE
      00000000H   SYMBOL    NUMBER   ---       CYDEV_INTR_RISING
      00005000H   SYMBOL    NUMBER   ---       CYDEV_IO_BASE
      00005080H   SYMBOL    NUMBER   ---       CYDEV_IO_DR_BASE
      00005080H   SYMBOL    NUMBER   ---       CYDEV_IO_DR_PRT0_BASE
      00005080H   SYMBOL    NUMBER   ---       CYDEV_IO_DR_PRT0_DR_ALIAS
      00000001H   SYMBOL    NUMBER   ---       CYDEV_IO_DR_PRT0_SIZE
      0000508CH   SYMBOL    NUMBER   ---       CYDEV_IO_DR_PRT12_BASE
      0000508CH   SYMBOL    NUMBER   ---       CYDEV_IO_DR_PRT12_DR_ALIAS
      00000001H   SYMBOL    NUMBER   ---       CYDEV_IO_DR_PRT12_SIZE
      0000508FH   SYMBOL    NUMBER   ---       CYDEV_IO_DR_PRT15_BASE
      0000508FH   SYMBOL    NUMBER   ---       CYDEV_IO_DR_PRT15_DR_15_ALIAS
      00000001H   SYMBOL    NUMBER   ---       CYDEV_IO_DR_PRT15_SIZE
      00005081H   SYMBOL    NUMBER   ---       CYDEV_IO_DR_PRT1_BASE
      00005081H   SYMBOL    NUMBER   ---       CYDEV_IO_DR_PRT1_DR_ALIAS
      00000001H   SYMBOL    NUMBER   ---       CYDEV_IO_DR_PRT1_SIZE
      00005082H   SYMBOL    NUMBER   ---       CYDEV_IO_DR_PRT2_BASE
      00005082H   SYMBOL    NUMBER   ---       CYDEV_IO_DR_PRT2_DR_ALIAS
      00000001H   SYMBOL    NUMBER   ---       CYDEV_IO_DR_PRT2_SIZE
      00005083H   SYMBOL    NUMBER   ---       CYDEV_IO_DR_PRT3_BASE
      00005083H   SYMBOL    NUMBER   ---       CYDEV_IO_DR_PRT3_DR_ALIAS
      00000001H   SYMBOL    NUMBER   ---       CYDEV_IO_DR_PRT3_SIZE
      00005084H   SYMBOL    NUMBER   ---       CYDEV_IO_DR_PRT4_BASE
      00005084H   SYMBOL    NUMBER   ---       CYDEV_IO_DR_PRT4_DR_ALIAS
      00000001H   SYMBOL    NUMBER   ---       CYDEV_IO_DR_PRT4_SIZE
      00005085H   SYMBOL    NUMBER   ---       CYDEV_IO_DR_PRT5_BASE
      00005085H   SYMBOL    NUMBER   ---       CYDEV_IO_DR_PRT5_DR_ALIAS
      00000001H   SYMBOL    NUMBER   ---       CYDEV_IO_DR_PRT5_SIZE
      00005086H   SYMBOL    NUMBER   ---       CYDEV_IO_DR_PRT6_BASE
      00005086H   SYMBOL    NUMBER   ---       CYDEV_IO_DR_PRT6_DR_ALIAS
      00000001H   SYMBOL    NUMBER   ---       CYDEV_IO_DR_PRT6_SIZE
      00000010H   SYMBOL    NUMBER   ---       CYDEV_IO_DR_SIZE
      00005000H   SYMBOL    NUMBER   ---       CYDEV_IO_PC_BASE
      00005000H   SYMBOL    NUMBER   ---       CYDEV_IO_PC_PRT0_BASE
      00005000H   SYMBOL    NUMBER   ---       CYDEV_IO_PC_PRT0_PC0
      00005001H   SYMBOL    NUMBER   ---       CYDEV_IO_PC_PRT0_PC1
      00005002H   SYMBOL    NUMBER   ---       CYDEV_IO_PC_PRT0_PC2
      00005003H   SYMBOL    NUMBER   ---       CYDEV_IO_PC_PRT0_PC3
      00005004H   SYMBOL    NUMBER   ---       CYDEV_IO_PC_PRT0_PC4
      00005005H   SYMBOL    NUMBER   ---       CYDEV_IO_PC_PRT0_PC5
      00005006H   SYMBOL    NUMBER   ---       CYDEV_IO_PC_PRT0_PC6
LX51 LINKER/LOCATER V4.64.0.0                                                         10/24/2019  10:28:13  PAGE 41


      00005007H   SYMBOL    NUMBER   ---       CYDEV_IO_PC_PRT0_PC7
      00000008H   SYMBOL    NUMBER   ---       CYDEV_IO_PC_PRT0_SIZE
      00005060H   SYMBOL    NUMBER   ---       CYDEV_IO_PC_PRT12_BASE
      00005060H   SYMBOL    NUMBER   ---       CYDEV_IO_PC_PRT12_PC0
      00005061H   SYMBOL    NUMBER   ---       CYDEV_IO_PC_PRT12_PC1
      00005062H   SYMBOL    NUMBER   ---       CYDEV_IO_PC_PRT12_PC2
      00005063H   SYMBOL    NUMBER   ---       CYDEV_IO_PC_PRT12_PC3
      00005064H   SYMBOL    NUMBER   ---       CYDEV_IO_PC_PRT12_PC4
      00005065H   SYMBOL    NUMBER   ---       CYDEV_IO_PC_PRT12_PC5
      00005066H   SYMBOL    NUMBER   ---       CYDEV_IO_PC_PRT12_PC6
      00005067H   SYMBOL    NUMBER   ---       CYDEV_IO_PC_PRT12_PC7
      00000008H   SYMBOL    NUMBER   ---       CYDEV_IO_PC_PRT12_SIZE
      0000507EH   SYMBOL    NUMBER   ---       CYDEV_IO_PC_PRT15_7_6_BASE
      0000507EH   SYMBOL    NUMBER   ---       CYDEV_IO_PC_PRT15_7_6_PC0
      0000507FH   SYMBOL    NUMBER   ---       CYDEV_IO_PC_PRT15_7_6_PC1
      00000002H   SYMBOL    NUMBER   ---       CYDEV_IO_PC_PRT15_7_6_SIZE
      00005078H   SYMBOL    NUMBER   ---       CYDEV_IO_PC_PRT15_BASE
      00005078H   SYMBOL    NUMBER   ---       CYDEV_IO_PC_PRT15_PC0
      00005079H   SYMBOL    NUMBER   ---       CYDEV_IO_PC_PRT15_PC1
      0000507AH   SYMBOL    NUMBER   ---       CYDEV_IO_PC_PRT15_PC2
      0000507BH   SYMBOL    NUMBER   ---       CYDEV_IO_PC_PRT15_PC3
      0000507CH   SYMBOL    NUMBER   ---       CYDEV_IO_PC_PRT15_PC4
      0000507DH   SYMBOL    NUMBER   ---       CYDEV_IO_PC_PRT15_PC5
      00000006H   SYMBOL    NUMBER   ---       CYDEV_IO_PC_PRT15_SIZE
      00005008H   SYMBOL    NUMBER   ---       CYDEV_IO_PC_PRT1_BASE
      00005008H   SYMBOL    NUMBER   ---       CYDEV_IO_PC_PRT1_PC0
      00005009H   SYMBOL    NUMBER   ---       CYDEV_IO_PC_PRT1_PC1
      0000500AH   SYMBOL    NUMBER   ---       CYDEV_IO_PC_PRT1_PC2
      0000500BH   SYMBOL    NUMBER   ---       CYDEV_IO_PC_PRT1_PC3
      0000500CH   SYMBOL    NUMBER   ---       CYDEV_IO_PC_PRT1_PC4
      0000500DH   SYMBOL    NUMBER   ---       CYDEV_IO_PC_PRT1_PC5
      0000500EH   SYMBOL    NUMBER   ---       CYDEV_IO_PC_PRT1_PC6
      0000500FH   SYMBOL    NUMBER   ---       CYDEV_IO_PC_PRT1_PC7
      00000008H   SYMBOL    NUMBER   ---       CYDEV_IO_PC_PRT1_SIZE
      00005010H   SYMBOL    NUMBER   ---       CYDEV_IO_PC_PRT2_BASE
      00005010H   SYMBOL    NUMBER   ---       CYDEV_IO_PC_PRT2_PC0
      00005011H   SYMBOL    NUMBER   ---       CYDEV_IO_PC_PRT2_PC1
      00005012H   SYMBOL    NUMBER   ---       CYDEV_IO_PC_PRT2_PC2
      00005013H   SYMBOL    NUMBER   ---       CYDEV_IO_PC_PRT2_PC3
      00005014H   SYMBOL    NUMBER   ---       CYDEV_IO_PC_PRT2_PC4
      00005015H   SYMBOL    NUMBER   ---       CYDEV_IO_PC_PRT2_PC5
      00005016H   SYMBOL    NUMBER   ---       CYDEV_IO_PC_PRT2_PC6
      00005017H   SYMBOL    NUMBER   ---       CYDEV_IO_PC_PRT2_PC7
      00000008H   SYMBOL    NUMBER   ---       CYDEV_IO_PC_PRT2_SIZE
      00005018H   SYMBOL    NUMBER   ---       CYDEV_IO_PC_PRT3_BASE
      00005018H   SYMBOL    NUMBER   ---       CYDEV_IO_PC_PRT3_PC0
      00005019H   SYMBOL    NUMBER   ---       CYDEV_IO_PC_PRT3_PC1
      0000501AH   SYMBOL    NUMBER   ---       CYDEV_IO_PC_PRT3_PC2
      0000501BH   SYMBOL    NUMBER   ---       CYDEV_IO_PC_PRT3_PC3
      0000501CH   SYMBOL    NUMBER   ---       CYDEV_IO_PC_PRT3_PC4
      0000501DH   SYMBOL    NUMBER   ---       CYDEV_IO_PC_PRT3_PC5
      0000501EH   SYMBOL    NUMBER   ---       CYDEV_IO_PC_PRT3_PC6
      0000501FH   SYMBOL    NUMBER   ---       CYDEV_IO_PC_PRT3_PC7
      00000008H   SYMBOL    NUMBER   ---       CYDEV_IO_PC_PRT3_SIZE
      00005020H   SYMBOL    NUMBER   ---       CYDEV_IO_PC_PRT4_BASE
      00005020H   SYMBOL    NUMBER   ---       CYDEV_IO_PC_PRT4_PC0
      00005021H   SYMBOL    NUMBER   ---       CYDEV_IO_PC_PRT4_PC1
      00005022H   SYMBOL    NUMBER   ---       CYDEV_IO_PC_PRT4_PC2
      00005023H   SYMBOL    NUMBER   ---       CYDEV_IO_PC_PRT4_PC3
      00005024H   SYMBOL    NUMBER   ---       CYDEV_IO_PC_PRT4_PC4
      00005025H   SYMBOL    NUMBER   ---       CYDEV_IO_PC_PRT4_PC5
      00005026H   SYMBOL    NUMBER   ---       CYDEV_IO_PC_PRT4_PC6
      00005027H   SYMBOL    NUMBER   ---       CYDEV_IO_PC_PRT4_PC7
      00000008H   SYMBOL    NUMBER   ---       CYDEV_IO_PC_PRT4_SIZE
      00005028H   SYMBOL    NUMBER   ---       CYDEV_IO_PC_PRT5_BASE
LX51 LINKER/LOCATER V4.64.0.0                                                         10/24/2019  10:28:13  PAGE 42


      00005028H   SYMBOL    NUMBER   ---       CYDEV_IO_PC_PRT5_PC0
      00005029H   SYMBOL    NUMBER   ---       CYDEV_IO_PC_PRT5_PC1
      0000502AH   SYMBOL    NUMBER   ---       CYDEV_IO_PC_PRT5_PC2
      0000502BH   SYMBOL    NUMBER   ---       CYDEV_IO_PC_PRT5_PC3
      0000502CH   SYMBOL    NUMBER   ---       CYDEV_IO_PC_PRT5_PC4
      0000502DH   SYMBOL    NUMBER   ---       CYDEV_IO_PC_PRT5_PC5
      0000502EH   SYMBOL    NUMBER   ---       CYDEV_IO_PC_PRT5_PC6
      0000502FH   SYMBOL    NUMBER   ---       CYDEV_IO_PC_PRT5_PC7
      00000008H   SYMBOL    NUMBER   ---       CYDEV_IO_PC_PRT5_SIZE
      00005030H   SYMBOL    NUMBER   ---       CYDEV_IO_PC_PRT6_BASE
      00005030H   SYMBOL    NUMBER   ---       CYDEV_IO_PC_PRT6_PC0
      00005031H   SYMBOL    NUMBER   ---       CYDEV_IO_PC_PRT6_PC1
      00005032H   SYMBOL    NUMBER   ---       CYDEV_IO_PC_PRT6_PC2
      00005033H   SYMBOL    NUMBER   ---       CYDEV_IO_PC_PRT6_PC3
      00005034H   SYMBOL    NUMBER   ---       CYDEV_IO_PC_PRT6_PC4
      00005035H   SYMBOL    NUMBER   ---       CYDEV_IO_PC_PRT6_PC5
      00005036H   SYMBOL    NUMBER   ---       CYDEV_IO_PC_PRT6_PC6
      00005037H   SYMBOL    NUMBER   ---       CYDEV_IO_PC_PRT6_PC7
      00000008H   SYMBOL    NUMBER   ---       CYDEV_IO_PC_PRT6_SIZE
      00000080H   SYMBOL    NUMBER   ---       CYDEV_IO_PC_SIZE
      00005100H   SYMBOL    NUMBER   ---       CYDEV_IO_PRT_BASE
      0000510DH   SYMBOL    NUMBER   ---       CYDEV_IO_PRT_PRT0_AG
      0000510CH   SYMBOL    NUMBER   ---       CYDEV_IO_PRT_PRT0_AMUX
      00005100H   SYMBOL    NUMBER   ---       CYDEV_IO_PRT_PRT0_BASE
      00005107H   SYMBOL    NUMBER   ---       CYDEV_IO_PRT_PRT0_BIE
      0000510BH   SYMBOL    NUMBER   ---       CYDEV_IO_PRT_PRT0_BIT_MASK
      00005106H   SYMBOL    NUMBER   ---       CYDEV_IO_PRT_PRT0_BYP
      00005109H   SYMBOL    NUMBER   ---       CYDEV_IO_PRT_PRT0_CTL
      00005102H   SYMBOL    NUMBER   ---       CYDEV_IO_PRT_PRT0_DM0
      00005103H   SYMBOL    NUMBER   ---       CYDEV_IO_PRT_PRT0_DM1
      00005104H   SYMBOL    NUMBER   ---       CYDEV_IO_PRT_PRT0_DM2
      00005100H   SYMBOL    NUMBER   ---       CYDEV_IO_PRT_PRT0_DR
      00005108H   SYMBOL    NUMBER   ---       CYDEV_IO_PRT_PRT0_INP_DIS
      0000510EH   SYMBOL    NUMBER   ---       CYDEV_IO_PRT_PRT0_LCD_COM_SEG
      0000510FH   SYMBOL    NUMBER   ---       CYDEV_IO_PRT_PRT0_LCD_EN
      0000510AH   SYMBOL    NUMBER   ---       CYDEV_IO_PRT_PRT0_PRT
      00005101H   SYMBOL    NUMBER   ---       CYDEV_IO_PRT_PRT0_PS
      00000010H   SYMBOL    NUMBER   ---       CYDEV_IO_PRT_PRT0_SIZE
      00005105H   SYMBOL    NUMBER   ---       CYDEV_IO_PRT_PRT0_SLW
      000051CDH   SYMBOL    NUMBER   ---       CYDEV_IO_PRT_PRT12_AG
      000051C0H   SYMBOL    NUMBER   ---       CYDEV_IO_PRT_PRT12_BASE
      000051C7H   SYMBOL    NUMBER   ---       CYDEV_IO_PRT_PRT12_BIE
      000051CBH   SYMBOL    NUMBER   ---       CYDEV_IO_PRT_PRT12_BIT_MASK
      000051C6H   SYMBOL    NUMBER   ---       CYDEV_IO_PRT_PRT12_BYP
      000051C2H   SYMBOL    NUMBER   ---       CYDEV_IO_PRT_PRT12_DM0
      000051C3H   SYMBOL    NUMBER   ---       CYDEV_IO_PRT_PRT12_DM1
      000051C4H   SYMBOL    NUMBER   ---       CYDEV_IO_PRT_PRT12_DM2
      000051C0H   SYMBOL    NUMBER   ---       CYDEV_IO_PRT_PRT12_DR
      000051C8H   SYMBOL    NUMBER   ---       CYDEV_IO_PRT_PRT12_INP_DIS
      000051CAH   SYMBOL    NUMBER   ---       CYDEV_IO_PRT_PRT12_PRT
      000051C1H   SYMBOL    NUMBER   ---       CYDEV_IO_PRT_PRT12_PS
      000051CEH   SYMBOL    NUMBER   ---       CYDEV_IO_PRT_PRT12_SIO_CFG
      000051CFH   SYMBOL    NUMBER   ---       CYDEV_IO_PRT_PRT12_SIO_DIFF
      000051C9H   SYMBOL    NUMBER   ---       CYDEV_IO_PRT_PRT12_SIO_HYST_EN
      000051CCH   SYMBOL    NUMBER   ---       CYDEV_IO_PRT_PRT12_SIO_REG_HIFREQ
      00000010H   SYMBOL    NUMBER   ---       CYDEV_IO_PRT_PRT12_SIZE
      000051C5H   SYMBOL    NUMBER   ---       CYDEV_IO_PRT_PRT12_SLW
      000051FDH   SYMBOL    NUMBER   ---       CYDEV_IO_PRT_PRT15_AG
      000051FCH   SYMBOL    NUMBER   ---       CYDEV_IO_PRT_PRT15_AMUX
      000051F0H   SYMBOL    NUMBER   ---       CYDEV_IO_PRT_PRT15_BASE
      000051F7H   SYMBOL    NUMBER   ---       CYDEV_IO_PRT_PRT15_BIE
      000051FBH   SYMBOL    NUMBER   ---       CYDEV_IO_PRT_PRT15_BIT_MASK
      000051F6H   SYMBOL    NUMBER   ---       CYDEV_IO_PRT_PRT15_BYP
      000051F9H   SYMBOL    NUMBER   ---       CYDEV_IO_PRT_PRT15_CTL
      000051F2H   SYMBOL    NUMBER   ---       CYDEV_IO_PRT_PRT15_DM0
LX51 LINKER/LOCATER V4.64.0.0                                                         10/24/2019  10:28:13  PAGE 43


      000051F3H   SYMBOL    NUMBER   ---       CYDEV_IO_PRT_PRT15_DM1
      000051F4H   SYMBOL    NUMBER   ---       CYDEV_IO_PRT_PRT15_DM2
      000051F0H   SYMBOL    NUMBER   ---       CYDEV_IO_PRT_PRT15_DR
      000051F8H   SYMBOL    NUMBER   ---       CYDEV_IO_PRT_PRT15_INP_DIS
      000051FEH   SYMBOL    NUMBER   ---       CYDEV_IO_PRT_PRT15_LCD_COM_SEG
      000051FFH   SYMBOL    NUMBER   ---       CYDEV_IO_PRT_PRT15_LCD_EN
      000051FAH   SYMBOL    NUMBER   ---       CYDEV_IO_PRT_PRT15_PRT
      000051F1H   SYMBOL    NUMBER   ---       CYDEV_IO_PRT_PRT15_PS
      00000010H   SYMBOL    NUMBER   ---       CYDEV_IO_PRT_PRT15_SIZE
      000051F5H   SYMBOL    NUMBER   ---       CYDEV_IO_PRT_PRT15_SLW
      0000511DH   SYMBOL    NUMBER   ---       CYDEV_IO_PRT_PRT1_AG
      0000511CH   SYMBOL    NUMBER   ---       CYDEV_IO_PRT_PRT1_AMUX
      00005110H   SYMBOL    NUMBER   ---       CYDEV_IO_PRT_PRT1_BASE
      00005117H   SYMBOL    NUMBER   ---       CYDEV_IO_PRT_PRT1_BIE
      0000511BH   SYMBOL    NUMBER   ---       CYDEV_IO_PRT_PRT1_BIT_MASK
      00005116H   SYMBOL    NUMBER   ---       CYDEV_IO_PRT_PRT1_BYP
      00005119H   SYMBOL    NUMBER   ---       CYDEV_IO_PRT_PRT1_CTL
      00005112H   SYMBOL    NUMBER   ---       CYDEV_IO_PRT_PRT1_DM0
      00005113H   SYMBOL    NUMBER   ---       CYDEV_IO_PRT_PRT1_DM1
      00005114H   SYMBOL    NUMBER   ---       CYDEV_IO_PRT_PRT1_DM2
      00005110H   SYMBOL    NUMBER   ---       CYDEV_IO_PRT_PRT1_DR
      00005118H   SYMBOL    NUMBER   ---       CYDEV_IO_PRT_PRT1_INP_DIS
      0000511EH   SYMBOL    NUMBER   ---       CYDEV_IO_PRT_PRT1_LCD_COM_SEG
      0000511FH   SYMBOL    NUMBER   ---       CYDEV_IO_PRT_PRT1_LCD_EN
      0000511AH   SYMBOL    NUMBER   ---       CYDEV_IO_PRT_PRT1_PRT
      00005111H   SYMBOL    NUMBER   ---       CYDEV_IO_PRT_PRT1_PS
      00000010H   SYMBOL    NUMBER   ---       CYDEV_IO_PRT_PRT1_SIZE
      00005115H   SYMBOL    NUMBER   ---       CYDEV_IO_PRT_PRT1_SLW
      0000512DH   SYMBOL    NUMBER   ---       CYDEV_IO_PRT_PRT2_AG
      0000512CH   SYMBOL    NUMBER   ---       CYDEV_IO_PRT_PRT2_AMUX
      00005120H   SYMBOL    NUMBER   ---       CYDEV_IO_PRT_PRT2_BASE
      00005127H   SYMBOL    NUMBER   ---       CYDEV_IO_PRT_PRT2_BIE
      0000512BH   SYMBOL    NUMBER   ---       CYDEV_IO_PRT_PRT2_BIT_MASK
      00005126H   SYMBOL    NUMBER   ---       CYDEV_IO_PRT_PRT2_BYP
      00005129H   SYMBOL    NUMBER   ---       CYDEV_IO_PRT_PRT2_CTL
      00005122H   SYMBOL    NUMBER   ---       CYDEV_IO_PRT_PRT2_DM0
      00005123H   SYMBOL    NUMBER   ---       CYDEV_IO_PRT_PRT2_DM1
      00005124H   SYMBOL    NUMBER   ---       CYDEV_IO_PRT_PRT2_DM2
      00005120H   SYMBOL    NUMBER   ---       CYDEV_IO_PRT_PRT2_DR
      00005128H   SYMBOL    NUMBER   ---       CYDEV_IO_PRT_PRT2_INP_DIS
      0000512EH   SYMBOL    NUMBER   ---       CYDEV_IO_PRT_PRT2_LCD_COM_SEG
      0000512FH   SYMBOL    NUMBER   ---       CYDEV_IO_PRT_PRT2_LCD_EN
      0000512AH   SYMBOL    NUMBER   ---       CYDEV_IO_PRT_PRT2_PRT
      00005121H   SYMBOL    NUMBER   ---       CYDEV_IO_PRT_PRT2_PS
      00000010H   SYMBOL    NUMBER   ---       CYDEV_IO_PRT_PRT2_SIZE
      00005125H   SYMBOL    NUMBER   ---       CYDEV_IO_PRT_PRT2_SLW
      0000513DH   SYMBOL    NUMBER   ---       CYDEV_IO_PRT_PRT3_AG
      0000513CH   SYMBOL    NUMBER   ---       CYDEV_IO_PRT_PRT3_AMUX
      00005130H   SYMBOL    NUMBER   ---       CYDEV_IO_PRT_PRT3_BASE
      00005137H   SYMBOL    NUMBER   ---       CYDEV_IO_PRT_PRT3_BIE
      0000513BH   SYMBOL    NUMBER   ---       CYDEV_IO_PRT_PRT3_BIT_MASK
      00005136H   SYMBOL    NUMBER   ---       CYDEV_IO_PRT_PRT3_BYP
      00005139H   SYMBOL    NUMBER   ---       CYDEV_IO_PRT_PRT3_CTL
      00005132H   SYMBOL    NUMBER   ---       CYDEV_IO_PRT_PRT3_DM0
      00005133H   SYMBOL    NUMBER   ---       CYDEV_IO_PRT_PRT3_DM1
      00005134H   SYMBOL    NUMBER   ---       CYDEV_IO_PRT_PRT3_DM2
      00005130H   SYMBOL    NUMBER   ---       CYDEV_IO_PRT_PRT3_DR
      00005138H   SYMBOL    NUMBER   ---       CYDEV_IO_PRT_PRT3_INP_DIS
      0000513EH   SYMBOL    NUMBER   ---       CYDEV_IO_PRT_PRT3_LCD_COM_SEG
      0000513FH   SYMBOL    NUMBER   ---       CYDEV_IO_PRT_PRT3_LCD_EN
      0000513AH   SYMBOL    NUMBER   ---       CYDEV_IO_PRT_PRT3_PRT
      00005131H   SYMBOL    NUMBER   ---       CYDEV_IO_PRT_PRT3_PS
      00000010H   SYMBOL    NUMBER   ---       CYDEV_IO_PRT_PRT3_SIZE
      00005135H   SYMBOL    NUMBER   ---       CYDEV_IO_PRT_PRT3_SLW
      0000514DH   SYMBOL    NUMBER   ---       CYDEV_IO_PRT_PRT4_AG
LX51 LINKER/LOCATER V4.64.0.0                                                         10/24/2019  10:28:13  PAGE 44


      0000514CH   SYMBOL    NUMBER   ---       CYDEV_IO_PRT_PRT4_AMUX
      00005140H   SYMBOL    NUMBER   ---       CYDEV_IO_PRT_PRT4_BASE
      00005147H   SYMBOL    NUMBER   ---       CYDEV_IO_PRT_PRT4_BIE
      0000514BH   SYMBOL    NUMBER   ---       CYDEV_IO_PRT_PRT4_BIT_MASK
      00005146H   SYMBOL    NUMBER   ---       CYDEV_IO_PRT_PRT4_BYP
      00005149H   SYMBOL    NUMBER   ---       CYDEV_IO_PRT_PRT4_CTL
      00005142H   SYMBOL    NUMBER   ---       CYDEV_IO_PRT_PRT4_DM0
      00005143H   SYMBOL    NUMBER   ---       CYDEV_IO_PRT_PRT4_DM1
      00005144H   SYMBOL    NUMBER   ---       CYDEV_IO_PRT_PRT4_DM2
      00005140H   SYMBOL    NUMBER   ---       CYDEV_IO_PRT_PRT4_DR
      00005148H   SYMBOL    NUMBER   ---       CYDEV_IO_PRT_PRT4_INP_DIS
      0000514EH   SYMBOL    NUMBER   ---       CYDEV_IO_PRT_PRT4_LCD_COM_SEG
      0000514FH   SYMBOL    NUMBER   ---       CYDEV_IO_PRT_PRT4_LCD_EN
      0000514AH   SYMBOL    NUMBER   ---       CYDEV_IO_PRT_PRT4_PRT
      00005141H   SYMBOL    NUMBER   ---       CYDEV_IO_PRT_PRT4_PS
      00000010H   SYMBOL    NUMBER   ---       CYDEV_IO_PRT_PRT4_SIZE
      00005145H   SYMBOL    NUMBER   ---       CYDEV_IO_PRT_PRT4_SLW
      0000515DH   SYMBOL    NUMBER   ---       CYDEV_IO_PRT_PRT5_AG
      0000515CH   SYMBOL    NUMBER   ---       CYDEV_IO_PRT_PRT5_AMUX
      00005150H   SYMBOL    NUMBER   ---       CYDEV_IO_PRT_PRT5_BASE
      00005157H   SYMBOL    NUMBER   ---       CYDEV_IO_PRT_PRT5_BIE
      0000515BH   SYMBOL    NUMBER   ---       CYDEV_IO_PRT_PRT5_BIT_MASK
      00005156H   SYMBOL    NUMBER   ---       CYDEV_IO_PRT_PRT5_BYP
      00005159H   SYMBOL    NUMBER   ---       CYDEV_IO_PRT_PRT5_CTL
      00005152H   SYMBOL    NUMBER   ---       CYDEV_IO_PRT_PRT5_DM0
      00005153H   SYMBOL    NUMBER   ---       CYDEV_IO_PRT_PRT5_DM1
      00005154H   SYMBOL    NUMBER   ---       CYDEV_IO_PRT_PRT5_DM2
      00005150H   SYMBOL    NUMBER   ---       CYDEV_IO_PRT_PRT5_DR
      00005158H   SYMBOL    NUMBER   ---       CYDEV_IO_PRT_PRT5_INP_DIS
      0000515EH   SYMBOL    NUMBER   ---       CYDEV_IO_PRT_PRT5_LCD_COM_SEG
      0000515FH   SYMBOL    NUMBER   ---       CYDEV_IO_PRT_PRT5_LCD_EN
      0000515AH   SYMBOL    NUMBER   ---       CYDEV_IO_PRT_PRT5_PRT
      00005151H   SYMBOL    NUMBER   ---       CYDEV_IO_PRT_PRT5_PS
      00000010H   SYMBOL    NUMBER   ---       CYDEV_IO_PRT_PRT5_SIZE
      00005155H   SYMBOL    NUMBER   ---       CYDEV_IO_PRT_PRT5_SLW
      0000516DH   SYMBOL    NUMBER   ---       CYDEV_IO_PRT_PRT6_AG
      0000516CH   SYMBOL    NUMBER   ---       CYDEV_IO_PRT_PRT6_AMUX
      00005160H   SYMBOL    NUMBER   ---       CYDEV_IO_PRT_PRT6_BASE
      00005167H   SYMBOL    NUMBER   ---       CYDEV_IO_PRT_PRT6_BIE
      0000516BH   SYMBOL    NUMBER   ---       CYDEV_IO_PRT_PRT6_BIT_MASK
      00005166H   SYMBOL    NUMBER   ---       CYDEV_IO_PRT_PRT6_BYP
      00005169H   SYMBOL    NUMBER   ---       CYDEV_IO_PRT_PRT6_CTL
      00005162H   SYMBOL    NUMBER   ---       CYDEV_IO_PRT_PRT6_DM0
      00005163H   SYMBOL    NUMBER   ---       CYDEV_IO_PRT_PRT6_DM1
      00005164H   SYMBOL    NUMBER   ---       CYDEV_IO_PRT_PRT6_DM2
      00005160H   SYMBOL    NUMBER   ---       CYDEV_IO_PRT_PRT6_DR
      00005168H   SYMBOL    NUMBER   ---       CYDEV_IO_PRT_PRT6_INP_DIS
      0000516EH   SYMBOL    NUMBER   ---       CYDEV_IO_PRT_PRT6_LCD_COM_SEG
      0000516FH   SYMBOL    NUMBER   ---       CYDEV_IO_PRT_PRT6_LCD_EN
      0000516AH   SYMBOL    NUMBER   ---       CYDEV_IO_PRT_PRT6_PRT
      00005161H   SYMBOL    NUMBER   ---       CYDEV_IO_PRT_PRT6_PS
      00000010H   SYMBOL    NUMBER   ---       CYDEV_IO_PRT_PRT6_SIZE
      00005165H   SYMBOL    NUMBER   ---       CYDEV_IO_PRT_PRT6_SLW
      00000100H   SYMBOL    NUMBER   ---       CYDEV_IO_PRT_SIZE
      00005090H   SYMBOL    NUMBER   ---       CYDEV_IO_PS_BASE
      00005090H   SYMBOL    NUMBER   ---       CYDEV_IO_PS_PRT0_BASE
      00005090H   SYMBOL    NUMBER   ---       CYDEV_IO_PS_PRT0_PS_ALIAS
      00000001H   SYMBOL    NUMBER   ---       CYDEV_IO_PS_PRT0_SIZE
      0000509CH   SYMBOL    NUMBER   ---       CYDEV_IO_PS_PRT12_BASE
      0000509CH   SYMBOL    NUMBER   ---       CYDEV_IO_PS_PRT12_PS_ALIAS
      00000001H   SYMBOL    NUMBER   ---       CYDEV_IO_PS_PRT12_SIZE
      0000509FH   SYMBOL    NUMBER   ---       CYDEV_IO_PS_PRT15_BASE
      0000509FH   SYMBOL    NUMBER   ---       CYDEV_IO_PS_PRT15_PS15_ALIAS
      00000001H   SYMBOL    NUMBER   ---       CYDEV_IO_PS_PRT15_SIZE
      00005091H   SYMBOL    NUMBER   ---       CYDEV_IO_PS_PRT1_BASE
LX51 LINKER/LOCATER V4.64.0.0                                                         10/24/2019  10:28:13  PAGE 45


      00005091H   SYMBOL    NUMBER   ---       CYDEV_IO_PS_PRT1_PS_ALIAS
      00000001H   SYMBOL    NUMBER   ---       CYDEV_IO_PS_PRT1_SIZE
      00005092H   SYMBOL    NUMBER   ---       CYDEV_IO_PS_PRT2_BASE
      00005092H   SYMBOL    NUMBER   ---       CYDEV_IO_PS_PRT2_PS_ALIAS
      00000001H   SYMBOL    NUMBER   ---       CYDEV_IO_PS_PRT2_SIZE
      00005093H   SYMBOL    NUMBER   ---       CYDEV_IO_PS_PRT3_BASE
      00005093H   SYMBOL    NUMBER   ---       CYDEV_IO_PS_PRT3_PS_ALIAS
      00000001H   SYMBOL    NUMBER   ---       CYDEV_IO_PS_PRT3_SIZE
      00005094H   SYMBOL    NUMBER   ---       CYDEV_IO_PS_PRT4_BASE
      00005094H   SYMBOL    NUMBER   ---       CYDEV_IO_PS_PRT4_PS_ALIAS
      00000001H   SYMBOL    NUMBER   ---       CYDEV_IO_PS_PRT4_SIZE
      00005095H   SYMBOL    NUMBER   ---       CYDEV_IO_PS_PRT5_BASE
      00005095H   SYMBOL    NUMBER   ---       CYDEV_IO_PS_PRT5_PS_ALIAS
      00000001H   SYMBOL    NUMBER   ---       CYDEV_IO_PS_PRT5_SIZE
      00005096H   SYMBOL    NUMBER   ---       CYDEV_IO_PS_PRT6_BASE
      00005096H   SYMBOL    NUMBER   ---       CYDEV_IO_PS_PRT6_PS_ALIAS
      00000001H   SYMBOL    NUMBER   ---       CYDEV_IO_PS_PRT6_SIZE
      00000010H   SYMBOL    NUMBER   ---       CYDEV_IO_PS_SIZE
      00000200H   SYMBOL    NUMBER   ---       CYDEV_IO_SIZE
      00050000H   SYMBOL    NUMBER   ---       CYDEV_IRAM_BASE
      00050080H   SYMBOL    NUMBER   ---       CYDEV_IRAM_IRAM_H_BASE
      00050080H   SYMBOL    NUMBER   ---       CYDEV_IRAM_IRAM_H_DATA_RAM_H_MBASE
      00000080H   SYMBOL    NUMBER   ---       CYDEV_IRAM_IRAM_H_DATA_RAM_H_MSIZE
      00000080H   SYMBOL    NUMBER   ---       CYDEV_IRAM_IRAM_H_SIZE
      00050000H   SYMBOL    NUMBER   ---       CYDEV_IRAM_IRAM_L_BASE
      00050000H   SYMBOL    NUMBER   ---       CYDEV_IRAM_IRAM_L_DATA_RAM_L_MBASE
      00000080H   SYMBOL    NUMBER   ---       CYDEV_IRAM_IRAM_L_DATA_RAM_L_MSIZE
      00000080H   SYMBOL    NUMBER   ---       CYDEV_IRAM_IRAM_L_SIZE
      00000100H   SYMBOL    NUMBER   ---       CYDEV_IRAM_SIZE
      00000000H   SYMBOL    NUMBER   ---       CYDEV_IS_EXPORTING_CODE
      00000000H   SYMBOL    NUMBER   ---       CYDEV_IS_IMPORTING_CODE
      00004600H   SYMBOL    NUMBER   ---       CYDEV_MFGCFG_ANAIF_BASE
      00004630H   SYMBOL    NUMBER   ---       CYDEV_MFGCFG_ANAIF_CMP0_BASE
      00000002H   SYMBOL    NUMBER   ---       CYDEV_MFGCFG_ANAIF_CMP0_SIZE
      00004630H   SYMBOL    NUMBER   ---       CYDEV_MFGCFG_ANAIF_CMP0_TR0
      00004631H   SYMBOL    NUMBER   ---       CYDEV_MFGCFG_ANAIF_CMP0_TR1
      00004632H   SYMBOL    NUMBER   ---       CYDEV_MFGCFG_ANAIF_CMP1_BASE
      00000002H   SYMBOL    NUMBER   ---       CYDEV_MFGCFG_ANAIF_CMP1_SIZE
      00004632H   SYMBOL    NUMBER   ---       CYDEV_MFGCFG_ANAIF_CMP1_TR0
      00004633H   SYMBOL    NUMBER   ---       CYDEV_MFGCFG_ANAIF_CMP1_TR1
      00004634H   SYMBOL    NUMBER   ---       CYDEV_MFGCFG_ANAIF_CMP2_BASE
      00000002H   SYMBOL    NUMBER   ---       CYDEV_MFGCFG_ANAIF_CMP2_SIZE
      00004634H   SYMBOL    NUMBER   ---       CYDEV_MFGCFG_ANAIF_CMP2_TR0
      00004635H   SYMBOL    NUMBER   ---       CYDEV_MFGCFG_ANAIF_CMP2_TR1
      00004636H   SYMBOL    NUMBER   ---       CYDEV_MFGCFG_ANAIF_CMP3_BASE
      00000002H   SYMBOL    NUMBER   ---       CYDEV_MFGCFG_ANAIF_CMP3_SIZE
      00004636H   SYMBOL    NUMBER   ---       CYDEV_MFGCFG_ANAIF_CMP3_TR0
      00004637H   SYMBOL    NUMBER   ---       CYDEV_MFGCFG_ANAIF_CMP3_TR1
      00004608H   SYMBOL    NUMBER   ---       CYDEV_MFGCFG_ANAIF_DAC0_BASE
      00000001H   SYMBOL    NUMBER   ---       CYDEV_MFGCFG_ANAIF_DAC0_SIZE
      00004608H   SYMBOL    NUMBER   ---       CYDEV_MFGCFG_ANAIF_DAC0_TR
      00004609H   SYMBOL    NUMBER   ---       CYDEV_MFGCFG_ANAIF_DAC1_BASE
      00000001H   SYMBOL    NUMBER   ---       CYDEV_MFGCFG_ANAIF_DAC1_SIZE
      00004609H   SYMBOL    NUMBER   ---       CYDEV_MFGCFG_ANAIF_DAC1_TR
      0000460AH   SYMBOL    NUMBER   ---       CYDEV_MFGCFG_ANAIF_DAC2_BASE
      00000001H   SYMBOL    NUMBER   ---       CYDEV_MFGCFG_ANAIF_DAC2_SIZE
      0000460AH   SYMBOL    NUMBER   ---       CYDEV_MFGCFG_ANAIF_DAC2_TR
      0000460BH   SYMBOL    NUMBER   ---       CYDEV_MFGCFG_ANAIF_DAC3_BASE
      00000001H   SYMBOL    NUMBER   ---       CYDEV_MFGCFG_ANAIF_DAC3_SIZE
      0000460BH   SYMBOL    NUMBER   ---       CYDEV_MFGCFG_ANAIF_DAC3_TR
      00004610H   SYMBOL    NUMBER   ---       CYDEV_MFGCFG_ANAIF_NPUMP_DSM_BASE
      00000001H   SYMBOL    NUMBER   ---       CYDEV_MFGCFG_ANAIF_NPUMP_DSM_SIZE
      00004610H   SYMBOL    NUMBER   ---       CYDEV_MFGCFG_ANAIF_NPUMP_DSM_TR0
      00004612H   SYMBOL    NUMBER   ---       CYDEV_MFGCFG_ANAIF_NPUMP_OPAMP_BASE
      00000001H   SYMBOL    NUMBER   ---       CYDEV_MFGCFG_ANAIF_NPUMP_OPAMP_SIZE
LX51 LINKER/LOCATER V4.64.0.0                                                         10/24/2019  10:28:13  PAGE 46


      00004612H   SYMBOL    NUMBER   ---       CYDEV_MFGCFG_ANAIF_NPUMP_OPAMP_TR0
      00004611H   SYMBOL    NUMBER   ---       CYDEV_MFGCFG_ANAIF_NPUMP_SC_BASE
      00000001H   SYMBOL    NUMBER   ---       CYDEV_MFGCFG_ANAIF_NPUMP_SC_SIZE
      00004611H   SYMBOL    NUMBER   ---       CYDEV_MFGCFG_ANAIF_NPUMP_SC_TR0
      00004620H   SYMBOL    NUMBER   ---       CYDEV_MFGCFG_ANAIF_OPAMP0_BASE
      00000002H   SYMBOL    NUMBER   ---       CYDEV_MFGCFG_ANAIF_OPAMP0_SIZE
      00004620H   SYMBOL    NUMBER   ---       CYDEV_MFGCFG_ANAIF_OPAMP0_TR0
      00004621H   SYMBOL    NUMBER   ---       CYDEV_MFGCFG_ANAIF_OPAMP0_TR1
      00004622H   SYMBOL    NUMBER   ---       CYDEV_MFGCFG_ANAIF_OPAMP1_BASE
      00000002H   SYMBOL    NUMBER   ---       CYDEV_MFGCFG_ANAIF_OPAMP1_SIZE
      00004622H   SYMBOL    NUMBER   ---       CYDEV_MFGCFG_ANAIF_OPAMP1_TR0
      00004623H   SYMBOL    NUMBER   ---       CYDEV_MFGCFG_ANAIF_OPAMP1_TR1
      00004624H   SYMBOL    NUMBER   ---       CYDEV_MFGCFG_ANAIF_OPAMP2_BASE
      00000002H   SYMBOL    NUMBER   ---       CYDEV_MFGCFG_ANAIF_OPAMP2_SIZE
      00004624H   SYMBOL    NUMBER   ---       CYDEV_MFGCFG_ANAIF_OPAMP2_TR0
      00004625H   SYMBOL    NUMBER   ---       CYDEV_MFGCFG_ANAIF_OPAMP2_TR1
      00004626H   SYMBOL    NUMBER   ---       CYDEV_MFGCFG_ANAIF_OPAMP3_BASE
      00000002H   SYMBOL    NUMBER   ---       CYDEV_MFGCFG_ANAIF_OPAMP3_SIZE
      00004626H   SYMBOL    NUMBER   ---       CYDEV_MFGCFG_ANAIF_OPAMP3_TR0
      00004627H   SYMBOL    NUMBER   ---       CYDEV_MFGCFG_ANAIF_OPAMP3_TR1
      00000038H   SYMBOL    NUMBER   ---       CYDEV_MFGCFG_ANAIF_SIZE
      00004600H   SYMBOL    NUMBER   ---       CYDEV_MFGCFG_BASE
      000046C0H   SYMBOL    NUMBER   ---       CYDEV_MFGCFG_DLY
      00004690H   SYMBOL    NUMBER   ---       CYDEV_MFGCFG_ILO_BASE
      00000002H   SYMBOL    NUMBER   ---       CYDEV_MFGCFG_ILO_SIZE
      00004690H   SYMBOL    NUMBER   ---       CYDEV_MFGCFG_ILO_TR0
      00004691H   SYMBOL    NUMBER   ---       CYDEV_MFGCFG_ILO_TR1
      000046A0H   SYMBOL    NUMBER   ---       CYDEV_MFGCFG_IMO_BASE
      000046A3H   SYMBOL    NUMBER   ---       CYDEV_MFGCFG_IMO_C36M
      000046A2H   SYMBOL    NUMBER   ---       CYDEV_MFGCFG_IMO_GAIN
      00000005H   SYMBOL    NUMBER   ---       CYDEV_MFGCFG_IMO_SIZE
      000046A0H   SYMBOL    NUMBER   ---       CYDEV_MFGCFG_IMO_TR0
      000046A1H   SYMBOL    NUMBER   ---       CYDEV_MFGCFG_IMO_TR1
      000046A4H   SYMBOL    NUMBER   ---       CYDEV_MFGCFG_IMO_TR2
      000046E0H   SYMBOL    NUMBER   ---       CYDEV_MFGCFG_MLOGIC_BASE
      000046EAH   SYMBOL    NUMBER   ---       CYDEV_MFGCFG_MLOGIC_CPU_SCR_BASE
      000046EAH   SYMBOL    NUMBER   ---       CYDEV_MFGCFG_MLOGIC_CPU_SCR_CPU_SCR
      00000001H   SYMBOL    NUMBER   ---       CYDEV_MFGCFG_MLOGIC_CPU_SCR_SIZE
      000046E8H   SYMBOL    NUMBER   ---       CYDEV_MFGCFG_MLOGIC_DEBUG
      000046E2H   SYMBOL    NUMBER   ---       CYDEV_MFGCFG_MLOGIC_DMPSTR
      000046ECH   SYMBOL    NUMBER   ---       CYDEV_MFGCFG_MLOGIC_REV_ID
      000046E4H   SYMBOL    NUMBER   ---       CYDEV_MFGCFG_MLOGIC_SEG_BASE
      000046E5H   SYMBOL    NUMBER   ---       CYDEV_MFGCFG_MLOGIC_SEG_CFG0
      000046E4H   SYMBOL    NUMBER   ---       CYDEV_MFGCFG_MLOGIC_SEG_CR
      00000002H   SYMBOL    NUMBER   ---       CYDEV_MFGCFG_MLOGIC_SEG_SIZE
      0000000DH   SYMBOL    NUMBER   ---       CYDEV_MFGCFG_MLOGIC_SIZE
      00004680H   SYMBOL    NUMBER   ---       CYDEV_MFGCFG_PWRSYS_BASE
      00004688H   SYMBOL    NUMBER   ---       CYDEV_MFGCFG_PWRSYS_BG_TR
      00004687H   SYMBOL    NUMBER   ---       CYDEV_MFGCFG_PWRSYS_BREF_TR
      00004684H   SYMBOL    NUMBER   ---       CYDEV_MFGCFG_PWRSYS_BUZZ_TR
      00004680H   SYMBOL    NUMBER   ---       CYDEV_MFGCFG_PWRSYS_HIB_TR0
      00004681H   SYMBOL    NUMBER   ---       CYDEV_MFGCFG_PWRSYS_HIB_TR1
      00004682H   SYMBOL    NUMBER   ---       CYDEV_MFGCFG_PWRSYS_I2C_TR
      0000000BH   SYMBOL    NUMBER   ---       CYDEV_MFGCFG_PWRSYS_SIZE
      00004683H   SYMBOL    NUMBER   ---       CYDEV_MFGCFG_PWRSYS_SLP_TR
      00004685H   SYMBOL    NUMBER   ---       CYDEV_MFGCFG_PWRSYS_WAKE_TR0
      00004686H   SYMBOL    NUMBER   ---       CYDEV_MFGCFG_PWRSYS_WAKE_TR1
      00004689H   SYMBOL    NUMBER   ---       CYDEV_MFGCFG_PWRSYS_WAKE_TR2
      0000468AH   SYMBOL    NUMBER   ---       CYDEV_MFGCFG_PWRSYS_WAKE_TR3
      000000EDH   SYMBOL    NUMBER   ---       CYDEV_MFGCFG_SIZE
      00004698H   SYMBOL    NUMBER   ---       CYDEV_MFGCFG_X32_BASE
      00000001H   SYMBOL    NUMBER   ---       CYDEV_MFGCFG_X32_SIZE
      00004698H   SYMBOL    NUMBER   ---       CYDEV_MFGCFG_X32_TR
      000046A8H   SYMBOL    NUMBER   ---       CYDEV_MFGCFG_XMHZ_BASE
      00000001H   SYMBOL    NUMBER   ---       CYDEV_MFGCFG_XMHZ_SIZE
LX51 LINKER/LOCATER V4.64.0.0                                                         10/24/2019  10:28:13  PAGE 47


      000046A8H   SYMBOL    NUMBER   ---       CYDEV_MFGCFG_XMHZ_TR
      00004000H   SYMBOL    NUMBER   ---       CYDEV_PERIPH_BASE
      00007000H   SYMBOL    NUMBER   ---       CYDEV_PHUB_BASE
      00007000H   SYMBOL    NUMBER   ---       CYDEV_PHUB_CFG
      00007600H   SYMBOL    NUMBER   ---       CYDEV_PHUB_CFGMEM0_BASE
      00007600H   SYMBOL    NUMBER   ---       CYDEV_PHUB_CFGMEM0_CFG0
      00007604H   SYMBOL    NUMBER   ---       CYDEV_PHUB_CFGMEM0_CFG1
      00000008H   SYMBOL    NUMBER   ---       CYDEV_PHUB_CFGMEM0_SIZE
      00007650H   SYMBOL    NUMBER   ---       CYDEV_PHUB_CFGMEM10_BASE
      00007650H   SYMBOL    NUMBER   ---       CYDEV_PHUB_CFGMEM10_CFG0
      00007654H   SYMBOL    NUMBER   ---       CYDEV_PHUB_CFGMEM10_CFG1
      00000008H   SYMBOL    NUMBER   ---       CYDEV_PHUB_CFGMEM10_SIZE
      00007658H   SYMBOL    NUMBER   ---       CYDEV_PHUB_CFGMEM11_BASE
      00007658H   SYMBOL    NUMBER   ---       CYDEV_PHUB_CFGMEM11_CFG0
      0000765CH   SYMBOL    NUMBER   ---       CYDEV_PHUB_CFGMEM11_CFG1
      00000008H   SYMBOL    NUMBER   ---       CYDEV_PHUB_CFGMEM11_SIZE
      00007660H   SYMBOL    NUMBER   ---       CYDEV_PHUB_CFGMEM12_BASE
      00007660H   SYMBOL    NUMBER   ---       CYDEV_PHUB_CFGMEM12_CFG0
      00007664H   SYMBOL    NUMBER   ---       CYDEV_PHUB_CFGMEM12_CFG1
      00000008H   SYMBOL    NUMBER   ---       CYDEV_PHUB_CFGMEM12_SIZE
      00007668H   SYMBOL    NUMBER   ---       CYDEV_PHUB_CFGMEM13_BASE
      00007668H   SYMBOL    NUMBER   ---       CYDEV_PHUB_CFGMEM13_CFG0
      0000766CH   SYMBOL    NUMBER   ---       CYDEV_PHUB_CFGMEM13_CFG1
      00000008H   SYMBOL    NUMBER   ---       CYDEV_PHUB_CFGMEM13_SIZE
      00007670H   SYMBOL    NUMBER   ---       CYDEV_PHUB_CFGMEM14_BASE
      00007670H   SYMBOL    NUMBER   ---       CYDEV_PHUB_CFGMEM14_CFG0
      00007674H   SYMBOL    NUMBER   ---       CYDEV_PHUB_CFGMEM14_CFG1
      00000008H   SYMBOL    NUMBER   ---       CYDEV_PHUB_CFGMEM14_SIZE
      00007678H   SYMBOL    NUMBER   ---       CYDEV_PHUB_CFGMEM15_BASE
      00007678H   SYMBOL    NUMBER   ---       CYDEV_PHUB_CFGMEM15_CFG0
      0000767CH   SYMBOL    NUMBER   ---       CYDEV_PHUB_CFGMEM15_CFG1
      00000008H   SYMBOL    NUMBER   ---       CYDEV_PHUB_CFGMEM15_SIZE
      00007680H   SYMBOL    NUMBER   ---       CYDEV_PHUB_CFGMEM16_BASE
      00007680H   SYMBOL    NUMBER   ---       CYDEV_PHUB_CFGMEM16_CFG0
      00007684H   SYMBOL    NUMBER   ---       CYDEV_PHUB_CFGMEM16_CFG1
      00000008H   SYMBOL    NUMBER   ---       CYDEV_PHUB_CFGMEM16_SIZE
      00007688H   SYMBOL    NUMBER   ---       CYDEV_PHUB_CFGMEM17_BASE
      00007688H   SYMBOL    NUMBER   ---       CYDEV_PHUB_CFGMEM17_CFG0
      0000768CH   SYMBOL    NUMBER   ---       CYDEV_PHUB_CFGMEM17_CFG1
      00000008H   SYMBOL    NUMBER   ---       CYDEV_PHUB_CFGMEM17_SIZE
      00007690H   SYMBOL    NUMBER   ---       CYDEV_PHUB_CFGMEM18_BASE
      00007690H   SYMBOL    NUMBER   ---       CYDEV_PHUB_CFGMEM18_CFG0
      00007694H   SYMBOL    NUMBER   ---       CYDEV_PHUB_CFGMEM18_CFG1
      00000008H   SYMBOL    NUMBER   ---       CYDEV_PHUB_CFGMEM18_SIZE
      00007698H   SYMBOL    NUMBER   ---       CYDEV_PHUB_CFGMEM19_BASE
      00007698H   SYMBOL    NUMBER   ---       CYDEV_PHUB_CFGMEM19_CFG0
      0000769CH   SYMBOL    NUMBER   ---       CYDEV_PHUB_CFGMEM19_CFG1
      00000008H   SYMBOL    NUMBER   ---       CYDEV_PHUB_CFGMEM19_SIZE
      00007608H   SYMBOL    NUMBER   ---       CYDEV_PHUB_CFGMEM1_BASE
      00007608H   SYMBOL    NUMBER   ---       CYDEV_PHUB_CFGMEM1_CFG0
      0000760CH   SYMBOL    NUMBER   ---       CYDEV_PHUB_CFGMEM1_CFG1
      00000008H   SYMBOL    NUMBER   ---       CYDEV_PHUB_CFGMEM1_SIZE
      000076A0H   SYMBOL    NUMBER   ---       CYDEV_PHUB_CFGMEM20_BASE
      000076A0H   SYMBOL    NUMBER   ---       CYDEV_PHUB_CFGMEM20_CFG0
      000076A4H   SYMBOL    NUMBER   ---       CYDEV_PHUB_CFGMEM20_CFG1
      00000008H   SYMBOL    NUMBER   ---       CYDEV_PHUB_CFGMEM20_SIZE
