:100000000204FB008F828E83E0540100000070F830
:100010002278FFE4F6D8FD020559BB010689828AE1
:1000200083E0225002E722BBFE02E32289828A8318
:10003000E49322BB010689828A83F0225002F722D0
:10004000BBFE01F322C5F0F8A3E028F0C5F0F8E507
:1000500082158270021583E038F022EF2BFFEE3A12
:10006000FEED39FDEC38FC22E88FF0A4CC8BF0A437
:100070002CFCE98EF0A42CFC8AF0EDA42CFCEA8E7A
:10008000F0A4CDA8F08BF0A42DCC3825F0FDE98F9D
:10009000F0A42CCD35F0FCEB8EF0A4FEA9F0EB8F94
:1000A000F0A4CFC5F02ECD39FEE43CFCEAA42DCE61
:1000B00035F0FDE43CFC2275F008758200EF2FFF5F
:1000C000EE33FECD33CDCC33CCC58233C5829BED30
:1000D0009AEC99E58298400CF582EE9BFEED9AFD34
:1000E000EC99FC0FD5F0D6E4CEFBE4CDFAE4CCF9E4
:1000F000A88222B800C1B90059BA002DEC8BF08457
:10010000CFCECDFCE5F0CBF97818EF2FFFEE33FE24
:10011000ED33FDEC33FCEB33FB10D703994004EBDC
:1001200099FB0FD8E5E4F9FA227818EF2FFFEE33A8
:10013000FEED33FDEC33FCC933C910D7059BE99ABA
:100140004007EC9BFCE99AF90FD8E0E4C9FAE4CC4B
:10015000FB2275F010EF2FFFEE33FEED33FDCC33B5
:10016000CCC833C810D7079BEC9AE899400AED9B9E
:10017000FDEC9AFCE899F80FD5F0DAE4CDFBE4CC7D
:10018000FAE4C8F922EF4BFFEE4AFEED49FDEC48D8
:10019000FC22EB9FF5F0EA9E42F0E99D42F0E89CDC
:1001A00045F022E8600FECC313FCED13FDEE13FEE7
:1001B000EF13FFD8F122E8600FEFC333FFEE33FEF9
:1001C000ED33FDEC33FCD8F122BB010789828A8331
:1001D0000202035005E9F80202BCBBFE05E9F80281
:1001E00002C889828A830202D4BB010789828A837A
:1001F00002021B5005E9F80202E4BBFE05E9F80221
:1002000002F022E0FCA3E0FDA3E0FEA3E0FF22E079
:10021000F8A3E0F9A3E0FAA3E0FB22ECF0A3EDF0F1
:10022000A3EEF0A3EFF022E0FBA3E0FAA3E0F922B3
:10023000EBF0A3EAF0A3E9F022E493FB740193FA54
:10024000740293F922D083D082F8E493701274017F
:1002500093700DA3A393F8740193F5828883E473DC
:100260007402936860EFA3A3A380DFE50C2582F5F9
:1002700082E50B3583F583B50B0485820C2210AF24
:100280000685820CF50B2285820CF50BD2AF22EC91
:100290008EF0A4CCC5F0CCCDF8EFA4CEC5F02DFDEA
:1002A000E43CFCE8A42EC8C5F03DFDE43CFCEFA412
:1002B000FFE5F028FEE43DFDE43CFC22E6FC08E618
:1002C000FD08E6FE08E6FF22E2FC08E2FD08E2FE89
:1002D00008E2FF22E493FC740193FD740293FE7420
:1002E0000393FF22ECF608EDF608EEF608EFF6228F
:1002F000ECF208EDF208EEF208EFF2227B007A460B
:1003000079E8120AF9EF4405FD7B007A4679E81294
:100310000B05E4F50AE50AC39409502CE50A75F0CB
:1003200005A42461F582E4340BAF82F5088F09F54A
:10033000831202398F82850883740393FC740493BB
:10034000FD120AC1050A80CD7B017A507903120A99
:10035000F9EF4402FD7B017A507903120B057B0112
:100360007A507913120AF9EF4402FD7B017A507931
:1003700013120B057B087A007900C003C002C0018C
:100380007B007A517912900057120230D001D002CE
:10039000D0037F087E001209337B087A007908C0F9
:1003A00003C002C0017B007A5179229000571202EB
:1003B00030D001D002D0037F087E00120933904371
:1003C00022E04408F09046ECE0C3940550069046C5
:1003D00089743AF09048007431F01205E8904800B2
:1003E00074B1F0120AA47B007A4379A0C00179B0FD
:1003F000900057120230D0017F0E7E001209339018
:1004000043B0E054FDF022E47F947E01FDFC9000B7
:100410005C12021B905120E05480F0905122E05475
:10042000F090005BF0E0440F905122F0A3E054F014
:1004300090005BF0E0905123F0A3E054F090005B5B
:10044000F0E0905124F0905120E054DFF0E044407F
:10045000F0E4FFFE120998905120E04410F07F0173
:100460007E00120998905121E090005BF09051209D
:10047000E054EFF0E4FFFE12099890005BE05408AE
:10048000F0905120E04410F07F017E001209989016
:100490005120E054EFF090005BE070067F0AFE12FE
:1004A000099890005C12020374FFFBFAF9F812003D
:1004B0005B90005C12021B90005BE0600DA31202D7
:1004C00003D3EF9400EE94005087905120E054BF86
:1004D000F0E05480F0905122E054F0F0A3E054F0AA
:1004E00090005BF0E0440F905123F0A3E054F090B3
:1004F000005BF0E0440F905124F0227593007800E7
:100500007583467582E8E04401F0009046ECE0F91E
:100510009046FAE0FAB903225420B40012B8001A47
:10052000EA901FFFF07401901FFEF09046F6F090E5
:100530001FFEE06005901FFFE0FA90480074C0F0D5
:1005400075810C90000078007920E4F0A3D8FCD9E4
:10055000FAEA90004DF0020011750B1F750CFD12A8
:1005600009671202FC0205A30206B5E493A3F8E4AE
:1005700093A34003F68001F208DFF48029E493A3FB
:10058000F85407240CC8C333C4540F4420C8834014
:1005900004F456800146F6DFE4800B0102040810E3
:1005A0002040809009C5E47E019360BCA3FF543FC6
:1005B00030E509541FFEE493A360010ECF54C0251B
:1005C000E060A840B8E493A3FAE493A3F8E493A30B
:1005D000C8C582C8CAC583CAF0A3C8C582C8CAC56F
:1005E00083CADFE9DEE780BE9043007402F09040EA
:1005F000007408F09042007403F07B0C7A017908D3
:10060000120AF99046A1EFF07B007A4279227D0828
:100610007C001209F17B007A4279207D517C121214
:1006200009F1E4900056F07F19FEFDFC9000521293
:10063000021B900052120203D3EF9400EE9400408C
:100640003B900056E0FF64036032904225E0540185
:10065000FEEF25E04E5403900056F0E47FE07E016B
:10066000FDFC120A0090005212020374FFFBFAF91B
:10067000F812005B90005212021B80B690005212DA
:100680000203EF4E70057F03120B1B7B007A40794B
:10069000047D007C011209F19040047407F0904041
:1006A00006E4F09040087448F0904004E4F0904074
:1006B000017402F0229000527401F0E4A3F0120AD7
:1006C000DA7BFF7A0B7921120837900053E0FF9014
:1006D0000052E0FD1208B8E4FF120B17900052E040
:1006E0002402F0A3E0FF900052E0FD1208B87F0161
:1006F000120B17900052E02402F0A3E0FF9000528A
:10070000E0FD1208B87F02120B17900052E024029D
:10071000F0A3E0FF900052E0FD1208B87F03120B37
:1007200017900052E02402F0A3E0FF900052E0FD99
:100730001208B87F04120B17900052E02402F0E474
:100740007FC8FEFDFC1207D27D097F011208B87B2D
:10075000FF7A0B79111208F780FE22E47F28FEFD54
:10076000FC1207D27F03120A81E47F05FEFDFC1212
:1007700007D27F03120A81E47F0FFEFDFC1207D22D
:100780007F03120A81E47F01FEFDFC1207D27F0283
:10079000120A81E47F05FEFDFC1207D27F06120AD1
:1007A0005E7F0E120A5E7F2C120A5E7F08120A5EBE
:1007B0007F01120A5E7F0C120A5E7F03120A5EE45A
:1007C0007F05FEFDFC1207D27BFF7A0B7921120810
:1007D000372290FFFC12026B12021B850B83850CE3
:1007E00082120203D3EF9400EE9480402E90004ECC
:1007F000120203120A00850B83850C82C083C0821B
:10080000120203E42FFFEE3480FEED34FFFDEC34E2
:10081000FFFCD082D08312021B80C09000441202E1
:1008200003850B83850C8212020F120068120A00E6
:1008300090000412026B229000541202301204073E
:100840007F40120A5EE4900057F0900057E0FFC32B
:100850009440501B900054120227E92FF9E43AFA11
:1008600012001AFF120A3B900057E004F080DB12DE
:1008700004077F80120A5E2290005BEFF090512007
:10088000E04420F0E054BFF0E4FFFE1209989051DC
:1008900020E054F0F0C083C082E0FF90005BE044B1
:1008A00010FEEF4ED082D083F07F017E00120998B7
:1008B000905120E054EFF022900054EDF0EF1460DE
:1008C0001514601D1460252403702B900054E0243F
:1008D00080FF120A5E22900054E024C0FF120A5EDC
:1008E00022900054E02494FF120A5E22900054E00B
:1008F00024D4FF120A5E2290005412023090005756
:100900007401F012001A900058F0900058E0FF6057
:1009100021120A3B900054120227900057E029F957
:10092000E43AFA12001A900058F0900057E004F0F0
:1009300080D822758600EF4E6027EF60010E759318
:1009400000900057E0F595A3E0F585A3E0F5848BD2
:10095000938A838982E0A30586F0A31586DFF6DEFD
:10096000F4E4F593F59522E4900052F0900052E003
:10097000FFD3941F5020EF75F002A42400FFE5F090
:100980003444FAA9077B017C0B7D1E1209F3900009
:0709900052E004F080D622C2
:10099800EEFA900048E0F88FF0A4FFAEF0E88AF095
:1009A800A42EFEE5F03400FDEF24C9FF78FFEE38F1
:1009B800FEED38FDE438FC5003020A0022410066CF
:1009C8000041006500440049016E360044004400BF
:1009D800005DC04100481844004E2EE0000043006E
:1009E8006000000041006700008B938A838982EDD4
:1009F800F0A3ECF075930022EC4D4E700D78FCEFEF
:100A080024E950032840FD2200007BF178DA000039
:100A1800EF28FF78FFEE38FEED38FDEC38FC50E7A4
:100A2800EF2BFFEE38FEED38FDEC38FC40F22205E6
:100A3800020304900059EFF0120407900059E0FFF8
:100A4800C4540FFFA3F0120878900059E0540FFF28
:100A5800A3F012087822900058EFF01204079000D3
:100A680058E0FFC4540FFFA3F0120A81900058E029
:100A7800540FFFA3F0120A8122905120E0549FF0F6
:100A8800E054F0F0E0FEEF4410FFEE4FF07F017EFF
:100A980000120998905120E054EFF0227B0C7A0163
:100AA80079CF120AF9EF540790586EF0EFC4540F3B
:100AB800A3F09058767444F022EC4D6011ED60017B
:100AC8000C8B938A838982E4F0A3DDFCDCFA7593AE
:100AD8000022900065E0700912075B9000657401C0
:100AE800F0120AED227F0C120A5E9000667401F083
:100AF800228B938A838982E0759300FF228B938AE5
:100B0800838982EDF075930022564153594C0012A7
:100B18000A3B2280FE2280FE32111111111B1F0E8A
:100B280004040A0A111F111111040A11180C0712E2
:100B38000E110A0A0A0404040410101010101010F0
:100B48001F0000000000000000000000000000007E
:100B580000000000000000000000510000100051DB
:100B68003000400051C000100051F000100100009A
:100B7800100001140008000140000A00014C0002A6
:060B8800000150000020F6
:00000001FF
