C51 COMPILER V9.51   LCD_KHANAS_LCDPORT                                                    10/24/2019 10:21:10 PAGE 1   


C51 COMPILER V9.51, COMPILATION OF MODULE LCD_KHANAS_LCDPORT
OBJECT MODULE PLACED IN .\DP8051\DP8051_Keil_951\Release\LCD_Khanas_LCDPort.obj
COMPILER INVOKED BY: C:\Program Files\Cypress\PSoC Creator\4.2\PSoC Creator\import\keil\pk51\9.51\C51\BIN\c51.exe Genera
                    -ted_Source\PSoC3\LCD_Khanas_LCDPort.c NOIV LARGE MODDP2 OMF2 VB(1) NOIP INCDIR(.,Generated_Source\PSoC3) FF(3) DB DF(NDE
                    -BUG) WL(2) PR(.\DP8051\DP8051_Keil_951\Release/LCD_Khanas_LCDPort.lst) CD OT(8,SIZE) OJ(.\DP8051\DP8051_Keil_951\Release
                    -\LCD_Khanas_LCDPort.obj)

line level    source

*** MESSAGE C286 IN LINE 0 OF (null): license limits optimization to level 5
   1          /*******************************************************************************
   2          * File Name: LCD_Khanas_LCDPort.c  
   3          * Version 2.20
   4          *
   5          * Description:
   6          *  This file contains API to enable firmware control of a Pins component.
   7          *
   8          * Note:
   9          *
  10          ********************************************************************************
  11          * Copyright 2008-2015, Cypress Semiconductor Corporation.  All rights reserved.
  12          * You may use this file only in accordance with the license, terms, conditions, 
  13          * disclaimers, and limitations in the end user license agreement accompanying 
  14          * the software package with which this file was provided.
  15          *******************************************************************************/
  16          
  17          #include "cytypes.h"
  18          #include "LCD_Khanas_LCDPort.h"
  19          
  20          
  21          /*******************************************************************************
  22          * Function Name: LCD_Khanas_LCDPort_Write
  23          ****************************************************************************//**
  24          *
  25          * \brief Writes the value to the physical port (data output register), masking
  26          *  and shifting the bits appropriately. 
  27          *
  28          * The data output register controls the signal applied to the physical pin in 
  29          * conjunction with the drive mode parameter. This function avoids changing 
  30          * other bits in the port by using the appropriate method (read-modify-write or
  31          * bit banding).
  32          *
  33          * <b>Note</b> This function should not be used on a hardware digital output pin 
  34          * as it is driven by the hardware signal attached to it.
  35          *
  36          * \param value
  37          *  Value to write to the component instance.
  38          *
  39          * \return 
  40          *  None 
  41          *
  42          * \sideeffect
  43          *  If you use read-modify-write operations that are not atomic; the Interrupt 
  44          *  Service Routines (ISR) can cause corruption of this function. An ISR that 
  45          *  interrupts this function and performs writes to the Pins component data 
  46          *  register can cause corrupted port data. To avoid this issue, you should 
  47          *  either use the Per-Pin APIs (primary method) or disable interrupts around 
  48          *  this function.
  49          *
  50          * \funcusage
  51          *  \snippet LCD_Khanas_LCDPort_SUT.c usage_LCD_Khanas_LCDPort_Write
C51 COMPILER V9.51   LCD_KHANAS_LCDPORT                                                    10/24/2019 10:21:10 PAGE 2   

  52          *******************************************************************************/
  53          void LCD_Khanas_LCDPort_Write(uint8 value) 
  54          {
  55   1          uint8 staticBits = (LCD_Khanas_LCDPort_DR & (uint8)(~LCD_Khanas_LCDPort_MASK));
  56   1          LCD_Khanas_LCDPort_DR = staticBits | ((uint8)(value << LCD_Khanas_LCDPort_SHIFT) & LCD_Khanas_LCDPort_
             -MASK);
  57   1      }
  58          
  59          
  60          /*******************************************************************************
  61          * Function Name: LCD_Khanas_LCDPort_SetDriveMode
  62          ****************************************************************************//**
  63          *
  64          * \brief Sets the drive mode for each of the Pins component's pins.
  65          * 
  66          * <b>Note</b> This affects all pins in the Pins component instance. Use the
  67          * Per-Pin APIs if you wish to control individual pin's drive modes.
  68          *
  69          * \param mode
  70          *  Mode for the selected signals. Valid options are documented in 
  71          *  \ref driveMode.
  72          *
  73          * \return
  74          *  None
  75          *
  76          * \sideeffect
  77          *  If you use read-modify-write operations that are not atomic, the ISR can
  78          *  cause corruption of this function. An ISR that interrupts this function 
  79          *  and performs writes to the Pins component Drive Mode registers can cause 
  80          *  corrupted port data. To avoid this issue, you should either use the Per-Pin
  81          *  APIs (primary method) or disable interrupts around this function.
  82          *
  83          * \funcusage
  84          *  \snippet LCD_Khanas_LCDPort_SUT.c usage_LCD_Khanas_LCDPort_SetDriveMode
  85          *******************************************************************************/
  86          void LCD_Khanas_LCDPort_SetDriveMode(uint8 mode) 
  87          {
  88   1              CyPins_SetPinDriveMode(LCD_Khanas_LCDPort_0, mode);
  89   1              CyPins_SetPinDriveMode(LCD_Khanas_LCDPort_1, mode);
  90   1              CyPins_SetPinDriveMode(LCD_Khanas_LCDPort_2, mode);
  91   1              CyPins_SetPinDriveMode(LCD_Khanas_LCDPort_3, mode);
  92   1              CyPins_SetPinDriveMode(LCD_Khanas_LCDPort_4, mode);
  93   1              CyPins_SetPinDriveMode(LCD_Khanas_LCDPort_5, mode);
  94   1              CyPins_SetPinDriveMode(LCD_Khanas_LCDPort_6, mode);
  95   1      }
  96          
  97          
  98          /*******************************************************************************
  99          * Function Name: LCD_Khanas_LCDPort_Read
 100          ****************************************************************************//**
 101          *
 102          * \brief Reads the associated physical port (pin status register) and masks 
 103          *  the required bits according to the width and bit position of the component
 104          *  instance. 
 105          *
 106          * The pin's status register returns the current logic level present on the 
 107          * physical pin.
 108          *
 109          * \return 
 110          *  The current value for the pins in the component as a right justified number.
 111          *
 112          * \funcusage
C51 COMPILER V9.51   LCD_KHANAS_LCDPORT                                                    10/24/2019 10:21:10 PAGE 3   

 113          *  \snippet LCD_Khanas_LCDPort_SUT.c usage_LCD_Khanas_LCDPort_Read  
 114          *******************************************************************************/
 115          uint8 LCD_Khanas_LCDPort_Read(void) 
 116          {
 117   1          return (LCD_Khanas_LCDPort_PS & LCD_Khanas_LCDPort_MASK) >> LCD_Khanas_LCDPort_SHIFT;
 118   1      }
 119          
 120          
 121          /*******************************************************************************
 122          * Function Name: LCD_Khanas_LCDPort_ReadDataReg
 123          ****************************************************************************//**
 124          *
 125          * \brief Reads the associated physical port's data output register and masks 
 126          *  the correct bits according to the width and bit position of the component 
 127          *  instance. 
 128          *
 129          * The data output register controls the signal applied to the physical pin in 
 130          * conjunction with the drive mode parameter. This is not the same as the 
 131          * preferred LCD_Khanas_LCDPort_Read() API because the 
 132          * LCD_Khanas_LCDPort_ReadDataReg() reads the data register instead of the status 
 133          * register. For output pins this is a useful function to determine the value 
 134          * just written to the pin.
 135          *
 136          * \return 
 137          *  The current value of the data register masked and shifted into a right 
 138          *  justified number for the component instance.
 139          *
 140          * \funcusage
 141          *  \snippet LCD_Khanas_LCDPort_SUT.c usage_LCD_Khanas_LCDPort_ReadDataReg 
 142          *******************************************************************************/
 143          uint8 LCD_Khanas_LCDPort_ReadDataReg(void) 
 144          {
 145   1          return (LCD_Khanas_LCDPort_DR & LCD_Khanas_LCDPort_MASK) >> LCD_Khanas_LCDPort_SHIFT;
 146   1      }
 147          
 148          
 149          /* If interrupt is connected for this Pins component */ 
 150          #if defined(LCD_Khanas_LCDPort_INTSTAT) 
              
                  /*******************************************************************************
                  * Function Name: LCD_Khanas_LCDPort_SetInterruptMode
                  ****************************************************************************//**
                  *
                  * \brief Configures the interrupt mode for each of the Pins component's
                  *  pins. Alternatively you may set the interrupt mode for all the pins
                  *  specified in the Pins component.
                  *
                  *  <b>Note</b> The interrupt is port-wide and therefore any enabled pin
                  *  interrupt may trigger it.
                  *
                  * \param position
                  *  The pin position as listed in the Pins component. You may OR these to be 
                  *  able to configure the interrupt mode of multiple pins within a Pins 
                  *  component. Or you may use LCD_Khanas_LCDPort_INTR_ALL to configure the
                  *  interrupt mode of all the pins in the Pins component.       
                  *  - LCD_Khanas_LCDPort_0_INTR       (First pin in the list)
                  *  - LCD_Khanas_LCDPort_1_INTR       (Second pin in the list)
                  *  - ...
                  *  - LCD_Khanas_LCDPort_INTR_ALL     (All pins in Pins component)
                  *
                  * \param mode
                  *  Interrupt mode for the selected pins. Valid options are documented in
C51 COMPILER V9.51   LCD_KHANAS_LCDPORT                                                    10/24/2019 10:21:10 PAGE 4   

                  *  \ref intrMode.
                  *
                  * \return 
                  *  None
                  *  
                  * \sideeffect
                  *  It is recommended that the interrupt be disabled before calling this 
                  *  function to avoid unintended interrupt requests. Note that the interrupt
                  *  type is port wide, and therefore will trigger for any enabled pin on the 
                  *  port.
                  *
                  * \funcusage
                  *  \snippet LCD_Khanas_LCDPort_SUT.c usage_LCD_Khanas_LCDPort_SetInterruptMode
                  *******************************************************************************/
                  void LCD_Khanas_LCDPort_SetInterruptMode(uint16 position, uint16 mode) 
                                          
                  {
                              if((position & LCD_Khanas_LCDPort_0_INTR) != 0u) 
                              { 
                                       LCD_Khanas_LCDPort_0_INTTYPE_REG = (uint8)mode; 
                              } 
                              if((position & LCD_Khanas_LCDPort_1_INTR) != 0u) 
                              { 
                                       LCD_Khanas_LCDPort_1_INTTYPE_REG = (uint8)mode; 
                              } 
                              if((position & LCD_Khanas_LCDPort_2_INTR) != 0u) 
                              { 
                                       LCD_Khanas_LCDPort_2_INTTYPE_REG = (uint8)mode; 
                              } 
                              if((position & LCD_Khanas_LCDPort_3_INTR) != 0u) 
                              { 
                                       LCD_Khanas_LCDPort_3_INTTYPE_REG = (uint8)mode; 
                              } 
                              if((position & LCD_Khanas_LCDPort_4_INTR) != 0u) 
                              { 
                                       LCD_Khanas_LCDPort_4_INTTYPE_REG = (uint8)mode; 
                              } 
                              if((position & LCD_Khanas_LCDPort_5_INTR) != 0u) 
                              { 
                                       LCD_Khanas_LCDPort_5_INTTYPE_REG = (uint8)mode; 
                              } 
                              if((position & LCD_Khanas_LCDPort_6_INTR) != 0u) 
                              { 
                                       LCD_Khanas_LCDPort_6_INTTYPE_REG = (uint8)mode; 
                              }
                  }
                  
                  
                  /*******************************************************************************
                  * Function Name: LCD_Khanas_LCDPort_ClearInterrupt
                  ****************************************************************************//**
                  *
                  * \brief Clears any active interrupts attached with the component and returns 
                  *  the value of the interrupt status register allowing determination of which
                  *  pins generated an interrupt event.
                  *
                  * \return 
                  *  The right-shifted current value of the interrupt status register. Each pin 
                  *  has one bit set if it generated an interrupt event. For example, bit 0 is 
                  *  for pin 0 and bit 1 is for pin 1 of the Pins component.
                  *  
                  * \sideeffect
C51 COMPILER V9.51   LCD_KHANAS_LCDPORT                                                    10/24/2019 10:21:10 PAGE 5   

                  *  Clears all bits of the physical port's interrupt status register, not just
                  *  those associated with the Pins component.
                  *
                  * \funcusage
                  *  \snippet LCD_Khanas_LCDPort_SUT.c usage_LCD_Khanas_LCDPort_ClearInterrupt
                  *******************************************************************************/
                  uint8 LCD_Khanas_LCDPort_ClearInterrupt(void) 
                  {
                      return (LCD_Khanas_LCDPort_INTSTAT & LCD_Khanas_LCDPort_MASK) >> LCD_Khanas_LCDPort_SHIFT;
                  }
              
              #endif /* (LCD_Khanas_LCDPort_INTSTAT) */ 
 249          
 250          
 251          /* [] END OF FILE */
C51 COMPILER V9.51   LCD_KHANAS_LCDPORT                                                    10/24/2019 10:21:10 PAGE 6   

ASSEMBLY LISTING OF GENERATED OBJECT CODE


             ; FUNCTION _LCD_Khanas_LCDPort_Write (BEGIN)
                                           ; SOURCE LINE # 53
;---- Variable 'value' assigned to Register 'R7' ----
                                           ; SOURCE LINE # 54
                                           ; SOURCE LINE # 55
0000 905120            MOV     DPTR,#05120H
0003 E0                MOVX    A,@DPTR
0004 5480              ANL     A,#080H
0006 FE                MOV     R6,A
;---- Variable 'staticBits' assigned to Register 'R6' ----
                                           ; SOURCE LINE # 56
0007 EF                MOV     A,R7
0008 547F              ANL     A,#07FH
000A 4E                ORL     A,R6
000B F0                MOVX    @DPTR,A
                                           ; SOURCE LINE # 57
000C 22                RET     
             ; FUNCTION _LCD_Khanas_LCDPort_Write (END)

             ; FUNCTION _LCD_Khanas_LCDPort_SetDriveMode (BEGIN)
                                           ; SOURCE LINE # 86
;---- Variable 'mode' assigned to Register 'R7' ----
                                           ; SOURCE LINE # 87
                                           ; SOURCE LINE # 88
0000 EF                MOV     A,R7
0001 540E              ANL     A,#0EH
0003 FE                MOV     R6,A
0004 905010            MOV     DPTR,#05010H
0007 E0                MOVX    A,@DPTR
0008 54F1              ANL     A,#0F1H
000A 4E                ORL     A,R6
000B F0                MOVX    @DPTR,A
                                           ; SOURCE LINE # 89
000C A3                INC     DPTR
000D E0                MOVX    A,@DPTR
000E 54F1              ANL     A,#0F1H
0010 4E                ORL     A,R6
0011 F0                MOVX    @DPTR,A
                                           ; SOURCE LINE # 90
0012 EF                MOV     A,R7
0013 540E              ANL     A,#0EH
0015 FE                MOV     R6,A
0016 A3                INC     DPTR
0017 E0                MOVX    A,@DPTR
0018 54F1              ANL     A,#0F1H
001A 4E                ORL     A,R6
001B F0                MOVX    @DPTR,A
                                           ; SOURCE LINE # 91
001C A3                INC     DPTR
001D E0                MOVX    A,@DPTR
001E 54F1              ANL     A,#0F1H
0020 4E                ORL     A,R6
0021 F0                MOVX    @DPTR,A
                                           ; SOURCE LINE # 92
0022 EF                MOV     A,R7
0023 540E              ANL     A,#0EH
0025 FE                MOV     R6,A
0026 A3                INC     DPTR
0027 E0                MOVX    A,@DPTR
C51 COMPILER V9.51   LCD_KHANAS_LCDPORT                                                    10/24/2019 10:21:10 PAGE 7   

0028 54F1              ANL     A,#0F1H
002A 4E                ORL     A,R6
002B F0                MOVX    @DPTR,A
                                           ; SOURCE LINE # 93
002C A3                INC     DPTR
002D E0                MOVX    A,@DPTR
002E 54F1              ANL     A,#0F1H
0030 4E                ORL     A,R6
0031 F0                MOVX    @DPTR,A
                                           ; SOURCE LINE # 94
0032 EF                MOV     A,R7
0033 540E              ANL     A,#0EH
0035 FF                MOV     R7,A
0036 A3                INC     DPTR
0037 E0                MOVX    A,@DPTR
0038 54F1              ANL     A,#0F1H
003A 4F                ORL     A,R7
003B F0                MOVX    @DPTR,A
                                           ; SOURCE LINE # 95
003C 22                RET     
             ; FUNCTION _LCD_Khanas_LCDPort_SetDriveMode (END)

             ; FUNCTION LCD_Khanas_LCDPort_Read (BEGIN)
                                           ; SOURCE LINE # 115
                                           ; SOURCE LINE # 116
                                           ; SOURCE LINE # 117
0000 905121            MOV     DPTR,#05121H
0003 E0                MOVX    A,@DPTR
0004 547F              ANL     A,#07FH
0006 FF                MOV     R7,A
                                           ; SOURCE LINE # 118
0007         ?C0003:
0007 22                RET     
             ; FUNCTION LCD_Khanas_LCDPort_Read (END)

             ; FUNCTION LCD_Khanas_LCDPort_ReadDataReg (BEGIN)
                                           ; SOURCE LINE # 143
                                           ; SOURCE LINE # 144
                                           ; SOURCE LINE # 145
0000 905120            MOV     DPTR,#05120H
0003 E0                MOVX    A,@DPTR
0004 547F              ANL     A,#07FH
0006 FF                MOV     R7,A
                                           ; SOURCE LINE # 146
0007         ?C0004:
0007 22                RET     
             ; FUNCTION LCD_Khanas_LCDPort_ReadDataReg (END)



MODULE INFORMATION:   STATIC OVERLAYABLE
   CODE SIZE        =     90    ----
   CONSTANT SIZE    =   ----    ----
   XDATA SIZE       =   ----    ----
   PDATA SIZE       =   ----    ----
   DATA SIZE        =   ----    ----
   IDATA SIZE       =   ----    ----
   BIT SIZE         =   ----    ----
   EDATA SIZE       =   ----    ----
   HDATA SIZE       =   ----    ----
   XDATA CONST SIZE =   ----    ----
   FAR CONST SIZE   =   ----    ----
C51 COMPILER V9.51   LCD_KHANAS_LCDPORT                                                    10/24/2019 10:21:10 PAGE 8   

END OF MODULE INFORMATION.


C51 COMPILATION COMPLETE.  0 WARNING(S),  0 ERROR(S)
