C51 COMPILER V9.51   MAIN                                                                  10/24/2019 10:28:12 PAGE 1   


C51 COMPILER V9.51, COMPILATION OF MODULE MAIN
OBJECT MODULE PLACED IN .\DP8051\DP8051_Keil_951\Release\main.obj
COMPILER INVOKED BY: C:\Program Files\Cypress\PSoC Creator\4.2\PSoC Creator\import\keil\pk51\9.51\C51\BIN\c51.exe main.c
                    - NOIV LARGE MODDP2 OMF2 VB(1) NOIP INCDIR(.,Generated_Source\PSoC3) FF(3) DB DF(NDEBUG) WL(2) PR(.\DP8051\DP8051_Keil_95
                    -1\Release/main.lst) CD OT(8,SIZE) OJ(.\DP8051\DP8051_Keil_951\Release\main.obj)

line level    source

*** MESSAGE C286 IN LINE 0 OF (null): license limits optimization to level 5
   1          /* ========================================
   2           *
   3           * Copyright YOUR COMPANY, THE YEAR
   4           * All Rights Reserved
   5           * UNPUBLISHED, LICENSED SOFTWARE.
   6           *
   7           * CONFIDENTIAL AND PROPRIETARY INFORMATION
   8           * WHICH IS THE PROPERTY OF your company.
   9           *
  10           * ========================================
  11          */
  12          #include "project.h"
  13          extern uint8 const CYCODE LCD_Khanas_customFonts[];
  14          int main(void)
  15          {
  16   1          uint8 pos = 1u;
  17   1          uint8 row = 0u;
  18   1          
  19   1          LCD_Khanas_Start();
  20   1          LCD_Khanas_LoadCustomFonts(LCD_Khanas_customFonts);
  21   1          
  22   1          LCD_Khanas_Position(row, pos);
  23   1          LCD_Khanas_PutChar(LCD_Khanas_CUSTOM_0);
  24   1          pos += 2u;
  25   1          
  26   1          LCD_Khanas_Position(row, pos);
  27   1          LCD_Khanas_PutChar(LCD_Khanas_CUSTOM_1);
  28   1          pos += 2u;
  29   1          
  30   1          LCD_Khanas_Position(row, pos);
  31   1          LCD_Khanas_PutChar(LCD_Khanas_CUSTOM_2);
  32   1          pos += 2u;
  33   1          
  34   1          LCD_Khanas_Position(row, pos);
  35   1          LCD_Khanas_PutChar(LCD_Khanas_CUSTOM_3);
  36   1          pos += 2u;
  37   1          
  38   1          LCD_Khanas_Position(row, pos);
  39   1          LCD_Khanas_PutChar(LCD_Khanas_CUSTOM_4);
  40   1          pos += 2u;
  41   1          
  42   1          CyDelay(200u);
  43   1          LCD_Khanas_Position(1u, 9u);
  44   1          LCD_Khanas_PrintString("VASYL");
  45   1          
  46   1          //CyGlobalIntEnable; /* Enable global interrupts. */
  47   1          
  48   1          /* Place your initialization/startup code here (e.g. MyInst_Start()) */
  49   1      
  50   1          for(;;)
  51   1          {
  52   2              /* Place your application code here. */
C51 COMPILER V9.51   MAIN                                                                  10/24/2019 10:28:12 PAGE 2   

  53   2          }
  54   1      }
  55          
  56          /* [] END OF FILE */
C51 COMPILER V9.51   MAIN                                                                  10/24/2019 10:28:12 PAGE 3   

ASSEMBLY LISTING OF GENERATED OBJECT CODE


             ; FUNCTION main (BEGIN)
                                           ; SOURCE LINE # 14
                                           ; SOURCE LINE # 15
                                           ; SOURCE LINE # 16
0000 900000      R     MOV     DPTR,#pos
0003 7401              MOV     A,#01H
0005 F0                MOVX    @DPTR,A
                                           ; SOURCE LINE # 17
0006 E4                CLR     A
0007 A3                INC     DPTR
0008 F0                MOVX    @DPTR,A
                                           ; SOURCE LINE # 19
0009 120000      E     LCALL   LCD_Khanas_Start
                                           ; SOURCE LINE # 20
000C 7BFF              MOV     R3,#0FFH
000E 7A00        E     MOV     R2,#HIGH LCD_Khanas_customFonts
0010 7900        E     MOV     R1,#LOW LCD_Khanas_customFonts
0012 120000      E     LCALL   _LCD_Khanas_LoadCustomFonts
                                           ; SOURCE LINE # 22
0015 900000      R     MOV     DPTR,#row
0018 E0                MOVX    A,@DPTR
0019 FF                MOV     R7,A
001A 900000      R     MOV     DPTR,#pos
001D E0                MOVX    A,@DPTR
001E FD                MOV     R5,A
001F 120000      E     LCALL   _LCD_Khanas_Position
                                           ; SOURCE LINE # 23
0022 E4                CLR     A
0023 FF                MOV     R7,A
0024 120000      E     LCALL   _LCD_Khanas_PutChar
                                           ; SOURCE LINE # 24
0027 900000      R     MOV     DPTR,#pos
002A E0                MOVX    A,@DPTR
002B 2402              ADD     A,#02H
002D F0                MOVX    @DPTR,A
                                           ; SOURCE LINE # 26
002E A3                INC     DPTR
002F E0                MOVX    A,@DPTR
0030 FF                MOV     R7,A
0031 900000      R     MOV     DPTR,#pos
0034 E0                MOVX    A,@DPTR
0035 FD                MOV     R5,A
0036 120000      E     LCALL   _LCD_Khanas_Position
                                           ; SOURCE LINE # 27
0039 7F01              MOV     R7,#01H
003B 120000      E     LCALL   _LCD_Khanas_PutChar
                                           ; SOURCE LINE # 28
003E 900000      R     MOV     DPTR,#pos
0041 E0                MOVX    A,@DPTR
0042 2402              ADD     A,#02H
0044 F0                MOVX    @DPTR,A
                                           ; SOURCE LINE # 30
0045 A3                INC     DPTR
0046 E0                MOVX    A,@DPTR
0047 FF                MOV     R7,A
0048 900000      R     MOV     DPTR,#pos
004B E0                MOVX    A,@DPTR
004C FD                MOV     R5,A
004D 120000      E     LCALL   _LCD_Khanas_Position
C51 COMPILER V9.51   MAIN                                                                  10/24/2019 10:28:12 PAGE 4   

                                           ; SOURCE LINE # 31
0050 7F02              MOV     R7,#02H
0052 120000      E     LCALL   _LCD_Khanas_PutChar
                                           ; SOURCE LINE # 32
0055 900000      R     MOV     DPTR,#pos
0058 E0                MOVX    A,@DPTR
0059 2402              ADD     A,#02H
005B F0                MOVX    @DPTR,A
                                           ; SOURCE LINE # 34
005C A3                INC     DPTR
005D E0                MOVX    A,@DPTR
005E FF                MOV     R7,A
005F 900000      R     MOV     DPTR,#pos
0062 E0                MOVX    A,@DPTR
0063 FD                MOV     R5,A
0064 120000      E     LCALL   _LCD_Khanas_Position
                                           ; SOURCE LINE # 35
0067 7F03              MOV     R7,#03H
0069 120000      E     LCALL   _LCD_Khanas_PutChar
                                           ; SOURCE LINE # 36
006C 900000      R     MOV     DPTR,#pos
006F E0                MOVX    A,@DPTR
0070 2402              ADD     A,#02H
0072 F0                MOVX    @DPTR,A
                                           ; SOURCE LINE # 38
0073 A3                INC     DPTR
0074 E0                MOVX    A,@DPTR
0075 FF                MOV     R7,A
0076 900000      R     MOV     DPTR,#pos
0079 E0                MOVX    A,@DPTR
007A FD                MOV     R5,A
007B 120000      E     LCALL   _LCD_Khanas_Position
                                           ; SOURCE LINE # 39
007E 7F04              MOV     R7,#04H
0080 120000      E     LCALL   _LCD_Khanas_PutChar
                                           ; SOURCE LINE # 40
0083 900000      R     MOV     DPTR,#pos
0086 E0                MOVX    A,@DPTR
0087 2402              ADD     A,#02H
0089 F0                MOVX    @DPTR,A
                                           ; SOURCE LINE # 42
008A E4                CLR     A
008B 7FC8              MOV     R7,#0C8H
008D FE                MOV     R6,A
008E FD                MOV     R5,A
008F FC                MOV     R4,A
0090 120000      E     LCALL   _?CyDelay
                                           ; SOURCE LINE # 43
0093 7D09              MOV     R5,#09H
0095 7F01              MOV     R7,#01H
0097 120000      E     LCALL   _LCD_Khanas_Position
                                           ; SOURCE LINE # 44
009A 7BFF              MOV     R3,#0FFH
009C 7A00        R     MOV     R2,#HIGH ?SC_0
009E 7900        R     MOV     R1,#LOW ?SC_0
00A0 120000      E     LCALL   _LCD_Khanas_PrintString
                                           ; SOURCE LINE # 50
00A3         ?C0001:
                                           ; SOURCE LINE # 51
                                           ; SOURCE LINE # 53
00A3 80FE              SJMP    ?C0001
00A5 22                RET     
C51 COMPILER V9.51   MAIN                                                                  10/24/2019 10:28:12 PAGE 5   

             ; FUNCTION main (END)



MODULE INFORMATION:   STATIC OVERLAYABLE
   CODE SIZE        =    166    ----
   CONSTANT SIZE    =      6    ----
   XDATA SIZE       =   ----       2
   PDATA SIZE       =   ----    ----
   DATA SIZE        =   ----    ----
   IDATA SIZE       =   ----    ----
   BIT SIZE         =   ----    ----
   EDATA SIZE       =   ----    ----
   HDATA SIZE       =   ----    ----
   XDATA CONST SIZE =   ----    ----
   FAR CONST SIZE   =   ----    ----
END OF MODULE INFORMATION.


C51 COMPILATION COMPLETE.  0 WARNING(S),  0 ERROR(S)
