C51 COMPILER V9.51   CYDMAC                                                                11/20/2019 09:16:31 PAGE 1   


C51 COMPILER V9.51, COMPILATION OF MODULE CYDMAC
OBJECT MODULE PLACED IN .\DP8051\DP8051_Keil_951\Debug\CyDmac.obj
COMPILER INVOKED BY: C:\Program Files\Cypress\PSoC Creator\4.2\PSoC Creator\import\keil\pk51\9.51\C51\BIN\c51.exe Genera
                    -ted_Source\PSoC3\CyDmac.c NOIV LARGE MODDP2 OMF2 VB(1) NOIP INCDIR(.,Generated_Source\PSoC3) FF(3) DB DF(DEBUG) WL(2) PR
                    -(.\DP8051\DP8051_Keil_951\Debug/CyDmac.lst) CD OT(2,SIZE) OJ(.\DP8051\DP8051_Keil_951\Debug\CyDmac.obj)

line level    source

   1          /***************************************************************************//**
   2          * \file CyDmac.c
   3          * \version 5.70
   4          *
   5          * \brief
   6          * Provides an API for the DMAC component. The API includes functions for the
   7          * DMA controller, DMA channels and Transfer Descriptors. This API is the library
   8          * version not the auto generated code that gets generated when the user places a
   9          * DMA component on the schematic.
  10          *
  11          * The auto generated code would use the APi's in this module.
  12          *
  13          * \note This code is endian agnostic.
  14          *
  15          * \note The Transfer Descriptor memory can be used as regular memory if the
  16          * TD's are not being used.
  17          *
  18          * \note This code uses the first byte of each TD to manage the free list of
  19          * TD's. The user can overwrite this once the TD is allocated.
  20          *
  21          ********************************************************************************
  22          * \copyright
  23          * Copyright 2008-2018, Cypress Semiconductor Corporation.  All rights reserved.
  24          * You may use this file only in accordance with the license, terms, conditions,
  25          * disclaimers, and limitations in the end user license agreement accompanying
  26          * the software package with which this file was provided.
  27          *******************************************************************************/
  28          
  29          #include "CyDmac.h"
  30          
  31          
  32          /*******************************************************************************
  33          * The following variables are initialized from CyDmacConfigure() function that
  34          * is executed from initialize_psoc() at the early initialization stage.
  35          * In case of IAR EW IDE, initialize_psoc() is executed before the data sections
  36          * are initialized. To avoid zeroing, these variables should be initialized
  37          * properly during segments initialization as well.
  38          *******************************************************************************/
  39          static uint8  CyDmaTdCurrentNumber = CY_DMA_NUMBEROF_TDS;           /* Current Number of free elements on 
             -list */
  40          static uint8  CyDmaTdFreeIndex = (uint8)(CY_DMA_NUMBEROF_TDS - 1u); /* Index of first available TD */
  41          static uint32 CyDmaChannels = DMA_CHANNELS_USED__MASK0;              /* Bit map of DMA channel ownership *
             -/
  42          
  43          
  44          /*******************************************************************************
  45          * Function Name: CyDmacConfigure
  46          ****************************************************************************//**
  47          *
  48          * Creates a linked list of all the TDs to be allocated. This function is called
  49          * by the startup code; you do not normally need to call it. You can call this
  50          * function if all of the DMA channels are inactive.
  51          *
C51 COMPILER V9.51   CYDMAC                                                                11/20/2019 09:16:31 PAGE 2   

  52          *******************************************************************************/
  53          void CyDmacConfigure(void) 
  54          {
  55   1          uint8 dmaIndex;
  56   1      
  57   1          /* Set TD list variables. */
  58   1          CyDmaTdFreeIndex     = (uint8)(CY_DMA_NUMBEROF_TDS - 1u);
  59   1          CyDmaTdCurrentNumber = CY_DMA_NUMBEROF_TDS;
  60   1      
  61   1          /* Make TD free list. */
  62   1          for(dmaIndex = (uint8)(CY_DMA_NUMBEROF_TDS - 1u); dmaIndex != 0u; dmaIndex--)
  63   1          {
  64   2              CY_DMA_TDMEM_STRUCT_PTR[dmaIndex].TD0[0u] = (uint8)(dmaIndex - 1u);
  65   2          }
  66   1      
  67   1          /* Make last one point to zero. */
  68   1          CY_DMA_TDMEM_STRUCT_PTR[dmaIndex].TD0[0u] = 0u;
  69   1      }
  70          
  71          
  72          /*******************************************************************************
  73          * Function Name: CyDmacError
  74          ****************************************************************************//**
  75          *
  76          *  Returns errors of the last failed DMA transaction.
  77          *
  78          * \return Errors of the last failed DMA transaction.
  79          *
  80          *  DMAC_PERIPH_ERR:
  81          *   Set to 1 when a peripheral responds to a bus transaction with an error
  82          *   response.
  83          *
  84          *  DMAC_UNPOP_ACC:
  85          *   Set to 1 when an access is attempted to an invalid address.
  86          *
  87          *  DMAC_BUS_TIMEOUT:
  88          *   Set to 1 when a bus timeout occurs. Cleared by writing a 1. Timeout values
  89          *   are determined by the BUS_TIMEOUT field in the PHUBCFG register.
  90          *
  91          * Theory:
  92          *  Once an error occurs the error bits are sticky and are only cleared by
  93          *  writing 1 to the error register.
  94          *
  95          *******************************************************************************/
  96          uint8 CyDmacError(void) 
  97          {
  98   1          return((uint8)(((uint32) 0x0Eu) & *CY_DMA_ERR_PTR));
  99   1      }
 100          
 101          
 102          /*******************************************************************************
 103          * Function Name: CyDmacClearError
 104          ****************************************************************************//**
 105          *
 106          *  Clears the error bits in the error register of the DMAC.
 107          *
 108          * \param error:
 109          *   Clears the error bits in the DMAC error register.
 110          *
 111          *  \param DMAC_PERIPH_ERR:
 112          *   Set to 1 when a peripheral responds to a bus transaction with an error
 113          *   response.
C51 COMPILER V9.51   CYDMAC                                                                11/20/2019 09:16:31 PAGE 3   

 114          *
 115          *  \param DMAC_UNPOP_ACC:
 116          *   Set to 1 when an access is attempted to an invalid address.
 117          *
 118          *  \param DMAC_BUS_TIMEOUT:
 119          *   Set to 1 when a bus timeout occurs. Cleared by writing 1. Timeout values
 120          *   are determined by the BUS_TIMEOUT field in the PHUBCFG register.
 121          *
 122          * Theory:
 123          *  Once an error occurs the error bits are sticky and are only cleared by
 124          *  writing 1 to the error register.
 125          *
 126          *******************************************************************************/
 127          void CyDmacClearError(uint8 error) 
 128          {
 129   1          *CY_DMA_ERR_PTR = (((uint32)0x0Fu) & ((uint32)error));
 130   1      }
 131          
 132          
 133          /*******************************************************************************
 134          * Function Name: CyDmacErrorAddress
 135          ****************************************************************************//**
 136          *
 137          *  When DMAC_BUS_TIMEOUT, DMAC_UNPOP_ACC, and DMAC_PERIPH_ERR occur the
 138          *  address of the error is written to the error address register and can be read
 139          *  with this function.
 140          *
 141          *  If there are multiple errors, only the address of the first is saved.
 142          *
 143          * \return The address that caused the error.
 144          *
 145          *******************************************************************************/
 146          uint32 CyDmacErrorAddress(void) 
 147          {
 148   1          return(CY_GET_REG32(CY_DMA_ERR_ADR_PTR));
 149   1      }
 150          
 151          
 152          /*******************************************************************************
 153          * Function Name: CyDmaChAlloc
 154          ****************************************************************************//**
 155          *
 156          *  Allocates a channel from the DMAC to be used in all functions that require a
 157          *  channel handle.
 158          *
 159          * \return The allocated channel number. Zero is a valid channel number.
 160          *  DMA_INVALID_CHANNEL is returned if there are no channels available.
 161          *
 162          *******************************************************************************/
 163          uint8 CyDmaChAlloc(void) 
 164          {
 165   1          uint8 interruptState;
 166   1          uint8 dmaIndex;
 167   1          uint32 channel = 1u;
 168   1      
 169   1      
 170   1          /* Enter critical section! */
 171   1          interruptState = CyEnterCriticalSection();
 172   1      
 173   1          /* Look for free channel. */
 174   1          for(dmaIndex = 0u; dmaIndex < CY_DMA_NUMBEROF_CHANNELS; dmaIndex++)
 175   1          {
C51 COMPILER V9.51   CYDMAC                                                                11/20/2019 09:16:31 PAGE 4   

 176   2              if(0uL == (CyDmaChannels & channel))
 177   2              {
 178   3                  /* Mark channel as used. */
 179   3                  CyDmaChannels |= channel;
 180   3                  break;
 181   3              }
 182   2      
 183   2              channel <<= 1u;
 184   2          }
 185   1      
 186   1          if(dmaIndex >= CY_DMA_NUMBEROF_CHANNELS)
 187   1          {
 188   2              dmaIndex = CY_DMA_INVALID_CHANNEL;
 189   2          }
 190   1      
 191   1          /* Exit critical section! */
 192   1          CyExitCriticalSection(interruptState);
 193   1      
 194   1          return(dmaIndex);
 195   1      }
 196          
 197          
 198          /*******************************************************************************
 199          * Function Name: CyDmaChFree
 200          ****************************************************************************//**
 201          *
 202          * Frees a channel allocated by \ref DmaChAlloc().
 203          *
 204          * \param chHandle The handle previously returned by \ref CyDmaChAlloc() or \ref
 205          * DMA_DmaInitalize().
 206          *
 207          * \return CYRET_SUCCESS if successful.
 208          * \return CYRET_BAD_PARAM if chHandle is invalid.
 209          *
 210          *******************************************************************************/
 211          cystatus CyDmaChFree(uint8 chHandle) 
 212          {
 213   1          cystatus status = CYRET_BAD_PARAM;
 214   1          uint8 interruptState;
 215   1      
 216   1          if(chHandle < CY_DMA_NUMBEROF_CHANNELS)
 217   1          {
 218   2              /* Enter critical section */
 219   2              interruptState = CyEnterCriticalSection();
 220   2      
 221   2              /* Clear bit mask that keeps track of ownership. */
 222   2              CyDmaChannels &= ~(((uint32) 1u) << chHandle);
 223   2      
 224   2              /* Exit critical section */
 225   2              CyExitCriticalSection(interruptState);
 226   2              status = CYRET_SUCCESS;
 227   2          }
 228   1      
 229   1          return(status);
 230   1      }
 231          
 232          
 233          /*******************************************************************************
 234          * Function Name: CyDmaChEnable
 235          ****************************************************************************//**
 236          *
 237          *  Enables the DMA channel. A software or hardware request still must happen
C51 COMPILER V9.51   CYDMAC                                                                11/20/2019 09:16:31 PAGE 5   

 238          *  before the channel is executed.
 239          *
 240          *  \param chHandle A handle previously returned by \ref CyDmaChAlloc() or \ref
 241          *  DMA_DmaInitalize().
 242          *
 243          *  \param preserveTds Preserves the original TD state when the TD has completed.
 244          *  This parameter applies to all TDs in the channel.
 245          *
 246          *   0 - When TD is completed, the DMAC leaves the TD configuration values in
 247          *   their current state, and does not restore them to their original state.
 248          *
 249          *   1 - When TD is completed, the DMAC restores the original configuration
 250          *   values of the TD.
 251          *
 252          *  When preserveTds is set, the TD slot that equals the channel number becomes
 253          *  RESERVED and that becomes where the working registers exist. So, for example,
 254          *  if you are using CH06 and preserveTds is set, you are not allowed to use TD
 255          *  slot 6. That is reclaimed by the DMA engine for its private use.
 256          *
 257          *  \note Do not chain back to a completed TD if the preserveTds for the channel
 258          *  is set to 0. When a TD has completed preserveTds for the channel set to 0,
 259          *  the transfer count will be at 0. If a TD with a transfer count of 0 is
 260          *  started, the TD will transfer an indefinite amount of data.
 261          *
 262          *  Take extra precautions when using the hardware request (DRQ) option when the
 263          *  preserveTds is set to 0, as you might be requesting the wrong data.
 264          *
 265          * \return CYRET_SUCCESS if successful.
 266          * \return CYRET_BAD_PARAM if chHandle is invalid.
 267          *
 268          *******************************************************************************/
 269          cystatus CyDmaChEnable(uint8 chHandle, uint8 preserveTds) 
 270          {
 271   1          cystatus status = CYRET_BAD_PARAM;
 272   1      
 273   1          if(chHandle < CY_DMA_NUMBEROF_CHANNELS)
 274   1          {
 275   2              if (0u != preserveTds)
 276   2              {
 277   3                  /* Store intermediate TD states separately in CHn_SEP_TD0/1 to
 278   3                  *  preserve original TD chain
 279   3                  */
 280   3                  CY_DMA_CH_STRUCT_PTR[chHandle].basic_cfg[0u] |= CY_DMA_CH_BASIC_CFG_WORK_SEP;
 281   3              }
 282   2              else
 283   2              {
 284   3                  /* Store intermediate and final TD states on top of original TD chain */
 285   3                  CY_DMA_CH_STRUCT_PTR[chHandle].basic_cfg[0u] &= (uint8)(~CY_DMA_CH_BASIC_CFG_WORK_SEP);
 286   3              }
 287   2      
 288   2              /* Enable channel */
 289   2              CY_DMA_CH_STRUCT_PTR[chHandle].basic_cfg[0u] |= CY_DMA_CH_BASIC_CFG_EN;
 290   2      
 291   2              status = CYRET_SUCCESS;
 292   2          }
 293   1      
 294   1          return(status);
 295   1      }
 296          
 297          
 298          /*******************************************************************************
 299          * Function Name: CyDmaChDisable
C51 COMPILER V9.51   CYDMAC                                                                11/20/2019 09:16:31 PAGE 6   

 300          ****************************************************************************//**
 301          *
 302          * Disables the DMA channel. Once this function is called, CyDmaChStatus() may
 303          * be called to determine when the channel is disabled and which TDs were being
 304          * executed.
 305          *
 306          * If it is currently executing it will allow the current burst to finish
 307          * naturally.
 308          *
 309          * \param chHandle A handle previously returned by \ref CyDmaChAlloc() or \ref
 310          * DMA_DmaInitalize().
 311          *
 312          * \return CYRET_SUCCESS if successful.
 313          * \return CYRET_BAD_PARAM if chHandle is invalid.
 314          *
 315          *******************************************************************************/
 316          cystatus CyDmaChDisable(uint8 chHandle) 
 317          {
 318   1          cystatus status = CYRET_BAD_PARAM;
 319   1      
 320   1          if(chHandle < CY_DMA_NUMBEROF_CHANNELS)
 321   1          {
 322   2              /***********************************************************************
 323   2              * Should not change configuration information of a DMA channel when it
 324   2              * is active (or vulnerable to becoming active).
 325   2              ***********************************************************************/
 326   2      
 327   2              /* Disable channel */
 328   2              CY_DMA_CH_STRUCT_PTR[chHandle].basic_cfg[0] &= ((uint8) (~CY_DMA_CH_BASIC_CFG_EN));
 329   2      
 330   2              /* Store intermediate and final TD states on top of original TD chain */
 331   2              CY_DMA_CH_STRUCT_PTR[chHandle].basic_cfg[0] &= ((uint8) (~CY_DMA_CH_BASIC_CFG_WORK_SEP));
 332   2              status = CYRET_SUCCESS;
 333   2          }
 334   1      
 335   1          return(status);
 336   1      }
 337          
 338          
 339          /*******************************************************************************
 340          * Function Name: CyDmaClearPendingDrq
 341          ****************************************************************************//**
 342          *
 343          * Clears pending the DMA data request.
 344          *
 345          * \param chHandle Handle to the dma channel.
 346          *
 347          * \return CYRET_SUCCESS if successful.
 348          * \return CYRET_BAD_PARAM if chHandle is invalid.
 349          *
 350          *******************************************************************************/
 351          cystatus CyDmaClearPendingDrq(uint8 chHandle) 
 352          {
 353   1          cystatus status = CYRET_BAD_PARAM;
 354   1      
 355   1          if(chHandle < CY_DMA_NUMBEROF_CHANNELS)
 356   1          {
 357   2              CY_DMA_CH_STRUCT_PTR[chHandle].action[0] |= CY_DMA_CPU_TERM_CHAIN;
 358   2              CY_DMA_CH_STRUCT_PTR[chHandle].basic_cfg[0] |= 0x01u;
 359   2              status = CYRET_SUCCESS;
 360   2          }
 361   1      
C51 COMPILER V9.51   CYDMAC                                                                11/20/2019 09:16:31 PAGE 7   

 362   1          return(status);
 363   1      }
 364          
 365          
 366          /*******************************************************************************
 367          * Function Name: CyDmaChPriority
 368          ****************************************************************************//**
 369          *
 370          *  Sets the priority of a DMA channel. You can use this function when you want
 371          *  to change the priority at run time. If the priority remains the same for a
 372          *  DMA channel, then you can configure the priority in the .cydwr file.
 373          *
 374          *  \param chHandle A handle previously returned by \ref CyDmaChAlloc() or \ref
 375          *  DMA_DmaInitalize().
 376          *
 377          *  \param priority Priority to set the channel to, 0 - 7.
 378          *
 379          * \return CYRET_SUCCESS if successful.
 380          *  \return CYRET_BAD_PARAM if chHandle is invalid.
 381          *
 382          *******************************************************************************/
 383          cystatus CyDmaChPriority(uint8 chHandle, uint8 priority) 
 384          {
 385   1          uint8 value;
 386   1          cystatus status = CYRET_BAD_PARAM;
 387   1      
 388   1          if(chHandle < CY_DMA_NUMBEROF_CHANNELS)
 389   1          {
 390   2              value = CY_DMA_CH_STRUCT_PTR[chHandle].basic_cfg[0u] & ((uint8)(~(0x0Eu)));
 391   2      
 392   2              CY_DMA_CH_STRUCT_PTR[chHandle].basic_cfg[0u] = value | ((uint8) ((priority & 0x7u) << 0x01u));
 393   2      
 394   2              status = CYRET_SUCCESS;
 395   2          }
 396   1      
 397   1          return(status);
 398   1      }
 399          
 400          
 401          /*******************************************************************************
 402          * Function Name: CyDmaChSetExtendedAddress
 403          ****************************************************************************//**
 404          *
 405          *  Sets the high 16 bits of the source and destination addresses for the DMA
 406          *  channel (valid for all TDs in the chain).
 407          *
 408          *  \param chHandle A handle previously returned by \ref CyDmaChAlloc() or \ref
 409          *  DMA_DmaInitalize().
 410          *
 411          *  \param source Upper 16 bit address of the DMA transfer source.
 412          *
 413          *  \param destination Upper 16 bit address of the DMA transfer destination.
 414          *
 415          * \return CYRET_SUCCESS if successful.
 416          * \return CYRET_BAD_PARAM if chHandle is invalid.
 417          *
 418          *******************************************************************************/
 419          cystatus CyDmaChSetExtendedAddress(uint8 chHandle, uint16 source, uint16 destination) \
 420              
 421          {
 422   1          cystatus status = CYRET_BAD_PARAM;
 423   1          reg16 *convert;
C51 COMPILER V9.51   CYDMAC                                                                11/20/2019 09:16:31 PAGE 8   

 424   1      
 425   1          #if(CY_PSOC5)
              
                      /* 0x1FFF8000-0x1FFFFFFF needs to use alias at 0x20008000-0x2000FFFF */
                      if(source == 0x1FFFu)
                      {
                          source = 0x2000u;
                      }
              
                      if(destination == 0x1FFFu)
                      {
                          destination = 0x2000u;
                      }
              
                  #endif  /* (CY_PSOC5) */
 439   1      
 440   1      
 441   1          if(chHandle < CY_DMA_NUMBEROF_CHANNELS)
 442   1          {
 443   2              /* Set source address */
 444   2              convert = (reg16 *) &CY_DMA_CFGMEM_STRUCT_PTR[chHandle].CFG1[0];
 445   2              CY_SET_REG16(convert, source);
 446   2      
 447   2              /* Set destination address */
 448   2              convert = (reg16 *) &CY_DMA_CFGMEM_STRUCT_PTR[chHandle].CFG1[2u];
 449   2              CY_SET_REG16(convert, destination);
 450   2              status = CYRET_SUCCESS;
 451   2          }
 452   1      
 453   1          return(status);
 454   1      }
 455          
 456          
 457          /*******************************************************************************
 458          * Function Name: CyDmaChSetInitialTd
 459          ****************************************************************************//**
 460          *
 461          * Sets the initial TD to be executed for the channel when the \ref CyDmaChEnable()
 462          * function is called.
 463          *
 464          * \param chHandle A handle previously returned by \ref CyDmaChAlloc() or
 465          * \ref DMA_DmaInitialize().
 466          *
 467          * \param startTd Set the TD index as the first TD associated with the
 468          * channel. Zero is a valid TD index.
 469          *
 470          * \return CYRET_SUCCESS if successful.
 471          * \return CYRET_BAD_PARAM if chHandle is invalid.
 472          *
 473          *******************************************************************************/
 474          cystatus CyDmaChSetInitialTd(uint8 chHandle, uint8 startTd) 
 475          {
 476   1          cystatus status = CYRET_BAD_PARAM;
 477   1      
 478   1          if(chHandle < CY_DMA_NUMBEROF_CHANNELS)
 479   1          {
 480   2              CY_DMA_CH_STRUCT_PTR[chHandle].basic_status[1u] = startTd;
 481   2              status = CYRET_SUCCESS;
 482   2          }
 483   1      
 484   1          return(status);
 485   1      }
C51 COMPILER V9.51   CYDMAC                                                                11/20/2019 09:16:31 PAGE 9   

 486          
 487          
 488          /*******************************************************************************
 489          * Function Name: CyDmaChSetRequest
 490          ****************************************************************************//**
 491          *
 492          *  Allows the caller to terminate a chain of TDs, terminate one TD, or create a
 493          *  direct request to start the DMA channel.
 494          *
 495          *  \param chHandle A handle previously returned by \ref CyDmaChAlloc() or \ref
 496          *  DMA_DmaInitalize().
 497          *
 498          *  \param request One of the following constants. Each of the constants is a
 499          *  three-bit value.
 500          *   CPU_REQ         - Create a direct request to start the DMA channel
 501          *   CPU_TERM_TD     - Terminate one TD
 502          *   CPU_TERM_CHAIN  - Terminate a chain of TDs
 503          *
 504          * \return CYRET_SUCCESS if successful.
 505          * \return CYRET_BAD_PARAM if chHandle is invalid.
 506          *
 507          *******************************************************************************/
 508          cystatus CyDmaChSetRequest(uint8 chHandle, uint8 request) 
 509          {
 510   1          cystatus status = CYRET_BAD_PARAM;
 511   1      
 512   1          if(chHandle < CY_DMA_NUMBEROF_CHANNELS)
 513   1          {
 514   2              CY_DMA_CH_STRUCT_PTR[chHandle].action[0u] |= (request & (CPU_REQ | CPU_TERM_TD | CPU_TERM_CHAIN));
 515   2              status = CYRET_SUCCESS;
 516   2          }
 517   1      
 518   1          return(status);
 519   1      }
 520          
 521          
 522          /*******************************************************************************
 523          * Function Name: CyDmaChGetRequest
 524          ****************************************************************************//**
 525          *
 526          * This function allows the caller of \ref CyDmaChSetRequest() to determine if the
 527          * request was completed.
 528          *
 529          * \param chHandle A handle previously returned by \ref CyDmaChAlloc() or \ref
 530          * DMA_DmaInitalize().
 531          *
 532          * \return Returns a three-bit field, corresponding to the three bits of the
 533          * request, which describes the state of the previously posted request. If the
 534          * value is zero, the request was completed. CY_DMA_INVALID_CHANNEL if the handle
 535          * is invalid.
 536          *
 537          *******************************************************************************/
 538          cystatus CyDmaChGetRequest(uint8 chHandle) 
 539          {
 540   1          cystatus status = CY_DMA_INVALID_CHANNEL;
 541   1      
 542   1          if(chHandle < CY_DMA_NUMBEROF_CHANNELS)
 543   1          {
 544   2              status = (cystatus) ((uint32)CY_DMA_CH_STRUCT_PTR[chHandle].action[0u] &
 545   2                                  (uint32)(CY_DMA_CPU_REQ | CY_DMA_CPU_TERM_TD | CY_DMA_CPU_TERM_CHAIN));
 546   2          }
 547   1      
C51 COMPILER V9.51   CYDMAC                                                                11/20/2019 09:16:31 PAGE 10  

 548   1          return(status);
 549   1      }
 550          
 551          
 552          /*******************************************************************************
 553          * Function Name: CyDmaChStatus
 554          ****************************************************************************//**
 555          *
 556          *  Determines the status of the DMA channel.
 557          *
 558          *  \param chHandle A handle previously returned by \ref CyDmaChAlloc() or \ref
 559          *  DMA_DmaInitalize().
 560          *
 561          *  \param currentTd The address to store the index of the current TD. Can be NULL
 562          *  if the value is not needed.
 563          *
 564          *  \param state The address to store the state of the channel. Can be NULL if the
 565          *  value is not needed.
 566          *
 567          *   STATUS_TD_ACTIVE
 568          *    \param 0: Channel is not currently being serviced by DMAC
 569          *    \param 1: Channel is currently being serviced by DMAC
 570          *
 571          *   STATUS_CHAIN_ACTIVE
 572          *    \param 0: TD chain is inactive; either no DMA requests have triggered a new chain
 573          *       or the previous chain has completed.
 574          *    \param 1: TD chain has been triggered by a DMA request
 575          *
 576          * \return CYRET_SUCCESS if successful.
 577          * \return CYRET_BAD_PARAM if chHandle is invalid.
 578          *
 579          * Theory:
 580          *   The caller can check on the activity of the Current TD and the Chain.
 581          *
 582          *******************************************************************************/
 583          cystatus CyDmaChStatus(uint8 chHandle, uint8 * currentTd, uint8 * state) 
 584          {
 585   1          cystatus status = CYRET_BAD_PARAM;
 586   1      
 587   1          if(chHandle < CY_DMA_NUMBEROF_CHANNELS)
 588   1          {
 589   2              if(NULL != currentTd)
 590   2              {
 591   3                  *currentTd = CY_DMA_CH_STRUCT_PTR[chHandle].basic_status[1] & 0x7Fu;
 592   3              }
 593   2      
 594   2              if(NULL != state)
 595   2              {
 596   3                  *state= CY_DMA_CH_STRUCT_PTR[chHandle].basic_status[0];
 597   3              }
 598   2      
 599   2              status = CYRET_SUCCESS;
 600   2          }
 601   1      
 602   1          return (status);
 603   1      }
 604          
 605          
 606          /*******************************************************************************
 607          * Function Name: CyDmaChSetConfiguration
 608          ****************************************************************************//**
 609          *
C51 COMPILER V9.51   CYDMAC                                                                11/20/2019 09:16:31 PAGE 11  

 610          * Sets configuration information of the channel.
 611          *
 612          *  \param uint8 chHandle:
 613          *   A handle previously returned by CyDmaChAlloc() or DMA_DmaInitialize().
 614          *
 615          *  \param uint8 burstCount:
 616          *   Specifies the size of bursts (1 to 127) the data transfer should be divided
 617          *   into. If this value is zero then the whole transfer is done in one burst.
 618          *
 619          *  \param uint8 requestPerBurst:
 620          *   The whole of the data can be split into multiple bursts, if this is
 621          *   \param required to complete the transaction:
 622          *    \param 0: All subsequent bursts after the first burst will be automatically
 623          *       requested and carried out
 624          *    \param 1: All subsequent bursts after the first burst must also be individually
 625          *       requested.
 626          *
 627          *  \param uint8 tdDone0:
 628          *   Selects one of the TERMOUT0 interrupt lines to signal completion. The line
 629          *   connected to the nrq terminal will determine the TERMOUT0_SEL definition and
 630          *   should be used as supplied by cyfitter.h
 631          *
 632          *  \param uint8 tdDone1:
 633          *   Selects one of the TERMOUT1 interrupt lines to signal completion. The line
 634          *   connected to the nrq terminal will determine the TERMOUT1_SEL definition and
 635          *   should be used as supplied by cyfitter.h
 636          *
 637          *  \param uint8 tdStop:
 638          *   Selects one of the TERMIN interrupt lines to signal to the DMAC that the TD
 639          *   should terminate. The signal connected to the trq terminal will determine
 640          *   which TERMIN (termination request) is used.
 641          *
 642          * \return
 643          *  CYRET_SUCCESS if successful.
 644          *  CYRET_BAD_PARAM if chHandle is invalid.
 645          *
 646          *******************************************************************************/
 647          cystatus CyDmaChSetConfiguration(uint8 chHandle, uint8 burstCount, uint8 requestPerBurst,
 648                                           uint8 tdDone0, uint8 tdDone1, uint8 tdStop) 
 649          {
 650   1          cystatus status = CYRET_BAD_PARAM;
 651   1      
 652   1          if(chHandle < CY_DMA_NUMBEROF_CHANNELS)
 653   1          {
 654   2              CY_DMA_CFGMEM_STRUCT_PTR[chHandle].CFG0[0] = (burstCount & 0x7Fu) | ((uint8)((requestPerBurst & 0x
             -1u) << 7u));
 655   2              CY_DMA_CFGMEM_STRUCT_PTR[chHandle].CFG0[1] = ((uint8)((tdDone1 & 0xFu) << 4u)) | (tdDone0 & 0xFu);
 656   2              CY_DMA_CFGMEM_STRUCT_PTR[chHandle].CFG0[2] = 0x0Fu & tdStop;
 657   2              CY_DMA_CFGMEM_STRUCT_PTR[chHandle].CFG0[3] = 0u; /* burstcount_remain. */
 658   2      
 659   2              status = CYRET_SUCCESS;
 660   2          }
 661   1      
 662   1          return (status);
 663   1      }
 664          
 665          
 666          /*******************************************************************************
 667          * Function Name: CyDmaTdAllocate
 668          ****************************************************************************//**
 669          *
 670          *  Allocates a TD for use with an allocated DMA channel.
C51 COMPILER V9.51   CYDMAC                                                                11/20/2019 09:16:31 PAGE 12  

 671          *
 672          * \return
 673          *  Zero-based index of the TD to be used by the caller. Since there are 128 TDs
 674          *  minus the reserved TDs (0 to 23), the value returned would range from 24 to
 675          *  127 not 24 to 128. DMA_INVALID_TD is returned if there are no free TDs
 676          *  available.
 677          *
 678          *******************************************************************************/
 679          uint8 CyDmaTdAllocate(void) 
 680          {
 681   1          uint8 interruptState;
 682   1          uint8 element = CY_DMA_INVALID_TD;
 683   1      
 684   1          /* Enter critical section! */
 685   1          interruptState = CyEnterCriticalSection();
 686   1      
 687   1          if(CyDmaTdCurrentNumber > NUMBEROF_CHANNELS)
 688   1          {
 689   2              /* Get pointer to Next available. */
 690   2              element = CyDmaTdFreeIndex;
 691   2      
 692   2              /* Decrement the count. */
 693   2              CyDmaTdCurrentNumber--;
 694   2      
 695   2              /* Update next available pointer. */
 696   2              CyDmaTdFreeIndex = CY_DMA_TDMEM_STRUCT_PTR[element].TD0[0];
 697   2          }
 698   1      
 699   1          /* Exit critical section! */
 700   1          CyExitCriticalSection(interruptState);
 701   1      
 702   1          return(element);
 703   1      }
 704          
 705          
 706          /*******************************************************************************
 707          * Function Name: CyDmaTdFree
 708          ****************************************************************************//**
 709          *
 710          *  Returns a TD to the free list.
 711          *
 712          *  \param uint8 tdHandle:
 713          *   The TD handle returned by the CyDmaTdAllocate().
 714          *
 715          *******************************************************************************/
 716          void CyDmaTdFree(uint8 tdHandle) 
 717          {
 718   1          if(tdHandle < CY_DMA_NUMBEROF_TDS)
 719   1          {
 720   2              /* Enter critical section! */
 721   2              uint8 interruptState = CyEnterCriticalSection();
 722   2      
 723   2              /* Get pointer to Next available. */
 724   2              CY_DMA_TDMEM_STRUCT_PTR[tdHandle].TD0[0u] = CyDmaTdFreeIndex;
 725   2      
 726   2              /* Set new Next Available. */
 727   2              CyDmaTdFreeIndex = tdHandle;
 728   2      
 729   2              /* Keep track of how many left. */
 730   2              CyDmaTdCurrentNumber++;
 731   2      
 732   2              /* Exit critical section! */
C51 COMPILER V9.51   CYDMAC                                                                11/20/2019 09:16:31 PAGE 13  

 733   2              CyExitCriticalSection(interruptState);
 734   2          }
 735   1      }
 736          
 737          
 738          /*******************************************************************************
 739          * Function Name: CyDmaTdFreeCount
 740          ****************************************************************************//**
 741          *
 742          *  Returns the number of free TDs available to be allocated.
 743          *
 744          * \return
 745          *  The number of free TDs.
 746          *
 747          *******************************************************************************/
 748          uint8 CyDmaTdFreeCount(void) 
 749          {
 750   1          return(CyDmaTdCurrentNumber - CY_DMA_NUMBEROF_CHANNELS);
 751   1      }
 752          
 753          
 754          /*******************************************************************************
 755          * Function Name: CyDmaTdSetConfiguration
 756          ****************************************************************************//**
 757          *
 758          *  Configures the TD.
 759          *
 760          *  \param uint8 tdHandle:
 761          *   A handle previously returned by CyDmaTdAlloc().
 762          *
 763          *  \param uint16 transferCount:
 764          *   The size of the data transfer (in bytes) for this TD. A size of zero will
 765          *   cause the transfer to continue indefinitely. This parameter is limited to
 766          *   4095 bytes; the TD is not initialized at all when a higher value is passed.
 767          *
 768          *  \param uint8 nextTd:
 769          *   Zero based index of the next Transfer Descriptor in the TD chain. Zero is a
 770          *   valid pointer to the next TD; DMA_END_CHAIN_TD is the end of the chain.
 771          *   DMA_DISABLE_TD indicates an end to the chain and the DMA is disabled. No
 772          *   further TDs are fetched. DMA_DISABLE_TD is only supported on PSoC3 and
 773          *   PSoC 5LP silicons.
 774          *
 775          *  \param uint8 configuration:
 776          *   Stores the Bit field of configuration bits.
 777          *
 778          *   CY_DMA_TD_SWAP_EN        - Perform endian swap
 779          *
 780          *   CY_DMA_TD_SWAP_SIZE4     - Swap size = 4 bytes
 781          *
 782          *   CY_DMA_TD_AUTO_EXEC_NEXT - The next TD in the chain will trigger
 783          *                              automatically when the current TD completes.
 784          *
 785          *   CY_DMA_TD_TERMIN_EN      - Terminate this TD if a positive edge on the trq
 786          *                              input line occurs. The positive edge must occur
 787          *                              during a burst. That is the only time the DMAC
 788          *                              will listen for it.
 789          *
 790          *   DMA__TD_TERMOUT_EN       - When this TD completes, the TERMOUT signal will
 791          *                              generate a pulse. Note that this option is
 792          *                              instance specific with the instance name followed
 793          *                              by two underscores. In this example, the instance
 794          *                              name is DMA.
C51 COMPILER V9.51   CYDMAC                                                                11/20/2019 09:16:31 PAGE 14  

 795          *
 796          *   CY_DMA_TD_INC_DST_ADR    - Increment DST_ADR according to the size of each
 797          *                              data transaction in the burst.
 798          *
 799          *   CY_DMA_TD_INC_SRC_ADR    - Increment SRC_ADR according to the size of each
 800          *                              data transaction in the burst.
 801          *
 802          * \return
 803          *  CYRET_SUCCESS if successful.
 804          *  CYRET_BAD_PARAM if tdHandle or transferCount is invalid.
 805          *
 806          *******************************************************************************/
 807          cystatus CyDmaTdSetConfiguration(uint8 tdHandle, uint16 transferCount, uint8 nextTd, uint8 configuration) 
             -\
 808              
 809          {
 810   1          cystatus status = CYRET_BAD_PARAM;
 811   1      
 812   1          if((tdHandle < CY_DMA_NUMBEROF_TDS) && (0u == (0xF000u & transferCount)))
 813   1          {
 814   2              /* Set 12 bits transfer count. */
 815   2              reg16 *convert = (reg16 *) &CY_DMA_TDMEM_STRUCT_PTR[tdHandle].TD0[0u];
 816   2              CY_SET_REG16(convert, transferCount);
 817   2      
 818   2              /* Set Next TD pointer. */
 819   2              CY_DMA_TDMEM_STRUCT_PTR[tdHandle].TD0[2u] = nextTd;
 820   2      
 821   2              /* Configure the TD */
 822   2              CY_DMA_TDMEM_STRUCT_PTR[tdHandle].TD0[3u] = configuration;
 823   2      
 824   2              status = CYRET_SUCCESS;
 825   2          }
 826   1      
 827   1          return(status);
 828   1      }
 829          
 830          
 831          /*******************************************************************************
 832          * Function Name: CyDmaTdGetConfiguration
 833          ****************************************************************************//**
 834          *
 835          *  Retrieves the configuration of the TD. If a NULL pointer is passed as a
 836          *  parameter, that parameter is skipped. You may request only the values you are
 837          *  interested in.
 838          *
 839          *  \param uint8 tdHandle:
 840          *   A handle previously returned by CyDmaTdAlloc().
 841          *
 842          *  \param uint16 * transferCount:
 843          *   The address to store the size of the data transfer (in bytes) for this TD.
 844          *   A size of zero could indicate that the TD has completed its transfer, or
 845          *   that the TD is doing an indefinite transfer.
 846          *
 847          *  \param uint8 * nextTd:
 848          *   The address to store the index of the next TD in the TD chain.
 849          *
 850          *  \param uint8 * configuration:
 851          *   The address to store the Bit field of configuration bits.
 852          *   See CyDmaTdSetConfiguration() function description.
 853          *
 854          * \return
 855          *  CYRET_SUCCESS if successful.
C51 COMPILER V9.51   CYDMAC                                                                11/20/2019 09:16:31 PAGE 15  

 856          *  CYRET_BAD_PARAM if tdHandle is invalid.
 857          *
 858          * \sideeffect
 859          *  If TD has a transfer count of N and is executed, the transfer count becomes
 860          *  0. If it is reexecuted, the Transfer count of zero will be interpreted as a
 861          *  request for indefinite transfer. Be careful when requesting TD with a
 862          *  transfer count of zero.
 863          *
 864          *******************************************************************************/
 865          cystatus CyDmaTdGetConfiguration(uint8 tdHandle, uint16 * transferCount, uint8 * nextTd, uint8 * configura
             -tion) \
 866              
 867          {
 868   1          cystatus status = CYRET_BAD_PARAM;
 869   1      
 870   1          if(tdHandle < CY_DMA_NUMBEROF_TDS)
 871   1          {
 872   2              /* If we have pointer */
 873   2              if(NULL != transferCount)
 874   2              {
 875   3                  /* Get 12 bits of transfer count */
 876   3                  reg16 *convert = (reg16 *) &CY_DMA_TDMEM_STRUCT_PTR[tdHandle].TD0[0];
 877   3                  *transferCount = 0x0FFFu & CY_GET_REG16(convert);
 878   3              }
 879   2      
 880   2              /* If we have pointer */
 881   2              if(NULL != nextTd)
 882   2              {
 883   3                  /* Get Next TD pointer */
 884   3                  *nextTd = CY_DMA_TDMEM_STRUCT_PTR[tdHandle].TD0[2u];
 885   3              }
 886   2      
 887   2              /* If we have pointer */
 888   2              if(NULL != configuration)
 889   2              {
 890   3                  /* Get configuration TD */
 891   3                  *configuration = CY_DMA_TDMEM_STRUCT_PTR[tdHandle].TD0[3u];
 892   3              }
 893   2      
 894   2              status = CYRET_SUCCESS;
 895   2          }
 896   1      
 897   1          return(status);
 898   1      }
 899          
 900          
 901          /*******************************************************************************
 902          * Function Name: CyDmaTdSetAddress
 903          ****************************************************************************//**
 904          *
 905          *  Sets the lower 16 bits of the source and destination addresses for this TD
 906          *  only.
 907          *
 908          *  \param uint8 tdHandle:
 909          *   A handle previously returned by CyDmaTdAlloc().
 910          *
 911          *  \param uint16 source:
 912          *   The lower 16 address bits of the source of the data transfer.
 913          *
 914          *  \param uint16 destination:
 915          *   The lower 16 address bits of the destination of the data transfer.
 916          *
C51 COMPILER V9.51   CYDMAC                                                                11/20/2019 09:16:31 PAGE 16  

 917          * \return
 918          *  CYRET_SUCCESS if successful.
 919          *  CYRET_BAD_PARAM if tdHandle is invalid.
 920          *
 921          *******************************************************************************/
 922          cystatus CyDmaTdSetAddress(uint8 tdHandle, uint16 source, uint16 destination) 
 923          {
 924   1          cystatus status = CYRET_BAD_PARAM;
 925   1          reg16 *convert;
 926   1      
 927   1          if(tdHandle < CY_DMA_NUMBEROF_TDS)
 928   1          {
 929   2              /* Set source address */
 930   2              convert = (reg16 *) &CY_DMA_TDMEM_STRUCT_PTR[tdHandle].TD1[0u];
 931   2              CY_SET_REG16(convert, source);
 932   2      
 933   2              /* Set destination address */
 934   2              convert = (reg16 *) &CY_DMA_TDMEM_STRUCT_PTR[tdHandle].TD1[2u];
 935   2              CY_SET_REG16(convert, destination);
 936   2      
 937   2              status = CYRET_SUCCESS;
 938   2          }
 939   1      
 940   1          return(status);
 941   1      }
 942          
 943          
 944          /*******************************************************************************
 945          * Function Name: CyDmaTdGetAddress
 946          ****************************************************************************//**
 947          *
 948          *  Retrieves the lower 16 bits of the source and/or destination addresses for
 949          *  this TD only. If NULL is passed for a pointer parameter, that value is
 950          *  skipped. You may request only the values of interest.
 951          *
 952          *  \param uint8 tdHandle:
 953          *   A handle previously returned by CyDmaTdAlloc().
 954          *
 955          *  \param uint16 * source:
 956          *   The address to store the lower 16 address bits of the source of the data
 957          *   transfer.
 958          *
 959          *  \param uint16 * destination:
 960          *   The address to store the lower 16 address bits of the destination of the
 961          *   data transfer.
 962          *
 963          * \return
 964          *  CYRET_SUCCESS if successful.
 965          *  CYRET_BAD_PARAM if tdHandle is invalid.
 966          *
 967          *******************************************************************************/
 968          cystatus CyDmaTdGetAddress(uint8 tdHandle, uint16 * source, uint16 * destination) 
 969          {
 970   1          cystatus status = CYRET_BAD_PARAM;
 971   1          reg16 *convert;
 972   1      
 973   1          if(tdHandle < CY_DMA_NUMBEROF_TDS)
 974   1          {
 975   2              /* If we have a pointer. */
 976   2              if(NULL != source)
 977   2              {
 978   3                  /* Get source address */
C51 COMPILER V9.51   CYDMAC                                                                11/20/2019 09:16:31 PAGE 17  

 979   3                  convert = (reg16 *) &CY_DMA_TDMEM_STRUCT_PTR[tdHandle].TD1[0u];
 980   3                  *source = CY_GET_REG16(convert);
 981   3              }
 982   2      
 983   2              /* If we have a pointer. */
 984   2              if(NULL != destination)
 985   2              {
 986   3                  /* Get Destination address. */
 987   3                  convert = (reg16 *) &CY_DMA_TDMEM_STRUCT_PTR[tdHandle].TD1[2u];
 988   3                  *destination = CY_GET_REG16(convert);
 989   3              }
 990   2      
 991   2              status = CYRET_SUCCESS;
 992   2          }
 993   1      
 994   1          return(status);
 995   1      }
 996          
 997          
 998          /*******************************************************************************
 999          * Function Name: CyDmaChRoundRobin
1000          ****************************************************************************//**
1001          *
1002          * Either enables or disables the Round-Robin scheduling enforcement algorithm.
1003          * Within a priority level a Round-Robin fairness algorithm is enforced.
1004          *
1005          * \param uint8 chHandle:
1006          *  A handle previously returned by CyDmaChAlloc() or Dma_DmaInitialize().
1007          *
1008          * \param uint8 enableRR:
1009          *  \param 0: Disable Round-Robin fairness algorithm
1010          *  \param 1: Enable Round-Robin fairness algorithm
1011          *
1012          * \return
1013          * CYRET_SUCCESS if successful.
1014          * CYRET_BAD_PARAM if chHandle is invalid.
1015          *
1016          *******************************************************************************/
1017          cystatus CyDmaChRoundRobin(uint8 chHandle, uint8 enableRR) 
1018          {
1019   1          cystatus status = CYRET_BAD_PARAM;
1020   1      
1021   1          if(chHandle < CY_DMA_NUMBEROF_CHANNELS)
1022   1          {
1023   2              if (0u != enableRR)
1024   2              {
1025   3                  CY_DMA_CH_STRUCT_PTR[chHandle].basic_cfg[0u] |= (uint8)CY_DMA_ROUND_ROBIN_ENABLE;
1026   3              }
1027   2              else
1028   2              {
1029   3                  CY_DMA_CH_STRUCT_PTR[chHandle].basic_cfg[0u] &= (uint8)(~CY_DMA_ROUND_ROBIN_ENABLE);
1030   3              }
1031   2      
1032   2              status = CYRET_SUCCESS;
1033   2          }
1034   1      
1035   1          return(status);
1036   1      }
1037          
1038          
1039          /* [] END OF FILE */
C51 COMPILER V9.51   CYDMAC                                                                11/20/2019 09:16:31 PAGE 18  

ASSEMBLY LISTING OF GENERATED OBJECT CODE


             ; FUNCTION CyDmacConfigure (BEGIN)
                                           ; SOURCE LINE # 53
                                           ; SOURCE LINE # 54
                                           ; SOURCE LINE # 58
0000 900000      R     MOV     DPTR,#CyDmaTdFreeIndex
0003 747F              MOV     A,#07FH
0005 F0                MOVX    @DPTR,A
                                           ; SOURCE LINE # 59
0006 900000      R     MOV     DPTR,#CyDmaTdCurrentNumber
0009 7480              MOV     A,#080H
000B F0                MOVX    @DPTR,A
                                           ; SOURCE LINE # 62
000C 900000      R     MOV     DPTR,#dmaIndex
000F 747F              MOV     A,#07FH
0011 F0                MOVX    @DPTR,A
0012         ?C0001:
0012 900000      R     MOV     DPTR,#dmaIndex
0015 E0                MOVX    A,@DPTR
0016 FF                MOV     R7,A
0017 EF                MOV     A,R7
0018 6021              JZ      ?C0002
                                           ; SOURCE LINE # 63
                                           ; SOURCE LINE # 64
001A 900000      R     MOV     DPTR,#dmaIndex
001D E0                MOVX    A,@DPTR
001E FF                MOV     R7,A
001F EF                MOV     A,R7
0020 14                DEC     A
0021 FF                MOV     R7,A
0022 900000      R     MOV     DPTR,#dmaIndex
0025 E0                MOVX    A,@DPTR
0026 FE                MOV     R6,A
0027 75F008            MOV     B,#08H
002A EE                MOV     A,R6
002B 907800            MOV     DPTR,#07800H
002E 120000      E     LCALL   ?C?OFFXADD
0031 EF                MOV     A,R7
0032 F0                MOVX    @DPTR,A
                                           ; SOURCE LINE # 65
0033 900000      R     MOV     DPTR,#dmaIndex
0036 E0                MOVX    A,@DPTR
0037 14                DEC     A
0038 F0                MOVX    @DPTR,A
0039 80D7              SJMP    ?C0001
003B         ?C0002:
                                           ; SOURCE LINE # 68
003B 900000      R     MOV     DPTR,#dmaIndex
003E E0                MOVX    A,@DPTR
003F FF                MOV     R7,A
0040 75F008            MOV     B,#08H
0043 EF                MOV     A,R7
0044 907800            MOV     DPTR,#07800H
0047 120000      E     LCALL   ?C?OFFXADD
004A E4                CLR     A
004B F0                MOVX    @DPTR,A
                                           ; SOURCE LINE # 69
004C 22                RET     
             ; FUNCTION CyDmacConfigure (END)

C51 COMPILER V9.51   CYDMAC                                                                11/20/2019 09:16:31 PAGE 19  

             ; FUNCTION CyDmacError (BEGIN)
                                           ; SOURCE LINE # 96
                                           ; SOURCE LINE # 97
                                           ; SOURCE LINE # 98
0000 907004            MOV     DPTR,#07004H
0003 120000      E     LCALL   ?C?LLDXDATA
0006 EF                MOV     A,R7
0007 540E              ANL     A,#0EH
0009 FF                MOV     R7,A
000A EE                MOV     A,R6
000B 5400              ANL     A,#00H
000D FE                MOV     R6,A
000E ED                MOV     A,R5
000F 5400              ANL     A,#00H
0011 FD                MOV     R5,A
0012 EC                MOV     A,R4
0013 5400              ANL     A,#00H
0015 FC                MOV     R4,A
                                           ; SOURCE LINE # 99
0016         ?C0005:
0016 22                RET     
             ; FUNCTION CyDmacError (END)

             ; FUNCTION _CyDmacClearError (BEGIN)
                                           ; SOURCE LINE # 127
0000 900000      R     MOV     DPTR,#error
0003 EF                MOV     A,R7
0004 F0                MOVX    @DPTR,A
                                           ; SOURCE LINE # 128
                                           ; SOURCE LINE # 129
0005 900000      R     MOV     DPTR,#error
0008 E0                MOVX    A,@DPTR
0009 FF                MOV     R7,A
000A E4                CLR     A
000B FC                MOV     R4,A
000C FD                MOV     R5,A
000D FE                MOV     R6,A
000E EF                MOV     A,R7
000F 540F              ANL     A,#0FH
0011 FF                MOV     R7,A
0012 EE                MOV     A,R6
0013 5400              ANL     A,#00H
0015 FE                MOV     R6,A
0016 ED                MOV     A,R5
0017 5400              ANL     A,#00H
0019 FD                MOV     R5,A
001A EC                MOV     A,R4
001B 5400              ANL     A,#00H
001D FC                MOV     R4,A
001E 907004            MOV     DPTR,#07004H
0021 120000      E     LCALL   ?C?LSTXDATA
                                           ; SOURCE LINE # 130
0024 22                RET     
             ; FUNCTION _CyDmacClearError (END)

             ; FUNCTION CyDmacErrorAddress (BEGIN)
                                           ; SOURCE LINE # 146
                                           ; SOURCE LINE # 147
                                           ; SOURCE LINE # 148
0000 7B02              MOV     R3,#02H
0002 7A70              MOV     R2,#070H
0004 7908              MOV     R1,#08H
C51 COMPILER V9.51   CYDMAC                                                                11/20/2019 09:16:31 PAGE 20  

0006 120000      E     LCALL   _cyread32_nodpx
                                           ; SOURCE LINE # 149
0009         ?C0007:
0009 22                RET     
             ; FUNCTION CyDmacErrorAddress (END)

             ; FUNCTION CyDmaChAlloc (BEGIN)
                                           ; SOURCE LINE # 163
                                           ; SOURCE LINE # 164
                                           ; SOURCE LINE # 167
0000 7F01              MOV     R7,#01H
0002 7E00              MOV     R6,#00H
0004 7D00              MOV     R5,#00H
0006 7C00              MOV     R4,#00H
0008 900000      R     MOV     DPTR,#channel
000B 120000      E     LCALL   ?C?LSTXDATA
                                           ; SOURCE LINE # 171
000E 120000      E     LCALL   CyEnterCriticalSection
0011 900000      R     MOV     DPTR,#interruptState
0014 EF                MOV     A,R7
0015 F0                MOVX    @DPTR,A
                                           ; SOURCE LINE # 174
0016 900000      R     MOV     DPTR,#dmaIndex
0019 E4                CLR     A
001A F0                MOVX    @DPTR,A
001B         ?C0008:
001B 900000      R     MOV     DPTR,#dmaIndex
001E E0                MOVX    A,@DPTR
001F FF                MOV     R7,A
0020 EF                MOV     A,R7
0021 C3                CLR     C
0022 9418              SUBB    A,#018H
0024 504D              JNC     ?C0009
                                           ; SOURCE LINE # 175
                                           ; SOURCE LINE # 176
0026 900000      R     MOV     DPTR,#channel
0029 120000      E     LCALL   ?C?LLDXDATA
002C 900000      R     MOV     DPTR,#CyDmaChannels
002F 120000      E     LCALL   ?C?LLDXDATA0
0032 120000      E     LCALL   ?C?LAND
0035 7B00              MOV     R3,#00H
0037 7A00              MOV     R2,#00H
0039 7900              MOV     R1,#00H
003B 7800              MOV     R0,#00H
003D C3                CLR     C
003E 120000      E     LCALL   ?C?ULCMP
0041 7017              JNZ     ?C0011
                                           ; SOURCE LINE # 177
                                           ; SOURCE LINE # 179
0043 900000      R     MOV     DPTR,#CyDmaChannels
0046 120000      E     LCALL   ?C?LLDXDATA
0049 900000      R     MOV     DPTR,#channel
004C 120000      E     LCALL   ?C?LLDXDATA0
004F 120000      E     LCALL   ?C?LOR
0052 900000      R     MOV     DPTR,#CyDmaChannels
0055 120000      E     LCALL   ?C?LSTXDATA
                                           ; SOURCE LINE # 180
0058 8019              SJMP    ?C0009
                                           ; SOURCE LINE # 181
005A         ?C0011:
                                           ; SOURCE LINE # 183
005A 900000      R     MOV     DPTR,#channel
C51 COMPILER V9.51   CYDMAC                                                                11/20/2019 09:16:31 PAGE 21  

005D 120000      E     LCALL   ?C?LLDXDATA
0060 7801              MOV     R0,#01H
0062 120000      E     LCALL   ?C?LSHL
0065 900000      R     MOV     DPTR,#channel
0068 120000      E     LCALL   ?C?LSTXDATA
                                           ; SOURCE LINE # 184
006B 900000      R     MOV     DPTR,#dmaIndex
006E E0                MOVX    A,@DPTR
006F 04                INC     A
0070 F0                MOVX    @DPTR,A
0071 80A8              SJMP    ?C0008
0073         ?C0009:
                                           ; SOURCE LINE # 186
0073 900000      R     MOV     DPTR,#dmaIndex
0076 E0                MOVX    A,@DPTR
0077 FF                MOV     R7,A
0078 EF                MOV     A,R7
0079 C3                CLR     C
007A 9418              SUBB    A,#018H
007C 4006              JC      ?C0012
                                           ; SOURCE LINE # 187
                                           ; SOURCE LINE # 188
007E 900000      R     MOV     DPTR,#dmaIndex
0081 74FF              MOV     A,#0FFH
0083 F0                MOVX    @DPTR,A
                                           ; SOURCE LINE # 189
0084         ?C0012:
                                           ; SOURCE LINE # 192
0084 900000      R     MOV     DPTR,#interruptState
0087 E0                MOVX    A,@DPTR
0088 FF                MOV     R7,A
0089 120000      E     LCALL   _CyExitCriticalSection
                                           ; SOURCE LINE # 194
008C 900000      R     MOV     DPTR,#dmaIndex
008F E0                MOVX    A,@DPTR
0090 FF                MOV     R7,A
                                           ; SOURCE LINE # 195
0091         ?C0013:
0091 22                RET     
             ; FUNCTION CyDmaChAlloc (END)

             ; FUNCTION _CyDmaChFree (BEGIN)
                                           ; SOURCE LINE # 211
0000 900000      R     MOV     DPTR,#chHandle
0003 EF                MOV     A,R7
0004 F0                MOVX    @DPTR,A
                                           ; SOURCE LINE # 212
                                           ; SOURCE LINE # 213
0005 900000      R     MOV     DPTR,#status
0008 7401              MOV     A,#01H
000A F0                MOVX    @DPTR,A
                                           ; SOURCE LINE # 216
000B 900000      R     MOV     DPTR,#chHandle
000E E0                MOVX    A,@DPTR
000F FF                MOV     R7,A
0010 EF                MOV     A,R7
0011 C3                CLR     C
0012 9418              SUBB    A,#018H
0014 5051              JNC     ?C0014
                                           ; SOURCE LINE # 217
                                           ; SOURCE LINE # 219
0016 120000      E     LCALL   CyEnterCriticalSection
C51 COMPILER V9.51   CYDMAC                                                                11/20/2019 09:16:31 PAGE 22  

0019 900000      R     MOV     DPTR,#interruptState
001C EF                MOV     A,R7
001D F0                MOVX    @DPTR,A
                                           ; SOURCE LINE # 222
001E 900000      R     MOV     DPTR,#CyDmaChannels
0021 120000      E     LCALL   ?C?LLDXDATA
0024 C004              PUSH    AR4
0026 C005              PUSH    AR5
0028 C006              PUSH    AR6
002A C007              PUSH    AR7
002C 7F01              MOV     R7,#01H
002E 7E00              MOV     R6,#00H
0030 7D00              MOV     R5,#00H
0032 7C00              MOV     R4,#00H
0034 900000      R     MOV     DPTR,#chHandle
0037 E0                MOVX    A,@DPTR
0038 F9                MOV     R1,A
0039 A801              MOV     R0,AR1
003B 120000      E     LCALL   ?C?LSHL
003E 120000      E     LCALL   ?C?LNOT
0041 A804              MOV     R0,AR4
0043 A905              MOV     R1,AR5
0045 AA06              MOV     R2,AR6
0047 AB07              MOV     R3,AR7
0049 D007              POP     AR7
004B D006              POP     AR6
004D D005              POP     AR5
004F D004              POP     AR4
0051 120000      E     LCALL   ?C?LAND
0054 900000      R     MOV     DPTR,#CyDmaChannels
0057 120000      E     LCALL   ?C?LSTXDATA
                                           ; SOURCE LINE # 225
005A 900000      R     MOV     DPTR,#interruptState
005D E0                MOVX    A,@DPTR
005E FF                MOV     R7,A
005F 120000      E     LCALL   _CyExitCriticalSection
                                           ; SOURCE LINE # 226
0062 900000      R     MOV     DPTR,#status
0065 E4                CLR     A
0066 F0                MOVX    @DPTR,A
                                           ; SOURCE LINE # 227
0067         ?C0014:
                                           ; SOURCE LINE # 229
0067 900000      R     MOV     DPTR,#status
006A E0                MOVX    A,@DPTR
006B FF                MOV     R7,A
                                           ; SOURCE LINE # 230
006C         ?C0015:
006C 22                RET     
             ; FUNCTION _CyDmaChFree (END)

             ; FUNCTION _CyDmaChEnable (BEGIN)
                                           ; SOURCE LINE # 269
0000 900000      R     MOV     DPTR,#chHandle
0003 EF                MOV     A,R7
0004 F0                MOVX    @DPTR,A
0005 900000      R     MOV     DPTR,#preserveTds
0008 ED                MOV     A,R5
0009 F0                MOVX    @DPTR,A
                                           ; SOURCE LINE # 270
                                           ; SOURCE LINE # 271
000A 900000      R     MOV     DPTR,#status
C51 COMPILER V9.51   CYDMAC                                                                11/20/2019 09:16:31 PAGE 23  

000D 7401              MOV     A,#01H
000F F0                MOVX    @DPTR,A
                                           ; SOURCE LINE # 273
0010 900000      R     MOV     DPTR,#chHandle
0013 E0                MOVX    A,@DPTR
0014 FF                MOV     R7,A
0015 EF                MOV     A,R7
0016 C3                CLR     C
0017 9418              SUBB    A,#018H
0019 5054              JNC     ?C0016
                                           ; SOURCE LINE # 274
                                           ; SOURCE LINE # 275
001B 900000      R     MOV     DPTR,#preserveTds
001E E0                MOVX    A,@DPTR
001F FF                MOV     R7,A
0020 EF                MOV     A,R7
0021 6019              JZ      ?C0017
                                           ; SOURCE LINE # 276
                                           ; SOURCE LINE # 280
0023 900000      R     MOV     DPTR,#chHandle
0026 E0                MOVX    A,@DPTR
0027 FF                MOV     R7,A
0028 75F010            MOV     B,#010H
002B EF                MOV     A,R7
002C 907010            MOV     DPTR,#07010H
002F 120000      E     LCALL   ?C?OFFXADD
0032 E0                MOVX    A,@DPTR
0033 FF                MOV     R7,A
0034 EF                MOV     A,R7
0035 4420              ORL     A,#020H
0037 FF                MOV     R7,A
0038 EF                MOV     A,R7
0039 F0                MOVX    @DPTR,A
                                           ; SOURCE LINE # 281
003A 8017              SJMP    ?C0018
003C         ?C0017:
                                           ; SOURCE LINE # 283
                                           ; SOURCE LINE # 285
003C 900000      R     MOV     DPTR,#chHandle
003F E0                MOVX    A,@DPTR
0040 FF                MOV     R7,A
0041 75F010            MOV     B,#010H
0044 EF                MOV     A,R7
0045 907010            MOV     DPTR,#07010H
0048 120000      E     LCALL   ?C?OFFXADD
004B E0                MOVX    A,@DPTR
004C FF                MOV     R7,A
004D EF                MOV     A,R7
004E 54DF              ANL     A,#0DFH
0050 FF                MOV     R7,A
0051 EF                MOV     A,R7
0052 F0                MOVX    @DPTR,A
                                           ; SOURCE LINE # 286
0053         ?C0018:
                                           ; SOURCE LINE # 289
0053 900000      R     MOV     DPTR,#chHandle
0056 E0                MOVX    A,@DPTR
0057 FF                MOV     R7,A
0058 75F010            MOV     B,#010H
005B EF                MOV     A,R7
005C 907010            MOV     DPTR,#07010H
005F 120000      E     LCALL   ?C?OFFXADD
C51 COMPILER V9.51   CYDMAC                                                                11/20/2019 09:16:31 PAGE 24  

0062 E0                MOVX    A,@DPTR
0063 FF                MOV     R7,A
0064 EF                MOV     A,R7
0065 4401              ORL     A,#01H
0067 FF                MOV     R7,A
0068 EF                MOV     A,R7
0069 F0                MOVX    @DPTR,A
                                           ; SOURCE LINE # 291
006A 900000      R     MOV     DPTR,#status
006D E4                CLR     A
006E F0                MOVX    @DPTR,A
                                           ; SOURCE LINE # 292
006F         ?C0016:
                                           ; SOURCE LINE # 294
006F 900000      R     MOV     DPTR,#status
0072 E0                MOVX    A,@DPTR
0073 FF                MOV     R7,A
                                           ; SOURCE LINE # 295
0074         ?C0019:
0074 22                RET     
             ; FUNCTION _CyDmaChEnable (END)

             ; FUNCTION _CyDmaChDisable (BEGIN)
                                           ; SOURCE LINE # 316
0000 900000      R     MOV     DPTR,#chHandle
0003 EF                MOV     A,R7
0004 F0                MOVX    @DPTR,A
                                           ; SOURCE LINE # 317
                                           ; SOURCE LINE # 318
0005 900000      R     MOV     DPTR,#status
0008 7401              MOV     A,#01H
000A F0                MOVX    @DPTR,A
                                           ; SOURCE LINE # 320
000B 900000      R     MOV     DPTR,#chHandle
000E E0                MOVX    A,@DPTR
000F FF                MOV     R7,A
0010 EF                MOV     A,R7
0011 C3                CLR     C
0012 9418              SUBB    A,#018H
0014 5033              JNC     ?C0020
                                           ; SOURCE LINE # 321
                                           ; SOURCE LINE # 328
0016 900000      R     MOV     DPTR,#chHandle
0019 E0                MOVX    A,@DPTR
001A FF                MOV     R7,A
001B 75F010            MOV     B,#010H
001E EF                MOV     A,R7
001F 907010            MOV     DPTR,#07010H
0022 120000      E     LCALL   ?C?OFFXADD
0025 E0                MOVX    A,@DPTR
0026 FF                MOV     R7,A
0027 EF                MOV     A,R7
0028 54FE              ANL     A,#0FEH
002A FF                MOV     R7,A
002B EF                MOV     A,R7
002C F0                MOVX    @DPTR,A
                                           ; SOURCE LINE # 331
002D 900000      R     MOV     DPTR,#chHandle
0030 E0                MOVX    A,@DPTR
0031 FF                MOV     R7,A
0032 75F010            MOV     B,#010H
0035 EF                MOV     A,R7
C51 COMPILER V9.51   CYDMAC                                                                11/20/2019 09:16:31 PAGE 25  

0036 907010            MOV     DPTR,#07010H
0039 120000      E     LCALL   ?C?OFFXADD
003C E0                MOVX    A,@DPTR
003D FF                MOV     R7,A
003E EF                MOV     A,R7
003F 54DF              ANL     A,#0DFH
0041 FF                MOV     R7,A
0042 EF                MOV     A,R7
0043 F0                MOVX    @DPTR,A
                                           ; SOURCE LINE # 332
0044 900000      R     MOV     DPTR,#status
0047 E4                CLR     A
0048 F0                MOVX    @DPTR,A
                                           ; SOURCE LINE # 333
0049         ?C0020:
                                           ; SOURCE LINE # 335
0049 900000      R     MOV     DPTR,#status
004C E0                MOVX    A,@DPTR
004D FF                MOV     R7,A
                                           ; SOURCE LINE # 336
004E         ?C0021:
004E 22                RET     
             ; FUNCTION _CyDmaChDisable (END)

             ; FUNCTION _CyDmaClearPendingDrq (BEGIN)
                                           ; SOURCE LINE # 351
0000 900000      R     MOV     DPTR,#chHandle
0003 EF                MOV     A,R7
0004 F0                MOVX    @DPTR,A
                                           ; SOURCE LINE # 352
                                           ; SOURCE LINE # 353
0005 900000      R     MOV     DPTR,#status
0008 7401              MOV     A,#01H
000A F0                MOVX    @DPTR,A
                                           ; SOURCE LINE # 355
000B 900000      R     MOV     DPTR,#chHandle
000E E0                MOVX    A,@DPTR
000F FF                MOV     R7,A
0010 EF                MOV     A,R7
0011 C3                CLR     C
0012 9418              SUBB    A,#018H
0014 5033              JNC     ?C0022
                                           ; SOURCE LINE # 356
                                           ; SOURCE LINE # 357
0016 900000      R     MOV     DPTR,#chHandle
0019 E0                MOVX    A,@DPTR
001A FF                MOV     R7,A
001B 75F010            MOV     B,#010H
001E EF                MOV     A,R7
001F 907014            MOV     DPTR,#07014H
0022 120000      E     LCALL   ?C?OFFXADD
0025 E0                MOVX    A,@DPTR
0026 FF                MOV     R7,A
0027 EF                MOV     A,R7
0028 4404              ORL     A,#04H
002A FF                MOV     R7,A
002B EF                MOV     A,R7
002C F0                MOVX    @DPTR,A
                                           ; SOURCE LINE # 358
002D 900000      R     MOV     DPTR,#chHandle
0030 E0                MOVX    A,@DPTR
0031 FF                MOV     R7,A
C51 COMPILER V9.51   CYDMAC                                                                11/20/2019 09:16:31 PAGE 26  

0032 75F010            MOV     B,#010H
0035 EF                MOV     A,R7
0036 907010            MOV     DPTR,#07010H
0039 120000      E     LCALL   ?C?OFFXADD
003C E0                MOVX    A,@DPTR
003D FF                MOV     R7,A
003E EF                MOV     A,R7
003F 4401              ORL     A,#01H
0041 FF                MOV     R7,A
0042 EF                MOV     A,R7
0043 F0                MOVX    @DPTR,A
                                           ; SOURCE LINE # 359
0044 900000      R     MOV     DPTR,#status
0047 E4                CLR     A
0048 F0                MOVX    @DPTR,A
                                           ; SOURCE LINE # 360
0049         ?C0022:
                                           ; SOURCE LINE # 362
0049 900000      R     MOV     DPTR,#status
004C E0                MOVX    A,@DPTR
004D FF                MOV     R7,A
                                           ; SOURCE LINE # 363
004E         ?C0023:
004E 22                RET     
             ; FUNCTION _CyDmaClearPendingDrq (END)

             ; FUNCTION _CyDmaChPriority (BEGIN)
                                           ; SOURCE LINE # 383
0000 900000      R     MOV     DPTR,#chHandle
0003 EF                MOV     A,R7
0004 F0                MOVX    @DPTR,A
0005 900000      R     MOV     DPTR,#priority
0008 ED                MOV     A,R5
0009 F0                MOVX    @DPTR,A
                                           ; SOURCE LINE # 384
                                           ; SOURCE LINE # 386
000A 900000      R     MOV     DPTR,#status
000D 7401              MOV     A,#01H
000F F0                MOVX    @DPTR,A
                                           ; SOURCE LINE # 388
0010 900000      R     MOV     DPTR,#chHandle
0013 E0                MOVX    A,@DPTR
0014 FF                MOV     R7,A
0015 EF                MOV     A,R7
0016 C3                CLR     C
0017 9418              SUBB    A,#018H
0019 504A              JNC     ?C0024
                                           ; SOURCE LINE # 389
                                           ; SOURCE LINE # 390
001B 900000      R     MOV     DPTR,#chHandle
001E E0                MOVX    A,@DPTR
001F FF                MOV     R7,A
0020 75F010            MOV     B,#010H
0023 EF                MOV     A,R7
0024 907010            MOV     DPTR,#07010H
0027 120000      E     LCALL   ?C?OFFXADD
002A E0                MOVX    A,@DPTR
002B FF                MOV     R7,A
002C EF                MOV     A,R7
002D 54F1              ANL     A,#0F1H
002F FF                MOV     R7,A
0030 900000      R     MOV     DPTR,#value
C51 COMPILER V9.51   CYDMAC                                                                11/20/2019 09:16:31 PAGE 27  

0033 EF                MOV     A,R7
0034 F0                MOVX    @DPTR,A
                                           ; SOURCE LINE # 392
0035 900000      R     MOV     DPTR,#priority
0038 E0                MOVX    A,@DPTR
0039 FF                MOV     R7,A
003A EF                MOV     A,R7
003B 5407              ANL     A,#07H
003D FF                MOV     R7,A
003E 7E00              MOV     R6,#00H
0040 EF                MOV     A,R7
0041 25E0              ADD     A,ACC
0043 FF                MOV     R7,A
0044 EE                MOV     A,R6
0045 33                RLC     A
0046 FE                MOV     R6,A
0047 900000      R     MOV     DPTR,#value
004A E0                MOVX    A,@DPTR
004B FE                MOV     R6,A
004C EF                MOV     A,R7
004D 4E                ORL     A,R6
004E FF                MOV     R7,A
004F 900000      R     MOV     DPTR,#chHandle
0052 E0                MOVX    A,@DPTR
0053 FE                MOV     R6,A
0054 75F010            MOV     B,#010H
0057 EE                MOV     A,R6
0058 907010            MOV     DPTR,#07010H
005B 120000      E     LCALL   ?C?OFFXADD
005E EF                MOV     A,R7
005F F0                MOVX    @DPTR,A
                                           ; SOURCE LINE # 394
0060 900000      R     MOV     DPTR,#status
0063 E4                CLR     A
0064 F0                MOVX    @DPTR,A
                                           ; SOURCE LINE # 395
0065         ?C0024:
                                           ; SOURCE LINE # 397
0065 900000      R     MOV     DPTR,#status
0068 E0                MOVX    A,@DPTR
0069 FF                MOV     R7,A
                                           ; SOURCE LINE # 398
006A         ?C0025:
006A 22                RET     
             ; FUNCTION _CyDmaChPriority (END)

             ; FUNCTION _CyDmaChSetExtendedAddress (BEGIN)
                                           ; SOURCE LINE # 419
0000 900000      R     MOV     DPTR,#chHandle
0003 EF                MOV     A,R7
0004 F0                MOVX    @DPTR,A
0005 900000      R     MOV     DPTR,#source
0008 EC                MOV     A,R4
0009 F0                MOVX    @DPTR,A
000A A3                INC     DPTR
000B ED                MOV     A,R5
000C F0                MOVX    @DPTR,A
000D 900000      R     MOV     DPTR,#destination
0010 EA                MOV     A,R2
0011 F0                MOVX    @DPTR,A
0012 A3                INC     DPTR
0013 EB                MOV     A,R3
C51 COMPILER V9.51   CYDMAC                                                                11/20/2019 09:16:31 PAGE 28  

0014 F0                MOVX    @DPTR,A
                                           ; SOURCE LINE # 421
                                           ; SOURCE LINE # 422
0015 900000      R     MOV     DPTR,#status
0018 7401              MOV     A,#01H
001A F0                MOVX    @DPTR,A
                                           ; SOURCE LINE # 441
001B 900000      R     MOV     DPTR,#chHandle
001E E0                MOVX    A,@DPTR
001F FF                MOV     R7,A
0020 EF                MOV     A,R7
0021 C3                CLR     C
0022 9418              SUBB    A,#018H
0024 5073              JNC     ?C0026
                                           ; SOURCE LINE # 442
                                           ; SOURCE LINE # 444
0026 900000      R     MOV     DPTR,#chHandle
0029 E0                MOVX    A,@DPTR
002A FF                MOV     R7,A
002B 7E08              MOV     R6,#08H
002D EF                MOV     A,R7
002E 8EF0              MOV     B,R6
0030 A4                MUL     AB
0031 FF                MOV     R7,A
0032 AEF0              MOV     R6,B
0034 EF                MOV     A,R7
0035 2404              ADD     A,#04H
0037 FF                MOV     R7,A
0038 EE                MOV     A,R6
0039 3476              ADDC    A,#076H
003B FE                MOV     R6,A
003C 900000      R     MOV     DPTR,#convert
003F EE                MOV     A,R6
0040 F0                MOVX    @DPTR,A
0041 A3                INC     DPTR
0042 EF                MOV     A,R7
0043 F0                MOVX    @DPTR,A
                                           ; SOURCE LINE # 445
0044 900000      R     MOV     DPTR,#convert
0047 E0                MOVX    A,@DPTR
0048 FE                MOV     R6,A
0049 A3                INC     DPTR
004A E0                MOVX    A,@DPTR
004B FF                MOV     R7,A
004C AA06              MOV     R2,AR6
004E A907              MOV     R1,AR7
0050 7B01              MOV     R3,#01H
0052 900000      R     MOV     DPTR,#source
0055 E0                MOVX    A,@DPTR
0056 FC                MOV     R4,A
0057 A3                INC     DPTR
0058 E0                MOVX    A,@DPTR
0059 FD                MOV     R5,A
005A 120000      E     LCALL   _cywrite16_nodpx
                                           ; SOURCE LINE # 448
005D 900000      R     MOV     DPTR,#chHandle
0060 E0                MOVX    A,@DPTR
0061 FF                MOV     R7,A
0062 7E08              MOV     R6,#08H
0064 EF                MOV     A,R7
0065 8EF0              MOV     B,R6
0067 A4                MUL     AB
C51 COMPILER V9.51   CYDMAC                                                                11/20/2019 09:16:31 PAGE 29  

0068 FF                MOV     R7,A
0069 AEF0              MOV     R6,B
006B EF                MOV     A,R7
006C 2406              ADD     A,#06H
006E FF                MOV     R7,A
006F EE                MOV     A,R6
0070 3476              ADDC    A,#076H
0072 FE                MOV     R6,A
0073 900000      R     MOV     DPTR,#convert
0076 EE                MOV     A,R6
0077 F0                MOVX    @DPTR,A
0078 A3                INC     DPTR
0079 EF                MOV     A,R7
007A F0                MOVX    @DPTR,A
                                           ; SOURCE LINE # 449
007B 900000      R     MOV     DPTR,#convert
007E E0                MOVX    A,@DPTR
007F FE                MOV     R6,A
0080 A3                INC     DPTR
0081 E0                MOVX    A,@DPTR
0082 FF                MOV     R7,A
0083 AA06              MOV     R2,AR6
0085 A907              MOV     R1,AR7
0087 7B01              MOV     R3,#01H
0089 900000      R     MOV     DPTR,#destination
008C E0                MOVX    A,@DPTR
008D FC                MOV     R4,A
008E A3                INC     DPTR
008F E0                MOVX    A,@DPTR
0090 FD                MOV     R5,A
0091 120000      E     LCALL   _cywrite16_nodpx
                                           ; SOURCE LINE # 450
0094 900000      R     MOV     DPTR,#status
0097 E4                CLR     A
0098 F0                MOVX    @DPTR,A
                                           ; SOURCE LINE # 451
0099         ?C0026:
                                           ; SOURCE LINE # 453
0099 900000      R     MOV     DPTR,#status
009C E0                MOVX    A,@DPTR
009D FF                MOV     R7,A
                                           ; SOURCE LINE # 454
009E         ?C0027:
009E 22                RET     
             ; FUNCTION _CyDmaChSetExtendedAddress (END)

             ; FUNCTION _CyDmaChSetInitialTd (BEGIN)
                                           ; SOURCE LINE # 474
0000 900000      R     MOV     DPTR,#chHandle
0003 EF                MOV     A,R7
0004 F0                MOVX    @DPTR,A
0005 900000      R     MOV     DPTR,#startTd
0008 ED                MOV     A,R5
0009 F0                MOVX    @DPTR,A
                                           ; SOURCE LINE # 475
                                           ; SOURCE LINE # 476
000A 900000      R     MOV     DPTR,#status
000D 7401              MOV     A,#01H
000F F0                MOVX    @DPTR,A
                                           ; SOURCE LINE # 478
0010 900000      R     MOV     DPTR,#chHandle
0013 E0                MOVX    A,@DPTR
C51 COMPILER V9.51   CYDMAC                                                                11/20/2019 09:16:31 PAGE 30  

0014 FF                MOV     R7,A
0015 EF                MOV     A,R7
0016 C3                CLR     C
0017 9418              SUBB    A,#018H
0019 501B              JNC     ?C0028
                                           ; SOURCE LINE # 479
                                           ; SOURCE LINE # 480
001B 900000      R     MOV     DPTR,#startTd
001E E0                MOVX    A,@DPTR
001F FF                MOV     R7,A
0020 900000      R     MOV     DPTR,#chHandle
0023 E0                MOVX    A,@DPTR
0024 FE                MOV     R6,A
0025 75F010            MOV     B,#010H
0028 EE                MOV     A,R6
0029 907019            MOV     DPTR,#07019H
002C 120000      E     LCALL   ?C?OFFXADD
002F EF                MOV     A,R7
0030 F0                MOVX    @DPTR,A
                                           ; SOURCE LINE # 481
0031 900000      R     MOV     DPTR,#status
0034 E4                CLR     A
0035 F0                MOVX    @DPTR,A
                                           ; SOURCE LINE # 482
0036         ?C0028:
                                           ; SOURCE LINE # 484
0036 900000      R     MOV     DPTR,#status
0039 E0                MOVX    A,@DPTR
003A FF                MOV     R7,A
                                           ; SOURCE LINE # 485
003B         ?C0029:
003B 22                RET     
             ; FUNCTION _CyDmaChSetInitialTd (END)

             ; FUNCTION _CyDmaChSetRequest (BEGIN)
                                           ; SOURCE LINE # 508
0000 900000      R     MOV     DPTR,#chHandle
0003 EF                MOV     A,R7
0004 F0                MOVX    @DPTR,A
0005 900000      R     MOV     DPTR,#request
0008 ED                MOV     A,R5
0009 F0                MOVX    @DPTR,A
                                           ; SOURCE LINE # 509
                                           ; SOURCE LINE # 510
000A 900000      R     MOV     DPTR,#status
000D 7401              MOV     A,#01H
000F F0                MOVX    @DPTR,A
                                           ; SOURCE LINE # 512
0010 900000      R     MOV     DPTR,#chHandle
0013 E0                MOVX    A,@DPTR
0014 FF                MOV     R7,A
0015 EF                MOV     A,R7
0016 C3                CLR     C
0017 9418              SUBB    A,#018H
0019 502C              JNC     ?C0030
                                           ; SOURCE LINE # 513
                                           ; SOURCE LINE # 514
001B 900000      R     MOV     DPTR,#chHandle
001E E0                MOVX    A,@DPTR
001F FF                MOV     R7,A
0020 75F010            MOV     B,#010H
0023 EF                MOV     A,R7
C51 COMPILER V9.51   CYDMAC                                                                11/20/2019 09:16:31 PAGE 31  

0024 907014            MOV     DPTR,#07014H
0027 120000      E     LCALL   ?C?OFFXADD
002A C083              PUSH    DPH
002C C082              PUSH    DPL
002E E0                MOVX    A,@DPTR
002F FF                MOV     R7,A
0030 900000      R     MOV     DPTR,#request
0033 E0                MOVX    A,@DPTR
0034 FE                MOV     R6,A
0035 EE                MOV     A,R6
0036 5407              ANL     A,#07H
0038 FE                MOV     R6,A
0039 EF                MOV     A,R7
003A 4E                ORL     A,R6
003B FF                MOV     R7,A
003C D082              POP     DPL
003E D083              POP     DPH
0040 EF                MOV     A,R7
0041 F0                MOVX    @DPTR,A
                                           ; SOURCE LINE # 515
0042 900000      R     MOV     DPTR,#status
0045 E4                CLR     A
0046 F0                MOVX    @DPTR,A
                                           ; SOURCE LINE # 516
0047         ?C0030:
                                           ; SOURCE LINE # 518
0047 900000      R     MOV     DPTR,#status
004A E0                MOVX    A,@DPTR
004B FF                MOV     R7,A
                                           ; SOURCE LINE # 519
004C         ?C0031:
004C 22                RET     
             ; FUNCTION _CyDmaChSetRequest (END)

             ; FUNCTION _CyDmaChGetRequest (BEGIN)
                                           ; SOURCE LINE # 538
0000 900000      R     MOV     DPTR,#chHandle
0003 EF                MOV     A,R7
0004 F0                MOVX    @DPTR,A
                                           ; SOURCE LINE # 539
                                           ; SOURCE LINE # 540
0005 900000      R     MOV     DPTR,#status
0008 74FF              MOV     A,#0FFH
000A F0                MOVX    @DPTR,A
                                           ; SOURCE LINE # 542
000B 900000      R     MOV     DPTR,#chHandle
000E E0                MOVX    A,@DPTR
000F FF                MOV     R7,A
0010 EF                MOV     A,R7
0011 C3                CLR     C
0012 9418              SUBB    A,#018H
0014 502A              JNC     ?C0032
                                           ; SOURCE LINE # 543
                                           ; SOURCE LINE # 545
0016 900000      R     MOV     DPTR,#chHandle
0019 E0                MOVX    A,@DPTR
001A FF                MOV     R7,A
001B 75F010            MOV     B,#010H
001E EF                MOV     A,R7
001F 907014            MOV     DPTR,#07014H
0022 120000      E     LCALL   ?C?OFFXADD
0025 E0                MOVX    A,@DPTR
C51 COMPILER V9.51   CYDMAC                                                                11/20/2019 09:16:31 PAGE 32  

0026 FF                MOV     R7,A
0027 E4                CLR     A
0028 FC                MOV     R4,A
0029 FD                MOV     R5,A
002A FE                MOV     R6,A
002B EF                MOV     A,R7
002C 5407              ANL     A,#07H
002E FF                MOV     R7,A
002F EE                MOV     A,R6
0030 5400              ANL     A,#00H
0032 FE                MOV     R6,A
0033 ED                MOV     A,R5
0034 5400              ANL     A,#00H
0036 FD                MOV     R5,A
0037 EC                MOV     A,R4
0038 5400              ANL     A,#00H
003A FC                MOV     R4,A
003B 900000      R     MOV     DPTR,#status
003E EF                MOV     A,R7
003F F0                MOVX    @DPTR,A
                                           ; SOURCE LINE # 546
0040         ?C0032:
                                           ; SOURCE LINE # 548
0040 900000      R     MOV     DPTR,#status
0043 E0                MOVX    A,@DPTR
0044 FF                MOV     R7,A
                                           ; SOURCE LINE # 549
0045         ?C0033:
0045 22                RET     
             ; FUNCTION _CyDmaChGetRequest (END)

             ; FUNCTION _CyDmaChStatus (BEGIN)
                                           ; SOURCE LINE # 583
0000 900000      R     MOV     DPTR,#chHandle
0003 EF                MOV     A,R7
0004 F0                MOVX    @DPTR,A
0005 900000      R     MOV     DPTR,#currentTd
0008 120000      E     LCALL   ?C?PSTXDATA
                                           ; SOURCE LINE # 584
                                           ; SOURCE LINE # 585
000B 900000      R     MOV     DPTR,#status
000E 7401              MOV     A,#01H
0010 F0                MOVX    @DPTR,A
                                           ; SOURCE LINE # 587
0011 900000      R     MOV     DPTR,#chHandle
0014 E0                MOVX    A,@DPTR
0015 FF                MOV     R7,A
0016 EF                MOV     A,R7
0017 C3                CLR     C
0018 9418              SUBB    A,#018H
001A 4003              JC      $ + 5H
001C 020000      R     LJMP    ?C0034
                                           ; SOURCE LINE # 588
                                           ; SOURCE LINE # 589
001F 7B00              MOV     R3,#00H
0021 7A00              MOV     R2,#00H
0023 7900              MOV     R1,#00H
0025 C003              PUSH    AR3
0027 C002              PUSH    AR2
0029 C001              PUSH    AR1
002B 900000      R     MOV     DPTR,#currentTd
002E 120000      E     LCALL   ?C?PLDXDATA
C51 COMPILER V9.51   CYDMAC                                                                11/20/2019 09:16:31 PAGE 33  

0031 D082              POP     DPL
0033 D083              POP     DPH
0035 D0E0              POP     ACC
0037 6B                XRL     A,R3
0038 7008              JNZ     ?C0062
003A E9                MOV     A,R1
003B 6582              XRL     A,DPL
003D 7003              JNZ     ?C0062
003F EA                MOV     A,R2
0040 6583              XRL     A,DPH
0042         ?C0062:
0042 601F              JZ      ?C0035
                                           ; SOURCE LINE # 590
                                           ; SOURCE LINE # 591
0044 900000      R     MOV     DPTR,#chHandle
0047 E0                MOVX    A,@DPTR
0048 FF                MOV     R7,A
0049 75F010            MOV     B,#010H
004C EF                MOV     A,R7
004D 907019            MOV     DPTR,#07019H
0050 120000      E     LCALL   ?C?OFFXADD
0053 E0                MOVX    A,@DPTR
0054 FF                MOV     R7,A
0055 EF                MOV     A,R7
0056 547F              ANL     A,#07FH
0058 FF                MOV     R7,A
0059 900000      R     MOV     DPTR,#currentTd
005C 120000      E     LCALL   ?C?PLDXDATA
005F EF                MOV     A,R7
0060 120000      E     LCALL   ?C?CSTPTR
                                           ; SOURCE LINE # 592
0063         ?C0035:
                                           ; SOURCE LINE # 594
0063 7B00              MOV     R3,#00H
0065 7A00              MOV     R2,#00H
0067 7900              MOV     R1,#00H
0069 C003              PUSH    AR3
006B C002              PUSH    AR2
006D C001              PUSH    AR1
006F 900000      R     MOV     DPTR,#state
0072 120000      E     LCALL   ?C?PLDXDATA
0075 D082              POP     DPL
0077 D083              POP     DPH
0079 D0E0              POP     ACC
007B 6B                XRL     A,R3
007C 7008              JNZ     ?C0063
007E E9                MOV     A,R1
007F 6582              XRL     A,DPL
0081 7003              JNZ     ?C0063
0083 EA                MOV     A,R2
0084 6583              XRL     A,DPH
0086         ?C0063:
0086 601B              JZ      ?C0036
                                           ; SOURCE LINE # 595
                                           ; SOURCE LINE # 596
0088 900000      R     MOV     DPTR,#chHandle
008B E0                MOVX    A,@DPTR
008C FF                MOV     R7,A
008D 75F010            MOV     B,#010H
0090 EF                MOV     A,R7
0091 907018            MOV     DPTR,#07018H
0094 120000      E     LCALL   ?C?OFFXADD
C51 COMPILER V9.51   CYDMAC                                                                11/20/2019 09:16:31 PAGE 34  

0097 E0                MOVX    A,@DPTR
0098 FF                MOV     R7,A
0099 900000      R     MOV     DPTR,#state
009C 120000      E     LCALL   ?C?PLDXDATA
009F EF                MOV     A,R7
00A0 120000      E     LCALL   ?C?CSTPTR
                                           ; SOURCE LINE # 597
00A3         ?C0036:
                                           ; SOURCE LINE # 599
00A3 900000      R     MOV     DPTR,#status
00A6 E4                CLR     A
00A7 F0                MOVX    @DPTR,A
                                           ; SOURCE LINE # 600
00A8         ?C0034:
                                           ; SOURCE LINE # 602
00A8 900000      R     MOV     DPTR,#status
00AB E0                MOVX    A,@DPTR
00AC FF                MOV     R7,A
                                           ; SOURCE LINE # 603
00AD         ?C0037:
00AD 22                RET     
             ; FUNCTION _CyDmaChStatus (END)

             ; FUNCTION _CyDmaChSetConfiguration (BEGIN)
                                           ; SOURCE LINE # 647
0000 900000      R     MOV     DPTR,#chHandle
0003 EF                MOV     A,R7
0004 F0                MOVX    @DPTR,A
0005 900000      R     MOV     DPTR,#burstCount
0008 ED                MOV     A,R5
0009 F0                MOVX    @DPTR,A
000A 900000      R     MOV     DPTR,#requestPerBurst
000D EB                MOV     A,R3
000E F0                MOVX    @DPTR,A
                                           ; SOURCE LINE # 649
                                           ; SOURCE LINE # 650
000F 900000      R     MOV     DPTR,#status
0012 7401              MOV     A,#01H
0014 F0                MOVX    @DPTR,A
                                           ; SOURCE LINE # 652
0015 900000      R     MOV     DPTR,#chHandle
0018 E0                MOVX    A,@DPTR
0019 FF                MOV     R7,A
001A EF                MOV     A,R7
001B C3                CLR     C
001C 9418              SUBB    A,#018H
001E 4003              JC      $ + 5H
0020 020000      R     LJMP    ?C0038
                                           ; SOURCE LINE # 653
                                           ; SOURCE LINE # 654
0023 900000      R     MOV     DPTR,#requestPerBurst
0026 E0                MOVX    A,@DPTR
0027 FF                MOV     R7,A
0028 EF                MOV     A,R7
0029 5401              ANL     A,#01H
002B FF                MOV     R7,A
002C 7E00              MOV     R6,#00H
002E EF                MOV     A,R7
002F 75F080            MOV     B,#080H
0032 A4                MUL     AB
0033 FF                MOV     R7,A
0034 AEF0              MOV     R6,B
C51 COMPILER V9.51   CYDMAC                                                                11/20/2019 09:16:31 PAGE 35  

0036 900000      R     MOV     DPTR,#burstCount
0039 E0                MOVX    A,@DPTR
003A FE                MOV     R6,A
003B EE                MOV     A,R6
003C 547F              ANL     A,#07FH
003E FE                MOV     R6,A
003F EE                MOV     A,R6
0040 4F                ORL     A,R7
0041 FF                MOV     R7,A
0042 900000      R     MOV     DPTR,#chHandle
0045 E0                MOVX    A,@DPTR
0046 FE                MOV     R6,A
0047 75F008            MOV     B,#08H
004A EE                MOV     A,R6
004B 907600            MOV     DPTR,#07600H
004E 120000      E     LCALL   ?C?OFFXADD
0051 EF                MOV     A,R7
0052 F0                MOVX    @DPTR,A
                                           ; SOURCE LINE # 655
0053 900000      R     MOV     DPTR,#tdDone1
0056 E0                MOVX    A,@DPTR
0057 FF                MOV     R7,A
0058 EF                MOV     A,R7
0059 540F              ANL     A,#0FH
005B FF                MOV     R7,A
005C 7E00              MOV     R6,#00H
005E EF                MOV     A,R7
005F 75F010            MOV     B,#010H
0062 A4                MUL     AB
0063 FF                MOV     R7,A
0064 AEF0              MOV     R6,B
0066 900000      R     MOV     DPTR,#tdDone0
0069 E0                MOVX    A,@DPTR
006A FE                MOV     R6,A
006B EE                MOV     A,R6
006C 540F              ANL     A,#0FH
006E FE                MOV     R6,A
006F EE                MOV     A,R6
0070 4F                ORL     A,R7
0071 FF                MOV     R7,A
0072 900000      R     MOV     DPTR,#chHandle
0075 E0                MOVX    A,@DPTR
0076 FE                MOV     R6,A
0077 75F008            MOV     B,#08H
007A EE                MOV     A,R6
007B 907601            MOV     DPTR,#07601H
007E 120000      E     LCALL   ?C?OFFXADD
0081 EF                MOV     A,R7
0082 F0                MOVX    @DPTR,A
                                           ; SOURCE LINE # 656
0083 900000      R     MOV     DPTR,#tdStop
0086 E0                MOVX    A,@DPTR
0087 FF                MOV     R7,A
0088 EF                MOV     A,R7
0089 540F              ANL     A,#0FH
008B FF                MOV     R7,A
008C 900000      R     MOV     DPTR,#chHandle
008F E0                MOVX    A,@DPTR
0090 FE                MOV     R6,A
0091 75F008            MOV     B,#08H
0094 EE                MOV     A,R6
0095 907602            MOV     DPTR,#07602H
C51 COMPILER V9.51   CYDMAC                                                                11/20/2019 09:16:31 PAGE 36  

0098 120000      E     LCALL   ?C?OFFXADD
009B EF                MOV     A,R7
009C F0                MOVX    @DPTR,A
                                           ; SOURCE LINE # 657
009D 900000      R     MOV     DPTR,#chHandle
00A0 E0                MOVX    A,@DPTR
00A1 FF                MOV     R7,A
00A2 75F008            MOV     B,#08H
00A5 EF                MOV     A,R7
00A6 907603            MOV     DPTR,#07603H
00A9 120000      E     LCALL   ?C?OFFXADD
00AC E4                CLR     A
00AD F0                MOVX    @DPTR,A
                                           ; SOURCE LINE # 659
00AE 900000      R     MOV     DPTR,#status
00B1 E4                CLR     A
00B2 F0                MOVX    @DPTR,A
                                           ; SOURCE LINE # 660
00B3         ?C0038:
                                           ; SOURCE LINE # 662
00B3 900000      R     MOV     DPTR,#status
00B6 E0                MOVX    A,@DPTR
00B7 FF                MOV     R7,A
                                           ; SOURCE LINE # 663
00B8         ?C0039:
00B8 22                RET     
             ; FUNCTION _CyDmaChSetConfiguration (END)

             ; FUNCTION CyDmaTdAllocate (BEGIN)
                                           ; SOURCE LINE # 679
                                           ; SOURCE LINE # 680
                                           ; SOURCE LINE # 682
0000 900000      R     MOV     DPTR,#element
0003 74FF              MOV     A,#0FFH
0005 F0                MOVX    @DPTR,A
                                           ; SOURCE LINE # 685
0006 120000      E     LCALL   CyEnterCriticalSection
0009 900000      R     MOV     DPTR,#interruptState
000C EF                MOV     A,R7
000D F0                MOVX    @DPTR,A
                                           ; SOURCE LINE # 687
000E 900000      R     MOV     DPTR,#CyDmaTdCurrentNumber
0011 E0                MOVX    A,@DPTR
0012 FF                MOV     R7,A
0013 EF                MOV     A,R7
0014 D3                SETB    C
0015 9418              SUBB    A,#018H
0017 4026              JC      ?C0040
                                           ; SOURCE LINE # 688
                                           ; SOURCE LINE # 690
0019 900000      R     MOV     DPTR,#CyDmaTdFreeIndex
001C E0                MOVX    A,@DPTR
001D FF                MOV     R7,A
001E 900000      R     MOV     DPTR,#element
0021 EF                MOV     A,R7
0022 F0                MOVX    @DPTR,A
                                           ; SOURCE LINE # 693
0023 900000      R     MOV     DPTR,#CyDmaTdCurrentNumber
0026 E0                MOVX    A,@DPTR
0027 14                DEC     A
0028 F0                MOVX    @DPTR,A
                                           ; SOURCE LINE # 696
C51 COMPILER V9.51   CYDMAC                                                                11/20/2019 09:16:31 PAGE 37  

0029 900000      R     MOV     DPTR,#element
002C E0                MOVX    A,@DPTR
002D FF                MOV     R7,A
002E 75F008            MOV     B,#08H
0031 EF                MOV     A,R7
0032 907800            MOV     DPTR,#07800H
0035 120000      E     LCALL   ?C?OFFXADD
0038 E0                MOVX    A,@DPTR
0039 FF                MOV     R7,A
003A 900000      R     MOV     DPTR,#CyDmaTdFreeIndex
003D EF                MOV     A,R7
003E F0                MOVX    @DPTR,A
                                           ; SOURCE LINE # 697
003F         ?C0040:
                                           ; SOURCE LINE # 700
003F 900000      R     MOV     DPTR,#interruptState
0042 E0                MOVX    A,@DPTR
0043 FF                MOV     R7,A
0044 120000      E     LCALL   _CyExitCriticalSection
                                           ; SOURCE LINE # 702
0047 900000      R     MOV     DPTR,#element
004A E0                MOVX    A,@DPTR
004B FF                MOV     R7,A
                                           ; SOURCE LINE # 703
004C         ?C0041:
004C 22                RET     
             ; FUNCTION CyDmaTdAllocate (END)

             ; FUNCTION _CyDmaTdFree (BEGIN)
                                           ; SOURCE LINE # 716
0000 900000      R     MOV     DPTR,#tdHandle
0003 EF                MOV     A,R7
0004 F0                MOVX    @DPTR,A
                                           ; SOURCE LINE # 717
                                           ; SOURCE LINE # 718
0005 900000      R     MOV     DPTR,#tdHandle
0008 E0                MOVX    A,@DPTR
0009 FF                MOV     R7,A
000A EF                MOV     A,R7
000B C3                CLR     C
000C 9480              SUBB    A,#080H
000E 5036              JNC     ?C0043
                                           ; SOURCE LINE # 719
                                           ; SOURCE LINE # 721
0010 120000      E     LCALL   CyEnterCriticalSection
0013 900000      R     MOV     DPTR,#interruptState
0016 EF                MOV     A,R7
0017 F0                MOVX    @DPTR,A
                                           ; SOURCE LINE # 724
0018 900000      R     MOV     DPTR,#CyDmaTdFreeIndex
001B E0                MOVX    A,@DPTR
001C FF                MOV     R7,A
001D 900000      R     MOV     DPTR,#tdHandle
0020 E0                MOVX    A,@DPTR
0021 FE                MOV     R6,A
0022 75F008            MOV     B,#08H
0025 EE                MOV     A,R6
0026 907800            MOV     DPTR,#07800H
0029 120000      E     LCALL   ?C?OFFXADD
002C EF                MOV     A,R7
002D F0                MOVX    @DPTR,A
                                           ; SOURCE LINE # 727
C51 COMPILER V9.51   CYDMAC                                                                11/20/2019 09:16:31 PAGE 38  

002E 900000      R     MOV     DPTR,#tdHandle
0031 E0                MOVX    A,@DPTR
0032 FF                MOV     R7,A
0033 900000      R     MOV     DPTR,#CyDmaTdFreeIndex
0036 EF                MOV     A,R7
0037 F0                MOVX    @DPTR,A
                                           ; SOURCE LINE # 730
0038 900000      R     MOV     DPTR,#CyDmaTdCurrentNumber
003B E0                MOVX    A,@DPTR
003C 04                INC     A
003D F0                MOVX    @DPTR,A
                                           ; SOURCE LINE # 733
003E 900000      R     MOV     DPTR,#interruptState
0041 E0                MOVX    A,@DPTR
0042 FF                MOV     R7,A
0043 120000      E     LCALL   _CyExitCriticalSection
                                           ; SOURCE LINE # 734
                                           ; SOURCE LINE # 735
0046         ?C0043:
0046 22                RET     
             ; FUNCTION _CyDmaTdFree (END)

             ; FUNCTION CyDmaTdFreeCount (BEGIN)
                                           ; SOURCE LINE # 748
                                           ; SOURCE LINE # 749
                                           ; SOURCE LINE # 750
0000 900000      R     MOV     DPTR,#CyDmaTdCurrentNumber
0003 E0                MOVX    A,@DPTR
0004 FF                MOV     R7,A
0005 C3                CLR     C
0006 EF                MOV     A,R7
0007 9418              SUBB    A,#018H
0009 FF                MOV     R7,A
                                           ; SOURCE LINE # 751
000A         ?C0044:
000A 22                RET     
             ; FUNCTION CyDmaTdFreeCount (END)

             ; FUNCTION _CyDmaTdSetConfiguration (BEGIN)
                                           ; SOURCE LINE # 807
0000 900000      R     MOV     DPTR,#tdHandle
0003 EF                MOV     A,R7
0004 F0                MOVX    @DPTR,A
0005 900000      R     MOV     DPTR,#transferCount
0008 EC                MOV     A,R4
0009 F0                MOVX    @DPTR,A
000A A3                INC     DPTR
000B ED                MOV     A,R5
000C F0                MOVX    @DPTR,A
000D 900000      R     MOV     DPTR,#nextTd
0010 EB                MOV     A,R3
0011 F0                MOVX    @DPTR,A
                                           ; SOURCE LINE # 809
                                           ; SOURCE LINE # 810
0012 900000      R     MOV     DPTR,#status
0015 7401              MOV     A,#01H
0017 F0                MOVX    @DPTR,A
                                           ; SOURCE LINE # 812
0018 900000      R     MOV     DPTR,#tdHandle
001B E0                MOVX    A,@DPTR
001C FF                MOV     R7,A
001D EF                MOV     A,R7
C51 COMPILER V9.51   CYDMAC                                                                11/20/2019 09:16:31 PAGE 39  

001E C3                CLR     C
001F 9480              SUBB    A,#080H
0021 507A              JNC     ?C0045
0023 900000      R     MOV     DPTR,#transferCount
0026 E0                MOVX    A,@DPTR
0027 FE                MOV     R6,A
0028 A3                INC     DPTR
0029 E0                MOVX    A,@DPTR
002A FF                MOV     R7,A
002B EE                MOV     A,R6
002C 54F0              ANL     A,#0F0H
002E FE                MOV     R6,A
002F 7F00              MOV     R7,#00H
0031 EF                MOV     A,R7
0032 4E                ORL     A,R6
0033 7068              JNZ     ?C0045
                                           ; SOURCE LINE # 813
                                           ; SOURCE LINE # 815
0035 900000      R     MOV     DPTR,#tdHandle
0038 E0                MOVX    A,@DPTR
0039 FF                MOV     R7,A
003A 7E08              MOV     R6,#08H
003C EF                MOV     A,R7
003D 8EF0              MOV     B,R6
003F A4                MUL     AB
0040 FF                MOV     R7,A
0041 AEF0              MOV     R6,B
0043 EF                MOV     A,R7
0044 2400              ADD     A,#00H
0046 FF                MOV     R7,A
0047 EE                MOV     A,R6
0048 3478              ADDC    A,#078H
004A FE                MOV     R6,A
004B 900000      R     MOV     DPTR,#convert
004E EE                MOV     A,R6
004F F0                MOVX    @DPTR,A
0050 A3                INC     DPTR
0051 EF                MOV     A,R7
0052 F0                MOVX    @DPTR,A
                                           ; SOURCE LINE # 816
0053 900000      R     MOV     DPTR,#convert
0056 E0                MOVX    A,@DPTR
0057 FE                MOV     R6,A
0058 A3                INC     DPTR
0059 E0                MOVX    A,@DPTR
005A FF                MOV     R7,A
005B AA06              MOV     R2,AR6
005D A907              MOV     R1,AR7
005F 7B01              MOV     R3,#01H
0061 900000      R     MOV     DPTR,#transferCount
0064 E0                MOVX    A,@DPTR
0065 FC                MOV     R4,A
0066 A3                INC     DPTR
0067 E0                MOVX    A,@DPTR
0068 FD                MOV     R5,A
0069 120000      E     LCALL   _cywrite16_nodpx
                                           ; SOURCE LINE # 819
006C 900000      R     MOV     DPTR,#nextTd
006F E0                MOVX    A,@DPTR
0070 FF                MOV     R7,A
0071 900000      R     MOV     DPTR,#tdHandle
0074 E0                MOVX    A,@DPTR
C51 COMPILER V9.51   CYDMAC                                                                11/20/2019 09:16:31 PAGE 40  

0075 FE                MOV     R6,A
0076 75F008            MOV     B,#08H
0079 EE                MOV     A,R6
007A 907802            MOV     DPTR,#07802H
007D 120000      E     LCALL   ?C?OFFXADD
0080 EF                MOV     A,R7
0081 F0                MOVX    @DPTR,A
                                           ; SOURCE LINE # 822
0082 900000      R     MOV     DPTR,#configuration
0085 E0                MOVX    A,@DPTR
0086 FF                MOV     R7,A
0087 900000      R     MOV     DPTR,#tdHandle
008A E0                MOVX    A,@DPTR
008B FE                MOV     R6,A
008C 75F008            MOV     B,#08H
008F EE                MOV     A,R6
0090 907803            MOV     DPTR,#07803H
0093 120000      E     LCALL   ?C?OFFXADD
0096 EF                MOV     A,R7
0097 F0                MOVX    @DPTR,A
                                           ; SOURCE LINE # 824
0098 900000      R     MOV     DPTR,#status
009B E4                CLR     A
009C F0                MOVX    @DPTR,A
                                           ; SOURCE LINE # 825
009D         ?C0045:
                                           ; SOURCE LINE # 827
009D 900000      R     MOV     DPTR,#status
00A0 E0                MOVX    A,@DPTR
00A1 FF                MOV     R7,A
                                           ; SOURCE LINE # 828
00A2         ?C0046:
00A2 22                RET     
             ; FUNCTION _CyDmaTdSetConfiguration (END)

             ; FUNCTION _CyDmaTdGetConfiguration (BEGIN)
                                           ; SOURCE LINE # 865
0000 900000      R     MOV     DPTR,#tdHandle
0003 EF                MOV     A,R7
0004 F0                MOVX    @DPTR,A
0005 900000      R     MOV     DPTR,#transferCount
0008 120000      E     LCALL   ?C?PSTXDATA
                                           ; SOURCE LINE # 867
                                           ; SOURCE LINE # 868
000B 900000      R     MOV     DPTR,#status
000E 7401              MOV     A,#01H
0010 F0                MOVX    @DPTR,A
                                           ; SOURCE LINE # 870
0011 900000      R     MOV     DPTR,#tdHandle
0014 E0                MOVX    A,@DPTR
0015 FF                MOV     R7,A
0016 EF                MOV     A,R7
0017 C3                CLR     C
0018 9480              SUBB    A,#080H
001A 4003              JC      $ + 5H
001C 020000      R     LJMP    ?C0047
                                           ; SOURCE LINE # 871
                                           ; SOURCE LINE # 873
001F 7B00              MOV     R3,#00H
0021 7A00              MOV     R2,#00H
0023 7900              MOV     R1,#00H
0025 C003              PUSH    AR3
C51 COMPILER V9.51   CYDMAC                                                                11/20/2019 09:16:31 PAGE 41  

0027 C002              PUSH    AR2
0029 C001              PUSH    AR1
002B 900000      R     MOV     DPTR,#transferCount
002E 120000      E     LCALL   ?C?PLDXDATA
0031 D082              POP     DPL
0033 D083              POP     DPH
0035 D0E0              POP     ACC
0037 6B                XRL     A,R3
0038 7008              JNZ     ?C0064
003A E9                MOV     A,R1
003B 6582              XRL     A,DPL
003D 7003              JNZ     ?C0064
003F EA                MOV     A,R2
0040 6583              XRL     A,DPH
0042         ?C0064:
0042 603F              JZ      ?C0048
                                           ; SOURCE LINE # 874
                                           ; SOURCE LINE # 876
0044 900000      R     MOV     DPTR,#tdHandle
0047 E0                MOVX    A,@DPTR
0048 FF                MOV     R7,A
0049 7E08              MOV     R6,#08H
004B EF                MOV     A,R7
004C 8EF0              MOV     B,R6
004E A4                MUL     AB
004F FF                MOV     R7,A
0050 AEF0              MOV     R6,B
0052 EF                MOV     A,R7
0053 2400              ADD     A,#00H
0055 FF                MOV     R7,A
0056 EE                MOV     A,R6
0057 3478              ADDC    A,#078H
0059 FE                MOV     R6,A
005A 900000      R     MOV     DPTR,#convert
005D EE                MOV     A,R6
005E F0                MOVX    @DPTR,A
005F A3                INC     DPTR
0060 EF                MOV     A,R7
0061 F0                MOVX    @DPTR,A
                                           ; SOURCE LINE # 877
0062 900000      R     MOV     DPTR,#convert
0065 E0                MOVX    A,@DPTR
0066 FE                MOV     R6,A
0067 A3                INC     DPTR
0068 E0                MOVX    A,@DPTR
0069 FF                MOV     R7,A
006A AA06              MOV     R2,AR6
006C A907              MOV     R1,AR7
006E 7B01              MOV     R3,#01H
0070 120000      E     LCALL   _cyread16_nodpx
0073 EE                MOV     A,R6
0074 540F              ANL     A,#0FH
0076 FE                MOV     R6,A
0077 900000      R     MOV     DPTR,#transferCount
007A 120000      E     LCALL   ?C?PLDXDATA
007D EE                MOV     A,R6
007E 8FF0              MOV     B,R7
0080 120000      E     LCALL   ?C?ISTPTR
                                           ; SOURCE LINE # 878
0083         ?C0048:
                                           ; SOURCE LINE # 881
0083 7B00              MOV     R3,#00H
C51 COMPILER V9.51   CYDMAC                                                                11/20/2019 09:16:31 PAGE 42  

0085 7A00              MOV     R2,#00H
0087 7900              MOV     R1,#00H
0089 C003              PUSH    AR3
008B C002              PUSH    AR2
008D C001              PUSH    AR1
008F 900000      R     MOV     DPTR,#nextTd
0092 120000      E     LCALL   ?C?PLDXDATA
0095 D082              POP     DPL
0097 D083              POP     DPH
0099 D0E0              POP     ACC
009B 6B                XRL     A,R3
009C 7008              JNZ     ?C0065
009E E9                MOV     A,R1
009F 6582              XRL     A,DPL
00A1 7003              JNZ     ?C0065
00A3 EA                MOV     A,R2
00A4 6583              XRL     A,DPH
00A6         ?C0065:
00A6 601B              JZ      ?C0049
                                           ; SOURCE LINE # 882
                                           ; SOURCE LINE # 884
00A8 900000      R     MOV     DPTR,#tdHandle
00AB E0                MOVX    A,@DPTR
00AC FF                MOV     R7,A
00AD 75F008            MOV     B,#08H
00B0 EF                MOV     A,R7
00B1 907802            MOV     DPTR,#07802H
00B4 120000      E     LCALL   ?C?OFFXADD
00B7 E0                MOVX    A,@DPTR
00B8 FF                MOV     R7,A
00B9 900000      R     MOV     DPTR,#nextTd
00BC 120000      E     LCALL   ?C?PLDXDATA
00BF EF                MOV     A,R7
00C0 120000      E     LCALL   ?C?CSTPTR
                                           ; SOURCE LINE # 885
00C3         ?C0049:
                                           ; SOURCE LINE # 888
00C3 7B00              MOV     R3,#00H
00C5 7A00              MOV     R2,#00H
00C7 7900              MOV     R1,#00H
00C9 C003              PUSH    AR3
00CB C002              PUSH    AR2
00CD C001              PUSH    AR1
00CF 900000      R     MOV     DPTR,#configuration
00D2 120000      E     LCALL   ?C?PLDXDATA
00D5 D082              POP     DPL
00D7 D083              POP     DPH
00D9 D0E0              POP     ACC
00DB 6B                XRL     A,R3
00DC 7008              JNZ     ?C0066
00DE E9                MOV     A,R1
00DF 6582              XRL     A,DPL
00E1 7003              JNZ     ?C0066
00E3 EA                MOV     A,R2
00E4 6583              XRL     A,DPH
00E6         ?C0066:
00E6 601B              JZ      ?C0050
                                           ; SOURCE LINE # 889
                                           ; SOURCE LINE # 891
00E8 900000      R     MOV     DPTR,#tdHandle
00EB E0                MOVX    A,@DPTR
00EC FF                MOV     R7,A
C51 COMPILER V9.51   CYDMAC                                                                11/20/2019 09:16:31 PAGE 43  

00ED 75F008            MOV     B,#08H
00F0 EF                MOV     A,R7
00F1 907803            MOV     DPTR,#07803H
00F4 120000      E     LCALL   ?C?OFFXADD
00F7 E0                MOVX    A,@DPTR
00F8 FF                MOV     R7,A
00F9 900000      R     MOV     DPTR,#configuration
00FC 120000      E     LCALL   ?C?PLDXDATA
00FF EF                MOV     A,R7
0100 120000      E     LCALL   ?C?CSTPTR
                                           ; SOURCE LINE # 892
0103         ?C0050:
                                           ; SOURCE LINE # 894
0103 900000      R     MOV     DPTR,#status
0106 E4                CLR     A
0107 F0                MOVX    @DPTR,A
                                           ; SOURCE LINE # 895
0108         ?C0047:
                                           ; SOURCE LINE # 897
0108 900000      R     MOV     DPTR,#status
010B E0                MOVX    A,@DPTR
010C FF                MOV     R7,A
                                           ; SOURCE LINE # 898
010D         ?C0051:
010D 22                RET     
             ; FUNCTION _CyDmaTdGetConfiguration (END)

             ; FUNCTION _CyDmaTdSetAddress (BEGIN)
                                           ; SOURCE LINE # 922
0000 900000      R     MOV     DPTR,#tdHandle
0003 EF                MOV     A,R7
0004 F0                MOVX    @DPTR,A
0005 900000      R     MOV     DPTR,#source
0008 EC                MOV     A,R4
0009 F0                MOVX    @DPTR,A
000A A3                INC     DPTR
000B ED                MOV     A,R5
000C F0                MOVX    @DPTR,A
000D 900000      R     MOV     DPTR,#destination
0010 EA                MOV     A,R2
0011 F0                MOVX    @DPTR,A
0012 A3                INC     DPTR
0013 EB                MOV     A,R3
0014 F0                MOVX    @DPTR,A
                                           ; SOURCE LINE # 923
                                           ; SOURCE LINE # 924
0015 900000      R     MOV     DPTR,#status
0018 7401              MOV     A,#01H
001A F0                MOVX    @DPTR,A
                                           ; SOURCE LINE # 927
001B 900000      R     MOV     DPTR,#tdHandle
001E E0                MOVX    A,@DPTR
001F FF                MOV     R7,A
0020 EF                MOV     A,R7
0021 C3                CLR     C
0022 9480              SUBB    A,#080H
0024 5073              JNC     ?C0052
                                           ; SOURCE LINE # 928
                                           ; SOURCE LINE # 930
0026 900000      R     MOV     DPTR,#tdHandle
0029 E0                MOVX    A,@DPTR
002A FF                MOV     R7,A
C51 COMPILER V9.51   CYDMAC                                                                11/20/2019 09:16:31 PAGE 44  

002B 7E08              MOV     R6,#08H
002D EF                MOV     A,R7
002E 8EF0              MOV     B,R6
0030 A4                MUL     AB
0031 FF                MOV     R7,A
0032 AEF0              MOV     R6,B
0034 EF                MOV     A,R7
0035 2404              ADD     A,#04H
0037 FF                MOV     R7,A
0038 EE                MOV     A,R6
0039 3478              ADDC    A,#078H
003B FE                MOV     R6,A
003C 900000      R     MOV     DPTR,#convert
003F EE                MOV     A,R6
0040 F0                MOVX    @DPTR,A
0041 A3                INC     DPTR
0042 EF                MOV     A,R7
0043 F0                MOVX    @DPTR,A
                                           ; SOURCE LINE # 931
0044 900000      R     MOV     DPTR,#convert
0047 E0                MOVX    A,@DPTR
0048 FE                MOV     R6,A
0049 A3                INC     DPTR
004A E0                MOVX    A,@DPTR
004B FF                MOV     R7,A
004C AA06              MOV     R2,AR6
004E A907              MOV     R1,AR7
0050 7B01              MOV     R3,#01H
0052 900000      R     MOV     DPTR,#source
0055 E0                MOVX    A,@DPTR
0056 FC                MOV     R4,A
0057 A3                INC     DPTR
0058 E0                MOVX    A,@DPTR
0059 FD                MOV     R5,A
005A 120000      E     LCALL   _cywrite16_nodpx
                                           ; SOURCE LINE # 934
005D 900000      R     MOV     DPTR,#tdHandle
0060 E0                MOVX    A,@DPTR
0061 FF                MOV     R7,A
0062 7E08              MOV     R6,#08H
0064 EF                MOV     A,R7
0065 8EF0              MOV     B,R6
0067 A4                MUL     AB
0068 FF                MOV     R7,A
0069 AEF0              MOV     R6,B
006B EF                MOV     A,R7
006C 2406              ADD     A,#06H
006E FF                MOV     R7,A
006F EE                MOV     A,R6
0070 3478              ADDC    A,#078H
0072 FE                MOV     R6,A
0073 900000      R     MOV     DPTR,#convert
0076 EE                MOV     A,R6
0077 F0                MOVX    @DPTR,A
0078 A3                INC     DPTR
0079 EF                MOV     A,R7
007A F0                MOVX    @DPTR,A
                                           ; SOURCE LINE # 935
007B 900000      R     MOV     DPTR,#convert
007E E0                MOVX    A,@DPTR
007F FE                MOV     R6,A
0080 A3                INC     DPTR
C51 COMPILER V9.51   CYDMAC                                                                11/20/2019 09:16:31 PAGE 45  

0081 E0                MOVX    A,@DPTR
0082 FF                MOV     R7,A
0083 AA06              MOV     R2,AR6
0085 A907              MOV     R1,AR7
0087 7B01              MOV     R3,#01H
0089 900000      R     MOV     DPTR,#destination
008C E0                MOVX    A,@DPTR
008D FC                MOV     R4,A
008E A3                INC     DPTR
008F E0                MOVX    A,@DPTR
0090 FD                MOV     R5,A
0091 120000      E     LCALL   _cywrite16_nodpx
                                           ; SOURCE LINE # 937
0094 900000      R     MOV     DPTR,#status
0097 E4                CLR     A
0098 F0                MOVX    @DPTR,A
                                           ; SOURCE LINE # 938
0099         ?C0052:
                                           ; SOURCE LINE # 940
0099 900000      R     MOV     DPTR,#status
009C E0                MOVX    A,@DPTR
009D FF                MOV     R7,A
                                           ; SOURCE LINE # 941
009E         ?C0053:
009E 22                RET     
             ; FUNCTION _CyDmaTdSetAddress (END)

             ; FUNCTION _CyDmaTdGetAddress (BEGIN)
                                           ; SOURCE LINE # 968
0000 900000      R     MOV     DPTR,#tdHandle
0003 EF                MOV     A,R7
0004 F0                MOVX    @DPTR,A
0005 900000      R     MOV     DPTR,#source
0008 120000      E     LCALL   ?C?PSTXDATA
                                           ; SOURCE LINE # 969
                                           ; SOURCE LINE # 970
000B 900000      R     MOV     DPTR,#status
000E 7401              MOV     A,#01H
0010 F0                MOVX    @DPTR,A
                                           ; SOURCE LINE # 973
0011 900000      R     MOV     DPTR,#tdHandle
0014 E0                MOVX    A,@DPTR
0015 FF                MOV     R7,A
0016 EF                MOV     A,R7
0017 C3                CLR     C
0018 9480              SUBB    A,#080H
001A 4003              JC      $ + 5H
001C 020000      R     LJMP    ?C0054
                                           ; SOURCE LINE # 974
                                           ; SOURCE LINE # 976
001F 7B00              MOV     R3,#00H
0021 7A00              MOV     R2,#00H
0023 7900              MOV     R1,#00H
0025 C003              PUSH    AR3
0027 C002              PUSH    AR2
0029 C001              PUSH    AR1
002B 900000      R     MOV     DPTR,#source
002E 120000      E     LCALL   ?C?PLDXDATA
0031 D082              POP     DPL
0033 D083              POP     DPH
0035 D0E0              POP     ACC
0037 6B                XRL     A,R3
C51 COMPILER V9.51   CYDMAC                                                                11/20/2019 09:16:31 PAGE 46  

0038 7008              JNZ     ?C0067
003A E9                MOV     A,R1
003B 6582              XRL     A,DPL
003D 7003              JNZ     ?C0067
003F EA                MOV     A,R2
0040 6583              XRL     A,DPH
0042         ?C0067:
0042 603B              JZ      ?C0055
                                           ; SOURCE LINE # 977
                                           ; SOURCE LINE # 979
0044 900000      R     MOV     DPTR,#tdHandle
0047 E0                MOVX    A,@DPTR
0048 FF                MOV     R7,A
0049 7E08              MOV     R6,#08H
004B EF                MOV     A,R7
004C 8EF0              MOV     B,R6
004E A4                MUL     AB
004F FF                MOV     R7,A
0050 AEF0              MOV     R6,B
0052 EF                MOV     A,R7
0053 2404              ADD     A,#04H
0055 FF                MOV     R7,A
0056 EE                MOV     A,R6
0057 3478              ADDC    A,#078H
0059 FE                MOV     R6,A
005A 900000      R     MOV     DPTR,#convert
005D EE                MOV     A,R6
005E F0                MOVX    @DPTR,A
005F A3                INC     DPTR
0060 EF                MOV     A,R7
0061 F0                MOVX    @DPTR,A
                                           ; SOURCE LINE # 980
0062 900000      R     MOV     DPTR,#convert
0065 E0                MOVX    A,@DPTR
0066 FE                MOV     R6,A
0067 A3                INC     DPTR
0068 E0                MOVX    A,@DPTR
0069 FF                MOV     R7,A
006A AA06              MOV     R2,AR6
006C A907              MOV     R1,AR7
006E 7B01              MOV     R3,#01H
0070 120000      E     LCALL   _cyread16_nodpx
0073 900000      R     MOV     DPTR,#source
0076 120000      E     LCALL   ?C?PLDXDATA
0079 EE                MOV     A,R6
007A 8FF0              MOV     B,R7
007C 120000      E     LCALL   ?C?ISTPTR
                                           ; SOURCE LINE # 981
007F         ?C0055:
                                           ; SOURCE LINE # 984
007F 7B00              MOV     R3,#00H
0081 7A00              MOV     R2,#00H
0083 7900              MOV     R1,#00H
0085 C003              PUSH    AR3
0087 C002              PUSH    AR2
0089 C001              PUSH    AR1
008B 900000      R     MOV     DPTR,#destination
008E 120000      E     LCALL   ?C?PLDXDATA
0091 D082              POP     DPL
0093 D083              POP     DPH
0095 D0E0              POP     ACC
0097 6B                XRL     A,R3
C51 COMPILER V9.51   CYDMAC                                                                11/20/2019 09:16:31 PAGE 47  

0098 7008              JNZ     ?C0068
009A E9                MOV     A,R1
009B 6582              XRL     A,DPL
009D 7003              JNZ     ?C0068
009F EA                MOV     A,R2
00A0 6583              XRL     A,DPH
00A2         ?C0068:
00A2 603B              JZ      ?C0056
                                           ; SOURCE LINE # 985
                                           ; SOURCE LINE # 987
00A4 900000      R     MOV     DPTR,#tdHandle
00A7 E0                MOVX    A,@DPTR
00A8 FF                MOV     R7,A
00A9 7E08              MOV     R6,#08H
00AB EF                MOV     A,R7
00AC 8EF0              MOV     B,R6
00AE A4                MUL     AB
00AF FF                MOV     R7,A
00B0 AEF0              MOV     R6,B
00B2 EF                MOV     A,R7
00B3 2406              ADD     A,#06H
00B5 FF                MOV     R7,A
00B6 EE                MOV     A,R6
00B7 3478              ADDC    A,#078H
00B9 FE                MOV     R6,A
00BA 900000      R     MOV     DPTR,#convert
00BD EE                MOV     A,R6
00BE F0                MOVX    @DPTR,A
00BF A3                INC     DPTR
00C0 EF                MOV     A,R7
00C1 F0                MOVX    @DPTR,A
                                           ; SOURCE LINE # 988
00C2 900000      R     MOV     DPTR,#convert
00C5 E0                MOVX    A,@DPTR
00C6 FE                MOV     R6,A
00C7 A3                INC     DPTR
00C8 E0                MOVX    A,@DPTR
00C9 FF                MOV     R7,A
00CA AA06              MOV     R2,AR6
00CC A907              MOV     R1,AR7
00CE 7B01              MOV     R3,#01H
00D0 120000      E     LCALL   _cyread16_nodpx
00D3 900000      R     MOV     DPTR,#destination
00D6 120000      E     LCALL   ?C?PLDXDATA
00D9 EE                MOV     A,R6
00DA 8FF0              MOV     B,R7
00DC 120000      E     LCALL   ?C?ISTPTR
                                           ; SOURCE LINE # 989
00DF         ?C0056:
                                           ; SOURCE LINE # 991
00DF 900000      R     MOV     DPTR,#status
00E2 E4                CLR     A
00E3 F0                MOVX    @DPTR,A
                                           ; SOURCE LINE # 992
00E4         ?C0054:
                                           ; SOURCE LINE # 994
00E4 900000      R     MOV     DPTR,#status
00E7 E0                MOVX    A,@DPTR
00E8 FF                MOV     R7,A
                                           ; SOURCE LINE # 995
00E9         ?C0057:
00E9 22                RET     
C51 COMPILER V9.51   CYDMAC                                                                11/20/2019 09:16:31 PAGE 48  

             ; FUNCTION _CyDmaTdGetAddress (END)

             ; FUNCTION _CyDmaChRoundRobin (BEGIN)
                                           ; SOURCE LINE # 1017
0000 900000      R     MOV     DPTR,#chHandle
0003 EF                MOV     A,R7
0004 F0                MOVX    @DPTR,A
0005 900000      R     MOV     DPTR,#enableRR
0008 ED                MOV     A,R5
0009 F0                MOVX    @DPTR,A
                                           ; SOURCE LINE # 1018
                                           ; SOURCE LINE # 1019
000A 900000      R     MOV     DPTR,#status
000D 7401              MOV     A,#01H
000F F0                MOVX    @DPTR,A
                                           ; SOURCE LINE # 1021
0010 900000      R     MOV     DPTR,#chHandle
0013 E0                MOVX    A,@DPTR
0014 FF                MOV     R7,A
0015 EF                MOV     A,R7
0016 C3                CLR     C
0017 9418              SUBB    A,#018H
0019 503D              JNC     ?C0058
                                           ; SOURCE LINE # 1022
                                           ; SOURCE LINE # 1023
001B 900000      R     MOV     DPTR,#enableRR
001E E0                MOVX    A,@DPTR
001F FF                MOV     R7,A
0020 EF                MOV     A,R7
0021 6019              JZ      ?C0059
                                           ; SOURCE LINE # 1024
                                           ; SOURCE LINE # 1025
0023 900000      R     MOV     DPTR,#chHandle
0026 E0                MOVX    A,@DPTR
0027 FF                MOV     R7,A
0028 75F010            MOV     B,#010H
002B EF                MOV     A,R7
002C 907010            MOV     DPTR,#07010H
002F 120000      E     LCALL   ?C?OFFXADD
0032 E0                MOVX    A,@DPTR
0033 FF                MOV     R7,A
0034 EF                MOV     A,R7
0035 4410              ORL     A,#010H
0037 FF                MOV     R7,A
0038 EF                MOV     A,R7
0039 F0                MOVX    @DPTR,A
                                           ; SOURCE LINE # 1026
003A 8017              SJMP    ?C0060
003C         ?C0059:
                                           ; SOURCE LINE # 1028
                                           ; SOURCE LINE # 1029
003C 900000      R     MOV     DPTR,#chHandle
003F E0                MOVX    A,@DPTR
0040 FF                MOV     R7,A
0041 75F010            MOV     B,#010H
0044 EF                MOV     A,R7
0045 907010            MOV     DPTR,#07010H
0048 120000      E     LCALL   ?C?OFFXADD
004B E0                MOVX    A,@DPTR
004C FF                MOV     R7,A
004D EF                MOV     A,R7
004E 54EF              ANL     A,#0EFH
C51 COMPILER V9.51   CYDMAC                                                                11/20/2019 09:16:31 PAGE 49  

0050 FF                MOV     R7,A
0051 EF                MOV     A,R7
0052 F0                MOVX    @DPTR,A
                                           ; SOURCE LINE # 1030
0053         ?C0060:
                                           ; SOURCE LINE # 1032
0053 900000      R     MOV     DPTR,#status
0056 E4                CLR     A
0057 F0                MOVX    @DPTR,A
                                           ; SOURCE LINE # 1033
0058         ?C0058:
                                           ; SOURCE LINE # 1035
0058 900000      R     MOV     DPTR,#status
005B E0                MOVX    A,@DPTR
005C FF                MOV     R7,A
                                           ; SOURCE LINE # 1036
005D         ?C0061:
005D 22                RET     
             ; FUNCTION _CyDmaChRoundRobin (END)



MODULE INFORMATION:   STATIC OVERLAYABLE
   CODE SIZE        =   2588    ----
   CONSTANT SIZE    =   ----    ----
   XDATA SIZE       =      6      99
   PDATA SIZE       =   ----    ----
   DATA SIZE        =   ----    ----
   IDATA SIZE       =   ----    ----
   BIT SIZE         =   ----    ----
   EDATA SIZE       =   ----    ----
   HDATA SIZE       =   ----    ----
   XDATA CONST SIZE =   ----    ----
   FAR CONST SIZE   =   ----    ----
END OF MODULE INFORMATION.


C51 COMPILATION COMPLETE.  0 WARNING(S),  0 ERROR(S)
