:400000000205B7008F828E83E0540100000070F82278FFE4F6D8FD020615BB010689828A83E0225002E722BBFE02E32289828A83E49322BB010689828A83F0225002F722DF
:40004000BBFE01F322C5F0F8A3E028F0C5F0F8E582158270021583E038F022EF2BFFEE3AFEED39FDEC38FC22E88FF0A4CC8BF0A42CFCE98EF0A42CFC8AF0EDA42CFCEA8EEA
:40008000F0A4CDA8F08BF0A42DCC3825F0FDE98FF0A42CCD35F0FCEB8EF0A4FEA9F0EB8FF0A4CFC5F02ECD39FEE43CFCEAA42DCE35F0FDE43CFC2275F008758200EF2FFFD1
:4000C000EE33FECD33CDCC33CCC58233C5829BED9AEC99E58298400CF582EE9BFEED9AFDEC99FC0FD5F0D6E4CEFBE4CDFAE4CCF9A88222B800C1B90059BA002DEC8BF0843F
:40010000CFCECDFCE5F0CBF97818EF2FFFEE33FEED33FDEC33FCEB33FB10D703994004EB99FB0FD8E5E4F9FA227818EF2FFFEE33FEED33FDEC33FCC933C910D7059BE99AC5
:400140004007EC9BFCE99AF90FD8E0E4C9FAE4CCFB2275F010EF2FFFEE33FEED33FDCC33CCC833C810D7079BEC9AE899400AED9BFDEC9AFCE899F80FD5F0DAE4CDFBE4CC3E
:40018000FAE4C8F922EF4BFFEE4AFEED49FDEC48FC22EB9FF5F0EA9E42F0E99D42F0E89C45F022E8600FECC313FCED13FDEE13FEEF13FFD8F122E8600FEFC333FFEE33FE77
:4001C000ED33FDEC33FCD8F122BB010789828A830202035005E9F80202BCBBFE05E9F80202C889828A830202D4BB010789828A8302021B5005E9F80202E4BBFE05E9F802F0
:4002000002F022E0FCA3E0FDA3E0FEA3E0FF22E0F8A3E0F9A3E0FAA3E0FB22ECF0A3EDF0A3EEF0A3EFF022E0FBA3E0FAA3E0F922EBF0A3EAF0A3E9F022E493FB740193FAD7
:40024000740293F922D083D082F8E4937012740193700DA3A393F8740193F5828883E4737402936860EFA3A3A380DFE50C2582F582E50B3583F583B50B0485820C2210AF9E
:400280000685820CF50B2285820CF50BD2AF22EC8EF0A4CCC5F0CCCDF8EFA4CEC5F02DFDE43CFCE8A42EC8C5F03DFDE43CFCEFA4FFE5F028FEE43DFDE43CFC22E6FC08E68B
:4002C000FD08E6FE08E6FF22E2FC08E2FD08E2FE08E2FF22E493FC740193FD740293FE740393FF22ECF608EDF608EEF608EFF622ECF208EDF208EEF208EFF2227B007A40EF
:4003000079807D717C2F1208219040827419F07B007A4079847D437C351208219040867419F07B007A4079887DC97C3B12082190408A7419F07B007A40798C7DF67C4212AE
:40034000082190408E7419F07B007A4079907D057C471208219040927419F07B007A4079947DB77C4F1208219040967419F07B007A4079987D077C0012082190409A741B03
:40038000F07B007A40799C7D3E7C0012082190409E741BF09043007402F09040007408F09042007403F07B0C7A0179081206F29046A1EFF07B007A4279227D087C00120826
:4003C000217B007A4279207D517C12120821900056E4F07F197E007D007C0090005212021B900052120203D3EF9400EE9400404E900056E0FFEF64036044904225E0FFEFB8
:400400005401FF7E00900056E0FEEE25E0FEEE4FFFEF5403FF900056EFF07FE07E017D007C001207009000521202037BFF7AFF79FF78FF12005B90005212021B80A39000F3
:4004400052120203EF4E70057F0312080F7B007A4079047D007C011208219040047407F0904006E4F09040087448F0904004E4F09040017402F09043A2E0FFEF44FFFF906E
:4004800043A2EFF0227B007A4679E81206F2EF4405FD7B007A4679E8120830750A00E50AC39409503AAF0AEF75F005A4244AF582E43408F583AF82AE838E088F09AE08AF15
:4004C000098F828E83120239AE08AF098F828E83740393FC740493FD1207F6050A80BF7B087A0079001207A57B017A5079031206F2EF4402FD7B017A5079031208307B01CF
:400500007A5079131206F2EF4402FD7B017A5079131208309043A0E0FFEF4440FF9043A0EFF09043C2E0FFEF4410FF9043C2EFF07B087A0179DCC003C002C0017B007A51EE
:400540007912900057120230D001D002D0037F087E00120771904322E0FFEF4408FF904322EFF09046ECE0FFEFC394055006904689743AF09048007431F01202FC9048004A
:4005800074B1F012073B7B007A4379A0C003C002C0017B007A4379B0900057120230D001D002D0037F0E7E001207719043B0E0FFEF54FDFFEFF022759300780075834675CF
:4005C00082E8E04401F0009046ECE0F99046FAE0FAB903225420B40012B8001AEA901FFFF07401901FFEF09046F6F0901FFEE06005901FFFE0FA90480074C0F075810C90EF
:40060000000078007920E4F0A3D8FCD9FAEA90004DF0020011750B1F750CFD1206A412048502065F02083CE493A3F8E493A34003F68001F208DFF48029E493A3F8540724B3
:400640000CC8C333C4540F4420C8834004F456800146F6DFE4800B01020408102040809007D2E47E019360BCA3FF543F30E509541FFEE493A360010ECF54C025E060A8404A
:40068000B8E493A3FAE493A3F8E493A3C8C582C8CAC583CAF0A3C8C582C8CAC583CADFE9DEE780BE900052E4F0900052E0FFEFD3941F503D900052E0FF7E02EF8EF0A4FFB4
:4006C000AEF0EF2400FFEE3444FEAA06A9077B01C003C002C0017BFF7A087947AC02AD01D001D002D003120823900052E004F080B8228B938A838982E0759300FF220000AA
:40070000EC4D4E700D78FCEF24E950032840FD2200007BF178DA0000EF28FF78FFEE38FEED38FDEC38FC50E7EF2BFFEE38FEED38FDEC38FC40F222050203047B0C7A017927
:40074000CF1206F2900052EFF0900052E0FFEF5407FF90586EEFF0900052E0FFEFC4540FFFEF540FFF90586FEFF09058767444F022758600EF4E6027EF60010E7593009066
:400780000057E0F595A3E0F585A3E0F5848B938A838982E0A30586F0A31586DFF6DEF4E4F593F59522ACEAADA08B938A838982E0F96017A3E0F5EAA3E0F5A0A3E060F4FA9A
:4007C000A3E0F8A3E0F2DAF8D9E98DA08CEAE4F59322440049016E360044004400005DC04100481844004E2EE0000043005A00000041005F0000EC4D6011ED60010C8B93CD
:400800008A838982E4F0A3DDFCDCFA75930022900057EFF0900057E0FF900057EFF080FE228B938A838982EDF0A3ECF0759300228B938A838982EDF075930022D2AF904410
:40084000F474FDF080FE2280FE32005100001000512000500051C000100051F00010010000100001140008000140000A00014C000200015000002000000000000000000006
:400880000000000000000000000000000000000000000000000000000000000000000000000000000000000000000000000000000000000000000000000000000000000038
:4008C00000000000000000000000000000000000000000000000000000000000000000000000000000000000000000000000000000000000000000000000000000000000F8
:4009000000000000000000000000000000000000000000000000000000000000000000000000000000000000000000000000000000000000000000000000000000000000B7
:400940000000000000000000000000000000000000000000000000000000000000000000000000000000000000000000000000000000000000000000000000000000000077
:0200000480007A
:400000000F00520109C0010701E04401082F010502010B010F1012071308150417011A031B021E0F2E072F1530083110320133033404350C360239083AAA3B023F14580413
:4000400059045C775F0186408A019220960498559A2A9E10A202A433A64CA80FAA70AE08B07FBAC0BE01D804DC07DF0101092103180401050109020A280B010E4910821264
:40008000081308174019C01A011B021C111D281E481F01260827482D8036253C113E4083108E10C016C2DFC48FCA10CCE0CEB0E040011501E401011703E001E805EC40011C
:4000C0001830013203091103131C153017821DC41F0A250427692DA12F5231FF3F0159045F018045814D82AA83208CC68E399027910F92D893F095A09756981399779AAC37
:400100009B889D119FAAA83EAAC1AC0FAD87AE70AF78B4FFB5FFB820BE10BF10D804D904DF0101192B00020201034008020920100212081A0822202601280229402C102F36
:40014000013012312932083340354136083A013B023C0281029302960899419B40A128A302A502A621A708A802AB01B480C009C20AC403CA58CCDFCE81EC40011B048308FC
:40018000A708AB02E80401430381208F80E02001480E232024802520832094849D80A520A780A840A980B404C8E0E080E8A001490B19801F8020042620822094049D80A76B
:4001C00080C6C0C830E480014C026201D802014D01AA0101500200800C80000000CBCB00C00000000000000000000000000000000000000000000000000000000000000062
:4002000000000000000000000000000000000000000000000000000000000000000000000000000000000000000000000000000000000000000000000000000000000000BE
:40024000000000000000000000000000000000000000000000000000000000000000000000000000000000000000000000000000000000000000000000000000000000007E
:40028000000000000000000000000000000000000000000000000000000000000000000000000000000000000000000000000000000000000000000000000000000000003E
:4002C00000000000000000000000000000000000000000000000000000000000000000000000000000000000000000000000000000000000000000000000000000000000FE
:0200000490006A
:0400000000004005B7
:0200000490105A
:04000000BC90ACAF55
:0200000490303A
:02000000D0929C
:0200000490501A
:0C00000000011E02806903011E0750FB76
:0200000490402A
:4000000000000000000000000000000000000000000000000000000000000000000000000000000000000000000000000000000000000000000000000000000000000000C0
:00000001FF
