C51 COMPILER V9.51   TEST_PM                                                               10/09/2019 10:46:27 PAGE 1   


C51 COMPILER V9.51, COMPILATION OF MODULE TEST_PM
OBJECT MODULE PLACED IN .\DP8051\DP8051_Keil_951\Debug\Test_PM.obj
COMPILER INVOKED BY: C:\Program Files (x86)\Cypress\PSoC Creator\4.2\PSoC Creator\import\keil\pk51\9.51\C51\BIN\c51.exe 
                    -Generated_Source\PSoC3\Test_PM.c NOIV LARGE MODDP2 OMF2 VB(1) NOIP INCDIR(.,Generated_Source\PSoC3) FF(3) DB DF(DEBUG) W
                    -L(2) PR(.\DP8051\DP8051_Keil_951\Debug/Test_PM.lst) CD OT(2,SIZE) OJ(.\DP8051\DP8051_Keil_951\Debug\Test_PM.obj)

line level    source

   1          /*******************************************************************************
   2          * File Name: Test_PM.c
   3          * Version 2.20
   4          *
   5          * Description:
   6          *  This file provides the API source code for the Static Segment LCD component.
   7          *
   8          * Note:
   9          *
  10          ********************************************************************************
  11          * Copyright 2008-2014, Cypress Semiconductor Corporation.  All rights reserved.
  12          * You may use this file only in accordance with the license, terms, conditions,
  13          * disclaimers, and limitations in the end user license agreement accompanying
  14          * the software package with which this file was provided.
  15          *******************************************************************************/
  16          
  17          #include "Test.h"
  18          
  19          
  20          static Test_BACKUP_STRUCT Test_backup;
  21          
  22          
  23          /*******************************************************************************
  24          * Function Name: Test_SaveConfig
  25          ********************************************************************************
  26          *
  27          * Summary:
  28          *  Does nothing, provided for consistency.
  29          *
  30          * Parameters:
  31          *  None.
  32          *
  33          * Return:
  34          *  None.
  35          *
  36          *******************************************************************************/
  37          void Test_SaveConfig(void) 
  38          {
  39   1      }
  40          
  41          
  42          /*******************************************************************************
  43          * Function Name: Test_RestoreConfig
  44          ********************************************************************************
  45          *
  46          * Summary:
  47          *  Does nothing, provided for consistency.
  48          *
  49          * Parameters:
  50          *  None.
  51          *
  52          * Return:
  53          *  None.
C51 COMPILER V9.51   TEST_PM                                                               10/09/2019 10:46:27 PAGE 2   

  54          *
  55          *******************************************************************************/
  56          void Test_RestoreConfig(void) 
  57          {
  58   1      }
  59          
  60          
  61          /*******************************************************************************
  62          * Function Name: Test_Sleep
  63          ********************************************************************************
  64          *
  65          * Summary:
  66          *  Prepares the component for entering the sleep mode.
  67          *
  68          * Parameters:
  69          *  None.
  70          *
  71          * Return:
  72          *  None.
  73          *
  74          * Reentrant:
  75          *  No.
  76          *
  77          *******************************************************************************/
  78          void Test_Sleep(void) 
  79          {
  80   1          Test_backup.enableState = Test_enableState;
  81   1          Test_SaveConfig();
  82   1          Test_Stop();
  83   1      }
  84          
  85          
  86          /*******************************************************************************
  87          * Function Name: Test_Wakeup
  88          ********************************************************************************
  89          *
  90          * Summary:
  91          *  Wakes the component from sleep mode. Configures DMA and enables the component
  92          *  for normal operation.
  93          *
  94          * Parameters:
  95          *  Test_enableState - Global variable.
  96          *
  97          * Return:
  98          *  Status one of standard status for PSoC3 Component
  99          *       CYRET_SUCCESS - Function completed successfully.
 100          *       CYRET_LOCKED - The object was locked, already in use. Some of TDs or
 101          *                      a channel already in use.
 102          *
 103          * Reentrant:
 104          *  No.
 105          *
 106          *******************************************************************************/
 107          void Test_Wakeup(void) 
 108          {
 109   1          Test_RestoreConfig();
 110   1      
 111   1          if(Test_backup.enableState == 1u)
 112   1          {
 113   2              Test_Enable();
 114   2          }
 115   1      }
C51 COMPILER V9.51   TEST_PM                                                               10/09/2019 10:46:27 PAGE 3   

 116          
 117          
 118          /* [] END OF FILE */
C51 COMPILER V9.51   TEST_PM                                                               10/09/2019 10:46:27 PAGE 4   

ASSEMBLY LISTING OF GENERATED OBJECT CODE


             ; FUNCTION Test_SaveConfig (BEGIN)
                                           ; SOURCE LINE # 37
                                           ; SOURCE LINE # 38
                                           ; SOURCE LINE # 39
0000 22                RET     
             ; FUNCTION Test_SaveConfig (END)

             ; FUNCTION Test_RestoreConfig (BEGIN)
                                           ; SOURCE LINE # 56
                                           ; SOURCE LINE # 57
                                           ; SOURCE LINE # 58
0000 22                RET     
             ; FUNCTION Test_RestoreConfig (END)

             ; FUNCTION Test_Sleep (BEGIN)
                                           ; SOURCE LINE # 78
                                           ; SOURCE LINE # 79
                                           ; SOURCE LINE # 80
0000 900000      E     MOV     DPTR,#Test_enableState
0003 E0                MOVX    A,@DPTR
0004 FF                MOV     R7,A
0005 900000      R     MOV     DPTR,#Test_backup
0008 EF                MOV     A,R7
0009 F0                MOVX    @DPTR,A
                                           ; SOURCE LINE # 81
000A 120000      R     LCALL   Test_SaveConfig
                                           ; SOURCE LINE # 82
000D 120000      E     LCALL   Test_Stop
                                           ; SOURCE LINE # 83
0010 22                RET     
             ; FUNCTION Test_Sleep (END)

             ; FUNCTION Test_Wakeup (BEGIN)
                                           ; SOURCE LINE # 107
                                           ; SOURCE LINE # 108
                                           ; SOURCE LINE # 109
0000 120000      R     LCALL   Test_RestoreConfig
                                           ; SOURCE LINE # 111
0003 900000      R     MOV     DPTR,#Test_backup
0006 E0                MOVX    A,@DPTR
0007 FF                MOV     R7,A
0008 EF                MOV     A,R7
0009 B40103            CJNE    A,#01H,?C0005
                                           ; SOURCE LINE # 112
                                           ; SOURCE LINE # 113
000C 120000      E     LCALL   Test_Enable
                                           ; SOURCE LINE # 114
                                           ; SOURCE LINE # 115
000F         ?C0005:
000F 22                RET     
             ; FUNCTION Test_Wakeup (END)



MODULE INFORMATION:   STATIC OVERLAYABLE
   CODE SIZE        =     35    ----
   CONSTANT SIZE    =   ----    ----
   XDATA SIZE       =      1    ----
   PDATA SIZE       =   ----    ----
C51 COMPILER V9.51   TEST_PM                                                               10/09/2019 10:46:27 PAGE 5   

   DATA SIZE        =   ----    ----
   IDATA SIZE       =   ----    ----
   BIT SIZE         =   ----    ----
   EDATA SIZE       =   ----    ----
   HDATA SIZE       =   ----    ----
   XDATA CONST SIZE =   ----    ----
   FAR CONST SIZE   =   ----    ----
END OF MODULE INFORMATION.


C51 COMPILATION COMPLETE.  0 WARNING(S),  0 ERROR(S)
